{
  "_format": "hh-sol-artifact-1",
  "contractName": "SpidyToken",
  "sourceName": "contracts/own/SpidyToken.sol",
  "abi": [
    {
      "inputs": [
        {
          "internalType": "uint256",
          "name": "_totalTokenSupply",
          "type": "uint256"
        }
      ],
      "stateMutability": "nonpayable",
      "type": "constructor"
    },
    {
      "anonymous": false,
      "inputs": [
        {
          "indexed": true,
          "internalType": "address",
          "name": "owner",
          "type": "address"
        },
        {
          "indexed": true,
          "internalType": "address",
          "name": "spender",
          "type": "address"
        },
        {
          "indexed": false,
          "internalType": "uint256",
          "name": "value",
          "type": "uint256"
        }
      ],
      "name": "Approval",
      "type": "event"
    },
    {
      "anonymous": false,
      "inputs": [
        {
          "indexed": true,
          "internalType": "address",
          "name": "to",
          "type": "address"
        },
        {
          "indexed": false,
          "internalType": "uint256",
          "name": "value",
          "type": "uint256"
        }
      ],
      "name": "Mint",
      "type": "event"
    },
    {
      "anonymous": false,
      "inputs": [
        {
          "indexed": true,
          "internalType": "address",
          "name": "from",
          "type": "address"
        },
        {
          "indexed": true,
          "internalType": "address",
          "name": "to",
          "type": "address"
        },
        {
          "indexed": false,
          "internalType": "uint256",
          "name": "value",
          "type": "uint256"
        }
      ],
      "name": "Transfer",
      "type": "event"
    },
    {
      "inputs": [
        {
          "internalType": "address",
          "name": "_owner",
          "type": "address"
        },
        {
          "internalType": "address",
          "name": "_spender",
          "type": "address"
        }
      ],
      "name": "allowance",
      "outputs": [
        {
          "internalType": "uint256",
          "name": "",
          "type": "uint256"
        }
      ],
      "stateMutability": "view",
      "type": "function"
    },
    {
      "inputs": [
        {
          "internalType": "address",
          "name": "_spender",
          "type": "address"
        },
        {
          "internalType": "uint256",
          "name": "_value",
          "type": "uint256"
        }
      ],
      "name": "approve",
      "outputs": [
        {
          "internalType": "bool",
          "name": "success",
          "type": "bool"
        }
      ],
      "stateMutability": "nonpayable",
      "type": "function"
    },
    {
      "inputs": [
        {
          "internalType": "address",
          "name": "account",
          "type": "address"
        }
      ],
      "name": "balanceOf",
      "outputs": [
        {
          "internalType": "uint256",
          "name": "",
          "type": "uint256"
        }
      ],
      "stateMutability": "view",
      "type": "function"
    },
    {
      "inputs": [],
      "name": "burn",
      "outputs": [
        {
          "internalType": "bool",
          "name": "success",
          "type": "bool"
        }
      ],
      "stateMutability": "nonpayable",
      "type": "function"
    },
    {
      "inputs": [],
      "name": "decimals",
      "outputs": [
        {
          "internalType": "uint8",
          "name": "",
          "type": "uint8"
        }
      ],
      "stateMutability": "pure",
      "type": "function"
    },
    {
      "inputs": [
        {
          "internalType": "address",
          "name": "spender",
          "type": "address"
        },
        {
          "internalType": "uint256",
          "name": "value",
          "type": "uint256"
        }
      ],
      "name": "decreaseAllowance",
      "outputs": [
        {
          "internalType": "bool",
          "name": "success",
          "type": "bool"
        }
      ],
      "stateMutability": "nonpayable",
      "type": "function"
    },
    {
      "inputs": [
        {
          "internalType": "address",
          "name": "spender",
          "type": "address"
        },
        {
          "internalType": "uint256",
          "name": "value",
          "type": "uint256"
        }
      ],
      "name": "increaseAllowance",
      "outputs": [
        {
          "internalType": "bool",
          "name": "success",
          "type": "bool"
        }
      ],
      "stateMutability": "nonpayable",
      "type": "function"
    },
    {
      "inputs": [],
      "name": "mint",
      "outputs": [
        {
          "internalType": "bool",
          "name": "success",
          "type": "bool"
        }
      ],
      "stateMutability": "nonpayable",
      "type": "function"
    },
    {
      "inputs": [],
      "name": "name",
      "outputs": [
        {
          "internalType": "string",
          "name": "",
          "type": "string"
        }
      ],
      "stateMutability": "pure",
      "type": "function"
    },
    {
      "inputs": [],
      "name": "symbol",
      "outputs": [
        {
          "internalType": "string",
          "name": "",
          "type": "string"
        }
      ],
      "stateMutability": "pure",
      "type": "function"
    },
    {
      "inputs": [],
      "name": "tokenLeft",
      "outputs": [
        {
          "internalType": "uint256",
          "name": "",
          "type": "uint256"
        }
      ],
      "stateMutability": "view",
      "type": "function"
    },
    {
      "inputs": [],
      "name": "totalSupply",
      "outputs": [
        {
          "internalType": "uint256",
          "name": "",
          "type": "uint256"
        }
      ],
      "stateMutability": "view",
      "type": "function"
    },
    {
      "inputs": [
        {
          "internalType": "address",
          "name": "_to",
          "type": "address"
        },
        {
          "internalType": "uint256",
          "name": "_value",
          "type": "uint256"
        }
      ],
      "name": "transfer",
      "outputs": [
        {
          "internalType": "bool",
          "name": "success",
          "type": "bool"
        }
      ],
      "stateMutability": "nonpayable",
      "type": "function"
    },
    {
      "inputs": [
        {
          "internalType": "address",
          "name": "_from",
          "type": "address"
        },
        {
          "internalType": "address",
          "name": "_to",
          "type": "address"
        },
        {
          "internalType": "uint256",
          "name": "_value",
          "type": "uint256"
        }
      ],
      "name": "transferfrom",
      "outputs": [
        {
          "internalType": "bool",
          "name": "success",
          "type": "bool"
        }
      ],
      "stateMutability": "nonpayable",
      "type": "function"
    }
  ],
  "bytecode": "0x608060405234801561001057600080fd5b50604051612561380380612561833981810160405281019061003291906101df565b336000806101000a81548173ffffffffffffffffffffffffffffffffffffffff021916908373ffffffffffffffffffffffffffffffffffffffff1602179055506012600a610080919061037b565b8161008b91906103c6565b600181905550600a6001546100a09190610437565b600281905550600254600460008060009054906101000a900473ffffffffffffffffffffffffffffffffffffffff1673ffffffffffffffffffffffffffffffffffffffff1673ffffffffffffffffffffffffffffffffffffffff1681526020019081526020016000208190555060025460038190555060008054906101000a900473ffffffffffffffffffffffffffffffffffffffff1673ffffffffffffffffffffffffffffffffffffffff16600073ffffffffffffffffffffffffffffffffffffffff167fddf252ad1be2c89b69c2b068fc378daa952ba7f163c4a11628f55a4df523b3ef6002546040516101969190610477565b60405180910390a350610492565b600080fd5b6000819050919050565b6101bc816101a9565b81146101c757600080fd5b50565b6000815190506101d9816101b3565b92915050565b6000602082840312156101f5576101f46101a4565b5b6000610203848285016101ca565b91505092915050565b7f4e487b7100000000000000000000000000000000000000000000000000000000600052601160045260246000fd5b60008160011c9050919050565b6000808291508390505b60018511156102925780860481111561026e5761026d61020c565b5b600185161561027d5780820291505b808102905061028b8561023b565b9450610252565b94509492505050565b6000826102ab5760019050610367565b816102b95760009050610367565b81600181146102cf57600281146102d957610308565b6001915050610367565b60ff8411156102eb576102ea61020c565b5b8360020a9150848211156103025761030161020c565b5b50610367565b5060208310610133831016604e8410600b841016171561033d5782820a9050838111156103385761033761020c565b5b610367565b61034a8484846001610248565b925090508184048111156103615761036061020c565b5b81810290505b9392505050565b600060ff82169050919050565b6000610386826101a9565b91506103918361036e565b92506103be7fffffffffffffffffffffffffffffffffffffffffffffffffffffffffffffffff848461029b565b905092915050565b60006103d1826101a9565b91506103dc836101a9565b92508282026103ea816101a9565b915082820484148315176104015761040061020c565b5b5092915050565b7f4e487b7100000000000000000000000000000000000000000000000000000000600052601260045260246000fd5b6000610442826101a9565b915061044d836101a9565b92508261045d5761045c610408565b5b828204905092915050565b610471816101a9565b82525050565b600060208201905061048c6000830184610468565b92915050565b6120c0806104a16000396000f3fe608060405234801561001057600080fd5b50600436106100ea5760003560e01c806363b0545f1161008c5780639679dd7d116100665780639679dd7d14610263578063a457c2d714610281578063a9059cbb146102b1578063dd62ed3e146102e1576100ea565b806363b0545f146101e557806370a082311461021557806395d89b4114610245576100ea565b806318160ddd116100c857806318160ddd1461015b578063313ce56714610179578063395093511461019757806344df8e70146101c7576100ea565b806306fdde03146100ef578063095ea7b31461010d5780631249c58b1461013d575b600080fd5b6100f7610311565b60405161010491906115ed565b60405180910390f35b610127600480360381019061012291906116a8565b61034e565b6040516101349190611703565b60405180910390f35b6101456104cc565b6040516101529190611703565b60405180910390f35b6101636107f5565b604051610170919061172d565b60405180910390f35b6101816107ff565b60405161018e9190611764565b60405180910390f35b6101b160048036038101906101ac91906116a8565b610808565b6040516101be9190611703565b60405180910390f35b6101cf610a14565b6040516101dc9190611703565b60405180910390f35b6101ff60048036038101906101fa919061177f565b610b7d565b60405161020c9190611703565b60405180910390f35b61022f600480360381019061022a91906117d2565b610efb565b60405161023c919061172d565b60405180910390f35b61024d610f44565b60405161025a91906115ed565b60405180910390f35b61026b610f81565b604051610278919061172d565b60405180910390f35b61029b600480360381019061029691906116a8565b610f9d565b6040516102a89190611703565b60405180910390f35b6102cb60048036038101906102c691906116a8565b611268565b6040516102d89190611703565b60405180910390f35b6102fb60048036038101906102f691906117ff565b6114d6565b604051610308919061172d565b60405180910390f35b60606040518060400160405280600581526020017f5370696479000000000000000000000000000000000000000000000000000000815250905090565b6000806012600a61035f91906119a1565b8361036a91906119ec565b9050600073ffffffffffffffffffffffffffffffffffffffff168473ffffffffffffffffffffffffffffffffffffffff16036103db576040517f08c379a00000000000000000000000000000000000000000000000000000000081526004016103d290611aa0565b60405180910390fd5b80600560003373ffffffffffffffffffffffffffffffffffffffff1673ffffffffffffffffffffffffffffffffffffffff16815260200190815260200160002060008673ffffffffffffffffffffffffffffffffffffffff1673ffffffffffffffffffffffffffffffffffffffff168152602001908152602001600020819055508373ffffffffffffffffffffffffffffffffffffffff163373ffffffffffffffffffffffffffffffffffffffff167f8c5be1e5ebec7d5bd14f71427d1e84f3dd0314c0f7b2291e5b200ac8c7c3b925836040516104b9919061172d565b60405180910390a3600191505092915050565b60006001546012600a6104df91906119a1565b600a6104eb91906119ec565b6003546104f89190611ac0565b1115610539576040517f08c379a000000000000000000000000000000000000000000000000000000000815260040161053090611b40565b60405180910390fd5b6012600a61054791906119a1565b606461055391906119ec565b6012600a61056191906119a1565b600a61056d91906119ec565b600660003373ffffffffffffffffffffffffffffffffffffffff1673ffffffffffffffffffffffffffffffffffffffff168152602001908152602001600020546105b79190611ac0565b11156105f8576040517f08c379a00000000000000000000000000000000000000000000000000000000081526004016105ef90611bac565b60405180910390fd5b6012600a61060691906119a1565b600a61061291906119ec565b600460003373ffffffffffffffffffffffffffffffffffffffff1673ffffffffffffffffffffffffffffffffffffffff16815260200190815260200160002060008282546106609190611ac0565b925050819055506012600a61067591906119a1565b600a61068191906119ec565b600360008282546106929190611ac0565b925050819055506012600a6106a791906119a1565b600a6106b391906119ec565b600660003373ffffffffffffffffffffffffffffffffffffffff1673ffffffffffffffffffffffffffffffffffffffff16815260200190815260200160002060008282546107019190611ac0565b925050819055503373ffffffffffffffffffffffffffffffffffffffff167f0f6798a560793a54c3bcfe86a93cde1e73087d944c0ea20544137d41213968856012600a61074e91906119a1565b600a61075a91906119ec565b604051610767919061172d565b60405180910390a23373ffffffffffffffffffffffffffffffffffffffff16600073ffffffffffffffffffffffffffffffffffffffff167fddf252ad1be2c89b69c2b068fc378daa952ba7f163c4a11628f55a4df523b3ef6012600a6107cd91906119a1565b600a6107d991906119ec565b6040516107e6919061172d565b60405180910390a36001905090565b6000600154905090565b60006012905090565b60008073ffffffffffffffffffffffffffffffffffffffff168373ffffffffffffffffffffffffffffffffffffffff1603610878576040517f08c379a000000000000000000000000000000000000000000000000000000000815260040161086f90611c3e565b60405180910390fd5b60006012600a61088891906119a1565b8361089391906119ec565b905080600560003373ffffffffffffffffffffffffffffffffffffffff1673ffffffffffffffffffffffffffffffffffffffff16815260200190815260200160002060008673ffffffffffffffffffffffffffffffffffffffff1673ffffffffffffffffffffffffffffffffffffffff16815260200190815260200160002060008282546109219190611ac0565b925050819055508373ffffffffffffffffffffffffffffffffffffffff163373ffffffffffffffffffffffffffffffffffffffff167f8c5be1e5ebec7d5bd14f71427d1e84f3dd0314c0f7b2291e5b200ac8c7c3b925600560003373ffffffffffffffffffffffffffffffffffffffff1673ffffffffffffffffffffffffffffffffffffffff16815260200190815260200160002060008873ffffffffffffffffffffffffffffffffffffffff1673ffffffffffffffffffffffffffffffffffffffff16815260200190815260200160002054604051610a01919061172d565b60405180910390a3600191505092915050565b60008060009054906101000a900473ffffffffffffffffffffffffffffffffffffffff1673ffffffffffffffffffffffffffffffffffffffff163373ffffffffffffffffffffffffffffffffffffffff1614610aa5576040517f08c379a0000000000000000000000000000000000000000000000000000000008152600401610a9c90611caa565b60405180910390fd5b6012600a610ab391906119a1565b600a610abf91906119ec565b60016000828254610ad09190611cca565b92505081905550600073ffffffffffffffffffffffffffffffffffffffff1660008054906101000a900473ffffffffffffffffffffffffffffffffffffffff1673ffffffffffffffffffffffffffffffffffffffff167fddf252ad1be2c89b69c2b068fc378daa952ba7f163c4a11628f55a4df523b3ef6012600a610b5591906119a1565b600a610b6191906119ec565b604051610b6e919061172d565b60405180910390a36001905090565b6000806012600a610b8e91906119a1565b83610b9991906119ec565b9050600073ffffffffffffffffffffffffffffffffffffffff168473ffffffffffffffffffffffffffffffffffffffff1603610c0a576040517f08c379a0000000000000000000000000000000000000000000000000000000008152600401610c0190611d70565b60405180910390fd5b600460008673ffffffffffffffffffffffffffffffffffffffff1673ffffffffffffffffffffffffffffffffffffffff16815260200190815260200160002054811115610c8c576040517f08c379a0000000000000000000000000000000000000000000000000000000008152600401610c8390611ddc565b60405180910390fd5b600560008673ffffffffffffffffffffffffffffffffffffffff1673ffffffffffffffffffffffffffffffffffffffff16815260200190815260200160002060003373ffffffffffffffffffffffffffffffffffffffff1673ffffffffffffffffffffffffffffffffffffffff16815260200190815260200160002054811115610d4b576040517f08c379a0000000000000000000000000000000000000000000000000000000008152600401610d4290611e48565b60405180910390fd5b80600460008773ffffffffffffffffffffffffffffffffffffffff1673ffffffffffffffffffffffffffffffffffffffff1681526020019081526020016000206000828254610d9a9190611cca565b9250508190555080600460008673ffffffffffffffffffffffffffffffffffffffff1673ffffffffffffffffffffffffffffffffffffffff1681526020019081526020016000206000828254610df09190611ac0565b9250508190555080600560008773ffffffffffffffffffffffffffffffffffffffff1673ffffffffffffffffffffffffffffffffffffffff16815260200190815260200160002060003373ffffffffffffffffffffffffffffffffffffffff1673ffffffffffffffffffffffffffffffffffffffff1681526020019081526020016000206000828254610e839190611cca565b925050819055508373ffffffffffffffffffffffffffffffffffffffff168573ffffffffffffffffffffffffffffffffffffffff167fddf252ad1be2c89b69c2b068fc378daa952ba7f163c4a11628f55a4df523b3ef83604051610ee7919061172d565b60405180910390a360019150509392505050565b6000600460008373ffffffffffffffffffffffffffffffffffffffff1673ffffffffffffffffffffffffffffffffffffffff168152602001908152602001600020549050919050565b60606040518060400160405280600381526020017f5350440000000000000000000000000000000000000000000000000000000000815250905090565b600080600354600154610f949190611cca565b90508091505090565b60008073ffffffffffffffffffffffffffffffffffffffff168373ffffffffffffffffffffffffffffffffffffffff160361100d576040517f08c379a000000000000000000000000000000000000000000000000000000000815260040161100490611eda565b60405180910390fd5b60006012600a61101d91906119a1565b8361102891906119ec565b905080600560003373ffffffffffffffffffffffffffffffffffffffff1673ffffffffffffffffffffffffffffffffffffffff16815260200190815260200160002060008673ffffffffffffffffffffffffffffffffffffffff1673ffffffffffffffffffffffffffffffffffffffff1681526020019081526020016000205410156110e9576040517f08c379a00000000000000000000000000000000000000000000000000000000081526004016110e090611f6c565b60405180910390fd5b80600560003373ffffffffffffffffffffffffffffffffffffffff1673ffffffffffffffffffffffffffffffffffffffff16815260200190815260200160002060008673ffffffffffffffffffffffffffffffffffffffff1673ffffffffffffffffffffffffffffffffffffffff16815260200190815260200160002060008282546111759190611cca565b925050819055508373ffffffffffffffffffffffffffffffffffffffff163373ffffffffffffffffffffffffffffffffffffffff167f8c5be1e5ebec7d5bd14f71427d1e84f3dd0314c0f7b2291e5b200ac8c7c3b925600560003373ffffffffffffffffffffffffffffffffffffffff1673ffffffffffffffffffffffffffffffffffffffff16815260200190815260200160002060008873ffffffffffffffffffffffffffffffffffffffff1673ffffffffffffffffffffffffffffffffffffffff16815260200190815260200160002054604051611255919061172d565b60405180910390a3600191505092915050565b6000806012600a61127991906119a1565b8361128491906119ec565b9050600081116112c9576040517f08c379a00000000000000000000000000000000000000000000000000000000081526004016112c090611fd8565b60405180910390fd5b600073ffffffffffffffffffffffffffffffffffffffff168473ffffffffffffffffffffffffffffffffffffffff1603611338576040517f08c379a000000000000000000000000000000000000000000000000000000000815260040161132f9061206a565b60405180910390fd5b80600460003373ffffffffffffffffffffffffffffffffffffffff1673ffffffffffffffffffffffffffffffffffffffff1681526020019081526020016000205410156113ba576040517f08c379a00000000000000000000000000000000000000000000000000000000081526004016113b190611ddc565b60405180910390fd5b80600460003373ffffffffffffffffffffffffffffffffffffffff1673ffffffffffffffffffffffffffffffffffffffff16815260200190815260200160002060008282546114099190611cca565b9250508190555080600460008673ffffffffffffffffffffffffffffffffffffffff1673ffffffffffffffffffffffffffffffffffffffff168152602001908152602001600020600082825461145f9190611ac0565b925050819055508373ffffffffffffffffffffffffffffffffffffffff163373ffffffffffffffffffffffffffffffffffffffff167fddf252ad1be2c89b69c2b068fc378daa952ba7f163c4a11628f55a4df523b3ef836040516114c3919061172d565b60405180910390a3600191505092915050565b6000600560008473ffffffffffffffffffffffffffffffffffffffff1673ffffffffffffffffffffffffffffffffffffffff16815260200190815260200160002060008373ffffffffffffffffffffffffffffffffffffffff1673ffffffffffffffffffffffffffffffffffffffff16815260200190815260200160002054905092915050565b600081519050919050565b600082825260208201905092915050565b60005b8381101561159757808201518184015260208101905061157c565b60008484015250505050565b6000601f19601f8301169050919050565b60006115bf8261155d565b6115c98185611568565b93506115d9818560208601611579565b6115e2816115a3565b840191505092915050565b6000602082019050818103600083015261160781846115b4565b905092915050565b600080fd5b600073ffffffffffffffffffffffffffffffffffffffff82169050919050565b600061163f82611614565b9050919050565b61164f81611634565b811461165a57600080fd5b50565b60008135905061166c81611646565b92915050565b6000819050919050565b61168581611672565b811461169057600080fd5b50565b6000813590506116a28161167c565b92915050565b600080604083850312156116bf576116be61160f565b5b60006116cd8582860161165d565b92505060206116de85828601611693565b9150509250929050565b60008115159050919050565b6116fd816116e8565b82525050565b600060208201905061171860008301846116f4565b92915050565b61172781611672565b82525050565b6000602082019050611742600083018461171e565b92915050565b600060ff82169050919050565b61175e81611748565b82525050565b60006020820190506117796000830184611755565b92915050565b6000806000606084860312156117985761179761160f565b5b60006117a68682870161165d565b93505060206117b78682870161165d565b92505060406117c886828701611693565b9150509250925092565b6000602082840312156117e8576117e761160f565b5b60006117f68482850161165d565b91505092915050565b600080604083850312156118165761181561160f565b5b60006118248582860161165d565b92505060206118358582860161165d565b9150509250929050565b7f4e487b7100000000000000000000000000000000000000000000000000000000600052601160045260246000fd5b60008160011c9050919050565b6000808291508390505b60018511156118c5578086048111156118a1576118a061183f565b5b60018516156118b05780820291505b80810290506118be8561186e565b9450611885565b94509492505050565b6000826118de576001905061199a565b816118ec576000905061199a565b8160018114611902576002811461190c5761193b565b600191505061199a565b60ff84111561191e5761191d61183f565b5b8360020a9150848211156119355761193461183f565b5b5061199a565b5060208310610133831016604e8410600b84101617156119705782820a90508381111561196b5761196a61183f565b5b61199a565b61197d848484600161187b565b925090508184048111156119945761199361183f565b5b81810290505b9392505050565b60006119ac82611672565b91506119b783611748565b92506119e47fffffffffffffffffffffffffffffffffffffffffffffffffffffffffffffffff84846118ce565b905092915050565b60006119f782611672565b9150611a0283611672565b9250828202611a1081611672565b91508282048414831517611a2757611a2661183f565b5b5092915050565b7f43616e6e6f7420617070726f766520616d6f756e7420746f2061207a65726f2060008201527f6164647265737300000000000000000000000000000000000000000000000000602082015250565b6000611a8a602783611568565b9150611a9582611a2e565b604082019050919050565b60006020820190508181036000830152611ab981611a7d565b9050919050565b6000611acb82611672565b9150611ad683611672565b9250828201905080821115611aee57611aed61183f565b5b92915050565b7f4e6f206d6f726520746f74616c537570706c7900000000000000000000000000600082015250565b6000611b2a601383611568565b9150611b3582611af4565b602082019050919050565b60006020820190508181036000830152611b5981611b1d565b9050919050565b7f4d6178696d756d206c696d697420726561636865640000000000000000000000600082015250565b6000611b96601583611568565b9150611ba182611b60565b602082019050919050565b60006020820190508181036000830152611bc581611b89565b9050919050565b7f43616e6e6f7420696e63726561736520616c6c6f77616e636520746f2061646460008201527f726573732076616c7565205a65726f0000000000000000000000000000000000602082015250565b6000611c28602f83611568565b9150611c3382611bcc565b604082019050919050565b60006020820190508181036000830152611c5781611c1b565b9050919050565b7f6f6e6c79206f776e65722063616e2063616c6c00000000000000000000000000600082015250565b6000611c94601383611568565b9150611c9f82611c5e565b602082019050919050565b60006020820190508181036000830152611cc381611c87565b9050919050565b6000611cd582611672565b9150611ce083611672565b9250828203905081811115611cf857611cf761183f565b5b92915050565b7f43616e6e6f74207472616e7366657220746f207a65726f2076616c756520616460008201527f6472657373000000000000000000000000000000000000000000000000000000602082015250565b6000611d5a602583611568565b9150611d6582611cfe565b604082019050919050565b60006020820190508181036000830152611d8981611d4d565b9050919050565b7f496e73756666696369656e742062616c616e6365000000000000000000000000600082015250565b6000611dc6601483611568565b9150611dd182611d90565b602082019050919050565b60006020820190508181036000830152611df581611db9565b9050919050565b7f616c6c6f77616e63652065786365656465640000000000000000000000000000600082015250565b6000611e32601283611568565b9150611e3d82611dfc565b602082019050919050565b60006020820190508181036000830152611e6181611e25565b9050919050565b7f63616e6e6f7420646563726561736520616c6c6f77616e636520746f2061646460008201527f726573732076616c7565205a65726f0000000000000000000000000000000000602082015250565b6000611ec4602f83611568565b9150611ecf82611e68565b604082019050919050565b60006020820190508181036000830152611ef381611eb7565b9050919050565b7f496e73756666696369656e7420616c6c6f77616e63652062616c616e6365207460008201527f6f20646563726561736500000000000000000000000000000000000000000000602082015250565b6000611f56602a83611568565b9150611f6182611efa565b604082019050919050565b60006020820190508181036000830152611f8581611f49565b9050919050565b7f5472616e736665722076616c7565206d757374206265203e2030000000000000600082015250565b6000611fc2601a83611568565b9150611fcd82611f8c565b602082019050919050565b60006020820190508181036000830152611ff181611fb5565b9050919050565b7f43616e6e6f74207472616e7366657220746f20616464726573732076616c756560008201527f205a65726f000000000000000000000000000000000000000000000000000000602082015250565b6000612054602583611568565b915061205f82611ff8565b604082019050919050565b6000602082019050818103600083015261208381612047565b905091905056fea26469706673582212200d5e9d29254de2f0a3f62f020b54a512fd2b4dc9bf7f595c112f185a212b61ac64736f6c634300081e0033",
  "linkReferences": {},
  "deployedLinkReferences": {}
}