{
	"dharan-token/contracts/own/SpidyToken.sol": {
		"SpidyToken": {
			"abi": [
				{
					"inputs": [
						{
							"internalType": "uint256",
							"name": "_totalTokenSupply",
							"type": "uint256"
						}
					],
					"stateMutability": "nonpayable",
					"type": "constructor"
				},
				{
					"anonymous": false,
					"inputs": [
						{
							"indexed": true,
							"internalType": "address",
							"name": "owner",
							"type": "address"
						},
						{
							"indexed": true,
							"internalType": "address",
							"name": "spender",
							"type": "address"
						},
						{
							"indexed": false,
							"internalType": "uint256",
							"name": "value",
							"type": "uint256"
						}
					],
					"name": "Approval",
					"type": "event"
				},
				{
					"anonymous": false,
					"inputs": [
						{
							"indexed": true,
							"internalType": "address",
							"name": "to",
							"type": "address"
						},
						{
							"indexed": false,
							"internalType": "uint256",
							"name": "value",
							"type": "uint256"
						}
					],
					"name": "Mint",
					"type": "event"
				},
				{
					"anonymous": false,
					"inputs": [
						{
							"indexed": true,
							"internalType": "address",
							"name": "from",
							"type": "address"
						},
						{
							"indexed": true,
							"internalType": "address",
							"name": "to",
							"type": "address"
						},
						{
							"indexed": false,
							"internalType": "uint256",
							"name": "value",
							"type": "uint256"
						}
					],
					"name": "Transfer",
					"type": "event"
				},
				{
					"inputs": [
						{
							"internalType": "address",
							"name": "_owner",
							"type": "address"
						},
						{
							"internalType": "address",
							"name": "_spender",
							"type": "address"
						}
					],
					"name": "allowance",
					"outputs": [
						{
							"internalType": "uint256",
							"name": "",
							"type": "uint256"
						}
					],
					"stateMutability": "view",
					"type": "function"
				},
				{
					"inputs": [
						{
							"internalType": "address",
							"name": "_spender",
							"type": "address"
						},
						{
							"internalType": "uint256",
							"name": "_value",
							"type": "uint256"
						}
					],
					"name": "approve",
					"outputs": [
						{
							"internalType": "bool",
							"name": "success",
							"type": "bool"
						}
					],
					"stateMutability": "nonpayable",
					"type": "function"
				},
				{
					"inputs": [
						{
							"internalType": "address",
							"name": "account",
							"type": "address"
						}
					],
					"name": "balanceOf",
					"outputs": [
						{
							"internalType": "uint256",
							"name": "",
							"type": "uint256"
						}
					],
					"stateMutability": "view",
					"type": "function"
				},
				{
					"inputs": [],
					"name": "burn",
					"outputs": [
						{
							"internalType": "bool",
							"name": "success",
							"type": "bool"
						}
					],
					"stateMutability": "nonpayable",
					"type": "function"
				},
				{
					"inputs": [],
					"name": "decimals",
					"outputs": [
						{
							"internalType": "uint8",
							"name": "",
							"type": "uint8"
						}
					],
					"stateMutability": "pure",
					"type": "function"
				},
				{
					"inputs": [
						{
							"internalType": "address",
							"name": "spender",
							"type": "address"
						},
						{
							"internalType": "uint256",
							"name": "value",
							"type": "uint256"
						}
					],
					"name": "decreaseAllowance",
					"outputs": [
						{
							"internalType": "bool",
							"name": "success",
							"type": "bool"
						}
					],
					"stateMutability": "nonpayable",
					"type": "function"
				},
				{
					"inputs": [
						{
							"internalType": "address",
							"name": "spender",
							"type": "address"
						},
						{
							"internalType": "uint256",
							"name": "value",
							"type": "uint256"
						}
					],
					"name": "increaseAllowance",
					"outputs": [
						{
							"internalType": "bool",
							"name": "success",
							"type": "bool"
						}
					],
					"stateMutability": "nonpayable",
					"type": "function"
				},
				{
					"inputs": [],
					"name": "mint",
					"outputs": [
						{
							"internalType": "bool",
							"name": "success",
							"type": "bool"
						}
					],
					"stateMutability": "nonpayable",
					"type": "function"
				},
				{
					"inputs": [],
					"name": "name",
					"outputs": [
						{
							"internalType": "string",
							"name": "",
							"type": "string"
						}
					],
					"stateMutability": "pure",
					"type": "function"
				},
				{
					"inputs": [],
					"name": "symbol",
					"outputs": [
						{
							"internalType": "string",
							"name": "",
							"type": "string"
						}
					],
					"stateMutability": "pure",
					"type": "function"
				},
				{
					"inputs": [],
					"name": "tokenLeft",
					"outputs": [
						{
							"internalType": "uint256",
							"name": "",
							"type": "uint256"
						}
					],
					"stateMutability": "view",
					"type": "function"
				},
				{
					"inputs": [],
					"name": "totalSupply",
					"outputs": [
						{
							"internalType": "uint256",
							"name": "",
							"type": "uint256"
						}
					],
					"stateMutability": "view",
					"type": "function"
				},
				{
					"inputs": [
						{
							"internalType": "address",
							"name": "_to",
							"type": "address"
						},
						{
							"internalType": "uint256",
							"name": "_value",
							"type": "uint256"
						}
					],
					"name": "transfer",
					"outputs": [
						{
							"internalType": "bool",
							"name": "success",
							"type": "bool"
						}
					],
					"stateMutability": "nonpayable",
					"type": "function"
				},
				{
					"inputs": [
						{
							"internalType": "address",
							"name": "_from",
							"type": "address"
						},
						{
							"internalType": "address",
							"name": "_to",
							"type": "address"
						},
						{
							"internalType": "uint256",
							"name": "_value",
							"type": "uint256"
						}
					],
					"name": "transferfrom",
					"outputs": [
						{
							"internalType": "bool",
							"name": "success",
							"type": "bool"
						}
					],
					"stateMutability": "nonpayable",
					"type": "function"
				}
			],
			"devdoc": {
				"kind": "dev",
				"methods": {},
				"version": 1
			},
			"evm": {
				"assembly": "    /* \"dharan-token/contracts/own/SpidyToken.sol\":60:5591  contract SpidyToken{... */\n  mstore(0x40, 0x80)\n    /* \"dharan-token/contracts/own/SpidyToken.sol\":902:1232  constructor(uint256 _totalTokenSupply){... */\n  callvalue\n  dup1\n  iszero\n  tag_1\n  jumpi\n  revert(0x00, 0x00)\ntag_1:\n  pop\n  mload(0x40)\n  sub(codesize, bytecodeSize)\n  dup1\n  bytecodeSize\n  dup4\n  codecopy\n  dup2\n  dup2\n  add\n  0x40\n  mstore\n  dup2\n  add\n  swap1\n  tag_2\n  swap2\n  swap1\n  tag_3\n  jump\t// in\ntag_2:\n    /* \"dharan-token/contracts/own/SpidyToken.sol\":959:969  msg.sender */\n  caller\n    /* \"dharan-token/contracts/own/SpidyToken.sol\":951:956  owner */\n  0x00\n  0x00\n    /* \"dharan-token/contracts/own/SpidyToken.sol\":951:969  owner = msg.sender */\n  0x0100\n  exp\n  dup2\n  sload\n  dup2\n  0xffffffffffffffffffffffffffffffffffffffff\n  mul\n  not\n  and\n  swap1\n  dup4\n  0xffffffffffffffffffffffffffffffffffffffff\n  and\n  mul\n  or\n  swap1\n  sstore\n  pop\n    /* \"dharan-token/contracts/own/SpidyToken.sol\":219:221  18 */\n  0x12\n    /* \"dharan-token/contracts/own/SpidyToken.sol\":1017:1019  10 */\n  0x0a\n    /* \"dharan-token/contracts/own/SpidyToken.sol\":1017:1031  10** _decimals */\n  tag_6\n  swap2\n  swap1\n  tag_7\n  jump\t// in\ntag_6:\n    /* \"dharan-token/contracts/own/SpidyToken.sol\":995:1012  _totalTokenSupply */\n  dup2\n    /* \"dharan-token/contracts/own/SpidyToken.sol\":995:1032  _totalTokenSupply * ( 10** _decimals) */\n  tag_8\n  swap2\n  swap1\n  tag_9\n  jump\t// in\ntag_8:\n    /* \"dharan-token/contracts/own/SpidyToken.sol\":980:992  _totalSupply */\n  0x01\n    /* \"dharan-token/contracts/own/SpidyToken.sol\":980:1032  _totalSupply = _totalTokenSupply * ( 10** _decimals) */\n  dup2\n  swap1\n  sstore\n  pop\n    /* \"dharan-token/contracts/own/SpidyToken.sol\":1075:1077  10 */\n  0x0a\n    /* \"dharan-token/contracts/own/SpidyToken.sol\":1060:1072  _totalSupply */\n  sload(0x01)\n    /* \"dharan-token/contracts/own/SpidyToken.sol\":1060:1077  _totalSupply / 10 */\n  tag_10\n  swap2\n  swap1\n  tag_11\n  jump\t// in\ntag_10:\n    /* \"dharan-token/contracts/own/SpidyToken.sol\":1043:1057  _initialSupply */\n  0x02\n    /* \"dharan-token/contracts/own/SpidyToken.sol\":1043:1077  _initialSupply = _totalSupply / 10 */\n  dup2\n  swap1\n  sstore\n  pop\n    /* \"dharan-token/contracts/own/SpidyToken.sol\":1108:1122  _initialSupply */\n  sload(0x02)\n    /* \"dharan-token/contracts/own/SpidyToken.sol\":1088:1098  _balanceOf */\n  0x04\n    /* \"dharan-token/contracts/own/SpidyToken.sol\":1088:1105  _balanceOf[owner] */\n  0x00\n    /* \"dharan-token/contracts/own/SpidyToken.sol\":1099:1104  owner */\n  0x00\n  0x00\n  swap1\n  sload\n  swap1\n  0x0100\n  exp\n  swap1\n  div\n  0xffffffffffffffffffffffffffffffffffffffff\n  and\n    /* \"dharan-token/contracts/own/SpidyToken.sol\":1088:1105  _balanceOf[owner] */\n  0xffffffffffffffffffffffffffffffffffffffff\n  and\n  0xffffffffffffffffffffffffffffffffffffffff\n  and\n  dup2\n  mstore\n  0x20\n  add\n  swap1\n  dup2\n  mstore\n  0x20\n  add\n  0x00\n  keccak256\n    /* \"dharan-token/contracts/own/SpidyToken.sol\":1088:1122  _balanceOf[owner] = _initialSupply */\n  dup2\n  swap1\n  sstore\n  pop\n    /* \"dharan-token/contracts/own/SpidyToken.sol\":1149:1163  _initialSupply */\n  sload(0x02)\n    /* \"dharan-token/contracts/own/SpidyToken.sol\":1133:1146  _mintedSupply */\n  0x03\n    /* \"dharan-token/contracts/own/SpidyToken.sol\":1133:1163  _mintedSupply = _initialSupply */\n  dup2\n  swap1\n  sstore\n  pop\n    /* \"dharan-token/contracts/own/SpidyToken.sol\":1202:1207  owner */\n  0x00\n  0x00\n  swap1\n  sload\n  swap1\n  0x0100\n  exp\n  swap1\n  div\n  0xffffffffffffffffffffffffffffffffffffffff\n  and\n    /* \"dharan-token/contracts/own/SpidyToken.sol\":1181:1224  Transfer(address(0), owner, _initialSupply) */\n  0xffffffffffffffffffffffffffffffffffffffff\n  and\n    /* \"dharan-token/contracts/own/SpidyToken.sol\":1198:1199  0 */\n  0x00\n    /* \"dharan-token/contracts/own/SpidyToken.sol\":1181:1224  Transfer(address(0), owner, _initialSupply) */\n  0xffffffffffffffffffffffffffffffffffffffff\n  and\n  0xddf252ad1be2c89b69c2b068fc378daa952ba7f163c4a11628f55a4df523b3ef\n    /* \"dharan-token/contracts/own/SpidyToken.sol\":1209:1223  _initialSupply */\n  sload(0x02)\n    /* \"dharan-token/contracts/own/SpidyToken.sol\":1181:1224  Transfer(address(0), owner, _initialSupply) */\n  mload(0x40)\n  tag_12\n  swap2\n  swap1\n  tag_13\n  jump\t// in\ntag_12:\n  mload(0x40)\n  dup1\n  swap2\n  sub\n  swap1\n  log3\n    /* \"dharan-token/contracts/own/SpidyToken.sol\":902:1232  constructor(uint256 _totalTokenSupply){... */\n  pop\n    /* \"dharan-token/contracts/own/SpidyToken.sol\":60:5591  contract SpidyToken{... */\n  jump(tag_14)\n    /* \"#utility.yul\":88:205   */\ntag_16:\n    /* \"#utility.yul\":197:198   */\n  0x00\n    /* \"#utility.yul\":194:195   */\n  0x00\n    /* \"#utility.yul\":187:199   */\n  revert\n    /* \"#utility.yul\":334:411   */\ntag_18:\n    /* \"#utility.yul\":371:378   */\n  0x00\n    /* \"#utility.yul\":400:405   */\n  dup2\n    /* \"#utility.yul\":389:405   */\n  swap1\n  pop\n    /* \"#utility.yul\":334:411   */\n  swap2\n  swap1\n  pop\n  jump\t// out\n    /* \"#utility.yul\":417:539   */\ntag_19:\n    /* \"#utility.yul\":490:514   */\n  tag_34\n    /* \"#utility.yul\":508:513   */\n  dup2\n    /* \"#utility.yul\":490:514   */\n  tag_18\n  jump\t// in\ntag_34:\n    /* \"#utility.yul\":483:488   */\n  dup2\n    /* \"#utility.yul\":480:515   */\n  eq\n    /* \"#utility.yul\":470:533   */\n  tag_35\n  jumpi\n    /* \"#utility.yul\":529:530   */\n  0x00\n    /* \"#utility.yul\":526:527   */\n  0x00\n    /* \"#utility.yul\":519:531   */\n  revert\n    /* \"#utility.yul\":470:533   */\ntag_35:\n    /* \"#utility.yul\":417:539   */\n  pop\n  jump\t// out\n    /* \"#utility.yul\":545:688   */\ntag_20:\n    /* \"#utility.yul\":602:607   */\n  0x00\n    /* \"#utility.yul\":633:639   */\n  dup2\n    /* \"#utility.yul\":627:640   */\n  mload\n    /* \"#utility.yul\":618:640   */\n  swap1\n  pop\n    /* \"#utility.yul\":649:682   */\n  tag_37\n    /* \"#utility.yul\":676:681   */\n  dup2\n    /* \"#utility.yul\":649:682   */\n  tag_19\n  jump\t// in\ntag_37:\n    /* \"#utility.yul\":545:688   */\n  swap3\n  swap2\n  pop\n  pop\n  jump\t// out\n    /* \"#utility.yul\":694:1045   */\ntag_3:\n    /* \"#utility.yul\":764:770   */\n  0x00\n    /* \"#utility.yul\":813:815   */\n  0x20\n    /* \"#utility.yul\":801:810   */\n  dup3\n    /* \"#utility.yul\":792:799   */\n  dup5\n    /* \"#utility.yul\":788:811   */\n  sub\n    /* \"#utility.yul\":784:816   */\n  slt\n    /* \"#utility.yul\":781:900   */\n  iszero\n  tag_39\n  jumpi\n    /* \"#utility.yul\":819:898   */\n  tag_40\n  tag_16\n  jump\t// in\ntag_40:\n    /* \"#utility.yul\":781:900   */\ntag_39:\n    /* \"#utility.yul\":939:940   */\n  0x00\n    /* \"#utility.yul\":964:1028   */\n  tag_41\n    /* \"#utility.yul\":1020:1027   */\n  dup5\n    /* \"#utility.yul\":1011:1017   */\n  dup3\n    /* \"#utility.yul\":1000:1009   */\n  dup6\n    /* \"#utility.yul\":996:1018   */\n  add\n    /* \"#utility.yul\":964:1028   */\n  tag_20\n  jump\t// in\ntag_41:\n    /* \"#utility.yul\":954:1028   */\n  swap2\n  pop\n    /* \"#utility.yul\":910:1038   */\n  pop\n    /* \"#utility.yul\":694:1045   */\n  swap3\n  swap2\n  pop\n  pop\n  jump\t// out\n    /* \"#utility.yul\":1051:1231   */\ntag_21:\n    /* \"#utility.yul\":1099:1176   */\n  0x4e487b7100000000000000000000000000000000000000000000000000000000\n    /* \"#utility.yul\":1096:1097   */\n  0x00\n    /* \"#utility.yul\":1089:1177   */\n  mstore\n    /* \"#utility.yul\":1196:1200   */\n  0x11\n    /* \"#utility.yul\":1193:1194   */\n  0x04\n    /* \"#utility.yul\":1186:1201   */\n  mstore\n    /* \"#utility.yul\":1220:1224   */\n  0x24\n    /* \"#utility.yul\":1217:1218   */\n  0x00\n    /* \"#utility.yul\":1210:1225   */\n  revert\n    /* \"#utility.yul\":1237:1339   */\ntag_22:\n    /* \"#utility.yul\":1279:1287   */\n  0x00\n    /* \"#utility.yul\":1326:1331   */\n  dup2\n    /* \"#utility.yul\":1323:1324   */\n  0x01\n    /* \"#utility.yul\":1319:1332   */\n  shr\n    /* \"#utility.yul\":1298:1332   */\n  swap1\n  pop\n    /* \"#utility.yul\":1237:1339   */\n  swap2\n  swap1\n  pop\n  jump\t// out\n    /* \"#utility.yul\":1345:2193   */\ntag_23:\n    /* \"#utility.yul\":1406:1411   */\n  0x00\n    /* \"#utility.yul\":1413:1417   */\n  0x00\n    /* \"#utility.yul\":1437:1443   */\n  dup3\n    /* \"#utility.yul\":1428:1443   */\n  swap2\n  pop\n    /* \"#utility.yul\":1461:1466   */\n  dup4\n    /* \"#utility.yul\":1452:1466   */\n  swap1\n  pop\n    /* \"#utility.yul\":1475:2187   */\ntag_45:\n    /* \"#utility.yul\":1496:1497   */\n  0x01\n    /* \"#utility.yul\":1486:1494   */\n  dup6\n    /* \"#utility.yul\":1483:1498   */\n  gt\n    /* \"#utility.yul\":1475:2187   */\n  iszero\n  tag_47\n  jumpi\n    /* \"#utility.yul\":1591:1595   */\n  dup1\n    /* \"#utility.yul\":1586:1589   */\n  dup7\n    /* \"#utility.yul\":1582:1596   */\n  div\n    /* \"#utility.yul\":1576:1580   */\n  dup2\n    /* \"#utility.yul\":1573:1597   */\n  gt\n    /* \"#utility.yul\":1570:1620   */\n  iszero\n  tag_48\n  jumpi\n    /* \"#utility.yul\":1600:1618   */\n  tag_49\n  tag_21\n  jump\t// in\ntag_49:\n    /* \"#utility.yul\":1570:1620   */\ntag_48:\n    /* \"#utility.yul\":1650:1651   */\n  0x01\n    /* \"#utility.yul\":1640:1648   */\n  dup6\n    /* \"#utility.yul\":1636:1652   */\n  and\n    /* \"#utility.yul\":1633:2084   */\n  iszero\n  tag_50\n  jumpi\n    /* \"#utility.yul\":2065:2069   */\n  dup1\n    /* \"#utility.yul\":2058:2063   */\n  dup3\n    /* \"#utility.yul\":2054:2070   */\n  mul\n    /* \"#utility.yul\":2045:2070   */\n  swap2\n  pop\n    /* \"#utility.yul\":1633:2084   */\ntag_50:\n    /* \"#utility.yul\":2115:2119   */\n  dup1\n    /* \"#utility.yul\":2109:2113   */\n  dup2\n    /* \"#utility.yul\":2105:2120   */\n  mul\n    /* \"#utility.yul\":2097:2120   */\n  swap1\n  pop\n    /* \"#utility.yul\":2145:2177   */\n  tag_51\n    /* \"#utility.yul\":2168:2176   */\n  dup6\n    /* \"#utility.yul\":2145:2177   */\n  tag_22\n  jump\t// in\ntag_51:\n    /* \"#utility.yul\":2133:2177   */\n  swap5\n  pop\n    /* \"#utility.yul\":1475:2187   */\n  jump(tag_45)\ntag_47:\n    /* \"#utility.yul\":1345:2193   */\n  swap5\n  pop\n  swap5\n  swap3\n  pop\n  pop\n  pop\n  jump\t// out\n    /* \"#utility.yul\":2199:3272   */\ntag_24:\n    /* \"#utility.yul\":2253:2258   */\n  0x00\n    /* \"#utility.yul\":2444:2452   */\n  dup3\n    /* \"#utility.yul\":2434:2474   */\n  tag_53\n  jumpi\n    /* \"#utility.yul\":2465:2466   */\n  0x01\n    /* \"#utility.yul\":2456:2466   */\n  swap1\n  pop\n    /* \"#utility.yul\":2467:2472   */\n  jump(tag_52)\n    /* \"#utility.yul\":2434:2474   */\ntag_53:\n    /* \"#utility.yul\":2493:2497   */\n  dup2\n    /* \"#utility.yul\":2483:2519   */\n  tag_54\n  jumpi\n    /* \"#utility.yul\":2510:2511   */\n  0x00\n    /* \"#utility.yul\":2501:2511   */\n  swap1\n  pop\n    /* \"#utility.yul\":2512:2517   */\n  jump(tag_52)\n    /* \"#utility.yul\":2483:2519   */\ntag_54:\n    /* \"#utility.yul\":2579:2583   */\n  dup2\n    /* \"#utility.yul\":2627:2628   */\n  0x01\n    /* \"#utility.yul\":2622:2649   */\n  dup2\n  eq\n  tag_56\n  jumpi\n    /* \"#utility.yul\":2663:2664   */\n  0x02\n    /* \"#utility.yul\":2658:2849   */\n  dup2\n  eq\n  tag_57\n  jumpi\n    /* \"#utility.yul\":2572:2849   */\n  jump(tag_55)\n    /* \"#utility.yul\":2622:2649   */\ntag_56:\n    /* \"#utility.yul\":2640:2641   */\n  0x01\n    /* \"#utility.yul\":2631:2641   */\n  swap2\n  pop\n    /* \"#utility.yul\":2642:2647   */\n  pop\n  jump(tag_52)\n    /* \"#utility.yul\":2658:2849   */\ntag_57:\n    /* \"#utility.yul\":2703:2706   */\n  0xff\n    /* \"#utility.yul\":2693:2701   */\n  dup5\n    /* \"#utility.yul\":2690:2707   */\n  gt\n    /* \"#utility.yul\":2687:2730   */\n  iszero\n  tag_58\n  jumpi\n    /* \"#utility.yul\":2710:2728   */\n  tag_59\n  tag_21\n  jump\t// in\ntag_59:\n    /* \"#utility.yul\":2687:2730   */\ntag_58:\n    /* \"#utility.yul\":2759:2767   */\n  dup4\n    /* \"#utility.yul\":2756:2757   */\n  0x02\n    /* \"#utility.yul\":2752:2768   */\n  exp\n    /* \"#utility.yul\":2743:2768   */\n  swap2\n  pop\n    /* \"#utility.yul\":2794:2797   */\n  dup5\n    /* \"#utility.yul\":2787:2792   */\n  dup3\n    /* \"#utility.yul\":2784:2798   */\n  gt\n    /* \"#utility.yul\":2781:2821   */\n  iszero\n  tag_60\n  jumpi\n    /* \"#utility.yul\":2801:2819   */\n  tag_61\n  tag_21\n  jump\t// in\ntag_61:\n    /* \"#utility.yul\":2781:2821   */\ntag_60:\n    /* \"#utility.yul\":2834:2839   */\n  pop\n  jump(tag_52)\n    /* \"#utility.yul\":2572:2849   */\ntag_55:\n  pop\n    /* \"#utility.yul\":2958:2960   */\n  0x20\n    /* \"#utility.yul\":2948:2956   */\n  dup4\n    /* \"#utility.yul\":2945:2961   */\n  lt\n    /* \"#utility.yul\":2939:2942   */\n  0x0133\n    /* \"#utility.yul\":2933:2937   */\n  dup4\n    /* \"#utility.yul\":2930:2943   */\n  lt\n    /* \"#utility.yul\":2926:2962   */\n  and\n    /* \"#utility.yul\":2908:2910   */\n  0x4e\n    /* \"#utility.yul\":2898:2906   */\n  dup5\n    /* \"#utility.yul\":2895:2911   */\n  lt\n    /* \"#utility.yul\":2890:2892   */\n  0x0b\n    /* \"#utility.yul\":2884:2888   */\n  dup5\n    /* \"#utility.yul\":2881:2893   */\n  lt\n    /* \"#utility.yul\":2877:2912   */\n  and\n    /* \"#utility.yul\":2861:2972   */\n  or\n    /* \"#utility.yul\":2858:3104   */\n  iszero\n  tag_62\n  jumpi\n    /* \"#utility.yul\":3014:3022   */\n  dup3\n    /* \"#utility.yul\":3008:3012   */\n  dup3\n    /* \"#utility.yul\":3004:3023   */\n  exp\n    /* \"#utility.yul\":2995:3023   */\n  swap1\n  pop\n    /* \"#utility.yul\":3049:3052   */\n  dup4\n    /* \"#utility.yul\":3042:3047   */\n  dup2\n    /* \"#utility.yul\":3039:3053   */\n  gt\n    /* \"#utility.yul\":3036:3076   */\n  iszero\n  tag_63\n  jumpi\n    /* \"#utility.yul\":3056:3074   */\n  tag_64\n  tag_21\n  jump\t// in\ntag_64:\n    /* \"#utility.yul\":3036:3076   */\ntag_63:\n    /* \"#utility.yul\":3089:3094   */\n  jump(tag_52)\n    /* \"#utility.yul\":2858:3104   */\ntag_62:\n    /* \"#utility.yul\":3129:3171   */\n  tag_65\n    /* \"#utility.yul\":3167:3170   */\n  dup5\n    /* \"#utility.yul\":3157:3165   */\n  dup5\n    /* \"#utility.yul\":3151:3155   */\n  dup5\n    /* \"#utility.yul\":3148:3149   */\n  0x01\n    /* \"#utility.yul\":3129:3171   */\n  tag_23\n  jump\t// in\ntag_65:\n    /* \"#utility.yul\":3114:3171   */\n  swap3\n  pop\n  swap1\n  pop\n    /* \"#utility.yul\":3203:3207   */\n  dup2\n    /* \"#utility.yul\":3198:3201   */\n  dup5\n    /* \"#utility.yul\":3194:3208   */\n  div\n    /* \"#utility.yul\":3187:3192   */\n  dup2\n    /* \"#utility.yul\":3184:3209   */\n  gt\n    /* \"#utility.yul\":3181:3232   */\n  iszero\n  tag_66\n  jumpi\n    /* \"#utility.yul\":3212:3230   */\n  tag_67\n  tag_21\n  jump\t// in\ntag_67:\n    /* \"#utility.yul\":3181:3232   */\ntag_66:\n    /* \"#utility.yul\":3261:3265   */\n  dup2\n    /* \"#utility.yul\":3254:3259   */\n  dup2\n    /* \"#utility.yul\":3250:3266   */\n  mul\n    /* \"#utility.yul\":3241:3266   */\n  swap1\n  pop\n    /* \"#utility.yul\":2199:3272   */\ntag_52:\n  swap4\n  swap3\n  pop\n  pop\n  pop\n  jump\t// out\n    /* \"#utility.yul\":3278:3364   */\ntag_25:\n    /* \"#utility.yul\":3313:3320   */\n  0x00\n    /* \"#utility.yul\":3353:3357   */\n  0xff\n    /* \"#utility.yul\":3346:3351   */\n  dup3\n    /* \"#utility.yul\":3342:3358   */\n  and\n    /* \"#utility.yul\":3331:3358   */\n  swap1\n  pop\n    /* \"#utility.yul\":3278:3364   */\n  swap2\n  swap1\n  pop\n  jump\t// out\n    /* \"#utility.yul\":3370:3651   */\ntag_7:\n    /* \"#utility.yul\":3428:3433   */\n  0x00\n    /* \"#utility.yul\":3452:3475   */\n  tag_70\n    /* \"#utility.yul\":3470:3474   */\n  dup3\n    /* \"#utility.yul\":3452:3475   */\n  tag_18\n  jump\t// in\ntag_70:\n    /* \"#utility.yul\":3444:3475   */\n  swap2\n  pop\n    /* \"#utility.yul\":3496:3521   */\n  tag_71\n    /* \"#utility.yul\":3512:3520   */\n  dup4\n    /* \"#utility.yul\":3496:3521   */\n  tag_25\n  jump\t// in\ntag_71:\n    /* \"#utility.yul\":3484:3521   */\n  swap3\n  pop\n    /* \"#utility.yul\":3540:3644   */\n  tag_72\n    /* \"#utility.yul\":3577:3643   */\n  0xffffffffffffffffffffffffffffffffffffffffffffffffffffffffffffffff\n    /* \"#utility.yul\":3567:3575   */\n  dup5\n    /* \"#utility.yul\":3561:3565   */\n  dup5\n    /* \"#utility.yul\":3540:3644   */\n  tag_24\n  jump\t// in\ntag_72:\n    /* \"#utility.yul\":3531:3644   */\n  swap1\n  pop\n    /* \"#utility.yul\":3370:3651   */\n  swap3\n  swap2\n  pop\n  pop\n  jump\t// out\n    /* \"#utility.yul\":3657:4067   */\ntag_9:\n    /* \"#utility.yul\":3697:3704   */\n  0x00\n    /* \"#utility.yul\":3720:3740   */\n  tag_74\n    /* \"#utility.yul\":3738:3739   */\n  dup3\n    /* \"#utility.yul\":3720:3740   */\n  tag_18\n  jump\t// in\ntag_74:\n    /* \"#utility.yul\":3715:3740   */\n  swap2\n  pop\n    /* \"#utility.yul\":3754:3774   */\n  tag_75\n    /* \"#utility.yul\":3772:3773   */\n  dup4\n    /* \"#utility.yul\":3754:3774   */\n  tag_18\n  jump\t// in\ntag_75:\n    /* \"#utility.yul\":3749:3774   */\n  swap3\n  pop\n    /* \"#utility.yul\":3809:3810   */\n  dup3\n    /* \"#utility.yul\":3806:3807   */\n  dup3\n    /* \"#utility.yul\":3802:3811   */\n  mul\n    /* \"#utility.yul\":3831:3861   */\n  tag_76\n    /* \"#utility.yul\":3849:3860   */\n  dup2\n    /* \"#utility.yul\":3831:3861   */\n  tag_18\n  jump\t// in\ntag_76:\n    /* \"#utility.yul\":3820:3861   */\n  swap2\n  pop\n    /* \"#utility.yul\":4010:4011   */\n  dup3\n    /* \"#utility.yul\":4001:4008   */\n  dup3\n    /* \"#utility.yul\":3997:4012   */\n  div\n    /* \"#utility.yul\":3994:3995   */\n  dup5\n    /* \"#utility.yul\":3991:4013   */\n  eq\n    /* \"#utility.yul\":3971:3972   */\n  dup4\n    /* \"#utility.yul\":3964:3973   */\n  iszero\n    /* \"#utility.yul\":3944:4027   */\n  or\n    /* \"#utility.yul\":3921:4060   */\n  tag_77\n  jumpi\n    /* \"#utility.yul\":4040:4058   */\n  tag_78\n  tag_21\n  jump\t// in\ntag_78:\n    /* \"#utility.yul\":3921:4060   */\ntag_77:\n    /* \"#utility.yul\":3705:4067   */\n  pop\n    /* \"#utility.yul\":3657:4067   */\n  swap3\n  swap2\n  pop\n  pop\n  jump\t// out\n    /* \"#utility.yul\":4073:4253   */\ntag_26:\n    /* \"#utility.yul\":4121:4198   */\n  0x4e487b7100000000000000000000000000000000000000000000000000000000\n    /* \"#utility.yul\":4118:4119   */\n  0x00\n    /* \"#utility.yul\":4111:4199   */\n  mstore\n    /* \"#utility.yul\":4218:4222   */\n  0x12\n    /* \"#utility.yul\":4215:4216   */\n  0x04\n    /* \"#utility.yul\":4208:4223   */\n  mstore\n    /* \"#utility.yul\":4242:4246   */\n  0x24\n    /* \"#utility.yul\":4239:4240   */\n  0x00\n    /* \"#utility.yul\":4232:4247   */\n  revert\n    /* \"#utility.yul\":4259:4444   */\ntag_11:\n    /* \"#utility.yul\":4299:4300   */\n  0x00\n    /* \"#utility.yul\":4316:4336   */\n  tag_81\n    /* \"#utility.yul\":4334:4335   */\n  dup3\n    /* \"#utility.yul\":4316:4336   */\n  tag_18\n  jump\t// in\ntag_81:\n    /* \"#utility.yul\":4311:4336   */\n  swap2\n  pop\n    /* \"#utility.yul\":4350:4370   */\n  tag_82\n    /* \"#utility.yul\":4368:4369   */\n  dup4\n    /* \"#utility.yul\":4350:4370   */\n  tag_18\n  jump\t// in\ntag_82:\n    /* \"#utility.yul\":4345:4370   */\n  swap3\n  pop\n    /* \"#utility.yul\":4389:4390   */\n  dup3\n    /* \"#utility.yul\":4379:4414   */\n  tag_83\n  jumpi\n    /* \"#utility.yul\":4394:4412   */\n  tag_84\n  tag_26\n  jump\t// in\ntag_84:\n    /* \"#utility.yul\":4379:4414   */\ntag_83:\n    /* \"#utility.yul\":4436:4437   */\n  dup3\n    /* \"#utility.yul\":4433:4434   */\n  dup3\n    /* \"#utility.yul\":4429:4438   */\n  div\n    /* \"#utility.yul\":4424:4438   */\n  swap1\n  pop\n    /* \"#utility.yul\":4259:4444   */\n  swap3\n  swap2\n  pop\n  pop\n  jump\t// out\n    /* \"#utility.yul\":4450:4568   */\ntag_27:\n    /* \"#utility.yul\":4537:4561   */\n  tag_86\n    /* \"#utility.yul\":4555:4560   */\n  dup2\n    /* \"#utility.yul\":4537:4561   */\n  tag_18\n  jump\t// in\ntag_86:\n    /* \"#utility.yul\":4532:4535   */\n  dup3\n    /* \"#utility.yul\":4525:4562   */\n  mstore\n    /* \"#utility.yul\":4450:4568   */\n  pop\n  pop\n  jump\t// out\n    /* \"#utility.yul\":4574:4796   */\ntag_13:\n    /* \"#utility.yul\":4667:4671   */\n  0x00\n    /* \"#utility.yul\":4705:4707   */\n  0x20\n    /* \"#utility.yul\":4694:4703   */\n  dup3\n    /* \"#utility.yul\":4690:4708   */\n  add\n    /* \"#utility.yul\":4682:4708   */\n  swap1\n  pop\n    /* \"#utility.yul\":4718:4789   */\n  tag_88\n    /* \"#utility.yul\":4786:4787   */\n  0x00\n    /* \"#utility.yul\":4775:4784   */\n  dup4\n    /* \"#utility.yul\":4771:4788   */\n  add\n    /* \"#utility.yul\":4762:4768   */\n  dup5\n    /* \"#utility.yul\":4718:4789   */\n  tag_27\n  jump\t// in\ntag_88:\n    /* \"#utility.yul\":4574:4796   */\n  swap3\n  swap2\n  pop\n  pop\n  jump\t// out\n    /* \"dharan-token/contracts/own/SpidyToken.sol\":60:5591  contract SpidyToken{... */\ntag_14:\n  dataSize(sub_0)\n  dup1\n  dataOffset(sub_0)\n  0x00\n  codecopy\n  0x00\n  return\nstop\n\nsub_0: assembly {\n        /* \"dharan-token/contracts/own/SpidyToken.sol\":60:5591  contract SpidyToken{... */\n      mstore(0x40, 0x80)\n      callvalue\n      dup1\n      iszero\n      tag_1\n      jumpi\n      revert(0x00, 0x00)\n    tag_1:\n      pop\n      jumpi(tag_2, lt(calldatasize, 0x04))\n      shr(0xe0, calldataload(0x00))\n      dup1\n      0x63b0545f\n      gt\n      tag_17\n      jumpi\n      dup1\n      0x9679dd7d\n      gt\n      tag_18\n      jumpi\n      dup1\n      0x9679dd7d\n      eq\n      tag_13\n      jumpi\n      dup1\n      0xa457c2d7\n      eq\n      tag_14\n      jumpi\n      dup1\n      0xa9059cbb\n      eq\n      tag_15\n      jumpi\n      dup1\n      0xdd62ed3e\n      eq\n      tag_16\n      jumpi\n      jump(tag_2)\n    tag_18:\n      dup1\n      0x63b0545f\n      eq\n      tag_10\n      jumpi\n      dup1\n      0x70a08231\n      eq\n      tag_11\n      jumpi\n      dup1\n      0x95d89b41\n      eq\n      tag_12\n      jumpi\n      jump(tag_2)\n    tag_17:\n      dup1\n      0x18160ddd\n      gt\n      tag_19\n      jumpi\n      dup1\n      0x18160ddd\n      eq\n      tag_6\n      jumpi\n      dup1\n      0x313ce567\n      eq\n      tag_7\n      jumpi\n      dup1\n      0x39509351\n      eq\n      tag_8\n      jumpi\n      dup1\n      0x44df8e70\n      eq\n      tag_9\n      jumpi\n      jump(tag_2)\n    tag_19:\n      dup1\n      0x06fdde03\n      eq\n      tag_3\n      jumpi\n      dup1\n      0x095ea7b3\n      eq\n      tag_4\n      jumpi\n      dup1\n      0x1249c58b\n      eq\n      tag_5\n      jumpi\n    tag_2:\n      revert(0x00, 0x00)\n        /* \"dharan-token/contracts/own/SpidyToken.sol\":1240:1322  function name() public pure returns (string memory){... */\n    tag_3:\n      tag_20\n      tag_21\n      jump\t// in\n    tag_20:\n      mload(0x40)\n      tag_22\n      swap2\n      swap1\n      tag_23\n      jump\t// in\n    tag_22:\n      mload(0x40)\n      dup1\n      swap2\n      sub\n      swap1\n      return\n        /* \"dharan-token/contracts/own/SpidyToken.sol\":2502:2910  function approve(address _spender, uint256 _value) public returns(bool success){... */\n    tag_4:\n      tag_24\n      0x04\n      dup1\n      calldatasize\n      sub\n      dup2\n      add\n      swap1\n      tag_25\n      swap2\n      swap1\n      tag_26\n      jump\t// in\n    tag_25:\n      tag_27\n      jump\t// in\n    tag_24:\n      mload(0x40)\n      tag_28\n      swap2\n      swap1\n      tag_29\n      jump\t// in\n    tag_28:\n      mload(0x40)\n      dup1\n      swap2\n      sub\n      swap1\n      return\n        /* \"dharan-token/contracts/own/SpidyToken.sol\":3613:4113  function mint()public returns(bool success){... */\n    tag_5:\n      tag_30\n      tag_31\n      jump\t// in\n    tag_30:\n      mload(0x40)\n      tag_32\n      swap2\n      swap1\n      tag_29\n      jump\t// in\n    tag_32:\n      mload(0x40)\n      dup1\n      swap2\n      sub\n      swap1\n      return\n        /* \"dharan-token/contracts/own/SpidyToken.sol\":1514:1603  function totalSupply() public view returns(uint256){... */\n    tag_6:\n      tag_33\n      tag_34\n      jump\t// in\n    tag_33:\n      mload(0x40)\n      tag_35\n      swap2\n      swap1\n      tag_36\n      jump\t// in\n    tag_35:\n      mload(0x40)\n      dup1\n      swap2\n      sub\n      swap1\n      return\n        /* \"dharan-token/contracts/own/SpidyToken.sol\":1424:1506  function decimals() public pure returns (uint8){... */\n    tag_7:\n      tag_37\n      tag_38\n      jump\t// in\n    tag_37:\n      mload(0x40)\n      tag_39\n      swap2\n      swap1\n      tag_40\n      jump\t// in\n    tag_39:\n      mload(0x40)\n      dup1\n      swap2\n      sub\n      swap1\n      return\n        /* \"dharan-token/contracts/own/SpidyToken.sol\":4289:4731  function increaseAllowance(address spender, uint256 value) public returns (bool success) {... */\n    tag_8:\n      tag_41\n      0x04\n      dup1\n      calldatasize\n      sub\n      dup2\n      add\n      swap1\n      tag_42\n      swap2\n      swap1\n      tag_26\n      jump\t// in\n    tag_42:\n      tag_43\n      jump\t// in\n    tag_41:\n      mload(0x40)\n      tag_44\n      swap2\n      swap1\n      tag_29\n      jump\t// in\n    tag_44:\n      mload(0x40)\n      dup1\n      swap2\n      sub\n      swap1\n      return\n        /* \"dharan-token/contracts/own/SpidyToken.sol\":5409:5588  function burn()public onlyOwner() returns(bool success){... */\n    tag_9:\n      tag_45\n      tag_46\n      jump\t// in\n    tag_45:\n      mload(0x40)\n      tag_47\n      swap2\n      swap1\n      tag_29\n      jump\t// in\n    tag_47:\n      mload(0x40)\n      dup1\n      swap2\n      sub\n      swap1\n      return\n        /* \"dharan-token/contracts/own/SpidyToken.sol\":2922:3605  function transferfrom(address _from,address _to,uint256 _value)public returns(bool success){... */\n    tag_10:\n      tag_48\n      0x04\n      dup1\n      calldatasize\n      sub\n      dup2\n      add\n      swap1\n      tag_49\n      swap2\n      swap1\n      tag_50\n      jump\t// in\n    tag_49:\n      tag_51\n      jump\t// in\n    tag_48:\n      mload(0x40)\n      tag_52\n      swap2\n      swap1\n      tag_29\n      jump\t// in\n    tag_52:\n      mload(0x40)\n      dup1\n      swap2\n      sub\n      swap1\n      return\n        /* \"dharan-token/contracts/own/SpidyToken.sol\":1611:1721  function balanceOf (address account) public view returns(uint256){... */\n    tag_11:\n      tag_53\n      0x04\n      dup1\n      calldatasize\n      sub\n      dup2\n      add\n      swap1\n      tag_54\n      swap2\n      swap1\n      tag_55\n      jump\t// in\n    tag_54:\n      tag_56\n      jump\t// in\n    tag_53:\n      mload(0x40)\n      tag_57\n      swap2\n      swap1\n      tag_36\n      jump\t// in\n    tag_57:\n      mload(0x40)\n      dup1\n      swap2\n      sub\n      swap1\n      return\n        /* \"dharan-token/contracts/own/SpidyToken.sol\":1330:1416  function symbol() public pure returns (string memory){... */\n    tag_12:\n      tag_58\n      tag_59\n      jump\t// in\n    tag_58:\n      mload(0x40)\n      tag_60\n      swap2\n      swap1\n      tag_23\n      jump\t// in\n    tag_60:\n      mload(0x40)\n      dup1\n      swap2\n      sub\n      swap1\n      return\n        /* \"dharan-token/contracts/own/SpidyToken.sol\":4121:4281  function tokenLeft()public view returns(uint256){... */\n    tag_13:\n      tag_61\n      tag_62\n      jump\t// in\n    tag_61:\n      mload(0x40)\n      tag_63\n      swap2\n      swap1\n      tag_36\n      jump\t// in\n    tag_63:\n      mload(0x40)\n      dup1\n      swap2\n      sub\n      swap1\n      return\n        /* \"dharan-token/contracts/own/SpidyToken.sol\":4739:5292  function decreaseAllowance(address spender,uint256 value)public returns(bool success){... */\n    tag_14:\n      tag_64\n      0x04\n      dup1\n      calldatasize\n      sub\n      dup2\n      add\n      swap1\n      tag_65\n      swap2\n      swap1\n      tag_26\n      jump\t// in\n    tag_65:\n      tag_66\n      jump\t// in\n    tag_64:\n      mload(0x40)\n      tag_67\n      swap2\n      swap1\n      tag_29\n      jump\t// in\n    tag_67:\n      mload(0x40)\n      dup1\n      swap2\n      sub\n      swap1\n      return\n        /* \"dharan-token/contracts/own/SpidyToken.sol\":1729:2350  function transfer(address _to, uint256 _value) public returns(bool success){... */\n    tag_15:\n      tag_68\n      0x04\n      dup1\n      calldatasize\n      sub\n      dup2\n      add\n      swap1\n      tag_69\n      swap2\n      swap1\n      tag_26\n      jump\t// in\n    tag_69:\n      tag_70\n      jump\t// in\n    tag_68:\n      mload(0x40)\n      tag_71\n      swap2\n      swap1\n      tag_29\n      jump\t// in\n    tag_71:\n      mload(0x40)\n      dup1\n      swap2\n      sub\n      swap1\n      return\n        /* \"dharan-token/contracts/own/SpidyToken.sol\":2358:2494  function allowance (address _owner,address _spender)public view returns(uint256){... */\n    tag_16:\n      tag_72\n      0x04\n      dup1\n      calldatasize\n      sub\n      dup2\n      add\n      swap1\n      tag_73\n      swap2\n      swap1\n      tag_74\n      jump\t// in\n    tag_73:\n      tag_75\n      jump\t// in\n    tag_72:\n      mload(0x40)\n      tag_76\n      swap2\n      swap1\n      tag_36\n      jump\t// in\n    tag_76:\n      mload(0x40)\n      dup1\n      swap2\n      sub\n      swap1\n      return\n        /* \"dharan-token/contracts/own/SpidyToken.sol\":1240:1322  function name() public pure returns (string memory){... */\n    tag_21:\n        /* \"dharan-token/contracts/own/SpidyToken.sol\":1277:1290  string memory */\n      0x60\n        /* \"dharan-token/contracts/own/SpidyToken.sol\":1309:1314  _name */\n      mload(0x40)\n      dup1\n      0x40\n      add\n      0x40\n      mstore\n      dup1\n      0x05\n      dup2\n      mstore\n      0x20\n      add\n      0x5370696479000000000000000000000000000000000000000000000000000000\n      dup2\n      mstore\n      pop\n        /* \"dharan-token/contracts/own/SpidyToken.sol\":1302:1314  return _name */\n      swap1\n      pop\n        /* \"dharan-token/contracts/own/SpidyToken.sol\":1240:1322  function name() public pure returns (string memory){... */\n      swap1\n      jump\t// out\n        /* \"dharan-token/contracts/own/SpidyToken.sol\":2502:2910  function approve(address _spender, uint256 _value) public returns(bool success){... */\n    tag_27:\n        /* \"dharan-token/contracts/own/SpidyToken.sol\":2568:2580  bool success */\n      0x00\n        /* \"dharan-token/contracts/own/SpidyToken.sol\":2594:2625  uint256 approveValueWithDecimal */\n      0x00\n        /* \"dharan-token/contracts/own/SpidyToken.sol\":219:221  18 */\n      0x12\n        /* \"dharan-token/contracts/own/SpidyToken.sol\":2638:2640  10 */\n      0x0a\n        /* \"dharan-token/contracts/own/SpidyToken.sol\":2638:2653  10 ** _decimals */\n      tag_79\n      swap2\n      swap1\n      tag_80\n      jump\t// in\n    tag_79:\n        /* \"dharan-token/contracts/own/SpidyToken.sol\":2628:2634  _value */\n      dup4\n        /* \"dharan-token/contracts/own/SpidyToken.sol\":2628:2654  _value * (10 ** _decimals) */\n      tag_81\n      swap2\n      swap1\n      tag_82\n      jump\t// in\n    tag_81:\n        /* \"dharan-token/contracts/own/SpidyToken.sol\":2594:2654  uint256 approveValueWithDecimal = _value * (10 ** _decimals) */\n      swap1\n      pop\n        /* \"dharan-token/contracts/own/SpidyToken.sol\":2693:2694  0 */\n      0x00\n        /* \"dharan-token/contracts/own/SpidyToken.sol\":2673:2695  _spender != address(0) */\n      0xffffffffffffffffffffffffffffffffffffffff\n      and\n        /* \"dharan-token/contracts/own/SpidyToken.sol\":2673:2681  _spender */\n      dup5\n        /* \"dharan-token/contracts/own/SpidyToken.sol\":2673:2695  _spender != address(0) */\n      0xffffffffffffffffffffffffffffffffffffffff\n      and\n      sub\n        /* \"dharan-token/contracts/own/SpidyToken.sol\":2665:2740  require(_spender != address(0) , \"Cannot approve amount to a zero address\") */\n      tag_83\n      jumpi\n      mload(0x40)\n      0x08c379a000000000000000000000000000000000000000000000000000000000\n      dup2\n      mstore\n      0x04\n      add\n      tag_84\n      swap1\n      tag_85\n      jump\t// in\n    tag_84:\n      mload(0x40)\n      dup1\n      swap2\n      sub\n      swap1\n      revert\n    tag_83:\n        /* \"dharan-token/contracts/own/SpidyToken.sol\":2786:2809  approveValueWithDecimal */\n      dup1\n        /* \"dharan-token/contracts/own/SpidyToken.sol\":2751:2761  _allowance */\n      0x05\n        /* \"dharan-token/contracts/own/SpidyToken.sol\":2751:2773  _allowance[msg.sender] */\n      0x00\n        /* \"dharan-token/contracts/own/SpidyToken.sol\":2762:2772  msg.sender */\n      caller\n        /* \"dharan-token/contracts/own/SpidyToken.sol\":2751:2773  _allowance[msg.sender] */\n      0xffffffffffffffffffffffffffffffffffffffff\n      and\n      0xffffffffffffffffffffffffffffffffffffffff\n      and\n      dup2\n      mstore\n      0x20\n      add\n      swap1\n      dup2\n      mstore\n      0x20\n      add\n      0x00\n      keccak256\n        /* \"dharan-token/contracts/own/SpidyToken.sol\":2751:2783  _allowance[msg.sender][_spender] */\n      0x00\n        /* \"dharan-token/contracts/own/SpidyToken.sol\":2774:2782  _spender */\n      dup7\n        /* \"dharan-token/contracts/own/SpidyToken.sol\":2751:2783  _allowance[msg.sender][_spender] */\n      0xffffffffffffffffffffffffffffffffffffffff\n      and\n      0xffffffffffffffffffffffffffffffffffffffff\n      and\n      dup2\n      mstore\n      0x20\n      add\n      swap1\n      dup2\n      mstore\n      0x20\n      add\n      0x00\n      keccak256\n        /* \"dharan-token/contracts/own/SpidyToken.sol\":2751:2809  _allowance[msg.sender][_spender] = approveValueWithDecimal */\n      dup2\n      swap1\n      sstore\n      pop\n        /* \"dharan-token/contracts/own/SpidyToken.sol\":2847:2855  _spender */\n      dup4\n        /* \"dharan-token/contracts/own/SpidyToken.sol\":2827:2880  Approval(msg.sender,_spender,approveValueWithDecimal) */\n      0xffffffffffffffffffffffffffffffffffffffff\n      and\n        /* \"dharan-token/contracts/own/SpidyToken.sol\":2836:2846  msg.sender */\n      caller\n        /* \"dharan-token/contracts/own/SpidyToken.sol\":2827:2880  Approval(msg.sender,_spender,approveValueWithDecimal) */\n      0xffffffffffffffffffffffffffffffffffffffff\n      and\n      0x8c5be1e5ebec7d5bd14f71427d1e84f3dd0314c0f7b2291e5b200ac8c7c3b925\n        /* \"dharan-token/contracts/own/SpidyToken.sol\":2856:2879  approveValueWithDecimal */\n      dup4\n        /* \"dharan-token/contracts/own/SpidyToken.sol\":2827:2880  Approval(msg.sender,_spender,approveValueWithDecimal) */\n      mload(0x40)\n      tag_86\n      swap2\n      swap1\n      tag_36\n      jump\t// in\n    tag_86:\n      mload(0x40)\n      dup1\n      swap2\n      sub\n      swap1\n      log3\n        /* \"dharan-token/contracts/own/SpidyToken.sol\":2898:2902  true */\n      0x01\n        /* \"dharan-token/contracts/own/SpidyToken.sol\":2891:2902  return true */\n      swap2\n      pop\n      pop\n        /* \"dharan-token/contracts/own/SpidyToken.sol\":2502:2910  function approve(address _spender, uint256 _value) public returns(bool success){... */\n      swap3\n      swap2\n      pop\n      pop\n      jump\t// out\n        /* \"dharan-token/contracts/own/SpidyToken.sol\":3613:4113  function mint()public returns(bool success){... */\n    tag_31:\n        /* \"dharan-token/contracts/own/SpidyToken.sol\":3643:3655  bool success */\n      0x00\n        /* \"dharan-token/contracts/own/SpidyToken.sol\":3706:3718  _totalSupply */\n      sload(0x01)\n        /* \"dharan-token/contracts/own/SpidyToken.sol\":219:221  18 */\n      0x12\n        /* \"dharan-token/contracts/own/SpidyToken.sol\":413:415  10 */\n      0x0a\n        /* \"dharan-token/contracts/own/SpidyToken.sol\":413:428  10 ** _decimals */\n      tag_88\n      swap2\n      swap1\n      tag_80\n      jump\t// in\n    tag_88:\n        /* \"dharan-token/contracts/own/SpidyToken.sol\":407:409  10 */\n      0x0a\n        /* \"dharan-token/contracts/own/SpidyToken.sol\":407:429  10 * (10 ** _decimals) */\n      tag_89\n      swap2\n      swap1\n      tag_82\n      jump\t// in\n    tag_89:\n        /* \"dharan-token/contracts/own/SpidyToken.sol\":3675:3688  _mintedSupply */\n      sload(0x03)\n        /* \"dharan-token/contracts/own/SpidyToken.sol\":3675:3702  _mintedSupply + Mint_Amount */\n      tag_90\n      swap2\n      swap1\n      tag_91\n      jump\t// in\n    tag_90:\n        /* \"dharan-token/contracts/own/SpidyToken.sol\":3675:3718  _mintedSupply + Mint_Amount <= _totalSupply */\n      gt\n      iszero\n        /* \"dharan-token/contracts/own/SpidyToken.sol\":3667:3741  require(_mintedSupply + Mint_Amount <= _totalSupply,\"No more totalSupply\") */\n      tag_92\n      jumpi\n      mload(0x40)\n      0x08c379a000000000000000000000000000000000000000000000000000000000\n      dup2\n      mstore\n      0x04\n      add\n      tag_93\n      swap1\n      tag_94\n      jump\t// in\n    tag_93:\n      mload(0x40)\n      dup1\n      swap2\n      sub\n      swap1\n      revert\n    tag_92:\n        /* \"dharan-token/contracts/own/SpidyToken.sol\":219:221  18 */\n      0x12\n        /* \"dharan-token/contracts/own/SpidyToken.sol\":481:483  10 */\n      0x0a\n        /* \"dharan-token/contracts/own/SpidyToken.sol\":481:496  10 ** _decimals */\n      tag_95\n      swap2\n      swap1\n      tag_80\n      jump\t// in\n    tag_95:\n        /* \"dharan-token/contracts/own/SpidyToken.sol\":474:477  100 */\n      0x64\n        /* \"dharan-token/contracts/own/SpidyToken.sol\":474:497  100 * (10 ** _decimals) */\n      tag_96\n      swap2\n      swap1\n      tag_82\n      jump\t// in\n    tag_96:\n        /* \"dharan-token/contracts/own/SpidyToken.sol\":219:221  18 */\n      0x12\n        /* \"dharan-token/contracts/own/SpidyToken.sol\":413:415  10 */\n      0x0a\n        /* \"dharan-token/contracts/own/SpidyToken.sol\":413:428  10 ** _decimals */\n      tag_97\n      swap2\n      swap1\n      tag_80\n      jump\t// in\n    tag_97:\n        /* \"dharan-token/contracts/own/SpidyToken.sol\":407:409  10 */\n      0x0a\n        /* \"dharan-token/contracts/own/SpidyToken.sol\":407:429  10 * (10 ** _decimals) */\n      tag_98\n      swap2\n      swap1\n      tag_82\n      jump\t// in\n    tag_98:\n        /* \"dharan-token/contracts/own/SpidyToken.sol\":3760:3773  _mintedByUser */\n      0x06\n        /* \"dharan-token/contracts/own/SpidyToken.sol\":3760:3785  _mintedByUser[msg.sender] */\n      0x00\n        /* \"dharan-token/contracts/own/SpidyToken.sol\":3774:3784  msg.sender */\n      caller\n        /* \"dharan-token/contracts/own/SpidyToken.sol\":3760:3785  _mintedByUser[msg.sender] */\n      0xffffffffffffffffffffffffffffffffffffffff\n      and\n      0xffffffffffffffffffffffffffffffffffffffff\n      and\n      dup2\n      mstore\n      0x20\n      add\n      swap1\n      dup2\n      mstore\n      0x20\n      add\n      0x00\n      keccak256\n      sload\n        /* \"dharan-token/contracts/own/SpidyToken.sol\":3760:3799  _mintedByUser[msg.sender] + Mint_Amount */\n      tag_99\n      swap2\n      swap1\n      tag_91\n      jump\t// in\n    tag_99:\n        /* \"dharan-token/contracts/own/SpidyToken.sol\":3760:3813  _mintedByUser[msg.sender] + Mint_Amount <= Mint_Limit */\n      gt\n      iszero\n        /* \"dharan-token/contracts/own/SpidyToken.sol\":3752:3838  require(_mintedByUser[msg.sender] + Mint_Amount <= Mint_Limit,\"Maximum limit reached\") */\n      tag_100\n      jumpi\n      mload(0x40)\n      0x08c379a000000000000000000000000000000000000000000000000000000000\n      dup2\n      mstore\n      0x04\n      add\n      tag_101\n      swap1\n      tag_102\n      jump\t// in\n    tag_101:\n      mload(0x40)\n      dup1\n      swap2\n      sub\n      swap1\n      revert\n    tag_100:\n        /* \"dharan-token/contracts/own/SpidyToken.sol\":219:221  18 */\n      0x12\n        /* \"dharan-token/contracts/own/SpidyToken.sol\":413:415  10 */\n      0x0a\n        /* \"dharan-token/contracts/own/SpidyToken.sol\":413:428  10 ** _decimals */\n      tag_103\n      swap2\n      swap1\n      tag_80\n      jump\t// in\n    tag_103:\n        /* \"dharan-token/contracts/own/SpidyToken.sol\":407:409  10 */\n      0x0a\n        /* \"dharan-token/contracts/own/SpidyToken.sol\":407:429  10 * (10 ** _decimals) */\n      tag_104\n      swap2\n      swap1\n      tag_82\n      jump\t// in\n    tag_104:\n        /* \"dharan-token/contracts/own/SpidyToken.sol\":3851:3861  _balanceOf */\n      0x04\n        /* \"dharan-token/contracts/own/SpidyToken.sol\":3851:3873  _balanceOf[msg.sender] */\n      0x00\n        /* \"dharan-token/contracts/own/SpidyToken.sol\":3862:3872  msg.sender */\n      caller\n        /* \"dharan-token/contracts/own/SpidyToken.sol\":3851:3873  _balanceOf[msg.sender] */\n      0xffffffffffffffffffffffffffffffffffffffff\n      and\n      0xffffffffffffffffffffffffffffffffffffffff\n      and\n      dup2\n      mstore\n      0x20\n      add\n      swap1\n      dup2\n      mstore\n      0x20\n      add\n      0x00\n      keccak256\n      0x00\n        /* \"dharan-token/contracts/own/SpidyToken.sol\":3851:3888  _balanceOf[msg.sender] += Mint_Amount */\n      dup3\n      dup3\n      sload\n      tag_105\n      swap2\n      swap1\n      tag_91\n      jump\t// in\n    tag_105:\n      swap3\n      pop\n      pop\n      dup2\n      swap1\n      sstore\n      pop\n        /* \"dharan-token/contracts/own/SpidyToken.sol\":219:221  18 */\n      0x12\n        /* \"dharan-token/contracts/own/SpidyToken.sol\":413:415  10 */\n      0x0a\n        /* \"dharan-token/contracts/own/SpidyToken.sol\":413:428  10 ** _decimals */\n      tag_106\n      swap2\n      swap1\n      tag_80\n      jump\t// in\n    tag_106:\n        /* \"dharan-token/contracts/own/SpidyToken.sol\":407:409  10 */\n      0x0a\n        /* \"dharan-token/contracts/own/SpidyToken.sol\":407:429  10 * (10 ** _decimals) */\n      tag_107\n      swap2\n      swap1\n      tag_82\n      jump\t// in\n    tag_107:\n        /* \"dharan-token/contracts/own/SpidyToken.sol\":3899:3912  _mintedSupply */\n      0x03\n      0x00\n        /* \"dharan-token/contracts/own/SpidyToken.sol\":3899:3927  _mintedSupply += Mint_Amount */\n      dup3\n      dup3\n      sload\n      tag_108\n      swap2\n      swap1\n      tag_91\n      jump\t// in\n    tag_108:\n      swap3\n      pop\n      pop\n      dup2\n      swap1\n      sstore\n      pop\n        /* \"dharan-token/contracts/own/SpidyToken.sol\":219:221  18 */\n      0x12\n        /* \"dharan-token/contracts/own/SpidyToken.sol\":413:415  10 */\n      0x0a\n        /* \"dharan-token/contracts/own/SpidyToken.sol\":413:428  10 ** _decimals */\n      tag_109\n      swap2\n      swap1\n      tag_80\n      jump\t// in\n    tag_109:\n        /* \"dharan-token/contracts/own/SpidyToken.sol\":407:409  10 */\n      0x0a\n        /* \"dharan-token/contracts/own/SpidyToken.sol\":407:429  10 * (10 ** _decimals) */\n      tag_110\n      swap2\n      swap1\n      tag_82\n      jump\t// in\n    tag_110:\n        /* \"dharan-token/contracts/own/SpidyToken.sol\":3938:3951  _mintedByUser */\n      0x06\n        /* \"dharan-token/contracts/own/SpidyToken.sol\":3938:3963  _mintedByUser[msg.sender] */\n      0x00\n        /* \"dharan-token/contracts/own/SpidyToken.sol\":3952:3962  msg.sender */\n      caller\n        /* \"dharan-token/contracts/own/SpidyToken.sol\":3938:3963  _mintedByUser[msg.sender] */\n      0xffffffffffffffffffffffffffffffffffffffff\n      and\n      0xffffffffffffffffffffffffffffffffffffffff\n      and\n      dup2\n      mstore\n      0x20\n      add\n      swap1\n      dup2\n      mstore\n      0x20\n      add\n      0x00\n      keccak256\n      0x00\n        /* \"dharan-token/contracts/own/SpidyToken.sol\":3938:3978  _mintedByUser[msg.sender] += Mint_Amount */\n      dup3\n      dup3\n      sload\n      tag_111\n      swap2\n      swap1\n      tag_91\n      jump\t// in\n    tag_111:\n      swap3\n      pop\n      pop\n      dup2\n      swap1\n      sstore\n      pop\n        /* \"dharan-token/contracts/own/SpidyToken.sol\":4001:4011  msg.sender */\n      caller\n        /* \"dharan-token/contracts/own/SpidyToken.sol\":3996:4024  Mint(msg.sender,Mint_Amount) */\n      0xffffffffffffffffffffffffffffffffffffffff\n      and\n      0x0f6798a560793a54c3bcfe86a93cde1e73087d944c0ea20544137d4121396885\n        /* \"dharan-token/contracts/own/SpidyToken.sol\":219:221  18 */\n      0x12\n        /* \"dharan-token/contracts/own/SpidyToken.sol\":413:415  10 */\n      0x0a\n        /* \"dharan-token/contracts/own/SpidyToken.sol\":413:428  10 ** _decimals */\n      tag_112\n      swap2\n      swap1\n      tag_80\n      jump\t// in\n    tag_112:\n        /* \"dharan-token/contracts/own/SpidyToken.sol\":407:409  10 */\n      0x0a\n        /* \"dharan-token/contracts/own/SpidyToken.sol\":407:429  10 * (10 ** _decimals) */\n      tag_113\n      swap2\n      swap1\n      tag_82\n      jump\t// in\n    tag_113:\n        /* \"dharan-token/contracts/own/SpidyToken.sol\":3996:4024  Mint(msg.sender,Mint_Amount) */\n      mload(0x40)\n      tag_114\n      swap2\n      swap1\n      tag_36\n      jump\t// in\n    tag_114:\n      mload(0x40)\n      dup1\n      swap2\n      sub\n      swap1\n      log2\n        /* \"dharan-token/contracts/own/SpidyToken.sol\":4060:4070  msg.sender */\n      caller\n        /* \"dharan-token/contracts/own/SpidyToken.sol\":4040:4083  Transfer(address(0),msg.sender,Mint_Amount) */\n      0xffffffffffffffffffffffffffffffffffffffff\n      and\n        /* \"dharan-token/contracts/own/SpidyToken.sol\":4057:4058  0 */\n      0x00\n        /* \"dharan-token/contracts/own/SpidyToken.sol\":4040:4083  Transfer(address(0),msg.sender,Mint_Amount) */\n      0xffffffffffffffffffffffffffffffffffffffff\n      and\n      0xddf252ad1be2c89b69c2b068fc378daa952ba7f163c4a11628f55a4df523b3ef\n        /* \"dharan-token/contracts/own/SpidyToken.sol\":219:221  18 */\n      0x12\n        /* \"dharan-token/contracts/own/SpidyToken.sol\":413:415  10 */\n      0x0a\n        /* \"dharan-token/contracts/own/SpidyToken.sol\":413:428  10 ** _decimals */\n      tag_115\n      swap2\n      swap1\n      tag_80\n      jump\t// in\n    tag_115:\n        /* \"dharan-token/contracts/own/SpidyToken.sol\":407:409  10 */\n      0x0a\n        /* \"dharan-token/contracts/own/SpidyToken.sol\":407:429  10 * (10 ** _decimals) */\n      tag_116\n      swap2\n      swap1\n      tag_82\n      jump\t// in\n    tag_116:\n        /* \"dharan-token/contracts/own/SpidyToken.sol\":4040:4083  Transfer(address(0),msg.sender,Mint_Amount) */\n      mload(0x40)\n      tag_117\n      swap2\n      swap1\n      tag_36\n      jump\t// in\n    tag_117:\n      mload(0x40)\n      dup1\n      swap2\n      sub\n      swap1\n      log3\n        /* \"dharan-token/contracts/own/SpidyToken.sol\":4101:4105  true */\n      0x01\n        /* \"dharan-token/contracts/own/SpidyToken.sol\":4094:4105  return true */\n      swap1\n      pop\n        /* \"dharan-token/contracts/own/SpidyToken.sol\":3613:4113  function mint()public returns(bool success){... */\n      swap1\n      jump\t// out\n        /* \"dharan-token/contracts/own/SpidyToken.sol\":1514:1603  function totalSupply() public view returns(uint256){... */\n    tag_34:\n        /* \"dharan-token/contracts/own/SpidyToken.sol\":1557:1564  uint256 */\n      0x00\n        /* \"dharan-token/contracts/own/SpidyToken.sol\":1583:1595  _totalSupply */\n      sload(0x01)\n        /* \"dharan-token/contracts/own/SpidyToken.sol\":1576:1595  return _totalSupply */\n      swap1\n      pop\n        /* \"dharan-token/contracts/own/SpidyToken.sol\":1514:1603  function totalSupply() public view returns(uint256){... */\n      swap1\n      jump\t// out\n        /* \"dharan-token/contracts/own/SpidyToken.sol\":1424:1506  function decimals() public pure returns (uint8){... */\n    tag_38:\n        /* \"dharan-token/contracts/own/SpidyToken.sol\":1465:1470  uint8 */\n      0x00\n        /* \"dharan-token/contracts/own/SpidyToken.sol\":219:221  18 */\n      0x12\n        /* \"dharan-token/contracts/own/SpidyToken.sol\":1482:1498  return _decimals */\n      swap1\n      pop\n        /* \"dharan-token/contracts/own/SpidyToken.sol\":1424:1506  function decimals() public pure returns (uint8){... */\n      swap1\n      jump\t// out\n        /* \"dharan-token/contracts/own/SpidyToken.sol\":4289:4731  function increaseAllowance(address spender, uint256 value) public returns (bool success) {... */\n    tag_43:\n        /* \"dharan-token/contracts/own/SpidyToken.sol\":4364:4376  bool success */\n      0x00\n        /* \"dharan-token/contracts/own/SpidyToken.sol\":4416:4417  0 */\n      0x00\n        /* \"dharan-token/contracts/own/SpidyToken.sol\":4397:4418  spender != address(0) */\n      0xffffffffffffffffffffffffffffffffffffffff\n      and\n        /* \"dharan-token/contracts/own/SpidyToken.sol\":4397:4404  spender */\n      dup4\n        /* \"dharan-token/contracts/own/SpidyToken.sol\":4397:4418  spender != address(0) */\n      0xffffffffffffffffffffffffffffffffffffffff\n      and\n      sub\n        /* \"dharan-token/contracts/own/SpidyToken.sol\":4389:4470  require(spender != address(0), \"Cannot increase allowance to address value Zero\") */\n      tag_121\n      jumpi\n      mload(0x40)\n      0x08c379a000000000000000000000000000000000000000000000000000000000\n      dup2\n      mstore\n      0x04\n      add\n      tag_122\n      swap1\n      tag_123\n      jump\t// in\n    tag_122:\n      mload(0x40)\n      dup1\n      swap2\n      sub\n      swap1\n      revert\n    tag_121:\n        /* \"dharan-token/contracts/own/SpidyToken.sol\":4491:4523  uint256 increaseValueWithDecimal */\n      0x00\n        /* \"dharan-token/contracts/own/SpidyToken.sol\":219:221  18 */\n      0x12\n        /* \"dharan-token/contracts/own/SpidyToken.sol\":4535:4537  10 */\n      0x0a\n        /* \"dharan-token/contracts/own/SpidyToken.sol\":4535:4550  10 ** _decimals */\n      tag_124\n      swap2\n      swap1\n      tag_80\n      jump\t// in\n    tag_124:\n        /* \"dharan-token/contracts/own/SpidyToken.sol\":4526:4531  value */\n      dup4\n        /* \"dharan-token/contracts/own/SpidyToken.sol\":4526:4551  value * (10 ** _decimals) */\n      tag_125\n      swap2\n      swap1\n      tag_82\n      jump\t// in\n    tag_125:\n        /* \"dharan-token/contracts/own/SpidyToken.sol\":4491:4551  uint256 increaseValueWithDecimal = value * (10 ** _decimals) */\n      swap1\n      pop\n        /* \"dharan-token/contracts/own/SpidyToken.sol\":4597:4621  increaseValueWithDecimal */\n      dup1\n        /* \"dharan-token/contracts/own/SpidyToken.sol\":4562:4572  _allowance */\n      0x05\n        /* \"dharan-token/contracts/own/SpidyToken.sol\":4562:4584  _allowance[msg.sender] */\n      0x00\n        /* \"dharan-token/contracts/own/SpidyToken.sol\":4573:4583  msg.sender */\n      caller\n        /* \"dharan-token/contracts/own/SpidyToken.sol\":4562:4584  _allowance[msg.sender] */\n      0xffffffffffffffffffffffffffffffffffffffff\n      and\n      0xffffffffffffffffffffffffffffffffffffffff\n      and\n      dup2\n      mstore\n      0x20\n      add\n      swap1\n      dup2\n      mstore\n      0x20\n      add\n      0x00\n      keccak256\n        /* \"dharan-token/contracts/own/SpidyToken.sol\":4562:4593  _allowance[msg.sender][spender] */\n      0x00\n        /* \"dharan-token/contracts/own/SpidyToken.sol\":4585:4592  spender */\n      dup7\n        /* \"dharan-token/contracts/own/SpidyToken.sol\":4562:4593  _allowance[msg.sender][spender] */\n      0xffffffffffffffffffffffffffffffffffffffff\n      and\n      0xffffffffffffffffffffffffffffffffffffffff\n      and\n      dup2\n      mstore\n      0x20\n      add\n      swap1\n      dup2\n      mstore\n      0x20\n      add\n      0x00\n      keccak256\n      0x00\n        /* \"dharan-token/contracts/own/SpidyToken.sol\":4562:4621  _allowance[msg.sender][spender] += increaseValueWithDecimal */\n      dup3\n      dup3\n      sload\n      tag_126\n      swap2\n      swap1\n      tag_91\n      jump\t// in\n    tag_126:\n      swap3\n      pop\n      pop\n      dup2\n      swap1\n      sstore\n      pop\n        /* \"dharan-token/contracts/own/SpidyToken.sol\":4660:4667  spender */\n      dup4\n        /* \"dharan-token/contracts/own/SpidyToken.sol\":4639:4701  Approval(msg.sender, spender, _allowance[msg.sender][spender]) */\n      0xffffffffffffffffffffffffffffffffffffffff\n      and\n        /* \"dharan-token/contracts/own/SpidyToken.sol\":4648:4658  msg.sender */\n      caller\n        /* \"dharan-token/contracts/own/SpidyToken.sol\":4639:4701  Approval(msg.sender, spender, _allowance[msg.sender][spender]) */\n      0xffffffffffffffffffffffffffffffffffffffff\n      and\n      0x8c5be1e5ebec7d5bd14f71427d1e84f3dd0314c0f7b2291e5b200ac8c7c3b925\n        /* \"dharan-token/contracts/own/SpidyToken.sol\":4669:4679  _allowance */\n      0x05\n        /* \"dharan-token/contracts/own/SpidyToken.sol\":4669:4691  _allowance[msg.sender] */\n      0x00\n        /* \"dharan-token/contracts/own/SpidyToken.sol\":4680:4690  msg.sender */\n      caller\n        /* \"dharan-token/contracts/own/SpidyToken.sol\":4669:4691  _allowance[msg.sender] */\n      0xffffffffffffffffffffffffffffffffffffffff\n      and\n      0xffffffffffffffffffffffffffffffffffffffff\n      and\n      dup2\n      mstore\n      0x20\n      add\n      swap1\n      dup2\n      mstore\n      0x20\n      add\n      0x00\n      keccak256\n        /* \"dharan-token/contracts/own/SpidyToken.sol\":4669:4700  _allowance[msg.sender][spender] */\n      0x00\n        /* \"dharan-token/contracts/own/SpidyToken.sol\":4692:4699  spender */\n      dup9\n        /* \"dharan-token/contracts/own/SpidyToken.sol\":4669:4700  _allowance[msg.sender][spender] */\n      0xffffffffffffffffffffffffffffffffffffffff\n      and\n      0xffffffffffffffffffffffffffffffffffffffff\n      and\n      dup2\n      mstore\n      0x20\n      add\n      swap1\n      dup2\n      mstore\n      0x20\n      add\n      0x00\n      keccak256\n      sload\n        /* \"dharan-token/contracts/own/SpidyToken.sol\":4639:4701  Approval(msg.sender, spender, _allowance[msg.sender][spender]) */\n      mload(0x40)\n      tag_127\n      swap2\n      swap1\n      tag_36\n      jump\t// in\n    tag_127:\n      mload(0x40)\n      dup1\n      swap2\n      sub\n      swap1\n      log3\n        /* \"dharan-token/contracts/own/SpidyToken.sol\":4719:4723  true */\n      0x01\n        /* \"dharan-token/contracts/own/SpidyToken.sol\":4712:4723  return true */\n      swap2\n      pop\n      pop\n        /* \"dharan-token/contracts/own/SpidyToken.sol\":4289:4731  function increaseAllowance(address spender, uint256 value) public returns (bool success) {... */\n      swap3\n      swap2\n      pop\n      pop\n      jump\t// out\n        /* \"dharan-token/contracts/own/SpidyToken.sol\":5409:5588  function burn()public onlyOwner() returns(bool success){... */\n    tag_46:\n        /* \"dharan-token/contracts/own/SpidyToken.sol\":5451:5463  bool success */\n      0x00\n        /* \"dharan-token/contracts/own/SpidyToken.sol\":5351:5356  owner */\n      0x00\n      0x00\n      swap1\n      sload\n      swap1\n      0x0100\n      exp\n      swap1\n      div\n      0xffffffffffffffffffffffffffffffffffffffff\n      and\n        /* \"dharan-token/contracts/own/SpidyToken.sol\":5337:5356  msg.sender == owner */\n      0xffffffffffffffffffffffffffffffffffffffff\n      and\n        /* \"dharan-token/contracts/own/SpidyToken.sol\":5337:5347  msg.sender */\n      caller\n        /* \"dharan-token/contracts/own/SpidyToken.sol\":5337:5356  msg.sender == owner */\n      0xffffffffffffffffffffffffffffffffffffffff\n      and\n      eq\n        /* \"dharan-token/contracts/own/SpidyToken.sol\":5329:5381  require(msg.sender == owner , \"only owner can call\") */\n      tag_129\n      jumpi\n      mload(0x40)\n      0x08c379a000000000000000000000000000000000000000000000000000000000\n      dup2\n      mstore\n      0x04\n      add\n      tag_130\n      swap1\n      tag_131\n      jump\t// in\n    tag_130:\n      mload(0x40)\n      dup1\n      swap2\n      sub\n      swap1\n      revert\n    tag_129:\n        /* \"dharan-token/contracts/own/SpidyToken.sol\":219:221  18 */\n      0x12\n        /* \"dharan-token/contracts/own/SpidyToken.sol\":413:415  10 */\n      0x0a\n        /* \"dharan-token/contracts/own/SpidyToken.sol\":413:428  10 ** _decimals */\n      tag_133\n      swap2\n      swap1\n      tag_80\n      jump\t// in\n    tag_133:\n        /* \"dharan-token/contracts/own/SpidyToken.sol\":407:409  10 */\n      0x0a\n        /* \"dharan-token/contracts/own/SpidyToken.sol\":407:429  10 * (10 ** _decimals) */\n      tag_134\n      swap2\n      swap1\n      tag_82\n      jump\t// in\n    tag_134:\n        /* \"dharan-token/contracts/own/SpidyToken.sol\":5475:5487  _totalSupply */\n      0x01\n      0x00\n        /* \"dharan-token/contracts/own/SpidyToken.sol\":5475:5502  _totalSupply -= Mint_Amount */\n      dup3\n      dup3\n      sload\n      tag_135\n      swap2\n      swap1\n      tag_136\n      jump\t// in\n    tag_135:\n      swap3\n      pop\n      pop\n      dup2\n      swap1\n      sstore\n      pop\n        /* \"dharan-token/contracts/own/SpidyToken.sol\":5542:5543  0 */\n      0x00\n        /* \"dharan-token/contracts/own/SpidyToken.sol\":5518:5558  Transfer(owner, address(0), Mint_Amount) */\n      0xffffffffffffffffffffffffffffffffffffffff\n      and\n        /* \"dharan-token/contracts/own/SpidyToken.sol\":5527:5532  owner */\n      0x00\n      0x00\n      swap1\n      sload\n      swap1\n      0x0100\n      exp\n      swap1\n      div\n      0xffffffffffffffffffffffffffffffffffffffff\n      and\n        /* \"dharan-token/contracts/own/SpidyToken.sol\":5518:5558  Transfer(owner, address(0), Mint_Amount) */\n      0xffffffffffffffffffffffffffffffffffffffff\n      and\n      0xddf252ad1be2c89b69c2b068fc378daa952ba7f163c4a11628f55a4df523b3ef\n        /* \"dharan-token/contracts/own/SpidyToken.sol\":219:221  18 */\n      0x12\n        /* \"dharan-token/contracts/own/SpidyToken.sol\":413:415  10 */\n      0x0a\n        /* \"dharan-token/contracts/own/SpidyToken.sol\":413:428  10 ** _decimals */\n      tag_137\n      swap2\n      swap1\n      tag_80\n      jump\t// in\n    tag_137:\n        /* \"dharan-token/contracts/own/SpidyToken.sol\":407:409  10 */\n      0x0a\n        /* \"dharan-token/contracts/own/SpidyToken.sol\":407:429  10 * (10 ** _decimals) */\n      tag_138\n      swap2\n      swap1\n      tag_82\n      jump\t// in\n    tag_138:\n        /* \"dharan-token/contracts/own/SpidyToken.sol\":5518:5558  Transfer(owner, address(0), Mint_Amount) */\n      mload(0x40)\n      tag_139\n      swap2\n      swap1\n      tag_36\n      jump\t// in\n    tag_139:\n      mload(0x40)\n      dup1\n      swap2\n      sub\n      swap1\n      log3\n        /* \"dharan-token/contracts/own/SpidyToken.sol\":5576:5580  true */\n      0x01\n        /* \"dharan-token/contracts/own/SpidyToken.sol\":5569:5580  return true */\n      swap1\n      pop\n        /* \"dharan-token/contracts/own/SpidyToken.sol\":5409:5588  function burn()public onlyOwner() returns(bool success){... */\n      swap1\n      jump\t// out\n        /* \"dharan-token/contracts/own/SpidyToken.sol\":2922:3605  function transferfrom(address _from,address _to,uint256 _value)public returns(bool success){... */\n    tag_51:\n        /* \"dharan-token/contracts/own/SpidyToken.sol\":3000:3012  bool success */\n      0x00\n        /* \"dharan-token/contracts/own/SpidyToken.sol\":3026:3058  uint256 transferfrom_withdecimal */\n      0x00\n        /* \"dharan-token/contracts/own/SpidyToken.sol\":3061:3067  _value */\n      dup3\n        /* \"dharan-token/contracts/own/SpidyToken.sol\":3026:3067  uint256 transferfrom_withdecimal = _value */\n      swap1\n      pop\n        /* \"dharan-token/contracts/own/SpidyToken.sol\":3103:3104  0 */\n      0x00\n        /* \"dharan-token/contracts/own/SpidyToken.sol\":3088:3105  _to != address(0) */\n      0xffffffffffffffffffffffffffffffffffffffff\n      and\n        /* \"dharan-token/contracts/own/SpidyToken.sol\":3088:3091  _to */\n      dup5\n        /* \"dharan-token/contracts/own/SpidyToken.sol\":3088:3105  _to != address(0) */\n      0xffffffffffffffffffffffffffffffffffffffff\n      and\n      sub\n        /* \"dharan-token/contracts/own/SpidyToken.sol\":3079:3147  require( _to != address(0), \"Cannot transfer to zero value address\") */\n      tag_141\n      jumpi\n      mload(0x40)\n      0x08c379a000000000000000000000000000000000000000000000000000000000\n      dup2\n      mstore\n      0x04\n      add\n      tag_142\n      swap1\n      tag_143\n      jump\t// in\n    tag_142:\n      mload(0x40)\n      dup1\n      swap2\n      sub\n      swap1\n      revert\n    tag_141:\n        /* \"dharan-token/contracts/own/SpidyToken.sol\":3194:3204  _balanceOf */\n      0x04\n        /* \"dharan-token/contracts/own/SpidyToken.sol\":3194:3211  _balanceOf[_from] */\n      0x00\n        /* \"dharan-token/contracts/own/SpidyToken.sol\":3205:3210  _from */\n      dup7\n        /* \"dharan-token/contracts/own/SpidyToken.sol\":3194:3211  _balanceOf[_from] */\n      0xffffffffffffffffffffffffffffffffffffffff\n      and\n      0xffffffffffffffffffffffffffffffffffffffff\n      and\n      dup2\n      mstore\n      0x20\n      add\n      swap1\n      dup2\n      mstore\n      0x20\n      add\n      0x00\n      keccak256\n      sload\n        /* \"dharan-token/contracts/own/SpidyToken.sol\":3166:3190  transferfrom_withdecimal */\n      dup2\n        /* \"dharan-token/contracts/own/SpidyToken.sol\":3166:3211  transferfrom_withdecimal <= _balanceOf[_from] */\n      gt\n      iszero\n        /* \"dharan-token/contracts/own/SpidyToken.sol\":3158:3235  require(transferfrom_withdecimal <= _balanceOf[_from],\"Insufficient balance\") */\n      tag_144\n      jumpi\n      mload(0x40)\n      0x08c379a000000000000000000000000000000000000000000000000000000000\n      dup2\n      mstore\n      0x04\n      add\n      tag_145\n      swap1\n      tag_146\n      jump\t// in\n    tag_145:\n      mload(0x40)\n      dup1\n      swap2\n      sub\n      swap1\n      revert\n    tag_144:\n        /* \"dharan-token/contracts/own/SpidyToken.sol\":3282:3292  _allowance */\n      0x05\n        /* \"dharan-token/contracts/own/SpidyToken.sol\":3282:3299  _allowance[_from] */\n      0x00\n        /* \"dharan-token/contracts/own/SpidyToken.sol\":3293:3298  _from */\n      dup7\n        /* \"dharan-token/contracts/own/SpidyToken.sol\":3282:3299  _allowance[_from] */\n      0xffffffffffffffffffffffffffffffffffffffff\n      and\n      0xffffffffffffffffffffffffffffffffffffffff\n      and\n      dup2\n      mstore\n      0x20\n      add\n      swap1\n      dup2\n      mstore\n      0x20\n      add\n      0x00\n      keccak256\n        /* \"dharan-token/contracts/own/SpidyToken.sol\":3282:3311  _allowance[_from][msg.sender] */\n      0x00\n        /* \"dharan-token/contracts/own/SpidyToken.sol\":3300:3310  msg.sender */\n      caller\n        /* \"dharan-token/contracts/own/SpidyToken.sol\":3282:3311  _allowance[_from][msg.sender] */\n      0xffffffffffffffffffffffffffffffffffffffff\n      and\n      0xffffffffffffffffffffffffffffffffffffffff\n      and\n      dup2\n      mstore\n      0x20\n      add\n      swap1\n      dup2\n      mstore\n      0x20\n      add\n      0x00\n      keccak256\n      sload\n        /* \"dharan-token/contracts/own/SpidyToken.sol\":3254:3278  transferfrom_withdecimal */\n      dup2\n        /* \"dharan-token/contracts/own/SpidyToken.sol\":3254:3311  transferfrom_withdecimal <= _allowance[_from][msg.sender] */\n      gt\n      iszero\n        /* \"dharan-token/contracts/own/SpidyToken.sol\":3246:3333  require(transferfrom_withdecimal <= _allowance[_from][msg.sender],\"allowance exceeded\") */\n      tag_147\n      jumpi\n      mload(0x40)\n      0x08c379a000000000000000000000000000000000000000000000000000000000\n      dup2\n      mstore\n      0x04\n      add\n      tag_148\n      swap1\n      tag_149\n      jump\t// in\n    tag_148:\n      mload(0x40)\n      dup1\n      swap2\n      sub\n      swap1\n      revert\n    tag_147:\n        /* \"dharan-token/contracts/own/SpidyToken.sol\":3367:3391  transferfrom_withdecimal */\n      dup1\n        /* \"dharan-token/contracts/own/SpidyToken.sol\":3346:3356  _balanceOf */\n      0x04\n        /* \"dharan-token/contracts/own/SpidyToken.sol\":3346:3363  _balanceOf[_from] */\n      0x00\n        /* \"dharan-token/contracts/own/SpidyToken.sol\":3357:3362  _from */\n      dup8\n        /* \"dharan-token/contracts/own/SpidyToken.sol\":3346:3363  _balanceOf[_from] */\n      0xffffffffffffffffffffffffffffffffffffffff\n      and\n      0xffffffffffffffffffffffffffffffffffffffff\n      and\n      dup2\n      mstore\n      0x20\n      add\n      swap1\n      dup2\n      mstore\n      0x20\n      add\n      0x00\n      keccak256\n      0x00\n        /* \"dharan-token/contracts/own/SpidyToken.sol\":3346:3391  _balanceOf[_from] -= transferfrom_withdecimal */\n      dup3\n      dup3\n      sload\n      tag_150\n      swap2\n      swap1\n      tag_136\n      jump\t// in\n    tag_150:\n      swap3\n      pop\n      pop\n      dup2\n      swap1\n      sstore\n      pop\n        /* \"dharan-token/contracts/own/SpidyToken.sol\":3421:3445  transferfrom_withdecimal */\n      dup1\n        /* \"dharan-token/contracts/own/SpidyToken.sol\":3402:3412  _balanceOf */\n      0x04\n        /* \"dharan-token/contracts/own/SpidyToken.sol\":3402:3417  _balanceOf[_to] */\n      0x00\n        /* \"dharan-token/contracts/own/SpidyToken.sol\":3413:3416  _to */\n      dup7\n        /* \"dharan-token/contracts/own/SpidyToken.sol\":3402:3417  _balanceOf[_to] */\n      0xffffffffffffffffffffffffffffffffffffffff\n      and\n      0xffffffffffffffffffffffffffffffffffffffff\n      and\n      dup2\n      mstore\n      0x20\n      add\n      swap1\n      dup2\n      mstore\n      0x20\n      add\n      0x00\n      keccak256\n      0x00\n        /* \"dharan-token/contracts/own/SpidyToken.sol\":3402:3445  _balanceOf[_to] += transferfrom_withdecimal */\n      dup3\n      dup3\n      sload\n      tag_151\n      swap2\n      swap1\n      tag_91\n      jump\t// in\n    tag_151:\n      swap3\n      pop\n      pop\n      dup2\n      swap1\n      sstore\n      pop\n        /* \"dharan-token/contracts/own/SpidyToken.sol\":3489:3513  transferfrom_withdecimal */\n      dup1\n        /* \"dharan-token/contracts/own/SpidyToken.sol\":3456:3466  _allowance */\n      0x05\n        /* \"dharan-token/contracts/own/SpidyToken.sol\":3456:3473  _allowance[_from] */\n      0x00\n        /* \"dharan-token/contracts/own/SpidyToken.sol\":3467:3472  _from */\n      dup8\n        /* \"dharan-token/contracts/own/SpidyToken.sol\":3456:3473  _allowance[_from] */\n      0xffffffffffffffffffffffffffffffffffffffff\n      and\n      0xffffffffffffffffffffffffffffffffffffffff\n      and\n      dup2\n      mstore\n      0x20\n      add\n      swap1\n      dup2\n      mstore\n      0x20\n      add\n      0x00\n      keccak256\n        /* \"dharan-token/contracts/own/SpidyToken.sol\":3456:3485  _allowance[_from][msg.sender] */\n      0x00\n        /* \"dharan-token/contracts/own/SpidyToken.sol\":3474:3484  msg.sender */\n      caller\n        /* \"dharan-token/contracts/own/SpidyToken.sol\":3456:3485  _allowance[_from][msg.sender] */\n      0xffffffffffffffffffffffffffffffffffffffff\n      and\n      0xffffffffffffffffffffffffffffffffffffffff\n      and\n      dup2\n      mstore\n      0x20\n      add\n      swap1\n      dup2\n      mstore\n      0x20\n      add\n      0x00\n      keccak256\n      0x00\n        /* \"dharan-token/contracts/own/SpidyToken.sol\":3456:3513  _allowance[_from][msg.sender] -= transferfrom_withdecimal */\n      dup3\n      dup3\n      sload\n      tag_152\n      swap2\n      swap1\n      tag_136\n      jump\t// in\n    tag_152:\n      swap3\n      pop\n      pop\n      dup2\n      swap1\n      sstore\n      pop\n        /* \"dharan-token/contracts/own/SpidyToken.sol\":3546:3549  _to */\n      dup4\n        /* \"dharan-token/contracts/own/SpidyToken.sol\":3531:3575  Transfer(_from,_to,transferfrom_withdecimal) */\n      0xffffffffffffffffffffffffffffffffffffffff\n      and\n        /* \"dharan-token/contracts/own/SpidyToken.sol\":3540:3545  _from */\n      dup6\n        /* \"dharan-token/contracts/own/SpidyToken.sol\":3531:3575  Transfer(_from,_to,transferfrom_withdecimal) */\n      0xffffffffffffffffffffffffffffffffffffffff\n      and\n      0xddf252ad1be2c89b69c2b068fc378daa952ba7f163c4a11628f55a4df523b3ef\n        /* \"dharan-token/contracts/own/SpidyToken.sol\":3550:3574  transferfrom_withdecimal */\n      dup4\n        /* \"dharan-token/contracts/own/SpidyToken.sol\":3531:3575  Transfer(_from,_to,transferfrom_withdecimal) */\n      mload(0x40)\n      tag_153\n      swap2\n      swap1\n      tag_36\n      jump\t// in\n    tag_153:\n      mload(0x40)\n      dup1\n      swap2\n      sub\n      swap1\n      log3\n        /* \"dharan-token/contracts/own/SpidyToken.sol\":3593:3597  true */\n      0x01\n        /* \"dharan-token/contracts/own/SpidyToken.sol\":3586:3597  return true */\n      swap2\n      pop\n      pop\n        /* \"dharan-token/contracts/own/SpidyToken.sol\":2922:3605  function transferfrom(address _from,address _to,uint256 _value)public returns(bool success){... */\n      swap4\n      swap3\n      pop\n      pop\n      pop\n      jump\t// out\n        /* \"dharan-token/contracts/own/SpidyToken.sol\":1611:1721  function balanceOf (address account) public view returns(uint256){... */\n    tag_56:\n        /* \"dharan-token/contracts/own/SpidyToken.sol\":1668:1675  uint256 */\n      0x00\n        /* \"dharan-token/contracts/own/SpidyToken.sol\":1694:1704  _balanceOf */\n      0x04\n        /* \"dharan-token/contracts/own/SpidyToken.sol\":1694:1713  _balanceOf[account] */\n      0x00\n        /* \"dharan-token/contracts/own/SpidyToken.sol\":1705:1712  account */\n      dup4\n        /* \"dharan-token/contracts/own/SpidyToken.sol\":1694:1713  _balanceOf[account] */\n      0xffffffffffffffffffffffffffffffffffffffff\n      and\n      0xffffffffffffffffffffffffffffffffffffffff\n      and\n      dup2\n      mstore\n      0x20\n      add\n      swap1\n      dup2\n      mstore\n      0x20\n      add\n      0x00\n      keccak256\n      sload\n        /* \"dharan-token/contracts/own/SpidyToken.sol\":1687:1713  return _balanceOf[account] */\n      swap1\n      pop\n        /* \"dharan-token/contracts/own/SpidyToken.sol\":1611:1721  function balanceOf (address account) public view returns(uint256){... */\n      swap2\n      swap1\n      pop\n      jump\t// out\n        /* \"dharan-token/contracts/own/SpidyToken.sol\":1330:1416  function symbol() public pure returns (string memory){... */\n    tag_59:\n        /* \"dharan-token/contracts/own/SpidyToken.sol\":1369:1382  string memory */\n      0x60\n        /* \"dharan-token/contracts/own/SpidyToken.sol\":1401:1408  _symbol */\n      mload(0x40)\n      dup1\n      0x40\n      add\n      0x40\n      mstore\n      dup1\n      0x03\n      dup2\n      mstore\n      0x20\n      add\n      0x5350440000000000000000000000000000000000000000000000000000000000\n      dup2\n      mstore\n      pop\n        /* \"dharan-token/contracts/own/SpidyToken.sol\":1394:1408  return _symbol */\n      swap1\n      pop\n        /* \"dharan-token/contracts/own/SpidyToken.sol\":1330:1416  function symbol() public pure returns (string memory){... */\n      swap1\n      jump\t// out\n        /* \"dharan-token/contracts/own/SpidyToken.sol\":4121:4281  function tokenLeft()public view returns(uint256){... */\n    tag_62:\n        /* \"dharan-token/contracts/own/SpidyToken.sol\":4161:4168  uint256 */\n      0x00\n        /* \"dharan-token/contracts/own/SpidyToken.sol\":4180:4206  uint256 remainingTokenLeft */\n      0x00\n        /* \"dharan-token/contracts/own/SpidyToken.sol\":4224:4237  _mintedSupply */\n      sload(0x03)\n        /* \"dharan-token/contracts/own/SpidyToken.sol\":4209:4221  _totalSupply */\n      sload(0x01)\n        /* \"dharan-token/contracts/own/SpidyToken.sol\":4209:4237  _totalSupply - _mintedSupply */\n      tag_157\n      swap2\n      swap1\n      tag_136\n      jump\t// in\n    tag_157:\n        /* \"dharan-token/contracts/own/SpidyToken.sol\":4180:4237  uint256 remainingTokenLeft = _totalSupply - _mintedSupply */\n      swap1\n      pop\n        /* \"dharan-token/contracts/own/SpidyToken.sol\":4255:4273  remainingTokenLeft */\n      dup1\n        /* \"dharan-token/contracts/own/SpidyToken.sol\":4248:4273  return remainingTokenLeft */\n      swap2\n      pop\n      pop\n        /* \"dharan-token/contracts/own/SpidyToken.sol\":4121:4281  function tokenLeft()public view returns(uint256){... */\n      swap1\n      jump\t// out\n        /* \"dharan-token/contracts/own/SpidyToken.sol\":4739:5292  function decreaseAllowance(address spender,uint256 value)public returns(bool success){... */\n    tag_66:\n        /* \"dharan-token/contracts/own/SpidyToken.sol\":4811:4823  bool success */\n      0x00\n        /* \"dharan-token/contracts/own/SpidyToken.sol\":4862:4863  0 */\n      0x00\n        /* \"dharan-token/contracts/own/SpidyToken.sol\":4843:4864  spender != address(0) */\n      0xffffffffffffffffffffffffffffffffffffffff\n      and\n        /* \"dharan-token/contracts/own/SpidyToken.sol\":4843:4850  spender */\n      dup4\n        /* \"dharan-token/contracts/own/SpidyToken.sol\":4843:4864  spender != address(0) */\n      0xffffffffffffffffffffffffffffffffffffffff\n      and\n      sub\n        /* \"dharan-token/contracts/own/SpidyToken.sol\":4835:4915  require(spender != address(0),\"cannot decrease allowance to address value Zero\") */\n      tag_159\n      jumpi\n      mload(0x40)\n      0x08c379a000000000000000000000000000000000000000000000000000000000\n      dup2\n      mstore\n      0x04\n      add\n      tag_160\n      swap1\n      tag_161\n      jump\t// in\n    tag_160:\n      mload(0x40)\n      dup1\n      swap2\n      sub\n      swap1\n      revert\n    tag_159:\n        /* \"dharan-token/contracts/own/SpidyToken.sol\":4928:4960  uint256 decreaseValueWithDecimal */\n      0x00\n        /* \"dharan-token/contracts/own/SpidyToken.sol\":219:221  18 */\n      0x12\n        /* \"dharan-token/contracts/own/SpidyToken.sol\":4972:4974  10 */\n      0x0a\n        /* \"dharan-token/contracts/own/SpidyToken.sol\":4972:4987  10 ** _decimals */\n      tag_162\n      swap2\n      swap1\n      tag_80\n      jump\t// in\n    tag_162:\n        /* \"dharan-token/contracts/own/SpidyToken.sol\":4963:4968  value */\n      dup4\n        /* \"dharan-token/contracts/own/SpidyToken.sol\":4963:4988  value * (10 ** _decimals) */\n      tag_163\n      swap2\n      swap1\n      tag_82\n      jump\t// in\n    tag_163:\n        /* \"dharan-token/contracts/own/SpidyToken.sol\":4928:4988  uint256 decreaseValueWithDecimal = value * (10 ** _decimals) */\n      swap1\n      pop\n        /* \"dharan-token/contracts/own/SpidyToken.sol\":5042:5066  decreaseValueWithDecimal */\n      dup1\n        /* \"dharan-token/contracts/own/SpidyToken.sol\":5007:5017  _allowance */\n      0x05\n        /* \"dharan-token/contracts/own/SpidyToken.sol\":5007:5029  _allowance[msg.sender] */\n      0x00\n        /* \"dharan-token/contracts/own/SpidyToken.sol\":5018:5028  msg.sender */\n      caller\n        /* \"dharan-token/contracts/own/SpidyToken.sol\":5007:5029  _allowance[msg.sender] */\n      0xffffffffffffffffffffffffffffffffffffffff\n      and\n      0xffffffffffffffffffffffffffffffffffffffff\n      and\n      dup2\n      mstore\n      0x20\n      add\n      swap1\n      dup2\n      mstore\n      0x20\n      add\n      0x00\n      keccak256\n        /* \"dharan-token/contracts/own/SpidyToken.sol\":5007:5038  _allowance[msg.sender][spender] */\n      0x00\n        /* \"dharan-token/contracts/own/SpidyToken.sol\":5030:5037  spender */\n      dup7\n        /* \"dharan-token/contracts/own/SpidyToken.sol\":5007:5038  _allowance[msg.sender][spender] */\n      0xffffffffffffffffffffffffffffffffffffffff\n      and\n      0xffffffffffffffffffffffffffffffffffffffff\n      and\n      dup2\n      mstore\n      0x20\n      add\n      swap1\n      dup2\n      mstore\n      0x20\n      add\n      0x00\n      keccak256\n      sload\n        /* \"dharan-token/contracts/own/SpidyToken.sol\":5007:5066  _allowance[msg.sender][spender] >= decreaseValueWithDecimal */\n      lt\n      iszero\n        /* \"dharan-token/contracts/own/SpidyToken.sol\":4999:5112  require(_allowance[msg.sender][spender] >= decreaseValueWithDecimal,\"Insufficient allowance balance to decrease\") */\n      tag_164\n      jumpi\n      mload(0x40)\n      0x08c379a000000000000000000000000000000000000000000000000000000000\n      dup2\n      mstore\n      0x04\n      add\n      tag_165\n      swap1\n      tag_166\n      jump\t// in\n    tag_165:\n      mload(0x40)\n      dup1\n      swap2\n      sub\n      swap1\n      revert\n    tag_164:\n        /* \"dharan-token/contracts/own/SpidyToken.sol\":5158:5182  decreaseValueWithDecimal */\n      dup1\n        /* \"dharan-token/contracts/own/SpidyToken.sol\":5123:5133  _allowance */\n      0x05\n        /* \"dharan-token/contracts/own/SpidyToken.sol\":5123:5145  _allowance[msg.sender] */\n      0x00\n        /* \"dharan-token/contracts/own/SpidyToken.sol\":5134:5144  msg.sender */\n      caller\n        /* \"dharan-token/contracts/own/SpidyToken.sol\":5123:5145  _allowance[msg.sender] */\n      0xffffffffffffffffffffffffffffffffffffffff\n      and\n      0xffffffffffffffffffffffffffffffffffffffff\n      and\n      dup2\n      mstore\n      0x20\n      add\n      swap1\n      dup2\n      mstore\n      0x20\n      add\n      0x00\n      keccak256\n        /* \"dharan-token/contracts/own/SpidyToken.sol\":5123:5154  _allowance[msg.sender][spender] */\n      0x00\n        /* \"dharan-token/contracts/own/SpidyToken.sol\":5146:5153  spender */\n      dup7\n        /* \"dharan-token/contracts/own/SpidyToken.sol\":5123:5154  _allowance[msg.sender][spender] */\n      0xffffffffffffffffffffffffffffffffffffffff\n      and\n      0xffffffffffffffffffffffffffffffffffffffff\n      and\n      dup2\n      mstore\n      0x20\n      add\n      swap1\n      dup2\n      mstore\n      0x20\n      add\n      0x00\n      keccak256\n      0x00\n        /* \"dharan-token/contracts/own/SpidyToken.sol\":5123:5182  _allowance[msg.sender][spender] -= decreaseValueWithDecimal */\n      dup3\n      dup3\n      sload\n      tag_167\n      swap2\n      swap1\n      tag_136\n      jump\t// in\n    tag_167:\n      swap3\n      pop\n      pop\n      dup2\n      swap1\n      sstore\n      pop\n        /* \"dharan-token/contracts/own/SpidyToken.sol\":5221:5228  spender */\n      dup4\n        /* \"dharan-token/contracts/own/SpidyToken.sol\":5200:5262  Approval(msg.sender, spender, _allowance[msg.sender][spender]) */\n      0xffffffffffffffffffffffffffffffffffffffff\n      and\n        /* \"dharan-token/contracts/own/SpidyToken.sol\":5209:5219  msg.sender */\n      caller\n        /* \"dharan-token/contracts/own/SpidyToken.sol\":5200:5262  Approval(msg.sender, spender, _allowance[msg.sender][spender]) */\n      0xffffffffffffffffffffffffffffffffffffffff\n      and\n      0x8c5be1e5ebec7d5bd14f71427d1e84f3dd0314c0f7b2291e5b200ac8c7c3b925\n        /* \"dharan-token/contracts/own/SpidyToken.sol\":5230:5240  _allowance */\n      0x05\n        /* \"dharan-token/contracts/own/SpidyToken.sol\":5230:5252  _allowance[msg.sender] */\n      0x00\n        /* \"dharan-token/contracts/own/SpidyToken.sol\":5241:5251  msg.sender */\n      caller\n        /* \"dharan-token/contracts/own/SpidyToken.sol\":5230:5252  _allowance[msg.sender] */\n      0xffffffffffffffffffffffffffffffffffffffff\n      and\n      0xffffffffffffffffffffffffffffffffffffffff\n      and\n      dup2\n      mstore\n      0x20\n      add\n      swap1\n      dup2\n      mstore\n      0x20\n      add\n      0x00\n      keccak256\n        /* \"dharan-token/contracts/own/SpidyToken.sol\":5230:5261  _allowance[msg.sender][spender] */\n      0x00\n        /* \"dharan-token/contracts/own/SpidyToken.sol\":5253:5260  spender */\n      dup9\n        /* \"dharan-token/contracts/own/SpidyToken.sol\":5230:5261  _allowance[msg.sender][spender] */\n      0xffffffffffffffffffffffffffffffffffffffff\n      and\n      0xffffffffffffffffffffffffffffffffffffffff\n      and\n      dup2\n      mstore\n      0x20\n      add\n      swap1\n      dup2\n      mstore\n      0x20\n      add\n      0x00\n      keccak256\n      sload\n        /* \"dharan-token/contracts/own/SpidyToken.sol\":5200:5262  Approval(msg.sender, spender, _allowance[msg.sender][spender]) */\n      mload(0x40)\n      tag_168\n      swap2\n      swap1\n      tag_36\n      jump\t// in\n    tag_168:\n      mload(0x40)\n      dup1\n      swap2\n      sub\n      swap1\n      log3\n        /* \"dharan-token/contracts/own/SpidyToken.sol\":5280:5284  true */\n      0x01\n        /* \"dharan-token/contracts/own/SpidyToken.sol\":5273:5284  return true */\n      swap2\n      pop\n      pop\n        /* \"dharan-token/contracts/own/SpidyToken.sol\":4739:5292  function decreaseAllowance(address spender,uint256 value)public returns(bool success){... */\n      swap3\n      swap2\n      pop\n      pop\n      jump\t// out\n        /* \"dharan-token/contracts/own/SpidyToken.sol\":1729:2350  function transfer(address _to, uint256 _value) public returns(bool success){... */\n    tag_70:\n        /* \"dharan-token/contracts/own/SpidyToken.sol\":1791:1803  bool success */\n      0x00\n        /* \"dharan-token/contracts/own/SpidyToken.sol\":1817:1849  uint256 transferValueWithDecimal */\n      0x00\n        /* \"dharan-token/contracts/own/SpidyToken.sol\":219:221  18 */\n      0x12\n        /* \"dharan-token/contracts/own/SpidyToken.sol\":1862:1864  10 */\n      0x0a\n        /* \"dharan-token/contracts/own/SpidyToken.sol\":1862:1877  10 ** _decimals */\n      tag_170\n      swap2\n      swap1\n      tag_80\n      jump\t// in\n    tag_170:\n        /* \"dharan-token/contracts/own/SpidyToken.sol\":1852:1858  _value */\n      dup4\n        /* \"dharan-token/contracts/own/SpidyToken.sol\":1852:1878  _value * (10 ** _decimals) */\n      tag_171\n      swap2\n      swap1\n      tag_82\n      jump\t// in\n    tag_171:\n        /* \"dharan-token/contracts/own/SpidyToken.sol\":1817:1878  uint256 transferValueWithDecimal = _value * (10 ** _decimals) */\n      swap1\n      pop\n        /* \"dharan-token/contracts/own/SpidyToken.sol\":1925:1926  0 */\n      0x00\n        /* \"dharan-token/contracts/own/SpidyToken.sol\":1898:1922  transferValueWithDecimal */\n      dup2\n        /* \"dharan-token/contracts/own/SpidyToken.sol\":1898:1926  transferValueWithDecimal > 0 */\n      gt\n        /* \"dharan-token/contracts/own/SpidyToken.sol\":1890:1957  require(transferValueWithDecimal > 0, \"Transfer value must be > 0\") */\n      tag_172\n      jumpi\n      mload(0x40)\n      0x08c379a000000000000000000000000000000000000000000000000000000000\n      dup2\n      mstore\n      0x04\n      add\n      tag_173\n      swap1\n      tag_174\n      jump\t// in\n    tag_173:\n      mload(0x40)\n      dup1\n      swap2\n      sub\n      swap1\n      revert\n    tag_172:\n        /* \"dharan-token/contracts/own/SpidyToken.sol\":1992:1993  0 */\n      0x00\n        /* \"dharan-token/contracts/own/SpidyToken.sol\":1977:1994  _to != address(0) */\n      0xffffffffffffffffffffffffffffffffffffffff\n      and\n        /* \"dharan-token/contracts/own/SpidyToken.sol\":1977:1980  _to */\n      dup5\n        /* \"dharan-token/contracts/own/SpidyToken.sol\":1977:1994  _to != address(0) */\n      0xffffffffffffffffffffffffffffffffffffffff\n      and\n      sub\n        /* \"dharan-token/contracts/own/SpidyToken.sol\":1968:2035  require( _to != address(0),\"Cannot transfer to address value Zero\") */\n      tag_175\n      jumpi\n      mload(0x40)\n      0x08c379a000000000000000000000000000000000000000000000000000000000\n      dup2\n      mstore\n      0x04\n      add\n      tag_176\n      swap1\n      tag_177\n      jump\t// in\n    tag_176:\n      mload(0x40)\n      dup1\n      swap2\n      sub\n      swap1\n      revert\n    tag_175:\n        /* \"dharan-token/contracts/own/SpidyToken.sol\":2080:2104  transferValueWithDecimal */\n      dup1\n        /* \"dharan-token/contracts/own/SpidyToken.sol\":2054:2064  _balanceOf */\n      0x04\n        /* \"dharan-token/contracts/own/SpidyToken.sol\":2054:2076  _balanceOf[msg.sender] */\n      0x00\n        /* \"dharan-token/contracts/own/SpidyToken.sol\":2065:2075  msg.sender */\n      caller\n        /* \"dharan-token/contracts/own/SpidyToken.sol\":2054:2076  _balanceOf[msg.sender] */\n      0xffffffffffffffffffffffffffffffffffffffff\n      and\n      0xffffffffffffffffffffffffffffffffffffffff\n      and\n      dup2\n      mstore\n      0x20\n      add\n      swap1\n      dup2\n      mstore\n      0x20\n      add\n      0x00\n      keccak256\n      sload\n        /* \"dharan-token/contracts/own/SpidyToken.sol\":2054:2104  _balanceOf[msg.sender] >= transferValueWithDecimal */\n      lt\n      iszero\n        /* \"dharan-token/contracts/own/SpidyToken.sol\":2046:2128  require(_balanceOf[msg.sender] >= transferValueWithDecimal,\"Insufficient balance\") */\n      tag_178\n      jumpi\n      mload(0x40)\n      0x08c379a000000000000000000000000000000000000000000000000000000000\n      dup2\n      mstore\n      0x04\n      add\n      tag_179\n      swap1\n      tag_146\n      jump\t// in\n    tag_179:\n      mload(0x40)\n      dup1\n      swap2\n      sub\n      swap1\n      revert\n    tag_178:\n        /* \"dharan-token/contracts/own/SpidyToken.sol\":2175:2199  transferValueWithDecimal */\n      dup1\n        /* \"dharan-token/contracts/own/SpidyToken.sol\":2149:2159  _balanceOf */\n      0x04\n        /* \"dharan-token/contracts/own/SpidyToken.sol\":2149:2171  _balanceOf[msg.sender] */\n      0x00\n        /* \"dharan-token/contracts/own/SpidyToken.sol\":2160:2170  msg.sender */\n      caller\n        /* \"dharan-token/contracts/own/SpidyToken.sol\":2149:2171  _balanceOf[msg.sender] */\n      0xffffffffffffffffffffffffffffffffffffffff\n      and\n      0xffffffffffffffffffffffffffffffffffffffff\n      and\n      dup2\n      mstore\n      0x20\n      add\n      swap1\n      dup2\n      mstore\n      0x20\n      add\n      0x00\n      keccak256\n      0x00\n        /* \"dharan-token/contracts/own/SpidyToken.sol\":2149:2199  _balanceOf[msg.sender] -= transferValueWithDecimal */\n      dup3\n      dup3\n      sload\n      tag_180\n      swap2\n      swap1\n      tag_136\n      jump\t// in\n    tag_180:\n      swap3\n      pop\n      pop\n      dup2\n      swap1\n      sstore\n      pop\n        /* \"dharan-token/contracts/own/SpidyToken.sol\":2229:2253  transferValueWithDecimal */\n      dup1\n        /* \"dharan-token/contracts/own/SpidyToken.sol\":2210:2220  _balanceOf */\n      0x04\n        /* \"dharan-token/contracts/own/SpidyToken.sol\":2210:2225  _balanceOf[_to] */\n      0x00\n        /* \"dharan-token/contracts/own/SpidyToken.sol\":2221:2224  _to */\n      dup7\n        /* \"dharan-token/contracts/own/SpidyToken.sol\":2210:2225  _balanceOf[_to] */\n      0xffffffffffffffffffffffffffffffffffffffff\n      and\n      0xffffffffffffffffffffffffffffffffffffffff\n      and\n      dup2\n      mstore\n      0x20\n      add\n      swap1\n      dup2\n      mstore\n      0x20\n      add\n      0x00\n      keccak256\n      0x00\n        /* \"dharan-token/contracts/own/SpidyToken.sol\":2210:2253  _balanceOf[_to] += transferValueWithDecimal */\n      dup3\n      dup3\n      sload\n      tag_181\n      swap2\n      swap1\n      tag_91\n      jump\t// in\n    tag_181:\n      swap3\n      pop\n      pop\n      dup2\n      swap1\n      sstore\n      pop\n        /* \"dharan-token/contracts/own/SpidyToken.sol\":2291:2294  _to */\n      dup4\n        /* \"dharan-token/contracts/own/SpidyToken.sol\":2271:2320  Transfer(msg.sender,_to,transferValueWithDecimal) */\n      0xffffffffffffffffffffffffffffffffffffffff\n      and\n        /* \"dharan-token/contracts/own/SpidyToken.sol\":2280:2290  msg.sender */\n      caller\n        /* \"dharan-token/contracts/own/SpidyToken.sol\":2271:2320  Transfer(msg.sender,_to,transferValueWithDecimal) */\n      0xffffffffffffffffffffffffffffffffffffffff\n      and\n      0xddf252ad1be2c89b69c2b068fc378daa952ba7f163c4a11628f55a4df523b3ef\n        /* \"dharan-token/contracts/own/SpidyToken.sol\":2295:2319  transferValueWithDecimal */\n      dup4\n        /* \"dharan-token/contracts/own/SpidyToken.sol\":2271:2320  Transfer(msg.sender,_to,transferValueWithDecimal) */\n      mload(0x40)\n      tag_182\n      swap2\n      swap1\n      tag_36\n      jump\t// in\n    tag_182:\n      mload(0x40)\n      dup1\n      swap2\n      sub\n      swap1\n      log3\n        /* \"dharan-token/contracts/own/SpidyToken.sol\":2338:2342  true */\n      0x01\n        /* \"dharan-token/contracts/own/SpidyToken.sol\":2331:2342  return true */\n      swap2\n      pop\n      pop\n        /* \"dharan-token/contracts/own/SpidyToken.sol\":1729:2350  function transfer(address _to, uint256 _value) public returns(bool success){... */\n      swap3\n      swap2\n      pop\n      pop\n      jump\t// out\n        /* \"dharan-token/contracts/own/SpidyToken.sol\":2358:2494  function allowance (address _owner,address _spender)public view returns(uint256){... */\n    tag_75:\n        /* \"dharan-token/contracts/own/SpidyToken.sol\":2430:2437  uint256 */\n      0x00\n        /* \"dharan-token/contracts/own/SpidyToken.sol\":2456:2466  _allowance */\n      0x05\n        /* \"dharan-token/contracts/own/SpidyToken.sol\":2456:2474  _allowance[_owner] */\n      0x00\n        /* \"dharan-token/contracts/own/SpidyToken.sol\":2467:2473  _owner */\n      dup5\n        /* \"dharan-token/contracts/own/SpidyToken.sol\":2456:2474  _allowance[_owner] */\n      0xffffffffffffffffffffffffffffffffffffffff\n      and\n      0xffffffffffffffffffffffffffffffffffffffff\n      and\n      dup2\n      mstore\n      0x20\n      add\n      swap1\n      dup2\n      mstore\n      0x20\n      add\n      0x00\n      keccak256\n        /* \"dharan-token/contracts/own/SpidyToken.sol\":2456:2484  _allowance[_owner][_spender] */\n      0x00\n        /* \"dharan-token/contracts/own/SpidyToken.sol\":2475:2483  _spender */\n      dup4\n        /* \"dharan-token/contracts/own/SpidyToken.sol\":2456:2484  _allowance[_owner][_spender] */\n      0xffffffffffffffffffffffffffffffffffffffff\n      and\n      0xffffffffffffffffffffffffffffffffffffffff\n      and\n      dup2\n      mstore\n      0x20\n      add\n      swap1\n      dup2\n      mstore\n      0x20\n      add\n      0x00\n      keccak256\n      sload\n        /* \"dharan-token/contracts/own/SpidyToken.sol\":2449:2484  return _allowance[_owner][_spender] */\n      swap1\n      pop\n        /* \"dharan-token/contracts/own/SpidyToken.sol\":2358:2494  function allowance (address _owner,address _spender)public view returns(uint256){... */\n      swap3\n      swap2\n      pop\n      pop\n      jump\t// out\n        /* \"#utility.yul\":7:106   */\n    tag_184:\n        /* \"#utility.yul\":59:65   */\n      0x00\n        /* \"#utility.yul\":93:98   */\n      dup2\n        /* \"#utility.yul\":87:99   */\n      mload\n        /* \"#utility.yul\":77:99   */\n      swap1\n      pop\n        /* \"#utility.yul\":7:106   */\n      swap2\n      swap1\n      pop\n      jump\t// out\n        /* \"#utility.yul\":112:281   */\n    tag_185:\n        /* \"#utility.yul\":196:207   */\n      0x00\n        /* \"#utility.yul\":230:236   */\n      dup3\n        /* \"#utility.yul\":225:228   */\n      dup3\n        /* \"#utility.yul\":218:237   */\n      mstore\n        /* \"#utility.yul\":270:274   */\n      0x20\n        /* \"#utility.yul\":265:268   */\n      dup3\n        /* \"#utility.yul\":261:275   */\n      add\n        /* \"#utility.yul\":246:275   */\n      swap1\n      pop\n        /* \"#utility.yul\":112:281   */\n      swap3\n      swap2\n      pop\n      pop\n      jump\t// out\n        /* \"#utility.yul\":287:426   */\n    tag_186:\n        /* \"#utility.yul\":376:382   */\n      dup3\n        /* \"#utility.yul\":371:374   */\n      dup2\n        /* \"#utility.yul\":366:369   */\n      dup4\n        /* \"#utility.yul\":360:383   */\n      mcopy\n        /* \"#utility.yul\":417:418   */\n      0x00\n        /* \"#utility.yul\":408:414   */\n      dup4\n        /* \"#utility.yul\":403:406   */\n      dup4\n        /* \"#utility.yul\":399:415   */\n      add\n        /* \"#utility.yul\":392:419   */\n      mstore\n        /* \"#utility.yul\":287:426   */\n      pop\n      pop\n      pop\n      jump\t// out\n        /* \"#utility.yul\":432:534   */\n    tag_187:\n        /* \"#utility.yul\":473:479   */\n      0x00\n        /* \"#utility.yul\":524:526   */\n      0x1f\n        /* \"#utility.yul\":520:527   */\n      not\n        /* \"#utility.yul\":515:517   */\n      0x1f\n        /* \"#utility.yul\":508:513   */\n      dup4\n        /* \"#utility.yul\":504:518   */\n      add\n        /* \"#utility.yul\":500:528   */\n      and\n        /* \"#utility.yul\":490:528   */\n      swap1\n      pop\n        /* \"#utility.yul\":432:534   */\n      swap2\n      swap1\n      pop\n      jump\t// out\n        /* \"#utility.yul\":540:917   */\n    tag_188:\n        /* \"#utility.yul\":628:631   */\n      0x00\n        /* \"#utility.yul\":656:695   */\n      tag_238\n        /* \"#utility.yul\":689:694   */\n      dup3\n        /* \"#utility.yul\":656:695   */\n      tag_184\n      jump\t// in\n    tag_238:\n        /* \"#utility.yul\":711:782   */\n      tag_239\n        /* \"#utility.yul\":775:781   */\n      dup2\n        /* \"#utility.yul\":770:773   */\n      dup6\n        /* \"#utility.yul\":711:782   */\n      tag_185\n      jump\t// in\n    tag_239:\n        /* \"#utility.yul\":704:782   */\n      swap4\n      pop\n        /* \"#utility.yul\":791:856   */\n      tag_240\n        /* \"#utility.yul\":849:855   */\n      dup2\n        /* \"#utility.yul\":844:847   */\n      dup6\n        /* \"#utility.yul\":837:841   */\n      0x20\n        /* \"#utility.yul\":830:835   */\n      dup7\n        /* \"#utility.yul\":826:842   */\n      add\n        /* \"#utility.yul\":791:856   */\n      tag_186\n      jump\t// in\n    tag_240:\n        /* \"#utility.yul\":881:910   */\n      tag_241\n        /* \"#utility.yul\":903:909   */\n      dup2\n        /* \"#utility.yul\":881:910   */\n      tag_187\n      jump\t// in\n    tag_241:\n        /* \"#utility.yul\":876:879   */\n      dup5\n        /* \"#utility.yul\":872:911   */\n      add\n        /* \"#utility.yul\":865:911   */\n      swap2\n      pop\n        /* \"#utility.yul\":632:917   */\n      pop\n        /* \"#utility.yul\":540:917   */\n      swap3\n      swap2\n      pop\n      pop\n      jump\t// out\n        /* \"#utility.yul\":923:1236   */\n    tag_23:\n        /* \"#utility.yul\":1036:1040   */\n      0x00\n        /* \"#utility.yul\":1074:1076   */\n      0x20\n        /* \"#utility.yul\":1063:1072   */\n      dup3\n        /* \"#utility.yul\":1059:1077   */\n      add\n        /* \"#utility.yul\":1051:1077   */\n      swap1\n      pop\n        /* \"#utility.yul\":1123:1132   */\n      dup2\n        /* \"#utility.yul\":1117:1121   */\n      dup2\n        /* \"#utility.yul\":1113:1133   */\n      sub\n        /* \"#utility.yul\":1109:1110   */\n      0x00\n        /* \"#utility.yul\":1098:1107   */\n      dup4\n        /* \"#utility.yul\":1094:1111   */\n      add\n        /* \"#utility.yul\":1087:1134   */\n      mstore\n        /* \"#utility.yul\":1151:1229   */\n      tag_243\n        /* \"#utility.yul\":1224:1228   */\n      dup2\n        /* \"#utility.yul\":1215:1221   */\n      dup5\n        /* \"#utility.yul\":1151:1229   */\n      tag_188\n      jump\t// in\n    tag_243:\n        /* \"#utility.yul\":1143:1229   */\n      swap1\n      pop\n        /* \"#utility.yul\":923:1236   */\n      swap3\n      swap2\n      pop\n      pop\n      jump\t// out\n        /* \"#utility.yul\":1323:1440   */\n    tag_190:\n        /* \"#utility.yul\":1432:1433   */\n      0x00\n        /* \"#utility.yul\":1429:1430   */\n      0x00\n        /* \"#utility.yul\":1422:1434   */\n      revert\n        /* \"#utility.yul\":1569:1695   */\n    tag_192:\n        /* \"#utility.yul\":1606:1613   */\n      0x00\n        /* \"#utility.yul\":1646:1688   */\n      0xffffffffffffffffffffffffffffffffffffffff\n        /* \"#utility.yul\":1639:1644   */\n      dup3\n        /* \"#utility.yul\":1635:1689   */\n      and\n        /* \"#utility.yul\":1624:1689   */\n      swap1\n      pop\n        /* \"#utility.yul\":1569:1695   */\n      swap2\n      swap1\n      pop\n      jump\t// out\n        /* \"#utility.yul\":1701:1797   */\n    tag_193:\n        /* \"#utility.yul\":1738:1745   */\n      0x00\n        /* \"#utility.yul\":1767:1791   */\n      tag_249\n        /* \"#utility.yul\":1785:1790   */\n      dup3\n        /* \"#utility.yul\":1767:1791   */\n      tag_192\n      jump\t// in\n    tag_249:\n        /* \"#utility.yul\":1756:1791   */\n      swap1\n      pop\n        /* \"#utility.yul\":1701:1797   */\n      swap2\n      swap1\n      pop\n      jump\t// out\n        /* \"#utility.yul\":1803:1925   */\n    tag_194:\n        /* \"#utility.yul\":1876:1900   */\n      tag_251\n        /* \"#utility.yul\":1894:1899   */\n      dup2\n        /* \"#utility.yul\":1876:1900   */\n      tag_193\n      jump\t// in\n    tag_251:\n        /* \"#utility.yul\":1869:1874   */\n      dup2\n        /* \"#utility.yul\":1866:1901   */\n      eq\n        /* \"#utility.yul\":1856:1919   */\n      tag_252\n      jumpi\n        /* \"#utility.yul\":1915:1916   */\n      0x00\n        /* \"#utility.yul\":1912:1913   */\n      0x00\n        /* \"#utility.yul\":1905:1917   */\n      revert\n        /* \"#utility.yul\":1856:1919   */\n    tag_252:\n        /* \"#utility.yul\":1803:1925   */\n      pop\n      jump\t// out\n        /* \"#utility.yul\":1931:2070   */\n    tag_195:\n        /* \"#utility.yul\":1977:1982   */\n      0x00\n        /* \"#utility.yul\":2015:2021   */\n      dup2\n        /* \"#utility.yul\":2002:2022   */\n      calldataload\n        /* \"#utility.yul\":1993:2022   */\n      swap1\n      pop\n        /* \"#utility.yul\":2031:2064   */\n      tag_254\n        /* \"#utility.yul\":2058:2063   */\n      dup2\n        /* \"#utility.yul\":2031:2064   */\n      tag_194\n      jump\t// in\n    tag_254:\n        /* \"#utility.yul\":1931:2070   */\n      swap3\n      swap2\n      pop\n      pop\n      jump\t// out\n        /* \"#utility.yul\":2076:2153   */\n    tag_196:\n        /* \"#utility.yul\":2113:2120   */\n      0x00\n        /* \"#utility.yul\":2142:2147   */\n      dup2\n        /* \"#utility.yul\":2131:2147   */\n      swap1\n      pop\n        /* \"#utility.yul\":2076:2153   */\n      swap2\n      swap1\n      pop\n      jump\t// out\n        /* \"#utility.yul\":2159:2281   */\n    tag_197:\n        /* \"#utility.yul\":2232:2256   */\n      tag_257\n        /* \"#utility.yul\":2250:2255   */\n      dup2\n        /* \"#utility.yul\":2232:2256   */\n      tag_196\n      jump\t// in\n    tag_257:\n        /* \"#utility.yul\":2225:2230   */\n      dup2\n        /* \"#utility.yul\":2222:2257   */\n      eq\n        /* \"#utility.yul\":2212:2275   */\n      tag_258\n      jumpi\n        /* \"#utility.yul\":2271:2272   */\n      0x00\n        /* \"#utility.yul\":2268:2269   */\n      0x00\n        /* \"#utility.yul\":2261:2273   */\n      revert\n        /* \"#utility.yul\":2212:2275   */\n    tag_258:\n        /* \"#utility.yul\":2159:2281   */\n      pop\n      jump\t// out\n        /* \"#utility.yul\":2287:2426   */\n    tag_198:\n        /* \"#utility.yul\":2333:2338   */\n      0x00\n        /* \"#utility.yul\":2371:2377   */\n      dup2\n        /* \"#utility.yul\":2358:2378   */\n      calldataload\n        /* \"#utility.yul\":2349:2378   */\n      swap1\n      pop\n        /* \"#utility.yul\":2387:2420   */\n      tag_260\n        /* \"#utility.yul\":2414:2419   */\n      dup2\n        /* \"#utility.yul\":2387:2420   */\n      tag_197\n      jump\t// in\n    tag_260:\n        /* \"#utility.yul\":2287:2426   */\n      swap3\n      swap2\n      pop\n      pop\n      jump\t// out\n        /* \"#utility.yul\":2432:2906   */\n    tag_26:\n        /* \"#utility.yul\":2500:2506   */\n      0x00\n        /* \"#utility.yul\":2508:2514   */\n      0x00\n        /* \"#utility.yul\":2557:2559   */\n      0x40\n        /* \"#utility.yul\":2545:2554   */\n      dup4\n        /* \"#utility.yul\":2536:2543   */\n      dup6\n        /* \"#utility.yul\":2532:2555   */\n      sub\n        /* \"#utility.yul\":2528:2560   */\n      slt\n        /* \"#utility.yul\":2525:2644   */\n      iszero\n      tag_262\n      jumpi\n        /* \"#utility.yul\":2563:2642   */\n      tag_263\n      tag_190\n      jump\t// in\n    tag_263:\n        /* \"#utility.yul\":2525:2644   */\n    tag_262:\n        /* \"#utility.yul\":2683:2684   */\n      0x00\n        /* \"#utility.yul\":2708:2761   */\n      tag_264\n        /* \"#utility.yul\":2753:2760   */\n      dup6\n        /* \"#utility.yul\":2744:2750   */\n      dup3\n        /* \"#utility.yul\":2733:2742   */\n      dup7\n        /* \"#utility.yul\":2729:2751   */\n      add\n        /* \"#utility.yul\":2708:2761   */\n      tag_195\n      jump\t// in\n    tag_264:\n        /* \"#utility.yul\":2698:2761   */\n      swap3\n      pop\n        /* \"#utility.yul\":2654:2771   */\n      pop\n        /* \"#utility.yul\":2810:2812   */\n      0x20\n        /* \"#utility.yul\":2836:2889   */\n      tag_265\n        /* \"#utility.yul\":2881:2888   */\n      dup6\n        /* \"#utility.yul\":2872:2878   */\n      dup3\n        /* \"#utility.yul\":2861:2870   */\n      dup7\n        /* \"#utility.yul\":2857:2879   */\n      add\n        /* \"#utility.yul\":2836:2889   */\n      tag_198\n      jump\t// in\n    tag_265:\n        /* \"#utility.yul\":2826:2889   */\n      swap2\n      pop\n        /* \"#utility.yul\":2781:2899   */\n      pop\n        /* \"#utility.yul\":2432:2906   */\n      swap3\n      pop\n      swap3\n      swap1\n      pop\n      jump\t// out\n        /* \"#utility.yul\":2912:3002   */\n    tag_199:\n        /* \"#utility.yul\":2946:2953   */\n      0x00\n        /* \"#utility.yul\":2989:2994   */\n      dup2\n        /* \"#utility.yul\":2982:2995   */\n      iszero\n        /* \"#utility.yul\":2975:2996   */\n      iszero\n        /* \"#utility.yul\":2964:2996   */\n      swap1\n      pop\n        /* \"#utility.yul\":2912:3002   */\n      swap2\n      swap1\n      pop\n      jump\t// out\n        /* \"#utility.yul\":3008:3117   */\n    tag_200:\n        /* \"#utility.yul\":3089:3110   */\n      tag_268\n        /* \"#utility.yul\":3104:3109   */\n      dup2\n        /* \"#utility.yul\":3089:3110   */\n      tag_199\n      jump\t// in\n    tag_268:\n        /* \"#utility.yul\":3084:3087   */\n      dup3\n        /* \"#utility.yul\":3077:3111   */\n      mstore\n        /* \"#utility.yul\":3008:3117   */\n      pop\n      pop\n      jump\t// out\n        /* \"#utility.yul\":3123:3333   */\n    tag_29:\n        /* \"#utility.yul\":3210:3214   */\n      0x00\n        /* \"#utility.yul\":3248:3250   */\n      0x20\n        /* \"#utility.yul\":3237:3246   */\n      dup3\n        /* \"#utility.yul\":3233:3251   */\n      add\n        /* \"#utility.yul\":3225:3251   */\n      swap1\n      pop\n        /* \"#utility.yul\":3261:3326   */\n      tag_270\n        /* \"#utility.yul\":3323:3324   */\n      0x00\n        /* \"#utility.yul\":3312:3321   */\n      dup4\n        /* \"#utility.yul\":3308:3325   */\n      add\n        /* \"#utility.yul\":3299:3305   */\n      dup5\n        /* \"#utility.yul\":3261:3326   */\n      tag_200\n      jump\t// in\n    tag_270:\n        /* \"#utility.yul\":3123:3333   */\n      swap3\n      swap2\n      pop\n      pop\n      jump\t// out\n        /* \"#utility.yul\":3339:3457   */\n    tag_201:\n        /* \"#utility.yul\":3426:3450   */\n      tag_272\n        /* \"#utility.yul\":3444:3449   */\n      dup2\n        /* \"#utility.yul\":3426:3450   */\n      tag_196\n      jump\t// in\n    tag_272:\n        /* \"#utility.yul\":3421:3424   */\n      dup3\n        /* \"#utility.yul\":3414:3451   */\n      mstore\n        /* \"#utility.yul\":3339:3457   */\n      pop\n      pop\n      jump\t// out\n        /* \"#utility.yul\":3463:3685   */\n    tag_36:\n        /* \"#utility.yul\":3556:3560   */\n      0x00\n        /* \"#utility.yul\":3594:3596   */\n      0x20\n        /* \"#utility.yul\":3583:3592   */\n      dup3\n        /* \"#utility.yul\":3579:3597   */\n      add\n        /* \"#utility.yul\":3571:3597   */\n      swap1\n      pop\n        /* \"#utility.yul\":3607:3678   */\n      tag_274\n        /* \"#utility.yul\":3675:3676   */\n      0x00\n        /* \"#utility.yul\":3664:3673   */\n      dup4\n        /* \"#utility.yul\":3660:3677   */\n      add\n        /* \"#utility.yul\":3651:3657   */\n      dup5\n        /* \"#utility.yul\":3607:3678   */\n      tag_201\n      jump\t// in\n    tag_274:\n        /* \"#utility.yul\":3463:3685   */\n      swap3\n      swap2\n      pop\n      pop\n      jump\t// out\n        /* \"#utility.yul\":3691:3777   */\n    tag_202:\n        /* \"#utility.yul\":3726:3733   */\n      0x00\n        /* \"#utility.yul\":3766:3770   */\n      0xff\n        /* \"#utility.yul\":3759:3764   */\n      dup3\n        /* \"#utility.yul\":3755:3771   */\n      and\n        /* \"#utility.yul\":3744:3771   */\n      swap1\n      pop\n        /* \"#utility.yul\":3691:3777   */\n      swap2\n      swap1\n      pop\n      jump\t// out\n        /* \"#utility.yul\":3783:3895   */\n    tag_203:\n        /* \"#utility.yul\":3866:3888   */\n      tag_277\n        /* \"#utility.yul\":3882:3887   */\n      dup2\n        /* \"#utility.yul\":3866:3888   */\n      tag_202\n      jump\t// in\n    tag_277:\n        /* \"#utility.yul\":3861:3864   */\n      dup3\n        /* \"#utility.yul\":3854:3889   */\n      mstore\n        /* \"#utility.yul\":3783:3895   */\n      pop\n      pop\n      jump\t// out\n        /* \"#utility.yul\":3901:4115   */\n    tag_40:\n        /* \"#utility.yul\":3990:3994   */\n      0x00\n        /* \"#utility.yul\":4028:4030   */\n      0x20\n        /* \"#utility.yul\":4017:4026   */\n      dup3\n        /* \"#utility.yul\":4013:4031   */\n      add\n        /* \"#utility.yul\":4005:4031   */\n      swap1\n      pop\n        /* \"#utility.yul\":4041:4108   */\n      tag_279\n        /* \"#utility.yul\":4105:4106   */\n      0x00\n        /* \"#utility.yul\":4094:4103   */\n      dup4\n        /* \"#utility.yul\":4090:4107   */\n      add\n        /* \"#utility.yul\":4081:4087   */\n      dup5\n        /* \"#utility.yul\":4041:4108   */\n      tag_203\n      jump\t// in\n    tag_279:\n        /* \"#utility.yul\":3901:4115   */\n      swap3\n      swap2\n      pop\n      pop\n      jump\t// out\n        /* \"#utility.yul\":4121:4740   */\n    tag_50:\n        /* \"#utility.yul\":4198:4204   */\n      0x00\n        /* \"#utility.yul\":4206:4212   */\n      0x00\n        /* \"#utility.yul\":4214:4220   */\n      0x00\n        /* \"#utility.yul\":4263:4265   */\n      0x60\n        /* \"#utility.yul\":4251:4260   */\n      dup5\n        /* \"#utility.yul\":4242:4249   */\n      dup7\n        /* \"#utility.yul\":4238:4261   */\n      sub\n        /* \"#utility.yul\":4234:4266   */\n      slt\n        /* \"#utility.yul\":4231:4350   */\n      iszero\n      tag_281\n      jumpi\n        /* \"#utility.yul\":4269:4348   */\n      tag_282\n      tag_190\n      jump\t// in\n    tag_282:\n        /* \"#utility.yul\":4231:4350   */\n    tag_281:\n        /* \"#utility.yul\":4389:4390   */\n      0x00\n        /* \"#utility.yul\":4414:4467   */\n      tag_283\n        /* \"#utility.yul\":4459:4466   */\n      dup7\n        /* \"#utility.yul\":4450:4456   */\n      dup3\n        /* \"#utility.yul\":4439:4448   */\n      dup8\n        /* \"#utility.yul\":4435:4457   */\n      add\n        /* \"#utility.yul\":4414:4467   */\n      tag_195\n      jump\t// in\n    tag_283:\n        /* \"#utility.yul\":4404:4467   */\n      swap4\n      pop\n        /* \"#utility.yul\":4360:4477   */\n      pop\n        /* \"#utility.yul\":4516:4518   */\n      0x20\n        /* \"#utility.yul\":4542:4595   */\n      tag_284\n        /* \"#utility.yul\":4587:4594   */\n      dup7\n        /* \"#utility.yul\":4578:4584   */\n      dup3\n        /* \"#utility.yul\":4567:4576   */\n      dup8\n        /* \"#utility.yul\":4563:4585   */\n      add\n        /* \"#utility.yul\":4542:4595   */\n      tag_195\n      jump\t// in\n    tag_284:\n        /* \"#utility.yul\":4532:4595   */\n      swap3\n      pop\n        /* \"#utility.yul\":4487:4605   */\n      pop\n        /* \"#utility.yul\":4644:4646   */\n      0x40\n        /* \"#utility.yul\":4670:4723   */\n      tag_285\n        /* \"#utility.yul\":4715:4722   */\n      dup7\n        /* \"#utility.yul\":4706:4712   */\n      dup3\n        /* \"#utility.yul\":4695:4704   */\n      dup8\n        /* \"#utility.yul\":4691:4713   */\n      add\n        /* \"#utility.yul\":4670:4723   */\n      tag_198\n      jump\t// in\n    tag_285:\n        /* \"#utility.yul\":4660:4723   */\n      swap2\n      pop\n        /* \"#utility.yul\":4615:4733   */\n      pop\n        /* \"#utility.yul\":4121:4740   */\n      swap3\n      pop\n      swap3\n      pop\n      swap3\n      jump\t// out\n        /* \"#utility.yul\":4746:5075   */\n    tag_55:\n        /* \"#utility.yul\":4805:4811   */\n      0x00\n        /* \"#utility.yul\":4854:4856   */\n      0x20\n        /* \"#utility.yul\":4842:4851   */\n      dup3\n        /* \"#utility.yul\":4833:4840   */\n      dup5\n        /* \"#utility.yul\":4829:4852   */\n      sub\n        /* \"#utility.yul\":4825:4857   */\n      slt\n        /* \"#utility.yul\":4822:4941   */\n      iszero\n      tag_287\n      jumpi\n        /* \"#utility.yul\":4860:4939   */\n      tag_288\n      tag_190\n      jump\t// in\n    tag_288:\n        /* \"#utility.yul\":4822:4941   */\n    tag_287:\n        /* \"#utility.yul\":4980:4981   */\n      0x00\n        /* \"#utility.yul\":5005:5058   */\n      tag_289\n        /* \"#utility.yul\":5050:5057   */\n      dup5\n        /* \"#utility.yul\":5041:5047   */\n      dup3\n        /* \"#utility.yul\":5030:5039   */\n      dup6\n        /* \"#utility.yul\":5026:5048   */\n      add\n        /* \"#utility.yul\":5005:5058   */\n      tag_195\n      jump\t// in\n    tag_289:\n        /* \"#utility.yul\":4995:5058   */\n      swap2\n      pop\n        /* \"#utility.yul\":4951:5068   */\n      pop\n        /* \"#utility.yul\":4746:5075   */\n      swap3\n      swap2\n      pop\n      pop\n      jump\t// out\n        /* \"#utility.yul\":5081:5555   */\n    tag_74:\n        /* \"#utility.yul\":5149:5155   */\n      0x00\n        /* \"#utility.yul\":5157:5163   */\n      0x00\n        /* \"#utility.yul\":5206:5208   */\n      0x40\n        /* \"#utility.yul\":5194:5203   */\n      dup4\n        /* \"#utility.yul\":5185:5192   */\n      dup6\n        /* \"#utility.yul\":5181:5204   */\n      sub\n        /* \"#utility.yul\":5177:5209   */\n      slt\n        /* \"#utility.yul\":5174:5293   */\n      iszero\n      tag_291\n      jumpi\n        /* \"#utility.yul\":5212:5291   */\n      tag_292\n      tag_190\n      jump\t// in\n    tag_292:\n        /* \"#utility.yul\":5174:5293   */\n    tag_291:\n        /* \"#utility.yul\":5332:5333   */\n      0x00\n        /* \"#utility.yul\":5357:5410   */\n      tag_293\n        /* \"#utility.yul\":5402:5409   */\n      dup6\n        /* \"#utility.yul\":5393:5399   */\n      dup3\n        /* \"#utility.yul\":5382:5391   */\n      dup7\n        /* \"#utility.yul\":5378:5400   */\n      add\n        /* \"#utility.yul\":5357:5410   */\n      tag_195\n      jump\t// in\n    tag_293:\n        /* \"#utility.yul\":5347:5410   */\n      swap3\n      pop\n        /* \"#utility.yul\":5303:5420   */\n      pop\n        /* \"#utility.yul\":5459:5461   */\n      0x20\n        /* \"#utility.yul\":5485:5538   */\n      tag_294\n        /* \"#utility.yul\":5530:5537   */\n      dup6\n        /* \"#utility.yul\":5521:5527   */\n      dup3\n        /* \"#utility.yul\":5510:5519   */\n      dup7\n        /* \"#utility.yul\":5506:5528   */\n      add\n        /* \"#utility.yul\":5485:5538   */\n      tag_195\n      jump\t// in\n    tag_294:\n        /* \"#utility.yul\":5475:5538   */\n      swap2\n      pop\n        /* \"#utility.yul\":5430:5548   */\n      pop\n        /* \"#utility.yul\":5081:5555   */\n      swap3\n      pop\n      swap3\n      swap1\n      pop\n      jump\t// out\n        /* \"#utility.yul\":5561:5741   */\n    tag_204:\n        /* \"#utility.yul\":5609:5686   */\n      0x4e487b7100000000000000000000000000000000000000000000000000000000\n        /* \"#utility.yul\":5606:5607   */\n      0x00\n        /* \"#utility.yul\":5599:5687   */\n      mstore\n        /* \"#utility.yul\":5706:5710   */\n      0x11\n        /* \"#utility.yul\":5703:5704   */\n      0x04\n        /* \"#utility.yul\":5696:5711   */\n      mstore\n        /* \"#utility.yul\":5730:5734   */\n      0x24\n        /* \"#utility.yul\":5727:5728   */\n      0x00\n        /* \"#utility.yul\":5720:5735   */\n      revert\n        /* \"#utility.yul\":5747:5849   */\n    tag_205:\n        /* \"#utility.yul\":5789:5797   */\n      0x00\n        /* \"#utility.yul\":5836:5841   */\n      dup2\n        /* \"#utility.yul\":5833:5834   */\n      0x01\n        /* \"#utility.yul\":5829:5842   */\n      shr\n        /* \"#utility.yul\":5808:5842   */\n      swap1\n      pop\n        /* \"#utility.yul\":5747:5849   */\n      swap2\n      swap1\n      pop\n      jump\t// out\n        /* \"#utility.yul\":5855:6703   */\n    tag_206:\n        /* \"#utility.yul\":5916:5921   */\n      0x00\n        /* \"#utility.yul\":5923:5927   */\n      0x00\n        /* \"#utility.yul\":5947:5953   */\n      dup3\n        /* \"#utility.yul\":5938:5953   */\n      swap2\n      pop\n        /* \"#utility.yul\":5971:5976   */\n      dup4\n        /* \"#utility.yul\":5962:5976   */\n      swap1\n      pop\n        /* \"#utility.yul\":5985:6697   */\n    tag_298:\n        /* \"#utility.yul\":6006:6007   */\n      0x01\n        /* \"#utility.yul\":5996:6004   */\n      dup6\n        /* \"#utility.yul\":5993:6008   */\n      gt\n        /* \"#utility.yul\":5985:6697   */\n      iszero\n      tag_300\n      jumpi\n        /* \"#utility.yul\":6101:6105   */\n      dup1\n        /* \"#utility.yul\":6096:6099   */\n      dup7\n        /* \"#utility.yul\":6092:6106   */\n      div\n        /* \"#utility.yul\":6086:6090   */\n      dup2\n        /* \"#utility.yul\":6083:6107   */\n      gt\n        /* \"#utility.yul\":6080:6130   */\n      iszero\n      tag_301\n      jumpi\n        /* \"#utility.yul\":6110:6128   */\n      tag_302\n      tag_204\n      jump\t// in\n    tag_302:\n        /* \"#utility.yul\":6080:6130   */\n    tag_301:\n        /* \"#utility.yul\":6160:6161   */\n      0x01\n        /* \"#utility.yul\":6150:6158   */\n      dup6\n        /* \"#utility.yul\":6146:6162   */\n      and\n        /* \"#utility.yul\":6143:6594   */\n      iszero\n      tag_303\n      jumpi\n        /* \"#utility.yul\":6575:6579   */\n      dup1\n        /* \"#utility.yul\":6568:6573   */\n      dup3\n        /* \"#utility.yul\":6564:6580   */\n      mul\n        /* \"#utility.yul\":6555:6580   */\n      swap2\n      pop\n        /* \"#utility.yul\":6143:6594   */\n    tag_303:\n        /* \"#utility.yul\":6625:6629   */\n      dup1\n        /* \"#utility.yul\":6619:6623   */\n      dup2\n        /* \"#utility.yul\":6615:6630   */\n      mul\n        /* \"#utility.yul\":6607:6630   */\n      swap1\n      pop\n        /* \"#utility.yul\":6655:6687   */\n      tag_304\n        /* \"#utility.yul\":6678:6686   */\n      dup6\n        /* \"#utility.yul\":6655:6687   */\n      tag_205\n      jump\t// in\n    tag_304:\n        /* \"#utility.yul\":6643:6687   */\n      swap5\n      pop\n        /* \"#utility.yul\":5985:6697   */\n      jump(tag_298)\n    tag_300:\n        /* \"#utility.yul\":5855:6703   */\n      swap5\n      pop\n      swap5\n      swap3\n      pop\n      pop\n      pop\n      jump\t// out\n        /* \"#utility.yul\":6709:7782   */\n    tag_207:\n        /* \"#utility.yul\":6763:6768   */\n      0x00\n        /* \"#utility.yul\":6954:6962   */\n      dup3\n        /* \"#utility.yul\":6944:6984   */\n      tag_306\n      jumpi\n        /* \"#utility.yul\":6975:6976   */\n      0x01\n        /* \"#utility.yul\":6966:6976   */\n      swap1\n      pop\n        /* \"#utility.yul\":6977:6982   */\n      jump(tag_305)\n        /* \"#utility.yul\":6944:6984   */\n    tag_306:\n        /* \"#utility.yul\":7003:7007   */\n      dup2\n        /* \"#utility.yul\":6993:7029   */\n      tag_307\n      jumpi\n        /* \"#utility.yul\":7020:7021   */\n      0x00\n        /* \"#utility.yul\":7011:7021   */\n      swap1\n      pop\n        /* \"#utility.yul\":7022:7027   */\n      jump(tag_305)\n        /* \"#utility.yul\":6993:7029   */\n    tag_307:\n        /* \"#utility.yul\":7089:7093   */\n      dup2\n        /* \"#utility.yul\":7137:7138   */\n      0x01\n        /* \"#utility.yul\":7132:7159   */\n      dup2\n      eq\n      tag_309\n      jumpi\n        /* \"#utility.yul\":7173:7174   */\n      0x02\n        /* \"#utility.yul\":7168:7359   */\n      dup2\n      eq\n      tag_310\n      jumpi\n        /* \"#utility.yul\":7082:7359   */\n      jump(tag_308)\n        /* \"#utility.yul\":7132:7159   */\n    tag_309:\n        /* \"#utility.yul\":7150:7151   */\n      0x01\n        /* \"#utility.yul\":7141:7151   */\n      swap2\n      pop\n        /* \"#utility.yul\":7152:7157   */\n      pop\n      jump(tag_305)\n        /* \"#utility.yul\":7168:7359   */\n    tag_310:\n        /* \"#utility.yul\":7213:7216   */\n      0xff\n        /* \"#utility.yul\":7203:7211   */\n      dup5\n        /* \"#utility.yul\":7200:7217   */\n      gt\n        /* \"#utility.yul\":7197:7240   */\n      iszero\n      tag_311\n      jumpi\n        /* \"#utility.yul\":7220:7238   */\n      tag_312\n      tag_204\n      jump\t// in\n    tag_312:\n        /* \"#utility.yul\":7197:7240   */\n    tag_311:\n        /* \"#utility.yul\":7269:7277   */\n      dup4\n        /* \"#utility.yul\":7266:7267   */\n      0x02\n        /* \"#utility.yul\":7262:7278   */\n      exp\n        /* \"#utility.yul\":7253:7278   */\n      swap2\n      pop\n        /* \"#utility.yul\":7304:7307   */\n      dup5\n        /* \"#utility.yul\":7297:7302   */\n      dup3\n        /* \"#utility.yul\":7294:7308   */\n      gt\n        /* \"#utility.yul\":7291:7331   */\n      iszero\n      tag_313\n      jumpi\n        /* \"#utility.yul\":7311:7329   */\n      tag_314\n      tag_204\n      jump\t// in\n    tag_314:\n        /* \"#utility.yul\":7291:7331   */\n    tag_313:\n        /* \"#utility.yul\":7344:7349   */\n      pop\n      jump(tag_305)\n        /* \"#utility.yul\":7082:7359   */\n    tag_308:\n      pop\n        /* \"#utility.yul\":7468:7470   */\n      0x20\n        /* \"#utility.yul\":7458:7466   */\n      dup4\n        /* \"#utility.yul\":7455:7471   */\n      lt\n        /* \"#utility.yul\":7449:7452   */\n      0x0133\n        /* \"#utility.yul\":7443:7447   */\n      dup4\n        /* \"#utility.yul\":7440:7453   */\n      lt\n        /* \"#utility.yul\":7436:7472   */\n      and\n        /* \"#utility.yul\":7418:7420   */\n      0x4e\n        /* \"#utility.yul\":7408:7416   */\n      dup5\n        /* \"#utility.yul\":7405:7421   */\n      lt\n        /* \"#utility.yul\":7400:7402   */\n      0x0b\n        /* \"#utility.yul\":7394:7398   */\n      dup5\n        /* \"#utility.yul\":7391:7403   */\n      lt\n        /* \"#utility.yul\":7387:7422   */\n      and\n        /* \"#utility.yul\":7371:7482   */\n      or\n        /* \"#utility.yul\":7368:7614   */\n      iszero\n      tag_315\n      jumpi\n        /* \"#utility.yul\":7524:7532   */\n      dup3\n        /* \"#utility.yul\":7518:7522   */\n      dup3\n        /* \"#utility.yul\":7514:7533   */\n      exp\n        /* \"#utility.yul\":7505:7533   */\n      swap1\n      pop\n        /* \"#utility.yul\":7559:7562   */\n      dup4\n        /* \"#utility.yul\":7552:7557   */\n      dup2\n        /* \"#utility.yul\":7549:7563   */\n      gt\n        /* \"#utility.yul\":7546:7586   */\n      iszero\n      tag_316\n      jumpi\n        /* \"#utility.yul\":7566:7584   */\n      tag_317\n      tag_204\n      jump\t// in\n    tag_317:\n        /* \"#utility.yul\":7546:7586   */\n    tag_316:\n        /* \"#utility.yul\":7599:7604   */\n      jump(tag_305)\n        /* \"#utility.yul\":7368:7614   */\n    tag_315:\n        /* \"#utility.yul\":7639:7681   */\n      tag_318\n        /* \"#utility.yul\":7677:7680   */\n      dup5\n        /* \"#utility.yul\":7667:7675   */\n      dup5\n        /* \"#utility.yul\":7661:7665   */\n      dup5\n        /* \"#utility.yul\":7658:7659   */\n      0x01\n        /* \"#utility.yul\":7639:7681   */\n      tag_206\n      jump\t// in\n    tag_318:\n        /* \"#utility.yul\":7624:7681   */\n      swap3\n      pop\n      swap1\n      pop\n        /* \"#utility.yul\":7713:7717   */\n      dup2\n        /* \"#utility.yul\":7708:7711   */\n      dup5\n        /* \"#utility.yul\":7704:7718   */\n      div\n        /* \"#utility.yul\":7697:7702   */\n      dup2\n        /* \"#utility.yul\":7694:7719   */\n      gt\n        /* \"#utility.yul\":7691:7742   */\n      iszero\n      tag_319\n      jumpi\n        /* \"#utility.yul\":7722:7740   */\n      tag_320\n      tag_204\n      jump\t// in\n    tag_320:\n        /* \"#utility.yul\":7691:7742   */\n    tag_319:\n        /* \"#utility.yul\":7771:7775   */\n      dup2\n        /* \"#utility.yul\":7764:7769   */\n      dup2\n        /* \"#utility.yul\":7760:7776   */\n      mul\n        /* \"#utility.yul\":7751:7776   */\n      swap1\n      pop\n        /* \"#utility.yul\":6709:7782   */\n    tag_305:\n      swap4\n      swap3\n      pop\n      pop\n      pop\n      jump\t// out\n        /* \"#utility.yul\":7788:8069   */\n    tag_80:\n        /* \"#utility.yul\":7846:7851   */\n      0x00\n        /* \"#utility.yul\":7870:7893   */\n      tag_322\n        /* \"#utility.yul\":7888:7892   */\n      dup3\n        /* \"#utility.yul\":7870:7893   */\n      tag_196\n      jump\t// in\n    tag_322:\n        /* \"#utility.yul\":7862:7893   */\n      swap2\n      pop\n        /* \"#utility.yul\":7914:7939   */\n      tag_323\n        /* \"#utility.yul\":7930:7938   */\n      dup4\n        /* \"#utility.yul\":7914:7939   */\n      tag_202\n      jump\t// in\n    tag_323:\n        /* \"#utility.yul\":7902:7939   */\n      swap3\n      pop\n        /* \"#utility.yul\":7958:8062   */\n      tag_324\n        /* \"#utility.yul\":7995:8061   */\n      0xffffffffffffffffffffffffffffffffffffffffffffffffffffffffffffffff\n        /* \"#utility.yul\":7985:7993   */\n      dup5\n        /* \"#utility.yul\":7979:7983   */\n      dup5\n        /* \"#utility.yul\":7958:8062   */\n      tag_207\n      jump\t// in\n    tag_324:\n        /* \"#utility.yul\":7949:8062   */\n      swap1\n      pop\n        /* \"#utility.yul\":7788:8069   */\n      swap3\n      swap2\n      pop\n      pop\n      jump\t// out\n        /* \"#utility.yul\":8075:8485   */\n    tag_82:\n        /* \"#utility.yul\":8115:8122   */\n      0x00\n        /* \"#utility.yul\":8138:8158   */\n      tag_326\n        /* \"#utility.yul\":8156:8157   */\n      dup3\n        /* \"#utility.yul\":8138:8158   */\n      tag_196\n      jump\t// in\n    tag_326:\n        /* \"#utility.yul\":8133:8158   */\n      swap2\n      pop\n        /* \"#utility.yul\":8172:8192   */\n      tag_327\n        /* \"#utility.yul\":8190:8191   */\n      dup4\n        /* \"#utility.yul\":8172:8192   */\n      tag_196\n      jump\t// in\n    tag_327:\n        /* \"#utility.yul\":8167:8192   */\n      swap3\n      pop\n        /* \"#utility.yul\":8227:8228   */\n      dup3\n        /* \"#utility.yul\":8224:8225   */\n      dup3\n        /* \"#utility.yul\":8220:8229   */\n      mul\n        /* \"#utility.yul\":8249:8279   */\n      tag_328\n        /* \"#utility.yul\":8267:8278   */\n      dup2\n        /* \"#utility.yul\":8249:8279   */\n      tag_196\n      jump\t// in\n    tag_328:\n        /* \"#utility.yul\":8238:8279   */\n      swap2\n      pop\n        /* \"#utility.yul\":8428:8429   */\n      dup3\n        /* \"#utility.yul\":8419:8426   */\n      dup3\n        /* \"#utility.yul\":8415:8430   */\n      div\n        /* \"#utility.yul\":8412:8413   */\n      dup5\n        /* \"#utility.yul\":8409:8431   */\n      eq\n        /* \"#utility.yul\":8389:8390   */\n      dup4\n        /* \"#utility.yul\":8382:8391   */\n      iszero\n        /* \"#utility.yul\":8362:8445   */\n      or\n        /* \"#utility.yul\":8339:8478   */\n      tag_329\n      jumpi\n        /* \"#utility.yul\":8458:8476   */\n      tag_330\n      tag_204\n      jump\t// in\n    tag_330:\n        /* \"#utility.yul\":8339:8478   */\n    tag_329:\n        /* \"#utility.yul\":8123:8485   */\n      pop\n        /* \"#utility.yul\":8075:8485   */\n      swap3\n      swap2\n      pop\n      pop\n      jump\t// out\n        /* \"#utility.yul\":8491:8717   */\n    tag_208:\n        /* \"#utility.yul\":8631:8665   */\n      0x43616e6e6f7420617070726f766520616d6f756e7420746f2061207a65726f20\n        /* \"#utility.yul\":8627:8628   */\n      0x00\n        /* \"#utility.yul\":8619:8625   */\n      dup3\n        /* \"#utility.yul\":8615:8629   */\n      add\n        /* \"#utility.yul\":8608:8666   */\n      mstore\n        /* \"#utility.yul\":8700:8709   */\n      0x6164647265737300000000000000000000000000000000000000000000000000\n        /* \"#utility.yul\":8695:8697   */\n      0x20\n        /* \"#utility.yul\":8687:8693   */\n      dup3\n        /* \"#utility.yul\":8683:8698   */\n      add\n        /* \"#utility.yul\":8676:8710   */\n      mstore\n        /* \"#utility.yul\":8491:8717   */\n      pop\n      jump\t// out\n        /* \"#utility.yul\":8723:9089   */\n    tag_209:\n        /* \"#utility.yul\":8865:8868   */\n      0x00\n        /* \"#utility.yul\":8886:8953   */\n      tag_333\n        /* \"#utility.yul\":8950:8952   */\n      0x27\n        /* \"#utility.yul\":8945:8948   */\n      dup4\n        /* \"#utility.yul\":8886:8953   */\n      tag_185\n      jump\t// in\n    tag_333:\n        /* \"#utility.yul\":8879:8953   */\n      swap2\n      pop\n        /* \"#utility.yul\":8962:9055   */\n      tag_334\n        /* \"#utility.yul\":9051:9054   */\n      dup3\n        /* \"#utility.yul\":8962:9055   */\n      tag_208\n      jump\t// in\n    tag_334:\n        /* \"#utility.yul\":9080:9082   */\n      0x40\n        /* \"#utility.yul\":9075:9078   */\n      dup3\n        /* \"#utility.yul\":9071:9083   */\n      add\n        /* \"#utility.yul\":9064:9083   */\n      swap1\n      pop\n        /* \"#utility.yul\":8723:9089   */\n      swap2\n      swap1\n      pop\n      jump\t// out\n        /* \"#utility.yul\":9095:9514   */\n    tag_85:\n        /* \"#utility.yul\":9261:9265   */\n      0x00\n        /* \"#utility.yul\":9299:9301   */\n      0x20\n        /* \"#utility.yul\":9288:9297   */\n      dup3\n        /* \"#utility.yul\":9284:9302   */\n      add\n        /* \"#utility.yul\":9276:9302   */\n      swap1\n      pop\n        /* \"#utility.yul\":9348:9357   */\n      dup2\n        /* \"#utility.yul\":9342:9346   */\n      dup2\n        /* \"#utility.yul\":9338:9358   */\n      sub\n        /* \"#utility.yul\":9334:9335   */\n      0x00\n        /* \"#utility.yul\":9323:9332   */\n      dup4\n        /* \"#utility.yul\":9319:9336   */\n      add\n        /* \"#utility.yul\":9312:9359   */\n      mstore\n        /* \"#utility.yul\":9376:9507   */\n      tag_336\n        /* \"#utility.yul\":9502:9506   */\n      dup2\n        /* \"#utility.yul\":9376:9507   */\n      tag_209\n      jump\t// in\n    tag_336:\n        /* \"#utility.yul\":9368:9507   */\n      swap1\n      pop\n        /* \"#utility.yul\":9095:9514   */\n      swap2\n      swap1\n      pop\n      jump\t// out\n        /* \"#utility.yul\":9520:9711   */\n    tag_91:\n        /* \"#utility.yul\":9560:9563   */\n      0x00\n        /* \"#utility.yul\":9579:9599   */\n      tag_338\n        /* \"#utility.yul\":9597:9598   */\n      dup3\n        /* \"#utility.yul\":9579:9599   */\n      tag_196\n      jump\t// in\n    tag_338:\n        /* \"#utility.yul\":9574:9599   */\n      swap2\n      pop\n        /* \"#utility.yul\":9613:9633   */\n      tag_339\n        /* \"#utility.yul\":9631:9632   */\n      dup4\n        /* \"#utility.yul\":9613:9633   */\n      tag_196\n      jump\t// in\n    tag_339:\n        /* \"#utility.yul\":9608:9633   */\n      swap3\n      pop\n        /* \"#utility.yul\":9656:9657   */\n      dup3\n        /* \"#utility.yul\":9653:9654   */\n      dup3\n        /* \"#utility.yul\":9649:9658   */\n      add\n        /* \"#utility.yul\":9642:9658   */\n      swap1\n      pop\n        /* \"#utility.yul\":9677:9680   */\n      dup1\n        /* \"#utility.yul\":9674:9675   */\n      dup3\n        /* \"#utility.yul\":9671:9681   */\n      gt\n        /* \"#utility.yul\":9668:9704   */\n      iszero\n      tag_340\n      jumpi\n        /* \"#utility.yul\":9684:9702   */\n      tag_341\n      tag_204\n      jump\t// in\n    tag_341:\n        /* \"#utility.yul\":9668:9704   */\n    tag_340:\n        /* \"#utility.yul\":9520:9711   */\n      swap3\n      swap2\n      pop\n      pop\n      jump\t// out\n        /* \"#utility.yul\":9717:9886   */\n    tag_210:\n        /* \"#utility.yul\":9857:9878   */\n      0x4e6f206d6f726520746f74616c537570706c7900000000000000000000000000\n        /* \"#utility.yul\":9853:9854   */\n      0x00\n        /* \"#utility.yul\":9845:9851   */\n      dup3\n        /* \"#utility.yul\":9841:9855   */\n      add\n        /* \"#utility.yul\":9834:9879   */\n      mstore\n        /* \"#utility.yul\":9717:9886   */\n      pop\n      jump\t// out\n        /* \"#utility.yul\":9892:10258   */\n    tag_211:\n        /* \"#utility.yul\":10034:10037   */\n      0x00\n        /* \"#utility.yul\":10055:10122   */\n      tag_344\n        /* \"#utility.yul\":10119:10121   */\n      0x13\n        /* \"#utility.yul\":10114:10117   */\n      dup4\n        /* \"#utility.yul\":10055:10122   */\n      tag_185\n      jump\t// in\n    tag_344:\n        /* \"#utility.yul\":10048:10122   */\n      swap2\n      pop\n        /* \"#utility.yul\":10131:10224   */\n      tag_345\n        /* \"#utility.yul\":10220:10223   */\n      dup3\n        /* \"#utility.yul\":10131:10224   */\n      tag_210\n      jump\t// in\n    tag_345:\n        /* \"#utility.yul\":10249:10251   */\n      0x20\n        /* \"#utility.yul\":10244:10247   */\n      dup3\n        /* \"#utility.yul\":10240:10252   */\n      add\n        /* \"#utility.yul\":10233:10252   */\n      swap1\n      pop\n        /* \"#utility.yul\":9892:10258   */\n      swap2\n      swap1\n      pop\n      jump\t// out\n        /* \"#utility.yul\":10264:10683   */\n    tag_94:\n        /* \"#utility.yul\":10430:10434   */\n      0x00\n        /* \"#utility.yul\":10468:10470   */\n      0x20\n        /* \"#utility.yul\":10457:10466   */\n      dup3\n        /* \"#utility.yul\":10453:10471   */\n      add\n        /* \"#utility.yul\":10445:10471   */\n      swap1\n      pop\n        /* \"#utility.yul\":10517:10526   */\n      dup2\n        /* \"#utility.yul\":10511:10515   */\n      dup2\n        /* \"#utility.yul\":10507:10527   */\n      sub\n        /* \"#utility.yul\":10503:10504   */\n      0x00\n        /* \"#utility.yul\":10492:10501   */\n      dup4\n        /* \"#utility.yul\":10488:10505   */\n      add\n        /* \"#utility.yul\":10481:10528   */\n      mstore\n        /* \"#utility.yul\":10545:10676   */\n      tag_347\n        /* \"#utility.yul\":10671:10675   */\n      dup2\n        /* \"#utility.yul\":10545:10676   */\n      tag_211\n      jump\t// in\n    tag_347:\n        /* \"#utility.yul\":10537:10676   */\n      swap1\n      pop\n        /* \"#utility.yul\":10264:10683   */\n      swap2\n      swap1\n      pop\n      jump\t// out\n        /* \"#utility.yul\":10689:10860   */\n    tag_212:\n        /* \"#utility.yul\":10829:10852   */\n      0x4d6178696d756d206c696d697420726561636865640000000000000000000000\n        /* \"#utility.yul\":10825:10826   */\n      0x00\n        /* \"#utility.yul\":10817:10823   */\n      dup3\n        /* \"#utility.yul\":10813:10827   */\n      add\n        /* \"#utility.yul\":10806:10853   */\n      mstore\n        /* \"#utility.yul\":10689:10860   */\n      pop\n      jump\t// out\n        /* \"#utility.yul\":10866:11232   */\n    tag_213:\n        /* \"#utility.yul\":11008:11011   */\n      0x00\n        /* \"#utility.yul\":11029:11096   */\n      tag_350\n        /* \"#utility.yul\":11093:11095   */\n      0x15\n        /* \"#utility.yul\":11088:11091   */\n      dup4\n        /* \"#utility.yul\":11029:11096   */\n      tag_185\n      jump\t// in\n    tag_350:\n        /* \"#utility.yul\":11022:11096   */\n      swap2\n      pop\n        /* \"#utility.yul\":11105:11198   */\n      tag_351\n        /* \"#utility.yul\":11194:11197   */\n      dup3\n        /* \"#utility.yul\":11105:11198   */\n      tag_212\n      jump\t// in\n    tag_351:\n        /* \"#utility.yul\":11223:11225   */\n      0x20\n        /* \"#utility.yul\":11218:11221   */\n      dup3\n        /* \"#utility.yul\":11214:11226   */\n      add\n        /* \"#utility.yul\":11207:11226   */\n      swap1\n      pop\n        /* \"#utility.yul\":10866:11232   */\n      swap2\n      swap1\n      pop\n      jump\t// out\n        /* \"#utility.yul\":11238:11657   */\n    tag_102:\n        /* \"#utility.yul\":11404:11408   */\n      0x00\n        /* \"#utility.yul\":11442:11444   */\n      0x20\n        /* \"#utility.yul\":11431:11440   */\n      dup3\n        /* \"#utility.yul\":11427:11445   */\n      add\n        /* \"#utility.yul\":11419:11445   */\n      swap1\n      pop\n        /* \"#utility.yul\":11491:11500   */\n      dup2\n        /* \"#utility.yul\":11485:11489   */\n      dup2\n        /* \"#utility.yul\":11481:11501   */\n      sub\n        /* \"#utility.yul\":11477:11478   */\n      0x00\n        /* \"#utility.yul\":11466:11475   */\n      dup4\n        /* \"#utility.yul\":11462:11479   */\n      add\n        /* \"#utility.yul\":11455:11502   */\n      mstore\n        /* \"#utility.yul\":11519:11650   */\n      tag_353\n        /* \"#utility.yul\":11645:11649   */\n      dup2\n        /* \"#utility.yul\":11519:11650   */\n      tag_213\n      jump\t// in\n    tag_353:\n        /* \"#utility.yul\":11511:11650   */\n      swap1\n      pop\n        /* \"#utility.yul\":11238:11657   */\n      swap2\n      swap1\n      pop\n      jump\t// out\n        /* \"#utility.yul\":11663:11897   */\n    tag_214:\n        /* \"#utility.yul\":11803:11837   */\n      0x43616e6e6f7420696e63726561736520616c6c6f77616e636520746f20616464\n        /* \"#utility.yul\":11799:11800   */\n      0x00\n        /* \"#utility.yul\":11791:11797   */\n      dup3\n        /* \"#utility.yul\":11787:11801   */\n      add\n        /* \"#utility.yul\":11780:11838   */\n      mstore\n        /* \"#utility.yul\":11872:11889   */\n      0x726573732076616c7565205a65726f0000000000000000000000000000000000\n        /* \"#utility.yul\":11867:11869   */\n      0x20\n        /* \"#utility.yul\":11859:11865   */\n      dup3\n        /* \"#utility.yul\":11855:11870   */\n      add\n        /* \"#utility.yul\":11848:11890   */\n      mstore\n        /* \"#utility.yul\":11663:11897   */\n      pop\n      jump\t// out\n        /* \"#utility.yul\":11903:12269   */\n    tag_215:\n        /* \"#utility.yul\":12045:12048   */\n      0x00\n        /* \"#utility.yul\":12066:12133   */\n      tag_356\n        /* \"#utility.yul\":12130:12132   */\n      0x2f\n        /* \"#utility.yul\":12125:12128   */\n      dup4\n        /* \"#utility.yul\":12066:12133   */\n      tag_185\n      jump\t// in\n    tag_356:\n        /* \"#utility.yul\":12059:12133   */\n      swap2\n      pop\n        /* \"#utility.yul\":12142:12235   */\n      tag_357\n        /* \"#utility.yul\":12231:12234   */\n      dup3\n        /* \"#utility.yul\":12142:12235   */\n      tag_214\n      jump\t// in\n    tag_357:\n        /* \"#utility.yul\":12260:12262   */\n      0x40\n        /* \"#utility.yul\":12255:12258   */\n      dup3\n        /* \"#utility.yul\":12251:12263   */\n      add\n        /* \"#utility.yul\":12244:12263   */\n      swap1\n      pop\n        /* \"#utility.yul\":11903:12269   */\n      swap2\n      swap1\n      pop\n      jump\t// out\n        /* \"#utility.yul\":12275:12694   */\n    tag_123:\n        /* \"#utility.yul\":12441:12445   */\n      0x00\n        /* \"#utility.yul\":12479:12481   */\n      0x20\n        /* \"#utility.yul\":12468:12477   */\n      dup3\n        /* \"#utility.yul\":12464:12482   */\n      add\n        /* \"#utility.yul\":12456:12482   */\n      swap1\n      pop\n        /* \"#utility.yul\":12528:12537   */\n      dup2\n        /* \"#utility.yul\":12522:12526   */\n      dup2\n        /* \"#utility.yul\":12518:12538   */\n      sub\n        /* \"#utility.yul\":12514:12515   */\n      0x00\n        /* \"#utility.yul\":12503:12512   */\n      dup4\n        /* \"#utility.yul\":12499:12516   */\n      add\n        /* \"#utility.yul\":12492:12539   */\n      mstore\n        /* \"#utility.yul\":12556:12687   */\n      tag_359\n        /* \"#utility.yul\":12682:12686   */\n      dup2\n        /* \"#utility.yul\":12556:12687   */\n      tag_215\n      jump\t// in\n    tag_359:\n        /* \"#utility.yul\":12548:12687   */\n      swap1\n      pop\n        /* \"#utility.yul\":12275:12694   */\n      swap2\n      swap1\n      pop\n      jump\t// out\n        /* \"#utility.yul\":12700:12869   */\n    tag_216:\n        /* \"#utility.yul\":12840:12861   */\n      0x6f6e6c79206f776e65722063616e2063616c6c00000000000000000000000000\n        /* \"#utility.yul\":12836:12837   */\n      0x00\n        /* \"#utility.yul\":12828:12834   */\n      dup3\n        /* \"#utility.yul\":12824:12838   */\n      add\n        /* \"#utility.yul\":12817:12862   */\n      mstore\n        /* \"#utility.yul\":12700:12869   */\n      pop\n      jump\t// out\n        /* \"#utility.yul\":12875:13241   */\n    tag_217:\n        /* \"#utility.yul\":13017:13020   */\n      0x00\n        /* \"#utility.yul\":13038:13105   */\n      tag_362\n        /* \"#utility.yul\":13102:13104   */\n      0x13\n        /* \"#utility.yul\":13097:13100   */\n      dup4\n        /* \"#utility.yul\":13038:13105   */\n      tag_185\n      jump\t// in\n    tag_362:\n        /* \"#utility.yul\":13031:13105   */\n      swap2\n      pop\n        /* \"#utility.yul\":13114:13207   */\n      tag_363\n        /* \"#utility.yul\":13203:13206   */\n      dup3\n        /* \"#utility.yul\":13114:13207   */\n      tag_216\n      jump\t// in\n    tag_363:\n        /* \"#utility.yul\":13232:13234   */\n      0x20\n        /* \"#utility.yul\":13227:13230   */\n      dup3\n        /* \"#utility.yul\":13223:13235   */\n      add\n        /* \"#utility.yul\":13216:13235   */\n      swap1\n      pop\n        /* \"#utility.yul\":12875:13241   */\n      swap2\n      swap1\n      pop\n      jump\t// out\n        /* \"#utility.yul\":13247:13666   */\n    tag_131:\n        /* \"#utility.yul\":13413:13417   */\n      0x00\n        /* \"#utility.yul\":13451:13453   */\n      0x20\n        /* \"#utility.yul\":13440:13449   */\n      dup3\n        /* \"#utility.yul\":13436:13454   */\n      add\n        /* \"#utility.yul\":13428:13454   */\n      swap1\n      pop\n        /* \"#utility.yul\":13500:13509   */\n      dup2\n        /* \"#utility.yul\":13494:13498   */\n      dup2\n        /* \"#utility.yul\":13490:13510   */\n      sub\n        /* \"#utility.yul\":13486:13487   */\n      0x00\n        /* \"#utility.yul\":13475:13484   */\n      dup4\n        /* \"#utility.yul\":13471:13488   */\n      add\n        /* \"#utility.yul\":13464:13511   */\n      mstore\n        /* \"#utility.yul\":13528:13659   */\n      tag_365\n        /* \"#utility.yul\":13654:13658   */\n      dup2\n        /* \"#utility.yul\":13528:13659   */\n      tag_217\n      jump\t// in\n    tag_365:\n        /* \"#utility.yul\":13520:13659   */\n      swap1\n      pop\n        /* \"#utility.yul\":13247:13666   */\n      swap2\n      swap1\n      pop\n      jump\t// out\n        /* \"#utility.yul\":13672:13866   */\n    tag_136:\n        /* \"#utility.yul\":13712:13716   */\n      0x00\n        /* \"#utility.yul\":13732:13752   */\n      tag_367\n        /* \"#utility.yul\":13750:13751   */\n      dup3\n        /* \"#utility.yul\":13732:13752   */\n      tag_196\n      jump\t// in\n    tag_367:\n        /* \"#utility.yul\":13727:13752   */\n      swap2\n      pop\n        /* \"#utility.yul\":13766:13786   */\n      tag_368\n        /* \"#utility.yul\":13784:13785   */\n      dup4\n        /* \"#utility.yul\":13766:13786   */\n      tag_196\n      jump\t// in\n    tag_368:\n        /* \"#utility.yul\":13761:13786   */\n      swap3\n      pop\n        /* \"#utility.yul\":13810:13811   */\n      dup3\n        /* \"#utility.yul\":13807:13808   */\n      dup3\n        /* \"#utility.yul\":13803:13812   */\n      sub\n        /* \"#utility.yul\":13795:13812   */\n      swap1\n      pop\n        /* \"#utility.yul\":13834:13835   */\n      dup2\n        /* \"#utility.yul\":13828:13832   */\n      dup2\n        /* \"#utility.yul\":13825:13836   */\n      gt\n        /* \"#utility.yul\":13822:13859   */\n      iszero\n      tag_369\n      jumpi\n        /* \"#utility.yul\":13839:13857   */\n      tag_370\n      tag_204\n      jump\t// in\n    tag_370:\n        /* \"#utility.yul\":13822:13859   */\n    tag_369:\n        /* \"#utility.yul\":13672:13866   */\n      swap3\n      swap2\n      pop\n      pop\n      jump\t// out\n        /* \"#utility.yul\":13872:14096   */\n    tag_218:\n        /* \"#utility.yul\":14012:14046   */\n      0x43616e6e6f74207472616e7366657220746f207a65726f2076616c7565206164\n        /* \"#utility.yul\":14008:14009   */\n      0x00\n        /* \"#utility.yul\":14000:14006   */\n      dup3\n        /* \"#utility.yul\":13996:14010   */\n      add\n        /* \"#utility.yul\":13989:14047   */\n      mstore\n        /* \"#utility.yul\":14081:14088   */\n      0x6472657373000000000000000000000000000000000000000000000000000000\n        /* \"#utility.yul\":14076:14078   */\n      0x20\n        /* \"#utility.yul\":14068:14074   */\n      dup3\n        /* \"#utility.yul\":14064:14079   */\n      add\n        /* \"#utility.yul\":14057:14089   */\n      mstore\n        /* \"#utility.yul\":13872:14096   */\n      pop\n      jump\t// out\n        /* \"#utility.yul\":14102:14468   */\n    tag_219:\n        /* \"#utility.yul\":14244:14247   */\n      0x00\n        /* \"#utility.yul\":14265:14332   */\n      tag_373\n        /* \"#utility.yul\":14329:14331   */\n      0x25\n        /* \"#utility.yul\":14324:14327   */\n      dup4\n        /* \"#utility.yul\":14265:14332   */\n      tag_185\n      jump\t// in\n    tag_373:\n        /* \"#utility.yul\":14258:14332   */\n      swap2\n      pop\n        /* \"#utility.yul\":14341:14434   */\n      tag_374\n        /* \"#utility.yul\":14430:14433   */\n      dup3\n        /* \"#utility.yul\":14341:14434   */\n      tag_218\n      jump\t// in\n    tag_374:\n        /* \"#utility.yul\":14459:14461   */\n      0x40\n        /* \"#utility.yul\":14454:14457   */\n      dup3\n        /* \"#utility.yul\":14450:14462   */\n      add\n        /* \"#utility.yul\":14443:14462   */\n      swap1\n      pop\n        /* \"#utility.yul\":14102:14468   */\n      swap2\n      swap1\n      pop\n      jump\t// out\n        /* \"#utility.yul\":14474:14893   */\n    tag_143:\n        /* \"#utility.yul\":14640:14644   */\n      0x00\n        /* \"#utility.yul\":14678:14680   */\n      0x20\n        /* \"#utility.yul\":14667:14676   */\n      dup3\n        /* \"#utility.yul\":14663:14681   */\n      add\n        /* \"#utility.yul\":14655:14681   */\n      swap1\n      pop\n        /* \"#utility.yul\":14727:14736   */\n      dup2\n        /* \"#utility.yul\":14721:14725   */\n      dup2\n        /* \"#utility.yul\":14717:14737   */\n      sub\n        /* \"#utility.yul\":14713:14714   */\n      0x00\n        /* \"#utility.yul\":14702:14711   */\n      dup4\n        /* \"#utility.yul\":14698:14715   */\n      add\n        /* \"#utility.yul\":14691:14738   */\n      mstore\n        /* \"#utility.yul\":14755:14886   */\n      tag_376\n        /* \"#utility.yul\":14881:14885   */\n      dup2\n        /* \"#utility.yul\":14755:14886   */\n      tag_219\n      jump\t// in\n    tag_376:\n        /* \"#utility.yul\":14747:14886   */\n      swap1\n      pop\n        /* \"#utility.yul\":14474:14893   */\n      swap2\n      swap1\n      pop\n      jump\t// out\n        /* \"#utility.yul\":14899:15069   */\n    tag_220:\n        /* \"#utility.yul\":15039:15061   */\n      0x496e73756666696369656e742062616c616e6365000000000000000000000000\n        /* \"#utility.yul\":15035:15036   */\n      0x00\n        /* \"#utility.yul\":15027:15033   */\n      dup3\n        /* \"#utility.yul\":15023:15037   */\n      add\n        /* \"#utility.yul\":15016:15062   */\n      mstore\n        /* \"#utility.yul\":14899:15069   */\n      pop\n      jump\t// out\n        /* \"#utility.yul\":15075:15441   */\n    tag_221:\n        /* \"#utility.yul\":15217:15220   */\n      0x00\n        /* \"#utility.yul\":15238:15305   */\n      tag_379\n        /* \"#utility.yul\":15302:15304   */\n      0x14\n        /* \"#utility.yul\":15297:15300   */\n      dup4\n        /* \"#utility.yul\":15238:15305   */\n      tag_185\n      jump\t// in\n    tag_379:\n        /* \"#utility.yul\":15231:15305   */\n      swap2\n      pop\n        /* \"#utility.yul\":15314:15407   */\n      tag_380\n        /* \"#utility.yul\":15403:15406   */\n      dup3\n        /* \"#utility.yul\":15314:15407   */\n      tag_220\n      jump\t// in\n    tag_380:\n        /* \"#utility.yul\":15432:15434   */\n      0x20\n        /* \"#utility.yul\":15427:15430   */\n      dup3\n        /* \"#utility.yul\":15423:15435   */\n      add\n        /* \"#utility.yul\":15416:15435   */\n      swap1\n      pop\n        /* \"#utility.yul\":15075:15441   */\n      swap2\n      swap1\n      pop\n      jump\t// out\n        /* \"#utility.yul\":15447:15866   */\n    tag_146:\n        /* \"#utility.yul\":15613:15617   */\n      0x00\n        /* \"#utility.yul\":15651:15653   */\n      0x20\n        /* \"#utility.yul\":15640:15649   */\n      dup3\n        /* \"#utility.yul\":15636:15654   */\n      add\n        /* \"#utility.yul\":15628:15654   */\n      swap1\n      pop\n        /* \"#utility.yul\":15700:15709   */\n      dup2\n        /* \"#utility.yul\":15694:15698   */\n      dup2\n        /* \"#utility.yul\":15690:15710   */\n      sub\n        /* \"#utility.yul\":15686:15687   */\n      0x00\n        /* \"#utility.yul\":15675:15684   */\n      dup4\n        /* \"#utility.yul\":15671:15688   */\n      add\n        /* \"#utility.yul\":15664:15711   */\n      mstore\n        /* \"#utility.yul\":15728:15859   */\n      tag_382\n        /* \"#utility.yul\":15854:15858   */\n      dup2\n        /* \"#utility.yul\":15728:15859   */\n      tag_221\n      jump\t// in\n    tag_382:\n        /* \"#utility.yul\":15720:15859   */\n      swap1\n      pop\n        /* \"#utility.yul\":15447:15866   */\n      swap2\n      swap1\n      pop\n      jump\t// out\n        /* \"#utility.yul\":15872:16040   */\n    tag_222:\n        /* \"#utility.yul\":16012:16032   */\n      0x616c6c6f77616e63652065786365656465640000000000000000000000000000\n        /* \"#utility.yul\":16008:16009   */\n      0x00\n        /* \"#utility.yul\":16000:16006   */\n      dup3\n        /* \"#utility.yul\":15996:16010   */\n      add\n        /* \"#utility.yul\":15989:16033   */\n      mstore\n        /* \"#utility.yul\":15872:16040   */\n      pop\n      jump\t// out\n        /* \"#utility.yul\":16046:16412   */\n    tag_223:\n        /* \"#utility.yul\":16188:16191   */\n      0x00\n        /* \"#utility.yul\":16209:16276   */\n      tag_385\n        /* \"#utility.yul\":16273:16275   */\n      0x12\n        /* \"#utility.yul\":16268:16271   */\n      dup4\n        /* \"#utility.yul\":16209:16276   */\n      tag_185\n      jump\t// in\n    tag_385:\n        /* \"#utility.yul\":16202:16276   */\n      swap2\n      pop\n        /* \"#utility.yul\":16285:16378   */\n      tag_386\n        /* \"#utility.yul\":16374:16377   */\n      dup3\n        /* \"#utility.yul\":16285:16378   */\n      tag_222\n      jump\t// in\n    tag_386:\n        /* \"#utility.yul\":16403:16405   */\n      0x20\n        /* \"#utility.yul\":16398:16401   */\n      dup3\n        /* \"#utility.yul\":16394:16406   */\n      add\n        /* \"#utility.yul\":16387:16406   */\n      swap1\n      pop\n        /* \"#utility.yul\":16046:16412   */\n      swap2\n      swap1\n      pop\n      jump\t// out\n        /* \"#utility.yul\":16418:16837   */\n    tag_149:\n        /* \"#utility.yul\":16584:16588   */\n      0x00\n        /* \"#utility.yul\":16622:16624   */\n      0x20\n        /* \"#utility.yul\":16611:16620   */\n      dup3\n        /* \"#utility.yul\":16607:16625   */\n      add\n        /* \"#utility.yul\":16599:16625   */\n      swap1\n      pop\n        /* \"#utility.yul\":16671:16680   */\n      dup2\n        /* \"#utility.yul\":16665:16669   */\n      dup2\n        /* \"#utility.yul\":16661:16681   */\n      sub\n        /* \"#utility.yul\":16657:16658   */\n      0x00\n        /* \"#utility.yul\":16646:16655   */\n      dup4\n        /* \"#utility.yul\":16642:16659   */\n      add\n        /* \"#utility.yul\":16635:16682   */\n      mstore\n        /* \"#utility.yul\":16699:16830   */\n      tag_388\n        /* \"#utility.yul\":16825:16829   */\n      dup2\n        /* \"#utility.yul\":16699:16830   */\n      tag_223\n      jump\t// in\n    tag_388:\n        /* \"#utility.yul\":16691:16830   */\n      swap1\n      pop\n        /* \"#utility.yul\":16418:16837   */\n      swap2\n      swap1\n      pop\n      jump\t// out\n        /* \"#utility.yul\":16843:17077   */\n    tag_224:\n        /* \"#utility.yul\":16983:17017   */\n      0x63616e6e6f7420646563726561736520616c6c6f77616e636520746f20616464\n        /* \"#utility.yul\":16979:16980   */\n      0x00\n        /* \"#utility.yul\":16971:16977   */\n      dup3\n        /* \"#utility.yul\":16967:16981   */\n      add\n        /* \"#utility.yul\":16960:17018   */\n      mstore\n        /* \"#utility.yul\":17052:17069   */\n      0x726573732076616c7565205a65726f0000000000000000000000000000000000\n        /* \"#utility.yul\":17047:17049   */\n      0x20\n        /* \"#utility.yul\":17039:17045   */\n      dup3\n        /* \"#utility.yul\":17035:17050   */\n      add\n        /* \"#utility.yul\":17028:17070   */\n      mstore\n        /* \"#utility.yul\":16843:17077   */\n      pop\n      jump\t// out\n        /* \"#utility.yul\":17083:17449   */\n    tag_225:\n        /* \"#utility.yul\":17225:17228   */\n      0x00\n        /* \"#utility.yul\":17246:17313   */\n      tag_391\n        /* \"#utility.yul\":17310:17312   */\n      0x2f\n        /* \"#utility.yul\":17305:17308   */\n      dup4\n        /* \"#utility.yul\":17246:17313   */\n      tag_185\n      jump\t// in\n    tag_391:\n        /* \"#utility.yul\":17239:17313   */\n      swap2\n      pop\n        /* \"#utility.yul\":17322:17415   */\n      tag_392\n        /* \"#utility.yul\":17411:17414   */\n      dup3\n        /* \"#utility.yul\":17322:17415   */\n      tag_224\n      jump\t// in\n    tag_392:\n        /* \"#utility.yul\":17440:17442   */\n      0x40\n        /* \"#utility.yul\":17435:17438   */\n      dup3\n        /* \"#utility.yul\":17431:17443   */\n      add\n        /* \"#utility.yul\":17424:17443   */\n      swap1\n      pop\n        /* \"#utility.yul\":17083:17449   */\n      swap2\n      swap1\n      pop\n      jump\t// out\n        /* \"#utility.yul\":17455:17874   */\n    tag_161:\n        /* \"#utility.yul\":17621:17625   */\n      0x00\n        /* \"#utility.yul\":17659:17661   */\n      0x20\n        /* \"#utility.yul\":17648:17657   */\n      dup3\n        /* \"#utility.yul\":17644:17662   */\n      add\n        /* \"#utility.yul\":17636:17662   */\n      swap1\n      pop\n        /* \"#utility.yul\":17708:17717   */\n      dup2\n        /* \"#utility.yul\":17702:17706   */\n      dup2\n        /* \"#utility.yul\":17698:17718   */\n      sub\n        /* \"#utility.yul\":17694:17695   */\n      0x00\n        /* \"#utility.yul\":17683:17692   */\n      dup4\n        /* \"#utility.yul\":17679:17696   */\n      add\n        /* \"#utility.yul\":17672:17719   */\n      mstore\n        /* \"#utility.yul\":17736:17867   */\n      tag_394\n        /* \"#utility.yul\":17862:17866   */\n      dup2\n        /* \"#utility.yul\":17736:17867   */\n      tag_225\n      jump\t// in\n    tag_394:\n        /* \"#utility.yul\":17728:17867   */\n      swap1\n      pop\n        /* \"#utility.yul\":17455:17874   */\n      swap2\n      swap1\n      pop\n      jump\t// out\n        /* \"#utility.yul\":17880:18109   */\n    tag_226:\n        /* \"#utility.yul\":18020:18054   */\n      0x496e73756666696369656e7420616c6c6f77616e63652062616c616e63652074\n        /* \"#utility.yul\":18016:18017   */\n      0x00\n        /* \"#utility.yul\":18008:18014   */\n      dup3\n        /* \"#utility.yul\":18004:18018   */\n      add\n        /* \"#utility.yul\":17997:18055   */\n      mstore\n        /* \"#utility.yul\":18089:18101   */\n      0x6f20646563726561736500000000000000000000000000000000000000000000\n        /* \"#utility.yul\":18084:18086   */\n      0x20\n        /* \"#utility.yul\":18076:18082   */\n      dup3\n        /* \"#utility.yul\":18072:18087   */\n      add\n        /* \"#utility.yul\":18065:18102   */\n      mstore\n        /* \"#utility.yul\":17880:18109   */\n      pop\n      jump\t// out\n        /* \"#utility.yul\":18115:18481   */\n    tag_227:\n        /* \"#utility.yul\":18257:18260   */\n      0x00\n        /* \"#utility.yul\":18278:18345   */\n      tag_397\n        /* \"#utility.yul\":18342:18344   */\n      0x2a\n        /* \"#utility.yul\":18337:18340   */\n      dup4\n        /* \"#utility.yul\":18278:18345   */\n      tag_185\n      jump\t// in\n    tag_397:\n        /* \"#utility.yul\":18271:18345   */\n      swap2\n      pop\n        /* \"#utility.yul\":18354:18447   */\n      tag_398\n        /* \"#utility.yul\":18443:18446   */\n      dup3\n        /* \"#utility.yul\":18354:18447   */\n      tag_226\n      jump\t// in\n    tag_398:\n        /* \"#utility.yul\":18472:18474   */\n      0x40\n        /* \"#utility.yul\":18467:18470   */\n      dup3\n        /* \"#utility.yul\":18463:18475   */\n      add\n        /* \"#utility.yul\":18456:18475   */\n      swap1\n      pop\n        /* \"#utility.yul\":18115:18481   */\n      swap2\n      swap1\n      pop\n      jump\t// out\n        /* \"#utility.yul\":18487:18906   */\n    tag_166:\n        /* \"#utility.yul\":18653:18657   */\n      0x00\n        /* \"#utility.yul\":18691:18693   */\n      0x20\n        /* \"#utility.yul\":18680:18689   */\n      dup3\n        /* \"#utility.yul\":18676:18694   */\n      add\n        /* \"#utility.yul\":18668:18694   */\n      swap1\n      pop\n        /* \"#utility.yul\":18740:18749   */\n      dup2\n        /* \"#utility.yul\":18734:18738   */\n      dup2\n        /* \"#utility.yul\":18730:18750   */\n      sub\n        /* \"#utility.yul\":18726:18727   */\n      0x00\n        /* \"#utility.yul\":18715:18724   */\n      dup4\n        /* \"#utility.yul\":18711:18728   */\n      add\n        /* \"#utility.yul\":18704:18751   */\n      mstore\n        /* \"#utility.yul\":18768:18899   */\n      tag_400\n        /* \"#utility.yul\":18894:18898   */\n      dup2\n        /* \"#utility.yul\":18768:18899   */\n      tag_227\n      jump\t// in\n    tag_400:\n        /* \"#utility.yul\":18760:18899   */\n      swap1\n      pop\n        /* \"#utility.yul\":18487:18906   */\n      swap2\n      swap1\n      pop\n      jump\t// out\n        /* \"#utility.yul\":18912:19088   */\n    tag_228:\n        /* \"#utility.yul\":19052:19080   */\n      0x5472616e736665722076616c7565206d757374206265203e2030000000000000\n        /* \"#utility.yul\":19048:19049   */\n      0x00\n        /* \"#utility.yul\":19040:19046   */\n      dup3\n        /* \"#utility.yul\":19036:19050   */\n      add\n        /* \"#utility.yul\":19029:19081   */\n      mstore\n        /* \"#utility.yul\":18912:19088   */\n      pop\n      jump\t// out\n        /* \"#utility.yul\":19094:19460   */\n    tag_229:\n        /* \"#utility.yul\":19236:19239   */\n      0x00\n        /* \"#utility.yul\":19257:19324   */\n      tag_403\n        /* \"#utility.yul\":19321:19323   */\n      0x1a\n        /* \"#utility.yul\":19316:19319   */\n      dup4\n        /* \"#utility.yul\":19257:19324   */\n      tag_185\n      jump\t// in\n    tag_403:\n        /* \"#utility.yul\":19250:19324   */\n      swap2\n      pop\n        /* \"#utility.yul\":19333:19426   */\n      tag_404\n        /* \"#utility.yul\":19422:19425   */\n      dup3\n        /* \"#utility.yul\":19333:19426   */\n      tag_228\n      jump\t// in\n    tag_404:\n        /* \"#utility.yul\":19451:19453   */\n      0x20\n        /* \"#utility.yul\":19446:19449   */\n      dup3\n        /* \"#utility.yul\":19442:19454   */\n      add\n        /* \"#utility.yul\":19435:19454   */\n      swap1\n      pop\n        /* \"#utility.yul\":19094:19460   */\n      swap2\n      swap1\n      pop\n      jump\t// out\n        /* \"#utility.yul\":19466:19885   */\n    tag_174:\n        /* \"#utility.yul\":19632:19636   */\n      0x00\n        /* \"#utility.yul\":19670:19672   */\n      0x20\n        /* \"#utility.yul\":19659:19668   */\n      dup3\n        /* \"#utility.yul\":19655:19673   */\n      add\n        /* \"#utility.yul\":19647:19673   */\n      swap1\n      pop\n        /* \"#utility.yul\":19719:19728   */\n      dup2\n        /* \"#utility.yul\":19713:19717   */\n      dup2\n        /* \"#utility.yul\":19709:19729   */\n      sub\n        /* \"#utility.yul\":19705:19706   */\n      0x00\n        /* \"#utility.yul\":19694:19703   */\n      dup4\n        /* \"#utility.yul\":19690:19707   */\n      add\n        /* \"#utility.yul\":19683:19730   */\n      mstore\n        /* \"#utility.yul\":19747:19878   */\n      tag_406\n        /* \"#utility.yul\":19873:19877   */\n      dup2\n        /* \"#utility.yul\":19747:19878   */\n      tag_229\n      jump\t// in\n    tag_406:\n        /* \"#utility.yul\":19739:19878   */\n      swap1\n      pop\n        /* \"#utility.yul\":19466:19885   */\n      swap2\n      swap1\n      pop\n      jump\t// out\n        /* \"#utility.yul\":19891:20115   */\n    tag_230:\n        /* \"#utility.yul\":20031:20065   */\n      0x43616e6e6f74207472616e7366657220746f20616464726573732076616c7565\n        /* \"#utility.yul\":20027:20028   */\n      0x00\n        /* \"#utility.yul\":20019:20025   */\n      dup3\n        /* \"#utility.yul\":20015:20029   */\n      add\n        /* \"#utility.yul\":20008:20066   */\n      mstore\n        /* \"#utility.yul\":20100:20107   */\n      0x205a65726f000000000000000000000000000000000000000000000000000000\n        /* \"#utility.yul\":20095:20097   */\n      0x20\n        /* \"#utility.yul\":20087:20093   */\n      dup3\n        /* \"#utility.yul\":20083:20098   */\n      add\n        /* \"#utility.yul\":20076:20108   */\n      mstore\n        /* \"#utility.yul\":19891:20115   */\n      pop\n      jump\t// out\n        /* \"#utility.yul\":20121:20487   */\n    tag_231:\n        /* \"#utility.yul\":20263:20266   */\n      0x00\n        /* \"#utility.yul\":20284:20351   */\n      tag_409\n        /* \"#utility.yul\":20348:20350   */\n      0x25\n        /* \"#utility.yul\":20343:20346   */\n      dup4\n        /* \"#utility.yul\":20284:20351   */\n      tag_185\n      jump\t// in\n    tag_409:\n        /* \"#utility.yul\":20277:20351   */\n      swap2\n      pop\n        /* \"#utility.yul\":20360:20453   */\n      tag_410\n        /* \"#utility.yul\":20449:20452   */\n      dup3\n        /* \"#utility.yul\":20360:20453   */\n      tag_230\n      jump\t// in\n    tag_410:\n        /* \"#utility.yul\":20478:20480   */\n      0x40\n        /* \"#utility.yul\":20473:20476   */\n      dup3\n        /* \"#utility.yul\":20469:20481   */\n      add\n        /* \"#utility.yul\":20462:20481   */\n      swap1\n      pop\n        /* \"#utility.yul\":20121:20487   */\n      swap2\n      swap1\n      pop\n      jump\t// out\n        /* \"#utility.yul\":20493:20912   */\n    tag_177:\n        /* \"#utility.yul\":20659:20663   */\n      0x00\n        /* \"#utility.yul\":20697:20699   */\n      0x20\n        /* \"#utility.yul\":20686:20695   */\n      dup3\n        /* \"#utility.yul\":20682:20700   */\n      add\n        /* \"#utility.yul\":20674:20700   */\n      swap1\n      pop\n        /* \"#utility.yul\":20746:20755   */\n      dup2\n        /* \"#utility.yul\":20740:20744   */\n      dup2\n        /* \"#utility.yul\":20736:20756   */\n      sub\n        /* \"#utility.yul\":20732:20733   */\n      0x00\n        /* \"#utility.yul\":20721:20730   */\n      dup4\n        /* \"#utility.yul\":20717:20734   */\n      add\n        /* \"#utility.yul\":20710:20757   */\n      mstore\n        /* \"#utility.yul\":20774:20905   */\n      tag_412\n        /* \"#utility.yul\":20900:20904   */\n      dup2\n        /* \"#utility.yul\":20774:20905   */\n      tag_231\n      jump\t// in\n    tag_412:\n        /* \"#utility.yul\":20766:20905   */\n      swap1\n      pop\n        /* \"#utility.yul\":20493:20912   */\n      swap2\n      swap1\n      pop\n      jump\t// out\n\n    auxdata: 0xa2646970667358221220c86ba6731381126871b158d77018a914a85e2d519083ce9b1d70fb18bf1ec1f064736f6c634300081e0033\n}\n",
				"bytecode": {
					"linkReferences": {},
					"object": "608060405234801561000f575f5ffd5b5060405161245d38038061245d833981810160405281019061003191906101d5565b335f5f6101000a81548173ffffffffffffffffffffffffffffffffffffffff021916908373ffffffffffffffffffffffffffffffffffffffff1602179055506012600a61007e9190610368565b8161008991906103b2565b600181905550600a60015461009e9190610420565b60028190555060025460045f5f5f9054906101000a900473ffffffffffffffffffffffffffffffffffffffff1673ffffffffffffffffffffffffffffffffffffffff1673ffffffffffffffffffffffffffffffffffffffff1681526020019081526020015f20819055506002546003819055505f5f9054906101000a900473ffffffffffffffffffffffffffffffffffffffff1673ffffffffffffffffffffffffffffffffffffffff165f73ffffffffffffffffffffffffffffffffffffffff167fddf252ad1be2c89b69c2b068fc378daa952ba7f163c4a11628f55a4df523b3ef600254604051610190919061045f565b60405180910390a350610478565b5f5ffd5b5f819050919050565b6101b4816101a2565b81146101be575f5ffd5b50565b5f815190506101cf816101ab565b92915050565b5f602082840312156101ea576101e961019e565b5b5f6101f7848285016101c1565b91505092915050565b7f4e487b71000000000000000000000000000000000000000000000000000000005f52601160045260245ffd5b5f8160011c9050919050565b5f5f8291508390505b60018511156102825780860481111561025e5761025d610200565b5b600185161561026d5780820291505b808102905061027b8561022d565b9450610242565b94509492505050565b5f8261029a5760019050610355565b816102a7575f9050610355565b81600181146102bd57600281146102c7576102f6565b6001915050610355565b60ff8411156102d9576102d8610200565b5b8360020a9150848211156102f0576102ef610200565b5b50610355565b5060208310610133831016604e8410600b841016171561032b5782820a90508381111561032657610325610200565b5b610355565b6103388484846001610239565b9250905081840481111561034f5761034e610200565b5b81810290505b9392505050565b5f60ff82169050919050565b5f610372826101a2565b915061037d8361035c565b92506103aa7fffffffffffffffffffffffffffffffffffffffffffffffffffffffffffffffff848461028b565b905092915050565b5f6103bc826101a2565b91506103c7836101a2565b92508282026103d5816101a2565b915082820484148315176103ec576103eb610200565b5b5092915050565b7f4e487b71000000000000000000000000000000000000000000000000000000005f52601260045260245ffd5b5f61042a826101a2565b9150610435836101a2565b925082610445576104446103f3565b5b828204905092915050565b610459816101a2565b82525050565b5f6020820190506104725f830184610450565b92915050565b611fd8806104855f395ff3fe608060405234801561000f575f5ffd5b50600436106100e8575f3560e01c806363b0545f1161008a5780639679dd7d116100645780639679dd7d14610260578063a457c2d71461027e578063a9059cbb146102ae578063dd62ed3e146102de576100e8565b806363b0545f146101e257806370a082311461021257806395d89b4114610242576100e8565b806318160ddd116100c657806318160ddd14610158578063313ce56714610176578063395093511461019457806344df8e70146101c4576100e8565b806306fdde03146100ec578063095ea7b31461010a5780631249c58b1461013a575b5f5ffd5b6100f461030e565b604051610101919061155a565b60405180910390f35b610124600480360381019061011f919061160b565b61034b565b6040516101319190611663565b60405180910390f35b6101426104c3565b60405161014f9190611663565b60405180910390f35b6101606107e1565b60405161016d919061168b565b60405180910390f35b61017e6107ea565b60405161018b91906116bf565b60405180910390f35b6101ae60048036038101906101a9919061160b565b6107f2565b6040516101bb9190611663565b60405180910390f35b6101cc6109f3565b6040516101d99190611663565b60405180910390f35b6101fc60048036038101906101f791906116d8565b610b58565b6040516102099190611663565b60405180910390f35b61022c60048036038101906102279190611728565b610eab565b604051610239919061168b565b60405180910390f35b61024a610ef1565b604051610257919061155a565b60405180910390f35b610268610f2e565b604051610275919061168b565b60405180910390f35b6102986004803603810190610293919061160b565b610f49565b6040516102a59190611663565b60405180910390f35b6102c860048036038101906102c3919061160b565b611205565b6040516102d59190611663565b60405180910390f35b6102f860048036038101906102f39190611753565b611468565b604051610305919061168b565b60405180910390f35b60606040518060400160405280600581526020017f5370696479000000000000000000000000000000000000000000000000000000815250905090565b5f5f6012600a61035b91906118ed565b836103669190611937565b90505f73ffffffffffffffffffffffffffffffffffffffff168473ffffffffffffffffffffffffffffffffffffffff16036103d6576040517f08c379a00000000000000000000000000000000000000000000000000000000081526004016103cd906119e8565b60405180910390fd5b8060055f3373ffffffffffffffffffffffffffffffffffffffff1673ffffffffffffffffffffffffffffffffffffffff1681526020019081526020015f205f8673ffffffffffffffffffffffffffffffffffffffff1673ffffffffffffffffffffffffffffffffffffffff1681526020019081526020015f20819055508373ffffffffffffffffffffffffffffffffffffffff163373ffffffffffffffffffffffffffffffffffffffff167f8c5be1e5ebec7d5bd14f71427d1e84f3dd0314c0f7b2291e5b200ac8c7c3b925836040516104b0919061168b565b60405180910390a3600191505092915050565b5f6001546012600a6104d591906118ed565b600a6104e19190611937565b6003546104ee9190611a06565b111561052f576040517f08c379a000000000000000000000000000000000000000000000000000000000815260040161052690611a83565b60405180910390fd5b6012600a61053d91906118ed565b60646105499190611937565b6012600a61055791906118ed565b600a6105639190611937565b60065f3373ffffffffffffffffffffffffffffffffffffffff1673ffffffffffffffffffffffffffffffffffffffff1681526020019081526020015f20546105ab9190611a06565b11156105ec576040517f08c379a00000000000000000000000000000000000000000000000000000000081526004016105e390611aeb565b60405180910390fd5b6012600a6105fa91906118ed565b600a6106069190611937565b60045f3373ffffffffffffffffffffffffffffffffffffffff1673ffffffffffffffffffffffffffffffffffffffff1681526020019081526020015f205f8282546106519190611a06565b925050819055506012600a61066691906118ed565b600a6106729190611937565b60035f8282546106829190611a06565b925050819055506012600a61069791906118ed565b600a6106a39190611937565b60065f3373ffffffffffffffffffffffffffffffffffffffff1673ffffffffffffffffffffffffffffffffffffffff1681526020019081526020015f205f8282546106ee9190611a06565b925050819055503373ffffffffffffffffffffffffffffffffffffffff167f0f6798a560793a54c3bcfe86a93cde1e73087d944c0ea20544137d41213968856012600a61073b91906118ed565b600a6107479190611937565b604051610754919061168b565b60405180910390a23373ffffffffffffffffffffffffffffffffffffffff165f73ffffffffffffffffffffffffffffffffffffffff167fddf252ad1be2c89b69c2b068fc378daa952ba7f163c4a11628f55a4df523b3ef6012600a6107b991906118ed565b600a6107c59190611937565b6040516107d2919061168b565b60405180910390a36001905090565b5f600154905090565b5f6012905090565b5f5f73ffffffffffffffffffffffffffffffffffffffff168373ffffffffffffffffffffffffffffffffffffffff1603610861576040517f08c379a000000000000000000000000000000000000000000000000000000000815260040161085890611b79565b60405180910390fd5b5f6012600a61087091906118ed565b8361087b9190611937565b90508060055f3373ffffffffffffffffffffffffffffffffffffffff1673ffffffffffffffffffffffffffffffffffffffff1681526020019081526020015f205f8673ffffffffffffffffffffffffffffffffffffffff1673ffffffffffffffffffffffffffffffffffffffff1681526020019081526020015f205f8282546109049190611a06565b925050819055508373ffffffffffffffffffffffffffffffffffffffff163373ffffffffffffffffffffffffffffffffffffffff167f8c5be1e5ebec7d5bd14f71427d1e84f3dd0314c0f7b2291e5b200ac8c7c3b92560055f3373ffffffffffffffffffffffffffffffffffffffff1673ffffffffffffffffffffffffffffffffffffffff1681526020019081526020015f205f8873ffffffffffffffffffffffffffffffffffffffff1673ffffffffffffffffffffffffffffffffffffffff1681526020019081526020015f20546040516109e0919061168b565b60405180910390a3600191505092915050565b5f5f5f9054906101000a900473ffffffffffffffffffffffffffffffffffffffff1673ffffffffffffffffffffffffffffffffffffffff163373ffffffffffffffffffffffffffffffffffffffff1614610a82576040517f08c379a0000000000000000000000000000000000000000000000000000000008152600401610a7990611be1565b60405180910390fd5b6012600a610a9091906118ed565b600a610a9c9190611937565b60015f828254610aac9190611bff565b925050819055505f73ffffffffffffffffffffffffffffffffffffffff165f5f9054906101000a900473ffffffffffffffffffffffffffffffffffffffff1673ffffffffffffffffffffffffffffffffffffffff167fddf252ad1be2c89b69c2b068fc378daa952ba7f163c4a11628f55a4df523b3ef6012600a610b3091906118ed565b600a610b3c9190611937565b604051610b49919061168b565b60405180910390a36001905090565b5f5f8290505f73ffffffffffffffffffffffffffffffffffffffff168473ffffffffffffffffffffffffffffffffffffffff1603610bcb576040517f08c379a0000000000000000000000000000000000000000000000000000000008152600401610bc290611ca2565b60405180910390fd5b60045f8673ffffffffffffffffffffffffffffffffffffffff1673ffffffffffffffffffffffffffffffffffffffff1681526020019081526020015f2054811115610c4b576040517f08c379a0000000000000000000000000000000000000000000000000000000008152600401610c4290611d0a565b60405180910390fd5b60055f8673ffffffffffffffffffffffffffffffffffffffff1673ffffffffffffffffffffffffffffffffffffffff1681526020019081526020015f205f3373ffffffffffffffffffffffffffffffffffffffff1673ffffffffffffffffffffffffffffffffffffffff1681526020019081526020015f2054811115610d06576040517f08c379a0000000000000000000000000000000000000000000000000000000008152600401610cfd90611d72565b60405180910390fd5b8060045f8773ffffffffffffffffffffffffffffffffffffffff1673ffffffffffffffffffffffffffffffffffffffff1681526020019081526020015f205f828254610d529190611bff565b925050819055508060045f8673ffffffffffffffffffffffffffffffffffffffff1673ffffffffffffffffffffffffffffffffffffffff1681526020019081526020015f205f828254610da59190611a06565b925050819055508060055f8773ffffffffffffffffffffffffffffffffffffffff1673ffffffffffffffffffffffffffffffffffffffff1681526020019081526020015f205f3373ffffffffffffffffffffffffffffffffffffffff1673ffffffffffffffffffffffffffffffffffffffff1681526020019081526020015f205f828254610e339190611bff565b925050819055508373ffffffffffffffffffffffffffffffffffffffff168573ffffffffffffffffffffffffffffffffffffffff167fddf252ad1be2c89b69c2b068fc378daa952ba7f163c4a11628f55a4df523b3ef83604051610e97919061168b565b60405180910390a360019150509392505050565b5f60045f8373ffffffffffffffffffffffffffffffffffffffff1673ffffffffffffffffffffffffffffffffffffffff1681526020019081526020015f20549050919050565b60606040518060400160405280600381526020017f5350440000000000000000000000000000000000000000000000000000000000815250905090565b5f5f600354600154610f409190611bff565b90508091505090565b5f5f73ffffffffffffffffffffffffffffffffffffffff168373ffffffffffffffffffffffffffffffffffffffff1603610fb8576040517f08c379a0000000000000000000000000000000000000000000000000000000008152600401610faf90611e00565b60405180910390fd5b5f6012600a610fc791906118ed565b83610fd29190611937565b90508060055f3373ffffffffffffffffffffffffffffffffffffffff1673ffffffffffffffffffffffffffffffffffffffff1681526020019081526020015f205f8673ffffffffffffffffffffffffffffffffffffffff1673ffffffffffffffffffffffffffffffffffffffff1681526020019081526020015f2054101561108f576040517f08c379a000000000000000000000000000000000000000000000000000000000815260040161108690611e8e565b60405180910390fd5b8060055f3373ffffffffffffffffffffffffffffffffffffffff1673ffffffffffffffffffffffffffffffffffffffff1681526020019081526020015f205f8673ffffffffffffffffffffffffffffffffffffffff1673ffffffffffffffffffffffffffffffffffffffff1681526020019081526020015f205f8282546111169190611bff565b925050819055508373ffffffffffffffffffffffffffffffffffffffff163373ffffffffffffffffffffffffffffffffffffffff167f8c5be1e5ebec7d5bd14f71427d1e84f3dd0314c0f7b2291e5b200ac8c7c3b92560055f3373ffffffffffffffffffffffffffffffffffffffff1673ffffffffffffffffffffffffffffffffffffffff1681526020019081526020015f205f8873ffffffffffffffffffffffffffffffffffffffff1673ffffffffffffffffffffffffffffffffffffffff1681526020019081526020015f20546040516111f2919061168b565b60405180910390a3600191505092915050565b5f5f6012600a61121591906118ed565b836112209190611937565b90505f8111611264576040517f08c379a000000000000000000000000000000000000000000000000000000000815260040161125b90611ef6565b60405180910390fd5b5f73ffffffffffffffffffffffffffffffffffffffff168473ffffffffffffffffffffffffffffffffffffffff16036112d2576040517f08c379a00000000000000000000000000000000000000000000000000000000081526004016112c990611f84565b60405180910390fd5b8060045f3373ffffffffffffffffffffffffffffffffffffffff1673ffffffffffffffffffffffffffffffffffffffff1681526020019081526020015f20541015611352576040517f08c379a000000000000000000000000000000000000000000000000000000000815260040161134990611d0a565b60405180910390fd5b8060045f3373ffffffffffffffffffffffffffffffffffffffff1673ffffffffffffffffffffffffffffffffffffffff1681526020019081526020015f205f82825461139e9190611bff565b925050819055508060045f8673ffffffffffffffffffffffffffffffffffffffff1673ffffffffffffffffffffffffffffffffffffffff1681526020019081526020015f205f8282546113f19190611a06565b925050819055508373ffffffffffffffffffffffffffffffffffffffff163373ffffffffffffffffffffffffffffffffffffffff167fddf252ad1be2c89b69c2b068fc378daa952ba7f163c4a11628f55a4df523b3ef83604051611455919061168b565b60405180910390a3600191505092915050565b5f60055f8473ffffffffffffffffffffffffffffffffffffffff1673ffffffffffffffffffffffffffffffffffffffff1681526020019081526020015f205f8373ffffffffffffffffffffffffffffffffffffffff1673ffffffffffffffffffffffffffffffffffffffff1681526020019081526020015f2054905092915050565b5f81519050919050565b5f82825260208201905092915050565b8281835e5f83830152505050565b5f601f19601f8301169050919050565b5f61152c826114ea565b61153681856114f4565b9350611546818560208601611504565b61154f81611512565b840191505092915050565b5f6020820190508181035f8301526115728184611522565b905092915050565b5f5ffd5b5f73ffffffffffffffffffffffffffffffffffffffff82169050919050565b5f6115a78261157e565b9050919050565b6115b78161159d565b81146115c1575f5ffd5b50565b5f813590506115d2816115ae565b92915050565b5f819050919050565b6115ea816115d8565b81146115f4575f5ffd5b50565b5f81359050611605816115e1565b92915050565b5f5f604083850312156116215761162061157a565b5b5f61162e858286016115c4565b925050602061163f858286016115f7565b9150509250929050565b5f8115159050919050565b61165d81611649565b82525050565b5f6020820190506116765f830184611654565b92915050565b611685816115d8565b82525050565b5f60208201905061169e5f83018461167c565b92915050565b5f60ff82169050919050565b6116b9816116a4565b82525050565b5f6020820190506116d25f8301846116b0565b92915050565b5f5f5f606084860312156116ef576116ee61157a565b5b5f6116fc868287016115c4565b935050602061170d868287016115c4565b925050604061171e868287016115f7565b9150509250925092565b5f6020828403121561173d5761173c61157a565b5b5f61174a848285016115c4565b91505092915050565b5f5f604083850312156117695761176861157a565b5b5f611776858286016115c4565b9250506020611787858286016115c4565b9150509250929050565b7f4e487b71000000000000000000000000000000000000000000000000000000005f52601160045260245ffd5b5f8160011c9050919050565b5f5f8291508390505b6001851115611813578086048111156117ef576117ee611791565b5b60018516156117fe5780820291505b808102905061180c856117be565b94506117d3565b94509492505050565b5f8261182b57600190506118e6565b81611838575f90506118e6565b816001811461184e576002811461185857611887565b60019150506118e6565b60ff84111561186a57611869611791565b5b8360020a91508482111561188157611880611791565b5b506118e6565b5060208310610133831016604e8410600b84101617156118bc5782820a9050838111156118b7576118b6611791565b5b6118e6565b6118c984848460016117ca565b925090508184048111156118e0576118df611791565b5b81810290505b9392505050565b5f6118f7826115d8565b9150611902836116a4565b925061192f7fffffffffffffffffffffffffffffffffffffffffffffffffffffffffffffffff848461181c565b905092915050565b5f611941826115d8565b915061194c836115d8565b925082820261195a816115d8565b9150828204841483151761197157611970611791565b5b5092915050565b7f43616e6e6f7420617070726f766520616d6f756e7420746f2061207a65726f205f8201527f6164647265737300000000000000000000000000000000000000000000000000602082015250565b5f6119d26027836114f4565b91506119dd82611978565b604082019050919050565b5f6020820190508181035f8301526119ff816119c6565b9050919050565b5f611a10826115d8565b9150611a1b836115d8565b9250828201905080821115611a3357611a32611791565b5b92915050565b7f4e6f206d6f726520746f74616c537570706c79000000000000000000000000005f82015250565b5f611a6d6013836114f4565b9150611a7882611a39565b602082019050919050565b5f6020820190508181035f830152611a9a81611a61565b9050919050565b7f4d6178696d756d206c696d6974207265616368656400000000000000000000005f82015250565b5f611ad56015836114f4565b9150611ae082611aa1565b602082019050919050565b5f6020820190508181035f830152611b0281611ac9565b9050919050565b7f43616e6e6f7420696e63726561736520616c6c6f77616e636520746f206164645f8201527f726573732076616c7565205a65726f0000000000000000000000000000000000602082015250565b5f611b63602f836114f4565b9150611b6e82611b09565b604082019050919050565b5f6020820190508181035f830152611b9081611b57565b9050919050565b7f6f6e6c79206f776e65722063616e2063616c6c000000000000000000000000005f82015250565b5f611bcb6013836114f4565b9150611bd682611b97565b602082019050919050565b5f6020820190508181035f830152611bf881611bbf565b9050919050565b5f611c09826115d8565b9150611c14836115d8565b9250828203905081811115611c2c57611c2b611791565b5b92915050565b7f43616e6e6f74207472616e7366657220746f207a65726f2076616c75652061645f8201527f6472657373000000000000000000000000000000000000000000000000000000602082015250565b5f611c8c6025836114f4565b9150611c9782611c32565b604082019050919050565b5f6020820190508181035f830152611cb981611c80565b9050919050565b7f496e73756666696369656e742062616c616e63650000000000000000000000005f82015250565b5f611cf46014836114f4565b9150611cff82611cc0565b602082019050919050565b5f6020820190508181035f830152611d2181611ce8565b9050919050565b7f616c6c6f77616e636520657863656564656400000000000000000000000000005f82015250565b5f611d5c6012836114f4565b9150611d6782611d28565b602082019050919050565b5f6020820190508181035f830152611d8981611d50565b9050919050565b7f63616e6e6f7420646563726561736520616c6c6f77616e636520746f206164645f8201527f726573732076616c7565205a65726f0000000000000000000000000000000000602082015250565b5f611dea602f836114f4565b9150611df582611d90565b604082019050919050565b5f6020820190508181035f830152611e1781611dde565b9050919050565b7f496e73756666696369656e7420616c6c6f77616e63652062616c616e636520745f8201527f6f20646563726561736500000000000000000000000000000000000000000000602082015250565b5f611e78602a836114f4565b9150611e8382611e1e565b604082019050919050565b5f6020820190508181035f830152611ea581611e6c565b9050919050565b7f5472616e736665722076616c7565206d757374206265203e20300000000000005f82015250565b5f611ee0601a836114f4565b9150611eeb82611eac565b602082019050919050565b5f6020820190508181035f830152611f0d81611ed4565b9050919050565b7f43616e6e6f74207472616e7366657220746f20616464726573732076616c75655f8201527f205a65726f000000000000000000000000000000000000000000000000000000602082015250565b5f611f6e6025836114f4565b9150611f7982611f14565b604082019050919050565b5f6020820190508181035f830152611f9b81611f62565b905091905056fea2646970667358221220c86ba6731381126871b158d77018a914a85e2d519083ce9b1d70fb18bf1ec1f064736f6c634300081e0033",
					"opcodes": "PUSH1 0x80 PUSH1 0x40 MSTORE CALLVALUE DUP1 ISZERO PUSH2 0xF JUMPI PUSH0 PUSH0 REVERT JUMPDEST POP PUSH1 0x40 MLOAD PUSH2 0x245D CODESIZE SUB DUP1 PUSH2 0x245D DUP4 CODECOPY DUP2 DUP2 ADD PUSH1 0x40 MSTORE DUP2 ADD SWAP1 PUSH2 0x31 SWAP2 SWAP1 PUSH2 0x1D5 JUMP JUMPDEST CALLER PUSH0 PUSH0 PUSH2 0x100 EXP DUP2 SLOAD DUP2 PUSH20 0xFFFFFFFFFFFFFFFFFFFFFFFFFFFFFFFFFFFFFFFF MUL NOT AND SWAP1 DUP4 PUSH20 0xFFFFFFFFFFFFFFFFFFFFFFFFFFFFFFFFFFFFFFFF AND MUL OR SWAP1 SSTORE POP PUSH1 0x12 PUSH1 0xA PUSH2 0x7E SWAP2 SWAP1 PUSH2 0x368 JUMP JUMPDEST DUP2 PUSH2 0x89 SWAP2 SWAP1 PUSH2 0x3B2 JUMP JUMPDEST PUSH1 0x1 DUP2 SWAP1 SSTORE POP PUSH1 0xA PUSH1 0x1 SLOAD PUSH2 0x9E SWAP2 SWAP1 PUSH2 0x420 JUMP JUMPDEST PUSH1 0x2 DUP2 SWAP1 SSTORE POP PUSH1 0x2 SLOAD PUSH1 0x4 PUSH0 PUSH0 PUSH0 SWAP1 SLOAD SWAP1 PUSH2 0x100 EXP SWAP1 DIV PUSH20 0xFFFFFFFFFFFFFFFFFFFFFFFFFFFFFFFFFFFFFFFF AND PUSH20 0xFFFFFFFFFFFFFFFFFFFFFFFFFFFFFFFFFFFFFFFF AND PUSH20 0xFFFFFFFFFFFFFFFFFFFFFFFFFFFFFFFFFFFFFFFF AND DUP2 MSTORE PUSH1 0x20 ADD SWAP1 DUP2 MSTORE PUSH1 0x20 ADD PUSH0 KECCAK256 DUP2 SWAP1 SSTORE POP PUSH1 0x2 SLOAD PUSH1 0x3 DUP2 SWAP1 SSTORE POP PUSH0 PUSH0 SWAP1 SLOAD SWAP1 PUSH2 0x100 EXP SWAP1 DIV PUSH20 0xFFFFFFFFFFFFFFFFFFFFFFFFFFFFFFFFFFFFFFFF AND PUSH20 0xFFFFFFFFFFFFFFFFFFFFFFFFFFFFFFFFFFFFFFFF AND PUSH0 PUSH20 0xFFFFFFFFFFFFFFFFFFFFFFFFFFFFFFFFFFFFFFFF AND PUSH32 0xDDF252AD1BE2C89B69C2B068FC378DAA952BA7F163C4A11628F55A4DF523B3EF PUSH1 0x2 SLOAD PUSH1 0x40 MLOAD PUSH2 0x190 SWAP2 SWAP1 PUSH2 0x45F JUMP JUMPDEST PUSH1 0x40 MLOAD DUP1 SWAP2 SUB SWAP1 LOG3 POP PUSH2 0x478 JUMP JUMPDEST PUSH0 PUSH0 REVERT JUMPDEST PUSH0 DUP2 SWAP1 POP SWAP2 SWAP1 POP JUMP JUMPDEST PUSH2 0x1B4 DUP2 PUSH2 0x1A2 JUMP JUMPDEST DUP2 EQ PUSH2 0x1BE JUMPI PUSH0 PUSH0 REVERT JUMPDEST POP JUMP JUMPDEST PUSH0 DUP2 MLOAD SWAP1 POP PUSH2 0x1CF DUP2 PUSH2 0x1AB JUMP JUMPDEST SWAP3 SWAP2 POP POP JUMP JUMPDEST PUSH0 PUSH1 0x20 DUP3 DUP5 SUB SLT ISZERO PUSH2 0x1EA JUMPI PUSH2 0x1E9 PUSH2 0x19E JUMP JUMPDEST JUMPDEST PUSH0 PUSH2 0x1F7 DUP5 DUP3 DUP6 ADD PUSH2 0x1C1 JUMP JUMPDEST SWAP2 POP POP SWAP3 SWAP2 POP POP JUMP JUMPDEST PUSH32 0x4E487B7100000000000000000000000000000000000000000000000000000000 PUSH0 MSTORE PUSH1 0x11 PUSH1 0x4 MSTORE PUSH1 0x24 PUSH0 REVERT JUMPDEST PUSH0 DUP2 PUSH1 0x1 SHR SWAP1 POP SWAP2 SWAP1 POP JUMP JUMPDEST PUSH0 PUSH0 DUP3 SWAP2 POP DUP4 SWAP1 POP JUMPDEST PUSH1 0x1 DUP6 GT ISZERO PUSH2 0x282 JUMPI DUP1 DUP7 DIV DUP2 GT ISZERO PUSH2 0x25E JUMPI PUSH2 0x25D PUSH2 0x200 JUMP JUMPDEST JUMPDEST PUSH1 0x1 DUP6 AND ISZERO PUSH2 0x26D JUMPI DUP1 DUP3 MUL SWAP2 POP JUMPDEST DUP1 DUP2 MUL SWAP1 POP PUSH2 0x27B DUP6 PUSH2 0x22D JUMP JUMPDEST SWAP5 POP PUSH2 0x242 JUMP JUMPDEST SWAP5 POP SWAP5 SWAP3 POP POP POP JUMP JUMPDEST PUSH0 DUP3 PUSH2 0x29A JUMPI PUSH1 0x1 SWAP1 POP PUSH2 0x355 JUMP JUMPDEST DUP2 PUSH2 0x2A7 JUMPI PUSH0 SWAP1 POP PUSH2 0x355 JUMP JUMPDEST DUP2 PUSH1 0x1 DUP2 EQ PUSH2 0x2BD JUMPI PUSH1 0x2 DUP2 EQ PUSH2 0x2C7 JUMPI PUSH2 0x2F6 JUMP JUMPDEST PUSH1 0x1 SWAP2 POP POP PUSH2 0x355 JUMP JUMPDEST PUSH1 0xFF DUP5 GT ISZERO PUSH2 0x2D9 JUMPI PUSH2 0x2D8 PUSH2 0x200 JUMP JUMPDEST JUMPDEST DUP4 PUSH1 0x2 EXP SWAP2 POP DUP5 DUP3 GT ISZERO PUSH2 0x2F0 JUMPI PUSH2 0x2EF PUSH2 0x200 JUMP JUMPDEST JUMPDEST POP PUSH2 0x355 JUMP JUMPDEST POP PUSH1 0x20 DUP4 LT PUSH2 0x133 DUP4 LT AND PUSH1 0x4E DUP5 LT PUSH1 0xB DUP5 LT AND OR ISZERO PUSH2 0x32B JUMPI DUP3 DUP3 EXP SWAP1 POP DUP4 DUP2 GT ISZERO PUSH2 0x326 JUMPI PUSH2 0x325 PUSH2 0x200 JUMP JUMPDEST JUMPDEST PUSH2 0x355 JUMP JUMPDEST PUSH2 0x338 DUP5 DUP5 DUP5 PUSH1 0x1 PUSH2 0x239 JUMP JUMPDEST SWAP3 POP SWAP1 POP DUP2 DUP5 DIV DUP2 GT ISZERO PUSH2 0x34F JUMPI PUSH2 0x34E PUSH2 0x200 JUMP JUMPDEST JUMPDEST DUP2 DUP2 MUL SWAP1 POP JUMPDEST SWAP4 SWAP3 POP POP POP JUMP JUMPDEST PUSH0 PUSH1 0xFF DUP3 AND SWAP1 POP SWAP2 SWAP1 POP JUMP JUMPDEST PUSH0 PUSH2 0x372 DUP3 PUSH2 0x1A2 JUMP JUMPDEST SWAP2 POP PUSH2 0x37D DUP4 PUSH2 0x35C JUMP JUMPDEST SWAP3 POP PUSH2 0x3AA PUSH32 0xFFFFFFFFFFFFFFFFFFFFFFFFFFFFFFFFFFFFFFFFFFFFFFFFFFFFFFFFFFFFFFFF DUP5 DUP5 PUSH2 0x28B JUMP JUMPDEST SWAP1 POP SWAP3 SWAP2 POP POP JUMP JUMPDEST PUSH0 PUSH2 0x3BC DUP3 PUSH2 0x1A2 JUMP JUMPDEST SWAP2 POP PUSH2 0x3C7 DUP4 PUSH2 0x1A2 JUMP JUMPDEST SWAP3 POP DUP3 DUP3 MUL PUSH2 0x3D5 DUP2 PUSH2 0x1A2 JUMP JUMPDEST SWAP2 POP DUP3 DUP3 DIV DUP5 EQ DUP4 ISZERO OR PUSH2 0x3EC JUMPI PUSH2 0x3EB PUSH2 0x200 JUMP JUMPDEST JUMPDEST POP SWAP3 SWAP2 POP POP JUMP JUMPDEST PUSH32 0x4E487B7100000000000000000000000000000000000000000000000000000000 PUSH0 MSTORE PUSH1 0x12 PUSH1 0x4 MSTORE PUSH1 0x24 PUSH0 REVERT JUMPDEST PUSH0 PUSH2 0x42A DUP3 PUSH2 0x1A2 JUMP JUMPDEST SWAP2 POP PUSH2 0x435 DUP4 PUSH2 0x1A2 JUMP JUMPDEST SWAP3 POP DUP3 PUSH2 0x445 JUMPI PUSH2 0x444 PUSH2 0x3F3 JUMP JUMPDEST JUMPDEST DUP3 DUP3 DIV SWAP1 POP SWAP3 SWAP2 POP POP JUMP JUMPDEST PUSH2 0x459 DUP2 PUSH2 0x1A2 JUMP JUMPDEST DUP3 MSTORE POP POP JUMP JUMPDEST PUSH0 PUSH1 0x20 DUP3 ADD SWAP1 POP PUSH2 0x472 PUSH0 DUP4 ADD DUP5 PUSH2 0x450 JUMP JUMPDEST SWAP3 SWAP2 POP POP JUMP JUMPDEST PUSH2 0x1FD8 DUP1 PUSH2 0x485 PUSH0 CODECOPY PUSH0 RETURN INVALID PUSH1 0x80 PUSH1 0x40 MSTORE CALLVALUE DUP1 ISZERO PUSH2 0xF JUMPI PUSH0 PUSH0 REVERT JUMPDEST POP PUSH1 0x4 CALLDATASIZE LT PUSH2 0xE8 JUMPI PUSH0 CALLDATALOAD PUSH1 0xE0 SHR DUP1 PUSH4 0x63B0545F GT PUSH2 0x8A JUMPI DUP1 PUSH4 0x9679DD7D GT PUSH2 0x64 JUMPI DUP1 PUSH4 0x9679DD7D EQ PUSH2 0x260 JUMPI DUP1 PUSH4 0xA457C2D7 EQ PUSH2 0x27E JUMPI DUP1 PUSH4 0xA9059CBB EQ PUSH2 0x2AE JUMPI DUP1 PUSH4 0xDD62ED3E EQ PUSH2 0x2DE JUMPI PUSH2 0xE8 JUMP JUMPDEST DUP1 PUSH4 0x63B0545F EQ PUSH2 0x1E2 JUMPI DUP1 PUSH4 0x70A08231 EQ PUSH2 0x212 JUMPI DUP1 PUSH4 0x95D89B41 EQ PUSH2 0x242 JUMPI PUSH2 0xE8 JUMP JUMPDEST DUP1 PUSH4 0x18160DDD GT PUSH2 0xC6 JUMPI DUP1 PUSH4 0x18160DDD EQ PUSH2 0x158 JUMPI DUP1 PUSH4 0x313CE567 EQ PUSH2 0x176 JUMPI DUP1 PUSH4 0x39509351 EQ PUSH2 0x194 JUMPI DUP1 PUSH4 0x44DF8E70 EQ PUSH2 0x1C4 JUMPI PUSH2 0xE8 JUMP JUMPDEST DUP1 PUSH4 0x6FDDE03 EQ PUSH2 0xEC JUMPI DUP1 PUSH4 0x95EA7B3 EQ PUSH2 0x10A JUMPI DUP1 PUSH4 0x1249C58B EQ PUSH2 0x13A JUMPI JUMPDEST PUSH0 PUSH0 REVERT JUMPDEST PUSH2 0xF4 PUSH2 0x30E JUMP JUMPDEST PUSH1 0x40 MLOAD PUSH2 0x101 SWAP2 SWAP1 PUSH2 0x155A JUMP JUMPDEST PUSH1 0x40 MLOAD DUP1 SWAP2 SUB SWAP1 RETURN JUMPDEST PUSH2 0x124 PUSH1 0x4 DUP1 CALLDATASIZE SUB DUP2 ADD SWAP1 PUSH2 0x11F SWAP2 SWAP1 PUSH2 0x160B JUMP JUMPDEST PUSH2 0x34B JUMP JUMPDEST PUSH1 0x40 MLOAD PUSH2 0x131 SWAP2 SWAP1 PUSH2 0x1663 JUMP JUMPDEST PUSH1 0x40 MLOAD DUP1 SWAP2 SUB SWAP1 RETURN JUMPDEST PUSH2 0x142 PUSH2 0x4C3 JUMP JUMPDEST PUSH1 0x40 MLOAD PUSH2 0x14F SWAP2 SWAP1 PUSH2 0x1663 JUMP JUMPDEST PUSH1 0x40 MLOAD DUP1 SWAP2 SUB SWAP1 RETURN JUMPDEST PUSH2 0x160 PUSH2 0x7E1 JUMP JUMPDEST PUSH1 0x40 MLOAD PUSH2 0x16D SWAP2 SWAP1 PUSH2 0x168B JUMP JUMPDEST PUSH1 0x40 MLOAD DUP1 SWAP2 SUB SWAP1 RETURN JUMPDEST PUSH2 0x17E PUSH2 0x7EA JUMP JUMPDEST PUSH1 0x40 MLOAD PUSH2 0x18B SWAP2 SWAP1 PUSH2 0x16BF JUMP JUMPDEST PUSH1 0x40 MLOAD DUP1 SWAP2 SUB SWAP1 RETURN JUMPDEST PUSH2 0x1AE PUSH1 0x4 DUP1 CALLDATASIZE SUB DUP2 ADD SWAP1 PUSH2 0x1A9 SWAP2 SWAP1 PUSH2 0x160B JUMP JUMPDEST PUSH2 0x7F2 JUMP JUMPDEST PUSH1 0x40 MLOAD PUSH2 0x1BB SWAP2 SWAP1 PUSH2 0x1663 JUMP JUMPDEST PUSH1 0x40 MLOAD DUP1 SWAP2 SUB SWAP1 RETURN JUMPDEST PUSH2 0x1CC PUSH2 0x9F3 JUMP JUMPDEST PUSH1 0x40 MLOAD PUSH2 0x1D9 SWAP2 SWAP1 PUSH2 0x1663 JUMP JUMPDEST PUSH1 0x40 MLOAD DUP1 SWAP2 SUB SWAP1 RETURN JUMPDEST PUSH2 0x1FC PUSH1 0x4 DUP1 CALLDATASIZE SUB DUP2 ADD SWAP1 PUSH2 0x1F7 SWAP2 SWAP1 PUSH2 0x16D8 JUMP JUMPDEST PUSH2 0xB58 JUMP JUMPDEST PUSH1 0x40 MLOAD PUSH2 0x209 SWAP2 SWAP1 PUSH2 0x1663 JUMP JUMPDEST PUSH1 0x40 MLOAD DUP1 SWAP2 SUB SWAP1 RETURN JUMPDEST PUSH2 0x22C PUSH1 0x4 DUP1 CALLDATASIZE SUB DUP2 ADD SWAP1 PUSH2 0x227 SWAP2 SWAP1 PUSH2 0x1728 JUMP JUMPDEST PUSH2 0xEAB JUMP JUMPDEST PUSH1 0x40 MLOAD PUSH2 0x239 SWAP2 SWAP1 PUSH2 0x168B JUMP JUMPDEST PUSH1 0x40 MLOAD DUP1 SWAP2 SUB SWAP1 RETURN JUMPDEST PUSH2 0x24A PUSH2 0xEF1 JUMP JUMPDEST PUSH1 0x40 MLOAD PUSH2 0x257 SWAP2 SWAP1 PUSH2 0x155A JUMP JUMPDEST PUSH1 0x40 MLOAD DUP1 SWAP2 SUB SWAP1 RETURN JUMPDEST PUSH2 0x268 PUSH2 0xF2E JUMP JUMPDEST PUSH1 0x40 MLOAD PUSH2 0x275 SWAP2 SWAP1 PUSH2 0x168B JUMP JUMPDEST PUSH1 0x40 MLOAD DUP1 SWAP2 SUB SWAP1 RETURN JUMPDEST PUSH2 0x298 PUSH1 0x4 DUP1 CALLDATASIZE SUB DUP2 ADD SWAP1 PUSH2 0x293 SWAP2 SWAP1 PUSH2 0x160B JUMP JUMPDEST PUSH2 0xF49 JUMP JUMPDEST PUSH1 0x40 MLOAD PUSH2 0x2A5 SWAP2 SWAP1 PUSH2 0x1663 JUMP JUMPDEST PUSH1 0x40 MLOAD DUP1 SWAP2 SUB SWAP1 RETURN JUMPDEST PUSH2 0x2C8 PUSH1 0x4 DUP1 CALLDATASIZE SUB DUP2 ADD SWAP1 PUSH2 0x2C3 SWAP2 SWAP1 PUSH2 0x160B JUMP JUMPDEST PUSH2 0x1205 JUMP JUMPDEST PUSH1 0x40 MLOAD PUSH2 0x2D5 SWAP2 SWAP1 PUSH2 0x1663 JUMP JUMPDEST PUSH1 0x40 MLOAD DUP1 SWAP2 SUB SWAP1 RETURN JUMPDEST PUSH2 0x2F8 PUSH1 0x4 DUP1 CALLDATASIZE SUB DUP2 ADD SWAP1 PUSH2 0x2F3 SWAP2 SWAP1 PUSH2 0x1753 JUMP JUMPDEST PUSH2 0x1468 JUMP JUMPDEST PUSH1 0x40 MLOAD PUSH2 0x305 SWAP2 SWAP1 PUSH2 0x168B JUMP JUMPDEST PUSH1 0x40 MLOAD DUP1 SWAP2 SUB SWAP1 RETURN JUMPDEST PUSH1 0x60 PUSH1 0x40 MLOAD DUP1 PUSH1 0x40 ADD PUSH1 0x40 MSTORE DUP1 PUSH1 0x5 DUP2 MSTORE PUSH1 0x20 ADD PUSH32 0x5370696479000000000000000000000000000000000000000000000000000000 DUP2 MSTORE POP SWAP1 POP SWAP1 JUMP JUMPDEST PUSH0 PUSH0 PUSH1 0x12 PUSH1 0xA PUSH2 0x35B SWAP2 SWAP1 PUSH2 0x18ED JUMP JUMPDEST DUP4 PUSH2 0x366 SWAP2 SWAP1 PUSH2 0x1937 JUMP JUMPDEST SWAP1 POP PUSH0 PUSH20 0xFFFFFFFFFFFFFFFFFFFFFFFFFFFFFFFFFFFFFFFF AND DUP5 PUSH20 0xFFFFFFFFFFFFFFFFFFFFFFFFFFFFFFFFFFFFFFFF AND SUB PUSH2 0x3D6 JUMPI PUSH1 0x40 MLOAD PUSH32 0x8C379A000000000000000000000000000000000000000000000000000000000 DUP2 MSTORE PUSH1 0x4 ADD PUSH2 0x3CD SWAP1 PUSH2 0x19E8 JUMP JUMPDEST PUSH1 0x40 MLOAD DUP1 SWAP2 SUB SWAP1 REVERT JUMPDEST DUP1 PUSH1 0x5 PUSH0 CALLER PUSH20 0xFFFFFFFFFFFFFFFFFFFFFFFFFFFFFFFFFFFFFFFF AND PUSH20 0xFFFFFFFFFFFFFFFFFFFFFFFFFFFFFFFFFFFFFFFF AND DUP2 MSTORE PUSH1 0x20 ADD SWAP1 DUP2 MSTORE PUSH1 0x20 ADD PUSH0 KECCAK256 PUSH0 DUP7 PUSH20 0xFFFFFFFFFFFFFFFFFFFFFFFFFFFFFFFFFFFFFFFF AND PUSH20 0xFFFFFFFFFFFFFFFFFFFFFFFFFFFFFFFFFFFFFFFF AND DUP2 MSTORE PUSH1 0x20 ADD SWAP1 DUP2 MSTORE PUSH1 0x20 ADD PUSH0 KECCAK256 DUP2 SWAP1 SSTORE POP DUP4 PUSH20 0xFFFFFFFFFFFFFFFFFFFFFFFFFFFFFFFFFFFFFFFF AND CALLER PUSH20 0xFFFFFFFFFFFFFFFFFFFFFFFFFFFFFFFFFFFFFFFF AND PUSH32 0x8C5BE1E5EBEC7D5BD14F71427D1E84F3DD0314C0F7B2291E5B200AC8C7C3B925 DUP4 PUSH1 0x40 MLOAD PUSH2 0x4B0 SWAP2 SWAP1 PUSH2 0x168B JUMP JUMPDEST PUSH1 0x40 MLOAD DUP1 SWAP2 SUB SWAP1 LOG3 PUSH1 0x1 SWAP2 POP POP SWAP3 SWAP2 POP POP JUMP JUMPDEST PUSH0 PUSH1 0x1 SLOAD PUSH1 0x12 PUSH1 0xA PUSH2 0x4D5 SWAP2 SWAP1 PUSH2 0x18ED JUMP JUMPDEST PUSH1 0xA PUSH2 0x4E1 SWAP2 SWAP1 PUSH2 0x1937 JUMP JUMPDEST PUSH1 0x3 SLOAD PUSH2 0x4EE SWAP2 SWAP1 PUSH2 0x1A06 JUMP JUMPDEST GT ISZERO PUSH2 0x52F JUMPI PUSH1 0x40 MLOAD PUSH32 0x8C379A000000000000000000000000000000000000000000000000000000000 DUP2 MSTORE PUSH1 0x4 ADD PUSH2 0x526 SWAP1 PUSH2 0x1A83 JUMP JUMPDEST PUSH1 0x40 MLOAD DUP1 SWAP2 SUB SWAP1 REVERT JUMPDEST PUSH1 0x12 PUSH1 0xA PUSH2 0x53D SWAP2 SWAP1 PUSH2 0x18ED JUMP JUMPDEST PUSH1 0x64 PUSH2 0x549 SWAP2 SWAP1 PUSH2 0x1937 JUMP JUMPDEST PUSH1 0x12 PUSH1 0xA PUSH2 0x557 SWAP2 SWAP1 PUSH2 0x18ED JUMP JUMPDEST PUSH1 0xA PUSH2 0x563 SWAP2 SWAP1 PUSH2 0x1937 JUMP JUMPDEST PUSH1 0x6 PUSH0 CALLER PUSH20 0xFFFFFFFFFFFFFFFFFFFFFFFFFFFFFFFFFFFFFFFF AND PUSH20 0xFFFFFFFFFFFFFFFFFFFFFFFFFFFFFFFFFFFFFFFF AND DUP2 MSTORE PUSH1 0x20 ADD SWAP1 DUP2 MSTORE PUSH1 0x20 ADD PUSH0 KECCAK256 SLOAD PUSH2 0x5AB SWAP2 SWAP1 PUSH2 0x1A06 JUMP JUMPDEST GT ISZERO PUSH2 0x5EC JUMPI PUSH1 0x40 MLOAD PUSH32 0x8C379A000000000000000000000000000000000000000000000000000000000 DUP2 MSTORE PUSH1 0x4 ADD PUSH2 0x5E3 SWAP1 PUSH2 0x1AEB JUMP JUMPDEST PUSH1 0x40 MLOAD DUP1 SWAP2 SUB SWAP1 REVERT JUMPDEST PUSH1 0x12 PUSH1 0xA PUSH2 0x5FA SWAP2 SWAP1 PUSH2 0x18ED JUMP JUMPDEST PUSH1 0xA PUSH2 0x606 SWAP2 SWAP1 PUSH2 0x1937 JUMP JUMPDEST PUSH1 0x4 PUSH0 CALLER PUSH20 0xFFFFFFFFFFFFFFFFFFFFFFFFFFFFFFFFFFFFFFFF AND PUSH20 0xFFFFFFFFFFFFFFFFFFFFFFFFFFFFFFFFFFFFFFFF AND DUP2 MSTORE PUSH1 0x20 ADD SWAP1 DUP2 MSTORE PUSH1 0x20 ADD PUSH0 KECCAK256 PUSH0 DUP3 DUP3 SLOAD PUSH2 0x651 SWAP2 SWAP1 PUSH2 0x1A06 JUMP JUMPDEST SWAP3 POP POP DUP2 SWAP1 SSTORE POP PUSH1 0x12 PUSH1 0xA PUSH2 0x666 SWAP2 SWAP1 PUSH2 0x18ED JUMP JUMPDEST PUSH1 0xA PUSH2 0x672 SWAP2 SWAP1 PUSH2 0x1937 JUMP JUMPDEST PUSH1 0x3 PUSH0 DUP3 DUP3 SLOAD PUSH2 0x682 SWAP2 SWAP1 PUSH2 0x1A06 JUMP JUMPDEST SWAP3 POP POP DUP2 SWAP1 SSTORE POP PUSH1 0x12 PUSH1 0xA PUSH2 0x697 SWAP2 SWAP1 PUSH2 0x18ED JUMP JUMPDEST PUSH1 0xA PUSH2 0x6A3 SWAP2 SWAP1 PUSH2 0x1937 JUMP JUMPDEST PUSH1 0x6 PUSH0 CALLER PUSH20 0xFFFFFFFFFFFFFFFFFFFFFFFFFFFFFFFFFFFFFFFF AND PUSH20 0xFFFFFFFFFFFFFFFFFFFFFFFFFFFFFFFFFFFFFFFF AND DUP2 MSTORE PUSH1 0x20 ADD SWAP1 DUP2 MSTORE PUSH1 0x20 ADD PUSH0 KECCAK256 PUSH0 DUP3 DUP3 SLOAD PUSH2 0x6EE SWAP2 SWAP1 PUSH2 0x1A06 JUMP JUMPDEST SWAP3 POP POP DUP2 SWAP1 SSTORE POP CALLER PUSH20 0xFFFFFFFFFFFFFFFFFFFFFFFFFFFFFFFFFFFFFFFF AND PUSH32 0xF6798A560793A54C3BCFE86A93CDE1E73087D944C0EA20544137D4121396885 PUSH1 0x12 PUSH1 0xA PUSH2 0x73B SWAP2 SWAP1 PUSH2 0x18ED JUMP JUMPDEST PUSH1 0xA PUSH2 0x747 SWAP2 SWAP1 PUSH2 0x1937 JUMP JUMPDEST PUSH1 0x40 MLOAD PUSH2 0x754 SWAP2 SWAP1 PUSH2 0x168B JUMP JUMPDEST PUSH1 0x40 MLOAD DUP1 SWAP2 SUB SWAP1 LOG2 CALLER PUSH20 0xFFFFFFFFFFFFFFFFFFFFFFFFFFFFFFFFFFFFFFFF AND PUSH0 PUSH20 0xFFFFFFFFFFFFFFFFFFFFFFFFFFFFFFFFFFFFFFFF AND PUSH32 0xDDF252AD1BE2C89B69C2B068FC378DAA952BA7F163C4A11628F55A4DF523B3EF PUSH1 0x12 PUSH1 0xA PUSH2 0x7B9 SWAP2 SWAP1 PUSH2 0x18ED JUMP JUMPDEST PUSH1 0xA PUSH2 0x7C5 SWAP2 SWAP1 PUSH2 0x1937 JUMP JUMPDEST PUSH1 0x40 MLOAD PUSH2 0x7D2 SWAP2 SWAP1 PUSH2 0x168B JUMP JUMPDEST PUSH1 0x40 MLOAD DUP1 SWAP2 SUB SWAP1 LOG3 PUSH1 0x1 SWAP1 POP SWAP1 JUMP JUMPDEST PUSH0 PUSH1 0x1 SLOAD SWAP1 POP SWAP1 JUMP JUMPDEST PUSH0 PUSH1 0x12 SWAP1 POP SWAP1 JUMP JUMPDEST PUSH0 PUSH0 PUSH20 0xFFFFFFFFFFFFFFFFFFFFFFFFFFFFFFFFFFFFFFFF AND DUP4 PUSH20 0xFFFFFFFFFFFFFFFFFFFFFFFFFFFFFFFFFFFFFFFF AND SUB PUSH2 0x861 JUMPI PUSH1 0x40 MLOAD PUSH32 0x8C379A000000000000000000000000000000000000000000000000000000000 DUP2 MSTORE PUSH1 0x4 ADD PUSH2 0x858 SWAP1 PUSH2 0x1B79 JUMP JUMPDEST PUSH1 0x40 MLOAD DUP1 SWAP2 SUB SWAP1 REVERT JUMPDEST PUSH0 PUSH1 0x12 PUSH1 0xA PUSH2 0x870 SWAP2 SWAP1 PUSH2 0x18ED JUMP JUMPDEST DUP4 PUSH2 0x87B SWAP2 SWAP1 PUSH2 0x1937 JUMP JUMPDEST SWAP1 POP DUP1 PUSH1 0x5 PUSH0 CALLER PUSH20 0xFFFFFFFFFFFFFFFFFFFFFFFFFFFFFFFFFFFFFFFF AND PUSH20 0xFFFFFFFFFFFFFFFFFFFFFFFFFFFFFFFFFFFFFFFF AND DUP2 MSTORE PUSH1 0x20 ADD SWAP1 DUP2 MSTORE PUSH1 0x20 ADD PUSH0 KECCAK256 PUSH0 DUP7 PUSH20 0xFFFFFFFFFFFFFFFFFFFFFFFFFFFFFFFFFFFFFFFF AND PUSH20 0xFFFFFFFFFFFFFFFFFFFFFFFFFFFFFFFFFFFFFFFF AND DUP2 MSTORE PUSH1 0x20 ADD SWAP1 DUP2 MSTORE PUSH1 0x20 ADD PUSH0 KECCAK256 PUSH0 DUP3 DUP3 SLOAD PUSH2 0x904 SWAP2 SWAP1 PUSH2 0x1A06 JUMP JUMPDEST SWAP3 POP POP DUP2 SWAP1 SSTORE POP DUP4 PUSH20 0xFFFFFFFFFFFFFFFFFFFFFFFFFFFFFFFFFFFFFFFF AND CALLER PUSH20 0xFFFFFFFFFFFFFFFFFFFFFFFFFFFFFFFFFFFFFFFF AND PUSH32 0x8C5BE1E5EBEC7D5BD14F71427D1E84F3DD0314C0F7B2291E5B200AC8C7C3B925 PUSH1 0x5 PUSH0 CALLER PUSH20 0xFFFFFFFFFFFFFFFFFFFFFFFFFFFFFFFFFFFFFFFF AND PUSH20 0xFFFFFFFFFFFFFFFFFFFFFFFFFFFFFFFFFFFFFFFF AND DUP2 MSTORE PUSH1 0x20 ADD SWAP1 DUP2 MSTORE PUSH1 0x20 ADD PUSH0 KECCAK256 PUSH0 DUP9 PUSH20 0xFFFFFFFFFFFFFFFFFFFFFFFFFFFFFFFFFFFFFFFF AND PUSH20 0xFFFFFFFFFFFFFFFFFFFFFFFFFFFFFFFFFFFFFFFF AND DUP2 MSTORE PUSH1 0x20 ADD SWAP1 DUP2 MSTORE PUSH1 0x20 ADD PUSH0 KECCAK256 SLOAD PUSH1 0x40 MLOAD PUSH2 0x9E0 SWAP2 SWAP1 PUSH2 0x168B JUMP JUMPDEST PUSH1 0x40 MLOAD DUP1 SWAP2 SUB SWAP1 LOG3 PUSH1 0x1 SWAP2 POP POP SWAP3 SWAP2 POP POP JUMP JUMPDEST PUSH0 PUSH0 PUSH0 SWAP1 SLOAD SWAP1 PUSH2 0x100 EXP SWAP1 DIV PUSH20 0xFFFFFFFFFFFFFFFFFFFFFFFFFFFFFFFFFFFFFFFF AND PUSH20 0xFFFFFFFFFFFFFFFFFFFFFFFFFFFFFFFFFFFFFFFF AND CALLER PUSH20 0xFFFFFFFFFFFFFFFFFFFFFFFFFFFFFFFFFFFFFFFF AND EQ PUSH2 0xA82 JUMPI PUSH1 0x40 MLOAD PUSH32 0x8C379A000000000000000000000000000000000000000000000000000000000 DUP2 MSTORE PUSH1 0x4 ADD PUSH2 0xA79 SWAP1 PUSH2 0x1BE1 JUMP JUMPDEST PUSH1 0x40 MLOAD DUP1 SWAP2 SUB SWAP1 REVERT JUMPDEST PUSH1 0x12 PUSH1 0xA PUSH2 0xA90 SWAP2 SWAP1 PUSH2 0x18ED JUMP JUMPDEST PUSH1 0xA PUSH2 0xA9C SWAP2 SWAP1 PUSH2 0x1937 JUMP JUMPDEST PUSH1 0x1 PUSH0 DUP3 DUP3 SLOAD PUSH2 0xAAC SWAP2 SWAP1 PUSH2 0x1BFF JUMP JUMPDEST SWAP3 POP POP DUP2 SWAP1 SSTORE POP PUSH0 PUSH20 0xFFFFFFFFFFFFFFFFFFFFFFFFFFFFFFFFFFFFFFFF AND PUSH0 PUSH0 SWAP1 SLOAD SWAP1 PUSH2 0x100 EXP SWAP1 DIV PUSH20 0xFFFFFFFFFFFFFFFFFFFFFFFFFFFFFFFFFFFFFFFF AND PUSH20 0xFFFFFFFFFFFFFFFFFFFFFFFFFFFFFFFFFFFFFFFF AND PUSH32 0xDDF252AD1BE2C89B69C2B068FC378DAA952BA7F163C4A11628F55A4DF523B3EF PUSH1 0x12 PUSH1 0xA PUSH2 0xB30 SWAP2 SWAP1 PUSH2 0x18ED JUMP JUMPDEST PUSH1 0xA PUSH2 0xB3C SWAP2 SWAP1 PUSH2 0x1937 JUMP JUMPDEST PUSH1 0x40 MLOAD PUSH2 0xB49 SWAP2 SWAP1 PUSH2 0x168B JUMP JUMPDEST PUSH1 0x40 MLOAD DUP1 SWAP2 SUB SWAP1 LOG3 PUSH1 0x1 SWAP1 POP SWAP1 JUMP JUMPDEST PUSH0 PUSH0 DUP3 SWAP1 POP PUSH0 PUSH20 0xFFFFFFFFFFFFFFFFFFFFFFFFFFFFFFFFFFFFFFFF AND DUP5 PUSH20 0xFFFFFFFFFFFFFFFFFFFFFFFFFFFFFFFFFFFFFFFF AND SUB PUSH2 0xBCB JUMPI PUSH1 0x40 MLOAD PUSH32 0x8C379A000000000000000000000000000000000000000000000000000000000 DUP2 MSTORE PUSH1 0x4 ADD PUSH2 0xBC2 SWAP1 PUSH2 0x1CA2 JUMP JUMPDEST PUSH1 0x40 MLOAD DUP1 SWAP2 SUB SWAP1 REVERT JUMPDEST PUSH1 0x4 PUSH0 DUP7 PUSH20 0xFFFFFFFFFFFFFFFFFFFFFFFFFFFFFFFFFFFFFFFF AND PUSH20 0xFFFFFFFFFFFFFFFFFFFFFFFFFFFFFFFFFFFFFFFF AND DUP2 MSTORE PUSH1 0x20 ADD SWAP1 DUP2 MSTORE PUSH1 0x20 ADD PUSH0 KECCAK256 SLOAD DUP2 GT ISZERO PUSH2 0xC4B JUMPI PUSH1 0x40 MLOAD PUSH32 0x8C379A000000000000000000000000000000000000000000000000000000000 DUP2 MSTORE PUSH1 0x4 ADD PUSH2 0xC42 SWAP1 PUSH2 0x1D0A JUMP JUMPDEST PUSH1 0x40 MLOAD DUP1 SWAP2 SUB SWAP1 REVERT JUMPDEST PUSH1 0x5 PUSH0 DUP7 PUSH20 0xFFFFFFFFFFFFFFFFFFFFFFFFFFFFFFFFFFFFFFFF AND PUSH20 0xFFFFFFFFFFFFFFFFFFFFFFFFFFFFFFFFFFFFFFFF AND DUP2 MSTORE PUSH1 0x20 ADD SWAP1 DUP2 MSTORE PUSH1 0x20 ADD PUSH0 KECCAK256 PUSH0 CALLER PUSH20 0xFFFFFFFFFFFFFFFFFFFFFFFFFFFFFFFFFFFFFFFF AND PUSH20 0xFFFFFFFFFFFFFFFFFFFFFFFFFFFFFFFFFFFFFFFF AND DUP2 MSTORE PUSH1 0x20 ADD SWAP1 DUP2 MSTORE PUSH1 0x20 ADD PUSH0 KECCAK256 SLOAD DUP2 GT ISZERO PUSH2 0xD06 JUMPI PUSH1 0x40 MLOAD PUSH32 0x8C379A000000000000000000000000000000000000000000000000000000000 DUP2 MSTORE PUSH1 0x4 ADD PUSH2 0xCFD SWAP1 PUSH2 0x1D72 JUMP JUMPDEST PUSH1 0x40 MLOAD DUP1 SWAP2 SUB SWAP1 REVERT JUMPDEST DUP1 PUSH1 0x4 PUSH0 DUP8 PUSH20 0xFFFFFFFFFFFFFFFFFFFFFFFFFFFFFFFFFFFFFFFF AND PUSH20 0xFFFFFFFFFFFFFFFFFFFFFFFFFFFFFFFFFFFFFFFF AND DUP2 MSTORE PUSH1 0x20 ADD SWAP1 DUP2 MSTORE PUSH1 0x20 ADD PUSH0 KECCAK256 PUSH0 DUP3 DUP3 SLOAD PUSH2 0xD52 SWAP2 SWAP1 PUSH2 0x1BFF JUMP JUMPDEST SWAP3 POP POP DUP2 SWAP1 SSTORE POP DUP1 PUSH1 0x4 PUSH0 DUP7 PUSH20 0xFFFFFFFFFFFFFFFFFFFFFFFFFFFFFFFFFFFFFFFF AND PUSH20 0xFFFFFFFFFFFFFFFFFFFFFFFFFFFFFFFFFFFFFFFF AND DUP2 MSTORE PUSH1 0x20 ADD SWAP1 DUP2 MSTORE PUSH1 0x20 ADD PUSH0 KECCAK256 PUSH0 DUP3 DUP3 SLOAD PUSH2 0xDA5 SWAP2 SWAP1 PUSH2 0x1A06 JUMP JUMPDEST SWAP3 POP POP DUP2 SWAP1 SSTORE POP DUP1 PUSH1 0x5 PUSH0 DUP8 PUSH20 0xFFFFFFFFFFFFFFFFFFFFFFFFFFFFFFFFFFFFFFFF AND PUSH20 0xFFFFFFFFFFFFFFFFFFFFFFFFFFFFFFFFFFFFFFFF AND DUP2 MSTORE PUSH1 0x20 ADD SWAP1 DUP2 MSTORE PUSH1 0x20 ADD PUSH0 KECCAK256 PUSH0 CALLER PUSH20 0xFFFFFFFFFFFFFFFFFFFFFFFFFFFFFFFFFFFFFFFF AND PUSH20 0xFFFFFFFFFFFFFFFFFFFFFFFFFFFFFFFFFFFFFFFF AND DUP2 MSTORE PUSH1 0x20 ADD SWAP1 DUP2 MSTORE PUSH1 0x20 ADD PUSH0 KECCAK256 PUSH0 DUP3 DUP3 SLOAD PUSH2 0xE33 SWAP2 SWAP1 PUSH2 0x1BFF JUMP JUMPDEST SWAP3 POP POP DUP2 SWAP1 SSTORE POP DUP4 PUSH20 0xFFFFFFFFFFFFFFFFFFFFFFFFFFFFFFFFFFFFFFFF AND DUP6 PUSH20 0xFFFFFFFFFFFFFFFFFFFFFFFFFFFFFFFFFFFFFFFF AND PUSH32 0xDDF252AD1BE2C89B69C2B068FC378DAA952BA7F163C4A11628F55A4DF523B3EF DUP4 PUSH1 0x40 MLOAD PUSH2 0xE97 SWAP2 SWAP1 PUSH2 0x168B JUMP JUMPDEST PUSH1 0x40 MLOAD DUP1 SWAP2 SUB SWAP1 LOG3 PUSH1 0x1 SWAP2 POP POP SWAP4 SWAP3 POP POP POP JUMP JUMPDEST PUSH0 PUSH1 0x4 PUSH0 DUP4 PUSH20 0xFFFFFFFFFFFFFFFFFFFFFFFFFFFFFFFFFFFFFFFF AND PUSH20 0xFFFFFFFFFFFFFFFFFFFFFFFFFFFFFFFFFFFFFFFF AND DUP2 MSTORE PUSH1 0x20 ADD SWAP1 DUP2 MSTORE PUSH1 0x20 ADD PUSH0 KECCAK256 SLOAD SWAP1 POP SWAP2 SWAP1 POP JUMP JUMPDEST PUSH1 0x60 PUSH1 0x40 MLOAD DUP1 PUSH1 0x40 ADD PUSH1 0x40 MSTORE DUP1 PUSH1 0x3 DUP2 MSTORE PUSH1 0x20 ADD PUSH32 0x5350440000000000000000000000000000000000000000000000000000000000 DUP2 MSTORE POP SWAP1 POP SWAP1 JUMP JUMPDEST PUSH0 PUSH0 PUSH1 0x3 SLOAD PUSH1 0x1 SLOAD PUSH2 0xF40 SWAP2 SWAP1 PUSH2 0x1BFF JUMP JUMPDEST SWAP1 POP DUP1 SWAP2 POP POP SWAP1 JUMP JUMPDEST PUSH0 PUSH0 PUSH20 0xFFFFFFFFFFFFFFFFFFFFFFFFFFFFFFFFFFFFFFFF AND DUP4 PUSH20 0xFFFFFFFFFFFFFFFFFFFFFFFFFFFFFFFFFFFFFFFF AND SUB PUSH2 0xFB8 JUMPI PUSH1 0x40 MLOAD PUSH32 0x8C379A000000000000000000000000000000000000000000000000000000000 DUP2 MSTORE PUSH1 0x4 ADD PUSH2 0xFAF SWAP1 PUSH2 0x1E00 JUMP JUMPDEST PUSH1 0x40 MLOAD DUP1 SWAP2 SUB SWAP1 REVERT JUMPDEST PUSH0 PUSH1 0x12 PUSH1 0xA PUSH2 0xFC7 SWAP2 SWAP1 PUSH2 0x18ED JUMP JUMPDEST DUP4 PUSH2 0xFD2 SWAP2 SWAP1 PUSH2 0x1937 JUMP JUMPDEST SWAP1 POP DUP1 PUSH1 0x5 PUSH0 CALLER PUSH20 0xFFFFFFFFFFFFFFFFFFFFFFFFFFFFFFFFFFFFFFFF AND PUSH20 0xFFFFFFFFFFFFFFFFFFFFFFFFFFFFFFFFFFFFFFFF AND DUP2 MSTORE PUSH1 0x20 ADD SWAP1 DUP2 MSTORE PUSH1 0x20 ADD PUSH0 KECCAK256 PUSH0 DUP7 PUSH20 0xFFFFFFFFFFFFFFFFFFFFFFFFFFFFFFFFFFFFFFFF AND PUSH20 0xFFFFFFFFFFFFFFFFFFFFFFFFFFFFFFFFFFFFFFFF AND DUP2 MSTORE PUSH1 0x20 ADD SWAP1 DUP2 MSTORE PUSH1 0x20 ADD PUSH0 KECCAK256 SLOAD LT ISZERO PUSH2 0x108F JUMPI PUSH1 0x40 MLOAD PUSH32 0x8C379A000000000000000000000000000000000000000000000000000000000 DUP2 MSTORE PUSH1 0x4 ADD PUSH2 0x1086 SWAP1 PUSH2 0x1E8E JUMP JUMPDEST PUSH1 0x40 MLOAD DUP1 SWAP2 SUB SWAP1 REVERT JUMPDEST DUP1 PUSH1 0x5 PUSH0 CALLER PUSH20 0xFFFFFFFFFFFFFFFFFFFFFFFFFFFFFFFFFFFFFFFF AND PUSH20 0xFFFFFFFFFFFFFFFFFFFFFFFFFFFFFFFFFFFFFFFF AND DUP2 MSTORE PUSH1 0x20 ADD SWAP1 DUP2 MSTORE PUSH1 0x20 ADD PUSH0 KECCAK256 PUSH0 DUP7 PUSH20 0xFFFFFFFFFFFFFFFFFFFFFFFFFFFFFFFFFFFFFFFF AND PUSH20 0xFFFFFFFFFFFFFFFFFFFFFFFFFFFFFFFFFFFFFFFF AND DUP2 MSTORE PUSH1 0x20 ADD SWAP1 DUP2 MSTORE PUSH1 0x20 ADD PUSH0 KECCAK256 PUSH0 DUP3 DUP3 SLOAD PUSH2 0x1116 SWAP2 SWAP1 PUSH2 0x1BFF JUMP JUMPDEST SWAP3 POP POP DUP2 SWAP1 SSTORE POP DUP4 PUSH20 0xFFFFFFFFFFFFFFFFFFFFFFFFFFFFFFFFFFFFFFFF AND CALLER PUSH20 0xFFFFFFFFFFFFFFFFFFFFFFFFFFFFFFFFFFFFFFFF AND PUSH32 0x8C5BE1E5EBEC7D5BD14F71427D1E84F3DD0314C0F7B2291E5B200AC8C7C3B925 PUSH1 0x5 PUSH0 CALLER PUSH20 0xFFFFFFFFFFFFFFFFFFFFFFFFFFFFFFFFFFFFFFFF AND PUSH20 0xFFFFFFFFFFFFFFFFFFFFFFFFFFFFFFFFFFFFFFFF AND DUP2 MSTORE PUSH1 0x20 ADD SWAP1 DUP2 MSTORE PUSH1 0x20 ADD PUSH0 KECCAK256 PUSH0 DUP9 PUSH20 0xFFFFFFFFFFFFFFFFFFFFFFFFFFFFFFFFFFFFFFFF AND PUSH20 0xFFFFFFFFFFFFFFFFFFFFFFFFFFFFFFFFFFFFFFFF AND DUP2 MSTORE PUSH1 0x20 ADD SWAP1 DUP2 MSTORE PUSH1 0x20 ADD PUSH0 KECCAK256 SLOAD PUSH1 0x40 MLOAD PUSH2 0x11F2 SWAP2 SWAP1 PUSH2 0x168B JUMP JUMPDEST PUSH1 0x40 MLOAD DUP1 SWAP2 SUB SWAP1 LOG3 PUSH1 0x1 SWAP2 POP POP SWAP3 SWAP2 POP POP JUMP JUMPDEST PUSH0 PUSH0 PUSH1 0x12 PUSH1 0xA PUSH2 0x1215 SWAP2 SWAP1 PUSH2 0x18ED JUMP JUMPDEST DUP4 PUSH2 0x1220 SWAP2 SWAP1 PUSH2 0x1937 JUMP JUMPDEST SWAP1 POP PUSH0 DUP2 GT PUSH2 0x1264 JUMPI PUSH1 0x40 MLOAD PUSH32 0x8C379A000000000000000000000000000000000000000000000000000000000 DUP2 MSTORE PUSH1 0x4 ADD PUSH2 0x125B SWAP1 PUSH2 0x1EF6 JUMP JUMPDEST PUSH1 0x40 MLOAD DUP1 SWAP2 SUB SWAP1 REVERT JUMPDEST PUSH0 PUSH20 0xFFFFFFFFFFFFFFFFFFFFFFFFFFFFFFFFFFFFFFFF AND DUP5 PUSH20 0xFFFFFFFFFFFFFFFFFFFFFFFFFFFFFFFFFFFFFFFF AND SUB PUSH2 0x12D2 JUMPI PUSH1 0x40 MLOAD PUSH32 0x8C379A000000000000000000000000000000000000000000000000000000000 DUP2 MSTORE PUSH1 0x4 ADD PUSH2 0x12C9 SWAP1 PUSH2 0x1F84 JUMP JUMPDEST PUSH1 0x40 MLOAD DUP1 SWAP2 SUB SWAP1 REVERT JUMPDEST DUP1 PUSH1 0x4 PUSH0 CALLER PUSH20 0xFFFFFFFFFFFFFFFFFFFFFFFFFFFFFFFFFFFFFFFF AND PUSH20 0xFFFFFFFFFFFFFFFFFFFFFFFFFFFFFFFFFFFFFFFF AND DUP2 MSTORE PUSH1 0x20 ADD SWAP1 DUP2 MSTORE PUSH1 0x20 ADD PUSH0 KECCAK256 SLOAD LT ISZERO PUSH2 0x1352 JUMPI PUSH1 0x40 MLOAD PUSH32 0x8C379A000000000000000000000000000000000000000000000000000000000 DUP2 MSTORE PUSH1 0x4 ADD PUSH2 0x1349 SWAP1 PUSH2 0x1D0A JUMP JUMPDEST PUSH1 0x40 MLOAD DUP1 SWAP2 SUB SWAP1 REVERT JUMPDEST DUP1 PUSH1 0x4 PUSH0 CALLER PUSH20 0xFFFFFFFFFFFFFFFFFFFFFFFFFFFFFFFFFFFFFFFF AND PUSH20 0xFFFFFFFFFFFFFFFFFFFFFFFFFFFFFFFFFFFFFFFF AND DUP2 MSTORE PUSH1 0x20 ADD SWAP1 DUP2 MSTORE PUSH1 0x20 ADD PUSH0 KECCAK256 PUSH0 DUP3 DUP3 SLOAD PUSH2 0x139E SWAP2 SWAP1 PUSH2 0x1BFF JUMP JUMPDEST SWAP3 POP POP DUP2 SWAP1 SSTORE POP DUP1 PUSH1 0x4 PUSH0 DUP7 PUSH20 0xFFFFFFFFFFFFFFFFFFFFFFFFFFFFFFFFFFFFFFFF AND PUSH20 0xFFFFFFFFFFFFFFFFFFFFFFFFFFFFFFFFFFFFFFFF AND DUP2 MSTORE PUSH1 0x20 ADD SWAP1 DUP2 MSTORE PUSH1 0x20 ADD PUSH0 KECCAK256 PUSH0 DUP3 DUP3 SLOAD PUSH2 0x13F1 SWAP2 SWAP1 PUSH2 0x1A06 JUMP JUMPDEST SWAP3 POP POP DUP2 SWAP1 SSTORE POP DUP4 PUSH20 0xFFFFFFFFFFFFFFFFFFFFFFFFFFFFFFFFFFFFFFFF AND CALLER PUSH20 0xFFFFFFFFFFFFFFFFFFFFFFFFFFFFFFFFFFFFFFFF AND PUSH32 0xDDF252AD1BE2C89B69C2B068FC378DAA952BA7F163C4A11628F55A4DF523B3EF DUP4 PUSH1 0x40 MLOAD PUSH2 0x1455 SWAP2 SWAP1 PUSH2 0x168B JUMP JUMPDEST PUSH1 0x40 MLOAD DUP1 SWAP2 SUB SWAP1 LOG3 PUSH1 0x1 SWAP2 POP POP SWAP3 SWAP2 POP POP JUMP JUMPDEST PUSH0 PUSH1 0x5 PUSH0 DUP5 PUSH20 0xFFFFFFFFFFFFFFFFFFFFFFFFFFFFFFFFFFFFFFFF AND PUSH20 0xFFFFFFFFFFFFFFFFFFFFFFFFFFFFFFFFFFFFFFFF AND DUP2 MSTORE PUSH1 0x20 ADD SWAP1 DUP2 MSTORE PUSH1 0x20 ADD PUSH0 KECCAK256 PUSH0 DUP4 PUSH20 0xFFFFFFFFFFFFFFFFFFFFFFFFFFFFFFFFFFFFFFFF AND PUSH20 0xFFFFFFFFFFFFFFFFFFFFFFFFFFFFFFFFFFFFFFFF AND DUP2 MSTORE PUSH1 0x20 ADD SWAP1 DUP2 MSTORE PUSH1 0x20 ADD PUSH0 KECCAK256 SLOAD SWAP1 POP SWAP3 SWAP2 POP POP JUMP JUMPDEST PUSH0 DUP2 MLOAD SWAP1 POP SWAP2 SWAP1 POP JUMP JUMPDEST PUSH0 DUP3 DUP3 MSTORE PUSH1 0x20 DUP3 ADD SWAP1 POP SWAP3 SWAP2 POP POP JUMP JUMPDEST DUP3 DUP2 DUP4 MCOPY PUSH0 DUP4 DUP4 ADD MSTORE POP POP POP JUMP JUMPDEST PUSH0 PUSH1 0x1F NOT PUSH1 0x1F DUP4 ADD AND SWAP1 POP SWAP2 SWAP1 POP JUMP JUMPDEST PUSH0 PUSH2 0x152C DUP3 PUSH2 0x14EA JUMP JUMPDEST PUSH2 0x1536 DUP2 DUP6 PUSH2 0x14F4 JUMP JUMPDEST SWAP4 POP PUSH2 0x1546 DUP2 DUP6 PUSH1 0x20 DUP7 ADD PUSH2 0x1504 JUMP JUMPDEST PUSH2 0x154F DUP2 PUSH2 0x1512 JUMP JUMPDEST DUP5 ADD SWAP2 POP POP SWAP3 SWAP2 POP POP JUMP JUMPDEST PUSH0 PUSH1 0x20 DUP3 ADD SWAP1 POP DUP2 DUP2 SUB PUSH0 DUP4 ADD MSTORE PUSH2 0x1572 DUP2 DUP5 PUSH2 0x1522 JUMP JUMPDEST SWAP1 POP SWAP3 SWAP2 POP POP JUMP JUMPDEST PUSH0 PUSH0 REVERT JUMPDEST PUSH0 PUSH20 0xFFFFFFFFFFFFFFFFFFFFFFFFFFFFFFFFFFFFFFFF DUP3 AND SWAP1 POP SWAP2 SWAP1 POP JUMP JUMPDEST PUSH0 PUSH2 0x15A7 DUP3 PUSH2 0x157E JUMP JUMPDEST SWAP1 POP SWAP2 SWAP1 POP JUMP JUMPDEST PUSH2 0x15B7 DUP2 PUSH2 0x159D JUMP JUMPDEST DUP2 EQ PUSH2 0x15C1 JUMPI PUSH0 PUSH0 REVERT JUMPDEST POP JUMP JUMPDEST PUSH0 DUP2 CALLDATALOAD SWAP1 POP PUSH2 0x15D2 DUP2 PUSH2 0x15AE JUMP JUMPDEST SWAP3 SWAP2 POP POP JUMP JUMPDEST PUSH0 DUP2 SWAP1 POP SWAP2 SWAP1 POP JUMP JUMPDEST PUSH2 0x15EA DUP2 PUSH2 0x15D8 JUMP JUMPDEST DUP2 EQ PUSH2 0x15F4 JUMPI PUSH0 PUSH0 REVERT JUMPDEST POP JUMP JUMPDEST PUSH0 DUP2 CALLDATALOAD SWAP1 POP PUSH2 0x1605 DUP2 PUSH2 0x15E1 JUMP JUMPDEST SWAP3 SWAP2 POP POP JUMP JUMPDEST PUSH0 PUSH0 PUSH1 0x40 DUP4 DUP6 SUB SLT ISZERO PUSH2 0x1621 JUMPI PUSH2 0x1620 PUSH2 0x157A JUMP JUMPDEST JUMPDEST PUSH0 PUSH2 0x162E DUP6 DUP3 DUP7 ADD PUSH2 0x15C4 JUMP JUMPDEST SWAP3 POP POP PUSH1 0x20 PUSH2 0x163F DUP6 DUP3 DUP7 ADD PUSH2 0x15F7 JUMP JUMPDEST SWAP2 POP POP SWAP3 POP SWAP3 SWAP1 POP JUMP JUMPDEST PUSH0 DUP2 ISZERO ISZERO SWAP1 POP SWAP2 SWAP1 POP JUMP JUMPDEST PUSH2 0x165D DUP2 PUSH2 0x1649 JUMP JUMPDEST DUP3 MSTORE POP POP JUMP JUMPDEST PUSH0 PUSH1 0x20 DUP3 ADD SWAP1 POP PUSH2 0x1676 PUSH0 DUP4 ADD DUP5 PUSH2 0x1654 JUMP JUMPDEST SWAP3 SWAP2 POP POP JUMP JUMPDEST PUSH2 0x1685 DUP2 PUSH2 0x15D8 JUMP JUMPDEST DUP3 MSTORE POP POP JUMP JUMPDEST PUSH0 PUSH1 0x20 DUP3 ADD SWAP1 POP PUSH2 0x169E PUSH0 DUP4 ADD DUP5 PUSH2 0x167C JUMP JUMPDEST SWAP3 SWAP2 POP POP JUMP JUMPDEST PUSH0 PUSH1 0xFF DUP3 AND SWAP1 POP SWAP2 SWAP1 POP JUMP JUMPDEST PUSH2 0x16B9 DUP2 PUSH2 0x16A4 JUMP JUMPDEST DUP3 MSTORE POP POP JUMP JUMPDEST PUSH0 PUSH1 0x20 DUP3 ADD SWAP1 POP PUSH2 0x16D2 PUSH0 DUP4 ADD DUP5 PUSH2 0x16B0 JUMP JUMPDEST SWAP3 SWAP2 POP POP JUMP JUMPDEST PUSH0 PUSH0 PUSH0 PUSH1 0x60 DUP5 DUP7 SUB SLT ISZERO PUSH2 0x16EF JUMPI PUSH2 0x16EE PUSH2 0x157A JUMP JUMPDEST JUMPDEST PUSH0 PUSH2 0x16FC DUP7 DUP3 DUP8 ADD PUSH2 0x15C4 JUMP JUMPDEST SWAP4 POP POP PUSH1 0x20 PUSH2 0x170D DUP7 DUP3 DUP8 ADD PUSH2 0x15C4 JUMP JUMPDEST SWAP3 POP POP PUSH1 0x40 PUSH2 0x171E DUP7 DUP3 DUP8 ADD PUSH2 0x15F7 JUMP JUMPDEST SWAP2 POP POP SWAP3 POP SWAP3 POP SWAP3 JUMP JUMPDEST PUSH0 PUSH1 0x20 DUP3 DUP5 SUB SLT ISZERO PUSH2 0x173D JUMPI PUSH2 0x173C PUSH2 0x157A JUMP JUMPDEST JUMPDEST PUSH0 PUSH2 0x174A DUP5 DUP3 DUP6 ADD PUSH2 0x15C4 JUMP JUMPDEST SWAP2 POP POP SWAP3 SWAP2 POP POP JUMP JUMPDEST PUSH0 PUSH0 PUSH1 0x40 DUP4 DUP6 SUB SLT ISZERO PUSH2 0x1769 JUMPI PUSH2 0x1768 PUSH2 0x157A JUMP JUMPDEST JUMPDEST PUSH0 PUSH2 0x1776 DUP6 DUP3 DUP7 ADD PUSH2 0x15C4 JUMP JUMPDEST SWAP3 POP POP PUSH1 0x20 PUSH2 0x1787 DUP6 DUP3 DUP7 ADD PUSH2 0x15C4 JUMP JUMPDEST SWAP2 POP POP SWAP3 POP SWAP3 SWAP1 POP JUMP JUMPDEST PUSH32 0x4E487B7100000000000000000000000000000000000000000000000000000000 PUSH0 MSTORE PUSH1 0x11 PUSH1 0x4 MSTORE PUSH1 0x24 PUSH0 REVERT JUMPDEST PUSH0 DUP2 PUSH1 0x1 SHR SWAP1 POP SWAP2 SWAP1 POP JUMP JUMPDEST PUSH0 PUSH0 DUP3 SWAP2 POP DUP4 SWAP1 POP JUMPDEST PUSH1 0x1 DUP6 GT ISZERO PUSH2 0x1813 JUMPI DUP1 DUP7 DIV DUP2 GT ISZERO PUSH2 0x17EF JUMPI PUSH2 0x17EE PUSH2 0x1791 JUMP JUMPDEST JUMPDEST PUSH1 0x1 DUP6 AND ISZERO PUSH2 0x17FE JUMPI DUP1 DUP3 MUL SWAP2 POP JUMPDEST DUP1 DUP2 MUL SWAP1 POP PUSH2 0x180C DUP6 PUSH2 0x17BE JUMP JUMPDEST SWAP5 POP PUSH2 0x17D3 JUMP JUMPDEST SWAP5 POP SWAP5 SWAP3 POP POP POP JUMP JUMPDEST PUSH0 DUP3 PUSH2 0x182B JUMPI PUSH1 0x1 SWAP1 POP PUSH2 0x18E6 JUMP JUMPDEST DUP2 PUSH2 0x1838 JUMPI PUSH0 SWAP1 POP PUSH2 0x18E6 JUMP JUMPDEST DUP2 PUSH1 0x1 DUP2 EQ PUSH2 0x184E JUMPI PUSH1 0x2 DUP2 EQ PUSH2 0x1858 JUMPI PUSH2 0x1887 JUMP JUMPDEST PUSH1 0x1 SWAP2 POP POP PUSH2 0x18E6 JUMP JUMPDEST PUSH1 0xFF DUP5 GT ISZERO PUSH2 0x186A JUMPI PUSH2 0x1869 PUSH2 0x1791 JUMP JUMPDEST JUMPDEST DUP4 PUSH1 0x2 EXP SWAP2 POP DUP5 DUP3 GT ISZERO PUSH2 0x1881 JUMPI PUSH2 0x1880 PUSH2 0x1791 JUMP JUMPDEST JUMPDEST POP PUSH2 0x18E6 JUMP JUMPDEST POP PUSH1 0x20 DUP4 LT PUSH2 0x133 DUP4 LT AND PUSH1 0x4E DUP5 LT PUSH1 0xB DUP5 LT AND OR ISZERO PUSH2 0x18BC JUMPI DUP3 DUP3 EXP SWAP1 POP DUP4 DUP2 GT ISZERO PUSH2 0x18B7 JUMPI PUSH2 0x18B6 PUSH2 0x1791 JUMP JUMPDEST JUMPDEST PUSH2 0x18E6 JUMP JUMPDEST PUSH2 0x18C9 DUP5 DUP5 DUP5 PUSH1 0x1 PUSH2 0x17CA JUMP JUMPDEST SWAP3 POP SWAP1 POP DUP2 DUP5 DIV DUP2 GT ISZERO PUSH2 0x18E0 JUMPI PUSH2 0x18DF PUSH2 0x1791 JUMP JUMPDEST JUMPDEST DUP2 DUP2 MUL SWAP1 POP JUMPDEST SWAP4 SWAP3 POP POP POP JUMP JUMPDEST PUSH0 PUSH2 0x18F7 DUP3 PUSH2 0x15D8 JUMP JUMPDEST SWAP2 POP PUSH2 0x1902 DUP4 PUSH2 0x16A4 JUMP JUMPDEST SWAP3 POP PUSH2 0x192F PUSH32 0xFFFFFFFFFFFFFFFFFFFFFFFFFFFFFFFFFFFFFFFFFFFFFFFFFFFFFFFFFFFFFFFF DUP5 DUP5 PUSH2 0x181C JUMP JUMPDEST SWAP1 POP SWAP3 SWAP2 POP POP JUMP JUMPDEST PUSH0 PUSH2 0x1941 DUP3 PUSH2 0x15D8 JUMP JUMPDEST SWAP2 POP PUSH2 0x194C DUP4 PUSH2 0x15D8 JUMP JUMPDEST SWAP3 POP DUP3 DUP3 MUL PUSH2 0x195A DUP2 PUSH2 0x15D8 JUMP JUMPDEST SWAP2 POP DUP3 DUP3 DIV DUP5 EQ DUP4 ISZERO OR PUSH2 0x1971 JUMPI PUSH2 0x1970 PUSH2 0x1791 JUMP JUMPDEST JUMPDEST POP SWAP3 SWAP2 POP POP JUMP JUMPDEST PUSH32 0x43616E6E6F7420617070726F766520616D6F756E7420746F2061207A65726F20 PUSH0 DUP3 ADD MSTORE PUSH32 0x6164647265737300000000000000000000000000000000000000000000000000 PUSH1 0x20 DUP3 ADD MSTORE POP JUMP JUMPDEST PUSH0 PUSH2 0x19D2 PUSH1 0x27 DUP4 PUSH2 0x14F4 JUMP JUMPDEST SWAP2 POP PUSH2 0x19DD DUP3 PUSH2 0x1978 JUMP JUMPDEST PUSH1 0x40 DUP3 ADD SWAP1 POP SWAP2 SWAP1 POP JUMP JUMPDEST PUSH0 PUSH1 0x20 DUP3 ADD SWAP1 POP DUP2 DUP2 SUB PUSH0 DUP4 ADD MSTORE PUSH2 0x19FF DUP2 PUSH2 0x19C6 JUMP JUMPDEST SWAP1 POP SWAP2 SWAP1 POP JUMP JUMPDEST PUSH0 PUSH2 0x1A10 DUP3 PUSH2 0x15D8 JUMP JUMPDEST SWAP2 POP PUSH2 0x1A1B DUP4 PUSH2 0x15D8 JUMP JUMPDEST SWAP3 POP DUP3 DUP3 ADD SWAP1 POP DUP1 DUP3 GT ISZERO PUSH2 0x1A33 JUMPI PUSH2 0x1A32 PUSH2 0x1791 JUMP JUMPDEST JUMPDEST SWAP3 SWAP2 POP POP JUMP JUMPDEST PUSH32 0x4E6F206D6F726520746F74616C537570706C7900000000000000000000000000 PUSH0 DUP3 ADD MSTORE POP JUMP JUMPDEST PUSH0 PUSH2 0x1A6D PUSH1 0x13 DUP4 PUSH2 0x14F4 JUMP JUMPDEST SWAP2 POP PUSH2 0x1A78 DUP3 PUSH2 0x1A39 JUMP JUMPDEST PUSH1 0x20 DUP3 ADD SWAP1 POP SWAP2 SWAP1 POP JUMP JUMPDEST PUSH0 PUSH1 0x20 DUP3 ADD SWAP1 POP DUP2 DUP2 SUB PUSH0 DUP4 ADD MSTORE PUSH2 0x1A9A DUP2 PUSH2 0x1A61 JUMP JUMPDEST SWAP1 POP SWAP2 SWAP1 POP JUMP JUMPDEST PUSH32 0x4D6178696D756D206C696D697420726561636865640000000000000000000000 PUSH0 DUP3 ADD MSTORE POP JUMP JUMPDEST PUSH0 PUSH2 0x1AD5 PUSH1 0x15 DUP4 PUSH2 0x14F4 JUMP JUMPDEST SWAP2 POP PUSH2 0x1AE0 DUP3 PUSH2 0x1AA1 JUMP JUMPDEST PUSH1 0x20 DUP3 ADD SWAP1 POP SWAP2 SWAP1 POP JUMP JUMPDEST PUSH0 PUSH1 0x20 DUP3 ADD SWAP1 POP DUP2 DUP2 SUB PUSH0 DUP4 ADD MSTORE PUSH2 0x1B02 DUP2 PUSH2 0x1AC9 JUMP JUMPDEST SWAP1 POP SWAP2 SWAP1 POP JUMP JUMPDEST PUSH32 0x43616E6E6F7420696E63726561736520616C6C6F77616E636520746F20616464 PUSH0 DUP3 ADD MSTORE PUSH32 0x726573732076616C7565205A65726F0000000000000000000000000000000000 PUSH1 0x20 DUP3 ADD MSTORE POP JUMP JUMPDEST PUSH0 PUSH2 0x1B63 PUSH1 0x2F DUP4 PUSH2 0x14F4 JUMP JUMPDEST SWAP2 POP PUSH2 0x1B6E DUP3 PUSH2 0x1B09 JUMP JUMPDEST PUSH1 0x40 DUP3 ADD SWAP1 POP SWAP2 SWAP1 POP JUMP JUMPDEST PUSH0 PUSH1 0x20 DUP3 ADD SWAP1 POP DUP2 DUP2 SUB PUSH0 DUP4 ADD MSTORE PUSH2 0x1B90 DUP2 PUSH2 0x1B57 JUMP JUMPDEST SWAP1 POP SWAP2 SWAP1 POP JUMP JUMPDEST PUSH32 0x6F6E6C79206F776E65722063616E2063616C6C00000000000000000000000000 PUSH0 DUP3 ADD MSTORE POP JUMP JUMPDEST PUSH0 PUSH2 0x1BCB PUSH1 0x13 DUP4 PUSH2 0x14F4 JUMP JUMPDEST SWAP2 POP PUSH2 0x1BD6 DUP3 PUSH2 0x1B97 JUMP JUMPDEST PUSH1 0x20 DUP3 ADD SWAP1 POP SWAP2 SWAP1 POP JUMP JUMPDEST PUSH0 PUSH1 0x20 DUP3 ADD SWAP1 POP DUP2 DUP2 SUB PUSH0 DUP4 ADD MSTORE PUSH2 0x1BF8 DUP2 PUSH2 0x1BBF JUMP JUMPDEST SWAP1 POP SWAP2 SWAP1 POP JUMP JUMPDEST PUSH0 PUSH2 0x1C09 DUP3 PUSH2 0x15D8 JUMP JUMPDEST SWAP2 POP PUSH2 0x1C14 DUP4 PUSH2 0x15D8 JUMP JUMPDEST SWAP3 POP DUP3 DUP3 SUB SWAP1 POP DUP2 DUP2 GT ISZERO PUSH2 0x1C2C JUMPI PUSH2 0x1C2B PUSH2 0x1791 JUMP JUMPDEST JUMPDEST SWAP3 SWAP2 POP POP JUMP JUMPDEST PUSH32 0x43616E6E6F74207472616E7366657220746F207A65726F2076616C7565206164 PUSH0 DUP3 ADD MSTORE PUSH32 0x6472657373000000000000000000000000000000000000000000000000000000 PUSH1 0x20 DUP3 ADD MSTORE POP JUMP JUMPDEST PUSH0 PUSH2 0x1C8C PUSH1 0x25 DUP4 PUSH2 0x14F4 JUMP JUMPDEST SWAP2 POP PUSH2 0x1C97 DUP3 PUSH2 0x1C32 JUMP JUMPDEST PUSH1 0x40 DUP3 ADD SWAP1 POP SWAP2 SWAP1 POP JUMP JUMPDEST PUSH0 PUSH1 0x20 DUP3 ADD SWAP1 POP DUP2 DUP2 SUB PUSH0 DUP4 ADD MSTORE PUSH2 0x1CB9 DUP2 PUSH2 0x1C80 JUMP JUMPDEST SWAP1 POP SWAP2 SWAP1 POP JUMP JUMPDEST PUSH32 0x496E73756666696369656E742062616C616E6365000000000000000000000000 PUSH0 DUP3 ADD MSTORE POP JUMP JUMPDEST PUSH0 PUSH2 0x1CF4 PUSH1 0x14 DUP4 PUSH2 0x14F4 JUMP JUMPDEST SWAP2 POP PUSH2 0x1CFF DUP3 PUSH2 0x1CC0 JUMP JUMPDEST PUSH1 0x20 DUP3 ADD SWAP1 POP SWAP2 SWAP1 POP JUMP JUMPDEST PUSH0 PUSH1 0x20 DUP3 ADD SWAP1 POP DUP2 DUP2 SUB PUSH0 DUP4 ADD MSTORE PUSH2 0x1D21 DUP2 PUSH2 0x1CE8 JUMP JUMPDEST SWAP1 POP SWAP2 SWAP1 POP JUMP JUMPDEST PUSH32 0x616C6C6F77616E63652065786365656465640000000000000000000000000000 PUSH0 DUP3 ADD MSTORE POP JUMP JUMPDEST PUSH0 PUSH2 0x1D5C PUSH1 0x12 DUP4 PUSH2 0x14F4 JUMP JUMPDEST SWAP2 POP PUSH2 0x1D67 DUP3 PUSH2 0x1D28 JUMP JUMPDEST PUSH1 0x20 DUP3 ADD SWAP1 POP SWAP2 SWAP1 POP JUMP JUMPDEST PUSH0 PUSH1 0x20 DUP3 ADD SWAP1 POP DUP2 DUP2 SUB PUSH0 DUP4 ADD MSTORE PUSH2 0x1D89 DUP2 PUSH2 0x1D50 JUMP JUMPDEST SWAP1 POP SWAP2 SWAP1 POP JUMP JUMPDEST PUSH32 0x63616E6E6F7420646563726561736520616C6C6F77616E636520746F20616464 PUSH0 DUP3 ADD MSTORE PUSH32 0x726573732076616C7565205A65726F0000000000000000000000000000000000 PUSH1 0x20 DUP3 ADD MSTORE POP JUMP JUMPDEST PUSH0 PUSH2 0x1DEA PUSH1 0x2F DUP4 PUSH2 0x14F4 JUMP JUMPDEST SWAP2 POP PUSH2 0x1DF5 DUP3 PUSH2 0x1D90 JUMP JUMPDEST PUSH1 0x40 DUP3 ADD SWAP1 POP SWAP2 SWAP1 POP JUMP JUMPDEST PUSH0 PUSH1 0x20 DUP3 ADD SWAP1 POP DUP2 DUP2 SUB PUSH0 DUP4 ADD MSTORE PUSH2 0x1E17 DUP2 PUSH2 0x1DDE JUMP JUMPDEST SWAP1 POP SWAP2 SWAP1 POP JUMP JUMPDEST PUSH32 0x496E73756666696369656E7420616C6C6F77616E63652062616C616E63652074 PUSH0 DUP3 ADD MSTORE PUSH32 0x6F20646563726561736500000000000000000000000000000000000000000000 PUSH1 0x20 DUP3 ADD MSTORE POP JUMP JUMPDEST PUSH0 PUSH2 0x1E78 PUSH1 0x2A DUP4 PUSH2 0x14F4 JUMP JUMPDEST SWAP2 POP PUSH2 0x1E83 DUP3 PUSH2 0x1E1E JUMP JUMPDEST PUSH1 0x40 DUP3 ADD SWAP1 POP SWAP2 SWAP1 POP JUMP JUMPDEST PUSH0 PUSH1 0x20 DUP3 ADD SWAP1 POP DUP2 DUP2 SUB PUSH0 DUP4 ADD MSTORE PUSH2 0x1EA5 DUP2 PUSH2 0x1E6C JUMP JUMPDEST SWAP1 POP SWAP2 SWAP1 POP JUMP JUMPDEST PUSH32 0x5472616E736665722076616C7565206D757374206265203E2030000000000000 PUSH0 DUP3 ADD MSTORE POP JUMP JUMPDEST PUSH0 PUSH2 0x1EE0 PUSH1 0x1A DUP4 PUSH2 0x14F4 JUMP JUMPDEST SWAP2 POP PUSH2 0x1EEB DUP3 PUSH2 0x1EAC JUMP JUMPDEST PUSH1 0x20 DUP3 ADD SWAP1 POP SWAP2 SWAP1 POP JUMP JUMPDEST PUSH0 PUSH1 0x20 DUP3 ADD SWAP1 POP DUP2 DUP2 SUB PUSH0 DUP4 ADD MSTORE PUSH2 0x1F0D DUP2 PUSH2 0x1ED4 JUMP JUMPDEST SWAP1 POP SWAP2 SWAP1 POP JUMP JUMPDEST PUSH32 0x43616E6E6F74207472616E7366657220746F20616464726573732076616C7565 PUSH0 DUP3 ADD MSTORE PUSH32 0x205A65726F000000000000000000000000000000000000000000000000000000 PUSH1 0x20 DUP3 ADD MSTORE POP JUMP JUMPDEST PUSH0 PUSH2 0x1F6E PUSH1 0x25 DUP4 PUSH2 0x14F4 JUMP JUMPDEST SWAP2 POP PUSH2 0x1F79 DUP3 PUSH2 0x1F14 JUMP JUMPDEST PUSH1 0x40 DUP3 ADD SWAP1 POP SWAP2 SWAP1 POP JUMP JUMPDEST PUSH0 PUSH1 0x20 DUP3 ADD SWAP1 POP DUP2 DUP2 SUB PUSH0 DUP4 ADD MSTORE PUSH2 0x1F9B DUP2 PUSH2 0x1F62 JUMP JUMPDEST SWAP1 POP SWAP2 SWAP1 POP JUMP INVALID LOG2 PUSH5 0x6970667358 0x22 SLT KECCAK256 0xC8 PUSH12 0xA6731381126871B158D77018 0xA9 EQ 0xA8 MCOPY 0x2D MLOAD SWAP1 DUP4 0xCE SWAP12 SAR PUSH17 0xFB18BF1EC1F064736F6C634300081E0033 "
				},
				"gasEstimates": {
					"creation": {
						"codeDepositCost": "1630400",
						"executionCost": "infinite",
						"totalCost": "infinite"
					},
					"external": {
						"allowance(address,address)": "infinite",
						"approve(address,uint256)": "infinite",
						"balanceOf(address)": "2874",
						"burn()": "infinite",
						"decimals()": "383",
						"decreaseAllowance(address,uint256)": "infinite",
						"increaseAllowance(address,uint256)": "infinite",
						"mint()": "infinite",
						"name()": "infinite",
						"symbol()": "infinite",
						"tokenLeft()": "infinite",
						"totalSupply()": "2455",
						"transfer(address,uint256)": "infinite",
						"transferfrom(address,address,uint256)": "infinite"
					}
				},
				"methodIdentifiers": {
					"allowance(address,address)": "dd62ed3e",
					"approve(address,uint256)": "095ea7b3",
					"balanceOf(address)": "70a08231",
					"burn()": "44df8e70",
					"decimals()": "313ce567",
					"decreaseAllowance(address,uint256)": "a457c2d7",
					"increaseAllowance(address,uint256)": "39509351",
					"mint()": "1249c58b",
					"name()": "06fdde03",
					"symbol()": "95d89b41",
					"tokenLeft()": "9679dd7d",
					"totalSupply()": "18160ddd",
					"transfer(address,uint256)": "a9059cbb",
					"transferfrom(address,address,uint256)": "63b0545f"
				}
			},
			"storageLayout": {
				"storage": [
					{
						"astId": 12,
						"contract": "dharan-token/contracts/own/SpidyToken.sol:SpidyToken",
						"label": "owner",
						"offset": 0,
						"slot": "0",
						"type": "t_address"
					},
					{
						"astId": 14,
						"contract": "dharan-token/contracts/own/SpidyToken.sol:SpidyToken",
						"label": "_totalSupply",
						"offset": 0,
						"slot": "1",
						"type": "t_uint256"
					},
					{
						"astId": 16,
						"contract": "dharan-token/contracts/own/SpidyToken.sol:SpidyToken",
						"label": "_initialSupply",
						"offset": 0,
						"slot": "2",
						"type": "t_uint256"
					},
					{
						"astId": 18,
						"contract": "dharan-token/contracts/own/SpidyToken.sol:SpidyToken",
						"label": "_mintedSupply",
						"offset": 0,
						"slot": "3",
						"type": "t_uint256"
					},
					{
						"astId": 60,
						"contract": "dharan-token/contracts/own/SpidyToken.sol:SpidyToken",
						"label": "_balanceOf",
						"offset": 0,
						"slot": "4",
						"type": "t_mapping(t_address,t_uint256)"
					},
					{
						"astId": 66,
						"contract": "dharan-token/contracts/own/SpidyToken.sol:SpidyToken",
						"label": "_allowance",
						"offset": 0,
						"slot": "5",
						"type": "t_mapping(t_address,t_mapping(t_address,t_uint256))"
					},
					{
						"astId": 70,
						"contract": "dharan-token/contracts/own/SpidyToken.sol:SpidyToken",
						"label": "_mintedByUser",
						"offset": 0,
						"slot": "6",
						"type": "t_mapping(t_address,t_uint256)"
					}
				],
				"types": {
					"t_address": {
						"encoding": "inplace",
						"label": "address",
						"numberOfBytes": "20"
					},
					"t_mapping(t_address,t_mapping(t_address,t_uint256))": {
						"encoding": "mapping",
						"key": "t_address",
						"label": "mapping(address => mapping(address => uint256))",
						"numberOfBytes": "32",
						"value": "t_mapping(t_address,t_uint256)"
					},
					"t_mapping(t_address,t_uint256)": {
						"encoding": "mapping",
						"key": "t_address",
						"label": "mapping(address => uint256)",
						"numberOfBytes": "32",
						"value": "t_uint256"
					},
					"t_uint256": {
						"encoding": "inplace",
						"label": "uint256",
						"numberOfBytes": "32"
					}
				}
			},
			"userdoc": {
				"kind": "user",
				"methods": {},
				"version": 1
			}
		}
	}
}