{
	"dharan-token/contracts/SpidyToken.sol": {
		"SpidyToken": {
			"abi": [
				{
					"inputs": [
						{
							"internalType": "uint256",
							"name": "_totalTokenSupply",
							"type": "uint256"
						}
					],
					"stateMutability": "nonpayable",
					"type": "constructor"
				},
				{
					"inputs": [
						{
							"internalType": "address",
							"name": "account",
							"type": "address"
						}
					],
					"name": "balanceOf",
					"outputs": [
						{
							"internalType": "uint256",
							"name": "",
							"type": "uint256"
						}
					],
					"stateMutability": "view",
					"type": "function"
				},
				{
					"inputs": [],
					"name": "decimal",
					"outputs": [
						{
							"internalType": "uint256",
							"name": "",
							"type": "uint256"
						}
					],
					"stateMutability": "pure",
					"type": "function"
				},
				{
					"inputs": [],
					"name": "name",
					"outputs": [
						{
							"internalType": "string",
							"name": "",
							"type": "string"
						}
					],
					"stateMutability": "pure",
					"type": "function"
				},
				{
					"inputs": [],
					"name": "symbol",
					"outputs": [
						{
							"internalType": "string",
							"name": "",
							"type": "string"
						}
					],
					"stateMutability": "pure",
					"type": "function"
				},
				{
					"inputs": [],
					"name": "totalSupply",
					"outputs": [
						{
							"internalType": "uint256",
							"name": "",
							"type": "uint256"
						}
					],
					"stateMutability": "view",
					"type": "function"
				}
			],
			"devdoc": {
				"kind": "dev",
				"methods": {},
				"version": 1
			},
			"evm": {
				"assembly": "    /* \"dharan-token/contracts/SpidyToken.sol\":60:1094  contract SpidyToken{... */\n  mstore(0x40, 0x80)\n    /* \"dharan-token/contracts/SpidyToken.sol\":380:605  constructor(uint256 _totalTokenSupply){... */\n  callvalue\n  dup1\n  iszero\n  tag_1\n  jumpi\n  revert(0x00, 0x00)\ntag_1:\n  pop\n  mload(0x40)\n  sub(codesize, bytecodeSize)\n  dup1\n  bytecodeSize\n  dup4\n  codecopy\n  dup2\n  dup2\n  add\n  0x40\n  mstore\n  dup2\n  add\n  swap1\n  tag_2\n  swap2\n  swap1\n  tag_3\n  jump\t// in\ntag_2:\n    /* \"dharan-token/contracts/SpidyToken.sol\":437:447  msg.sender */\n  caller\n    /* \"dharan-token/contracts/SpidyToken.sol\":429:434  owner */\n  0x00\n  0x00\n    /* \"dharan-token/contracts/SpidyToken.sol\":429:447  owner = msg.sender */\n  0x0100\n  exp\n  dup2\n  sload\n  dup2\n  0xffffffffffffffffffffffffffffffffffffffff\n  mul\n  not\n  and\n  swap1\n  dup4\n  0xffffffffffffffffffffffffffffffffffffffff\n  and\n  mul\n  or\n  swap1\n  sstore\n  pop\n    /* \"dharan-token/contracts/SpidyToken.sol\":214:216  18 */\n  0x12\n    /* \"dharan-token/contracts/SpidyToken.sol\":495:497  10 */\n  0x0a\n    /* \"dharan-token/contracts/SpidyToken.sol\":495:508  10** _decimal */\n  tag_6\n  swap2\n  swap1\n  tag_7\n  jump\t// in\ntag_6:\n    /* \"dharan-token/contracts/SpidyToken.sol\":473:490  _totalTokenSupply */\n  dup2\n    /* \"dharan-token/contracts/SpidyToken.sol\":473:509  _totalTokenSupply * ( 10** _decimal) */\n  tag_8\n  swap2\n  swap1\n  tag_9\n  jump\t// in\ntag_8:\n    /* \"dharan-token/contracts/SpidyToken.sol\":458:470  _totalSupply */\n  0x01\n    /* \"dharan-token/contracts/SpidyToken.sol\":458:509  _totalSupply = _totalTokenSupply * ( 10** _decimal) */\n  dup2\n  swap1\n  sstore\n  pop\n    /* \"dharan-token/contracts/SpidyToken.sol\":552:554  10 */\n  0x0a\n    /* \"dharan-token/contracts/SpidyToken.sol\":537:549  _totalSupply */\n  sload(0x01)\n    /* \"dharan-token/contracts/SpidyToken.sol\":537:554  _totalSupply / 10 */\n  tag_10\n  swap2\n  swap1\n  tag_11\n  jump\t// in\ntag_10:\n    /* \"dharan-token/contracts/SpidyToken.sol\":520:534  _initialSupply */\n  0x02\n    /* \"dharan-token/contracts/SpidyToken.sol\":520:554  _initialSupply = _totalSupply / 10 */\n  dup2\n  swap1\n  sstore\n  pop\n    /* \"dharan-token/contracts/SpidyToken.sol\":583:597  _initialSupply */\n  sload(0x02)\n    /* \"dharan-token/contracts/SpidyToken.sol\":565:573  balances */\n  0x03\n    /* \"dharan-token/contracts/SpidyToken.sol\":565:580  balances[owner] */\n  0x00\n    /* \"dharan-token/contracts/SpidyToken.sol\":574:579  owner */\n  0x00\n  0x00\n  swap1\n  sload\n  swap1\n  0x0100\n  exp\n  swap1\n  div\n  0xffffffffffffffffffffffffffffffffffffffff\n  and\n    /* \"dharan-token/contracts/SpidyToken.sol\":565:580  balances[owner] */\n  0xffffffffffffffffffffffffffffffffffffffff\n  and\n  0xffffffffffffffffffffffffffffffffffffffff\n  and\n  dup2\n  mstore\n  0x20\n  add\n  swap1\n  dup2\n  mstore\n  0x20\n  add\n  0x00\n  keccak256\n    /* \"dharan-token/contracts/SpidyToken.sol\":565:597  balances[owner] = _initialSupply */\n  dup2\n  swap1\n  sstore\n  pop\n    /* \"dharan-token/contracts/SpidyToken.sol\":380:605  constructor(uint256 _totalTokenSupply){... */\n  pop\n    /* \"dharan-token/contracts/SpidyToken.sol\":60:1094  contract SpidyToken{... */\n  jump(tag_12)\n    /* \"#utility.yul\":88:205   */\ntag_14:\n    /* \"#utility.yul\":197:198   */\n  0x00\n    /* \"#utility.yul\":194:195   */\n  0x00\n    /* \"#utility.yul\":187:199   */\n  revert\n    /* \"#utility.yul\":334:411   */\ntag_16:\n    /* \"#utility.yul\":371:378   */\n  0x00\n    /* \"#utility.yul\":400:405   */\n  dup2\n    /* \"#utility.yul\":389:405   */\n  swap1\n  pop\n    /* \"#utility.yul\":334:411   */\n  swap2\n  swap1\n  pop\n  jump\t// out\n    /* \"#utility.yul\":417:539   */\ntag_17:\n    /* \"#utility.yul\":490:514   */\n  tag_30\n    /* \"#utility.yul\":508:513   */\n  dup2\n    /* \"#utility.yul\":490:514   */\n  tag_16\n  jump\t// in\ntag_30:\n    /* \"#utility.yul\":483:488   */\n  dup2\n    /* \"#utility.yul\":480:515   */\n  eq\n    /* \"#utility.yul\":470:533   */\n  tag_31\n  jumpi\n    /* \"#utility.yul\":529:530   */\n  0x00\n    /* \"#utility.yul\":526:527   */\n  0x00\n    /* \"#utility.yul\":519:531   */\n  revert\n    /* \"#utility.yul\":470:533   */\ntag_31:\n    /* \"#utility.yul\":417:539   */\n  pop\n  jump\t// out\n    /* \"#utility.yul\":545:688   */\ntag_18:\n    /* \"#utility.yul\":602:607   */\n  0x00\n    /* \"#utility.yul\":633:639   */\n  dup2\n    /* \"#utility.yul\":627:640   */\n  mload\n    /* \"#utility.yul\":618:640   */\n  swap1\n  pop\n    /* \"#utility.yul\":649:682   */\n  tag_33\n    /* \"#utility.yul\":676:681   */\n  dup2\n    /* \"#utility.yul\":649:682   */\n  tag_17\n  jump\t// in\ntag_33:\n    /* \"#utility.yul\":545:688   */\n  swap3\n  swap2\n  pop\n  pop\n  jump\t// out\n    /* \"#utility.yul\":694:1045   */\ntag_3:\n    /* \"#utility.yul\":764:770   */\n  0x00\n    /* \"#utility.yul\":813:815   */\n  0x20\n    /* \"#utility.yul\":801:810   */\n  dup3\n    /* \"#utility.yul\":792:799   */\n  dup5\n    /* \"#utility.yul\":788:811   */\n  sub\n    /* \"#utility.yul\":784:816   */\n  slt\n    /* \"#utility.yul\":781:900   */\n  iszero\n  tag_35\n  jumpi\n    /* \"#utility.yul\":819:898   */\n  tag_36\n  tag_14\n  jump\t// in\ntag_36:\n    /* \"#utility.yul\":781:900   */\ntag_35:\n    /* \"#utility.yul\":939:940   */\n  0x00\n    /* \"#utility.yul\":964:1028   */\n  tag_37\n    /* \"#utility.yul\":1020:1027   */\n  dup5\n    /* \"#utility.yul\":1011:1017   */\n  dup3\n    /* \"#utility.yul\":1000:1009   */\n  dup6\n    /* \"#utility.yul\":996:1018   */\n  add\n    /* \"#utility.yul\":964:1028   */\n  tag_18\n  jump\t// in\ntag_37:\n    /* \"#utility.yul\":954:1028   */\n  swap2\n  pop\n    /* \"#utility.yul\":910:1038   */\n  pop\n    /* \"#utility.yul\":694:1045   */\n  swap3\n  swap2\n  pop\n  pop\n  jump\t// out\n    /* \"#utility.yul\":1051:1231   */\ntag_19:\n    /* \"#utility.yul\":1099:1176   */\n  0x4e487b7100000000000000000000000000000000000000000000000000000000\n    /* \"#utility.yul\":1096:1097   */\n  0x00\n    /* \"#utility.yul\":1089:1177   */\n  mstore\n    /* \"#utility.yul\":1196:1200   */\n  0x11\n    /* \"#utility.yul\":1193:1194   */\n  0x04\n    /* \"#utility.yul\":1186:1201   */\n  mstore\n    /* \"#utility.yul\":1220:1224   */\n  0x24\n    /* \"#utility.yul\":1217:1218   */\n  0x00\n    /* \"#utility.yul\":1210:1225   */\n  revert\n    /* \"#utility.yul\":1237:1339   */\ntag_20:\n    /* \"#utility.yul\":1279:1287   */\n  0x00\n    /* \"#utility.yul\":1326:1331   */\n  dup2\n    /* \"#utility.yul\":1323:1324   */\n  0x01\n    /* \"#utility.yul\":1319:1332   */\n  shr\n    /* \"#utility.yul\":1298:1332   */\n  swap1\n  pop\n    /* \"#utility.yul\":1237:1339   */\n  swap2\n  swap1\n  pop\n  jump\t// out\n    /* \"#utility.yul\":1345:2193   */\ntag_21:\n    /* \"#utility.yul\":1406:1411   */\n  0x00\n    /* \"#utility.yul\":1413:1417   */\n  0x00\n    /* \"#utility.yul\":1437:1443   */\n  dup3\n    /* \"#utility.yul\":1428:1443   */\n  swap2\n  pop\n    /* \"#utility.yul\":1461:1466   */\n  dup4\n    /* \"#utility.yul\":1452:1466   */\n  swap1\n  pop\n    /* \"#utility.yul\":1475:2187   */\ntag_41:\n    /* \"#utility.yul\":1496:1497   */\n  0x01\n    /* \"#utility.yul\":1486:1494   */\n  dup6\n    /* \"#utility.yul\":1483:1498   */\n  gt\n    /* \"#utility.yul\":1475:2187   */\n  iszero\n  tag_43\n  jumpi\n    /* \"#utility.yul\":1591:1595   */\n  dup1\n    /* \"#utility.yul\":1586:1589   */\n  dup7\n    /* \"#utility.yul\":1582:1596   */\n  div\n    /* \"#utility.yul\":1576:1580   */\n  dup2\n    /* \"#utility.yul\":1573:1597   */\n  gt\n    /* \"#utility.yul\":1570:1620   */\n  iszero\n  tag_44\n  jumpi\n    /* \"#utility.yul\":1600:1618   */\n  tag_45\n  tag_19\n  jump\t// in\ntag_45:\n    /* \"#utility.yul\":1570:1620   */\ntag_44:\n    /* \"#utility.yul\":1650:1651   */\n  0x01\n    /* \"#utility.yul\":1640:1648   */\n  dup6\n    /* \"#utility.yul\":1636:1652   */\n  and\n    /* \"#utility.yul\":1633:2084   */\n  iszero\n  tag_46\n  jumpi\n    /* \"#utility.yul\":2065:2069   */\n  dup1\n    /* \"#utility.yul\":2058:2063   */\n  dup3\n    /* \"#utility.yul\":2054:2070   */\n  mul\n    /* \"#utility.yul\":2045:2070   */\n  swap2\n  pop\n    /* \"#utility.yul\":1633:2084   */\ntag_46:\n    /* \"#utility.yul\":2115:2119   */\n  dup1\n    /* \"#utility.yul\":2109:2113   */\n  dup2\n    /* \"#utility.yul\":2105:2120   */\n  mul\n    /* \"#utility.yul\":2097:2120   */\n  swap1\n  pop\n    /* \"#utility.yul\":2145:2177   */\n  tag_47\n    /* \"#utility.yul\":2168:2176   */\n  dup6\n    /* \"#utility.yul\":2145:2177   */\n  tag_20\n  jump\t// in\ntag_47:\n    /* \"#utility.yul\":2133:2177   */\n  swap5\n  pop\n    /* \"#utility.yul\":1475:2187   */\n  jump(tag_41)\ntag_43:\n    /* \"#utility.yul\":1345:2193   */\n  swap5\n  pop\n  swap5\n  swap3\n  pop\n  pop\n  pop\n  jump\t// out\n    /* \"#utility.yul\":2199:3272   */\ntag_22:\n    /* \"#utility.yul\":2253:2258   */\n  0x00\n    /* \"#utility.yul\":2444:2452   */\n  dup3\n    /* \"#utility.yul\":2434:2474   */\n  tag_49\n  jumpi\n    /* \"#utility.yul\":2465:2466   */\n  0x01\n    /* \"#utility.yul\":2456:2466   */\n  swap1\n  pop\n    /* \"#utility.yul\":2467:2472   */\n  jump(tag_48)\n    /* \"#utility.yul\":2434:2474   */\ntag_49:\n    /* \"#utility.yul\":2493:2497   */\n  dup2\n    /* \"#utility.yul\":2483:2519   */\n  tag_50\n  jumpi\n    /* \"#utility.yul\":2510:2511   */\n  0x00\n    /* \"#utility.yul\":2501:2511   */\n  swap1\n  pop\n    /* \"#utility.yul\":2512:2517   */\n  jump(tag_48)\n    /* \"#utility.yul\":2483:2519   */\ntag_50:\n    /* \"#utility.yul\":2579:2583   */\n  dup2\n    /* \"#utility.yul\":2627:2628   */\n  0x01\n    /* \"#utility.yul\":2622:2649   */\n  dup2\n  eq\n  tag_52\n  jumpi\n    /* \"#utility.yul\":2663:2664   */\n  0x02\n    /* \"#utility.yul\":2658:2849   */\n  dup2\n  eq\n  tag_53\n  jumpi\n    /* \"#utility.yul\":2572:2849   */\n  jump(tag_51)\n    /* \"#utility.yul\":2622:2649   */\ntag_52:\n    /* \"#utility.yul\":2640:2641   */\n  0x01\n    /* \"#utility.yul\":2631:2641   */\n  swap2\n  pop\n    /* \"#utility.yul\":2642:2647   */\n  pop\n  jump(tag_48)\n    /* \"#utility.yul\":2658:2849   */\ntag_53:\n    /* \"#utility.yul\":2703:2706   */\n  0xff\n    /* \"#utility.yul\":2693:2701   */\n  dup5\n    /* \"#utility.yul\":2690:2707   */\n  gt\n    /* \"#utility.yul\":2687:2730   */\n  iszero\n  tag_54\n  jumpi\n    /* \"#utility.yul\":2710:2728   */\n  tag_55\n  tag_19\n  jump\t// in\ntag_55:\n    /* \"#utility.yul\":2687:2730   */\ntag_54:\n    /* \"#utility.yul\":2759:2767   */\n  dup4\n    /* \"#utility.yul\":2756:2757   */\n  0x02\n    /* \"#utility.yul\":2752:2768   */\n  exp\n    /* \"#utility.yul\":2743:2768   */\n  swap2\n  pop\n    /* \"#utility.yul\":2794:2797   */\n  dup5\n    /* \"#utility.yul\":2787:2792   */\n  dup3\n    /* \"#utility.yul\":2784:2798   */\n  gt\n    /* \"#utility.yul\":2781:2821   */\n  iszero\n  tag_56\n  jumpi\n    /* \"#utility.yul\":2801:2819   */\n  tag_57\n  tag_19\n  jump\t// in\ntag_57:\n    /* \"#utility.yul\":2781:2821   */\ntag_56:\n    /* \"#utility.yul\":2834:2839   */\n  pop\n  jump(tag_48)\n    /* \"#utility.yul\":2572:2849   */\ntag_51:\n  pop\n    /* \"#utility.yul\":2958:2960   */\n  0x20\n    /* \"#utility.yul\":2948:2956   */\n  dup4\n    /* \"#utility.yul\":2945:2961   */\n  lt\n    /* \"#utility.yul\":2939:2942   */\n  0x0133\n    /* \"#utility.yul\":2933:2937   */\n  dup4\n    /* \"#utility.yul\":2930:2943   */\n  lt\n    /* \"#utility.yul\":2926:2962   */\n  and\n    /* \"#utility.yul\":2908:2910   */\n  0x4e\n    /* \"#utility.yul\":2898:2906   */\n  dup5\n    /* \"#utility.yul\":2895:2911   */\n  lt\n    /* \"#utility.yul\":2890:2892   */\n  0x0b\n    /* \"#utility.yul\":2884:2888   */\n  dup5\n    /* \"#utility.yul\":2881:2893   */\n  lt\n    /* \"#utility.yul\":2877:2912   */\n  and\n    /* \"#utility.yul\":2861:2972   */\n  or\n    /* \"#utility.yul\":2858:3104   */\n  iszero\n  tag_58\n  jumpi\n    /* \"#utility.yul\":3014:3022   */\n  dup3\n    /* \"#utility.yul\":3008:3012   */\n  dup3\n    /* \"#utility.yul\":3004:3023   */\n  exp\n    /* \"#utility.yul\":2995:3023   */\n  swap1\n  pop\n    /* \"#utility.yul\":3049:3052   */\n  dup4\n    /* \"#utility.yul\":3042:3047   */\n  dup2\n    /* \"#utility.yul\":3039:3053   */\n  gt\n    /* \"#utility.yul\":3036:3076   */\n  iszero\n  tag_59\n  jumpi\n    /* \"#utility.yul\":3056:3074   */\n  tag_60\n  tag_19\n  jump\t// in\ntag_60:\n    /* \"#utility.yul\":3036:3076   */\ntag_59:\n    /* \"#utility.yul\":3089:3094   */\n  jump(tag_48)\n    /* \"#utility.yul\":2858:3104   */\ntag_58:\n    /* \"#utility.yul\":3129:3171   */\n  tag_61\n    /* \"#utility.yul\":3167:3170   */\n  dup5\n    /* \"#utility.yul\":3157:3165   */\n  dup5\n    /* \"#utility.yul\":3151:3155   */\n  dup5\n    /* \"#utility.yul\":3148:3149   */\n  0x01\n    /* \"#utility.yul\":3129:3171   */\n  tag_21\n  jump\t// in\ntag_61:\n    /* \"#utility.yul\":3114:3171   */\n  swap3\n  pop\n  swap1\n  pop\n    /* \"#utility.yul\":3203:3207   */\n  dup2\n    /* \"#utility.yul\":3198:3201   */\n  dup5\n    /* \"#utility.yul\":3194:3208   */\n  div\n    /* \"#utility.yul\":3187:3192   */\n  dup2\n    /* \"#utility.yul\":3184:3209   */\n  gt\n    /* \"#utility.yul\":3181:3232   */\n  iszero\n  tag_62\n  jumpi\n    /* \"#utility.yul\":3212:3230   */\n  tag_63\n  tag_19\n  jump\t// in\ntag_63:\n    /* \"#utility.yul\":3181:3232   */\ntag_62:\n    /* \"#utility.yul\":3261:3265   */\n  dup2\n    /* \"#utility.yul\":3254:3259   */\n  dup2\n    /* \"#utility.yul\":3250:3266   */\n  mul\n    /* \"#utility.yul\":3241:3266   */\n  swap1\n  pop\n    /* \"#utility.yul\":2199:3272   */\ntag_48:\n  swap4\n  swap3\n  pop\n  pop\n  pop\n  jump\t// out\n    /* \"#utility.yul\":3278:3563   */\ntag_7:\n    /* \"#utility.yul\":3338:3343   */\n  0x00\n    /* \"#utility.yul\":3362:3385   */\n  tag_65\n    /* \"#utility.yul\":3380:3384   */\n  dup3\n    /* \"#utility.yul\":3362:3385   */\n  tag_16\n  jump\t// in\ntag_65:\n    /* \"#utility.yul\":3354:3385   */\n  swap2\n  pop\n    /* \"#utility.yul\":3406:3433   */\n  tag_66\n    /* \"#utility.yul\":3424:3432   */\n  dup4\n    /* \"#utility.yul\":3406:3433   */\n  tag_16\n  jump\t// in\ntag_66:\n    /* \"#utility.yul\":3394:3433   */\n  swap3\n  pop\n    /* \"#utility.yul\":3452:3556   */\n  tag_67\n    /* \"#utility.yul\":3489:3555   */\n  0xffffffffffffffffffffffffffffffffffffffffffffffffffffffffffffffff\n    /* \"#utility.yul\":3479:3487   */\n  dup5\n    /* \"#utility.yul\":3473:3477   */\n  dup5\n    /* \"#utility.yul\":3452:3556   */\n  tag_22\n  jump\t// in\ntag_67:\n    /* \"#utility.yul\":3443:3556   */\n  swap1\n  pop\n    /* \"#utility.yul\":3278:3563   */\n  swap3\n  swap2\n  pop\n  pop\n  jump\t// out\n    /* \"#utility.yul\":3569:3979   */\ntag_9:\n    /* \"#utility.yul\":3609:3616   */\n  0x00\n    /* \"#utility.yul\":3632:3652   */\n  tag_69\n    /* \"#utility.yul\":3650:3651   */\n  dup3\n    /* \"#utility.yul\":3632:3652   */\n  tag_16\n  jump\t// in\ntag_69:\n    /* \"#utility.yul\":3627:3652   */\n  swap2\n  pop\n    /* \"#utility.yul\":3666:3686   */\n  tag_70\n    /* \"#utility.yul\":3684:3685   */\n  dup4\n    /* \"#utility.yul\":3666:3686   */\n  tag_16\n  jump\t// in\ntag_70:\n    /* \"#utility.yul\":3661:3686   */\n  swap3\n  pop\n    /* \"#utility.yul\":3721:3722   */\n  dup3\n    /* \"#utility.yul\":3718:3719   */\n  dup3\n    /* \"#utility.yul\":3714:3723   */\n  mul\n    /* \"#utility.yul\":3743:3773   */\n  tag_71\n    /* \"#utility.yul\":3761:3772   */\n  dup2\n    /* \"#utility.yul\":3743:3773   */\n  tag_16\n  jump\t// in\ntag_71:\n    /* \"#utility.yul\":3732:3773   */\n  swap2\n  pop\n    /* \"#utility.yul\":3922:3923   */\n  dup3\n    /* \"#utility.yul\":3913:3920   */\n  dup3\n    /* \"#utility.yul\":3909:3924   */\n  div\n    /* \"#utility.yul\":3906:3907   */\n  dup5\n    /* \"#utility.yul\":3903:3925   */\n  eq\n    /* \"#utility.yul\":3883:3884   */\n  dup4\n    /* \"#utility.yul\":3876:3885   */\n  iszero\n    /* \"#utility.yul\":3856:3939   */\n  or\n    /* \"#utility.yul\":3833:3972   */\n  tag_72\n  jumpi\n    /* \"#utility.yul\":3952:3970   */\n  tag_73\n  tag_19\n  jump\t// in\ntag_73:\n    /* \"#utility.yul\":3833:3972   */\ntag_72:\n    /* \"#utility.yul\":3617:3979   */\n  pop\n    /* \"#utility.yul\":3569:3979   */\n  swap3\n  swap2\n  pop\n  pop\n  jump\t// out\n    /* \"#utility.yul\":3985:4165   */\ntag_23:\n    /* \"#utility.yul\":4033:4110   */\n  0x4e487b7100000000000000000000000000000000000000000000000000000000\n    /* \"#utility.yul\":4030:4031   */\n  0x00\n    /* \"#utility.yul\":4023:4111   */\n  mstore\n    /* \"#utility.yul\":4130:4134   */\n  0x12\n    /* \"#utility.yul\":4127:4128   */\n  0x04\n    /* \"#utility.yul\":4120:4135   */\n  mstore\n    /* \"#utility.yul\":4154:4158   */\n  0x24\n    /* \"#utility.yul\":4151:4152   */\n  0x00\n    /* \"#utility.yul\":4144:4159   */\n  revert\n    /* \"#utility.yul\":4171:4356   */\ntag_11:\n    /* \"#utility.yul\":4211:4212   */\n  0x00\n    /* \"#utility.yul\":4228:4248   */\n  tag_76\n    /* \"#utility.yul\":4246:4247   */\n  dup3\n    /* \"#utility.yul\":4228:4248   */\n  tag_16\n  jump\t// in\ntag_76:\n    /* \"#utility.yul\":4223:4248   */\n  swap2\n  pop\n    /* \"#utility.yul\":4262:4282   */\n  tag_77\n    /* \"#utility.yul\":4280:4281   */\n  dup4\n    /* \"#utility.yul\":4262:4282   */\n  tag_16\n  jump\t// in\ntag_77:\n    /* \"#utility.yul\":4257:4282   */\n  swap3\n  pop\n    /* \"#utility.yul\":4301:4302   */\n  dup3\n    /* \"#utility.yul\":4291:4326   */\n  tag_78\n  jumpi\n    /* \"#utility.yul\":4306:4324   */\n  tag_79\n  tag_23\n  jump\t// in\ntag_79:\n    /* \"#utility.yul\":4291:4326   */\ntag_78:\n    /* \"#utility.yul\":4348:4349   */\n  dup3\n    /* \"#utility.yul\":4345:4346   */\n  dup3\n    /* \"#utility.yul\":4341:4350   */\n  div\n    /* \"#utility.yul\":4336:4350   */\n  swap1\n  pop\n    /* \"#utility.yul\":4171:4356   */\n  swap3\n  swap2\n  pop\n  pop\n  jump\t// out\n    /* \"dharan-token/contracts/SpidyToken.sol\":60:1094  contract SpidyToken{... */\ntag_12:\n  dataSize(sub_0)\n  dup1\n  dataOffset(sub_0)\n  0x00\n  codecopy\n  0x00\n  return\nstop\n\nsub_0: assembly {\n        /* \"dharan-token/contracts/SpidyToken.sol\":60:1094  contract SpidyToken{... */\n      mstore(0x40, 0x80)\n      callvalue\n      dup1\n      iszero\n      tag_1\n      jumpi\n      revert(0x00, 0x00)\n    tag_1:\n      pop\n      jumpi(tag_2, lt(calldatasize, 0x04))\n      shr(0xe0, calldataload(0x00))\n      dup1\n      0x06fdde03\n      eq\n      tag_3\n      jumpi\n      dup1\n      0x18160ddd\n      eq\n      tag_4\n      jumpi\n      dup1\n      0x70a08231\n      eq\n      tag_5\n      jumpi\n      dup1\n      0x76809ce3\n      eq\n      tag_6\n      jumpi\n      dup1\n      0x95d89b41\n      eq\n      tag_7\n      jumpi\n    tag_2:\n      revert(0x00, 0x00)\n        /* \"dharan-token/contracts/SpidyToken.sol\":613:695  function name() public pure returns (string memory){... */\n    tag_3:\n      tag_8\n      tag_9\n      jump\t// in\n    tag_8:\n      mload(0x40)\n      tag_10\n      swap2\n      swap1\n      tag_11\n      jump\t// in\n    tag_10:\n      mload(0x40)\n      dup1\n      swap2\n      sub\n      swap1\n      return\n        /* \"dharan-token/contracts/SpidyToken.sol\":887:976  function totalSupply() public view returns(uint256){... */\n    tag_4:\n      tag_12\n      tag_13\n      jump\t// in\n    tag_12:\n      mload(0x40)\n      tag_14\n      swap2\n      swap1\n      tag_15\n      jump\t// in\n    tag_14:\n      mload(0x40)\n      dup1\n      swap2\n      sub\n      swap1\n      return\n        /* \"dharan-token/contracts/SpidyToken.sol\":984:1091  function balanceOf(address account) public view returns(uint256){... */\n    tag_5:\n      tag_16\n      0x04\n      dup1\n      calldatasize\n      sub\n      dup2\n      add\n      swap1\n      tag_17\n      swap2\n      swap1\n      tag_18\n      jump\t// in\n    tag_17:\n      tag_19\n      jump\t// in\n    tag_16:\n      mload(0x40)\n      tag_20\n      swap2\n      swap1\n      tag_15\n      jump\t// in\n    tag_20:\n      mload(0x40)\n      dup1\n      swap2\n      sub\n      swap1\n      return\n        /* \"dharan-token/contracts/SpidyToken.sol\":797:879  function decimal() public pure returns (uint256){... */\n    tag_6:\n      tag_21\n      tag_22\n      jump\t// in\n    tag_21:\n      mload(0x40)\n      tag_23\n      swap2\n      swap1\n      tag_15\n      jump\t// in\n    tag_23:\n      mload(0x40)\n      dup1\n      swap2\n      sub\n      swap1\n      return\n        /* \"dharan-token/contracts/SpidyToken.sol\":703:789  function symbol() public pure returns (string memory){... */\n    tag_7:\n      tag_24\n      tag_25\n      jump\t// in\n    tag_24:\n      mload(0x40)\n      tag_26\n      swap2\n      swap1\n      tag_11\n      jump\t// in\n    tag_26:\n      mload(0x40)\n      dup1\n      swap2\n      sub\n      swap1\n      return\n        /* \"dharan-token/contracts/SpidyToken.sol\":613:695  function name() public pure returns (string memory){... */\n    tag_9:\n        /* \"dharan-token/contracts/SpidyToken.sol\":650:663  string memory */\n      0x60\n        /* \"dharan-token/contracts/SpidyToken.sol\":682:687  _name */\n      mload(0x40)\n      dup1\n      0x40\n      add\n      0x40\n      mstore\n      dup1\n      0x05\n      dup2\n      mstore\n      0x20\n      add\n      0x5370696479000000000000000000000000000000000000000000000000000000\n      dup2\n      mstore\n      pop\n        /* \"dharan-token/contracts/SpidyToken.sol\":675:687  return _name */\n      swap1\n      pop\n        /* \"dharan-token/contracts/SpidyToken.sol\":613:695  function name() public pure returns (string memory){... */\n      swap1\n      jump\t// out\n        /* \"dharan-token/contracts/SpidyToken.sol\":887:976  function totalSupply() public view returns(uint256){... */\n    tag_13:\n        /* \"dharan-token/contracts/SpidyToken.sol\":930:937  uint256 */\n      0x00\n        /* \"dharan-token/contracts/SpidyToken.sol\":956:968  _totalSupply */\n      sload(0x01)\n        /* \"dharan-token/contracts/SpidyToken.sol\":949:968  return _totalSupply */\n      swap1\n      pop\n        /* \"dharan-token/contracts/SpidyToken.sol\":887:976  function totalSupply() public view returns(uint256){... */\n      swap1\n      jump\t// out\n        /* \"dharan-token/contracts/SpidyToken.sol\":984:1091  function balanceOf(address account) public view returns(uint256){... */\n    tag_19:\n        /* \"dharan-token/contracts/SpidyToken.sol\":1040:1047  uint256 */\n      0x00\n        /* \"dharan-token/contracts/SpidyToken.sol\":1066:1074  balances */\n      0x03\n        /* \"dharan-token/contracts/SpidyToken.sol\":1066:1083  balances[account] */\n      0x00\n        /* \"dharan-token/contracts/SpidyToken.sol\":1075:1082  account */\n      dup4\n        /* \"dharan-token/contracts/SpidyToken.sol\":1066:1083  balances[account] */\n      0xffffffffffffffffffffffffffffffffffffffff\n      and\n      0xffffffffffffffffffffffffffffffffffffffff\n      and\n      dup2\n      mstore\n      0x20\n      add\n      swap1\n      dup2\n      mstore\n      0x20\n      add\n      0x00\n      keccak256\n      sload\n        /* \"dharan-token/contracts/SpidyToken.sol\":1059:1083  return balances[account] */\n      swap1\n      pop\n        /* \"dharan-token/contracts/SpidyToken.sol\":984:1091  function balanceOf(address account) public view returns(uint256){... */\n      swap2\n      swap1\n      pop\n      jump\t// out\n        /* \"dharan-token/contracts/SpidyToken.sol\":797:879  function decimal() public pure returns (uint256){... */\n    tag_22:\n        /* \"dharan-token/contracts/SpidyToken.sol\":837:844  uint256 */\n      0x00\n        /* \"dharan-token/contracts/SpidyToken.sol\":214:216  18 */\n      0x12\n        /* \"dharan-token/contracts/SpidyToken.sol\":856:871  return _decimal */\n      swap1\n      pop\n        /* \"dharan-token/contracts/SpidyToken.sol\":797:879  function decimal() public pure returns (uint256){... */\n      swap1\n      jump\t// out\n        /* \"dharan-token/contracts/SpidyToken.sol\":703:789  function symbol() public pure returns (string memory){... */\n    tag_25:\n        /* \"dharan-token/contracts/SpidyToken.sol\":742:755  string memory */\n      0x60\n        /* \"dharan-token/contracts/SpidyToken.sol\":774:781  _symbol */\n      mload(0x40)\n      dup1\n      0x40\n      add\n      0x40\n      mstore\n      dup1\n      0x03\n      dup2\n      mstore\n      0x20\n      add\n      0x5350440000000000000000000000000000000000000000000000000000000000\n      dup2\n      mstore\n      pop\n        /* \"dharan-token/contracts/SpidyToken.sol\":767:781  return _symbol */\n      swap1\n      pop\n        /* \"dharan-token/contracts/SpidyToken.sol\":703:789  function symbol() public pure returns (string memory){... */\n      swap1\n      jump\t// out\n        /* \"#utility.yul\":7:106   */\n    tag_32:\n        /* \"#utility.yul\":59:65   */\n      0x00\n        /* \"#utility.yul\":93:98   */\n      dup2\n        /* \"#utility.yul\":87:99   */\n      mload\n        /* \"#utility.yul\":77:99   */\n      swap1\n      pop\n        /* \"#utility.yul\":7:106   */\n      swap2\n      swap1\n      pop\n      jump\t// out\n        /* \"#utility.yul\":112:281   */\n    tag_33:\n        /* \"#utility.yul\":196:207   */\n      0x00\n        /* \"#utility.yul\":230:236   */\n      dup3\n        /* \"#utility.yul\":225:228   */\n      dup3\n        /* \"#utility.yul\":218:237   */\n      mstore\n        /* \"#utility.yul\":270:274   */\n      0x20\n        /* \"#utility.yul\":265:268   */\n      dup3\n        /* \"#utility.yul\":261:275   */\n      add\n        /* \"#utility.yul\":246:275   */\n      swap1\n      pop\n        /* \"#utility.yul\":112:281   */\n      swap3\n      swap2\n      pop\n      pop\n      jump\t// out\n        /* \"#utility.yul\":287:426   */\n    tag_34:\n        /* \"#utility.yul\":376:382   */\n      dup3\n        /* \"#utility.yul\":371:374   */\n      dup2\n        /* \"#utility.yul\":366:369   */\n      dup4\n        /* \"#utility.yul\":360:383   */\n      mcopy\n        /* \"#utility.yul\":417:418   */\n      0x00\n        /* \"#utility.yul\":408:414   */\n      dup4\n        /* \"#utility.yul\":403:406   */\n      dup4\n        /* \"#utility.yul\":399:415   */\n      add\n        /* \"#utility.yul\":392:419   */\n      mstore\n        /* \"#utility.yul\":287:426   */\n      pop\n      pop\n      pop\n      jump\t// out\n        /* \"#utility.yul\":432:534   */\n    tag_35:\n        /* \"#utility.yul\":473:479   */\n      0x00\n        /* \"#utility.yul\":524:526   */\n      0x1f\n        /* \"#utility.yul\":520:527   */\n      not\n        /* \"#utility.yul\":515:517   */\n      0x1f\n        /* \"#utility.yul\":508:513   */\n      dup4\n        /* \"#utility.yul\":504:518   */\n      add\n        /* \"#utility.yul\":500:528   */\n      and\n        /* \"#utility.yul\":490:528   */\n      swap1\n      pop\n        /* \"#utility.yul\":432:534   */\n      swap2\n      swap1\n      pop\n      jump\t// out\n        /* \"#utility.yul\":540:917   */\n    tag_36:\n        /* \"#utility.yul\":628:631   */\n      0x00\n        /* \"#utility.yul\":656:695   */\n      tag_52\n        /* \"#utility.yul\":689:694   */\n      dup3\n        /* \"#utility.yul\":656:695   */\n      tag_32\n      jump\t// in\n    tag_52:\n        /* \"#utility.yul\":711:782   */\n      tag_53\n        /* \"#utility.yul\":775:781   */\n      dup2\n        /* \"#utility.yul\":770:773   */\n      dup6\n        /* \"#utility.yul\":711:782   */\n      tag_33\n      jump\t// in\n    tag_53:\n        /* \"#utility.yul\":704:782   */\n      swap4\n      pop\n        /* \"#utility.yul\":791:856   */\n      tag_54\n        /* \"#utility.yul\":849:855   */\n      dup2\n        /* \"#utility.yul\":844:847   */\n      dup6\n        /* \"#utility.yul\":837:841   */\n      0x20\n        /* \"#utility.yul\":830:835   */\n      dup7\n        /* \"#utility.yul\":826:842   */\n      add\n        /* \"#utility.yul\":791:856   */\n      tag_34\n      jump\t// in\n    tag_54:\n        /* \"#utility.yul\":881:910   */\n      tag_55\n        /* \"#utility.yul\":903:909   */\n      dup2\n        /* \"#utility.yul\":881:910   */\n      tag_35\n      jump\t// in\n    tag_55:\n        /* \"#utility.yul\":876:879   */\n      dup5\n        /* \"#utility.yul\":872:911   */\n      add\n        /* \"#utility.yul\":865:911   */\n      swap2\n      pop\n        /* \"#utility.yul\":632:917   */\n      pop\n        /* \"#utility.yul\":540:917   */\n      swap3\n      swap2\n      pop\n      pop\n      jump\t// out\n        /* \"#utility.yul\":923:1236   */\n    tag_11:\n        /* \"#utility.yul\":1036:1040   */\n      0x00\n        /* \"#utility.yul\":1074:1076   */\n      0x20\n        /* \"#utility.yul\":1063:1072   */\n      dup3\n        /* \"#utility.yul\":1059:1077   */\n      add\n        /* \"#utility.yul\":1051:1077   */\n      swap1\n      pop\n        /* \"#utility.yul\":1123:1132   */\n      dup2\n        /* \"#utility.yul\":1117:1121   */\n      dup2\n        /* \"#utility.yul\":1113:1133   */\n      sub\n        /* \"#utility.yul\":1109:1110   */\n      0x00\n        /* \"#utility.yul\":1098:1107   */\n      dup4\n        /* \"#utility.yul\":1094:1111   */\n      add\n        /* \"#utility.yul\":1087:1134   */\n      mstore\n        /* \"#utility.yul\":1151:1229   */\n      tag_57\n        /* \"#utility.yul\":1224:1228   */\n      dup2\n        /* \"#utility.yul\":1215:1221   */\n      dup5\n        /* \"#utility.yul\":1151:1229   */\n      tag_36\n      jump\t// in\n    tag_57:\n        /* \"#utility.yul\":1143:1229   */\n      swap1\n      pop\n        /* \"#utility.yul\":923:1236   */\n      swap3\n      swap2\n      pop\n      pop\n      jump\t// out\n        /* \"#utility.yul\":1242:1319   */\n    tag_37:\n        /* \"#utility.yul\":1279:1286   */\n      0x00\n        /* \"#utility.yul\":1308:1313   */\n      dup2\n        /* \"#utility.yul\":1297:1313   */\n      swap1\n      pop\n        /* \"#utility.yul\":1242:1319   */\n      swap2\n      swap1\n      pop\n      jump\t// out\n        /* \"#utility.yul\":1325:1443   */\n    tag_38:\n        /* \"#utility.yul\":1412:1436   */\n      tag_60\n        /* \"#utility.yul\":1430:1435   */\n      dup2\n        /* \"#utility.yul\":1412:1436   */\n      tag_37\n      jump\t// in\n    tag_60:\n        /* \"#utility.yul\":1407:1410   */\n      dup3\n        /* \"#utility.yul\":1400:1437   */\n      mstore\n        /* \"#utility.yul\":1325:1443   */\n      pop\n      pop\n      jump\t// out\n        /* \"#utility.yul\":1449:1671   */\n    tag_15:\n        /* \"#utility.yul\":1542:1546   */\n      0x00\n        /* \"#utility.yul\":1580:1582   */\n      0x20\n        /* \"#utility.yul\":1569:1578   */\n      dup3\n        /* \"#utility.yul\":1565:1583   */\n      add\n        /* \"#utility.yul\":1557:1583   */\n      swap1\n      pop\n        /* \"#utility.yul\":1593:1664   */\n      tag_62\n        /* \"#utility.yul\":1661:1662   */\n      0x00\n        /* \"#utility.yul\":1650:1659   */\n      dup4\n        /* \"#utility.yul\":1646:1663   */\n      add\n        /* \"#utility.yul\":1637:1643   */\n      dup5\n        /* \"#utility.yul\":1593:1664   */\n      tag_38\n      jump\t// in\n    tag_62:\n        /* \"#utility.yul\":1449:1671   */\n      swap3\n      swap2\n      pop\n      pop\n      jump\t// out\n        /* \"#utility.yul\":1758:1875   */\n    tag_40:\n        /* \"#utility.yul\":1867:1868   */\n      0x00\n        /* \"#utility.yul\":1864:1865   */\n      0x00\n        /* \"#utility.yul\":1857:1869   */\n      revert\n        /* \"#utility.yul\":2004:2130   */\n    tag_42:\n        /* \"#utility.yul\":2041:2048   */\n      0x00\n        /* \"#utility.yul\":2081:2123   */\n      0xffffffffffffffffffffffffffffffffffffffff\n        /* \"#utility.yul\":2074:2079   */\n      dup3\n        /* \"#utility.yul\":2070:2124   */\n      and\n        /* \"#utility.yul\":2059:2124   */\n      swap1\n      pop\n        /* \"#utility.yul\":2004:2130   */\n      swap2\n      swap1\n      pop\n      jump\t// out\n        /* \"#utility.yul\":2136:2232   */\n    tag_43:\n        /* \"#utility.yul\":2173:2180   */\n      0x00\n        /* \"#utility.yul\":2202:2226   */\n      tag_68\n        /* \"#utility.yul\":2220:2225   */\n      dup3\n        /* \"#utility.yul\":2202:2226   */\n      tag_42\n      jump\t// in\n    tag_68:\n        /* \"#utility.yul\":2191:2226   */\n      swap1\n      pop\n        /* \"#utility.yul\":2136:2232   */\n      swap2\n      swap1\n      pop\n      jump\t// out\n        /* \"#utility.yul\":2238:2360   */\n    tag_44:\n        /* \"#utility.yul\":2311:2335   */\n      tag_70\n        /* \"#utility.yul\":2329:2334   */\n      dup2\n        /* \"#utility.yul\":2311:2335   */\n      tag_43\n      jump\t// in\n    tag_70:\n        /* \"#utility.yul\":2304:2309   */\n      dup2\n        /* \"#utility.yul\":2301:2336   */\n      eq\n        /* \"#utility.yul\":2291:2354   */\n      tag_71\n      jumpi\n        /* \"#utility.yul\":2350:2351   */\n      0x00\n        /* \"#utility.yul\":2347:2348   */\n      0x00\n        /* \"#utility.yul\":2340:2352   */\n      revert\n        /* \"#utility.yul\":2291:2354   */\n    tag_71:\n        /* \"#utility.yul\":2238:2360   */\n      pop\n      jump\t// out\n        /* \"#utility.yul\":2366:2505   */\n    tag_45:\n        /* \"#utility.yul\":2412:2417   */\n      0x00\n        /* \"#utility.yul\":2450:2456   */\n      dup2\n        /* \"#utility.yul\":2437:2457   */\n      calldataload\n        /* \"#utility.yul\":2428:2457   */\n      swap1\n      pop\n        /* \"#utility.yul\":2466:2499   */\n      tag_73\n        /* \"#utility.yul\":2493:2498   */\n      dup2\n        /* \"#utility.yul\":2466:2499   */\n      tag_44\n      jump\t// in\n    tag_73:\n        /* \"#utility.yul\":2366:2505   */\n      swap3\n      swap2\n      pop\n      pop\n      jump\t// out\n        /* \"#utility.yul\":2511:2840   */\n    tag_18:\n        /* \"#utility.yul\":2570:2576   */\n      0x00\n        /* \"#utility.yul\":2619:2621   */\n      0x20\n        /* \"#utility.yul\":2607:2616   */\n      dup3\n        /* \"#utility.yul\":2598:2605   */\n      dup5\n        /* \"#utility.yul\":2594:2617   */\n      sub\n        /* \"#utility.yul\":2590:2622   */\n      slt\n        /* \"#utility.yul\":2587:2706   */\n      iszero\n      tag_75\n      jumpi\n        /* \"#utility.yul\":2625:2704   */\n      tag_76\n      tag_40\n      jump\t// in\n    tag_76:\n        /* \"#utility.yul\":2587:2706   */\n    tag_75:\n        /* \"#utility.yul\":2745:2746   */\n      0x00\n        /* \"#utility.yul\":2770:2823   */\n      tag_77\n        /* \"#utility.yul\":2815:2822   */\n      dup5\n        /* \"#utility.yul\":2806:2812   */\n      dup3\n        /* \"#utility.yul\":2795:2804   */\n      dup6\n        /* \"#utility.yul\":2791:2813   */\n      add\n        /* \"#utility.yul\":2770:2823   */\n      tag_45\n      jump\t// in\n    tag_77:\n        /* \"#utility.yul\":2760:2823   */\n      swap2\n      pop\n        /* \"#utility.yul\":2716:2833   */\n      pop\n        /* \"#utility.yul\":2511:2840   */\n      swap3\n      swap2\n      pop\n      pop\n      jump\t// out\n\n    auxdata: 0xa2646970667358221220a66e127aff68419e0ceeb48f71c5ce820beecddce819cb6eb503b09a828088e664736f6c634300081e0033\n}\n",
				"bytecode": {
					"linkReferences": {},
					"object": "608060405234801561000f575f5ffd5b5060405161071338038061071383398181016040528101906100319190610145565b335f5f6101000a81548173ffffffffffffffffffffffffffffffffffffffff021916908373ffffffffffffffffffffffffffffffffffffffff1602179055506012600a61007e91906102cc565b816100899190610316565b600181905550600a60015461009e9190610384565b60028190555060025460035f5f5f9054906101000a900473ffffffffffffffffffffffffffffffffffffffff1673ffffffffffffffffffffffffffffffffffffffff1673ffffffffffffffffffffffffffffffffffffffff1681526020019081526020015f2081905550506103b4565b5f5ffd5b5f819050919050565b61012481610112565b811461012e575f5ffd5b50565b5f8151905061013f8161011b565b92915050565b5f6020828403121561015a5761015961010e565b5b5f61016784828501610131565b91505092915050565b7f4e487b71000000000000000000000000000000000000000000000000000000005f52601160045260245ffd5b5f8160011c9050919050565b5f5f8291508390505b60018511156101f2578086048111156101ce576101cd610170565b5b60018516156101dd5780820291505b80810290506101eb8561019d565b94506101b2565b94509492505050565b5f8261020a57600190506102c5565b81610217575f90506102c5565b816001811461022d576002811461023757610266565b60019150506102c5565b60ff84111561024957610248610170565b5b8360020a9150848211156102605761025f610170565b5b506102c5565b5060208310610133831016604e8410600b841016171561029b5782820a90508381111561029657610295610170565b5b6102c5565b6102a884848460016101a9565b925090508184048111156102bf576102be610170565b5b81810290505b9392505050565b5f6102d682610112565b91506102e183610112565b925061030e7fffffffffffffffffffffffffffffffffffffffffffffffffffffffffffffffff84846101fb565b905092915050565b5f61032082610112565b915061032b83610112565b925082820261033981610112565b915082820484148315176103505761034f610170565b5b5092915050565b7f4e487b71000000000000000000000000000000000000000000000000000000005f52601260045260245ffd5b5f61038e82610112565b915061039983610112565b9250826103a9576103a8610357565b5b828204905092915050565b610352806103c15f395ff3fe608060405234801561000f575f5ffd5b5060043610610055575f3560e01c806306fdde031461005957806318160ddd1461007757806370a082311461009557806376809ce3146100c557806395d89b41146100e3575b5f5ffd5b610061610101565b60405161006e9190610242565b60405180910390f35b61007f61013e565b60405161008c919061027a565b60405180910390f35b6100af60048036038101906100aa91906102f1565b610147565b6040516100bc919061027a565b60405180910390f35b6100cd61018d565b6040516100da919061027a565b60405180910390f35b6100eb610195565b6040516100f89190610242565b60405180910390f35b60606040518060400160405280600581526020017f5370696479000000000000000000000000000000000000000000000000000000815250905090565b5f600154905090565b5f60035f8373ffffffffffffffffffffffffffffffffffffffff1673ffffffffffffffffffffffffffffffffffffffff1681526020019081526020015f20549050919050565b5f6012905090565b60606040518060400160405280600381526020017f5350440000000000000000000000000000000000000000000000000000000000815250905090565b5f81519050919050565b5f82825260208201905092915050565b8281835e5f83830152505050565b5f601f19601f8301169050919050565b5f610214826101d2565b61021e81856101dc565b935061022e8185602086016101ec565b610237816101fa565b840191505092915050565b5f6020820190508181035f83015261025a818461020a565b905092915050565b5f819050919050565b61027481610262565b82525050565b5f60208201905061028d5f83018461026b565b92915050565b5f5ffd5b5f73ffffffffffffffffffffffffffffffffffffffff82169050919050565b5f6102c082610297565b9050919050565b6102d0816102b6565b81146102da575f5ffd5b50565b5f813590506102eb816102c7565b92915050565b5f6020828403121561030657610305610293565b5b5f610313848285016102dd565b9150509291505056fea2646970667358221220a66e127aff68419e0ceeb48f71c5ce820beecddce819cb6eb503b09a828088e664736f6c634300081e0033",
					"opcodes": "PUSH1 0x80 PUSH1 0x40 MSTORE CALLVALUE DUP1 ISZERO PUSH2 0xF JUMPI PUSH0 PUSH0 REVERT JUMPDEST POP PUSH1 0x40 MLOAD PUSH2 0x713 CODESIZE SUB DUP1 PUSH2 0x713 DUP4 CODECOPY DUP2 DUP2 ADD PUSH1 0x40 MSTORE DUP2 ADD SWAP1 PUSH2 0x31 SWAP2 SWAP1 PUSH2 0x145 JUMP JUMPDEST CALLER PUSH0 PUSH0 PUSH2 0x100 EXP DUP2 SLOAD DUP2 PUSH20 0xFFFFFFFFFFFFFFFFFFFFFFFFFFFFFFFFFFFFFFFF MUL NOT AND SWAP1 DUP4 PUSH20 0xFFFFFFFFFFFFFFFFFFFFFFFFFFFFFFFFFFFFFFFF AND MUL OR SWAP1 SSTORE POP PUSH1 0x12 PUSH1 0xA PUSH2 0x7E SWAP2 SWAP1 PUSH2 0x2CC JUMP JUMPDEST DUP2 PUSH2 0x89 SWAP2 SWAP1 PUSH2 0x316 JUMP JUMPDEST PUSH1 0x1 DUP2 SWAP1 SSTORE POP PUSH1 0xA PUSH1 0x1 SLOAD PUSH2 0x9E SWAP2 SWAP1 PUSH2 0x384 JUMP JUMPDEST PUSH1 0x2 DUP2 SWAP1 SSTORE POP PUSH1 0x2 SLOAD PUSH1 0x3 PUSH0 PUSH0 PUSH0 SWAP1 SLOAD SWAP1 PUSH2 0x100 EXP SWAP1 DIV PUSH20 0xFFFFFFFFFFFFFFFFFFFFFFFFFFFFFFFFFFFFFFFF AND PUSH20 0xFFFFFFFFFFFFFFFFFFFFFFFFFFFFFFFFFFFFFFFF AND PUSH20 0xFFFFFFFFFFFFFFFFFFFFFFFFFFFFFFFFFFFFFFFF AND DUP2 MSTORE PUSH1 0x20 ADD SWAP1 DUP2 MSTORE PUSH1 0x20 ADD PUSH0 KECCAK256 DUP2 SWAP1 SSTORE POP POP PUSH2 0x3B4 JUMP JUMPDEST PUSH0 PUSH0 REVERT JUMPDEST PUSH0 DUP2 SWAP1 POP SWAP2 SWAP1 POP JUMP JUMPDEST PUSH2 0x124 DUP2 PUSH2 0x112 JUMP JUMPDEST DUP2 EQ PUSH2 0x12E JUMPI PUSH0 PUSH0 REVERT JUMPDEST POP JUMP JUMPDEST PUSH0 DUP2 MLOAD SWAP1 POP PUSH2 0x13F DUP2 PUSH2 0x11B JUMP JUMPDEST SWAP3 SWAP2 POP POP JUMP JUMPDEST PUSH0 PUSH1 0x20 DUP3 DUP5 SUB SLT ISZERO PUSH2 0x15A JUMPI PUSH2 0x159 PUSH2 0x10E JUMP JUMPDEST JUMPDEST PUSH0 PUSH2 0x167 DUP5 DUP3 DUP6 ADD PUSH2 0x131 JUMP JUMPDEST SWAP2 POP POP SWAP3 SWAP2 POP POP JUMP JUMPDEST PUSH32 0x4E487B7100000000000000000000000000000000000000000000000000000000 PUSH0 MSTORE PUSH1 0x11 PUSH1 0x4 MSTORE PUSH1 0x24 PUSH0 REVERT JUMPDEST PUSH0 DUP2 PUSH1 0x1 SHR SWAP1 POP SWAP2 SWAP1 POP JUMP JUMPDEST PUSH0 PUSH0 DUP3 SWAP2 POP DUP4 SWAP1 POP JUMPDEST PUSH1 0x1 DUP6 GT ISZERO PUSH2 0x1F2 JUMPI DUP1 DUP7 DIV DUP2 GT ISZERO PUSH2 0x1CE JUMPI PUSH2 0x1CD PUSH2 0x170 JUMP JUMPDEST JUMPDEST PUSH1 0x1 DUP6 AND ISZERO PUSH2 0x1DD JUMPI DUP1 DUP3 MUL SWAP2 POP JUMPDEST DUP1 DUP2 MUL SWAP1 POP PUSH2 0x1EB DUP6 PUSH2 0x19D JUMP JUMPDEST SWAP5 POP PUSH2 0x1B2 JUMP JUMPDEST SWAP5 POP SWAP5 SWAP3 POP POP POP JUMP JUMPDEST PUSH0 DUP3 PUSH2 0x20A JUMPI PUSH1 0x1 SWAP1 POP PUSH2 0x2C5 JUMP JUMPDEST DUP2 PUSH2 0x217 JUMPI PUSH0 SWAP1 POP PUSH2 0x2C5 JUMP JUMPDEST DUP2 PUSH1 0x1 DUP2 EQ PUSH2 0x22D JUMPI PUSH1 0x2 DUP2 EQ PUSH2 0x237 JUMPI PUSH2 0x266 JUMP JUMPDEST PUSH1 0x1 SWAP2 POP POP PUSH2 0x2C5 JUMP JUMPDEST PUSH1 0xFF DUP5 GT ISZERO PUSH2 0x249 JUMPI PUSH2 0x248 PUSH2 0x170 JUMP JUMPDEST JUMPDEST DUP4 PUSH1 0x2 EXP SWAP2 POP DUP5 DUP3 GT ISZERO PUSH2 0x260 JUMPI PUSH2 0x25F PUSH2 0x170 JUMP JUMPDEST JUMPDEST POP PUSH2 0x2C5 JUMP JUMPDEST POP PUSH1 0x20 DUP4 LT PUSH2 0x133 DUP4 LT AND PUSH1 0x4E DUP5 LT PUSH1 0xB DUP5 LT AND OR ISZERO PUSH2 0x29B JUMPI DUP3 DUP3 EXP SWAP1 POP DUP4 DUP2 GT ISZERO PUSH2 0x296 JUMPI PUSH2 0x295 PUSH2 0x170 JUMP JUMPDEST JUMPDEST PUSH2 0x2C5 JUMP JUMPDEST PUSH2 0x2A8 DUP5 DUP5 DUP5 PUSH1 0x1 PUSH2 0x1A9 JUMP JUMPDEST SWAP3 POP SWAP1 POP DUP2 DUP5 DIV DUP2 GT ISZERO PUSH2 0x2BF JUMPI PUSH2 0x2BE PUSH2 0x170 JUMP JUMPDEST JUMPDEST DUP2 DUP2 MUL SWAP1 POP JUMPDEST SWAP4 SWAP3 POP POP POP JUMP JUMPDEST PUSH0 PUSH2 0x2D6 DUP3 PUSH2 0x112 JUMP JUMPDEST SWAP2 POP PUSH2 0x2E1 DUP4 PUSH2 0x112 JUMP JUMPDEST SWAP3 POP PUSH2 0x30E PUSH32 0xFFFFFFFFFFFFFFFFFFFFFFFFFFFFFFFFFFFFFFFFFFFFFFFFFFFFFFFFFFFFFFFF DUP5 DUP5 PUSH2 0x1FB JUMP JUMPDEST SWAP1 POP SWAP3 SWAP2 POP POP JUMP JUMPDEST PUSH0 PUSH2 0x320 DUP3 PUSH2 0x112 JUMP JUMPDEST SWAP2 POP PUSH2 0x32B DUP4 PUSH2 0x112 JUMP JUMPDEST SWAP3 POP DUP3 DUP3 MUL PUSH2 0x339 DUP2 PUSH2 0x112 JUMP JUMPDEST SWAP2 POP DUP3 DUP3 DIV DUP5 EQ DUP4 ISZERO OR PUSH2 0x350 JUMPI PUSH2 0x34F PUSH2 0x170 JUMP JUMPDEST JUMPDEST POP SWAP3 SWAP2 POP POP JUMP JUMPDEST PUSH32 0x4E487B7100000000000000000000000000000000000000000000000000000000 PUSH0 MSTORE PUSH1 0x12 PUSH1 0x4 MSTORE PUSH1 0x24 PUSH0 REVERT JUMPDEST PUSH0 PUSH2 0x38E DUP3 PUSH2 0x112 JUMP JUMPDEST SWAP2 POP PUSH2 0x399 DUP4 PUSH2 0x112 JUMP JUMPDEST SWAP3 POP DUP3 PUSH2 0x3A9 JUMPI PUSH2 0x3A8 PUSH2 0x357 JUMP JUMPDEST JUMPDEST DUP3 DUP3 DIV SWAP1 POP SWAP3 SWAP2 POP POP JUMP JUMPDEST PUSH2 0x352 DUP1 PUSH2 0x3C1 PUSH0 CODECOPY PUSH0 RETURN INVALID PUSH1 0x80 PUSH1 0x40 MSTORE CALLVALUE DUP1 ISZERO PUSH2 0xF JUMPI PUSH0 PUSH0 REVERT JUMPDEST POP PUSH1 0x4 CALLDATASIZE LT PUSH2 0x55 JUMPI PUSH0 CALLDATALOAD PUSH1 0xE0 SHR DUP1 PUSH4 0x6FDDE03 EQ PUSH2 0x59 JUMPI DUP1 PUSH4 0x18160DDD EQ PUSH2 0x77 JUMPI DUP1 PUSH4 0x70A08231 EQ PUSH2 0x95 JUMPI DUP1 PUSH4 0x76809CE3 EQ PUSH2 0xC5 JUMPI DUP1 PUSH4 0x95D89B41 EQ PUSH2 0xE3 JUMPI JUMPDEST PUSH0 PUSH0 REVERT JUMPDEST PUSH2 0x61 PUSH2 0x101 JUMP JUMPDEST PUSH1 0x40 MLOAD PUSH2 0x6E SWAP2 SWAP1 PUSH2 0x242 JUMP JUMPDEST PUSH1 0x40 MLOAD DUP1 SWAP2 SUB SWAP1 RETURN JUMPDEST PUSH2 0x7F PUSH2 0x13E JUMP JUMPDEST PUSH1 0x40 MLOAD PUSH2 0x8C SWAP2 SWAP1 PUSH2 0x27A JUMP JUMPDEST PUSH1 0x40 MLOAD DUP1 SWAP2 SUB SWAP1 RETURN JUMPDEST PUSH2 0xAF PUSH1 0x4 DUP1 CALLDATASIZE SUB DUP2 ADD SWAP1 PUSH2 0xAA SWAP2 SWAP1 PUSH2 0x2F1 JUMP JUMPDEST PUSH2 0x147 JUMP JUMPDEST PUSH1 0x40 MLOAD PUSH2 0xBC SWAP2 SWAP1 PUSH2 0x27A JUMP JUMPDEST PUSH1 0x40 MLOAD DUP1 SWAP2 SUB SWAP1 RETURN JUMPDEST PUSH2 0xCD PUSH2 0x18D JUMP JUMPDEST PUSH1 0x40 MLOAD PUSH2 0xDA SWAP2 SWAP1 PUSH2 0x27A JUMP JUMPDEST PUSH1 0x40 MLOAD DUP1 SWAP2 SUB SWAP1 RETURN JUMPDEST PUSH2 0xEB PUSH2 0x195 JUMP JUMPDEST PUSH1 0x40 MLOAD PUSH2 0xF8 SWAP2 SWAP1 PUSH2 0x242 JUMP JUMPDEST PUSH1 0x40 MLOAD DUP1 SWAP2 SUB SWAP1 RETURN JUMPDEST PUSH1 0x60 PUSH1 0x40 MLOAD DUP1 PUSH1 0x40 ADD PUSH1 0x40 MSTORE DUP1 PUSH1 0x5 DUP2 MSTORE PUSH1 0x20 ADD PUSH32 0x5370696479000000000000000000000000000000000000000000000000000000 DUP2 MSTORE POP SWAP1 POP SWAP1 JUMP JUMPDEST PUSH0 PUSH1 0x1 SLOAD SWAP1 POP SWAP1 JUMP JUMPDEST PUSH0 PUSH1 0x3 PUSH0 DUP4 PUSH20 0xFFFFFFFFFFFFFFFFFFFFFFFFFFFFFFFFFFFFFFFF AND PUSH20 0xFFFFFFFFFFFFFFFFFFFFFFFFFFFFFFFFFFFFFFFF AND DUP2 MSTORE PUSH1 0x20 ADD SWAP1 DUP2 MSTORE PUSH1 0x20 ADD PUSH0 KECCAK256 SLOAD SWAP1 POP SWAP2 SWAP1 POP JUMP JUMPDEST PUSH0 PUSH1 0x12 SWAP1 POP SWAP1 JUMP JUMPDEST PUSH1 0x60 PUSH1 0x40 MLOAD DUP1 PUSH1 0x40 ADD PUSH1 0x40 MSTORE DUP1 PUSH1 0x3 DUP2 MSTORE PUSH1 0x20 ADD PUSH32 0x5350440000000000000000000000000000000000000000000000000000000000 DUP2 MSTORE POP SWAP1 POP SWAP1 JUMP JUMPDEST PUSH0 DUP2 MLOAD SWAP1 POP SWAP2 SWAP1 POP JUMP JUMPDEST PUSH0 DUP3 DUP3 MSTORE PUSH1 0x20 DUP3 ADD SWAP1 POP SWAP3 SWAP2 POP POP JUMP JUMPDEST DUP3 DUP2 DUP4 MCOPY PUSH0 DUP4 DUP4 ADD MSTORE POP POP POP JUMP JUMPDEST PUSH0 PUSH1 0x1F NOT PUSH1 0x1F DUP4 ADD AND SWAP1 POP SWAP2 SWAP1 POP JUMP JUMPDEST PUSH0 PUSH2 0x214 DUP3 PUSH2 0x1D2 JUMP JUMPDEST PUSH2 0x21E DUP2 DUP6 PUSH2 0x1DC JUMP JUMPDEST SWAP4 POP PUSH2 0x22E DUP2 DUP6 PUSH1 0x20 DUP7 ADD PUSH2 0x1EC JUMP JUMPDEST PUSH2 0x237 DUP2 PUSH2 0x1FA JUMP JUMPDEST DUP5 ADD SWAP2 POP POP SWAP3 SWAP2 POP POP JUMP JUMPDEST PUSH0 PUSH1 0x20 DUP3 ADD SWAP1 POP DUP2 DUP2 SUB PUSH0 DUP4 ADD MSTORE PUSH2 0x25A DUP2 DUP5 PUSH2 0x20A JUMP JUMPDEST SWAP1 POP SWAP3 SWAP2 POP POP JUMP JUMPDEST PUSH0 DUP2 SWAP1 POP SWAP2 SWAP1 POP JUMP JUMPDEST PUSH2 0x274 DUP2 PUSH2 0x262 JUMP JUMPDEST DUP3 MSTORE POP POP JUMP JUMPDEST PUSH0 PUSH1 0x20 DUP3 ADD SWAP1 POP PUSH2 0x28D PUSH0 DUP4 ADD DUP5 PUSH2 0x26B JUMP JUMPDEST SWAP3 SWAP2 POP POP JUMP JUMPDEST PUSH0 PUSH0 REVERT JUMPDEST PUSH0 PUSH20 0xFFFFFFFFFFFFFFFFFFFFFFFFFFFFFFFFFFFFFFFF DUP3 AND SWAP1 POP SWAP2 SWAP1 POP JUMP JUMPDEST PUSH0 PUSH2 0x2C0 DUP3 PUSH2 0x297 JUMP JUMPDEST SWAP1 POP SWAP2 SWAP1 POP JUMP JUMPDEST PUSH2 0x2D0 DUP2 PUSH2 0x2B6 JUMP JUMPDEST DUP2 EQ PUSH2 0x2DA JUMPI PUSH0 PUSH0 REVERT JUMPDEST POP JUMP JUMPDEST PUSH0 DUP2 CALLDATALOAD SWAP1 POP PUSH2 0x2EB DUP2 PUSH2 0x2C7 JUMP JUMPDEST SWAP3 SWAP2 POP POP JUMP JUMPDEST PUSH0 PUSH1 0x20 DUP3 DUP5 SUB SLT ISZERO PUSH2 0x306 JUMPI PUSH2 0x305 PUSH2 0x293 JUMP JUMPDEST JUMPDEST PUSH0 PUSH2 0x313 DUP5 DUP3 DUP6 ADD PUSH2 0x2DD JUMP JUMPDEST SWAP2 POP POP SWAP3 SWAP2 POP POP JUMP INVALID LOG2 PUSH5 0x6970667358 0x22 SLT KECCAK256 0xA6 PUSH15 0x127AFF68419E0CEEB48F71C5CE820B RETURNCONTRACT 0xCD 0xDC 0xE8 NOT 0xCB PUSH15 0xB503B09A828088E664736F6C634300 ADDMOD 0x1E STOP CALLER "
				},
				"gasEstimates": {
					"creation": {
						"codeDepositCost": "170000",
						"executionCost": "infinite",
						"totalCost": "infinite"
					},
					"external": {
						"balanceOf(address)": "2851",
						"decimal()": "376",
						"name()": "infinite",
						"symbol()": "infinite",
						"totalSupply()": "2432"
					}
				},
				"methodIdentifiers": {
					"balanceOf(address)": "70a08231",
					"decimal()": "76809ce3",
					"name()": "06fdde03",
					"symbol()": "95d89b41",
					"totalSupply()": "18160ddd"
				}
			},
			"storageLayout": {
				"storage": [
					{
						"astId": 12,
						"contract": "dharan-token/contracts/SpidyToken.sol:SpidyToken",
						"label": "owner",
						"offset": 0,
						"slot": "0",
						"type": "t_address"
					},
					{
						"astId": 14,
						"contract": "dharan-token/contracts/SpidyToken.sol:SpidyToken",
						"label": "_totalSupply",
						"offset": 0,
						"slot": "1",
						"type": "t_uint256"
					},
					{
						"astId": 16,
						"contract": "dharan-token/contracts/SpidyToken.sol:SpidyToken",
						"label": "_initialSupply",
						"offset": 0,
						"slot": "2",
						"type": "t_uint256"
					},
					{
						"astId": 20,
						"contract": "dharan-token/contracts/SpidyToken.sol:SpidyToken",
						"label": "balances",
						"offset": 0,
						"slot": "3",
						"type": "t_mapping(t_address,t_uint256)"
					}
				],
				"types": {
					"t_address": {
						"encoding": "inplace",
						"label": "address",
						"numberOfBytes": "20"
					},
					"t_mapping(t_address,t_uint256)": {
						"encoding": "mapping",
						"key": "t_address",
						"label": "mapping(address => uint256)",
						"numberOfBytes": "32",
						"value": "t_uint256"
					},
					"t_uint256": {
						"encoding": "inplace",
						"label": "uint256",
						"numberOfBytes": "32"
					}
				}
			},
			"userdoc": {
				"kind": "user",
				"methods": {},
				"version": 1
			}
		}
	}
}