{
	"dharan-token/contracts/customERC20/erc20cust.sol": {
		"Batman": {
			"abi": [
				{
					"inputs": [],
					"stateMutability": "nonpayable",
					"type": "constructor"
				},
				{
					"anonymous": false,
					"inputs": [
						{
							"indexed": true,
							"internalType": "address",
							"name": "owner",
							"type": "address"
						},
						{
							"indexed": true,
							"internalType": "address",
							"name": "spender",
							"type": "address"
						},
						{
							"indexed": false,
							"internalType": "uint256",
							"name": "value",
							"type": "uint256"
						}
					],
					"name": "Approval",
					"type": "event"
				},
				{
					"anonymous": false,
					"inputs": [
						{
							"indexed": true,
							"internalType": "address",
							"name": "to",
							"type": "address"
						},
						{
							"indexed": false,
							"internalType": "uint256",
							"name": "value",
							"type": "uint256"
						}
					],
					"name": "Mint",
					"type": "event"
				},
				{
					"anonymous": false,
					"inputs": [
						{
							"indexed": true,
							"internalType": "address",
							"name": "from",
							"type": "address"
						},
						{
							"indexed": true,
							"internalType": "address",
							"name": "to",
							"type": "address"
						},
						{
							"indexed": false,
							"internalType": "uint256",
							"name": "value",
							"type": "uint256"
						}
					],
					"name": "Transfer",
					"type": "event"
				},
				{
					"anonymous": false,
					"inputs": [
						{
							"indexed": true,
							"internalType": "address",
							"name": "user",
							"type": "address"
						},
						{
							"indexed": false,
							"internalType": "bool",
							"name": "status",
							"type": "bool"
						}
					],
					"name": "WhiteListUpdate",
					"type": "event"
				},
				{
					"inputs": [],
					"name": "TotalToken",
					"outputs": [
						{
							"internalType": "uint256",
							"name": "",
							"type": "uint256"
						}
					],
					"stateMutability": "view",
					"type": "function"
				},
				{
					"inputs": [
						{
							"internalType": "address",
							"name": "_owner",
							"type": "address"
						},
						{
							"internalType": "address",
							"name": "_spender",
							"type": "address"
						}
					],
					"name": "allowance",
					"outputs": [
						{
							"internalType": "uint256",
							"name": "",
							"type": "uint256"
						}
					],
					"stateMutability": "view",
					"type": "function"
				},
				{
					"inputs": [
						{
							"internalType": "address",
							"name": "_spender",
							"type": "address"
						},
						{
							"internalType": "uint256",
							"name": "_value",
							"type": "uint256"
						}
					],
					"name": "approve",
					"outputs": [
						{
							"internalType": "bool",
							"name": "success",
							"type": "bool"
						}
					],
					"stateMutability": "nonpayable",
					"type": "function"
				},
				{
					"inputs": [
						{
							"internalType": "address",
							"name": "account",
							"type": "address"
						}
					],
					"name": "balanceOf",
					"outputs": [
						{
							"internalType": "uint256",
							"name": "",
							"type": "uint256"
						}
					],
					"stateMutability": "view",
					"type": "function"
				},
				{
					"inputs": [],
					"name": "burn",
					"outputs": [
						{
							"internalType": "bool",
							"name": "",
							"type": "bool"
						}
					],
					"stateMutability": "nonpayable",
					"type": "function"
				},
				{
					"inputs": [],
					"name": "decimals",
					"outputs": [
						{
							"internalType": "uint256",
							"name": "",
							"type": "uint256"
						}
					],
					"stateMutability": "pure",
					"type": "function"
				},
				{
					"inputs": [
						{
							"internalType": "address",
							"name": "spender",
							"type": "address"
						},
						{
							"internalType": "uint256",
							"name": "value",
							"type": "uint256"
						}
					],
					"name": "decreaseAllowance",
					"outputs": [
						{
							"internalType": "bool",
							"name": "success",
							"type": "bool"
						}
					],
					"stateMutability": "nonpayable",
					"type": "function"
				},
				{
					"inputs": [],
					"name": "getwhitelistedaddress",
					"outputs": [
						{
							"internalType": "address[]",
							"name": "",
							"type": "address[]"
						}
					],
					"stateMutability": "view",
					"type": "function"
				},
				{
					"inputs": [
						{
							"internalType": "address",
							"name": "spender",
							"type": "address"
						},
						{
							"internalType": "uint256",
							"name": "value",
							"type": "uint256"
						}
					],
					"name": "increaseAllowance",
					"outputs": [
						{
							"internalType": "bool",
							"name": "success",
							"type": "bool"
						}
					],
					"stateMutability": "nonpayable",
					"type": "function"
				},
				{
					"inputs": [],
					"name": "mint",
					"outputs": [
						{
							"internalType": "bool",
							"name": "success",
							"type": "bool"
						}
					],
					"stateMutability": "nonpayable",
					"type": "function"
				},
				{
					"inputs": [],
					"name": "name",
					"outputs": [
						{
							"internalType": "string",
							"name": "",
							"type": "string"
						}
					],
					"stateMutability": "pure",
					"type": "function"
				},
				{
					"inputs": [
						{
							"internalType": "address",
							"name": "user",
							"type": "address"
						}
					],
					"name": "removeFromWhiteList",
					"outputs": [],
					"stateMutability": "nonpayable",
					"type": "function"
				},
				{
					"inputs": [
						{
							"internalType": "address",
							"name": "user",
							"type": "address"
						},
						{
							"internalType": "bool",
							"name": "status",
							"type": "bool"
						}
					],
					"name": "setWhiteList",
					"outputs": [],
					"stateMutability": "nonpayable",
					"type": "function"
				},
				{
					"inputs": [],
					"name": "symbol",
					"outputs": [
						{
							"internalType": "string",
							"name": "",
							"type": "string"
						}
					],
					"stateMutability": "pure",
					"type": "function"
				},
				{
					"inputs": [
						{
							"internalType": "address",
							"name": "to",
							"type": "address"
						},
						{
							"internalType": "uint256",
							"name": "amount",
							"type": "uint256"
						}
					],
					"name": "transfer",
					"outputs": [
						{
							"internalType": "bool",
							"name": "success",
							"type": "bool"
						}
					],
					"stateMutability": "nonpayable",
					"type": "function"
				},
				{
					"inputs": [
						{
							"internalType": "address",
							"name": "_from",
							"type": "address"
						},
						{
							"internalType": "address",
							"name": "_to",
							"type": "address"
						},
						{
							"internalType": "uint256",
							"name": "_value",
							"type": "uint256"
						}
					],
					"name": "transferFrom",
					"outputs": [
						{
							"internalType": "bool",
							"name": "success",
							"type": "bool"
						}
					],
					"stateMutability": "nonpayable",
					"type": "function"
				}
			],
			"devdoc": {
				"kind": "dev",
				"methods": {},
				"version": 1
			},
			"evm": {
				"assembly": "    /* \"dharan-token/contracts/customERC20/erc20cust.sol\":60:8774  contract Batman {... */\n  mstore(0x40, 0x80)\n    /* \"dharan-token/contracts/customERC20/erc20cust.sol\":213:215  18 */\n  0x12\n    /* \"dharan-token/contracts/customERC20/erc20cust.sol\":297:299  10 */\n  0x0a\n    /* \"dharan-token/contracts/customERC20/erc20cust.sol\":297:312  10 ** _decimals */\n  tag_1\n  swap2\n  swap1\n  tag_2\n  jump\t// in\ntag_1:\n    /* \"dharan-token/contracts/customERC20/erc20cust.sol\":282:293  10000000000 */\n  0x02540be400\n    /* \"dharan-token/contracts/customERC20/erc20cust.sol\":282:313  10000000000 * (10 ** _decimals) */\n  tag_3\n  swap2\n  swap1\n  tag_4\n  jump\t// in\ntag_3:\n    /* \"dharan-token/contracts/customERC20/erc20cust.sol\":252:313  uint256 private totalSupply = 10000000000 * (10 ** _decimals) */\n  0x01\n  sstore\n    /* \"dharan-token/contracts/customERC20/erc20cust.sol\":352:363  totalSupply */\n  sload(0x01)\n    /* \"dharan-token/contracts/customERC20/erc20cust.sol\":320:363  uint256 private initialSupply = totalSupply */\n  0x02\n  sstore\n    /* \"dharan-token/contracts/customERC20/erc20cust.sol\":1211:1386  constructor() {... */\n  callvalue\n  dup1\n  iszero\n  tag_5\n  jumpi\n  revert(0x00, 0x00)\ntag_5:\n  pop\n    /* \"dharan-token/contracts/customERC20/erc20cust.sol\":1244:1254  msg.sender */\n  caller\n    /* \"dharan-token/contracts/customERC20/erc20cust.sol\":1236:1241  owner */\n  0x00\n  0x00\n    /* \"dharan-token/contracts/customERC20/erc20cust.sol\":1236:1254  owner = msg.sender */\n  0x0100\n  exp\n  dup2\n  sload\n  dup2\n  0xffffffffffffffffffffffffffffffffffffffff\n  mul\n  not\n  and\n  swap1\n  dup4\n  0xffffffffffffffffffffffffffffffffffffffff\n  and\n  mul\n  or\n  swap1\n  sstore\n  pop\n    /* \"dharan-token/contracts/customERC20/erc20cust.sol\":1265:1282  uint256 ownerFund */\n  0x00\n    /* \"dharan-token/contracts/customERC20/erc20cust.sol\":1301:1303  10 */\n  0x0a\n    /* \"dharan-token/contracts/customERC20/erc20cust.sol\":1285:1298  initialSupply */\n  sload(0x02)\n    /* \"dharan-token/contracts/customERC20/erc20cust.sol\":1285:1303  initialSupply / 10 */\n  tag_8\n  swap2\n  swap1\n  tag_9\n  jump\t// in\ntag_8:\n    /* \"dharan-token/contracts/customERC20/erc20cust.sol\":1265:1303  uint256 ownerFund = initialSupply / 10 */\n  swap1\n  pop\n    /* \"dharan-token/contracts/customERC20/erc20cust.sol\":1332:1341  ownerFund */\n  dup1\n    /* \"dharan-token/contracts/customERC20/erc20cust.sol\":1314:1322  balances */\n  0x05\n    /* \"dharan-token/contracts/customERC20/erc20cust.sol\":1314:1329  balances[owner] */\n  0x00\n    /* \"dharan-token/contracts/customERC20/erc20cust.sol\":1323:1328  owner */\n  0x00\n  0x00\n  swap1\n  sload\n  swap1\n  0x0100\n  exp\n  swap1\n  div\n  0xffffffffffffffffffffffffffffffffffffffff\n  and\n    /* \"dharan-token/contracts/customERC20/erc20cust.sol\":1314:1329  balances[owner] */\n  0xffffffffffffffffffffffffffffffffffffffff\n  and\n  0xffffffffffffffffffffffffffffffffffffffff\n  and\n  dup2\n  mstore\n  0x20\n  add\n  swap1\n  dup2\n  mstore\n  0x20\n  add\n  0x00\n  keccak256\n    /* \"dharan-token/contracts/customERC20/erc20cust.sol\":1314:1341  balances[owner] = ownerFund */\n  dup2\n  swap1\n  sstore\n  pop\n    /* \"dharan-token/contracts/customERC20/erc20cust.sol\":1369:1378  ownerFund */\n  dup1\n    /* \"dharan-token/contracts/customERC20/erc20cust.sol\":1352:1365  initialSupply */\n  0x02\n  0x00\n    /* \"dharan-token/contracts/customERC20/erc20cust.sol\":1352:1378  initialSupply -= ownerFund */\n  dup3\n  dup3\n  sload\n  tag_10\n  swap2\n  swap1\n  tag_11\n  jump\t// in\ntag_10:\n  swap3\n  pop\n  pop\n  dup2\n  swap1\n  sstore\n  pop\n    /* \"dharan-token/contracts/customERC20/erc20cust.sol\":1225:1386  {... */\n  pop\n    /* \"dharan-token/contracts/customERC20/erc20cust.sol\":60:8774  contract Batman {... */\n  jump(tag_12)\n    /* \"#utility.yul\":7:187   */\ntag_13:\n    /* \"#utility.yul\":55:132   */\n  0x4e487b7100000000000000000000000000000000000000000000000000000000\n    /* \"#utility.yul\":52:53   */\n  0x00\n    /* \"#utility.yul\":45:133   */\n  mstore\n    /* \"#utility.yul\":152:156   */\n  0x11\n    /* \"#utility.yul\":149:150   */\n  0x04\n    /* \"#utility.yul\":142:157   */\n  mstore\n    /* \"#utility.yul\":176:180   */\n  0x24\n    /* \"#utility.yul\":173:174   */\n  0x00\n    /* \"#utility.yul\":166:181   */\n  revert\n    /* \"#utility.yul\":193:295   */\ntag_14:\n    /* \"#utility.yul\":235:243   */\n  0x00\n    /* \"#utility.yul\":282:287   */\n  dup2\n    /* \"#utility.yul\":279:280   */\n  0x01\n    /* \"#utility.yul\":275:288   */\n  shr\n    /* \"#utility.yul\":254:288   */\n  swap1\n  pop\n    /* \"#utility.yul\":193:295   */\n  swap2\n  swap1\n  pop\n  jump\t// out\n    /* \"#utility.yul\":301:1149   */\ntag_15:\n    /* \"#utility.yul\":362:367   */\n  0x00\n    /* \"#utility.yul\":369:373   */\n  0x00\n    /* \"#utility.yul\":393:399   */\n  dup3\n    /* \"#utility.yul\":384:399   */\n  swap2\n  pop\n    /* \"#utility.yul\":417:422   */\n  dup4\n    /* \"#utility.yul\":408:422   */\n  swap1\n  pop\n    /* \"#utility.yul\":431:1143   */\ntag_23:\n    /* \"#utility.yul\":452:453   */\n  0x01\n    /* \"#utility.yul\":442:450   */\n  dup6\n    /* \"#utility.yul\":439:454   */\n  gt\n    /* \"#utility.yul\":431:1143   */\n  iszero\n  tag_25\n  jumpi\n    /* \"#utility.yul\":547:551   */\n  dup1\n    /* \"#utility.yul\":542:545   */\n  dup7\n    /* \"#utility.yul\":538:552   */\n  div\n    /* \"#utility.yul\":532:536   */\n  dup2\n    /* \"#utility.yul\":529:553   */\n  gt\n    /* \"#utility.yul\":526:576   */\n  iszero\n  tag_26\n  jumpi\n    /* \"#utility.yul\":556:574   */\n  tag_27\n  tag_13\n  jump\t// in\ntag_27:\n    /* \"#utility.yul\":526:576   */\ntag_26:\n    /* \"#utility.yul\":606:607   */\n  0x01\n    /* \"#utility.yul\":596:604   */\n  dup6\n    /* \"#utility.yul\":592:608   */\n  and\n    /* \"#utility.yul\":589:1040   */\n  iszero\n  tag_28\n  jumpi\n    /* \"#utility.yul\":1021:1025   */\n  dup1\n    /* \"#utility.yul\":1014:1019   */\n  dup3\n    /* \"#utility.yul\":1010:1026   */\n  mul\n    /* \"#utility.yul\":1001:1026   */\n  swap2\n  pop\n    /* \"#utility.yul\":589:1040   */\ntag_28:\n    /* \"#utility.yul\":1071:1075   */\n  dup1\n    /* \"#utility.yul\":1065:1069   */\n  dup2\n    /* \"#utility.yul\":1061:1076   */\n  mul\n    /* \"#utility.yul\":1053:1076   */\n  swap1\n  pop\n    /* \"#utility.yul\":1101:1133   */\n  tag_29\n    /* \"#utility.yul\":1124:1132   */\n  dup6\n    /* \"#utility.yul\":1101:1133   */\n  tag_14\n  jump\t// in\ntag_29:\n    /* \"#utility.yul\":1089:1133   */\n  swap5\n  pop\n    /* \"#utility.yul\":431:1143   */\n  jump(tag_23)\ntag_25:\n    /* \"#utility.yul\":301:1149   */\n  swap5\n  pop\n  swap5\n  swap3\n  pop\n  pop\n  pop\n  jump\t// out\n    /* \"#utility.yul\":1155:2228   */\ntag_16:\n    /* \"#utility.yul\":1209:1214   */\n  0x00\n    /* \"#utility.yul\":1400:1408   */\n  dup3\n    /* \"#utility.yul\":1390:1430   */\n  tag_31\n  jumpi\n    /* \"#utility.yul\":1421:1422   */\n  0x01\n    /* \"#utility.yul\":1412:1422   */\n  swap1\n  pop\n    /* \"#utility.yul\":1423:1428   */\n  jump(tag_30)\n    /* \"#utility.yul\":1390:1430   */\ntag_31:\n    /* \"#utility.yul\":1449:1453   */\n  dup2\n    /* \"#utility.yul\":1439:1475   */\n  tag_32\n  jumpi\n    /* \"#utility.yul\":1466:1467   */\n  0x00\n    /* \"#utility.yul\":1457:1467   */\n  swap1\n  pop\n    /* \"#utility.yul\":1468:1473   */\n  jump(tag_30)\n    /* \"#utility.yul\":1439:1475   */\ntag_32:\n    /* \"#utility.yul\":1535:1539   */\n  dup2\n    /* \"#utility.yul\":1583:1584   */\n  0x01\n    /* \"#utility.yul\":1578:1605   */\n  dup2\n  eq\n  tag_34\n  jumpi\n    /* \"#utility.yul\":1619:1620   */\n  0x02\n    /* \"#utility.yul\":1614:1805   */\n  dup2\n  eq\n  tag_35\n  jumpi\n    /* \"#utility.yul\":1528:1805   */\n  jump(tag_33)\n    /* \"#utility.yul\":1578:1605   */\ntag_34:\n    /* \"#utility.yul\":1596:1597   */\n  0x01\n    /* \"#utility.yul\":1587:1597   */\n  swap2\n  pop\n    /* \"#utility.yul\":1598:1603   */\n  pop\n  jump(tag_30)\n    /* \"#utility.yul\":1614:1805   */\ntag_35:\n    /* \"#utility.yul\":1659:1662   */\n  0xff\n    /* \"#utility.yul\":1649:1657   */\n  dup5\n    /* \"#utility.yul\":1646:1663   */\n  gt\n    /* \"#utility.yul\":1643:1686   */\n  iszero\n  tag_36\n  jumpi\n    /* \"#utility.yul\":1666:1684   */\n  tag_37\n  tag_13\n  jump\t// in\ntag_37:\n    /* \"#utility.yul\":1643:1686   */\ntag_36:\n    /* \"#utility.yul\":1715:1723   */\n  dup4\n    /* \"#utility.yul\":1712:1713   */\n  0x02\n    /* \"#utility.yul\":1708:1724   */\n  exp\n    /* \"#utility.yul\":1699:1724   */\n  swap2\n  pop\n    /* \"#utility.yul\":1750:1753   */\n  dup5\n    /* \"#utility.yul\":1743:1748   */\n  dup3\n    /* \"#utility.yul\":1740:1754   */\n  gt\n    /* \"#utility.yul\":1737:1777   */\n  iszero\n  tag_38\n  jumpi\n    /* \"#utility.yul\":1757:1775   */\n  tag_39\n  tag_13\n  jump\t// in\ntag_39:\n    /* \"#utility.yul\":1737:1777   */\ntag_38:\n    /* \"#utility.yul\":1790:1795   */\n  pop\n  jump(tag_30)\n    /* \"#utility.yul\":1528:1805   */\ntag_33:\n  pop\n    /* \"#utility.yul\":1914:1916   */\n  0x20\n    /* \"#utility.yul\":1904:1912   */\n  dup4\n    /* \"#utility.yul\":1901:1917   */\n  lt\n    /* \"#utility.yul\":1895:1898   */\n  0x0133\n    /* \"#utility.yul\":1889:1893   */\n  dup4\n    /* \"#utility.yul\":1886:1899   */\n  lt\n    /* \"#utility.yul\":1882:1918   */\n  and\n    /* \"#utility.yul\":1864:1866   */\n  0x4e\n    /* \"#utility.yul\":1854:1862   */\n  dup5\n    /* \"#utility.yul\":1851:1867   */\n  lt\n    /* \"#utility.yul\":1846:1848   */\n  0x0b\n    /* \"#utility.yul\":1840:1844   */\n  dup5\n    /* \"#utility.yul\":1837:1849   */\n  lt\n    /* \"#utility.yul\":1833:1868   */\n  and\n    /* \"#utility.yul\":1817:1928   */\n  or\n    /* \"#utility.yul\":1814:2060   */\n  iszero\n  tag_40\n  jumpi\n    /* \"#utility.yul\":1970:1978   */\n  dup3\n    /* \"#utility.yul\":1964:1968   */\n  dup3\n    /* \"#utility.yul\":1960:1979   */\n  exp\n    /* \"#utility.yul\":1951:1979   */\n  swap1\n  pop\n    /* \"#utility.yul\":2005:2008   */\n  dup4\n    /* \"#utility.yul\":1998:2003   */\n  dup2\n    /* \"#utility.yul\":1995:2009   */\n  gt\n    /* \"#utility.yul\":1992:2032   */\n  iszero\n  tag_41\n  jumpi\n    /* \"#utility.yul\":2012:2030   */\n  tag_42\n  tag_13\n  jump\t// in\ntag_42:\n    /* \"#utility.yul\":1992:2032   */\ntag_41:\n    /* \"#utility.yul\":2045:2050   */\n  jump(tag_30)\n    /* \"#utility.yul\":1814:2060   */\ntag_40:\n    /* \"#utility.yul\":2085:2127   */\n  tag_43\n    /* \"#utility.yul\":2123:2126   */\n  dup5\n    /* \"#utility.yul\":2113:2121   */\n  dup5\n    /* \"#utility.yul\":2107:2111   */\n  dup5\n    /* \"#utility.yul\":2104:2105   */\n  0x01\n    /* \"#utility.yul\":2085:2127   */\n  tag_15\n  jump\t// in\ntag_43:\n    /* \"#utility.yul\":2070:2127   */\n  swap3\n  pop\n  swap1\n  pop\n    /* \"#utility.yul\":2159:2163   */\n  dup2\n    /* \"#utility.yul\":2154:2157   */\n  dup5\n    /* \"#utility.yul\":2150:2164   */\n  div\n    /* \"#utility.yul\":2143:2148   */\n  dup2\n    /* \"#utility.yul\":2140:2165   */\n  gt\n    /* \"#utility.yul\":2137:2188   */\n  iszero\n  tag_44\n  jumpi\n    /* \"#utility.yul\":2168:2186   */\n  tag_45\n  tag_13\n  jump\t// in\ntag_45:\n    /* \"#utility.yul\":2137:2188   */\ntag_44:\n    /* \"#utility.yul\":2217:2221   */\n  dup2\n    /* \"#utility.yul\":2210:2215   */\n  dup2\n    /* \"#utility.yul\":2206:2222   */\n  mul\n    /* \"#utility.yul\":2197:2222   */\n  swap1\n  pop\n    /* \"#utility.yul\":1155:2228   */\ntag_30:\n  swap4\n  swap3\n  pop\n  pop\n  pop\n  jump\t// out\n    /* \"#utility.yul\":2234:2311   */\ntag_17:\n    /* \"#utility.yul\":2271:2278   */\n  0x00\n    /* \"#utility.yul\":2300:2305   */\n  dup2\n    /* \"#utility.yul\":2289:2305   */\n  swap1\n  pop\n    /* \"#utility.yul\":2234:2311   */\n  swap2\n  swap1\n  pop\n  jump\t// out\n    /* \"#utility.yul\":2317:2602   */\ntag_2:\n    /* \"#utility.yul\":2377:2382   */\n  0x00\n    /* \"#utility.yul\":2401:2424   */\n  tag_48\n    /* \"#utility.yul\":2419:2423   */\n  dup3\n    /* \"#utility.yul\":2401:2424   */\n  tag_17\n  jump\t// in\ntag_48:\n    /* \"#utility.yul\":2393:2424   */\n  swap2\n  pop\n    /* \"#utility.yul\":2445:2472   */\n  tag_49\n    /* \"#utility.yul\":2463:2471   */\n  dup4\n    /* \"#utility.yul\":2445:2472   */\n  tag_17\n  jump\t// in\ntag_49:\n    /* \"#utility.yul\":2433:2472   */\n  swap3\n  pop\n    /* \"#utility.yul\":2491:2595   */\n  tag_50\n    /* \"#utility.yul\":2528:2594   */\n  0xffffffffffffffffffffffffffffffffffffffffffffffffffffffffffffffff\n    /* \"#utility.yul\":2518:2526   */\n  dup5\n    /* \"#utility.yul\":2512:2516   */\n  dup5\n    /* \"#utility.yul\":2491:2595   */\n  tag_16\n  jump\t// in\ntag_50:\n    /* \"#utility.yul\":2482:2595   */\n  swap1\n  pop\n    /* \"#utility.yul\":2317:2602   */\n  swap3\n  swap2\n  pop\n  pop\n  jump\t// out\n    /* \"#utility.yul\":2608:3018   */\ntag_4:\n    /* \"#utility.yul\":2648:2655   */\n  0x00\n    /* \"#utility.yul\":2671:2691   */\n  tag_52\n    /* \"#utility.yul\":2689:2690   */\n  dup3\n    /* \"#utility.yul\":2671:2691   */\n  tag_17\n  jump\t// in\ntag_52:\n    /* \"#utility.yul\":2666:2691   */\n  swap2\n  pop\n    /* \"#utility.yul\":2705:2725   */\n  tag_53\n    /* \"#utility.yul\":2723:2724   */\n  dup4\n    /* \"#utility.yul\":2705:2725   */\n  tag_17\n  jump\t// in\ntag_53:\n    /* \"#utility.yul\":2700:2725   */\n  swap3\n  pop\n    /* \"#utility.yul\":2760:2761   */\n  dup3\n    /* \"#utility.yul\":2757:2758   */\n  dup3\n    /* \"#utility.yul\":2753:2762   */\n  mul\n    /* \"#utility.yul\":2782:2812   */\n  tag_54\n    /* \"#utility.yul\":2800:2811   */\n  dup2\n    /* \"#utility.yul\":2782:2812   */\n  tag_17\n  jump\t// in\ntag_54:\n    /* \"#utility.yul\":2771:2812   */\n  swap2\n  pop\n    /* \"#utility.yul\":2961:2962   */\n  dup3\n    /* \"#utility.yul\":2952:2959   */\n  dup3\n    /* \"#utility.yul\":2948:2963   */\n  div\n    /* \"#utility.yul\":2945:2946   */\n  dup5\n    /* \"#utility.yul\":2942:2964   */\n  eq\n    /* \"#utility.yul\":2922:2923   */\n  dup4\n    /* \"#utility.yul\":2915:2924   */\n  iszero\n    /* \"#utility.yul\":2895:2978   */\n  or\n    /* \"#utility.yul\":2872:3011   */\n  tag_55\n  jumpi\n    /* \"#utility.yul\":2991:3009   */\n  tag_56\n  tag_13\n  jump\t// in\ntag_56:\n    /* \"#utility.yul\":2872:3011   */\ntag_55:\n    /* \"#utility.yul\":2656:3018   */\n  pop\n    /* \"#utility.yul\":2608:3018   */\n  swap3\n  swap2\n  pop\n  pop\n  jump\t// out\n    /* \"#utility.yul\":3024:3204   */\ntag_18:\n    /* \"#utility.yul\":3072:3149   */\n  0x4e487b7100000000000000000000000000000000000000000000000000000000\n    /* \"#utility.yul\":3069:3070   */\n  0x00\n    /* \"#utility.yul\":3062:3150   */\n  mstore\n    /* \"#utility.yul\":3169:3173   */\n  0x12\n    /* \"#utility.yul\":3166:3167   */\n  0x04\n    /* \"#utility.yul\":3159:3174   */\n  mstore\n    /* \"#utility.yul\":3193:3197   */\n  0x24\n    /* \"#utility.yul\":3190:3191   */\n  0x00\n    /* \"#utility.yul\":3183:3198   */\n  revert\n    /* \"#utility.yul\":3210:3395   */\ntag_9:\n    /* \"#utility.yul\":3250:3251   */\n  0x00\n    /* \"#utility.yul\":3267:3287   */\n  tag_59\n    /* \"#utility.yul\":3285:3286   */\n  dup3\n    /* \"#utility.yul\":3267:3287   */\n  tag_17\n  jump\t// in\ntag_59:\n    /* \"#utility.yul\":3262:3287   */\n  swap2\n  pop\n    /* \"#utility.yul\":3301:3321   */\n  tag_60\n    /* \"#utility.yul\":3319:3320   */\n  dup4\n    /* \"#utility.yul\":3301:3321   */\n  tag_17\n  jump\t// in\ntag_60:\n    /* \"#utility.yul\":3296:3321   */\n  swap3\n  pop\n    /* \"#utility.yul\":3340:3341   */\n  dup3\n    /* \"#utility.yul\":3330:3365   */\n  tag_61\n  jumpi\n    /* \"#utility.yul\":3345:3363   */\n  tag_62\n  tag_18\n  jump\t// in\ntag_62:\n    /* \"#utility.yul\":3330:3365   */\ntag_61:\n    /* \"#utility.yul\":3387:3388   */\n  dup3\n    /* \"#utility.yul\":3384:3385   */\n  dup3\n    /* \"#utility.yul\":3380:3389   */\n  div\n    /* \"#utility.yul\":3375:3389   */\n  swap1\n  pop\n    /* \"#utility.yul\":3210:3395   */\n  swap3\n  swap2\n  pop\n  pop\n  jump\t// out\n    /* \"#utility.yul\":3401:3595   */\ntag_11:\n    /* \"#utility.yul\":3441:3445   */\n  0x00\n    /* \"#utility.yul\":3461:3481   */\n  tag_64\n    /* \"#utility.yul\":3479:3480   */\n  dup3\n    /* \"#utility.yul\":3461:3481   */\n  tag_17\n  jump\t// in\ntag_64:\n    /* \"#utility.yul\":3456:3481   */\n  swap2\n  pop\n    /* \"#utility.yul\":3495:3515   */\n  tag_65\n    /* \"#utility.yul\":3513:3514   */\n  dup4\n    /* \"#utility.yul\":3495:3515   */\n  tag_17\n  jump\t// in\ntag_65:\n    /* \"#utility.yul\":3490:3515   */\n  swap3\n  pop\n    /* \"#utility.yul\":3539:3540   */\n  dup3\n    /* \"#utility.yul\":3536:3537   */\n  dup3\n    /* \"#utility.yul\":3532:3541   */\n  sub\n    /* \"#utility.yul\":3524:3541   */\n  swap1\n  pop\n    /* \"#utility.yul\":3563:3564   */\n  dup2\n    /* \"#utility.yul\":3557:3561   */\n  dup2\n    /* \"#utility.yul\":3554:3565   */\n  gt\n    /* \"#utility.yul\":3551:3588   */\n  iszero\n  tag_66\n  jumpi\n    /* \"#utility.yul\":3568:3586   */\n  tag_67\n  tag_13\n  jump\t// in\ntag_67:\n    /* \"#utility.yul\":3551:3588   */\ntag_66:\n    /* \"#utility.yul\":3401:3595   */\n  swap3\n  swap2\n  pop\n  pop\n  jump\t// out\n    /* \"dharan-token/contracts/customERC20/erc20cust.sol\":60:8774  contract Batman {... */\ntag_12:\n  dataSize(sub_0)\n  dup1\n  dataOffset(sub_0)\n  0x00\n  codecopy\n  0x00\n  return\nstop\n\nsub_0: assembly {\n        /* \"dharan-token/contracts/customERC20/erc20cust.sol\":60:8774  contract Batman {... */\n      mstore(0x40, 0x80)\n      callvalue\n      dup1\n      iszero\n      tag_1\n      jumpi\n      revert(0x00, 0x00)\n    tag_1:\n      pop\n      jumpi(tag_2, lt(calldatasize, 0x04))\n      shr(0xe0, calldataload(0x00))\n      dup1\n      0x42505e6b\n      gt\n      tag_19\n      jumpi\n      dup1\n      0x95d89b41\n      gt\n      tag_20\n      jumpi\n      dup1\n      0x95d89b41\n      eq\n      tag_15\n      jumpi\n      dup1\n      0xa457c2d7\n      eq\n      tag_16\n      jumpi\n      dup1\n      0xa9059cbb\n      eq\n      tag_17\n      jumpi\n      dup1\n      0xdd62ed3e\n      eq\n      tag_18\n      jumpi\n      jump(tag_2)\n    tag_20:\n      dup1\n      0x42505e6b\n      eq\n      tag_11\n      jumpi\n      dup1\n      0x44df8e70\n      eq\n      tag_12\n      jumpi\n      dup1\n      0x70a08231\n      eq\n      tag_13\n      jumpi\n      dup1\n      0x8d14e127\n      eq\n      tag_14\n      jumpi\n      jump(tag_2)\n    tag_19:\n      dup1\n      0x23b872dd\n      gt\n      tag_21\n      jumpi\n      dup1\n      0x23b872dd\n      eq\n      tag_7\n      jumpi\n      dup1\n      0x313ce567\n      eq\n      tag_8\n      jumpi\n      dup1\n      0x39509351\n      eq\n      tag_9\n      jumpi\n      dup1\n      0x3f601972\n      eq\n      tag_10\n      jumpi\n      jump(tag_2)\n    tag_21:\n      dup1\n      0x01bf6648\n      eq\n      tag_3\n      jumpi\n      dup1\n      0x06fdde03\n      eq\n      tag_4\n      jumpi\n      dup1\n      0x095ea7b3\n      eq\n      tag_5\n      jumpi\n      dup1\n      0x1249c58b\n      eq\n      tag_6\n      jumpi\n    tag_2:\n      revert(0x00, 0x00)\n        /* \"dharan-token/contracts/customERC20/erc20cust.sol\":3913:4470  function removeFromWhiteList(address user) public onlyOwner {... */\n    tag_3:\n      tag_22\n      0x04\n      dup1\n      calldatasize\n      sub\n      dup2\n      add\n      swap1\n      tag_23\n      swap2\n      swap1\n      tag_24\n      jump\t// in\n    tag_23:\n      tag_25\n      jump\t// in\n    tag_22:\n      stop\n        /* \"dharan-token/contracts/customERC20/erc20cust.sol\":1394:1477  function name() public pure returns (string memory) {... */\n    tag_4:\n      tag_26\n      tag_27\n      jump\t// in\n    tag_26:\n      mload(0x40)\n      tag_28\n      swap2\n      swap1\n      tag_29\n      jump\t// in\n    tag_28:\n      mload(0x40)\n      dup1\n      swap2\n      sub\n      swap1\n      return\n        /* \"dharan-token/contracts/customERC20/erc20cust.sol\":4648:5119  function approve(... */\n    tag_5:\n      tag_30\n      0x04\n      dup1\n      calldatasize\n      sub\n      dup2\n      add\n      swap1\n      tag_31\n      swap2\n      swap1\n      tag_32\n      jump\t// in\n    tag_31:\n      tag_33\n      jump\t// in\n    tag_30:\n      mload(0x40)\n      tag_34\n      swap2\n      swap1\n      tag_35\n      jump\t// in\n    tag_34:\n      mload(0x40)\n      dup1\n      swap2\n      sub\n      swap1\n      return\n        /* \"dharan-token/contracts/customERC20/erc20cust.sol\":5127:5672  function mint() public onlyOwner returns(bool success) {... */\n    tag_6:\n      tag_36\n      tag_37\n      jump\t// in\n    tag_36:\n      mload(0x40)\n      tag_38\n      swap2\n      swap1\n      tag_35\n      jump\t// in\n    tag_38:\n      mload(0x40)\n      dup1\n      swap2\n      sub\n      swap1\n      return\n        /* \"dharan-token/contracts/customERC20/erc20cust.sol\":5680:7239  function transferFrom(... */\n    tag_7:\n      tag_39\n      0x04\n      dup1\n      calldatasize\n      sub\n      dup2\n      add\n      swap1\n      tag_40\n      swap2\n      swap1\n      tag_41\n      jump\t// in\n    tag_40:\n      tag_42\n      jump\t// in\n    tag_39:\n      mload(0x40)\n      tag_43\n      swap2\n      swap1\n      tag_35\n      jump\t// in\n    tag_43:\n      mload(0x40)\n      dup1\n      swap2\n      sub\n      swap1\n      return\n        /* \"dharan-token/contracts/customERC20/erc20cust.sol\":1580:1665  function decimals() public pure returns (uint256) {... */\n    tag_8:\n      tag_44\n      tag_45\n      jump\t// in\n    tag_44:\n      mload(0x40)\n      tag_46\n      swap2\n      swap1\n      tag_47\n      jump\t// in\n    tag_46:\n      mload(0x40)\n      dup1\n      swap2\n      sub\n      swap1\n      return\n        /* \"dharan-token/contracts/customERC20/erc20cust.sol\":7247:7743  function increaseAllowance(... */\n    tag_9:\n      tag_48\n      0x04\n      dup1\n      calldatasize\n      sub\n      dup2\n      add\n      swap1\n      tag_49\n      swap2\n      swap1\n      tag_32\n      jump\t// in\n    tag_49:\n      tag_50\n      jump\t// in\n    tag_48:\n      mload(0x40)\n      tag_51\n      swap2\n      swap1\n      tag_35\n      jump\t// in\n    tag_51:\n      mload(0x40)\n      dup1\n      swap2\n      sub\n      swap1\n      return\n        /* \"dharan-token/contracts/customERC20/erc20cust.sol\":1804:1893  function TotalToken() public view returns (uint256) {... */\n    tag_10:\n      tag_52\n      tag_53\n      jump\t// in\n    tag_52:\n      mload(0x40)\n      tag_54\n      swap2\n      swap1\n      tag_47\n      jump\t// in\n    tag_54:\n      mload(0x40)\n      dup1\n      swap2\n      sub\n      swap1\n      return\n        /* \"dharan-token/contracts/customERC20/erc20cust.sol\":3791:3905  function getwhitelistedaddress() public view returns (address[] memory) {... */\n    tag_11:\n      tag_55\n      tag_56\n      jump\t// in\n    tag_55:\n      mload(0x40)\n      tag_57\n      swap2\n      swap1\n      tag_58\n      jump\t// in\n    tag_57:\n      mload(0x40)\n      dup1\n      swap2\n      sub\n      swap1\n      return\n        /* \"dharan-token/contracts/customERC20/erc20cust.sol\":8417:8771  function burn() public onlyOwner returns (bool) {... */\n    tag_12:\n      tag_59\n      tag_60\n      jump\t// in\n    tag_59:\n      mload(0x40)\n      tag_61\n      swap2\n      swap1\n      tag_35\n      jump\t// in\n    tag_61:\n      mload(0x40)\n      dup1\n      swap2\n      sub\n      swap1\n      return\n        /* \"dharan-token/contracts/customERC20/erc20cust.sol\":1901:2010  function balanceOf(address account) public view returns (uint256) {... */\n    tag_13:\n      tag_62\n      0x04\n      dup1\n      calldatasize\n      sub\n      dup2\n      add\n      swap1\n      tag_63\n      swap2\n      swap1\n      tag_24\n      jump\t// in\n    tag_63:\n      tag_64\n      jump\t// in\n    tag_62:\n      mload(0x40)\n      tag_65\n      swap2\n      swap1\n      tag_47\n      jump\t// in\n    tag_65:\n      mload(0x40)\n      dup1\n      swap2\n      sub\n      swap1\n      return\n        /* \"dharan-token/contracts/customERC20/erc20cust.sol\":3389:3783  function setWhiteList(address user, bool status) public onlyOwner {... */\n    tag_14:\n      tag_66\n      0x04\n      dup1\n      calldatasize\n      sub\n      dup2\n      add\n      swap1\n      tag_67\n      swap2\n      swap1\n      tag_68\n      jump\t// in\n    tag_67:\n      tag_69\n      jump\t// in\n    tag_66:\n      stop\n        /* \"dharan-token/contracts/customERC20/erc20cust.sol\":1485:1572  function symbol() public pure returns (string memory) {... */\n    tag_15:\n      tag_70\n      tag_71\n      jump\t// in\n    tag_70:\n      mload(0x40)\n      tag_72\n      swap2\n      swap1\n      tag_29\n      jump\t// in\n    tag_72:\n      mload(0x40)\n      dup1\n      swap2\n      sub\n      swap1\n      return\n        /* \"dharan-token/contracts/customERC20/erc20cust.sol\":7751:8409  function decreaseAllowance(... */\n    tag_16:\n      tag_73\n      0x04\n      dup1\n      calldatasize\n      sub\n      dup2\n      add\n      swap1\n      tag_74\n      swap2\n      swap1\n      tag_32\n      jump\t// in\n    tag_74:\n      tag_75\n      jump\t// in\n    tag_73:\n      mload(0x40)\n      tag_76\n      swap2\n      swap1\n      tag_35\n      jump\t// in\n    tag_76:\n      mload(0x40)\n      dup1\n      swap2\n      sub\n      swap1\n      return\n        /* \"dharan-token/contracts/customERC20/erc20cust.sol\":2018:3381  function transfer(... */\n    tag_17:\n      tag_77\n      0x04\n      dup1\n      calldatasize\n      sub\n      dup2\n      add\n      swap1\n      tag_78\n      swap2\n      swap1\n      tag_32\n      jump\t// in\n    tag_78:\n      tag_79\n      jump\t// in\n    tag_77:\n      mload(0x40)\n      tag_80\n      swap2\n      swap1\n      tag_35\n      jump\t// in\n    tag_80:\n      mload(0x40)\n      dup1\n      swap2\n      sub\n      swap1\n      return\n        /* \"dharan-token/contracts/customERC20/erc20cust.sol\":4478:4640  function allowance(... */\n    tag_18:\n      tag_81\n      0x04\n      dup1\n      calldatasize\n      sub\n      dup2\n      add\n      swap1\n      tag_82\n      swap2\n      swap1\n      tag_83\n      jump\t// in\n    tag_82:\n      tag_84\n      jump\t// in\n    tag_81:\n      mload(0x40)\n      tag_85\n      swap2\n      swap1\n      tag_47\n      jump\t// in\n    tag_85:\n      mload(0x40)\n      dup1\n      swap2\n      sub\n      swap1\n      return\n        /* \"dharan-token/contracts/customERC20/erc20cust.sol\":3913:4470  function removeFromWhiteList(address user) public onlyOwner {... */\n    tag_25:\n        /* \"dharan-token/contracts/customERC20/erc20cust.sol\":1727:1732  owner */\n      0x00\n      0x00\n      swap1\n      sload\n      swap1\n      0x0100\n      exp\n      swap1\n      div\n      0xffffffffffffffffffffffffffffffffffffffff\n      and\n        /* \"dharan-token/contracts/customERC20/erc20cust.sol\":1713:1732  msg.sender == owner */\n      0xffffffffffffffffffffffffffffffffffffffff\n      and\n        /* \"dharan-token/contracts/customERC20/erc20cust.sol\":1713:1723  msg.sender */\n      caller\n        /* \"dharan-token/contracts/customERC20/erc20cust.sol\":1713:1732  msg.sender == owner */\n      0xffffffffffffffffffffffffffffffffffffffff\n      and\n      eq\n        /* \"dharan-token/contracts/customERC20/erc20cust.sol\":1705:1776  require(msg.sender == owner, \"only owner have access to this function\") */\n      tag_87\n      jumpi\n      mload(0x40)\n      0x08c379a000000000000000000000000000000000000000000000000000000000\n      dup2\n      mstore\n      0x04\n      add\n      tag_88\n      swap1\n      tag_89\n      jump\t// in\n    tag_88:\n      mload(0x40)\n      dup1\n      swap2\n      sub\n      swap1\n      revert\n    tag_87:\n        /* \"dharan-token/contracts/customERC20/erc20cust.sol\":3992:4005  isWhitelisted */\n      0x06\n        /* \"dharan-token/contracts/customERC20/erc20cust.sol\":3992:4011  isWhitelisted[user] */\n      0x00\n        /* \"dharan-token/contracts/customERC20/erc20cust.sol\":4006:4010  user */\n      dup3\n        /* \"dharan-token/contracts/customERC20/erc20cust.sol\":3992:4011  isWhitelisted[user] */\n      0xffffffffffffffffffffffffffffffffffffffff\n      and\n      0xffffffffffffffffffffffffffffffffffffffff\n      and\n      dup2\n      mstore\n      0x20\n      add\n      swap1\n      dup2\n      mstore\n      0x20\n      add\n      0x00\n      keccak256\n      0x00\n      swap1\n      sload\n      swap1\n      0x0100\n      exp\n      swap1\n      div\n      0xff\n      and\n        /* \"dharan-token/contracts/customERC20/erc20cust.sol\":3984:4036  require(isWhitelisted[user], \"User not WhiteListed\") */\n      tag_91\n      jumpi\n      mload(0x40)\n      0x08c379a000000000000000000000000000000000000000000000000000000000\n      dup2\n      mstore\n      0x04\n      add\n      tag_92\n      swap1\n      tag_93\n      jump\t// in\n    tag_92:\n      mload(0x40)\n      dup1\n      swap2\n      sub\n      swap1\n      revert\n    tag_91:\n        /* \"dharan-token/contracts/customERC20/erc20cust.sol\":4052:4061  uint256 i */\n      0x00\n        /* \"dharan-token/contracts/customERC20/erc20cust.sol\":4047:4463  for (uint256 i; i < whiteListedUsers.length; i++) {... */\n    tag_94:\n        /* \"dharan-token/contracts/customERC20/erc20cust.sol\":4067:4083  whiteListedUsers */\n      0x04\n        /* \"dharan-token/contracts/customERC20/erc20cust.sol\":4067:4090  whiteListedUsers.length */\n      dup1\n      sload\n      swap1\n      pop\n        /* \"dharan-token/contracts/customERC20/erc20cust.sol\":4063:4064  i */\n      dup2\n        /* \"dharan-token/contracts/customERC20/erc20cust.sol\":4063:4090  i < whiteListedUsers.length */\n      lt\n        /* \"dharan-token/contracts/customERC20/erc20cust.sol\":4047:4463  for (uint256 i; i < whiteListedUsers.length; i++) {... */\n      iszero\n      tag_95\n      jumpi\n        /* \"dharan-token/contracts/customERC20/erc20cust.sol\":4124:4140  whiteListedUsers */\n      0x04\n        /* \"dharan-token/contracts/customERC20/erc20cust.sol\":4141:4142  i */\n      dup2\n        /* \"dharan-token/contracts/customERC20/erc20cust.sol\":4124:4143  whiteListedUsers[i] */\n      dup2\n      sload\n      dup2\n      lt\n      tag_97\n      jumpi\n      tag_98\n      tag_99\n      jump\t// in\n    tag_98:\n    tag_97:\n      swap1\n      0x00\n      mstore\n      keccak256(0x00, 0x20)\n      add\n      0x00\n      swap1\n      sload\n      swap1\n      0x0100\n      exp\n      swap1\n      div\n      0xffffffffffffffffffffffffffffffffffffffff\n      and\n        /* \"dharan-token/contracts/customERC20/erc20cust.sol\":4116:4143  user == whiteListedUsers[i] */\n      0xffffffffffffffffffffffffffffffffffffffff\n      and\n        /* \"dharan-token/contracts/customERC20/erc20cust.sol\":4116:4120  user */\n      dup3\n        /* \"dharan-token/contracts/customERC20/erc20cust.sol\":4116:4143  user == whiteListedUsers[i] */\n      0xffffffffffffffffffffffffffffffffffffffff\n      and\n      sub\n        /* \"dharan-token/contracts/customERC20/erc20cust.sol\":4112:4452  if (user == whiteListedUsers[i]) {... */\n      tag_101\n      jumpi\n        /* \"dharan-token/contracts/customERC20/erc20cust.sol\":4186:4202  whiteListedUsers */\n      0x04\n        /* \"dharan-token/contracts/customERC20/erc20cust.sol\":4251:4252  1 */\n      0x01\n        /* \"dharan-token/contracts/customERC20/erc20cust.sol\":4225:4241  whiteListedUsers */\n      0x04\n        /* \"dharan-token/contracts/customERC20/erc20cust.sol\":4225:4248  whiteListedUsers.length */\n      dup1\n      sload\n      swap1\n      pop\n        /* \"dharan-token/contracts/customERC20/erc20cust.sol\":4225:4252  whiteListedUsers.length - 1 */\n      tag_102\n      swap2\n      swap1\n      tag_103\n      jump\t// in\n    tag_102:\n        /* \"dharan-token/contracts/customERC20/erc20cust.sol\":4186:4271  whiteListedUsers[... */\n      dup2\n      sload\n      dup2\n      lt\n      tag_104\n      jumpi\n      tag_105\n      tag_99\n      jump\t// in\n    tag_105:\n    tag_104:\n      swap1\n      0x00\n      mstore\n      keccak256(0x00, 0x20)\n      add\n      0x00\n      swap1\n      sload\n      swap1\n      0x0100\n      exp\n      swap1\n      div\n      0xffffffffffffffffffffffffffffffffffffffff\n      and\n        /* \"dharan-token/contracts/customERC20/erc20cust.sol\":4164:4180  whiteListedUsers */\n      0x04\n        /* \"dharan-token/contracts/customERC20/erc20cust.sol\":4181:4182  i */\n      dup3\n        /* \"dharan-token/contracts/customERC20/erc20cust.sol\":4164:4183  whiteListedUsers[i] */\n      dup2\n      sload\n      dup2\n      lt\n      tag_107\n      jumpi\n      tag_108\n      tag_99\n      jump\t// in\n    tag_108:\n    tag_107:\n      swap1\n      0x00\n      mstore\n      keccak256(0x00, 0x20)\n      add\n      0x00\n        /* \"dharan-token/contracts/customERC20/erc20cust.sol\":4164:4271  whiteListedUsers[i] = whiteListedUsers[... */\n      0x0100\n      exp\n      dup2\n      sload\n      dup2\n      0xffffffffffffffffffffffffffffffffffffffff\n      mul\n      not\n      and\n      swap1\n      dup4\n      0xffffffffffffffffffffffffffffffffffffffff\n      and\n      mul\n      or\n      swap1\n      sstore\n      pop\n        /* \"dharan-token/contracts/customERC20/erc20cust.sol\":4290:4306  whiteListedUsers */\n      0x04\n        /* \"dharan-token/contracts/customERC20/erc20cust.sol\":4290:4312  whiteListedUsers.pop() */\n      dup1\n      sload\n      dup1\n      tag_110\n      jumpi\n      tag_111\n      tag_112\n      jump\t// in\n    tag_111:\n    tag_110:\n      0x01\n      swap1\n      sub\n      dup2\n      dup2\n      swap1\n      0x00\n      mstore\n      keccak256(0x00, 0x20)\n      add\n      exp(0x0100, 0x00)\n      dup2\n      sload\n      swap1\n      0xffffffffffffffffffffffffffffffffffffffff\n      mul\n      not\n      and\n      swap1\n      sstore\n      swap1\n      sstore\n        /* \"dharan-token/contracts/customERC20/erc20cust.sol\":4353:4358  false */\n      0x00\n        /* \"dharan-token/contracts/customERC20/erc20cust.sol\":4331:4344  isWhitelisted */\n      0x06\n        /* \"dharan-token/contracts/customERC20/erc20cust.sol\":4331:4350  isWhitelisted[user] */\n      0x00\n        /* \"dharan-token/contracts/customERC20/erc20cust.sol\":4345:4349  user */\n      dup5\n        /* \"dharan-token/contracts/customERC20/erc20cust.sol\":4331:4350  isWhitelisted[user] */\n      0xffffffffffffffffffffffffffffffffffffffff\n      and\n      0xffffffffffffffffffffffffffffffffffffffff\n      and\n      dup2\n      mstore\n      0x20\n      add\n      swap1\n      dup2\n      mstore\n      0x20\n      add\n      0x00\n      keccak256\n      0x00\n        /* \"dharan-token/contracts/customERC20/erc20cust.sol\":4331:4358  isWhitelisted[user] = false */\n      0x0100\n      exp\n      dup2\n      sload\n      dup2\n      0xff\n      mul\n      not\n      and\n      swap1\n      dup4\n      iszero\n      iszero\n      mul\n      or\n      swap1\n      sstore\n      pop\n        /* \"dharan-token/contracts/customERC20/erc20cust.sol\":4398:4402  user */\n      dup2\n        /* \"dharan-token/contracts/customERC20/erc20cust.sol\":4382:4410  WhiteListUpdate(user, false) */\n      0xffffffffffffffffffffffffffffffffffffffff\n      and\n      0x111b0cdde6a17355dbeb5ce9b87078297fec9b61b51550540b0d4e2f1e4913c2\n        /* \"dharan-token/contracts/customERC20/erc20cust.sol\":4404:4409  false */\n      0x00\n        /* \"dharan-token/contracts/customERC20/erc20cust.sol\":4382:4410  WhiteListUpdate(user, false) */\n      mload(0x40)\n      tag_114\n      swap2\n      swap1\n      tag_35\n      jump\t// in\n    tag_114:\n      mload(0x40)\n      dup1\n      swap2\n      sub\n      swap1\n      log2\n        /* \"dharan-token/contracts/customERC20/erc20cust.sol\":4431:4436  break */\n      jump(tag_95)\n        /* \"dharan-token/contracts/customERC20/erc20cust.sol\":4112:4452  if (user == whiteListedUsers[i]) {... */\n    tag_101:\n        /* \"dharan-token/contracts/customERC20/erc20cust.sol\":4092:4095  i++ */\n      dup1\n      dup1\n      0x01\n      add\n      swap2\n      pop\n      pop\n        /* \"dharan-token/contracts/customERC20/erc20cust.sol\":4047:4463  for (uint256 i; i < whiteListedUsers.length; i++) {... */\n      jump(tag_94)\n    tag_95:\n      pop\n        /* \"dharan-token/contracts/customERC20/erc20cust.sol\":3913:4470  function removeFromWhiteList(address user) public onlyOwner {... */\n      pop\n      jump\t// out\n        /* \"dharan-token/contracts/customERC20/erc20cust.sol\":1394:1477  function name() public pure returns (string memory) {... */\n    tag_27:\n        /* \"dharan-token/contracts/customERC20/erc20cust.sol\":1431:1444  string memory */\n      0x60\n        /* \"dharan-token/contracts/customERC20/erc20cust.sol\":1464:1469  _name */\n      mload(0x40)\n      dup1\n      0x40\n      add\n      0x40\n      mstore\n      dup1\n      0x06\n      dup2\n      mstore\n      0x20\n      add\n      0x4261746d616e0000000000000000000000000000000000000000000000000000\n      dup2\n      mstore\n      pop\n        /* \"dharan-token/contracts/customERC20/erc20cust.sol\":1457:1469  return _name */\n      swap1\n      pop\n        /* \"dharan-token/contracts/customERC20/erc20cust.sol\":1394:1477  function name() public pure returns (string memory) {... */\n      swap1\n      jump\t// out\n        /* \"dharan-token/contracts/customERC20/erc20cust.sol\":4648:5119  function approve(... */\n    tag_33:\n        /* \"dharan-token/contracts/customERC20/erc20cust.sol\":4740:4752  bool success */\n      0x00\n        /* \"dharan-token/contracts/customERC20/erc20cust.sol\":4765:4796  uint256 approveValueWithDecimal */\n      0x00\n        /* \"dharan-token/contracts/customERC20/erc20cust.sol\":213:215  18 */\n      0x12\n        /* \"dharan-token/contracts/customERC20/erc20cust.sol\":4809:4811  10 */\n      0x0a\n        /* \"dharan-token/contracts/customERC20/erc20cust.sol\":4809:4824  10 ** _decimals */\n      tag_117\n      swap2\n      swap1\n      tag_118\n      jump\t// in\n    tag_117:\n        /* \"dharan-token/contracts/customERC20/erc20cust.sol\":4799:4805  _value */\n      dup4\n        /* \"dharan-token/contracts/customERC20/erc20cust.sol\":4799:4825  _value * (10 ** _decimals) */\n      tag_119\n      swap2\n      swap1\n      tag_120\n      jump\t// in\n    tag_119:\n        /* \"dharan-token/contracts/customERC20/erc20cust.sol\":4765:4825  uint256 approveValueWithDecimal = _value * (10 ** _decimals) */\n      swap1\n      pop\n        /* \"dharan-token/contracts/customERC20/erc20cust.sol\":4878:4879  0 */\n      0x00\n        /* \"dharan-token/contracts/customERC20/erc20cust.sol\":4858:4880  _spender != address(0) */\n      0xffffffffffffffffffffffffffffffffffffffff\n      and\n        /* \"dharan-token/contracts/customERC20/erc20cust.sol\":4858:4866  _spender */\n      dup5\n        /* \"dharan-token/contracts/customERC20/erc20cust.sol\":4858:4880  _spender != address(0) */\n      0xffffffffffffffffffffffffffffffffffffffff\n      and\n      sub\n        /* \"dharan-token/contracts/customERC20/erc20cust.sol\":4836:4947  require(... */\n      tag_121\n      jumpi\n      mload(0x40)\n      0x08c379a000000000000000000000000000000000000000000000000000000000\n      dup2\n      mstore\n      0x04\n      add\n      tag_122\n      swap1\n      tag_123\n      jump\t// in\n    tag_122:\n      mload(0x40)\n      dup1\n      swap2\n      sub\n      swap1\n      revert\n    tag_121:\n        /* \"dharan-token/contracts/customERC20/erc20cust.sol\":4993:5016  approveValueWithDecimal */\n      dup1\n        /* \"dharan-token/contracts/customERC20/erc20cust.sol\":4958:4968  _allowance */\n      0x07\n        /* \"dharan-token/contracts/customERC20/erc20cust.sol\":4958:4980  _allowance[msg.sender] */\n      0x00\n        /* \"dharan-token/contracts/customERC20/erc20cust.sol\":4969:4979  msg.sender */\n      caller\n        /* \"dharan-token/contracts/customERC20/erc20cust.sol\":4958:4980  _allowance[msg.sender] */\n      0xffffffffffffffffffffffffffffffffffffffff\n      and\n      0xffffffffffffffffffffffffffffffffffffffff\n      and\n      dup2\n      mstore\n      0x20\n      add\n      swap1\n      dup2\n      mstore\n      0x20\n      add\n      0x00\n      keccak256\n        /* \"dharan-token/contracts/customERC20/erc20cust.sol\":4958:4990  _allowance[msg.sender][_spender] */\n      0x00\n        /* \"dharan-token/contracts/customERC20/erc20cust.sol\":4981:4989  _spender */\n      dup7\n        /* \"dharan-token/contracts/customERC20/erc20cust.sol\":4958:4990  _allowance[msg.sender][_spender] */\n      0xffffffffffffffffffffffffffffffffffffffff\n      and\n      0xffffffffffffffffffffffffffffffffffffffff\n      and\n      dup2\n      mstore\n      0x20\n      add\n      swap1\n      dup2\n      mstore\n      0x20\n      add\n      0x00\n      keccak256\n        /* \"dharan-token/contracts/customERC20/erc20cust.sol\":4958:5016  _allowance[msg.sender][_spender] = approveValueWithDecimal */\n      dup2\n      swap1\n      sstore\n      pop\n        /* \"dharan-token/contracts/customERC20/erc20cust.sol\":5055:5063  _spender */\n      dup4\n        /* \"dharan-token/contracts/customERC20/erc20cust.sol\":5034:5089  Approval(msg.sender, _spender, approveValueWithDecimal) */\n      0xffffffffffffffffffffffffffffffffffffffff\n      and\n        /* \"dharan-token/contracts/customERC20/erc20cust.sol\":5043:5053  msg.sender */\n      caller\n        /* \"dharan-token/contracts/customERC20/erc20cust.sol\":5034:5089  Approval(msg.sender, _spender, approveValueWithDecimal) */\n      0xffffffffffffffffffffffffffffffffffffffff\n      and\n      0x8c5be1e5ebec7d5bd14f71427d1e84f3dd0314c0f7b2291e5b200ac8c7c3b925\n        /* \"dharan-token/contracts/customERC20/erc20cust.sol\":5065:5088  approveValueWithDecimal */\n      dup4\n        /* \"dharan-token/contracts/customERC20/erc20cust.sol\":5034:5089  Approval(msg.sender, _spender, approveValueWithDecimal) */\n      mload(0x40)\n      tag_124\n      swap2\n      swap1\n      tag_47\n      jump\t// in\n    tag_124:\n      mload(0x40)\n      dup1\n      swap2\n      sub\n      swap1\n      log3\n        /* \"dharan-token/contracts/customERC20/erc20cust.sol\":5107:5111  true */\n      0x01\n        /* \"dharan-token/contracts/customERC20/erc20cust.sol\":5100:5111  return true */\n      swap2\n      pop\n      pop\n        /* \"dharan-token/contracts/customERC20/erc20cust.sol\":4648:5119  function approve(... */\n      swap3\n      swap2\n      pop\n      pop\n      jump\t// out\n        /* \"dharan-token/contracts/customERC20/erc20cust.sol\":5127:5672  function mint() public onlyOwner returns(bool success) {... */\n    tag_37:\n        /* \"dharan-token/contracts/customERC20/erc20cust.sol\":5168:5180  bool success */\n      0x00\n        /* \"dharan-token/contracts/customERC20/erc20cust.sol\":1727:1732  owner */\n      0x00\n      0x00\n      swap1\n      sload\n      swap1\n      0x0100\n      exp\n      swap1\n      div\n      0xffffffffffffffffffffffffffffffffffffffff\n      and\n        /* \"dharan-token/contracts/customERC20/erc20cust.sol\":1713:1732  msg.sender == owner */\n      0xffffffffffffffffffffffffffffffffffffffff\n      and\n        /* \"dharan-token/contracts/customERC20/erc20cust.sol\":1713:1723  msg.sender */\n      caller\n        /* \"dharan-token/contracts/customERC20/erc20cust.sol\":1713:1732  msg.sender == owner */\n      0xffffffffffffffffffffffffffffffffffffffff\n      and\n      eq\n        /* \"dharan-token/contracts/customERC20/erc20cust.sol\":1705:1776  require(msg.sender == owner, \"only owner have access to this function\") */\n      tag_126\n      jumpi\n      mload(0x40)\n      0x08c379a000000000000000000000000000000000000000000000000000000000\n      dup2\n      mstore\n      0x04\n      add\n      tag_127\n      swap1\n      tag_89\n      jump\t// in\n    tag_127:\n      mload(0x40)\n      dup1\n      swap2\n      sub\n      swap1\n      revert\n    tag_126:\n        /* \"dharan-token/contracts/customERC20/erc20cust.sol\":213:215  18 */\n      0x12\n        /* \"dharan-token/contracts/customERC20/erc20cust.sol\":596:598  10 */\n      0x0a\n        /* \"dharan-token/contracts/customERC20/erc20cust.sol\":596:611  10 ** _decimals */\n      tag_129\n      swap2\n      swap1\n      tag_118\n      jump\t// in\n    tag_129:\n        /* \"dharan-token/contracts/customERC20/erc20cust.sol\":581:592  10000000000 */\n      0x02540be400\n        /* \"dharan-token/contracts/customERC20/erc20cust.sol\":581:612  10000000000 * (10 ** _decimals) */\n      tag_130\n      swap2\n      swap1\n      tag_120\n      jump\t// in\n    tag_130:\n        /* \"dharan-token/contracts/customERC20/erc20cust.sol\":213:215  18 */\n      0x12\n        /* \"dharan-token/contracts/customERC20/erc20cust.sol\":452:454  10 */\n      0x0a\n        /* \"dharan-token/contracts/customERC20/erc20cust.sol\":452:467  10 ** _decimals */\n      tag_131\n      swap2\n      swap1\n      tag_118\n      jump\t// in\n    tag_131:\n        /* \"dharan-token/contracts/customERC20/erc20cust.sol\":446:448  10 */\n      0x0a\n        /* \"dharan-token/contracts/customERC20/erc20cust.sol\":446:468  10 * (10 ** _decimals) */\n      tag_132\n      swap2\n      swap1\n      tag_120\n      jump\t// in\n    tag_132:\n        /* \"dharan-token/contracts/customERC20/erc20cust.sol\":5201:5212  totalSupply */\n      sload(0x01)\n        /* \"dharan-token/contracts/customERC20/erc20cust.sol\":5201:5226  totalSupply + Mint_Amount */\n      tag_133\n      swap2\n      swap1\n      tag_134\n      jump\t// in\n    tag_133:\n        /* \"dharan-token/contracts/customERC20/erc20cust.sol\":5201:5240  totalSupply + Mint_Amount <= Max_Supply */\n      gt\n      iszero\n        /* \"dharan-token/contracts/customERC20/erc20cust.sol\":5193:5264  require(totalSupply + Mint_Amount <= Max_Supply, \"Max supply exceeded\") */\n      tag_135\n      jumpi\n      mload(0x40)\n      0x08c379a000000000000000000000000000000000000000000000000000000000\n      dup2\n      mstore\n      0x04\n      add\n      tag_136\n      swap1\n      tag_137\n      jump\t// in\n    tag_136:\n      mload(0x40)\n      dup1\n      swap2\n      sub\n      swap1\n      revert\n    tag_135:\n        /* \"dharan-token/contracts/customERC20/erc20cust.sol\":213:215  18 */\n      0x12\n        /* \"dharan-token/contracts/customERC20/erc20cust.sol\":520:522  10 */\n      0x0a\n        /* \"dharan-token/contracts/customERC20/erc20cust.sol\":520:535  10 ** _decimals */\n      tag_138\n      swap2\n      swap1\n      tag_118\n      jump\t// in\n    tag_138:\n        /* \"dharan-token/contracts/customERC20/erc20cust.sol\":513:516  100 */\n      0x64\n        /* \"dharan-token/contracts/customERC20/erc20cust.sol\":513:536  100 * (10 ** _decimals) */\n      tag_139\n      swap2\n      swap1\n      tag_120\n      jump\t// in\n    tag_139:\n        /* \"dharan-token/contracts/customERC20/erc20cust.sol\":213:215  18 */\n      0x12\n        /* \"dharan-token/contracts/customERC20/erc20cust.sol\":452:454  10 */\n      0x0a\n        /* \"dharan-token/contracts/customERC20/erc20cust.sol\":452:467  10 ** _decimals */\n      tag_140\n      swap2\n      swap1\n      tag_118\n      jump\t// in\n    tag_140:\n        /* \"dharan-token/contracts/customERC20/erc20cust.sol\":446:448  10 */\n      0x0a\n        /* \"dharan-token/contracts/customERC20/erc20cust.sol\":446:468  10 * (10 ** _decimals) */\n      tag_141\n      swap2\n      swap1\n      tag_120\n      jump\t// in\n    tag_141:\n        /* \"dharan-token/contracts/customERC20/erc20cust.sol\":5297:5309  mintedByUser */\n      0x08\n        /* \"dharan-token/contracts/customERC20/erc20cust.sol\":5297:5321  mintedByUser[msg.sender] */\n      0x00\n        /* \"dharan-token/contracts/customERC20/erc20cust.sol\":5310:5320  msg.sender */\n      caller\n        /* \"dharan-token/contracts/customERC20/erc20cust.sol\":5297:5321  mintedByUser[msg.sender] */\n      0xffffffffffffffffffffffffffffffffffffffff\n      and\n      0xffffffffffffffffffffffffffffffffffffffff\n      and\n      dup2\n      mstore\n      0x20\n      add\n      swap1\n      dup2\n      mstore\n      0x20\n      add\n      0x00\n      keccak256\n      sload\n        /* \"dharan-token/contracts/customERC20/erc20cust.sol\":5297:5335  mintedByUser[msg.sender] + Mint_Amount */\n      tag_142\n      swap2\n      swap1\n      tag_134\n      jump\t// in\n    tag_142:\n        /* \"dharan-token/contracts/customERC20/erc20cust.sol\":5297:5349  mintedByUser[msg.sender] + Mint_Amount <= Mint_Limit */\n      gt\n      iszero\n        /* \"dharan-token/contracts/customERC20/erc20cust.sol\":5275:5398  require(... */\n      tag_143\n      jumpi\n      mload(0x40)\n      0x08c379a000000000000000000000000000000000000000000000000000000000\n      dup2\n      mstore\n      0x04\n      add\n      tag_144\n      swap1\n      tag_145\n      jump\t// in\n    tag_144:\n      mload(0x40)\n      dup1\n      swap2\n      sub\n      swap1\n      revert\n    tag_143:\n        /* \"dharan-token/contracts/customERC20/erc20cust.sol\":213:215  18 */\n      0x12\n        /* \"dharan-token/contracts/customERC20/erc20cust.sol\":452:454  10 */\n      0x0a\n        /* \"dharan-token/contracts/customERC20/erc20cust.sol\":452:467  10 ** _decimals */\n      tag_146\n      swap2\n      swap1\n      tag_118\n      jump\t// in\n    tag_146:\n        /* \"dharan-token/contracts/customERC20/erc20cust.sol\":446:448  10 */\n      0x0a\n        /* \"dharan-token/contracts/customERC20/erc20cust.sol\":446:468  10 * (10 ** _decimals) */\n      tag_147\n      swap2\n      swap1\n      tag_120\n      jump\t// in\n    tag_147:\n        /* \"dharan-token/contracts/customERC20/erc20cust.sol\":5411:5419  balances */\n      0x05\n        /* \"dharan-token/contracts/customERC20/erc20cust.sol\":5411:5431  balances[msg.sender] */\n      0x00\n        /* \"dharan-token/contracts/customERC20/erc20cust.sol\":5420:5430  msg.sender */\n      caller\n        /* \"dharan-token/contracts/customERC20/erc20cust.sol\":5411:5431  balances[msg.sender] */\n      0xffffffffffffffffffffffffffffffffffffffff\n      and\n      0xffffffffffffffffffffffffffffffffffffffff\n      and\n      dup2\n      mstore\n      0x20\n      add\n      swap1\n      dup2\n      mstore\n      0x20\n      add\n      0x00\n      keccak256\n      0x00\n        /* \"dharan-token/contracts/customERC20/erc20cust.sol\":5411:5446  balances[msg.sender] += Mint_Amount */\n      dup3\n      dup3\n      sload\n      tag_148\n      swap2\n      swap1\n      tag_134\n      jump\t// in\n    tag_148:\n      swap3\n      pop\n      pop\n      dup2\n      swap1\n      sstore\n      pop\n        /* \"dharan-token/contracts/customERC20/erc20cust.sol\":213:215  18 */\n      0x12\n        /* \"dharan-token/contracts/customERC20/erc20cust.sol\":452:454  10 */\n      0x0a\n        /* \"dharan-token/contracts/customERC20/erc20cust.sol\":452:467  10 ** _decimals */\n      tag_149\n      swap2\n      swap1\n      tag_118\n      jump\t// in\n    tag_149:\n        /* \"dharan-token/contracts/customERC20/erc20cust.sol\":446:448  10 */\n      0x0a\n        /* \"dharan-token/contracts/customERC20/erc20cust.sol\":446:468  10 * (10 ** _decimals) */\n      tag_150\n      swap2\n      swap1\n      tag_120\n      jump\t// in\n    tag_150:\n        /* \"dharan-token/contracts/customERC20/erc20cust.sol\":5457:5469  mintedSupply */\n      0x03\n      0x00\n        /* \"dharan-token/contracts/customERC20/erc20cust.sol\":5457:5484  mintedSupply += Mint_Amount */\n      dup3\n      dup3\n      sload\n      tag_151\n      swap2\n      swap1\n      tag_134\n      jump\t// in\n    tag_151:\n      swap3\n      pop\n      pop\n      dup2\n      swap1\n      sstore\n      pop\n        /* \"dharan-token/contracts/customERC20/erc20cust.sol\":213:215  18 */\n      0x12\n        /* \"dharan-token/contracts/customERC20/erc20cust.sol\":452:454  10 */\n      0x0a\n        /* \"dharan-token/contracts/customERC20/erc20cust.sol\":452:467  10 ** _decimals */\n      tag_152\n      swap2\n      swap1\n      tag_118\n      jump\t// in\n    tag_152:\n        /* \"dharan-token/contracts/customERC20/erc20cust.sol\":446:448  10 */\n      0x0a\n        /* \"dharan-token/contracts/customERC20/erc20cust.sol\":446:468  10 * (10 ** _decimals) */\n      tag_153\n      swap2\n      swap1\n      tag_120\n      jump\t// in\n    tag_153:\n        /* \"dharan-token/contracts/customERC20/erc20cust.sol\":5495:5507  mintedByUser */\n      0x08\n        /* \"dharan-token/contracts/customERC20/erc20cust.sol\":5495:5519  mintedByUser[msg.sender] */\n      0x00\n        /* \"dharan-token/contracts/customERC20/erc20cust.sol\":5508:5518  msg.sender */\n      caller\n        /* \"dharan-token/contracts/customERC20/erc20cust.sol\":5495:5519  mintedByUser[msg.sender] */\n      0xffffffffffffffffffffffffffffffffffffffff\n      and\n      0xffffffffffffffffffffffffffffffffffffffff\n      and\n      dup2\n      mstore\n      0x20\n      add\n      swap1\n      dup2\n      mstore\n      0x20\n      add\n      0x00\n      keccak256\n      0x00\n        /* \"dharan-token/contracts/customERC20/erc20cust.sol\":5495:5534  mintedByUser[msg.sender] += Mint_Amount */\n      dup3\n      dup3\n      sload\n      tag_154\n      swap2\n      swap1\n      tag_134\n      jump\t// in\n    tag_154:\n      swap3\n      pop\n      pop\n      dup2\n      swap1\n      sstore\n      pop\n        /* \"dharan-token/contracts/customERC20/erc20cust.sol\":5557:5567  msg.sender */\n      caller\n        /* \"dharan-token/contracts/customERC20/erc20cust.sol\":5552:5581  Mint(msg.sender, Mint_Amount) */\n      0xffffffffffffffffffffffffffffffffffffffff\n      and\n      0x0f6798a560793a54c3bcfe86a93cde1e73087d944c0ea20544137d4121396885\n        /* \"dharan-token/contracts/customERC20/erc20cust.sol\":213:215  18 */\n      0x12\n        /* \"dharan-token/contracts/customERC20/erc20cust.sol\":452:454  10 */\n      0x0a\n        /* \"dharan-token/contracts/customERC20/erc20cust.sol\":452:467  10 ** _decimals */\n      tag_155\n      swap2\n      swap1\n      tag_118\n      jump\t// in\n    tag_155:\n        /* \"dharan-token/contracts/customERC20/erc20cust.sol\":446:448  10 */\n      0x0a\n        /* \"dharan-token/contracts/customERC20/erc20cust.sol\":446:468  10 * (10 ** _decimals) */\n      tag_156\n      swap2\n      swap1\n      tag_120\n      jump\t// in\n    tag_156:\n        /* \"dharan-token/contracts/customERC20/erc20cust.sol\":5552:5581  Mint(msg.sender, Mint_Amount) */\n      mload(0x40)\n      tag_157\n      swap2\n      swap1\n      tag_47\n      jump\t// in\n    tag_157:\n      mload(0x40)\n      dup1\n      swap2\n      sub\n      swap1\n      log2\n        /* \"dharan-token/contracts/customERC20/erc20cust.sol\":5618:5628  msg.sender */\n      caller\n        /* \"dharan-token/contracts/customERC20/erc20cust.sol\":5597:5642  Transfer(address(0), msg.sender, Mint_Amount) */\n      0xffffffffffffffffffffffffffffffffffffffff\n      and\n        /* \"dharan-token/contracts/customERC20/erc20cust.sol\":5614:5615  0 */\n      0x00\n        /* \"dharan-token/contracts/customERC20/erc20cust.sol\":5597:5642  Transfer(address(0), msg.sender, Mint_Amount) */\n      0xffffffffffffffffffffffffffffffffffffffff\n      and\n      0xddf252ad1be2c89b69c2b068fc378daa952ba7f163c4a11628f55a4df523b3ef\n        /* \"dharan-token/contracts/customERC20/erc20cust.sol\":213:215  18 */\n      0x12\n        /* \"dharan-token/contracts/customERC20/erc20cust.sol\":452:454  10 */\n      0x0a\n        /* \"dharan-token/contracts/customERC20/erc20cust.sol\":452:467  10 ** _decimals */\n      tag_158\n      swap2\n      swap1\n      tag_118\n      jump\t// in\n    tag_158:\n        /* \"dharan-token/contracts/customERC20/erc20cust.sol\":446:448  10 */\n      0x0a\n        /* \"dharan-token/contracts/customERC20/erc20cust.sol\":446:468  10 * (10 ** _decimals) */\n      tag_159\n      swap2\n      swap1\n      tag_120\n      jump\t// in\n    tag_159:\n        /* \"dharan-token/contracts/customERC20/erc20cust.sol\":5597:5642  Transfer(address(0), msg.sender, Mint_Amount) */\n      mload(0x40)\n      tag_160\n      swap2\n      swap1\n      tag_47\n      jump\t// in\n    tag_160:\n      mload(0x40)\n      dup1\n      swap2\n      sub\n      swap1\n      log3\n        /* \"dharan-token/contracts/customERC20/erc20cust.sol\":5660:5664  true */\n      0x01\n        /* \"dharan-token/contracts/customERC20/erc20cust.sol\":5653:5664  return true */\n      swap1\n      pop\n        /* \"dharan-token/contracts/customERC20/erc20cust.sol\":5127:5672  function mint() public onlyOwner returns(bool success) {... */\n      swap1\n      jump\t// out\n        /* \"dharan-token/contracts/customERC20/erc20cust.sol\":5680:7239  function transferFrom(... */\n    tag_42:\n        /* \"dharan-token/contracts/customERC20/erc20cust.sol\":5796:5808  bool success */\n      0x00\n        /* \"dharan-token/contracts/customERC20/erc20cust.sol\":5821:5853  uint256 transferfrom_withdecimal */\n      0x00\n        /* \"dharan-token/contracts/customERC20/erc20cust.sol\":213:215  18 */\n      0x12\n        /* \"dharan-token/contracts/customERC20/erc20cust.sol\":5866:5868  10 */\n      0x0a\n        /* \"dharan-token/contracts/customERC20/erc20cust.sol\":5866:5881  10 ** _decimals */\n      tag_162\n      swap2\n      swap1\n      tag_118\n      jump\t// in\n    tag_162:\n        /* \"dharan-token/contracts/customERC20/erc20cust.sol\":5856:5862  _value */\n      dup4\n        /* \"dharan-token/contracts/customERC20/erc20cust.sol\":5856:5882  _value * (10 ** _decimals) */\n      tag_163\n      swap2\n      swap1\n      tag_120\n      jump\t// in\n    tag_163:\n        /* \"dharan-token/contracts/customERC20/erc20cust.sol\":5821:5882  uint256 transferfrom_withdecimal = _value * (10 ** _decimals) */\n      swap1\n      pop\n        /* \"dharan-token/contracts/customERC20/erc20cust.sol\":5916:5917  0 */\n      0x00\n        /* \"dharan-token/contracts/customERC20/erc20cust.sol\":5901:5918  _to != address(0) */\n      0xffffffffffffffffffffffffffffffffffffffff\n      and\n        /* \"dharan-token/contracts/customERC20/erc20cust.sol\":5901:5904  _to */\n      dup5\n        /* \"dharan-token/contracts/customERC20/erc20cust.sol\":5901:5918  _to != address(0) */\n      0xffffffffffffffffffffffffffffffffffffffff\n      and\n      sub\n        /* \"dharan-token/contracts/customERC20/erc20cust.sol\":5893:5954  require(_to != address(0), \"Cannot transfer to zero address\") */\n      tag_164\n      jumpi\n      mload(0x40)\n      0x08c379a000000000000000000000000000000000000000000000000000000000\n      dup2\n      mstore\n      0x04\n      add\n      tag_165\n      swap1\n      tag_166\n      jump\t// in\n    tag_165:\n      mload(0x40)\n      dup1\n      swap2\n      sub\n      swap1\n      revert\n    tag_164:\n        /* \"dharan-token/contracts/customERC20/erc20cust.sol\":6015:6023  balances */\n      0x05\n        /* \"dharan-token/contracts/customERC20/erc20cust.sol\":6015:6030  balances[_from] */\n      0x00\n        /* \"dharan-token/contracts/customERC20/erc20cust.sol\":6024:6029  _from */\n      dup7\n        /* \"dharan-token/contracts/customERC20/erc20cust.sol\":6015:6030  balances[_from] */\n      0xffffffffffffffffffffffffffffffffffffffff\n      and\n      0xffffffffffffffffffffffffffffffffffffffff\n      and\n      dup2\n      mstore\n      0x20\n      add\n      swap1\n      dup2\n      mstore\n      0x20\n      add\n      0x00\n      keccak256\n      sload\n        /* \"dharan-token/contracts/customERC20/erc20cust.sol\":5987:6011  transferfrom_withdecimal */\n      dup2\n        /* \"dharan-token/contracts/customERC20/erc20cust.sol\":5987:6030  transferfrom_withdecimal <= balances[_from] */\n      gt\n      iszero\n        /* \"dharan-token/contracts/customERC20/erc20cust.sol\":5965:6078  require(... */\n      tag_167\n      jumpi\n      mload(0x40)\n      0x08c379a000000000000000000000000000000000000000000000000000000000\n      dup2\n      mstore\n      0x04\n      add\n      tag_168\n      swap1\n      tag_169\n      jump\t// in\n    tag_168:\n      mload(0x40)\n      dup1\n      swap2\n      sub\n      swap1\n      revert\n    tag_167:\n        /* \"dharan-token/contracts/customERC20/erc20cust.sol\":6139:6149  _allowance */\n      0x07\n        /* \"dharan-token/contracts/customERC20/erc20cust.sol\":6139:6156  _allowance[_from] */\n      0x00\n        /* \"dharan-token/contracts/customERC20/erc20cust.sol\":6150:6155  _from */\n      dup7\n        /* \"dharan-token/contracts/customERC20/erc20cust.sol\":6139:6156  _allowance[_from] */\n      0xffffffffffffffffffffffffffffffffffffffff\n      and\n      0xffffffffffffffffffffffffffffffffffffffff\n      and\n      dup2\n      mstore\n      0x20\n      add\n      swap1\n      dup2\n      mstore\n      0x20\n      add\n      0x00\n      keccak256\n        /* \"dharan-token/contracts/customERC20/erc20cust.sol\":6139:6168  _allowance[_from][msg.sender] */\n      0x00\n        /* \"dharan-token/contracts/customERC20/erc20cust.sol\":6157:6167  msg.sender */\n      caller\n        /* \"dharan-token/contracts/customERC20/erc20cust.sol\":6139:6168  _allowance[_from][msg.sender] */\n      0xffffffffffffffffffffffffffffffffffffffff\n      and\n      0xffffffffffffffffffffffffffffffffffffffff\n      and\n      dup2\n      mstore\n      0x20\n      add\n      swap1\n      dup2\n      mstore\n      0x20\n      add\n      0x00\n      keccak256\n      sload\n        /* \"dharan-token/contracts/customERC20/erc20cust.sol\":6111:6135  transferfrom_withdecimal */\n      dup2\n        /* \"dharan-token/contracts/customERC20/erc20cust.sol\":6111:6168  transferfrom_withdecimal <= _allowance[_from][msg.sender] */\n      gt\n      iszero\n        /* \"dharan-token/contracts/customERC20/erc20cust.sol\":6089:6214  require(... */\n      tag_170\n      jumpi\n      mload(0x40)\n      0x08c379a000000000000000000000000000000000000000000000000000000000\n      dup2\n      mstore\n      0x04\n      add\n      tag_171\n      swap1\n      tag_172\n      jump\t// in\n    tag_171:\n      mload(0x40)\n      dup1\n      swap2\n      sub\n      swap1\n      revert\n    tag_170:\n        /* \"dharan-token/contracts/customERC20/erc20cust.sol\":6260:6261  5 */\n      0x05\n        /* \"dharan-token/contracts/customERC20/erc20cust.sol\":6233:6249  whiteListedUsers */\n      0x04\n        /* \"dharan-token/contracts/customERC20/erc20cust.sol\":6233:6256  whiteListedUsers.length */\n      dup1\n      sload\n      swap1\n      pop\n        /* \"dharan-token/contracts/customERC20/erc20cust.sol\":6233:6261  whiteListedUsers.length >= 5 */\n      lt\n      iszero\n        /* \"dharan-token/contracts/customERC20/erc20cust.sol\":6225:6290  require(whiteListedUsers.length >= 5, \"Need 5 whitelisted users\") */\n      tag_173\n      jumpi\n      mload(0x40)\n      0x08c379a000000000000000000000000000000000000000000000000000000000\n      dup2\n      mstore\n      0x04\n      add\n      tag_174\n      swap1\n      tag_175\n      jump\t// in\n    tag_174:\n      mload(0x40)\n      dup1\n      swap2\n      sub\n      swap1\n      revert\n    tag_173:\n        /* \"dharan-token/contracts/customERC20/erc20cust.sol\":6322:6346  transferfrom_withdecimal */\n      dup1\n        /* \"dharan-token/contracts/customERC20/erc20cust.sol\":6303:6311  balances */\n      0x05\n        /* \"dharan-token/contracts/customERC20/erc20cust.sol\":6303:6318  balances[_from] */\n      0x00\n        /* \"dharan-token/contracts/customERC20/erc20cust.sol\":6312:6317  _from */\n      dup8\n        /* \"dharan-token/contracts/customERC20/erc20cust.sol\":6303:6318  balances[_from] */\n      0xffffffffffffffffffffffffffffffffffffffff\n      and\n      0xffffffffffffffffffffffffffffffffffffffff\n      and\n      dup2\n      mstore\n      0x20\n      add\n      swap1\n      dup2\n      mstore\n      0x20\n      add\n      0x00\n      keccak256\n      0x00\n        /* \"dharan-token/contracts/customERC20/erc20cust.sol\":6303:6346  balances[_from] -= transferfrom_withdecimal */\n      dup3\n      dup3\n      sload\n      tag_176\n      swap2\n      swap1\n      tag_103\n      jump\t// in\n    tag_176:\n      swap3\n      pop\n      pop\n      dup2\n      swap1\n      sstore\n      pop\n        /* \"dharan-token/contracts/customERC20/erc20cust.sol\":6390:6414  transferfrom_withdecimal */\n      dup1\n        /* \"dharan-token/contracts/customERC20/erc20cust.sol\":6357:6367  _allowance */\n      0x07\n        /* \"dharan-token/contracts/customERC20/erc20cust.sol\":6357:6374  _allowance[_from] */\n      0x00\n        /* \"dharan-token/contracts/customERC20/erc20cust.sol\":6368:6373  _from */\n      dup8\n        /* \"dharan-token/contracts/customERC20/erc20cust.sol\":6357:6374  _allowance[_from] */\n      0xffffffffffffffffffffffffffffffffffffffff\n      and\n      0xffffffffffffffffffffffffffffffffffffffff\n      and\n      dup2\n      mstore\n      0x20\n      add\n      swap1\n      dup2\n      mstore\n      0x20\n      add\n      0x00\n      keccak256\n        /* \"dharan-token/contracts/customERC20/erc20cust.sol\":6357:6386  _allowance[_from][msg.sender] */\n      0x00\n        /* \"dharan-token/contracts/customERC20/erc20cust.sol\":6375:6385  msg.sender */\n      caller\n        /* \"dharan-token/contracts/customERC20/erc20cust.sol\":6357:6386  _allowance[_from][msg.sender] */\n      0xffffffffffffffffffffffffffffffffffffffff\n      and\n      0xffffffffffffffffffffffffffffffffffffffff\n      and\n      dup2\n      mstore\n      0x20\n      add\n      swap1\n      dup2\n      mstore\n      0x20\n      add\n      0x00\n      keccak256\n      0x00\n        /* \"dharan-token/contracts/customERC20/erc20cust.sol\":6357:6414  _allowance[_from][msg.sender] -= transferfrom_withdecimal */\n      dup3\n      dup3\n      sload\n      tag_177\n      swap2\n      swap1\n      tag_103\n      jump\t// in\n    tag_177:\n      swap3\n      pop\n      pop\n      dup2\n      swap1\n      sstore\n      pop\n        /* \"dharan-token/contracts/customERC20/erc20cust.sol\":6425:6440  uint256 burnTax */\n      0x00\n        /* \"dharan-token/contracts/customERC20/erc20cust.sol\":6476:6479  100 */\n      0x64\n        /* \"dharan-token/contracts/customERC20/erc20cust.sol\":6471:6472  3 */\n      0x03\n        /* \"dharan-token/contracts/customERC20/erc20cust.sol\":6444:6468  transferfrom_withdecimal */\n      dup4\n        /* \"dharan-token/contracts/customERC20/erc20cust.sol\":6444:6472  transferfrom_withdecimal * 3 */\n      tag_178\n      swap2\n      swap1\n      tag_120\n      jump\t// in\n    tag_178:\n        /* \"dharan-token/contracts/customERC20/erc20cust.sol\":6443:6479  (transferfrom_withdecimal * 3) / 100 */\n      tag_179\n      swap2\n      swap1\n      tag_180\n      jump\t// in\n    tag_179:\n        /* \"dharan-token/contracts/customERC20/erc20cust.sol\":6425:6479  uint256 burnTax = (transferfrom_withdecimal * 3) / 100 */\n      swap1\n      pop\n        /* \"dharan-token/contracts/customERC20/erc20cust.sol\":6490:6513  uint256 whitelistReward */\n      0x00\n        /* \"dharan-token/contracts/customERC20/erc20cust.sol\":6549:6552  100 */\n      0x64\n        /* \"dharan-token/contracts/customERC20/erc20cust.sol\":6544:6545  1 */\n      0x01\n        /* \"dharan-token/contracts/customERC20/erc20cust.sol\":6517:6541  transferfrom_withdecimal */\n      dup5\n        /* \"dharan-token/contracts/customERC20/erc20cust.sol\":6517:6545  transferfrom_withdecimal * 1 */\n      tag_181\n      swap2\n      swap1\n      tag_120\n      jump\t// in\n    tag_181:\n        /* \"dharan-token/contracts/customERC20/erc20cust.sol\":6516:6552  (transferfrom_withdecimal * 1) / 100 */\n      tag_182\n      swap2\n      swap1\n      tag_180\n      jump\t// in\n    tag_182:\n        /* \"dharan-token/contracts/customERC20/erc20cust.sol\":6490:6552  uint256 whitelistReward = (transferfrom_withdecimal * 1) / 100 */\n      swap1\n      pop\n        /* \"dharan-token/contracts/customERC20/erc20cust.sol\":6563:6591  uint256 totalWhitelistReward */\n      0x00\n        /* \"dharan-token/contracts/customERC20/erc20cust.sol\":6612:6613  5 */\n      0x05\n        /* \"dharan-token/contracts/customERC20/erc20cust.sol\":6594:6609  whitelistReward */\n      dup3\n        /* \"dharan-token/contracts/customERC20/erc20cust.sol\":6594:6613  whitelistReward * 5 */\n      tag_183\n      swap2\n      swap1\n      tag_120\n      jump\t// in\n    tag_183:\n        /* \"dharan-token/contracts/customERC20/erc20cust.sol\":6563:6613  uint256 totalWhitelistReward = whitelistReward * 5 */\n      swap1\n      pop\n        /* \"dharan-token/contracts/customERC20/erc20cust.sol\":6624:6646  uint256 totalDeduction */\n      0x00\n        /* \"dharan-token/contracts/customERC20/erc20cust.sol\":6659:6679  totalWhitelistReward */\n      dup2\n        /* \"dharan-token/contracts/customERC20/erc20cust.sol\":6649:6656  burnTax */\n      dup5\n        /* \"dharan-token/contracts/customERC20/erc20cust.sol\":6649:6679  burnTax + totalWhitelistReward */\n      tag_184\n      swap2\n      swap1\n      tag_134\n      jump\t// in\n    tag_184:\n        /* \"dharan-token/contracts/customERC20/erc20cust.sol\":6624:6679  uint256 totalDeduction = burnTax + totalWhitelistReward */\n      swap1\n      pop\n        /* \"dharan-token/contracts/customERC20/erc20cust.sol\":6692:6714  uint256 remainingvalue */\n      0x00\n        /* \"dharan-token/contracts/customERC20/erc20cust.sol\":6744:6758  totalDeduction */\n      dup2\n        /* \"dharan-token/contracts/customERC20/erc20cust.sol\":6717:6741  transferfrom_withdecimal */\n      dup7\n        /* \"dharan-token/contracts/customERC20/erc20cust.sol\":6717:6758  transferfrom_withdecimal - totalDeduction */\n      tag_185\n      swap2\n      swap1\n      tag_103\n      jump\t// in\n    tag_185:\n        /* \"dharan-token/contracts/customERC20/erc20cust.sol\":6692:6758  uint256 remainingvalue = transferfrom_withdecimal - totalDeduction */\n      swap1\n      pop\n        /* \"dharan-token/contracts/customERC20/erc20cust.sol\":6786:6800  remainingvalue */\n      dup1\n        /* \"dharan-token/contracts/customERC20/erc20cust.sol\":6769:6777  balances */\n      0x05\n        /* \"dharan-token/contracts/customERC20/erc20cust.sol\":6769:6782  balances[_to] */\n      0x00\n        /* \"dharan-token/contracts/customERC20/erc20cust.sol\":6778:6781  _to */\n      dup12\n        /* \"dharan-token/contracts/customERC20/erc20cust.sol\":6769:6782  balances[_to] */\n      0xffffffffffffffffffffffffffffffffffffffff\n      and\n      0xffffffffffffffffffffffffffffffffffffffff\n      and\n      dup2\n      mstore\n      0x20\n      add\n      swap1\n      dup2\n      mstore\n      0x20\n      add\n      0x00\n      keccak256\n      0x00\n        /* \"dharan-token/contracts/customERC20/erc20cust.sol\":6769:6800  balances[_to] += remainingvalue */\n      dup3\n      dup3\n      sload\n      tag_186\n      swap2\n      swap1\n      tag_134\n      jump\t// in\n    tag_186:\n      swap3\n      pop\n      pop\n      dup2\n      swap1\n      sstore\n      pop\n        /* \"dharan-token/contracts/customERC20/erc20cust.sol\":6826:6833  burnTax */\n      dup5\n        /* \"dharan-token/contracts/customERC20/erc20cust.sol\":6811:6822  totalSupply */\n      0x01\n      0x00\n        /* \"dharan-token/contracts/customERC20/erc20cust.sol\":6811:6833  totalSupply -= burnTax */\n      dup3\n      dup3\n      sload\n      tag_187\n      swap2\n      swap1\n      tag_103\n      jump\t// in\n    tag_187:\n      swap3\n      pop\n      pop\n      dup2\n      swap1\n      sstore\n      pop\n        /* \"dharan-token/contracts/customERC20/erc20cust.sol\":6851:6860  uint256 i */\n      0x00\n        /* \"dharan-token/contracts/customERC20/erc20cust.sol\":6863:6864  0 */\n      0x00\n        /* \"dharan-token/contracts/customERC20/erc20cust.sol\":6851:6864  uint256 i = 0 */\n      swap1\n      pop\n        /* \"dharan-token/contracts/customERC20/erc20cust.sol\":6846:7104  for (uint256 i = 0; i < 5; i++) {... */\n    tag_188:\n        /* \"dharan-token/contracts/customERC20/erc20cust.sol\":6870:6871  5 */\n      0x05\n        /* \"dharan-token/contracts/customERC20/erc20cust.sol\":6866:6867  i */\n      dup2\n        /* \"dharan-token/contracts/customERC20/erc20cust.sol\":6866:6871  i < 5 */\n      lt\n        /* \"dharan-token/contracts/customERC20/erc20cust.sol\":6846:7104  for (uint256 i = 0; i < 5; i++) {... */\n      iszero\n      tag_189\n      jumpi\n        /* \"dharan-token/contracts/customERC20/erc20cust.sol\":6897:6910  isWhitelisted */\n      0x06\n        /* \"dharan-token/contracts/customERC20/erc20cust.sol\":6897:6931  isWhitelisted[whiteListedUsers[i]] */\n      0x00\n        /* \"dharan-token/contracts/customERC20/erc20cust.sol\":6911:6927  whiteListedUsers */\n      0x04\n        /* \"dharan-token/contracts/customERC20/erc20cust.sol\":6928:6929  i */\n      dup4\n        /* \"dharan-token/contracts/customERC20/erc20cust.sol\":6911:6930  whiteListedUsers[i] */\n      dup2\n      sload\n      dup2\n      lt\n      tag_191\n      jumpi\n      tag_192\n      tag_99\n      jump\t// in\n    tag_192:\n    tag_191:\n      swap1\n      0x00\n      mstore\n      keccak256(0x00, 0x20)\n      add\n      0x00\n      swap1\n      sload\n      swap1\n      0x0100\n      exp\n      swap1\n      div\n      0xffffffffffffffffffffffffffffffffffffffff\n      and\n        /* \"dharan-token/contracts/customERC20/erc20cust.sol\":6897:6931  isWhitelisted[whiteListedUsers[i]] */\n      0xffffffffffffffffffffffffffffffffffffffff\n      and\n      0xffffffffffffffffffffffffffffffffffffffff\n      and\n      dup2\n      mstore\n      0x20\n      add\n      swap1\n      dup2\n      mstore\n      0x20\n      add\n      0x00\n      keccak256\n      0x00\n      swap1\n      sload\n      swap1\n      0x0100\n      exp\n      swap1\n      div\n      0xff\n      and\n        /* \"dharan-token/contracts/customERC20/erc20cust.sol\":6893:7093  if (isWhitelisted[whiteListedUsers[i]]) {... */\n      iszero\n      tag_194\n      jumpi\n        /* \"dharan-token/contracts/customERC20/erc20cust.sol\":6985:7000  whitelistReward */\n      dup5\n        /* \"dharan-token/contracts/customERC20/erc20cust.sol\":6952:6960  balances */\n      0x05\n        /* \"dharan-token/contracts/customERC20/erc20cust.sol\":6952:6981  balances[whiteListedUsers[i]] */\n      0x00\n        /* \"dharan-token/contracts/customERC20/erc20cust.sol\":6961:6977  whiteListedUsers */\n      0x04\n        /* \"dharan-token/contracts/customERC20/erc20cust.sol\":6978:6979  i */\n      dup5\n        /* \"dharan-token/contracts/customERC20/erc20cust.sol\":6961:6980  whiteListedUsers[i] */\n      dup2\n      sload\n      dup2\n      lt\n      tag_195\n      jumpi\n      tag_196\n      tag_99\n      jump\t// in\n    tag_196:\n    tag_195:\n      swap1\n      0x00\n      mstore\n      keccak256(0x00, 0x20)\n      add\n      0x00\n      swap1\n      sload\n      swap1\n      0x0100\n      exp\n      swap1\n      div\n      0xffffffffffffffffffffffffffffffffffffffff\n      and\n        /* \"dharan-token/contracts/customERC20/erc20cust.sol\":6952:6981  balances[whiteListedUsers[i]] */\n      0xffffffffffffffffffffffffffffffffffffffff\n      and\n      0xffffffffffffffffffffffffffffffffffffffff\n      and\n      dup2\n      mstore\n      0x20\n      add\n      swap1\n      dup2\n      mstore\n      0x20\n      add\n      0x00\n      keccak256\n      0x00\n        /* \"dharan-token/contracts/customERC20/erc20cust.sol\":6952:7000  balances[whiteListedUsers[i]] += whitelistReward */\n      dup3\n      dup3\n      sload\n      tag_198\n      swap2\n      swap1\n      tag_134\n      jump\t// in\n    tag_198:\n      swap3\n      pop\n      pop\n      dup2\n      swap1\n      sstore\n      pop\n        /* \"dharan-token/contracts/customERC20/erc20cust.sol\":7040:7056  whiteListedUsers */\n      0x04\n        /* \"dharan-token/contracts/customERC20/erc20cust.sol\":7057:7058  i */\n      dup2\n        /* \"dharan-token/contracts/customERC20/erc20cust.sol\":7040:7059  whiteListedUsers[i] */\n      dup2\n      sload\n      dup2\n      lt\n      tag_199\n      jumpi\n      tag_200\n      tag_99\n      jump\t// in\n    tag_200:\n    tag_199:\n      swap1\n      0x00\n      mstore\n      keccak256(0x00, 0x20)\n      add\n      0x00\n      swap1\n      sload\n      swap1\n      0x0100\n      exp\n      swap1\n      div\n      0xffffffffffffffffffffffffffffffffffffffff\n      and\n        /* \"dharan-token/contracts/customERC20/erc20cust.sol\":7024:7077  Transfer(_from, whiteListedUsers[i], whitelistReward) */\n      0xffffffffffffffffffffffffffffffffffffffff\n      and\n        /* \"dharan-token/contracts/customERC20/erc20cust.sol\":7033:7038  _from */\n      dup12\n        /* \"dharan-token/contracts/customERC20/erc20cust.sol\":7024:7077  Transfer(_from, whiteListedUsers[i], whitelistReward) */\n      0xffffffffffffffffffffffffffffffffffffffff\n      and\n      0xddf252ad1be2c89b69c2b068fc378daa952ba7f163c4a11628f55a4df523b3ef\n        /* \"dharan-token/contracts/customERC20/erc20cust.sol\":7061:7076  whitelistReward */\n      dup8\n        /* \"dharan-token/contracts/customERC20/erc20cust.sol\":7024:7077  Transfer(_from, whiteListedUsers[i], whitelistReward) */\n      mload(0x40)\n      tag_202\n      swap2\n      swap1\n      tag_47\n      jump\t// in\n    tag_202:\n      mload(0x40)\n      dup1\n      swap2\n      sub\n      swap1\n      log3\n        /* \"dharan-token/contracts/customERC20/erc20cust.sol\":6893:7093  if (isWhitelisted[whiteListedUsers[i]]) {... */\n    tag_194:\n        /* \"dharan-token/contracts/customERC20/erc20cust.sol\":6873:6876  i++ */\n      dup1\n      dup1\n      0x01\n      add\n      swap2\n      pop\n      pop\n        /* \"dharan-token/contracts/customERC20/erc20cust.sol\":6846:7104  for (uint256 i = 0; i < 5; i++) {... */\n      jump(tag_188)\n    tag_189:\n      pop\n        /* \"dharan-token/contracts/customERC20/erc20cust.sol\":7135:7138  _to */\n      dup9\n        /* \"dharan-token/contracts/customERC20/erc20cust.sol\":7119:7155  Transfer(_from, _to, remainingvalue) */\n      0xffffffffffffffffffffffffffffffffffffffff\n      and\n        /* \"dharan-token/contracts/customERC20/erc20cust.sol\":7128:7133  _from */\n      dup11\n        /* \"dharan-token/contracts/customERC20/erc20cust.sol\":7119:7155  Transfer(_from, _to, remainingvalue) */\n      0xffffffffffffffffffffffffffffffffffffffff\n      and\n      0xddf252ad1be2c89b69c2b068fc378daa952ba7f163c4a11628f55a4df523b3ef\n        /* \"dharan-token/contracts/customERC20/erc20cust.sol\":7140:7154  remainingvalue */\n      dup4\n        /* \"dharan-token/contracts/customERC20/erc20cust.sol\":7119:7155  Transfer(_from, _to, remainingvalue) */\n      mload(0x40)\n      tag_203\n      swap2\n      swap1\n      tag_47\n      jump\t// in\n    tag_203:\n      mload(0x40)\n      dup1\n      swap2\n      sub\n      swap1\n      log3\n        /* \"dharan-token/contracts/customERC20/erc20cust.sol\":7195:7196  0 */\n      0x00\n        /* \"dharan-token/contracts/customERC20/erc20cust.sol\":7171:7207  Transfer(_from, address(0), burnTax) */\n      0xffffffffffffffffffffffffffffffffffffffff\n      and\n        /* \"dharan-token/contracts/customERC20/erc20cust.sol\":7180:7185  _from */\n      dup11\n        /* \"dharan-token/contracts/customERC20/erc20cust.sol\":7171:7207  Transfer(_from, address(0), burnTax) */\n      0xffffffffffffffffffffffffffffffffffffffff\n      and\n      0xddf252ad1be2c89b69c2b068fc378daa952ba7f163c4a11628f55a4df523b3ef\n        /* \"dharan-token/contracts/customERC20/erc20cust.sol\":7199:7206  burnTax */\n      dup8\n        /* \"dharan-token/contracts/customERC20/erc20cust.sol\":7171:7207  Transfer(_from, address(0), burnTax) */\n      mload(0x40)\n      tag_204\n      swap2\n      swap1\n      tag_47\n      jump\t// in\n    tag_204:\n      mload(0x40)\n      dup1\n      swap2\n      sub\n      swap1\n      log3\n        /* \"dharan-token/contracts/customERC20/erc20cust.sol\":7227:7231  true */\n      0x01\n        /* \"dharan-token/contracts/customERC20/erc20cust.sol\":7220:7231  return true */\n      swap7\n      pop\n      pop\n      pop\n      pop\n      pop\n      pop\n      pop\n        /* \"dharan-token/contracts/customERC20/erc20cust.sol\":5680:7239  function transferFrom(... */\n      swap4\n      swap3\n      pop\n      pop\n      pop\n      jump\t// out\n        /* \"dharan-token/contracts/customERC20/erc20cust.sol\":1580:1665  function decimals() public pure returns (uint256) {... */\n    tag_45:\n        /* \"dharan-token/contracts/customERC20/erc20cust.sol\":1621:1628  uint256 */\n      0x00\n        /* \"dharan-token/contracts/customERC20/erc20cust.sol\":213:215  18 */\n      0x12\n        /* \"dharan-token/contracts/customERC20/erc20cust.sol\":1641:1657  return _decimals */\n      swap1\n      pop\n        /* \"dharan-token/contracts/customERC20/erc20cust.sol\":1580:1665  function decimals() public pure returns (uint256) {... */\n      swap1\n      jump\t// out\n        /* \"dharan-token/contracts/customERC20/erc20cust.sol\":7247:7743  function increaseAllowance(... */\n    tag_50:\n        /* \"dharan-token/contracts/customERC20/erc20cust.sol\":7347:7359  bool success */\n      0x00\n        /* \"dharan-token/contracts/customERC20/erc20cust.sol\":7413:7414  0 */\n      0x00\n        /* \"dharan-token/contracts/customERC20/erc20cust.sol\":7394:7415  spender != address(0) */\n      0xffffffffffffffffffffffffffffffffffffffff\n      and\n        /* \"dharan-token/contracts/customERC20/erc20cust.sol\":7394:7401  spender */\n      dup4\n        /* \"dharan-token/contracts/customERC20/erc20cust.sol\":7394:7415  spender != address(0) */\n      0xffffffffffffffffffffffffffffffffffffffff\n      and\n      sub\n        /* \"dharan-token/contracts/customERC20/erc20cust.sol\":7372:7490  require(... */\n      tag_207\n      jumpi\n      mload(0x40)\n      0x08c379a000000000000000000000000000000000000000000000000000000000\n      dup2\n      mstore\n      0x04\n      add\n      tag_208\n      swap1\n      tag_209\n      jump\t// in\n    tag_208:\n      mload(0x40)\n      dup1\n      swap2\n      sub\n      swap1\n      revert\n    tag_207:\n        /* \"dharan-token/contracts/customERC20/erc20cust.sol\":7503:7535  uint256 increaseValueWithDecimal */\n      0x00\n        /* \"dharan-token/contracts/customERC20/erc20cust.sol\":213:215  18 */\n      0x12\n        /* \"dharan-token/contracts/customERC20/erc20cust.sol\":7547:7549  10 */\n      0x0a\n        /* \"dharan-token/contracts/customERC20/erc20cust.sol\":7547:7562  10 ** _decimals */\n      tag_210\n      swap2\n      swap1\n      tag_118\n      jump\t// in\n    tag_210:\n        /* \"dharan-token/contracts/customERC20/erc20cust.sol\":7538:7543  value */\n      dup4\n        /* \"dharan-token/contracts/customERC20/erc20cust.sol\":7538:7563  value * (10 ** _decimals) */\n      tag_211\n      swap2\n      swap1\n      tag_120\n      jump\t// in\n    tag_211:\n        /* \"dharan-token/contracts/customERC20/erc20cust.sol\":7503:7563  uint256 increaseValueWithDecimal = value * (10 ** _decimals) */\n      swap1\n      pop\n        /* \"dharan-token/contracts/customERC20/erc20cust.sol\":7609:7633  increaseValueWithDecimal */\n      dup1\n        /* \"dharan-token/contracts/customERC20/erc20cust.sol\":7574:7584  _allowance */\n      0x07\n        /* \"dharan-token/contracts/customERC20/erc20cust.sol\":7574:7596  _allowance[msg.sender] */\n      0x00\n        /* \"dharan-token/contracts/customERC20/erc20cust.sol\":7585:7595  msg.sender */\n      caller\n        /* \"dharan-token/contracts/customERC20/erc20cust.sol\":7574:7596  _allowance[msg.sender] */\n      0xffffffffffffffffffffffffffffffffffffffff\n      and\n      0xffffffffffffffffffffffffffffffffffffffff\n      and\n      dup2\n      mstore\n      0x20\n      add\n      swap1\n      dup2\n      mstore\n      0x20\n      add\n      0x00\n      keccak256\n        /* \"dharan-token/contracts/customERC20/erc20cust.sol\":7574:7605  _allowance[msg.sender][spender] */\n      0x00\n        /* \"dharan-token/contracts/customERC20/erc20cust.sol\":7597:7604  spender */\n      dup7\n        /* \"dharan-token/contracts/customERC20/erc20cust.sol\":7574:7605  _allowance[msg.sender][spender] */\n      0xffffffffffffffffffffffffffffffffffffffff\n      and\n      0xffffffffffffffffffffffffffffffffffffffff\n      and\n      dup2\n      mstore\n      0x20\n      add\n      swap1\n      dup2\n      mstore\n      0x20\n      add\n      0x00\n      keccak256\n      0x00\n        /* \"dharan-token/contracts/customERC20/erc20cust.sol\":7574:7633  _allowance[msg.sender][spender] += increaseValueWithDecimal */\n      dup3\n      dup3\n      sload\n      tag_212\n      swap2\n      swap1\n      tag_134\n      jump\t// in\n    tag_212:\n      swap3\n      pop\n      pop\n      dup2\n      swap1\n      sstore\n      pop\n        /* \"dharan-token/contracts/customERC20/erc20cust.sol\":7672:7679  spender */\n      dup4\n        /* \"dharan-token/contracts/customERC20/erc20cust.sol\":7651:7713  Approval(msg.sender, spender, _allowance[msg.sender][spender]) */\n      0xffffffffffffffffffffffffffffffffffffffff\n      and\n        /* \"dharan-token/contracts/customERC20/erc20cust.sol\":7660:7670  msg.sender */\n      caller\n        /* \"dharan-token/contracts/customERC20/erc20cust.sol\":7651:7713  Approval(msg.sender, spender, _allowance[msg.sender][spender]) */\n      0xffffffffffffffffffffffffffffffffffffffff\n      and\n      0x8c5be1e5ebec7d5bd14f71427d1e84f3dd0314c0f7b2291e5b200ac8c7c3b925\n        /* \"dharan-token/contracts/customERC20/erc20cust.sol\":7681:7691  _allowance */\n      0x07\n        /* \"dharan-token/contracts/customERC20/erc20cust.sol\":7681:7703  _allowance[msg.sender] */\n      0x00\n        /* \"dharan-token/contracts/customERC20/erc20cust.sol\":7692:7702  msg.sender */\n      caller\n        /* \"dharan-token/contracts/customERC20/erc20cust.sol\":7681:7703  _allowance[msg.sender] */\n      0xffffffffffffffffffffffffffffffffffffffff\n      and\n      0xffffffffffffffffffffffffffffffffffffffff\n      and\n      dup2\n      mstore\n      0x20\n      add\n      swap1\n      dup2\n      mstore\n      0x20\n      add\n      0x00\n      keccak256\n        /* \"dharan-token/contracts/customERC20/erc20cust.sol\":7681:7712  _allowance[msg.sender][spender] */\n      0x00\n        /* \"dharan-token/contracts/customERC20/erc20cust.sol\":7704:7711  spender */\n      dup9\n        /* \"dharan-token/contracts/customERC20/erc20cust.sol\":7681:7712  _allowance[msg.sender][spender] */\n      0xffffffffffffffffffffffffffffffffffffffff\n      and\n      0xffffffffffffffffffffffffffffffffffffffff\n      and\n      dup2\n      mstore\n      0x20\n      add\n      swap1\n      dup2\n      mstore\n      0x20\n      add\n      0x00\n      keccak256\n      sload\n        /* \"dharan-token/contracts/customERC20/erc20cust.sol\":7651:7713  Approval(msg.sender, spender, _allowance[msg.sender][spender]) */\n      mload(0x40)\n      tag_213\n      swap2\n      swap1\n      tag_47\n      jump\t// in\n    tag_213:\n      mload(0x40)\n      dup1\n      swap2\n      sub\n      swap1\n      log3\n        /* \"dharan-token/contracts/customERC20/erc20cust.sol\":7731:7735  true */\n      0x01\n        /* \"dharan-token/contracts/customERC20/erc20cust.sol\":7724:7735  return true */\n      swap2\n      pop\n      pop\n        /* \"dharan-token/contracts/customERC20/erc20cust.sol\":7247:7743  function increaseAllowance(... */\n      swap3\n      swap2\n      pop\n      pop\n      jump\t// out\n        /* \"dharan-token/contracts/customERC20/erc20cust.sol\":1804:1893  function TotalToken() public view returns (uint256) {... */\n    tag_53:\n        /* \"dharan-token/contracts/customERC20/erc20cust.sol\":1847:1854  uint256 */\n      0x00\n        /* \"dharan-token/contracts/customERC20/erc20cust.sol\":1874:1885  totalSupply */\n      sload(0x01)\n        /* \"dharan-token/contracts/customERC20/erc20cust.sol\":1867:1885  return totalSupply */\n      swap1\n      pop\n        /* \"dharan-token/contracts/customERC20/erc20cust.sol\":1804:1893  function TotalToken() public view returns (uint256) {... */\n      swap1\n      jump\t// out\n        /* \"dharan-token/contracts/customERC20/erc20cust.sol\":3791:3905  function getwhitelistedaddress() public view returns (address[] memory) {... */\n    tag_56:\n        /* \"dharan-token/contracts/customERC20/erc20cust.sol\":3845:3861  address[] memory */\n      0x60\n        /* \"dharan-token/contracts/customERC20/erc20cust.sol\":3881:3897  whiteListedUsers */\n      0x04\n        /* \"dharan-token/contracts/customERC20/erc20cust.sol\":3874:3897  return whiteListedUsers */\n      dup1\n      sload\n      dup1\n      0x20\n      mul\n      0x20\n      add\n      mload(0x40)\n      swap1\n      dup2\n      add\n      0x40\n      mstore\n      dup1\n      swap3\n      swap2\n      swap1\n      dup2\n      dup2\n      mstore\n      0x20\n      add\n      dup3\n      dup1\n      sload\n      dup1\n      iszero\n      tag_216\n      jumpi\n      0x20\n      mul\n      dup3\n      add\n      swap2\n      swap1\n      0x00\n      mstore\n      keccak256(0x00, 0x20)\n      swap1\n    tag_217:\n      dup2\n      0x00\n      swap1\n      sload\n      swap1\n      0x0100\n      exp\n      swap1\n      div\n      0xffffffffffffffffffffffffffffffffffffffff\n      and\n      0xffffffffffffffffffffffffffffffffffffffff\n      and\n      dup2\n      mstore\n      0x20\n      add\n      swap1\n      0x01\n      add\n      swap1\n      dup1\n      dup4\n      gt\n      tag_217\n      jumpi\n    tag_216:\n      pop\n      pop\n      pop\n      pop\n      pop\n      swap1\n      pop\n        /* \"dharan-token/contracts/customERC20/erc20cust.sol\":3791:3905  function getwhitelistedaddress() public view returns (address[] memory) {... */\n      swap1\n      jump\t// out\n        /* \"dharan-token/contracts/customERC20/erc20cust.sol\":8417:8771  function burn() public onlyOwner returns (bool) {... */\n    tag_60:\n        /* \"dharan-token/contracts/customERC20/erc20cust.sol\":8459:8463  bool */\n      0x00\n        /* \"dharan-token/contracts/customERC20/erc20cust.sol\":1727:1732  owner */\n      0x00\n      0x00\n      swap1\n      sload\n      swap1\n      0x0100\n      exp\n      swap1\n      div\n      0xffffffffffffffffffffffffffffffffffffffff\n      and\n        /* \"dharan-token/contracts/customERC20/erc20cust.sol\":1713:1732  msg.sender == owner */\n      0xffffffffffffffffffffffffffffffffffffffff\n      and\n        /* \"dharan-token/contracts/customERC20/erc20cust.sol\":1713:1723  msg.sender */\n      caller\n        /* \"dharan-token/contracts/customERC20/erc20cust.sol\":1713:1732  msg.sender == owner */\n      0xffffffffffffffffffffffffffffffffffffffff\n      and\n      eq\n        /* \"dharan-token/contracts/customERC20/erc20cust.sol\":1705:1776  require(msg.sender == owner, \"only owner have access to this function\") */\n      tag_219\n      jumpi\n      mload(0x40)\n      0x08c379a000000000000000000000000000000000000000000000000000000000\n      dup2\n      mstore\n      0x04\n      add\n      tag_220\n      swap1\n      tag_89\n      jump\t// in\n    tag_220:\n      mload(0x40)\n      dup1\n      swap2\n      sub\n      swap1\n      revert\n    tag_219:\n        /* \"dharan-token/contracts/customERC20/erc20cust.sol\":213:215  18 */\n      0x12\n        /* \"dharan-token/contracts/customERC20/erc20cust.sol\":452:454  10 */\n      0x0a\n        /* \"dharan-token/contracts/customERC20/erc20cust.sol\":452:467  10 ** _decimals */\n      tag_222\n      swap2\n      swap1\n      tag_118\n      jump\t// in\n    tag_222:\n        /* \"dharan-token/contracts/customERC20/erc20cust.sol\":446:448  10 */\n      0x0a\n        /* \"dharan-token/contracts/customERC20/erc20cust.sol\":446:468  10 * (10 ** _decimals) */\n      tag_223\n      swap2\n      swap1\n      tag_120\n      jump\t// in\n    tag_223:\n        /* \"dharan-token/contracts/customERC20/erc20cust.sol\":8498:8506  balances */\n      0x05\n        /* \"dharan-token/contracts/customERC20/erc20cust.sol\":8498:8518  balances[msg.sender] */\n      0x00\n        /* \"dharan-token/contracts/customERC20/erc20cust.sol\":8507:8517  msg.sender */\n      caller\n        /* \"dharan-token/contracts/customERC20/erc20cust.sol\":8498:8518  balances[msg.sender] */\n      0xffffffffffffffffffffffffffffffffffffffff\n      and\n      0xffffffffffffffffffffffffffffffffffffffff\n      and\n      dup2\n      mstore\n      0x20\n      add\n      swap1\n      dup2\n      mstore\n      0x20\n      add\n      0x00\n      keccak256\n      sload\n        /* \"dharan-token/contracts/customERC20/erc20cust.sol\":8498:8533  balances[msg.sender] >= Mint_Amount */\n      lt\n      iszero\n        /* \"dharan-token/contracts/customERC20/erc20cust.sol\":8476:8589  require(... */\n      tag_224\n      jumpi\n      mload(0x40)\n      0x08c379a000000000000000000000000000000000000000000000000000000000\n      dup2\n      mstore\n      0x04\n      add\n      tag_225\n      swap1\n      tag_226\n      jump\t// in\n    tag_225:\n      mload(0x40)\n      dup1\n      swap2\n      sub\n      swap1\n      revert\n    tag_224:\n        /* \"dharan-token/contracts/customERC20/erc20cust.sol\":213:215  18 */\n      0x12\n        /* \"dharan-token/contracts/customERC20/erc20cust.sol\":452:454  10 */\n      0x0a\n        /* \"dharan-token/contracts/customERC20/erc20cust.sol\":452:467  10 ** _decimals */\n      tag_227\n      swap2\n      swap1\n      tag_118\n      jump\t// in\n    tag_227:\n        /* \"dharan-token/contracts/customERC20/erc20cust.sol\":446:448  10 */\n      0x0a\n        /* \"dharan-token/contracts/customERC20/erc20cust.sol\":446:468  10 * (10 ** _decimals) */\n      tag_228\n      swap2\n      swap1\n      tag_120\n      jump\t// in\n    tag_228:\n        /* \"dharan-token/contracts/customERC20/erc20cust.sol\":8602:8610  balances */\n      0x05\n        /* \"dharan-token/contracts/customERC20/erc20cust.sol\":8602:8622  balances[msg.sender] */\n      0x00\n        /* \"dharan-token/contracts/customERC20/erc20cust.sol\":8611:8621  msg.sender */\n      caller\n        /* \"dharan-token/contracts/customERC20/erc20cust.sol\":8602:8622  balances[msg.sender] */\n      0xffffffffffffffffffffffffffffffffffffffff\n      and\n      0xffffffffffffffffffffffffffffffffffffffff\n      and\n      dup2\n      mstore\n      0x20\n      add\n      swap1\n      dup2\n      mstore\n      0x20\n      add\n      0x00\n      keccak256\n      0x00\n        /* \"dharan-token/contracts/customERC20/erc20cust.sol\":8602:8637  balances[msg.sender] -= Mint_Amount */\n      dup3\n      dup3\n      sload\n      tag_229\n      swap2\n      swap1\n      tag_103\n      jump\t// in\n    tag_229:\n      swap3\n      pop\n      pop\n      dup2\n      swap1\n      sstore\n      pop\n        /* \"dharan-token/contracts/customERC20/erc20cust.sol\":213:215  18 */\n      0x12\n        /* \"dharan-token/contracts/customERC20/erc20cust.sol\":452:454  10 */\n      0x0a\n        /* \"dharan-token/contracts/customERC20/erc20cust.sol\":452:467  10 ** _decimals */\n      tag_230\n      swap2\n      swap1\n      tag_118\n      jump\t// in\n    tag_230:\n        /* \"dharan-token/contracts/customERC20/erc20cust.sol\":446:448  10 */\n      0x0a\n        /* \"dharan-token/contracts/customERC20/erc20cust.sol\":446:468  10 * (10 ** _decimals) */\n      tag_231\n      swap2\n      swap1\n      tag_120\n      jump\t// in\n    tag_231:\n        /* \"dharan-token/contracts/customERC20/erc20cust.sol\":8650:8661  totalSupply */\n      0x01\n      0x00\n        /* \"dharan-token/contracts/customERC20/erc20cust.sol\":8650:8676  totalSupply -= Mint_Amount */\n      dup3\n      dup3\n      sload\n      tag_232\n      swap2\n      swap1\n      tag_103\n      jump\t// in\n    tag_232:\n      swap3\n      pop\n      pop\n      dup2\n      swap1\n      sstore\n      pop\n        /* \"dharan-token/contracts/customERC20/erc20cust.sol\":8723:8724  0 */\n      0x00\n        /* \"dharan-token/contracts/customERC20/erc20cust.sol\":8694:8739  Transfer(msg.sender, address(0), Mint_Amount) */\n      0xffffffffffffffffffffffffffffffffffffffff\n      and\n        /* \"dharan-token/contracts/customERC20/erc20cust.sol\":8703:8713  msg.sender */\n      caller\n        /* \"dharan-token/contracts/customERC20/erc20cust.sol\":8694:8739  Transfer(msg.sender, address(0), Mint_Amount) */\n      0xffffffffffffffffffffffffffffffffffffffff\n      and\n      0xddf252ad1be2c89b69c2b068fc378daa952ba7f163c4a11628f55a4df523b3ef\n        /* \"dharan-token/contracts/customERC20/erc20cust.sol\":213:215  18 */\n      0x12\n        /* \"dharan-token/contracts/customERC20/erc20cust.sol\":452:454  10 */\n      0x0a\n        /* \"dharan-token/contracts/customERC20/erc20cust.sol\":452:467  10 ** _decimals */\n      tag_233\n      swap2\n      swap1\n      tag_118\n      jump\t// in\n    tag_233:\n        /* \"dharan-token/contracts/customERC20/erc20cust.sol\":446:448  10 */\n      0x0a\n        /* \"dharan-token/contracts/customERC20/erc20cust.sol\":446:468  10 * (10 ** _decimals) */\n      tag_234\n      swap2\n      swap1\n      tag_120\n      jump\t// in\n    tag_234:\n        /* \"dharan-token/contracts/customERC20/erc20cust.sol\":8694:8739  Transfer(msg.sender, address(0), Mint_Amount) */\n      mload(0x40)\n      tag_235\n      swap2\n      swap1\n      tag_47\n      jump\t// in\n    tag_235:\n      mload(0x40)\n      dup1\n      swap2\n      sub\n      swap1\n      log3\n        /* \"dharan-token/contracts/customERC20/erc20cust.sol\":8759:8763  true */\n      0x01\n        /* \"dharan-token/contracts/customERC20/erc20cust.sol\":8752:8763  return true */\n      swap1\n      pop\n        /* \"dharan-token/contracts/customERC20/erc20cust.sol\":8417:8771  function burn() public onlyOwner returns (bool) {... */\n      swap1\n      jump\t// out\n        /* \"dharan-token/contracts/customERC20/erc20cust.sol\":1901:2010  function balanceOf(address account) public view returns (uint256) {... */\n    tag_64:\n        /* \"dharan-token/contracts/customERC20/erc20cust.sol\":1958:1965  uint256 */\n      0x00\n        /* \"dharan-token/contracts/customERC20/erc20cust.sol\":1985:1993  balances */\n      0x05\n        /* \"dharan-token/contracts/customERC20/erc20cust.sol\":1985:2002  balances[account] */\n      0x00\n        /* \"dharan-token/contracts/customERC20/erc20cust.sol\":1994:2001  account */\n      dup4\n        /* \"dharan-token/contracts/customERC20/erc20cust.sol\":1985:2002  balances[account] */\n      0xffffffffffffffffffffffffffffffffffffffff\n      and\n      0xffffffffffffffffffffffffffffffffffffffff\n      and\n      dup2\n      mstore\n      0x20\n      add\n      swap1\n      dup2\n      mstore\n      0x20\n      add\n      0x00\n      keccak256\n      sload\n        /* \"dharan-token/contracts/customERC20/erc20cust.sol\":1978:2002  return balances[account] */\n      swap1\n      pop\n        /* \"dharan-token/contracts/customERC20/erc20cust.sol\":1901:2010  function balanceOf(address account) public view returns (uint256) {... */\n      swap2\n      swap1\n      pop\n      jump\t// out\n        /* \"dharan-token/contracts/customERC20/erc20cust.sol\":3389:3783  function setWhiteList(address user, bool status) public onlyOwner {... */\n    tag_69:\n        /* \"dharan-token/contracts/customERC20/erc20cust.sol\":1727:1732  owner */\n      0x00\n      0x00\n      swap1\n      sload\n      swap1\n      0x0100\n      exp\n      swap1\n      div\n      0xffffffffffffffffffffffffffffffffffffffff\n      and\n        /* \"dharan-token/contracts/customERC20/erc20cust.sol\":1713:1732  msg.sender == owner */\n      0xffffffffffffffffffffffffffffffffffffffff\n      and\n        /* \"dharan-token/contracts/customERC20/erc20cust.sol\":1713:1723  msg.sender */\n      caller\n        /* \"dharan-token/contracts/customERC20/erc20cust.sol\":1713:1732  msg.sender == owner */\n      0xffffffffffffffffffffffffffffffffffffffff\n      and\n      eq\n        /* \"dharan-token/contracts/customERC20/erc20cust.sol\":1705:1776  require(msg.sender == owner, \"only owner have access to this function\") */\n      tag_238\n      jumpi\n      mload(0x40)\n      0x08c379a000000000000000000000000000000000000000000000000000000000\n      dup2\n      mstore\n      0x04\n      add\n      tag_239\n      swap1\n      tag_89\n      jump\t// in\n    tag_239:\n      mload(0x40)\n      dup1\n      swap2\n      sub\n      swap1\n      revert\n    tag_238:\n        /* \"dharan-token/contracts/customERC20/erc20cust.sol\":3490:3491  0 */\n      0x00\n        /* \"dharan-token/contracts/customERC20/erc20cust.sol\":3474:3492  user != address(0) */\n      0xffffffffffffffffffffffffffffffffffffffff\n      and\n        /* \"dharan-token/contracts/customERC20/erc20cust.sol\":3474:3478  user */\n      dup3\n        /* \"dharan-token/contracts/customERC20/erc20cust.sol\":3474:3492  user != address(0) */\n      0xffffffffffffffffffffffffffffffffffffffff\n      and\n      sub\n        /* \"dharan-token/contracts/customERC20/erc20cust.sol\":3466:3512  require(user != address(0), \"invalid address\") */\n      tag_241\n      jumpi\n      mload(0x40)\n      0x08c379a000000000000000000000000000000000000000000000000000000000\n      dup2\n      mstore\n      0x04\n      add\n      tag_242\n      swap1\n      tag_243\n      jump\t// in\n    tag_242:\n      mload(0x40)\n      dup1\n      swap2\n      sub\n      swap1\n      revert\n    tag_241:\n        /* \"dharan-token/contracts/customERC20/erc20cust.sol\":3539:3543  true */\n      0x01\n        /* \"dharan-token/contracts/customERC20/erc20cust.sol\":3529:3543  status == true */\n      iszero\n      iszero\n        /* \"dharan-token/contracts/customERC20/erc20cust.sol\":3529:3535  status */\n      dup2\n        /* \"dharan-token/contracts/customERC20/erc20cust.sol\":3529:3543  status == true */\n      iszero\n      iszero\n      eq\n        /* \"dharan-token/contracts/customERC20/erc20cust.sol\":3529:3567  status == true && !isWhitelisted[user] */\n      dup1\n      iszero\n      tag_244\n      jumpi\n      pop\n        /* \"dharan-token/contracts/customERC20/erc20cust.sol\":3548:3561  isWhitelisted */\n      0x06\n        /* \"dharan-token/contracts/customERC20/erc20cust.sol\":3548:3567  isWhitelisted[user] */\n      0x00\n        /* \"dharan-token/contracts/customERC20/erc20cust.sol\":3562:3566  user */\n      dup4\n        /* \"dharan-token/contracts/customERC20/erc20cust.sol\":3548:3567  isWhitelisted[user] */\n      0xffffffffffffffffffffffffffffffffffffffff\n      and\n      0xffffffffffffffffffffffffffffffffffffffff\n      and\n      dup2\n      mstore\n      0x20\n      add\n      swap1\n      dup2\n      mstore\n      0x20\n      add\n      0x00\n      keccak256\n      0x00\n      swap1\n      sload\n      swap1\n      0x0100\n      exp\n      swap1\n      div\n      0xff\n      and\n        /* \"dharan-token/contracts/customERC20/erc20cust.sol\":3547:3567  !isWhitelisted[user] */\n      iszero\n        /* \"dharan-token/contracts/customERC20/erc20cust.sol\":3529:3567  status == true && !isWhitelisted[user] */\n    tag_244:\n        /* \"dharan-token/contracts/customERC20/erc20cust.sol\":3525:3692  if (status == true && !isWhitelisted[user]) {... */\n      iszero\n      tag_245\n      jumpi\n        /* \"dharan-token/contracts/customERC20/erc20cust.sol\":3618:3619  5 */\n      0x05\n        /* \"dharan-token/contracts/customERC20/erc20cust.sol\":3592:3608  whiteListedUsers */\n      0x04\n        /* \"dharan-token/contracts/customERC20/erc20cust.sol\":3592:3615  whiteListedUsers.length */\n      dup1\n      sload\n      swap1\n      pop\n        /* \"dharan-token/contracts/customERC20/erc20cust.sol\":3592:3619  whiteListedUsers.length < 5 */\n      lt\n        /* \"dharan-token/contracts/customERC20/erc20cust.sol\":3584:3638  require(whiteListedUsers.length < 5, \"Whitelist full\") */\n      tag_246\n      jumpi\n      mload(0x40)\n      0x08c379a000000000000000000000000000000000000000000000000000000000\n      dup2\n      mstore\n      0x04\n      add\n      tag_247\n      swap1\n      tag_248\n      jump\t// in\n    tag_247:\n      mload(0x40)\n      dup1\n      swap2\n      sub\n      swap1\n      revert\n    tag_246:\n        /* \"dharan-token/contracts/customERC20/erc20cust.sol\":3653:3669  whiteListedUsers */\n      0x04\n        /* \"dharan-token/contracts/customERC20/erc20cust.sol\":3675:3679  user */\n      dup3\n        /* \"dharan-token/contracts/customERC20/erc20cust.sol\":3653:3680  whiteListedUsers.push(user) */\n      swap1\n      dup1\n      0x01\n      dup2\n      sload\n      add\n      dup1\n      dup3\n      sstore\n      dup1\n      swap2\n      pop\n      pop\n      0x01\n      swap1\n      sub\n      swap1\n      0x00\n      mstore\n      keccak256(0x00, 0x20)\n      add\n      0x00\n      swap1\n      swap2\n      swap1\n      swap2\n      swap1\n      swap2\n      0x0100\n      exp\n      dup2\n      sload\n      dup2\n      0xffffffffffffffffffffffffffffffffffffffff\n      mul\n      not\n      and\n      swap1\n      dup4\n      0xffffffffffffffffffffffffffffffffffffffff\n      and\n      mul\n      or\n      swap1\n      sstore\n      pop\n        /* \"dharan-token/contracts/customERC20/erc20cust.sol\":3525:3692  if (status == true && !isWhitelisted[user]) {... */\n    tag_245:\n        /* \"dharan-token/contracts/customERC20/erc20cust.sol\":3724:3730  status */\n      dup1\n        /* \"dharan-token/contracts/customERC20/erc20cust.sol\":3702:3715  isWhitelisted */\n      0x06\n        /* \"dharan-token/contracts/customERC20/erc20cust.sol\":3702:3721  isWhitelisted[user] */\n      0x00\n        /* \"dharan-token/contracts/customERC20/erc20cust.sol\":3716:3720  user */\n      dup5\n        /* \"dharan-token/contracts/customERC20/erc20cust.sol\":3702:3721  isWhitelisted[user] */\n      0xffffffffffffffffffffffffffffffffffffffff\n      and\n      0xffffffffffffffffffffffffffffffffffffffff\n      and\n      dup2\n      mstore\n      0x20\n      add\n      swap1\n      dup2\n      mstore\n      0x20\n      add\n      0x00\n      keccak256\n      0x00\n        /* \"dharan-token/contracts/customERC20/erc20cust.sol\":3702:3730  isWhitelisted[user] = status */\n      0x0100\n      exp\n      dup2\n      sload\n      dup2\n      0xff\n      mul\n      not\n      and\n      swap1\n      dup4\n      iszero\n      iszero\n      mul\n      or\n      swap1\n      sstore\n      pop\n        /* \"dharan-token/contracts/customERC20/erc20cust.sol\":3762:3766  user */\n      dup2\n        /* \"dharan-token/contracts/customERC20/erc20cust.sol\":3746:3775  WhiteListUpdate(user, status) */\n      0xffffffffffffffffffffffffffffffffffffffff\n      and\n      0x111b0cdde6a17355dbeb5ce9b87078297fec9b61b51550540b0d4e2f1e4913c2\n        /* \"dharan-token/contracts/customERC20/erc20cust.sol\":3768:3774  status */\n      dup3\n        /* \"dharan-token/contracts/customERC20/erc20cust.sol\":3746:3775  WhiteListUpdate(user, status) */\n      mload(0x40)\n      tag_250\n      swap2\n      swap1\n      tag_35\n      jump\t// in\n    tag_250:\n      mload(0x40)\n      dup1\n      swap2\n      sub\n      swap1\n      log2\n        /* \"dharan-token/contracts/customERC20/erc20cust.sol\":3389:3783  function setWhiteList(address user, bool status) public onlyOwner {... */\n      pop\n      pop\n      jump\t// out\n        /* \"dharan-token/contracts/customERC20/erc20cust.sol\":1485:1572  function symbol() public pure returns (string memory) {... */\n    tag_71:\n        /* \"dharan-token/contracts/customERC20/erc20cust.sol\":1524:1537  string memory */\n      0x60\n        /* \"dharan-token/contracts/customERC20/erc20cust.sol\":1557:1564  _symbol */\n      mload(0x40)\n      dup1\n      0x40\n      add\n      0x40\n      mstore\n      dup1\n      0x03\n      dup2\n      mstore\n      0x20\n      add\n      0x42544d0000000000000000000000000000000000000000000000000000000000\n      dup2\n      mstore\n      pop\n        /* \"dharan-token/contracts/customERC20/erc20cust.sol\":1550:1564  return _symbol */\n      swap1\n      pop\n        /* \"dharan-token/contracts/customERC20/erc20cust.sol\":1485:1572  function symbol() public pure returns (string memory) {... */\n      swap1\n      jump\t// out\n        /* \"dharan-token/contracts/customERC20/erc20cust.sol\":7751:8409  function decreaseAllowance(... */\n    tag_75:\n        /* \"dharan-token/contracts/customERC20/erc20cust.sol\":7851:7863  bool success */\n      0x00\n        /* \"dharan-token/contracts/customERC20/erc20cust.sol\":7917:7918  0 */\n      0x00\n        /* \"dharan-token/contracts/customERC20/erc20cust.sol\":7898:7919  spender != address(0) */\n      0xffffffffffffffffffffffffffffffffffffffff\n      and\n        /* \"dharan-token/contracts/customERC20/erc20cust.sol\":7898:7905  spender */\n      dup4\n        /* \"dharan-token/contracts/customERC20/erc20cust.sol\":7898:7919  spender != address(0) */\n      0xffffffffffffffffffffffffffffffffffffffff\n      and\n      sub\n        /* \"dharan-token/contracts/customERC20/erc20cust.sol\":7876:7994  require(... */\n      tag_253\n      jumpi\n      mload(0x40)\n      0x08c379a000000000000000000000000000000000000000000000000000000000\n      dup2\n      mstore\n      0x04\n      add\n      tag_254\n      swap1\n      tag_255\n      jump\t// in\n    tag_254:\n      mload(0x40)\n      dup1\n      swap2\n      sub\n      swap1\n      revert\n    tag_253:\n        /* \"dharan-token/contracts/customERC20/erc20cust.sol\":8007:8039  uint256 decreaseValueWithDecimal */\n      0x00\n        /* \"dharan-token/contracts/customERC20/erc20cust.sol\":213:215  18 */\n      0x12\n        /* \"dharan-token/contracts/customERC20/erc20cust.sol\":8051:8053  10 */\n      0x0a\n        /* \"dharan-token/contracts/customERC20/erc20cust.sol\":8051:8066  10 ** _decimals */\n      tag_256\n      swap2\n      swap1\n      tag_118\n      jump\t// in\n    tag_256:\n        /* \"dharan-token/contracts/customERC20/erc20cust.sol\":8042:8047  value */\n      dup4\n        /* \"dharan-token/contracts/customERC20/erc20cust.sol\":8042:8067  value * (10 ** _decimals) */\n      tag_257\n      swap2\n      swap1\n      tag_120\n      jump\t// in\n    tag_257:\n        /* \"dharan-token/contracts/customERC20/erc20cust.sol\":8007:8067  uint256 decreaseValueWithDecimal = value * (10 ** _decimals) */\n      swap1\n      pop\n        /* \"dharan-token/contracts/customERC20/erc20cust.sol\":8135:8159  decreaseValueWithDecimal */\n      dup1\n        /* \"dharan-token/contracts/customERC20/erc20cust.sol\":8100:8110  _allowance */\n      0x07\n        /* \"dharan-token/contracts/customERC20/erc20cust.sol\":8100:8122  _allowance[msg.sender] */\n      0x00\n        /* \"dharan-token/contracts/customERC20/erc20cust.sol\":8111:8121  msg.sender */\n      caller\n        /* \"dharan-token/contracts/customERC20/erc20cust.sol\":8100:8122  _allowance[msg.sender] */\n      0xffffffffffffffffffffffffffffffffffffffff\n      and\n      0xffffffffffffffffffffffffffffffffffffffff\n      and\n      dup2\n      mstore\n      0x20\n      add\n      swap1\n      dup2\n      mstore\n      0x20\n      add\n      0x00\n      keccak256\n        /* \"dharan-token/contracts/customERC20/erc20cust.sol\":8100:8131  _allowance[msg.sender][spender] */\n      0x00\n        /* \"dharan-token/contracts/customERC20/erc20cust.sol\":8123:8130  spender */\n      dup7\n        /* \"dharan-token/contracts/customERC20/erc20cust.sol\":8100:8131  _allowance[msg.sender][spender] */\n      0xffffffffffffffffffffffffffffffffffffffff\n      and\n      0xffffffffffffffffffffffffffffffffffffffff\n      and\n      dup2\n      mstore\n      0x20\n      add\n      swap1\n      dup2\n      mstore\n      0x20\n      add\n      0x00\n      keccak256\n      sload\n        /* \"dharan-token/contracts/customERC20/erc20cust.sol\":8100:8159  _allowance[msg.sender][spender] >= decreaseValueWithDecimal */\n      lt\n      iszero\n        /* \"dharan-token/contracts/customERC20/erc20cust.sol\":8078:8229  require(... */\n      tag_258\n      jumpi\n      mload(0x40)\n      0x08c379a000000000000000000000000000000000000000000000000000000000\n      dup2\n      mstore\n      0x04\n      add\n      tag_259\n      swap1\n      tag_260\n      jump\t// in\n    tag_259:\n      mload(0x40)\n      dup1\n      swap2\n      sub\n      swap1\n      revert\n    tag_258:\n        /* \"dharan-token/contracts/customERC20/erc20cust.sol\":8275:8299  decreaseValueWithDecimal */\n      dup1\n        /* \"dharan-token/contracts/customERC20/erc20cust.sol\":8240:8250  _allowance */\n      0x07\n        /* \"dharan-token/contracts/customERC20/erc20cust.sol\":8240:8262  _allowance[msg.sender] */\n      0x00\n        /* \"dharan-token/contracts/customERC20/erc20cust.sol\":8251:8261  msg.sender */\n      caller\n        /* \"dharan-token/contracts/customERC20/erc20cust.sol\":8240:8262  _allowance[msg.sender] */\n      0xffffffffffffffffffffffffffffffffffffffff\n      and\n      0xffffffffffffffffffffffffffffffffffffffff\n      and\n      dup2\n      mstore\n      0x20\n      add\n      swap1\n      dup2\n      mstore\n      0x20\n      add\n      0x00\n      keccak256\n        /* \"dharan-token/contracts/customERC20/erc20cust.sol\":8240:8271  _allowance[msg.sender][spender] */\n      0x00\n        /* \"dharan-token/contracts/customERC20/erc20cust.sol\":8263:8270  spender */\n      dup7\n        /* \"dharan-token/contracts/customERC20/erc20cust.sol\":8240:8271  _allowance[msg.sender][spender] */\n      0xffffffffffffffffffffffffffffffffffffffff\n      and\n      0xffffffffffffffffffffffffffffffffffffffff\n      and\n      dup2\n      mstore\n      0x20\n      add\n      swap1\n      dup2\n      mstore\n      0x20\n      add\n      0x00\n      keccak256\n      0x00\n        /* \"dharan-token/contracts/customERC20/erc20cust.sol\":8240:8299  _allowance[msg.sender][spender] -= decreaseValueWithDecimal */\n      dup3\n      dup3\n      sload\n      tag_261\n      swap2\n      swap1\n      tag_103\n      jump\t// in\n    tag_261:\n      swap3\n      pop\n      pop\n      dup2\n      swap1\n      sstore\n      pop\n        /* \"dharan-token/contracts/customERC20/erc20cust.sol\":8338:8345  spender */\n      dup4\n        /* \"dharan-token/contracts/customERC20/erc20cust.sol\":8317:8379  Approval(msg.sender, spender, _allowance[msg.sender][spender]) */\n      0xffffffffffffffffffffffffffffffffffffffff\n      and\n        /* \"dharan-token/contracts/customERC20/erc20cust.sol\":8326:8336  msg.sender */\n      caller\n        /* \"dharan-token/contracts/customERC20/erc20cust.sol\":8317:8379  Approval(msg.sender, spender, _allowance[msg.sender][spender]) */\n      0xffffffffffffffffffffffffffffffffffffffff\n      and\n      0x8c5be1e5ebec7d5bd14f71427d1e84f3dd0314c0f7b2291e5b200ac8c7c3b925\n        /* \"dharan-token/contracts/customERC20/erc20cust.sol\":8347:8357  _allowance */\n      0x07\n        /* \"dharan-token/contracts/customERC20/erc20cust.sol\":8347:8369  _allowance[msg.sender] */\n      0x00\n        /* \"dharan-token/contracts/customERC20/erc20cust.sol\":8358:8368  msg.sender */\n      caller\n        /* \"dharan-token/contracts/customERC20/erc20cust.sol\":8347:8369  _allowance[msg.sender] */\n      0xffffffffffffffffffffffffffffffffffffffff\n      and\n      0xffffffffffffffffffffffffffffffffffffffff\n      and\n      dup2\n      mstore\n      0x20\n      add\n      swap1\n      dup2\n      mstore\n      0x20\n      add\n      0x00\n      keccak256\n        /* \"dharan-token/contracts/customERC20/erc20cust.sol\":8347:8378  _allowance[msg.sender][spender] */\n      0x00\n        /* \"dharan-token/contracts/customERC20/erc20cust.sol\":8370:8377  spender */\n      dup9\n        /* \"dharan-token/contracts/customERC20/erc20cust.sol\":8347:8378  _allowance[msg.sender][spender] */\n      0xffffffffffffffffffffffffffffffffffffffff\n      and\n      0xffffffffffffffffffffffffffffffffffffffff\n      and\n      dup2\n      mstore\n      0x20\n      add\n      swap1\n      dup2\n      mstore\n      0x20\n      add\n      0x00\n      keccak256\n      sload\n        /* \"dharan-token/contracts/customERC20/erc20cust.sol\":8317:8379  Approval(msg.sender, spender, _allowance[msg.sender][spender]) */\n      mload(0x40)\n      tag_262\n      swap2\n      swap1\n      tag_47\n      jump\t// in\n    tag_262:\n      mload(0x40)\n      dup1\n      swap2\n      sub\n      swap1\n      log3\n        /* \"dharan-token/contracts/customERC20/erc20cust.sol\":8397:8401  true */\n      0x01\n        /* \"dharan-token/contracts/customERC20/erc20cust.sol\":8390:8401  return true */\n      swap2\n      pop\n      pop\n        /* \"dharan-token/contracts/customERC20/erc20cust.sol\":7751:8409  function decreaseAllowance(... */\n      swap3\n      swap2\n      pop\n      pop\n      jump\t// out\n        /* \"dharan-token/contracts/customERC20/erc20cust.sol\":2018:3381  function transfer(... */\n    tag_79:\n        /* \"dharan-token/contracts/customERC20/erc20cust.sol\":2105:2117  bool success */\n      0x00\n        /* \"dharan-token/contracts/customERC20/erc20cust.sol\":2130:2155  uint256 amountwithdecimal */\n      0x00\n        /* \"dharan-token/contracts/customERC20/erc20cust.sol\":213:215  18 */\n      0x12\n        /* \"dharan-token/contracts/customERC20/erc20cust.sol\":2168:2170  10 */\n      0x0a\n        /* \"dharan-token/contracts/customERC20/erc20cust.sol\":2168:2183  10 ** _decimals */\n      tag_264\n      swap2\n      swap1\n      tag_118\n      jump\t// in\n    tag_264:\n        /* \"dharan-token/contracts/customERC20/erc20cust.sol\":2158:2164  amount */\n      dup4\n        /* \"dharan-token/contracts/customERC20/erc20cust.sol\":2158:2184  amount * (10 ** _decimals) */\n      tag_265\n      swap2\n      swap1\n      tag_120\n      jump\t// in\n    tag_265:\n        /* \"dharan-token/contracts/customERC20/erc20cust.sol\":2130:2184  uint256 amountwithdecimal = amount * (10 ** _decimals) */\n      swap1\n      pop\n        /* \"dharan-token/contracts/customERC20/erc20cust.sol\":2241:2258  amountwithdecimal */\n      dup1\n        /* \"dharan-token/contracts/customERC20/erc20cust.sol\":2217:2225  balances */\n      0x05\n        /* \"dharan-token/contracts/customERC20/erc20cust.sol\":2217:2237  balances[msg.sender] */\n      0x00\n        /* \"dharan-token/contracts/customERC20/erc20cust.sol\":2226:2236  msg.sender */\n      caller\n        /* \"dharan-token/contracts/customERC20/erc20cust.sol\":2217:2237  balances[msg.sender] */\n      0xffffffffffffffffffffffffffffffffffffffff\n      and\n      0xffffffffffffffffffffffffffffffffffffffff\n      and\n      dup2\n      mstore\n      0x20\n      add\n      swap1\n      dup2\n      mstore\n      0x20\n      add\n      0x00\n      keccak256\n      sload\n        /* \"dharan-token/contracts/customERC20/erc20cust.sol\":2217:2258  balances[msg.sender] >= amountwithdecimal */\n      lt\n      iszero\n        /* \"dharan-token/contracts/customERC20/erc20cust.sol\":2195:2306  require(... */\n      tag_266\n      jumpi\n      mload(0x40)\n      0x08c379a000000000000000000000000000000000000000000000000000000000\n      dup2\n      mstore\n      0x04\n      add\n      tag_267\n      swap1\n      tag_169\n      jump\t// in\n    tag_267:\n      mload(0x40)\n      dup1\n      swap2\n      sub\n      swap1\n      revert\n    tag_266:\n        /* \"dharan-token/contracts/customERC20/erc20cust.sol\":2339:2340  0 */\n      0x00\n        /* \"dharan-token/contracts/customERC20/erc20cust.sol\":2325:2341  to != address(0) */\n      0xffffffffffffffffffffffffffffffffffffffff\n      and\n        /* \"dharan-token/contracts/customERC20/erc20cust.sol\":2325:2327  to */\n      dup5\n        /* \"dharan-token/contracts/customERC20/erc20cust.sol\":2325:2341  to != address(0) */\n      0xffffffffffffffffffffffffffffffffffffffff\n      and\n      sub\n        /* \"dharan-token/contracts/customERC20/erc20cust.sol\":2317:2377  require(to != address(0), \"Cannot transfer to zero address\") */\n      tag_268\n      jumpi\n      mload(0x40)\n      0x08c379a000000000000000000000000000000000000000000000000000000000\n      dup2\n      mstore\n      0x04\n      add\n      tag_269\n      swap1\n      tag_166\n      jump\t// in\n    tag_269:\n      mload(0x40)\n      dup1\n      swap2\n      sub\n      swap1\n      revert\n    tag_268:\n        /* \"dharan-token/contracts/customERC20/erc20cust.sol\":2423:2424  5 */\n      0x05\n        /* \"dharan-token/contracts/customERC20/erc20cust.sol\":2396:2412  whiteListedUsers */\n      0x04\n        /* \"dharan-token/contracts/customERC20/erc20cust.sol\":2396:2419  whiteListedUsers.length */\n      dup1\n      sload\n      swap1\n      pop\n        /* \"dharan-token/contracts/customERC20/erc20cust.sol\":2396:2424  whiteListedUsers.length >= 5 */\n      lt\n      iszero\n        /* \"dharan-token/contracts/customERC20/erc20cust.sol\":2388:2453  require(whiteListedUsers.length >= 5, \"Need 5 whitelisted users\") */\n      tag_270\n      jumpi\n      mload(0x40)\n      0x08c379a000000000000000000000000000000000000000000000000000000000\n      dup2\n      mstore\n      0x04\n      add\n      tag_271\n      swap1\n      tag_175\n      jump\t// in\n    tag_271:\n      mload(0x40)\n      dup1\n      swap2\n      sub\n      swap1\n      revert\n    tag_270:\n        /* \"dharan-token/contracts/customERC20/erc20cust.sol\":2488:2505  amountwithdecimal */\n      dup1\n        /* \"dharan-token/contracts/customERC20/erc20cust.sol\":2464:2472  balances */\n      0x05\n        /* \"dharan-token/contracts/customERC20/erc20cust.sol\":2464:2484  balances[msg.sender] */\n      0x00\n        /* \"dharan-token/contracts/customERC20/erc20cust.sol\":2473:2483  msg.sender */\n      caller\n        /* \"dharan-token/contracts/customERC20/erc20cust.sol\":2464:2484  balances[msg.sender] */\n      0xffffffffffffffffffffffffffffffffffffffff\n      and\n      0xffffffffffffffffffffffffffffffffffffffff\n      and\n      dup2\n      mstore\n      0x20\n      add\n      swap1\n      dup2\n      mstore\n      0x20\n      add\n      0x00\n      keccak256\n      0x00\n        /* \"dharan-token/contracts/customERC20/erc20cust.sol\":2464:2505  balances[msg.sender] -= amountwithdecimal */\n      dup3\n      dup3\n      sload\n      tag_272\n      swap2\n      swap1\n      tag_103\n      jump\t// in\n    tag_272:\n      swap3\n      pop\n      pop\n      dup2\n      swap1\n      sstore\n      pop\n        /* \"dharan-token/contracts/customERC20/erc20cust.sol\":2516:2537  uint256 valueaftertax */\n      0x00\n        /* \"dharan-token/contracts/customERC20/erc20cust.sol\":2566:2569  100 */\n      0x64\n        /* \"dharan-token/contracts/customERC20/erc20cust.sol\":2561:2562  3 */\n      0x03\n        /* \"dharan-token/contracts/customERC20/erc20cust.sol\":2541:2558  amountwithdecimal */\n      dup4\n        /* \"dharan-token/contracts/customERC20/erc20cust.sol\":2541:2562  amountwithdecimal * 3 */\n      tag_273\n      swap2\n      swap1\n      tag_120\n      jump\t// in\n    tag_273:\n        /* \"dharan-token/contracts/customERC20/erc20cust.sol\":2540:2569  (amountwithdecimal * 3) / 100 */\n      tag_274\n      swap2\n      swap1\n      tag_180\n      jump\t// in\n    tag_274:\n        /* \"dharan-token/contracts/customERC20/erc20cust.sol\":2516:2569  uint256 valueaftertax = (amountwithdecimal * 3) / 100 */\n      swap1\n      pop\n        /* \"dharan-token/contracts/customERC20/erc20cust.sol\":2591:2614  uint256 whitelistreward */\n      0x00\n        /* \"dharan-token/contracts/customERC20/erc20cust.sol\":2643:2646  100 */\n      0x64\n        /* \"dharan-token/contracts/customERC20/erc20cust.sol\":2638:2639  1 */\n      0x01\n        /* \"dharan-token/contracts/customERC20/erc20cust.sol\":2618:2635  amountwithdecimal */\n      dup5\n        /* \"dharan-token/contracts/customERC20/erc20cust.sol\":2618:2639  amountwithdecimal * 1 */\n      tag_275\n      swap2\n      swap1\n      tag_120\n      jump\t// in\n    tag_275:\n        /* \"dharan-token/contracts/customERC20/erc20cust.sol\":2617:2646  (amountwithdecimal * 1) / 100 */\n      tag_276\n      swap2\n      swap1\n      tag_180\n      jump\t// in\n    tag_276:\n        /* \"dharan-token/contracts/customERC20/erc20cust.sol\":2591:2646  uint256 whitelistreward = (amountwithdecimal * 1) / 100 */\n      swap1\n      pop\n        /* \"dharan-token/contracts/customERC20/erc20cust.sol\":2677:2705  uint256 totalWhiteListreward */\n      0x00\n        /* \"dharan-token/contracts/customERC20/erc20cust.sol\":2726:2727  5 */\n      0x05\n        /* \"dharan-token/contracts/customERC20/erc20cust.sol\":2708:2723  whitelistreward */\n      dup3\n        /* \"dharan-token/contracts/customERC20/erc20cust.sol\":2708:2727  whitelistreward * 5 */\n      tag_277\n      swap2\n      swap1\n      tag_120\n      jump\t// in\n    tag_277:\n        /* \"dharan-token/contracts/customERC20/erc20cust.sol\":2677:2727  uint256 totalWhiteListreward = whitelistreward * 5 */\n      swap1\n      pop\n        /* \"dharan-token/contracts/customERC20/erc20cust.sol\":2738:2763  uint256 deductionTaxValue */\n      0x00\n        /* \"dharan-token/contracts/customERC20/erc20cust.sol\":2782:2802  totalWhiteListreward */\n      dup2\n        /* \"dharan-token/contracts/customERC20/erc20cust.sol\":2766:2779  valueaftertax */\n      dup5\n        /* \"dharan-token/contracts/customERC20/erc20cust.sol\":2766:2802  valueaftertax + totalWhiteListreward */\n      tag_278\n      swap2\n      swap1\n      tag_134\n      jump\t// in\n    tag_278:\n        /* \"dharan-token/contracts/customERC20/erc20cust.sol\":2738:2802  uint256 deductionTaxValue = valueaftertax + totalWhiteListreward */\n      swap1\n      pop\n        /* \"dharan-token/contracts/customERC20/erc20cust.sol\":2813:2835  uint256 remainingvalue */\n      0x00\n        /* \"dharan-token/contracts/customERC20/erc20cust.sol\":2858:2875  deductionTaxValue */\n      dup2\n        /* \"dharan-token/contracts/customERC20/erc20cust.sol\":2838:2855  amountwithdecimal */\n      dup7\n        /* \"dharan-token/contracts/customERC20/erc20cust.sol\":2838:2875  amountwithdecimal - deductionTaxValue */\n      tag_279\n      swap2\n      swap1\n      tag_103\n      jump\t// in\n    tag_279:\n        /* \"dharan-token/contracts/customERC20/erc20cust.sol\":2813:2875  uint256 remainingvalue = amountwithdecimal - deductionTaxValue */\n      swap1\n      pop\n        /* \"dharan-token/contracts/customERC20/erc20cust.sol\":2902:2916  remainingvalue */\n      dup1\n        /* \"dharan-token/contracts/customERC20/erc20cust.sol\":2886:2894  balances */\n      0x05\n        /* \"dharan-token/contracts/customERC20/erc20cust.sol\":2886:2898  balances[to] */\n      0x00\n        /* \"dharan-token/contracts/customERC20/erc20cust.sol\":2895:2897  to */\n      dup12\n        /* \"dharan-token/contracts/customERC20/erc20cust.sol\":2886:2898  balances[to] */\n      0xffffffffffffffffffffffffffffffffffffffff\n      and\n      0xffffffffffffffffffffffffffffffffffffffff\n      and\n      dup2\n      mstore\n      0x20\n      add\n      swap1\n      dup2\n      mstore\n      0x20\n      add\n      0x00\n      keccak256\n      0x00\n        /* \"dharan-token/contracts/customERC20/erc20cust.sol\":2886:2916  balances[to] += remainingvalue */\n      dup3\n      dup3\n      sload\n      tag_280\n      swap2\n      swap1\n      tag_134\n      jump\t// in\n    tag_280:\n      swap3\n      pop\n      pop\n      dup2\n      swap1\n      sstore\n      pop\n        /* \"dharan-token/contracts/customERC20/erc20cust.sol\":2942:2955  valueaftertax */\n      dup5\n        /* \"dharan-token/contracts/customERC20/erc20cust.sol\":2927:2938  totalSupply */\n      0x01\n      0x00\n        /* \"dharan-token/contracts/customERC20/erc20cust.sol\":2927:2955  totalSupply -= valueaftertax */\n      dup3\n      dup3\n      sload\n      tag_281\n      swap2\n      swap1\n      tag_103\n      jump\t// in\n    tag_281:\n      swap3\n      pop\n      pop\n      dup2\n      swap1\n      sstore\n      pop\n        /* \"dharan-token/contracts/customERC20/erc20cust.sol\":2973:2982  uint256 i */\n      0x00\n        /* \"dharan-token/contracts/customERC20/erc20cust.sol\":2985:2986  0 */\n      0x00\n        /* \"dharan-token/contracts/customERC20/erc20cust.sol\":2973:2986  uint256 i = 0 */\n      swap1\n      pop\n        /* \"dharan-token/contracts/customERC20/erc20cust.sol\":2968:3231  for (uint256 i = 0; i < 5; i++) {... */\n    tag_282:\n        /* \"dharan-token/contracts/customERC20/erc20cust.sol\":2992:2993  5 */\n      0x05\n        /* \"dharan-token/contracts/customERC20/erc20cust.sol\":2988:2989  i */\n      dup2\n        /* \"dharan-token/contracts/customERC20/erc20cust.sol\":2988:2993  i < 5 */\n      lt\n        /* \"dharan-token/contracts/customERC20/erc20cust.sol\":2968:3231  for (uint256 i = 0; i < 5; i++) {... */\n      iszero\n      tag_283\n      jumpi\n        /* \"dharan-token/contracts/customERC20/erc20cust.sol\":3019:3032  isWhitelisted */\n      0x06\n        /* \"dharan-token/contracts/customERC20/erc20cust.sol\":3019:3053  isWhitelisted[whiteListedUsers[i]] */\n      0x00\n        /* \"dharan-token/contracts/customERC20/erc20cust.sol\":3033:3049  whiteListedUsers */\n      0x04\n        /* \"dharan-token/contracts/customERC20/erc20cust.sol\":3050:3051  i */\n      dup4\n        /* \"dharan-token/contracts/customERC20/erc20cust.sol\":3033:3052  whiteListedUsers[i] */\n      dup2\n      sload\n      dup2\n      lt\n      tag_285\n      jumpi\n      tag_286\n      tag_99\n      jump\t// in\n    tag_286:\n    tag_285:\n      swap1\n      0x00\n      mstore\n      keccak256(0x00, 0x20)\n      add\n      0x00\n      swap1\n      sload\n      swap1\n      0x0100\n      exp\n      swap1\n      div\n      0xffffffffffffffffffffffffffffffffffffffff\n      and\n        /* \"dharan-token/contracts/customERC20/erc20cust.sol\":3019:3053  isWhitelisted[whiteListedUsers[i]] */\n      0xffffffffffffffffffffffffffffffffffffffff\n      and\n      0xffffffffffffffffffffffffffffffffffffffff\n      and\n      dup2\n      mstore\n      0x20\n      add\n      swap1\n      dup2\n      mstore\n      0x20\n      add\n      0x00\n      keccak256\n      0x00\n      swap1\n      sload\n      swap1\n      0x0100\n      exp\n      swap1\n      div\n      0xff\n      and\n        /* \"dharan-token/contracts/customERC20/erc20cust.sol\":3015:3220  if (isWhitelisted[whiteListedUsers[i]]) {... */\n      iszero\n      tag_288\n      jumpi\n        /* \"dharan-token/contracts/customERC20/erc20cust.sol\":3107:3122  whitelistreward */\n      dup5\n        /* \"dharan-token/contracts/customERC20/erc20cust.sol\":3074:3082  balances */\n      0x05\n        /* \"dharan-token/contracts/customERC20/erc20cust.sol\":3074:3103  balances[whiteListedUsers[i]] */\n      0x00\n        /* \"dharan-token/contracts/customERC20/erc20cust.sol\":3083:3099  whiteListedUsers */\n      0x04\n        /* \"dharan-token/contracts/customERC20/erc20cust.sol\":3100:3101  i */\n      dup5\n        /* \"dharan-token/contracts/customERC20/erc20cust.sol\":3083:3102  whiteListedUsers[i] */\n      dup2\n      sload\n      dup2\n      lt\n      tag_289\n      jumpi\n      tag_290\n      tag_99\n      jump\t// in\n    tag_290:\n    tag_289:\n      swap1\n      0x00\n      mstore\n      keccak256(0x00, 0x20)\n      add\n      0x00\n      swap1\n      sload\n      swap1\n      0x0100\n      exp\n      swap1\n      div\n      0xffffffffffffffffffffffffffffffffffffffff\n      and\n        /* \"dharan-token/contracts/customERC20/erc20cust.sol\":3074:3103  balances[whiteListedUsers[i]] */\n      0xffffffffffffffffffffffffffffffffffffffff\n      and\n      0xffffffffffffffffffffffffffffffffffffffff\n      and\n      dup2\n      mstore\n      0x20\n      add\n      swap1\n      dup2\n      mstore\n      0x20\n      add\n      0x00\n      keccak256\n      0x00\n        /* \"dharan-token/contracts/customERC20/erc20cust.sol\":3074:3122  balances[whiteListedUsers[i]] += whitelistreward */\n      dup3\n      dup3\n      sload\n      tag_292\n      swap2\n      swap1\n      tag_134\n      jump\t// in\n    tag_292:\n      swap3\n      pop\n      pop\n      dup2\n      swap1\n      sstore\n      pop\n        /* \"dharan-token/contracts/customERC20/erc20cust.sol\":3167:3183  whiteListedUsers */\n      0x04\n        /* \"dharan-token/contracts/customERC20/erc20cust.sol\":3184:3185  i */\n      dup2\n        /* \"dharan-token/contracts/customERC20/erc20cust.sol\":3167:3186  whiteListedUsers[i] */\n      dup2\n      sload\n      dup2\n      lt\n      tag_293\n      jumpi\n      tag_294\n      tag_99\n      jump\t// in\n    tag_294:\n    tag_293:\n      swap1\n      0x00\n      mstore\n      keccak256(0x00, 0x20)\n      add\n      0x00\n      swap1\n      sload\n      swap1\n      0x0100\n      exp\n      swap1\n      div\n      0xffffffffffffffffffffffffffffffffffffffff\n      and\n        /* \"dharan-token/contracts/customERC20/erc20cust.sol\":3146:3204  Transfer(msg.sender, whiteListedUsers[i], whitelistreward) */\n      0xffffffffffffffffffffffffffffffffffffffff\n      and\n        /* \"dharan-token/contracts/customERC20/erc20cust.sol\":3155:3165  msg.sender */\n      caller\n        /* \"dharan-token/contracts/customERC20/erc20cust.sol\":3146:3204  Transfer(msg.sender, whiteListedUsers[i], whitelistreward) */\n      0xffffffffffffffffffffffffffffffffffffffff\n      and\n      0xddf252ad1be2c89b69c2b068fc378daa952ba7f163c4a11628f55a4df523b3ef\n        /* \"dharan-token/contracts/customERC20/erc20cust.sol\":3188:3203  whitelistreward */\n      dup8\n        /* \"dharan-token/contracts/customERC20/erc20cust.sol\":3146:3204  Transfer(msg.sender, whiteListedUsers[i], whitelistreward) */\n      mload(0x40)\n      tag_296\n      swap2\n      swap1\n      tag_47\n      jump\t// in\n    tag_296:\n      mload(0x40)\n      dup1\n      swap2\n      sub\n      swap1\n      log3\n        /* \"dharan-token/contracts/customERC20/erc20cust.sol\":3015:3220  if (isWhitelisted[whiteListedUsers[i]]) {... */\n    tag_288:\n        /* \"dharan-token/contracts/customERC20/erc20cust.sol\":2995:2998  i++ */\n      dup1\n      dup1\n      0x01\n      add\n      swap2\n      pop\n      pop\n        /* \"dharan-token/contracts/customERC20/erc20cust.sol\":2968:3231  for (uint256 i = 0; i < 5; i++) {... */\n      jump(tag_282)\n    tag_283:\n      pop\n        /* \"dharan-token/contracts/customERC20/erc20cust.sol\":3269:3271  to */\n      dup9\n        /* \"dharan-token/contracts/customERC20/erc20cust.sol\":3248:3288  Transfer(msg.sender, to, remainingvalue) */\n      0xffffffffffffffffffffffffffffffffffffffff\n      and\n        /* \"dharan-token/contracts/customERC20/erc20cust.sol\":3257:3267  msg.sender */\n      caller\n        /* \"dharan-token/contracts/customERC20/erc20cust.sol\":3248:3288  Transfer(msg.sender, to, remainingvalue) */\n      0xffffffffffffffffffffffffffffffffffffffff\n      and\n      0xddf252ad1be2c89b69c2b068fc378daa952ba7f163c4a11628f55a4df523b3ef\n        /* \"dharan-token/contracts/customERC20/erc20cust.sol\":3273:3287  remainingvalue */\n      dup4\n        /* \"dharan-token/contracts/customERC20/erc20cust.sol\":3248:3288  Transfer(msg.sender, to, remainingvalue) */\n      mload(0x40)\n      tag_297\n      swap2\n      swap1\n      tag_47\n      jump\t// in\n    tag_297:\n      mload(0x40)\n      dup1\n      swap2\n      sub\n      swap1\n      log3\n        /* \"dharan-token/contracts/customERC20/erc20cust.sol\":3333:3334  0 */\n      0x00\n        /* \"dharan-token/contracts/customERC20/erc20cust.sol\":3304:3351  Transfer(msg.sender, address(0), valueaftertax) */\n      0xffffffffffffffffffffffffffffffffffffffff\n      and\n        /* \"dharan-token/contracts/customERC20/erc20cust.sol\":3313:3323  msg.sender */\n      caller\n        /* \"dharan-token/contracts/customERC20/erc20cust.sol\":3304:3351  Transfer(msg.sender, address(0), valueaftertax) */\n      0xffffffffffffffffffffffffffffffffffffffff\n      and\n      0xddf252ad1be2c89b69c2b068fc378daa952ba7f163c4a11628f55a4df523b3ef\n        /* \"dharan-token/contracts/customERC20/erc20cust.sol\":3337:3350  valueaftertax */\n      dup8\n        /* \"dharan-token/contracts/customERC20/erc20cust.sol\":3304:3351  Transfer(msg.sender, address(0), valueaftertax) */\n      mload(0x40)\n      tag_298\n      swap2\n      swap1\n      tag_47\n      jump\t// in\n    tag_298:\n      mload(0x40)\n      dup1\n      swap2\n      sub\n      swap1\n      log3\n        /* \"dharan-token/contracts/customERC20/erc20cust.sol\":3369:3373  true */\n      0x01\n        /* \"dharan-token/contracts/customERC20/erc20cust.sol\":3362:3373  return true */\n      swap7\n      pop\n      pop\n      pop\n      pop\n      pop\n      pop\n      pop\n        /* \"dharan-token/contracts/customERC20/erc20cust.sol\":2018:3381  function transfer(... */\n      swap3\n      swap2\n      pop\n      pop\n      jump\t// out\n        /* \"dharan-token/contracts/customERC20/erc20cust.sol\":4478:4640  function allowance(... */\n    tag_84:\n        /* \"dharan-token/contracts/customERC20/erc20cust.sol\":4577:4584  uint256 */\n      0x00\n        /* \"dharan-token/contracts/customERC20/erc20cust.sol\":4604:4614  _allowance */\n      0x07\n        /* \"dharan-token/contracts/customERC20/erc20cust.sol\":4604:4622  _allowance[_owner] */\n      0x00\n        /* \"dharan-token/contracts/customERC20/erc20cust.sol\":4615:4621  _owner */\n      dup5\n        /* \"dharan-token/contracts/customERC20/erc20cust.sol\":4604:4622  _allowance[_owner] */\n      0xffffffffffffffffffffffffffffffffffffffff\n      and\n      0xffffffffffffffffffffffffffffffffffffffff\n      and\n      dup2\n      mstore\n      0x20\n      add\n      swap1\n      dup2\n      mstore\n      0x20\n      add\n      0x00\n      keccak256\n        /* \"dharan-token/contracts/customERC20/erc20cust.sol\":4604:4632  _allowance[_owner][_spender] */\n      0x00\n        /* \"dharan-token/contracts/customERC20/erc20cust.sol\":4623:4631  _spender */\n      dup4\n        /* \"dharan-token/contracts/customERC20/erc20cust.sol\":4604:4632  _allowance[_owner][_spender] */\n      0xffffffffffffffffffffffffffffffffffffffff\n      and\n      0xffffffffffffffffffffffffffffffffffffffff\n      and\n      dup2\n      mstore\n      0x20\n      add\n      swap1\n      dup2\n      mstore\n      0x20\n      add\n      0x00\n      keccak256\n      sload\n        /* \"dharan-token/contracts/customERC20/erc20cust.sol\":4597:4632  return _allowance[_owner][_spender] */\n      swap1\n      pop\n        /* \"dharan-token/contracts/customERC20/erc20cust.sol\":4478:4640  function allowance(... */\n      swap3\n      swap2\n      pop\n      pop\n      jump\t// out\n        /* \"#utility.yul\":88:205   */\n    tag_301:\n        /* \"#utility.yul\":197:198   */\n      0x00\n        /* \"#utility.yul\":194:195   */\n      0x00\n        /* \"#utility.yul\":187:199   */\n      revert\n        /* \"#utility.yul\":334:460   */\n    tag_303:\n        /* \"#utility.yul\":371:378   */\n      0x00\n        /* \"#utility.yul\":411:453   */\n      0xffffffffffffffffffffffffffffffffffffffff\n        /* \"#utility.yul\":404:409   */\n      dup3\n        /* \"#utility.yul\":400:454   */\n      and\n        /* \"#utility.yul\":389:454   */\n      swap1\n      pop\n        /* \"#utility.yul\":334:460   */\n      swap2\n      swap1\n      pop\n      jump\t// out\n        /* \"#utility.yul\":466:562   */\n    tag_304:\n        /* \"#utility.yul\":503:510   */\n      0x00\n        /* \"#utility.yul\":532:556   */\n      tag_368\n        /* \"#utility.yul\":550:555   */\n      dup3\n        /* \"#utility.yul\":532:556   */\n      tag_303\n      jump\t// in\n    tag_368:\n        /* \"#utility.yul\":521:556   */\n      swap1\n      pop\n        /* \"#utility.yul\":466:562   */\n      swap2\n      swap1\n      pop\n      jump\t// out\n        /* \"#utility.yul\":568:690   */\n    tag_305:\n        /* \"#utility.yul\":641:665   */\n      tag_370\n        /* \"#utility.yul\":659:664   */\n      dup2\n        /* \"#utility.yul\":641:665   */\n      tag_304\n      jump\t// in\n    tag_370:\n        /* \"#utility.yul\":634:639   */\n      dup2\n        /* \"#utility.yul\":631:666   */\n      eq\n        /* \"#utility.yul\":621:684   */\n      tag_371\n      jumpi\n        /* \"#utility.yul\":680:681   */\n      0x00\n        /* \"#utility.yul\":677:678   */\n      0x00\n        /* \"#utility.yul\":670:682   */\n      revert\n        /* \"#utility.yul\":621:684   */\n    tag_371:\n        /* \"#utility.yul\":568:690   */\n      pop\n      jump\t// out\n        /* \"#utility.yul\":696:835   */\n    tag_306:\n        /* \"#utility.yul\":742:747   */\n      0x00\n        /* \"#utility.yul\":780:786   */\n      dup2\n        /* \"#utility.yul\":767:787   */\n      calldataload\n        /* \"#utility.yul\":758:787   */\n      swap1\n      pop\n        /* \"#utility.yul\":796:829   */\n      tag_373\n        /* \"#utility.yul\":823:828   */\n      dup2\n        /* \"#utility.yul\":796:829   */\n      tag_305\n      jump\t// in\n    tag_373:\n        /* \"#utility.yul\":696:835   */\n      swap3\n      swap2\n      pop\n      pop\n      jump\t// out\n        /* \"#utility.yul\":841:1170   */\n    tag_24:\n        /* \"#utility.yul\":900:906   */\n      0x00\n        /* \"#utility.yul\":949:951   */\n      0x20\n        /* \"#utility.yul\":937:946   */\n      dup3\n        /* \"#utility.yul\":928:935   */\n      dup5\n        /* \"#utility.yul\":924:947   */\n      sub\n        /* \"#utility.yul\":920:952   */\n      slt\n        /* \"#utility.yul\":917:1036   */\n      iszero\n      tag_375\n      jumpi\n        /* \"#utility.yul\":955:1034   */\n      tag_376\n      tag_301\n      jump\t// in\n    tag_376:\n        /* \"#utility.yul\":917:1036   */\n    tag_375:\n        /* \"#utility.yul\":1075:1076   */\n      0x00\n        /* \"#utility.yul\":1100:1153   */\n      tag_377\n        /* \"#utility.yul\":1145:1152   */\n      dup5\n        /* \"#utility.yul\":1136:1142   */\n      dup3\n        /* \"#utility.yul\":1125:1134   */\n      dup6\n        /* \"#utility.yul\":1121:1143   */\n      add\n        /* \"#utility.yul\":1100:1153   */\n      tag_306\n      jump\t// in\n    tag_377:\n        /* \"#utility.yul\":1090:1153   */\n      swap2\n      pop\n        /* \"#utility.yul\":1046:1163   */\n      pop\n        /* \"#utility.yul\":841:1170   */\n      swap3\n      swap2\n      pop\n      pop\n      jump\t// out\n        /* \"#utility.yul\":1176:1275   */\n    tag_307:\n        /* \"#utility.yul\":1228:1234   */\n      0x00\n        /* \"#utility.yul\":1262:1267   */\n      dup2\n        /* \"#utility.yul\":1256:1268   */\n      mload\n        /* \"#utility.yul\":1246:1268   */\n      swap1\n      pop\n        /* \"#utility.yul\":1176:1275   */\n      swap2\n      swap1\n      pop\n      jump\t// out\n        /* \"#utility.yul\":1281:1450   */\n    tag_308:\n        /* \"#utility.yul\":1365:1376   */\n      0x00\n        /* \"#utility.yul\":1399:1405   */\n      dup3\n        /* \"#utility.yul\":1394:1397   */\n      dup3\n        /* \"#utility.yul\":1387:1406   */\n      mstore\n        /* \"#utility.yul\":1439:1443   */\n      0x20\n        /* \"#utility.yul\":1434:1437   */\n      dup3\n        /* \"#utility.yul\":1430:1444   */\n      add\n        /* \"#utility.yul\":1415:1444   */\n      swap1\n      pop\n        /* \"#utility.yul\":1281:1450   */\n      swap3\n      swap2\n      pop\n      pop\n      jump\t// out\n        /* \"#utility.yul\":1456:1595   */\n    tag_309:\n        /* \"#utility.yul\":1545:1551   */\n      dup3\n        /* \"#utility.yul\":1540:1543   */\n      dup2\n        /* \"#utility.yul\":1535:1538   */\n      dup4\n        /* \"#utility.yul\":1529:1552   */\n      mcopy\n        /* \"#utility.yul\":1586:1587   */\n      0x00\n        /* \"#utility.yul\":1577:1583   */\n      dup4\n        /* \"#utility.yul\":1572:1575   */\n      dup4\n        /* \"#utility.yul\":1568:1584   */\n      add\n        /* \"#utility.yul\":1561:1588   */\n      mstore\n        /* \"#utility.yul\":1456:1595   */\n      pop\n      pop\n      pop\n      jump\t// out\n        /* \"#utility.yul\":1601:1703   */\n    tag_310:\n        /* \"#utility.yul\":1642:1648   */\n      0x00\n        /* \"#utility.yul\":1693:1695   */\n      0x1f\n        /* \"#utility.yul\":1689:1696   */\n      not\n        /* \"#utility.yul\":1684:1686   */\n      0x1f\n        /* \"#utility.yul\":1677:1682   */\n      dup4\n        /* \"#utility.yul\":1673:1687   */\n      add\n        /* \"#utility.yul\":1669:1697   */\n      and\n        /* \"#utility.yul\":1659:1697   */\n      swap1\n      pop\n        /* \"#utility.yul\":1601:1703   */\n      swap2\n      swap1\n      pop\n      jump\t// out\n        /* \"#utility.yul\":1709:2086   */\n    tag_311:\n        /* \"#utility.yul\":1797:1800   */\n      0x00\n        /* \"#utility.yul\":1825:1864   */\n      tag_383\n        /* \"#utility.yul\":1858:1863   */\n      dup3\n        /* \"#utility.yul\":1825:1864   */\n      tag_307\n      jump\t// in\n    tag_383:\n        /* \"#utility.yul\":1880:1951   */\n      tag_384\n        /* \"#utility.yul\":1944:1950   */\n      dup2\n        /* \"#utility.yul\":1939:1942   */\n      dup6\n        /* \"#utility.yul\":1880:1951   */\n      tag_308\n      jump\t// in\n    tag_384:\n        /* \"#utility.yul\":1873:1951   */\n      swap4\n      pop\n        /* \"#utility.yul\":1960:2025   */\n      tag_385\n        /* \"#utility.yul\":2018:2024   */\n      dup2\n        /* \"#utility.yul\":2013:2016   */\n      dup6\n        /* \"#utility.yul\":2006:2010   */\n      0x20\n        /* \"#utility.yul\":1999:2004   */\n      dup7\n        /* \"#utility.yul\":1995:2011   */\n      add\n        /* \"#utility.yul\":1960:2025   */\n      tag_309\n      jump\t// in\n    tag_385:\n        /* \"#utility.yul\":2050:2079   */\n      tag_386\n        /* \"#utility.yul\":2072:2078   */\n      dup2\n        /* \"#utility.yul\":2050:2079   */\n      tag_310\n      jump\t// in\n    tag_386:\n        /* \"#utility.yul\":2045:2048   */\n      dup5\n        /* \"#utility.yul\":2041:2080   */\n      add\n        /* \"#utility.yul\":2034:2080   */\n      swap2\n      pop\n        /* \"#utility.yul\":1801:2086   */\n      pop\n        /* \"#utility.yul\":1709:2086   */\n      swap3\n      swap2\n      pop\n      pop\n      jump\t// out\n        /* \"#utility.yul\":2092:2405   */\n    tag_29:\n        /* \"#utility.yul\":2205:2209   */\n      0x00\n        /* \"#utility.yul\":2243:2245   */\n      0x20\n        /* \"#utility.yul\":2232:2241   */\n      dup3\n        /* \"#utility.yul\":2228:2246   */\n      add\n        /* \"#utility.yul\":2220:2246   */\n      swap1\n      pop\n        /* \"#utility.yul\":2292:2301   */\n      dup2\n        /* \"#utility.yul\":2286:2290   */\n      dup2\n        /* \"#utility.yul\":2282:2302   */\n      sub\n        /* \"#utility.yul\":2278:2279   */\n      0x00\n        /* \"#utility.yul\":2267:2276   */\n      dup4\n        /* \"#utility.yul\":2263:2280   */\n      add\n        /* \"#utility.yul\":2256:2303   */\n      mstore\n        /* \"#utility.yul\":2320:2398   */\n      tag_388\n        /* \"#utility.yul\":2393:2397   */\n      dup2\n        /* \"#utility.yul\":2384:2390   */\n      dup5\n        /* \"#utility.yul\":2320:2398   */\n      tag_311\n      jump\t// in\n    tag_388:\n        /* \"#utility.yul\":2312:2398   */\n      swap1\n      pop\n        /* \"#utility.yul\":2092:2405   */\n      swap3\n      swap2\n      pop\n      pop\n      jump\t// out\n        /* \"#utility.yul\":2411:2488   */\n    tag_312:\n        /* \"#utility.yul\":2448:2455   */\n      0x00\n        /* \"#utility.yul\":2477:2482   */\n      dup2\n        /* \"#utility.yul\":2466:2482   */\n      swap1\n      pop\n        /* \"#utility.yul\":2411:2488   */\n      swap2\n      swap1\n      pop\n      jump\t// out\n        /* \"#utility.yul\":2494:2616   */\n    tag_313:\n        /* \"#utility.yul\":2567:2591   */\n      tag_391\n        /* \"#utility.yul\":2585:2590   */\n      dup2\n        /* \"#utility.yul\":2567:2591   */\n      tag_312\n      jump\t// in\n    tag_391:\n        /* \"#utility.yul\":2560:2565   */\n      dup2\n        /* \"#utility.yul\":2557:2592   */\n      eq\n        /* \"#utility.yul\":2547:2610   */\n      tag_392\n      jumpi\n        /* \"#utility.yul\":2606:2607   */\n      0x00\n        /* \"#utility.yul\":2603:2604   */\n      0x00\n        /* \"#utility.yul\":2596:2608   */\n      revert\n        /* \"#utility.yul\":2547:2610   */\n    tag_392:\n        /* \"#utility.yul\":2494:2616   */\n      pop\n      jump\t// out\n        /* \"#utility.yul\":2622:2761   */\n    tag_314:\n        /* \"#utility.yul\":2668:2673   */\n      0x00\n        /* \"#utility.yul\":2706:2712   */\n      dup2\n        /* \"#utility.yul\":2693:2713   */\n      calldataload\n        /* \"#utility.yul\":2684:2713   */\n      swap1\n      pop\n        /* \"#utility.yul\":2722:2755   */\n      tag_394\n        /* \"#utility.yul\":2749:2754   */\n      dup2\n        /* \"#utility.yul\":2722:2755   */\n      tag_313\n      jump\t// in\n    tag_394:\n        /* \"#utility.yul\":2622:2761   */\n      swap3\n      swap2\n      pop\n      pop\n      jump\t// out\n        /* \"#utility.yul\":2767:3241   */\n    tag_32:\n        /* \"#utility.yul\":2835:2841   */\n      0x00\n        /* \"#utility.yul\":2843:2849   */\n      0x00\n        /* \"#utility.yul\":2892:2894   */\n      0x40\n        /* \"#utility.yul\":2880:2889   */\n      dup4\n        /* \"#utility.yul\":2871:2878   */\n      dup6\n        /* \"#utility.yul\":2867:2890   */\n      sub\n        /* \"#utility.yul\":2863:2895   */\n      slt\n        /* \"#utility.yul\":2860:2979   */\n      iszero\n      tag_396\n      jumpi\n        /* \"#utility.yul\":2898:2977   */\n      tag_397\n      tag_301\n      jump\t// in\n    tag_397:\n        /* \"#utility.yul\":2860:2979   */\n    tag_396:\n        /* \"#utility.yul\":3018:3019   */\n      0x00\n        /* \"#utility.yul\":3043:3096   */\n      tag_398\n        /* \"#utility.yul\":3088:3095   */\n      dup6\n        /* \"#utility.yul\":3079:3085   */\n      dup3\n        /* \"#utility.yul\":3068:3077   */\n      dup7\n        /* \"#utility.yul\":3064:3086   */\n      add\n        /* \"#utility.yul\":3043:3096   */\n      tag_306\n      jump\t// in\n    tag_398:\n        /* \"#utility.yul\":3033:3096   */\n      swap3\n      pop\n        /* \"#utility.yul\":2989:3106   */\n      pop\n        /* \"#utility.yul\":3145:3147   */\n      0x20\n        /* \"#utility.yul\":3171:3224   */\n      tag_399\n        /* \"#utility.yul\":3216:3223   */\n      dup6\n        /* \"#utility.yul\":3207:3213   */\n      dup3\n        /* \"#utility.yul\":3196:3205   */\n      dup7\n        /* \"#utility.yul\":3192:3214   */\n      add\n        /* \"#utility.yul\":3171:3224   */\n      tag_314\n      jump\t// in\n    tag_399:\n        /* \"#utility.yul\":3161:3224   */\n      swap2\n      pop\n        /* \"#utility.yul\":3116:3234   */\n      pop\n        /* \"#utility.yul\":2767:3241   */\n      swap3\n      pop\n      swap3\n      swap1\n      pop\n      jump\t// out\n        /* \"#utility.yul\":3247:3337   */\n    tag_315:\n        /* \"#utility.yul\":3281:3288   */\n      0x00\n        /* \"#utility.yul\":3324:3329   */\n      dup2\n        /* \"#utility.yul\":3317:3330   */\n      iszero\n        /* \"#utility.yul\":3310:3331   */\n      iszero\n        /* \"#utility.yul\":3299:3331   */\n      swap1\n      pop\n        /* \"#utility.yul\":3247:3337   */\n      swap2\n      swap1\n      pop\n      jump\t// out\n        /* \"#utility.yul\":3343:3452   */\n    tag_316:\n        /* \"#utility.yul\":3424:3445   */\n      tag_402\n        /* \"#utility.yul\":3439:3444   */\n      dup2\n        /* \"#utility.yul\":3424:3445   */\n      tag_315\n      jump\t// in\n    tag_402:\n        /* \"#utility.yul\":3419:3422   */\n      dup3\n        /* \"#utility.yul\":3412:3446   */\n      mstore\n        /* \"#utility.yul\":3343:3452   */\n      pop\n      pop\n      jump\t// out\n        /* \"#utility.yul\":3458:3668   */\n    tag_35:\n        /* \"#utility.yul\":3545:3549   */\n      0x00\n        /* \"#utility.yul\":3583:3585   */\n      0x20\n        /* \"#utility.yul\":3572:3581   */\n      dup3\n        /* \"#utility.yul\":3568:3586   */\n      add\n        /* \"#utility.yul\":3560:3586   */\n      swap1\n      pop\n        /* \"#utility.yul\":3596:3661   */\n      tag_404\n        /* \"#utility.yul\":3658:3659   */\n      0x00\n        /* \"#utility.yul\":3647:3656   */\n      dup4\n        /* \"#utility.yul\":3643:3660   */\n      add\n        /* \"#utility.yul\":3634:3640   */\n      dup5\n        /* \"#utility.yul\":3596:3661   */\n      tag_316\n      jump\t// in\n    tag_404:\n        /* \"#utility.yul\":3458:3668   */\n      swap3\n      swap2\n      pop\n      pop\n      jump\t// out\n        /* \"#utility.yul\":3674:4293   */\n    tag_41:\n        /* \"#utility.yul\":3751:3757   */\n      0x00\n        /* \"#utility.yul\":3759:3765   */\n      0x00\n        /* \"#utility.yul\":3767:3773   */\n      0x00\n        /* \"#utility.yul\":3816:3818   */\n      0x60\n        /* \"#utility.yul\":3804:3813   */\n      dup5\n        /* \"#utility.yul\":3795:3802   */\n      dup7\n        /* \"#utility.yul\":3791:3814   */\n      sub\n        /* \"#utility.yul\":3787:3819   */\n      slt\n        /* \"#utility.yul\":3784:3903   */\n      iszero\n      tag_406\n      jumpi\n        /* \"#utility.yul\":3822:3901   */\n      tag_407\n      tag_301\n      jump\t// in\n    tag_407:\n        /* \"#utility.yul\":3784:3903   */\n    tag_406:\n        /* \"#utility.yul\":3942:3943   */\n      0x00\n        /* \"#utility.yul\":3967:4020   */\n      tag_408\n        /* \"#utility.yul\":4012:4019   */\n      dup7\n        /* \"#utility.yul\":4003:4009   */\n      dup3\n        /* \"#utility.yul\":3992:4001   */\n      dup8\n        /* \"#utility.yul\":3988:4010   */\n      add\n        /* \"#utility.yul\":3967:4020   */\n      tag_306\n      jump\t// in\n    tag_408:\n        /* \"#utility.yul\":3957:4020   */\n      swap4\n      pop\n        /* \"#utility.yul\":3913:4030   */\n      pop\n        /* \"#utility.yul\":4069:4071   */\n      0x20\n        /* \"#utility.yul\":4095:4148   */\n      tag_409\n        /* \"#utility.yul\":4140:4147   */\n      dup7\n        /* \"#utility.yul\":4131:4137   */\n      dup3\n        /* \"#utility.yul\":4120:4129   */\n      dup8\n        /* \"#utility.yul\":4116:4138   */\n      add\n        /* \"#utility.yul\":4095:4148   */\n      tag_306\n      jump\t// in\n    tag_409:\n        /* \"#utility.yul\":4085:4148   */\n      swap3\n      pop\n        /* \"#utility.yul\":4040:4158   */\n      pop\n        /* \"#utility.yul\":4197:4199   */\n      0x40\n        /* \"#utility.yul\":4223:4276   */\n      tag_410\n        /* \"#utility.yul\":4268:4275   */\n      dup7\n        /* \"#utility.yul\":4259:4265   */\n      dup3\n        /* \"#utility.yul\":4248:4257   */\n      dup8\n        /* \"#utility.yul\":4244:4266   */\n      add\n        /* \"#utility.yul\":4223:4276   */\n      tag_314\n      jump\t// in\n    tag_410:\n        /* \"#utility.yul\":4213:4276   */\n      swap2\n      pop\n        /* \"#utility.yul\":4168:4286   */\n      pop\n        /* \"#utility.yul\":3674:4293   */\n      swap3\n      pop\n      swap3\n      pop\n      swap3\n      jump\t// out\n        /* \"#utility.yul\":4299:4417   */\n    tag_317:\n        /* \"#utility.yul\":4386:4410   */\n      tag_412\n        /* \"#utility.yul\":4404:4409   */\n      dup2\n        /* \"#utility.yul\":4386:4410   */\n      tag_312\n      jump\t// in\n    tag_412:\n        /* \"#utility.yul\":4381:4384   */\n      dup3\n        /* \"#utility.yul\":4374:4411   */\n      mstore\n        /* \"#utility.yul\":4299:4417   */\n      pop\n      pop\n      jump\t// out\n        /* \"#utility.yul\":4423:4645   */\n    tag_47:\n        /* \"#utility.yul\":4516:4520   */\n      0x00\n        /* \"#utility.yul\":4554:4556   */\n      0x20\n        /* \"#utility.yul\":4543:4552   */\n      dup3\n        /* \"#utility.yul\":4539:4557   */\n      add\n        /* \"#utility.yul\":4531:4557   */\n      swap1\n      pop\n        /* \"#utility.yul\":4567:4638   */\n      tag_414\n        /* \"#utility.yul\":4635:4636   */\n      0x00\n        /* \"#utility.yul\":4624:4633   */\n      dup4\n        /* \"#utility.yul\":4620:4637   */\n      add\n        /* \"#utility.yul\":4611:4617   */\n      dup5\n        /* \"#utility.yul\":4567:4638   */\n      tag_317\n      jump\t// in\n    tag_414:\n        /* \"#utility.yul\":4423:4645   */\n      swap3\n      swap2\n      pop\n      pop\n      jump\t// out\n        /* \"#utility.yul\":4651:4765   */\n    tag_318:\n        /* \"#utility.yul\":4718:4724   */\n      0x00\n        /* \"#utility.yul\":4752:4757   */\n      dup2\n        /* \"#utility.yul\":4746:4758   */\n      mload\n        /* \"#utility.yul\":4736:4758   */\n      swap1\n      pop\n        /* \"#utility.yul\":4651:4765   */\n      swap2\n      swap1\n      pop\n      jump\t// out\n        /* \"#utility.yul\":4771:4955   */\n    tag_319:\n        /* \"#utility.yul\":4870:4881   */\n      0x00\n        /* \"#utility.yul\":4904:4910   */\n      dup3\n        /* \"#utility.yul\":4899:4902   */\n      dup3\n        /* \"#utility.yul\":4892:4911   */\n      mstore\n        /* \"#utility.yul\":4944:4948   */\n      0x20\n        /* \"#utility.yul\":4939:4942   */\n      dup3\n        /* \"#utility.yul\":4935:4949   */\n      add\n        /* \"#utility.yul\":4920:4949   */\n      swap1\n      pop\n        /* \"#utility.yul\":4771:4955   */\n      swap3\n      swap2\n      pop\n      pop\n      jump\t// out\n        /* \"#utility.yul\":4961:5093   */\n    tag_320:\n        /* \"#utility.yul\":5028:5032   */\n      0x00\n        /* \"#utility.yul\":5051:5054   */\n      dup2\n        /* \"#utility.yul\":5043:5054   */\n      swap1\n      pop\n        /* \"#utility.yul\":5081:5085   */\n      0x20\n        /* \"#utility.yul\":5076:5079   */\n      dup3\n        /* \"#utility.yul\":5072:5086   */\n      add\n        /* \"#utility.yul\":5064:5086   */\n      swap1\n      pop\n        /* \"#utility.yul\":4961:5093   */\n      swap2\n      swap1\n      pop\n      jump\t// out\n        /* \"#utility.yul\":5099:5207   */\n    tag_321:\n        /* \"#utility.yul\":5176:5200   */\n      tag_419\n        /* \"#utility.yul\":5194:5199   */\n      dup2\n        /* \"#utility.yul\":5176:5200   */\n      tag_304\n      jump\t// in\n    tag_419:\n        /* \"#utility.yul\":5171:5174   */\n      dup3\n        /* \"#utility.yul\":5164:5201   */\n      mstore\n        /* \"#utility.yul\":5099:5207   */\n      pop\n      pop\n      jump\t// out\n        /* \"#utility.yul\":5213:5392   */\n    tag_322:\n        /* \"#utility.yul\":5282:5292   */\n      0x00\n        /* \"#utility.yul\":5303:5349   */\n      tag_421\n        /* \"#utility.yul\":5345:5348   */\n      dup4\n        /* \"#utility.yul\":5337:5343   */\n      dup4\n        /* \"#utility.yul\":5303:5349   */\n      tag_321\n      jump\t// in\n    tag_421:\n        /* \"#utility.yul\":5381:5385   */\n      0x20\n        /* \"#utility.yul\":5376:5379   */\n      dup4\n        /* \"#utility.yul\":5372:5386   */\n      add\n        /* \"#utility.yul\":5358:5386   */\n      swap1\n      pop\n        /* \"#utility.yul\":5213:5392   */\n      swap3\n      swap2\n      pop\n      pop\n      jump\t// out\n        /* \"#utility.yul\":5398:5511   */\n    tag_323:\n        /* \"#utility.yul\":5468:5472   */\n      0x00\n        /* \"#utility.yul\":5500:5504   */\n      0x20\n        /* \"#utility.yul\":5495:5498   */\n      dup3\n        /* \"#utility.yul\":5491:5505   */\n      add\n        /* \"#utility.yul\":5483:5505   */\n      swap1\n      pop\n        /* \"#utility.yul\":5398:5511   */\n      swap2\n      swap1\n      pop\n      jump\t// out\n        /* \"#utility.yul\":5547:6279   */\n    tag_324:\n        /* \"#utility.yul\":5666:5669   */\n      0x00\n        /* \"#utility.yul\":5695:5749   */\n      tag_424\n        /* \"#utility.yul\":5743:5748   */\n      dup3\n        /* \"#utility.yul\":5695:5749   */\n      tag_318\n      jump\t// in\n    tag_424:\n        /* \"#utility.yul\":5765:5851   */\n      tag_425\n        /* \"#utility.yul\":5844:5850   */\n      dup2\n        /* \"#utility.yul\":5839:5842   */\n      dup6\n        /* \"#utility.yul\":5765:5851   */\n      tag_319\n      jump\t// in\n    tag_425:\n        /* \"#utility.yul\":5758:5851   */\n      swap4\n      pop\n        /* \"#utility.yul\":5875:5931   */\n      tag_426\n        /* \"#utility.yul\":5925:5930   */\n      dup4\n        /* \"#utility.yul\":5875:5931   */\n      tag_320\n      jump\t// in\n    tag_426:\n        /* \"#utility.yul\":5954:5961   */\n      dup1\n        /* \"#utility.yul\":5985:5986   */\n      0x00\n        /* \"#utility.yul\":5970:6254   */\n    tag_427:\n        /* \"#utility.yul\":5995:6001   */\n      dup4\n        /* \"#utility.yul\":5992:5993   */\n      dup2\n        /* \"#utility.yul\":5989:6002   */\n      lt\n        /* \"#utility.yul\":5970:6254   */\n      iszero\n      tag_429\n      jumpi\n        /* \"#utility.yul\":6071:6077   */\n      dup2\n        /* \"#utility.yul\":6065:6078   */\n      mload\n        /* \"#utility.yul\":6098:6161   */\n      tag_430\n        /* \"#utility.yul\":6157:6160   */\n      dup9\n        /* \"#utility.yul\":6142:6155   */\n      dup3\n        /* \"#utility.yul\":6098:6161   */\n      tag_322\n      jump\t// in\n    tag_430:\n        /* \"#utility.yul\":6091:6161   */\n      swap8\n      pop\n        /* \"#utility.yul\":6184:6244   */\n      tag_431\n        /* \"#utility.yul\":6237:6243   */\n      dup4\n        /* \"#utility.yul\":6184:6244   */\n      tag_323\n      jump\t// in\n    tag_431:\n        /* \"#utility.yul\":6174:6244   */\n      swap3\n      pop\n        /* \"#utility.yul\":6030:6254   */\n      pop\n        /* \"#utility.yul\":6017:6018   */\n      0x01\n        /* \"#utility.yul\":6014:6015   */\n      dup2\n        /* \"#utility.yul\":6010:6019   */\n      add\n        /* \"#utility.yul\":6005:6019   */\n      swap1\n      pop\n        /* \"#utility.yul\":5970:6254   */\n      jump(tag_427)\n    tag_429:\n        /* \"#utility.yul\":5974:5988   */\n      pop\n        /* \"#utility.yul\":6270:6273   */\n      dup6\n        /* \"#utility.yul\":6263:6273   */\n      swap4\n      pop\n        /* \"#utility.yul\":5671:6279   */\n      pop\n      pop\n      pop\n        /* \"#utility.yul\":5547:6279   */\n      swap3\n      swap2\n      pop\n      pop\n      jump\t// out\n        /* \"#utility.yul\":6285:6658   */\n    tag_58:\n        /* \"#utility.yul\":6428:6432   */\n      0x00\n        /* \"#utility.yul\":6466:6468   */\n      0x20\n        /* \"#utility.yul\":6455:6464   */\n      dup3\n        /* \"#utility.yul\":6451:6469   */\n      add\n        /* \"#utility.yul\":6443:6469   */\n      swap1\n      pop\n        /* \"#utility.yul\":6515:6524   */\n      dup2\n        /* \"#utility.yul\":6509:6513   */\n      dup2\n        /* \"#utility.yul\":6505:6525   */\n      sub\n        /* \"#utility.yul\":6501:6502   */\n      0x00\n        /* \"#utility.yul\":6490:6499   */\n      dup4\n        /* \"#utility.yul\":6486:6503   */\n      add\n        /* \"#utility.yul\":6479:6526   */\n      mstore\n        /* \"#utility.yul\":6543:6651   */\n      tag_433\n        /* \"#utility.yul\":6646:6650   */\n      dup2\n        /* \"#utility.yul\":6637:6643   */\n      dup5\n        /* \"#utility.yul\":6543:6651   */\n      tag_324\n      jump\t// in\n    tag_433:\n        /* \"#utility.yul\":6535:6651   */\n      swap1\n      pop\n        /* \"#utility.yul\":6285:6658   */\n      swap3\n      swap2\n      pop\n      pop\n      jump\t// out\n        /* \"#utility.yul\":6664:6780   */\n    tag_325:\n        /* \"#utility.yul\":6734:6755   */\n      tag_435\n        /* \"#utility.yul\":6749:6754   */\n      dup2\n        /* \"#utility.yul\":6734:6755   */\n      tag_315\n      jump\t// in\n    tag_435:\n        /* \"#utility.yul\":6727:6732   */\n      dup2\n        /* \"#utility.yul\":6724:6756   */\n      eq\n        /* \"#utility.yul\":6714:6774   */\n      tag_436\n      jumpi\n        /* \"#utility.yul\":6770:6771   */\n      0x00\n        /* \"#utility.yul\":6767:6768   */\n      0x00\n        /* \"#utility.yul\":6760:6772   */\n      revert\n        /* \"#utility.yul\":6714:6774   */\n    tag_436:\n        /* \"#utility.yul\":6664:6780   */\n      pop\n      jump\t// out\n        /* \"#utility.yul\":6786:6919   */\n    tag_326:\n        /* \"#utility.yul\":6829:6834   */\n      0x00\n        /* \"#utility.yul\":6867:6873   */\n      dup2\n        /* \"#utility.yul\":6854:6874   */\n      calldataload\n        /* \"#utility.yul\":6845:6874   */\n      swap1\n      pop\n        /* \"#utility.yul\":6883:6913   */\n      tag_438\n        /* \"#utility.yul\":6907:6912   */\n      dup2\n        /* \"#utility.yul\":6883:6913   */\n      tag_325\n      jump\t// in\n    tag_438:\n        /* \"#utility.yul\":6786:6919   */\n      swap3\n      swap2\n      pop\n      pop\n      jump\t// out\n        /* \"#utility.yul\":6925:7393   */\n    tag_68:\n        /* \"#utility.yul\":6990:6996   */\n      0x00\n        /* \"#utility.yul\":6998:7004   */\n      0x00\n        /* \"#utility.yul\":7047:7049   */\n      0x40\n        /* \"#utility.yul\":7035:7044   */\n      dup4\n        /* \"#utility.yul\":7026:7033   */\n      dup6\n        /* \"#utility.yul\":7022:7045   */\n      sub\n        /* \"#utility.yul\":7018:7050   */\n      slt\n        /* \"#utility.yul\":7015:7134   */\n      iszero\n      tag_440\n      jumpi\n        /* \"#utility.yul\":7053:7132   */\n      tag_441\n      tag_301\n      jump\t// in\n    tag_441:\n        /* \"#utility.yul\":7015:7134   */\n    tag_440:\n        /* \"#utility.yul\":7173:7174   */\n      0x00\n        /* \"#utility.yul\":7198:7251   */\n      tag_442\n        /* \"#utility.yul\":7243:7250   */\n      dup6\n        /* \"#utility.yul\":7234:7240   */\n      dup3\n        /* \"#utility.yul\":7223:7232   */\n      dup7\n        /* \"#utility.yul\":7219:7241   */\n      add\n        /* \"#utility.yul\":7198:7251   */\n      tag_306\n      jump\t// in\n    tag_442:\n        /* \"#utility.yul\":7188:7251   */\n      swap3\n      pop\n        /* \"#utility.yul\":7144:7261   */\n      pop\n        /* \"#utility.yul\":7300:7302   */\n      0x20\n        /* \"#utility.yul\":7326:7376   */\n      tag_443\n        /* \"#utility.yul\":7368:7375   */\n      dup6\n        /* \"#utility.yul\":7359:7365   */\n      dup3\n        /* \"#utility.yul\":7348:7357   */\n      dup7\n        /* \"#utility.yul\":7344:7366   */\n      add\n        /* \"#utility.yul\":7326:7376   */\n      tag_326\n      jump\t// in\n    tag_443:\n        /* \"#utility.yul\":7316:7376   */\n      swap2\n      pop\n        /* \"#utility.yul\":7271:7386   */\n      pop\n        /* \"#utility.yul\":6925:7393   */\n      swap3\n      pop\n      swap3\n      swap1\n      pop\n      jump\t// out\n        /* \"#utility.yul\":7399:7873   */\n    tag_83:\n        /* \"#utility.yul\":7467:7473   */\n      0x00\n        /* \"#utility.yul\":7475:7481   */\n      0x00\n        /* \"#utility.yul\":7524:7526   */\n      0x40\n        /* \"#utility.yul\":7512:7521   */\n      dup4\n        /* \"#utility.yul\":7503:7510   */\n      dup6\n        /* \"#utility.yul\":7499:7522   */\n      sub\n        /* \"#utility.yul\":7495:7527   */\n      slt\n        /* \"#utility.yul\":7492:7611   */\n      iszero\n      tag_445\n      jumpi\n        /* \"#utility.yul\":7530:7609   */\n      tag_446\n      tag_301\n      jump\t// in\n    tag_446:\n        /* \"#utility.yul\":7492:7611   */\n    tag_445:\n        /* \"#utility.yul\":7650:7651   */\n      0x00\n        /* \"#utility.yul\":7675:7728   */\n      tag_447\n        /* \"#utility.yul\":7720:7727   */\n      dup6\n        /* \"#utility.yul\":7711:7717   */\n      dup3\n        /* \"#utility.yul\":7700:7709   */\n      dup7\n        /* \"#utility.yul\":7696:7718   */\n      add\n        /* \"#utility.yul\":7675:7728   */\n      tag_306\n      jump\t// in\n    tag_447:\n        /* \"#utility.yul\":7665:7728   */\n      swap3\n      pop\n        /* \"#utility.yul\":7621:7738   */\n      pop\n        /* \"#utility.yul\":7777:7779   */\n      0x20\n        /* \"#utility.yul\":7803:7856   */\n      tag_448\n        /* \"#utility.yul\":7848:7855   */\n      dup6\n        /* \"#utility.yul\":7839:7845   */\n      dup3\n        /* \"#utility.yul\":7828:7837   */\n      dup7\n        /* \"#utility.yul\":7824:7846   */\n      add\n        /* \"#utility.yul\":7803:7856   */\n      tag_306\n      jump\t// in\n    tag_448:\n        /* \"#utility.yul\":7793:7856   */\n      swap2\n      pop\n        /* \"#utility.yul\":7748:7866   */\n      pop\n        /* \"#utility.yul\":7399:7873   */\n      swap3\n      pop\n      swap3\n      swap1\n      pop\n      jump\t// out\n        /* \"#utility.yul\":7879:8105   */\n    tag_327:\n        /* \"#utility.yul\":8019:8053   */\n      0x6f6e6c79206f776e657220686176652061636365737320746f20746869732066\n        /* \"#utility.yul\":8015:8016   */\n      0x00\n        /* \"#utility.yul\":8007:8013   */\n      dup3\n        /* \"#utility.yul\":8003:8017   */\n      add\n        /* \"#utility.yul\":7996:8054   */\n      mstore\n        /* \"#utility.yul\":8088:8097   */\n      0x756e6374696f6e00000000000000000000000000000000000000000000000000\n        /* \"#utility.yul\":8083:8085   */\n      0x20\n        /* \"#utility.yul\":8075:8081   */\n      dup3\n        /* \"#utility.yul\":8071:8086   */\n      add\n        /* \"#utility.yul\":8064:8098   */\n      mstore\n        /* \"#utility.yul\":7879:8105   */\n      pop\n      jump\t// out\n        /* \"#utility.yul\":8111:8477   */\n    tag_328:\n        /* \"#utility.yul\":8253:8256   */\n      0x00\n        /* \"#utility.yul\":8274:8341   */\n      tag_451\n        /* \"#utility.yul\":8338:8340   */\n      0x27\n        /* \"#utility.yul\":8333:8336   */\n      dup4\n        /* \"#utility.yul\":8274:8341   */\n      tag_308\n      jump\t// in\n    tag_451:\n        /* \"#utility.yul\":8267:8341   */\n      swap2\n      pop\n        /* \"#utility.yul\":8350:8443   */\n      tag_452\n        /* \"#utility.yul\":8439:8442   */\n      dup3\n        /* \"#utility.yul\":8350:8443   */\n      tag_327\n      jump\t// in\n    tag_452:\n        /* \"#utility.yul\":8468:8470   */\n      0x40\n        /* \"#utility.yul\":8463:8466   */\n      dup3\n        /* \"#utility.yul\":8459:8471   */\n      add\n        /* \"#utility.yul\":8452:8471   */\n      swap1\n      pop\n        /* \"#utility.yul\":8111:8477   */\n      swap2\n      swap1\n      pop\n      jump\t// out\n        /* \"#utility.yul\":8483:8902   */\n    tag_89:\n        /* \"#utility.yul\":8649:8653   */\n      0x00\n        /* \"#utility.yul\":8687:8689   */\n      0x20\n        /* \"#utility.yul\":8676:8685   */\n      dup3\n        /* \"#utility.yul\":8672:8690   */\n      add\n        /* \"#utility.yul\":8664:8690   */\n      swap1\n      pop\n        /* \"#utility.yul\":8736:8745   */\n      dup2\n        /* \"#utility.yul\":8730:8734   */\n      dup2\n        /* \"#utility.yul\":8726:8746   */\n      sub\n        /* \"#utility.yul\":8722:8723   */\n      0x00\n        /* \"#utility.yul\":8711:8720   */\n      dup4\n        /* \"#utility.yul\":8707:8724   */\n      add\n        /* \"#utility.yul\":8700:8747   */\n      mstore\n        /* \"#utility.yul\":8764:8895   */\n      tag_454\n        /* \"#utility.yul\":8890:8894   */\n      dup2\n        /* \"#utility.yul\":8764:8895   */\n      tag_328\n      jump\t// in\n    tag_454:\n        /* \"#utility.yul\":8756:8895   */\n      swap1\n      pop\n        /* \"#utility.yul\":8483:8902   */\n      swap2\n      swap1\n      pop\n      jump\t// out\n        /* \"#utility.yul\":8908:9078   */\n    tag_329:\n        /* \"#utility.yul\":9048:9070   */\n      0x55736572206e6f742057686974654c6973746564000000000000000000000000\n        /* \"#utility.yul\":9044:9045   */\n      0x00\n        /* \"#utility.yul\":9036:9042   */\n      dup3\n        /* \"#utility.yul\":9032:9046   */\n      add\n        /* \"#utility.yul\":9025:9071   */\n      mstore\n        /* \"#utility.yul\":8908:9078   */\n      pop\n      jump\t// out\n        /* \"#utility.yul\":9084:9450   */\n    tag_330:\n        /* \"#utility.yul\":9226:9229   */\n      0x00\n        /* \"#utility.yul\":9247:9314   */\n      tag_457\n        /* \"#utility.yul\":9311:9313   */\n      0x14\n        /* \"#utility.yul\":9306:9309   */\n      dup4\n        /* \"#utility.yul\":9247:9314   */\n      tag_308\n      jump\t// in\n    tag_457:\n        /* \"#utility.yul\":9240:9314   */\n      swap2\n      pop\n        /* \"#utility.yul\":9323:9416   */\n      tag_458\n        /* \"#utility.yul\":9412:9415   */\n      dup3\n        /* \"#utility.yul\":9323:9416   */\n      tag_329\n      jump\t// in\n    tag_458:\n        /* \"#utility.yul\":9441:9443   */\n      0x20\n        /* \"#utility.yul\":9436:9439   */\n      dup3\n        /* \"#utility.yul\":9432:9444   */\n      add\n        /* \"#utility.yul\":9425:9444   */\n      swap1\n      pop\n        /* \"#utility.yul\":9084:9450   */\n      swap2\n      swap1\n      pop\n      jump\t// out\n        /* \"#utility.yul\":9456:9875   */\n    tag_93:\n        /* \"#utility.yul\":9622:9626   */\n      0x00\n        /* \"#utility.yul\":9660:9662   */\n      0x20\n        /* \"#utility.yul\":9649:9658   */\n      dup3\n        /* \"#utility.yul\":9645:9663   */\n      add\n        /* \"#utility.yul\":9637:9663   */\n      swap1\n      pop\n        /* \"#utility.yul\":9709:9718   */\n      dup2\n        /* \"#utility.yul\":9703:9707   */\n      dup2\n        /* \"#utility.yul\":9699:9719   */\n      sub\n        /* \"#utility.yul\":9695:9696   */\n      0x00\n        /* \"#utility.yul\":9684:9693   */\n      dup4\n        /* \"#utility.yul\":9680:9697   */\n      add\n        /* \"#utility.yul\":9673:9720   */\n      mstore\n        /* \"#utility.yul\":9737:9868   */\n      tag_460\n        /* \"#utility.yul\":9863:9867   */\n      dup2\n        /* \"#utility.yul\":9737:9868   */\n      tag_330\n      jump\t// in\n    tag_460:\n        /* \"#utility.yul\":9729:9868   */\n      swap1\n      pop\n        /* \"#utility.yul\":9456:9875   */\n      swap2\n      swap1\n      pop\n      jump\t// out\n        /* \"#utility.yul\":9881:10061   */\n    tag_99:\n        /* \"#utility.yul\":9929:10006   */\n      0x4e487b7100000000000000000000000000000000000000000000000000000000\n        /* \"#utility.yul\":9926:9927   */\n      0x00\n        /* \"#utility.yul\":9919:10007   */\n      mstore\n        /* \"#utility.yul\":10026:10030   */\n      0x32\n        /* \"#utility.yul\":10023:10024   */\n      0x04\n        /* \"#utility.yul\":10016:10031   */\n      mstore\n        /* \"#utility.yul\":10050:10054   */\n      0x24\n        /* \"#utility.yul\":10047:10048   */\n      0x00\n        /* \"#utility.yul\":10040:10055   */\n      revert\n        /* \"#utility.yul\":10067:10247   */\n    tag_331:\n        /* \"#utility.yul\":10115:10192   */\n      0x4e487b7100000000000000000000000000000000000000000000000000000000\n        /* \"#utility.yul\":10112:10113   */\n      0x00\n        /* \"#utility.yul\":10105:10193   */\n      mstore\n        /* \"#utility.yul\":10212:10216   */\n      0x11\n        /* \"#utility.yul\":10209:10210   */\n      0x04\n        /* \"#utility.yul\":10202:10217   */\n      mstore\n        /* \"#utility.yul\":10236:10240   */\n      0x24\n        /* \"#utility.yul\":10233:10234   */\n      0x00\n        /* \"#utility.yul\":10226:10241   */\n      revert\n        /* \"#utility.yul\":10253:10447   */\n    tag_103:\n        /* \"#utility.yul\":10293:10297   */\n      0x00\n        /* \"#utility.yul\":10313:10333   */\n      tag_464\n        /* \"#utility.yul\":10331:10332   */\n      dup3\n        /* \"#utility.yul\":10313:10333   */\n      tag_312\n      jump\t// in\n    tag_464:\n        /* \"#utility.yul\":10308:10333   */\n      swap2\n      pop\n        /* \"#utility.yul\":10347:10367   */\n      tag_465\n        /* \"#utility.yul\":10365:10366   */\n      dup4\n        /* \"#utility.yul\":10347:10367   */\n      tag_312\n      jump\t// in\n    tag_465:\n        /* \"#utility.yul\":10342:10367   */\n      swap3\n      pop\n        /* \"#utility.yul\":10391:10392   */\n      dup3\n        /* \"#utility.yul\":10388:10389   */\n      dup3\n        /* \"#utility.yul\":10384:10393   */\n      sub\n        /* \"#utility.yul\":10376:10393   */\n      swap1\n      pop\n        /* \"#utility.yul\":10415:10416   */\n      dup2\n        /* \"#utility.yul\":10409:10413   */\n      dup2\n        /* \"#utility.yul\":10406:10417   */\n      gt\n        /* \"#utility.yul\":10403:10440   */\n      iszero\n      tag_466\n      jumpi\n        /* \"#utility.yul\":10420:10438   */\n      tag_467\n      tag_331\n      jump\t// in\n    tag_467:\n        /* \"#utility.yul\":10403:10440   */\n    tag_466:\n        /* \"#utility.yul\":10253:10447   */\n      swap3\n      swap2\n      pop\n      pop\n      jump\t// out\n        /* \"#utility.yul\":10453:10633   */\n    tag_112:\n        /* \"#utility.yul\":10501:10578   */\n      0x4e487b7100000000000000000000000000000000000000000000000000000000\n        /* \"#utility.yul\":10498:10499   */\n      0x00\n        /* \"#utility.yul\":10491:10579   */\n      mstore\n        /* \"#utility.yul\":10598:10602   */\n      0x31\n        /* \"#utility.yul\":10595:10596   */\n      0x04\n        /* \"#utility.yul\":10588:10603   */\n      mstore\n        /* \"#utility.yul\":10622:10626   */\n      0x24\n        /* \"#utility.yul\":10619:10620   */\n      0x00\n        /* \"#utility.yul\":10612:10627   */\n      revert\n        /* \"#utility.yul\":10639:10741   */\n    tag_332:\n        /* \"#utility.yul\":10681:10689   */\n      0x00\n        /* \"#utility.yul\":10728:10733   */\n      dup2\n        /* \"#utility.yul\":10725:10726   */\n      0x01\n        /* \"#utility.yul\":10721:10734   */\n      shr\n        /* \"#utility.yul\":10700:10734   */\n      swap1\n      pop\n        /* \"#utility.yul\":10639:10741   */\n      swap2\n      swap1\n      pop\n      jump\t// out\n        /* \"#utility.yul\":10747:11595   */\n    tag_333:\n        /* \"#utility.yul\":10808:10813   */\n      0x00\n        /* \"#utility.yul\":10815:10819   */\n      0x00\n        /* \"#utility.yul\":10839:10845   */\n      dup3\n        /* \"#utility.yul\":10830:10845   */\n      swap2\n      pop\n        /* \"#utility.yul\":10863:10868   */\n      dup4\n        /* \"#utility.yul\":10854:10868   */\n      swap1\n      pop\n        /* \"#utility.yul\":10877:11589   */\n    tag_471:\n        /* \"#utility.yul\":10898:10899   */\n      0x01\n        /* \"#utility.yul\":10888:10896   */\n      dup6\n        /* \"#utility.yul\":10885:10900   */\n      gt\n        /* \"#utility.yul\":10877:11589   */\n      iszero\n      tag_473\n      jumpi\n        /* \"#utility.yul\":10993:10997   */\n      dup1\n        /* \"#utility.yul\":10988:10991   */\n      dup7\n        /* \"#utility.yul\":10984:10998   */\n      div\n        /* \"#utility.yul\":10978:10982   */\n      dup2\n        /* \"#utility.yul\":10975:10999   */\n      gt\n        /* \"#utility.yul\":10972:11022   */\n      iszero\n      tag_474\n      jumpi\n        /* \"#utility.yul\":11002:11020   */\n      tag_475\n      tag_331\n      jump\t// in\n    tag_475:\n        /* \"#utility.yul\":10972:11022   */\n    tag_474:\n        /* \"#utility.yul\":11052:11053   */\n      0x01\n        /* \"#utility.yul\":11042:11050   */\n      dup6\n        /* \"#utility.yul\":11038:11054   */\n      and\n        /* \"#utility.yul\":11035:11486   */\n      iszero\n      tag_476\n      jumpi\n        /* \"#utility.yul\":11467:11471   */\n      dup1\n        /* \"#utility.yul\":11460:11465   */\n      dup3\n        /* \"#utility.yul\":11456:11472   */\n      mul\n        /* \"#utility.yul\":11447:11472   */\n      swap2\n      pop\n        /* \"#utility.yul\":11035:11486   */\n    tag_476:\n        /* \"#utility.yul\":11517:11521   */\n      dup1\n        /* \"#utility.yul\":11511:11515   */\n      dup2\n        /* \"#utility.yul\":11507:11522   */\n      mul\n        /* \"#utility.yul\":11499:11522   */\n      swap1\n      pop\n        /* \"#utility.yul\":11547:11579   */\n      tag_477\n        /* \"#utility.yul\":11570:11578   */\n      dup6\n        /* \"#utility.yul\":11547:11579   */\n      tag_332\n      jump\t// in\n    tag_477:\n        /* \"#utility.yul\":11535:11579   */\n      swap5\n      pop\n        /* \"#utility.yul\":10877:11589   */\n      jump(tag_471)\n    tag_473:\n        /* \"#utility.yul\":10747:11595   */\n      swap5\n      pop\n      swap5\n      swap3\n      pop\n      pop\n      pop\n      jump\t// out\n        /* \"#utility.yul\":11601:12674   */\n    tag_334:\n        /* \"#utility.yul\":11655:11660   */\n      0x00\n        /* \"#utility.yul\":11846:11854   */\n      dup3\n        /* \"#utility.yul\":11836:11876   */\n      tag_479\n      jumpi\n        /* \"#utility.yul\":11867:11868   */\n      0x01\n        /* \"#utility.yul\":11858:11868   */\n      swap1\n      pop\n        /* \"#utility.yul\":11869:11874   */\n      jump(tag_478)\n        /* \"#utility.yul\":11836:11876   */\n    tag_479:\n        /* \"#utility.yul\":11895:11899   */\n      dup2\n        /* \"#utility.yul\":11885:11921   */\n      tag_480\n      jumpi\n        /* \"#utility.yul\":11912:11913   */\n      0x00\n        /* \"#utility.yul\":11903:11913   */\n      swap1\n      pop\n        /* \"#utility.yul\":11914:11919   */\n      jump(tag_478)\n        /* \"#utility.yul\":11885:11921   */\n    tag_480:\n        /* \"#utility.yul\":11981:11985   */\n      dup2\n        /* \"#utility.yul\":12029:12030   */\n      0x01\n        /* \"#utility.yul\":12024:12051   */\n      dup2\n      eq\n      tag_482\n      jumpi\n        /* \"#utility.yul\":12065:12066   */\n      0x02\n        /* \"#utility.yul\":12060:12251   */\n      dup2\n      eq\n      tag_483\n      jumpi\n        /* \"#utility.yul\":11974:12251   */\n      jump(tag_481)\n        /* \"#utility.yul\":12024:12051   */\n    tag_482:\n        /* \"#utility.yul\":12042:12043   */\n      0x01\n        /* \"#utility.yul\":12033:12043   */\n      swap2\n      pop\n        /* \"#utility.yul\":12044:12049   */\n      pop\n      jump(tag_478)\n        /* \"#utility.yul\":12060:12251   */\n    tag_483:\n        /* \"#utility.yul\":12105:12108   */\n      0xff\n        /* \"#utility.yul\":12095:12103   */\n      dup5\n        /* \"#utility.yul\":12092:12109   */\n      gt\n        /* \"#utility.yul\":12089:12132   */\n      iszero\n      tag_484\n      jumpi\n        /* \"#utility.yul\":12112:12130   */\n      tag_485\n      tag_331\n      jump\t// in\n    tag_485:\n        /* \"#utility.yul\":12089:12132   */\n    tag_484:\n        /* \"#utility.yul\":12161:12169   */\n      dup4\n        /* \"#utility.yul\":12158:12159   */\n      0x02\n        /* \"#utility.yul\":12154:12170   */\n      exp\n        /* \"#utility.yul\":12145:12170   */\n      swap2\n      pop\n        /* \"#utility.yul\":12196:12199   */\n      dup5\n        /* \"#utility.yul\":12189:12194   */\n      dup3\n        /* \"#utility.yul\":12186:12200   */\n      gt\n        /* \"#utility.yul\":12183:12223   */\n      iszero\n      tag_486\n      jumpi\n        /* \"#utility.yul\":12203:12221   */\n      tag_487\n      tag_331\n      jump\t// in\n    tag_487:\n        /* \"#utility.yul\":12183:12223   */\n    tag_486:\n        /* \"#utility.yul\":12236:12241   */\n      pop\n      jump(tag_478)\n        /* \"#utility.yul\":11974:12251   */\n    tag_481:\n      pop\n        /* \"#utility.yul\":12360:12362   */\n      0x20\n        /* \"#utility.yul\":12350:12358   */\n      dup4\n        /* \"#utility.yul\":12347:12363   */\n      lt\n        /* \"#utility.yul\":12341:12344   */\n      0x0133\n        /* \"#utility.yul\":12335:12339   */\n      dup4\n        /* \"#utility.yul\":12332:12345   */\n      lt\n        /* \"#utility.yul\":12328:12364   */\n      and\n        /* \"#utility.yul\":12310:12312   */\n      0x4e\n        /* \"#utility.yul\":12300:12308   */\n      dup5\n        /* \"#utility.yul\":12297:12313   */\n      lt\n        /* \"#utility.yul\":12292:12294   */\n      0x0b\n        /* \"#utility.yul\":12286:12290   */\n      dup5\n        /* \"#utility.yul\":12283:12295   */\n      lt\n        /* \"#utility.yul\":12279:12314   */\n      and\n        /* \"#utility.yul\":12263:12374   */\n      or\n        /* \"#utility.yul\":12260:12506   */\n      iszero\n      tag_488\n      jumpi\n        /* \"#utility.yul\":12416:12424   */\n      dup3\n        /* \"#utility.yul\":12410:12414   */\n      dup3\n        /* \"#utility.yul\":12406:12425   */\n      exp\n        /* \"#utility.yul\":12397:12425   */\n      swap1\n      pop\n        /* \"#utility.yul\":12451:12454   */\n      dup4\n        /* \"#utility.yul\":12444:12449   */\n      dup2\n        /* \"#utility.yul\":12441:12455   */\n      gt\n        /* \"#utility.yul\":12438:12478   */\n      iszero\n      tag_489\n      jumpi\n        /* \"#utility.yul\":12458:12476   */\n      tag_490\n      tag_331\n      jump\t// in\n    tag_490:\n        /* \"#utility.yul\":12438:12478   */\n    tag_489:\n        /* \"#utility.yul\":12491:12496   */\n      jump(tag_478)\n        /* \"#utility.yul\":12260:12506   */\n    tag_488:\n        /* \"#utility.yul\":12531:12573   */\n      tag_491\n        /* \"#utility.yul\":12569:12572   */\n      dup5\n        /* \"#utility.yul\":12559:12567   */\n      dup5\n        /* \"#utility.yul\":12553:12557   */\n      dup5\n        /* \"#utility.yul\":12550:12551   */\n      0x01\n        /* \"#utility.yul\":12531:12573   */\n      tag_333\n      jump\t// in\n    tag_491:\n        /* \"#utility.yul\":12516:12573   */\n      swap3\n      pop\n      swap1\n      pop\n        /* \"#utility.yul\":12605:12609   */\n      dup2\n        /* \"#utility.yul\":12600:12603   */\n      dup5\n        /* \"#utility.yul\":12596:12610   */\n      div\n        /* \"#utility.yul\":12589:12594   */\n      dup2\n        /* \"#utility.yul\":12586:12611   */\n      gt\n        /* \"#utility.yul\":12583:12634   */\n      iszero\n      tag_492\n      jumpi\n        /* \"#utility.yul\":12614:12632   */\n      tag_493\n      tag_331\n      jump\t// in\n    tag_493:\n        /* \"#utility.yul\":12583:12634   */\n    tag_492:\n        /* \"#utility.yul\":12663:12667   */\n      dup2\n        /* \"#utility.yul\":12656:12661   */\n      dup2\n        /* \"#utility.yul\":12652:12668   */\n      mul\n        /* \"#utility.yul\":12643:12668   */\n      swap1\n      pop\n        /* \"#utility.yul\":11601:12674   */\n    tag_478:\n      swap4\n      swap3\n      pop\n      pop\n      pop\n      jump\t// out\n        /* \"#utility.yul\":12680:12965   */\n    tag_118:\n        /* \"#utility.yul\":12740:12745   */\n      0x00\n        /* \"#utility.yul\":12764:12787   */\n      tag_495\n        /* \"#utility.yul\":12782:12786   */\n      dup3\n        /* \"#utility.yul\":12764:12787   */\n      tag_312\n      jump\t// in\n    tag_495:\n        /* \"#utility.yul\":12756:12787   */\n      swap2\n      pop\n        /* \"#utility.yul\":12808:12835   */\n      tag_496\n        /* \"#utility.yul\":12826:12834   */\n      dup4\n        /* \"#utility.yul\":12808:12835   */\n      tag_312\n      jump\t// in\n    tag_496:\n        /* \"#utility.yul\":12796:12835   */\n      swap3\n      pop\n        /* \"#utility.yul\":12854:12958   */\n      tag_497\n        /* \"#utility.yul\":12891:12957   */\n      0xffffffffffffffffffffffffffffffffffffffffffffffffffffffffffffffff\n        /* \"#utility.yul\":12881:12889   */\n      dup5\n        /* \"#utility.yul\":12875:12879   */\n      dup5\n        /* \"#utility.yul\":12854:12958   */\n      tag_334\n      jump\t// in\n    tag_497:\n        /* \"#utility.yul\":12845:12958   */\n      swap1\n      pop\n        /* \"#utility.yul\":12680:12965   */\n      swap3\n      swap2\n      pop\n      pop\n      jump\t// out\n        /* \"#utility.yul\":12971:13381   */\n    tag_120:\n        /* \"#utility.yul\":13011:13018   */\n      0x00\n        /* \"#utility.yul\":13034:13054   */\n      tag_499\n        /* \"#utility.yul\":13052:13053   */\n      dup3\n        /* \"#utility.yul\":13034:13054   */\n      tag_312\n      jump\t// in\n    tag_499:\n        /* \"#utility.yul\":13029:13054   */\n      swap2\n      pop\n        /* \"#utility.yul\":13068:13088   */\n      tag_500\n        /* \"#utility.yul\":13086:13087   */\n      dup4\n        /* \"#utility.yul\":13068:13088   */\n      tag_312\n      jump\t// in\n    tag_500:\n        /* \"#utility.yul\":13063:13088   */\n      swap3\n      pop\n        /* \"#utility.yul\":13123:13124   */\n      dup3\n        /* \"#utility.yul\":13120:13121   */\n      dup3\n        /* \"#utility.yul\":13116:13125   */\n      mul\n        /* \"#utility.yul\":13145:13175   */\n      tag_501\n        /* \"#utility.yul\":13163:13174   */\n      dup2\n        /* \"#utility.yul\":13145:13175   */\n      tag_312\n      jump\t// in\n    tag_501:\n        /* \"#utility.yul\":13134:13175   */\n      swap2\n      pop\n        /* \"#utility.yul\":13324:13325   */\n      dup3\n        /* \"#utility.yul\":13315:13322   */\n      dup3\n        /* \"#utility.yul\":13311:13326   */\n      div\n        /* \"#utility.yul\":13308:13309   */\n      dup5\n        /* \"#utility.yul\":13305:13327   */\n      eq\n        /* \"#utility.yul\":13285:13286   */\n      dup4\n        /* \"#utility.yul\":13278:13287   */\n      iszero\n        /* \"#utility.yul\":13258:13341   */\n      or\n        /* \"#utility.yul\":13235:13374   */\n      tag_502\n      jumpi\n        /* \"#utility.yul\":13354:13372   */\n      tag_503\n      tag_331\n      jump\t// in\n    tag_503:\n        /* \"#utility.yul\":13235:13374   */\n    tag_502:\n        /* \"#utility.yul\":13019:13381   */\n      pop\n        /* \"#utility.yul\":12971:13381   */\n      swap3\n      swap2\n      pop\n      pop\n      jump\t// out\n        /* \"#utility.yul\":13387:13613   */\n    tag_335:\n        /* \"#utility.yul\":13527:13561   */\n      0x43616e6e6f7420617070726f766520616d6f756e7420746f2061207a65726f20\n        /* \"#utility.yul\":13523:13524   */\n      0x00\n        /* \"#utility.yul\":13515:13521   */\n      dup3\n        /* \"#utility.yul\":13511:13525   */\n      add\n        /* \"#utility.yul\":13504:13562   */\n      mstore\n        /* \"#utility.yul\":13596:13605   */\n      0x6164647265737300000000000000000000000000000000000000000000000000\n        /* \"#utility.yul\":13591:13593   */\n      0x20\n        /* \"#utility.yul\":13583:13589   */\n      dup3\n        /* \"#utility.yul\":13579:13594   */\n      add\n        /* \"#utility.yul\":13572:13606   */\n      mstore\n        /* \"#utility.yul\":13387:13613   */\n      pop\n      jump\t// out\n        /* \"#utility.yul\":13619:13985   */\n    tag_336:\n        /* \"#utility.yul\":13761:13764   */\n      0x00\n        /* \"#utility.yul\":13782:13849   */\n      tag_506\n        /* \"#utility.yul\":13846:13848   */\n      0x27\n        /* \"#utility.yul\":13841:13844   */\n      dup4\n        /* \"#utility.yul\":13782:13849   */\n      tag_308\n      jump\t// in\n    tag_506:\n        /* \"#utility.yul\":13775:13849   */\n      swap2\n      pop\n        /* \"#utility.yul\":13858:13951   */\n      tag_507\n        /* \"#utility.yul\":13947:13950   */\n      dup3\n        /* \"#utility.yul\":13858:13951   */\n      tag_335\n      jump\t// in\n    tag_507:\n        /* \"#utility.yul\":13976:13978   */\n      0x40\n        /* \"#utility.yul\":13971:13974   */\n      dup3\n        /* \"#utility.yul\":13967:13979   */\n      add\n        /* \"#utility.yul\":13960:13979   */\n      swap1\n      pop\n        /* \"#utility.yul\":13619:13985   */\n      swap2\n      swap1\n      pop\n      jump\t// out\n        /* \"#utility.yul\":13991:14410   */\n    tag_123:\n        /* \"#utility.yul\":14157:14161   */\n      0x00\n        /* \"#utility.yul\":14195:14197   */\n      0x20\n        /* \"#utility.yul\":14184:14193   */\n      dup3\n        /* \"#utility.yul\":14180:14198   */\n      add\n        /* \"#utility.yul\":14172:14198   */\n      swap1\n      pop\n        /* \"#utility.yul\":14244:14253   */\n      dup2\n        /* \"#utility.yul\":14238:14242   */\n      dup2\n        /* \"#utility.yul\":14234:14254   */\n      sub\n        /* \"#utility.yul\":14230:14231   */\n      0x00\n        /* \"#utility.yul\":14219:14228   */\n      dup4\n        /* \"#utility.yul\":14215:14232   */\n      add\n        /* \"#utility.yul\":14208:14255   */\n      mstore\n        /* \"#utility.yul\":14272:14403   */\n      tag_509\n        /* \"#utility.yul\":14398:14402   */\n      dup2\n        /* \"#utility.yul\":14272:14403   */\n      tag_336\n      jump\t// in\n    tag_509:\n        /* \"#utility.yul\":14264:14403   */\n      swap1\n      pop\n        /* \"#utility.yul\":13991:14410   */\n      swap2\n      swap1\n      pop\n      jump\t// out\n        /* \"#utility.yul\":14416:14607   */\n    tag_134:\n        /* \"#utility.yul\":14456:14459   */\n      0x00\n        /* \"#utility.yul\":14475:14495   */\n      tag_511\n        /* \"#utility.yul\":14493:14494   */\n      dup3\n        /* \"#utility.yul\":14475:14495   */\n      tag_312\n      jump\t// in\n    tag_511:\n        /* \"#utility.yul\":14470:14495   */\n      swap2\n      pop\n        /* \"#utility.yul\":14509:14529   */\n      tag_512\n        /* \"#utility.yul\":14527:14528   */\n      dup4\n        /* \"#utility.yul\":14509:14529   */\n      tag_312\n      jump\t// in\n    tag_512:\n        /* \"#utility.yul\":14504:14529   */\n      swap3\n      pop\n        /* \"#utility.yul\":14552:14553   */\n      dup3\n        /* \"#utility.yul\":14549:14550   */\n      dup3\n        /* \"#utility.yul\":14545:14554   */\n      add\n        /* \"#utility.yul\":14538:14554   */\n      swap1\n      pop\n        /* \"#utility.yul\":14573:14576   */\n      dup1\n        /* \"#utility.yul\":14570:14571   */\n      dup3\n        /* \"#utility.yul\":14567:14577   */\n      gt\n        /* \"#utility.yul\":14564:14600   */\n      iszero\n      tag_513\n      jumpi\n        /* \"#utility.yul\":14580:14598   */\n      tag_514\n      tag_331\n      jump\t// in\n    tag_514:\n        /* \"#utility.yul\":14564:14600   */\n    tag_513:\n        /* \"#utility.yul\":14416:14607   */\n      swap3\n      swap2\n      pop\n      pop\n      jump\t// out\n        /* \"#utility.yul\":14613:14782   */\n    tag_337:\n        /* \"#utility.yul\":14753:14774   */\n      0x4d617820737570706c7920657863656564656400000000000000000000000000\n        /* \"#utility.yul\":14749:14750   */\n      0x00\n        /* \"#utility.yul\":14741:14747   */\n      dup3\n        /* \"#utility.yul\":14737:14751   */\n      add\n        /* \"#utility.yul\":14730:14775   */\n      mstore\n        /* \"#utility.yul\":14613:14782   */\n      pop\n      jump\t// out\n        /* \"#utility.yul\":14788:15154   */\n    tag_338:\n        /* \"#utility.yul\":14930:14933   */\n      0x00\n        /* \"#utility.yul\":14951:15018   */\n      tag_517\n        /* \"#utility.yul\":15015:15017   */\n      0x13\n        /* \"#utility.yul\":15010:15013   */\n      dup4\n        /* \"#utility.yul\":14951:15018   */\n      tag_308\n      jump\t// in\n    tag_517:\n        /* \"#utility.yul\":14944:15018   */\n      swap2\n      pop\n        /* \"#utility.yul\":15027:15120   */\n      tag_518\n        /* \"#utility.yul\":15116:15119   */\n      dup3\n        /* \"#utility.yul\":15027:15120   */\n      tag_337\n      jump\t// in\n    tag_518:\n        /* \"#utility.yul\":15145:15147   */\n      0x20\n        /* \"#utility.yul\":15140:15143   */\n      dup3\n        /* \"#utility.yul\":15136:15148   */\n      add\n        /* \"#utility.yul\":15129:15148   */\n      swap1\n      pop\n        /* \"#utility.yul\":14788:15154   */\n      swap2\n      swap1\n      pop\n      jump\t// out\n        /* \"#utility.yul\":15160:15579   */\n    tag_137:\n        /* \"#utility.yul\":15326:15330   */\n      0x00\n        /* \"#utility.yul\":15364:15366   */\n      0x20\n        /* \"#utility.yul\":15353:15362   */\n      dup3\n        /* \"#utility.yul\":15349:15367   */\n      add\n        /* \"#utility.yul\":15341:15367   */\n      swap1\n      pop\n        /* \"#utility.yul\":15413:15422   */\n      dup2\n        /* \"#utility.yul\":15407:15411   */\n      dup2\n        /* \"#utility.yul\":15403:15423   */\n      sub\n        /* \"#utility.yul\":15399:15400   */\n      0x00\n        /* \"#utility.yul\":15388:15397   */\n      dup4\n        /* \"#utility.yul\":15384:15401   */\n      add\n        /* \"#utility.yul\":15377:15424   */\n      mstore\n        /* \"#utility.yul\":15441:15572   */\n      tag_520\n        /* \"#utility.yul\":15567:15571   */\n      dup2\n        /* \"#utility.yul\":15441:15572   */\n      tag_338\n      jump\t// in\n    tag_520:\n        /* \"#utility.yul\":15433:15572   */\n      swap1\n      pop\n        /* \"#utility.yul\":15160:15579   */\n      swap2\n      swap1\n      pop\n      jump\t// out\n        /* \"#utility.yul\":15585:15756   */\n    tag_339:\n        /* \"#utility.yul\":15725:15748   */\n      0x4d6178696d756d206c696d697420726561636865640000000000000000000000\n        /* \"#utility.yul\":15721:15722   */\n      0x00\n        /* \"#utility.yul\":15713:15719   */\n      dup3\n        /* \"#utility.yul\":15709:15723   */\n      add\n        /* \"#utility.yul\":15702:15749   */\n      mstore\n        /* \"#utility.yul\":15585:15756   */\n      pop\n      jump\t// out\n        /* \"#utility.yul\":15762:16128   */\n    tag_340:\n        /* \"#utility.yul\":15904:15907   */\n      0x00\n        /* \"#utility.yul\":15925:15992   */\n      tag_523\n        /* \"#utility.yul\":15989:15991   */\n      0x15\n        /* \"#utility.yul\":15984:15987   */\n      dup4\n        /* \"#utility.yul\":15925:15992   */\n      tag_308\n      jump\t// in\n    tag_523:\n        /* \"#utility.yul\":15918:15992   */\n      swap2\n      pop\n        /* \"#utility.yul\":16001:16094   */\n      tag_524\n        /* \"#utility.yul\":16090:16093   */\n      dup3\n        /* \"#utility.yul\":16001:16094   */\n      tag_339\n      jump\t// in\n    tag_524:\n        /* \"#utility.yul\":16119:16121   */\n      0x20\n        /* \"#utility.yul\":16114:16117   */\n      dup3\n        /* \"#utility.yul\":16110:16122   */\n      add\n        /* \"#utility.yul\":16103:16122   */\n      swap1\n      pop\n        /* \"#utility.yul\":15762:16128   */\n      swap2\n      swap1\n      pop\n      jump\t// out\n        /* \"#utility.yul\":16134:16553   */\n    tag_145:\n        /* \"#utility.yul\":16300:16304   */\n      0x00\n        /* \"#utility.yul\":16338:16340   */\n      0x20\n        /* \"#utility.yul\":16327:16336   */\n      dup3\n        /* \"#utility.yul\":16323:16341   */\n      add\n        /* \"#utility.yul\":16315:16341   */\n      swap1\n      pop\n        /* \"#utility.yul\":16387:16396   */\n      dup2\n        /* \"#utility.yul\":16381:16385   */\n      dup2\n        /* \"#utility.yul\":16377:16397   */\n      sub\n        /* \"#utility.yul\":16373:16374   */\n      0x00\n        /* \"#utility.yul\":16362:16371   */\n      dup4\n        /* \"#utility.yul\":16358:16375   */\n      add\n        /* \"#utility.yul\":16351:16398   */\n      mstore\n        /* \"#utility.yul\":16415:16546   */\n      tag_526\n        /* \"#utility.yul\":16541:16545   */\n      dup2\n        /* \"#utility.yul\":16415:16546   */\n      tag_340\n      jump\t// in\n    tag_526:\n        /* \"#utility.yul\":16407:16546   */\n      swap1\n      pop\n        /* \"#utility.yul\":16134:16553   */\n      swap2\n      swap1\n      pop\n      jump\t// out\n        /* \"#utility.yul\":16559:16740   */\n    tag_341:\n        /* \"#utility.yul\":16699:16732   */\n      0x43616e6e6f74207472616e7366657220746f207a65726f206164647265737300\n        /* \"#utility.yul\":16695:16696   */\n      0x00\n        /* \"#utility.yul\":16687:16693   */\n      dup3\n        /* \"#utility.yul\":16683:16697   */\n      add\n        /* \"#utility.yul\":16676:16733   */\n      mstore\n        /* \"#utility.yul\":16559:16740   */\n      pop\n      jump\t// out\n        /* \"#utility.yul\":16746:17112   */\n    tag_342:\n        /* \"#utility.yul\":16888:16891   */\n      0x00\n        /* \"#utility.yul\":16909:16976   */\n      tag_529\n        /* \"#utility.yul\":16973:16975   */\n      0x1f\n        /* \"#utility.yul\":16968:16971   */\n      dup4\n        /* \"#utility.yul\":16909:16976   */\n      tag_308\n      jump\t// in\n    tag_529:\n        /* \"#utility.yul\":16902:16976   */\n      swap2\n      pop\n        /* \"#utility.yul\":16985:17078   */\n      tag_530\n        /* \"#utility.yul\":17074:17077   */\n      dup3\n        /* \"#utility.yul\":16985:17078   */\n      tag_341\n      jump\t// in\n    tag_530:\n        /* \"#utility.yul\":17103:17105   */\n      0x20\n        /* \"#utility.yul\":17098:17101   */\n      dup3\n        /* \"#utility.yul\":17094:17106   */\n      add\n        /* \"#utility.yul\":17087:17106   */\n      swap1\n      pop\n        /* \"#utility.yul\":16746:17112   */\n      swap2\n      swap1\n      pop\n      jump\t// out\n        /* \"#utility.yul\":17118:17537   */\n    tag_166:\n        /* \"#utility.yul\":17284:17288   */\n      0x00\n        /* \"#utility.yul\":17322:17324   */\n      0x20\n        /* \"#utility.yul\":17311:17320   */\n      dup3\n        /* \"#utility.yul\":17307:17325   */\n      add\n        /* \"#utility.yul\":17299:17325   */\n      swap1\n      pop\n        /* \"#utility.yul\":17371:17380   */\n      dup2\n        /* \"#utility.yul\":17365:17369   */\n      dup2\n        /* \"#utility.yul\":17361:17381   */\n      sub\n        /* \"#utility.yul\":17357:17358   */\n      0x00\n        /* \"#utility.yul\":17346:17355   */\n      dup4\n        /* \"#utility.yul\":17342:17359   */\n      add\n        /* \"#utility.yul\":17335:17382   */\n      mstore\n        /* \"#utility.yul\":17399:17530   */\n      tag_532\n        /* \"#utility.yul\":17525:17529   */\n      dup2\n        /* \"#utility.yul\":17399:17530   */\n      tag_342\n      jump\t// in\n    tag_532:\n        /* \"#utility.yul\":17391:17530   */\n      swap1\n      pop\n        /* \"#utility.yul\":17118:17537   */\n      swap2\n      swap1\n      pop\n      jump\t// out\n        /* \"#utility.yul\":17543:17713   */\n    tag_343:\n        /* \"#utility.yul\":17683:17705   */\n      0x496e73756666696369656e742062616c616e6365000000000000000000000000\n        /* \"#utility.yul\":17679:17680   */\n      0x00\n        /* \"#utility.yul\":17671:17677   */\n      dup3\n        /* \"#utility.yul\":17667:17681   */\n      add\n        /* \"#utility.yul\":17660:17706   */\n      mstore\n        /* \"#utility.yul\":17543:17713   */\n      pop\n      jump\t// out\n        /* \"#utility.yul\":17719:18085   */\n    tag_344:\n        /* \"#utility.yul\":17861:17864   */\n      0x00\n        /* \"#utility.yul\":17882:17949   */\n      tag_535\n        /* \"#utility.yul\":17946:17948   */\n      0x14\n        /* \"#utility.yul\":17941:17944   */\n      dup4\n        /* \"#utility.yul\":17882:17949   */\n      tag_308\n      jump\t// in\n    tag_535:\n        /* \"#utility.yul\":17875:17949   */\n      swap2\n      pop\n        /* \"#utility.yul\":17958:18051   */\n      tag_536\n        /* \"#utility.yul\":18047:18050   */\n      dup3\n        /* \"#utility.yul\":17958:18051   */\n      tag_343\n      jump\t// in\n    tag_536:\n        /* \"#utility.yul\":18076:18078   */\n      0x20\n        /* \"#utility.yul\":18071:18074   */\n      dup3\n        /* \"#utility.yul\":18067:18079   */\n      add\n        /* \"#utility.yul\":18060:18079   */\n      swap1\n      pop\n        /* \"#utility.yul\":17719:18085   */\n      swap2\n      swap1\n      pop\n      jump\t// out\n        /* \"#utility.yul\":18091:18510   */\n    tag_169:\n        /* \"#utility.yul\":18257:18261   */\n      0x00\n        /* \"#utility.yul\":18295:18297   */\n      0x20\n        /* \"#utility.yul\":18284:18293   */\n      dup3\n        /* \"#utility.yul\":18280:18298   */\n      add\n        /* \"#utility.yul\":18272:18298   */\n      swap1\n      pop\n        /* \"#utility.yul\":18344:18353   */\n      dup2\n        /* \"#utility.yul\":18338:18342   */\n      dup2\n        /* \"#utility.yul\":18334:18354   */\n      sub\n        /* \"#utility.yul\":18330:18331   */\n      0x00\n        /* \"#utility.yul\":18319:18328   */\n      dup4\n        /* \"#utility.yul\":18315:18332   */\n      add\n        /* \"#utility.yul\":18308:18355   */\n      mstore\n        /* \"#utility.yul\":18372:18503   */\n      tag_538\n        /* \"#utility.yul\":18498:18502   */\n      dup2\n        /* \"#utility.yul\":18372:18503   */\n      tag_344\n      jump\t// in\n    tag_538:\n        /* \"#utility.yul\":18364:18503   */\n      swap1\n      pop\n        /* \"#utility.yul\":18091:18510   */\n      swap2\n      swap1\n      pop\n      jump\t// out\n        /* \"#utility.yul\":18516:18684   */\n    tag_345:\n        /* \"#utility.yul\":18656:18676   */\n      0x416c6c6f77616e63652065786365656465640000000000000000000000000000\n        /* \"#utility.yul\":18652:18653   */\n      0x00\n        /* \"#utility.yul\":18644:18650   */\n      dup3\n        /* \"#utility.yul\":18640:18654   */\n      add\n        /* \"#utility.yul\":18633:18677   */\n      mstore\n        /* \"#utility.yul\":18516:18684   */\n      pop\n      jump\t// out\n        /* \"#utility.yul\":18690:19056   */\n    tag_346:\n        /* \"#utility.yul\":18832:18835   */\n      0x00\n        /* \"#utility.yul\":18853:18920   */\n      tag_541\n        /* \"#utility.yul\":18917:18919   */\n      0x12\n        /* \"#utility.yul\":18912:18915   */\n      dup4\n        /* \"#utility.yul\":18853:18920   */\n      tag_308\n      jump\t// in\n    tag_541:\n        /* \"#utility.yul\":18846:18920   */\n      swap2\n      pop\n        /* \"#utility.yul\":18929:19022   */\n      tag_542\n        /* \"#utility.yul\":19018:19021   */\n      dup3\n        /* \"#utility.yul\":18929:19022   */\n      tag_345\n      jump\t// in\n    tag_542:\n        /* \"#utility.yul\":19047:19049   */\n      0x20\n        /* \"#utility.yul\":19042:19045   */\n      dup3\n        /* \"#utility.yul\":19038:19050   */\n      add\n        /* \"#utility.yul\":19031:19050   */\n      swap1\n      pop\n        /* \"#utility.yul\":18690:19056   */\n      swap2\n      swap1\n      pop\n      jump\t// out\n        /* \"#utility.yul\":19062:19481   */\n    tag_172:\n        /* \"#utility.yul\":19228:19232   */\n      0x00\n        /* \"#utility.yul\":19266:19268   */\n      0x20\n        /* \"#utility.yul\":19255:19264   */\n      dup3\n        /* \"#utility.yul\":19251:19269   */\n      add\n        /* \"#utility.yul\":19243:19269   */\n      swap1\n      pop\n        /* \"#utility.yul\":19315:19324   */\n      dup2\n        /* \"#utility.yul\":19309:19313   */\n      dup2\n        /* \"#utility.yul\":19305:19325   */\n      sub\n        /* \"#utility.yul\":19301:19302   */\n      0x00\n        /* \"#utility.yul\":19290:19299   */\n      dup4\n        /* \"#utility.yul\":19286:19303   */\n      add\n        /* \"#utility.yul\":19279:19326   */\n      mstore\n        /* \"#utility.yul\":19343:19474   */\n      tag_544\n        /* \"#utility.yul\":19469:19473   */\n      dup2\n        /* \"#utility.yul\":19343:19474   */\n      tag_346\n      jump\t// in\n    tag_544:\n        /* \"#utility.yul\":19335:19474   */\n      swap1\n      pop\n        /* \"#utility.yul\":19062:19481   */\n      swap2\n      swap1\n      pop\n      jump\t// out\n        /* \"#utility.yul\":19487:19661   */\n    tag_347:\n        /* \"#utility.yul\":19627:19653   */\n      0x4e65656420352077686974656c69737465642075736572730000000000000000\n        /* \"#utility.yul\":19623:19624   */\n      0x00\n        /* \"#utility.yul\":19615:19621   */\n      dup3\n        /* \"#utility.yul\":19611:19625   */\n      add\n        /* \"#utility.yul\":19604:19654   */\n      mstore\n        /* \"#utility.yul\":19487:19661   */\n      pop\n      jump\t// out\n        /* \"#utility.yul\":19667:20033   */\n    tag_348:\n        /* \"#utility.yul\":19809:19812   */\n      0x00\n        /* \"#utility.yul\":19830:19897   */\n      tag_547\n        /* \"#utility.yul\":19894:19896   */\n      0x18\n        /* \"#utility.yul\":19889:19892   */\n      dup4\n        /* \"#utility.yul\":19830:19897   */\n      tag_308\n      jump\t// in\n    tag_547:\n        /* \"#utility.yul\":19823:19897   */\n      swap2\n      pop\n        /* \"#utility.yul\":19906:19999   */\n      tag_548\n        /* \"#utility.yul\":19995:19998   */\n      dup3\n        /* \"#utility.yul\":19906:19999   */\n      tag_347\n      jump\t// in\n    tag_548:\n        /* \"#utility.yul\":20024:20026   */\n      0x20\n        /* \"#utility.yul\":20019:20022   */\n      dup3\n        /* \"#utility.yul\":20015:20027   */\n      add\n        /* \"#utility.yul\":20008:20027   */\n      swap1\n      pop\n        /* \"#utility.yul\":19667:20033   */\n      swap2\n      swap1\n      pop\n      jump\t// out\n        /* \"#utility.yul\":20039:20458   */\n    tag_175:\n        /* \"#utility.yul\":20205:20209   */\n      0x00\n        /* \"#utility.yul\":20243:20245   */\n      0x20\n        /* \"#utility.yul\":20232:20241   */\n      dup3\n        /* \"#utility.yul\":20228:20246   */\n      add\n        /* \"#utility.yul\":20220:20246   */\n      swap1\n      pop\n        /* \"#utility.yul\":20292:20301   */\n      dup2\n        /* \"#utility.yul\":20286:20290   */\n      dup2\n        /* \"#utility.yul\":20282:20302   */\n      sub\n        /* \"#utility.yul\":20278:20279   */\n      0x00\n        /* \"#utility.yul\":20267:20276   */\n      dup4\n        /* \"#utility.yul\":20263:20280   */\n      add\n        /* \"#utility.yul\":20256:20303   */\n      mstore\n        /* \"#utility.yul\":20320:20451   */\n      tag_550\n        /* \"#utility.yul\":20446:20450   */\n      dup2\n        /* \"#utility.yul\":20320:20451   */\n      tag_348\n      jump\t// in\n    tag_550:\n        /* \"#utility.yul\":20312:20451   */\n      swap1\n      pop\n        /* \"#utility.yul\":20039:20458   */\n      swap2\n      swap1\n      pop\n      jump\t// out\n        /* \"#utility.yul\":20464:20644   */\n    tag_349:\n        /* \"#utility.yul\":20512:20589   */\n      0x4e487b7100000000000000000000000000000000000000000000000000000000\n        /* \"#utility.yul\":20509:20510   */\n      0x00\n        /* \"#utility.yul\":20502:20590   */\n      mstore\n        /* \"#utility.yul\":20609:20613   */\n      0x12\n        /* \"#utility.yul\":20606:20607   */\n      0x04\n        /* \"#utility.yul\":20599:20614   */\n      mstore\n        /* \"#utility.yul\":20633:20637   */\n      0x24\n        /* \"#utility.yul\":20630:20631   */\n      0x00\n        /* \"#utility.yul\":20623:20638   */\n      revert\n        /* \"#utility.yul\":20650:20835   */\n    tag_180:\n        /* \"#utility.yul\":20690:20691   */\n      0x00\n        /* \"#utility.yul\":20707:20727   */\n      tag_553\n        /* \"#utility.yul\":20725:20726   */\n      dup3\n        /* \"#utility.yul\":20707:20727   */\n      tag_312\n      jump\t// in\n    tag_553:\n        /* \"#utility.yul\":20702:20727   */\n      swap2\n      pop\n        /* \"#utility.yul\":20741:20761   */\n      tag_554\n        /* \"#utility.yul\":20759:20760   */\n      dup4\n        /* \"#utility.yul\":20741:20761   */\n      tag_312\n      jump\t// in\n    tag_554:\n        /* \"#utility.yul\":20736:20761   */\n      swap3\n      pop\n        /* \"#utility.yul\":20780:20781   */\n      dup3\n        /* \"#utility.yul\":20770:20805   */\n      tag_555\n      jumpi\n        /* \"#utility.yul\":20785:20803   */\n      tag_556\n      tag_349\n      jump\t// in\n    tag_556:\n        /* \"#utility.yul\":20770:20805   */\n    tag_555:\n        /* \"#utility.yul\":20827:20828   */\n      dup3\n        /* \"#utility.yul\":20824:20825   */\n      dup3\n        /* \"#utility.yul\":20820:20829   */\n      div\n        /* \"#utility.yul\":20815:20829   */\n      swap1\n      pop\n        /* \"#utility.yul\":20650:20835   */\n      swap3\n      swap2\n      pop\n      pop\n      jump\t// out\n        /* \"#utility.yul\":20841:21075   */\n    tag_350:\n        /* \"#utility.yul\":20981:21015   */\n      0x43616e6e6f7420696e63726561736520616c6c6f77616e636520746f20616464\n        /* \"#utility.yul\":20977:20978   */\n      0x00\n        /* \"#utility.yul\":20969:20975   */\n      dup3\n        /* \"#utility.yul\":20965:20979   */\n      add\n        /* \"#utility.yul\":20958:21016   */\n      mstore\n        /* \"#utility.yul\":21050:21067   */\n      0x726573732076616c7565205a65726f0000000000000000000000000000000000\n        /* \"#utility.yul\":21045:21047   */\n      0x20\n        /* \"#utility.yul\":21037:21043   */\n      dup3\n        /* \"#utility.yul\":21033:21048   */\n      add\n        /* \"#utility.yul\":21026:21068   */\n      mstore\n        /* \"#utility.yul\":20841:21075   */\n      pop\n      jump\t// out\n        /* \"#utility.yul\":21081:21447   */\n    tag_351:\n        /* \"#utility.yul\":21223:21226   */\n      0x00\n        /* \"#utility.yul\":21244:21311   */\n      tag_559\n        /* \"#utility.yul\":21308:21310   */\n      0x2f\n        /* \"#utility.yul\":21303:21306   */\n      dup4\n        /* \"#utility.yul\":21244:21311   */\n      tag_308\n      jump\t// in\n    tag_559:\n        /* \"#utility.yul\":21237:21311   */\n      swap2\n      pop\n        /* \"#utility.yul\":21320:21413   */\n      tag_560\n        /* \"#utility.yul\":21409:21412   */\n      dup3\n        /* \"#utility.yul\":21320:21413   */\n      tag_350\n      jump\t// in\n    tag_560:\n        /* \"#utility.yul\":21438:21440   */\n      0x40\n        /* \"#utility.yul\":21433:21436   */\n      dup3\n        /* \"#utility.yul\":21429:21441   */\n      add\n        /* \"#utility.yul\":21422:21441   */\n      swap1\n      pop\n        /* \"#utility.yul\":21081:21447   */\n      swap2\n      swap1\n      pop\n      jump\t// out\n        /* \"#utility.yul\":21453:21872   */\n    tag_209:\n        /* \"#utility.yul\":21619:21623   */\n      0x00\n        /* \"#utility.yul\":21657:21659   */\n      0x20\n        /* \"#utility.yul\":21646:21655   */\n      dup3\n        /* \"#utility.yul\":21642:21660   */\n      add\n        /* \"#utility.yul\":21634:21660   */\n      swap1\n      pop\n        /* \"#utility.yul\":21706:21715   */\n      dup2\n        /* \"#utility.yul\":21700:21704   */\n      dup2\n        /* \"#utility.yul\":21696:21716   */\n      sub\n        /* \"#utility.yul\":21692:21693   */\n      0x00\n        /* \"#utility.yul\":21681:21690   */\n      dup4\n        /* \"#utility.yul\":21677:21694   */\n      add\n        /* \"#utility.yul\":21670:21717   */\n      mstore\n        /* \"#utility.yul\":21734:21865   */\n      tag_562\n        /* \"#utility.yul\":21860:21864   */\n      dup2\n        /* \"#utility.yul\":21734:21865   */\n      tag_351\n      jump\t// in\n    tag_562:\n        /* \"#utility.yul\":21726:21865   */\n      swap1\n      pop\n        /* \"#utility.yul\":21453:21872   */\n      swap2\n      swap1\n      pop\n      jump\t// out\n        /* \"#utility.yul\":21878:22056   */\n    tag_352:\n        /* \"#utility.yul\":22018:22048   */\n      0x496e73756666696369656e742062616c616e636520746f206275726e00000000\n        /* \"#utility.yul\":22014:22015   */\n      0x00\n        /* \"#utility.yul\":22006:22012   */\n      dup3\n        /* \"#utility.yul\":22002:22016   */\n      add\n        /* \"#utility.yul\":21995:22049   */\n      mstore\n        /* \"#utility.yul\":21878:22056   */\n      pop\n      jump\t// out\n        /* \"#utility.yul\":22062:22428   */\n    tag_353:\n        /* \"#utility.yul\":22204:22207   */\n      0x00\n        /* \"#utility.yul\":22225:22292   */\n      tag_565\n        /* \"#utility.yul\":22289:22291   */\n      0x1c\n        /* \"#utility.yul\":22284:22287   */\n      dup4\n        /* \"#utility.yul\":22225:22292   */\n      tag_308\n      jump\t// in\n    tag_565:\n        /* \"#utility.yul\":22218:22292   */\n      swap2\n      pop\n        /* \"#utility.yul\":22301:22394   */\n      tag_566\n        /* \"#utility.yul\":22390:22393   */\n      dup3\n        /* \"#utility.yul\":22301:22394   */\n      tag_352\n      jump\t// in\n    tag_566:\n        /* \"#utility.yul\":22419:22421   */\n      0x20\n        /* \"#utility.yul\":22414:22417   */\n      dup3\n        /* \"#utility.yul\":22410:22422   */\n      add\n        /* \"#utility.yul\":22403:22422   */\n      swap1\n      pop\n        /* \"#utility.yul\":22062:22428   */\n      swap2\n      swap1\n      pop\n      jump\t// out\n        /* \"#utility.yul\":22434:22853   */\n    tag_226:\n        /* \"#utility.yul\":22600:22604   */\n      0x00\n        /* \"#utility.yul\":22638:22640   */\n      0x20\n        /* \"#utility.yul\":22627:22636   */\n      dup3\n        /* \"#utility.yul\":22623:22641   */\n      add\n        /* \"#utility.yul\":22615:22641   */\n      swap1\n      pop\n        /* \"#utility.yul\":22687:22696   */\n      dup2\n        /* \"#utility.yul\":22681:22685   */\n      dup2\n        /* \"#utility.yul\":22677:22697   */\n      sub\n        /* \"#utility.yul\":22673:22674   */\n      0x00\n        /* \"#utility.yul\":22662:22671   */\n      dup4\n        /* \"#utility.yul\":22658:22675   */\n      add\n        /* \"#utility.yul\":22651:22698   */\n      mstore\n        /* \"#utility.yul\":22715:22846   */\n      tag_568\n        /* \"#utility.yul\":22841:22845   */\n      dup2\n        /* \"#utility.yul\":22715:22846   */\n      tag_353\n      jump\t// in\n    tag_568:\n        /* \"#utility.yul\":22707:22846   */\n      swap1\n      pop\n        /* \"#utility.yul\":22434:22853   */\n      swap2\n      swap1\n      pop\n      jump\t// out\n        /* \"#utility.yul\":22859:23024   */\n    tag_354:\n        /* \"#utility.yul\":22999:23016   */\n      0x696e76616c696420616464726573730000000000000000000000000000000000\n        /* \"#utility.yul\":22995:22996   */\n      0x00\n        /* \"#utility.yul\":22987:22993   */\n      dup3\n        /* \"#utility.yul\":22983:22997   */\n      add\n        /* \"#utility.yul\":22976:23017   */\n      mstore\n        /* \"#utility.yul\":22859:23024   */\n      pop\n      jump\t// out\n        /* \"#utility.yul\":23030:23396   */\n    tag_355:\n        /* \"#utility.yul\":23172:23175   */\n      0x00\n        /* \"#utility.yul\":23193:23260   */\n      tag_571\n        /* \"#utility.yul\":23257:23259   */\n      0x0f\n        /* \"#utility.yul\":23252:23255   */\n      dup4\n        /* \"#utility.yul\":23193:23260   */\n      tag_308\n      jump\t// in\n    tag_571:\n        /* \"#utility.yul\":23186:23260   */\n      swap2\n      pop\n        /* \"#utility.yul\":23269:23362   */\n      tag_572\n        /* \"#utility.yul\":23358:23361   */\n      dup3\n        /* \"#utility.yul\":23269:23362   */\n      tag_354\n      jump\t// in\n    tag_572:\n        /* \"#utility.yul\":23387:23389   */\n      0x20\n        /* \"#utility.yul\":23382:23385   */\n      dup3\n        /* \"#utility.yul\":23378:23390   */\n      add\n        /* \"#utility.yul\":23371:23390   */\n      swap1\n      pop\n        /* \"#utility.yul\":23030:23396   */\n      swap2\n      swap1\n      pop\n      jump\t// out\n        /* \"#utility.yul\":23402:23821   */\n    tag_243:\n        /* \"#utility.yul\":23568:23572   */\n      0x00\n        /* \"#utility.yul\":23606:23608   */\n      0x20\n        /* \"#utility.yul\":23595:23604   */\n      dup3\n        /* \"#utility.yul\":23591:23609   */\n      add\n        /* \"#utility.yul\":23583:23609   */\n      swap1\n      pop\n        /* \"#utility.yul\":23655:23664   */\n      dup2\n        /* \"#utility.yul\":23649:23653   */\n      dup2\n        /* \"#utility.yul\":23645:23665   */\n      sub\n        /* \"#utility.yul\":23641:23642   */\n      0x00\n        /* \"#utility.yul\":23630:23639   */\n      dup4\n        /* \"#utility.yul\":23626:23643   */\n      add\n        /* \"#utility.yul\":23619:23666   */\n      mstore\n        /* \"#utility.yul\":23683:23814   */\n      tag_574\n        /* \"#utility.yul\":23809:23813   */\n      dup2\n        /* \"#utility.yul\":23683:23814   */\n      tag_355\n      jump\t// in\n    tag_574:\n        /* \"#utility.yul\":23675:23814   */\n      swap1\n      pop\n        /* \"#utility.yul\":23402:23821   */\n      swap2\n      swap1\n      pop\n      jump\t// out\n        /* \"#utility.yul\":23827:23991   */\n    tag_356:\n        /* \"#utility.yul\":23967:23983   */\n      0x57686974656c6973742066756c6c000000000000000000000000000000000000\n        /* \"#utility.yul\":23963:23964   */\n      0x00\n        /* \"#utility.yul\":23955:23961   */\n      dup3\n        /* \"#utility.yul\":23951:23965   */\n      add\n        /* \"#utility.yul\":23944:23984   */\n      mstore\n        /* \"#utility.yul\":23827:23991   */\n      pop\n      jump\t// out\n        /* \"#utility.yul\":23997:24363   */\n    tag_357:\n        /* \"#utility.yul\":24139:24142   */\n      0x00\n        /* \"#utility.yul\":24160:24227   */\n      tag_577\n        /* \"#utility.yul\":24224:24226   */\n      0x0e\n        /* \"#utility.yul\":24219:24222   */\n      dup4\n        /* \"#utility.yul\":24160:24227   */\n      tag_308\n      jump\t// in\n    tag_577:\n        /* \"#utility.yul\":24153:24227   */\n      swap2\n      pop\n        /* \"#utility.yul\":24236:24329   */\n      tag_578\n        /* \"#utility.yul\":24325:24328   */\n      dup3\n        /* \"#utility.yul\":24236:24329   */\n      tag_356\n      jump\t// in\n    tag_578:\n        /* \"#utility.yul\":24354:24356   */\n      0x20\n        /* \"#utility.yul\":24349:24352   */\n      dup3\n        /* \"#utility.yul\":24345:24357   */\n      add\n        /* \"#utility.yul\":24338:24357   */\n      swap1\n      pop\n        /* \"#utility.yul\":23997:24363   */\n      swap2\n      swap1\n      pop\n      jump\t// out\n        /* \"#utility.yul\":24369:24788   */\n    tag_248:\n        /* \"#utility.yul\":24535:24539   */\n      0x00\n        /* \"#utility.yul\":24573:24575   */\n      0x20\n        /* \"#utility.yul\":24562:24571   */\n      dup3\n        /* \"#utility.yul\":24558:24576   */\n      add\n        /* \"#utility.yul\":24550:24576   */\n      swap1\n      pop\n        /* \"#utility.yul\":24622:24631   */\n      dup2\n        /* \"#utility.yul\":24616:24620   */\n      dup2\n        /* \"#utility.yul\":24612:24632   */\n      sub\n        /* \"#utility.yul\":24608:24609   */\n      0x00\n        /* \"#utility.yul\":24597:24606   */\n      dup4\n        /* \"#utility.yul\":24593:24610   */\n      add\n        /* \"#utility.yul\":24586:24633   */\n      mstore\n        /* \"#utility.yul\":24650:24781   */\n      tag_580\n        /* \"#utility.yul\":24776:24780   */\n      dup2\n        /* \"#utility.yul\":24650:24781   */\n      tag_357\n      jump\t// in\n    tag_580:\n        /* \"#utility.yul\":24642:24781   */\n      swap1\n      pop\n        /* \"#utility.yul\":24369:24788   */\n      swap2\n      swap1\n      pop\n      jump\t// out\n        /* \"#utility.yul\":24794:25028   */\n    tag_358:\n        /* \"#utility.yul\":24934:24968   */\n      0x63616e6e6f7420646563726561736520616c6c6f77616e636520746f20616464\n        /* \"#utility.yul\":24930:24931   */\n      0x00\n        /* \"#utility.yul\":24922:24928   */\n      dup3\n        /* \"#utility.yul\":24918:24932   */\n      add\n        /* \"#utility.yul\":24911:24969   */\n      mstore\n        /* \"#utility.yul\":25003:25020   */\n      0x726573732076616c7565205a65726f0000000000000000000000000000000000\n        /* \"#utility.yul\":24998:25000   */\n      0x20\n        /* \"#utility.yul\":24990:24996   */\n      dup3\n        /* \"#utility.yul\":24986:25001   */\n      add\n        /* \"#utility.yul\":24979:25021   */\n      mstore\n        /* \"#utility.yul\":24794:25028   */\n      pop\n      jump\t// out\n        /* \"#utility.yul\":25034:25400   */\n    tag_359:\n        /* \"#utility.yul\":25176:25179   */\n      0x00\n        /* \"#utility.yul\":25197:25264   */\n      tag_583\n        /* \"#utility.yul\":25261:25263   */\n      0x2f\n        /* \"#utility.yul\":25256:25259   */\n      dup4\n        /* \"#utility.yul\":25197:25264   */\n      tag_308\n      jump\t// in\n    tag_583:\n        /* \"#utility.yul\":25190:25264   */\n      swap2\n      pop\n        /* \"#utility.yul\":25273:25366   */\n      tag_584\n        /* \"#utility.yul\":25362:25365   */\n      dup3\n        /* \"#utility.yul\":25273:25366   */\n      tag_358\n      jump\t// in\n    tag_584:\n        /* \"#utility.yul\":25391:25393   */\n      0x40\n        /* \"#utility.yul\":25386:25389   */\n      dup3\n        /* \"#utility.yul\":25382:25394   */\n      add\n        /* \"#utility.yul\":25375:25394   */\n      swap1\n      pop\n        /* \"#utility.yul\":25034:25400   */\n      swap2\n      swap1\n      pop\n      jump\t// out\n        /* \"#utility.yul\":25406:25825   */\n    tag_255:\n        /* \"#utility.yul\":25572:25576   */\n      0x00\n        /* \"#utility.yul\":25610:25612   */\n      0x20\n        /* \"#utility.yul\":25599:25608   */\n      dup3\n        /* \"#utility.yul\":25595:25613   */\n      add\n        /* \"#utility.yul\":25587:25613   */\n      swap1\n      pop\n        /* \"#utility.yul\":25659:25668   */\n      dup2\n        /* \"#utility.yul\":25653:25657   */\n      dup2\n        /* \"#utility.yul\":25649:25669   */\n      sub\n        /* \"#utility.yul\":25645:25646   */\n      0x00\n        /* \"#utility.yul\":25634:25643   */\n      dup4\n        /* \"#utility.yul\":25630:25647   */\n      add\n        /* \"#utility.yul\":25623:25670   */\n      mstore\n        /* \"#utility.yul\":25687:25818   */\n      tag_586\n        /* \"#utility.yul\":25813:25817   */\n      dup2\n        /* \"#utility.yul\":25687:25818   */\n      tag_359\n      jump\t// in\n    tag_586:\n        /* \"#utility.yul\":25679:25818   */\n      swap1\n      pop\n        /* \"#utility.yul\":25406:25825   */\n      swap2\n      swap1\n      pop\n      jump\t// out\n        /* \"#utility.yul\":25831:26060   */\n    tag_360:\n        /* \"#utility.yul\":25971:26005   */\n      0x496e73756666696369656e7420616c6c6f77616e63652062616c616e63652074\n        /* \"#utility.yul\":25967:25968   */\n      0x00\n        /* \"#utility.yul\":25959:25965   */\n      dup3\n        /* \"#utility.yul\":25955:25969   */\n      add\n        /* \"#utility.yul\":25948:26006   */\n      mstore\n        /* \"#utility.yul\":26040:26052   */\n      0x6f20646563726561736500000000000000000000000000000000000000000000\n        /* \"#utility.yul\":26035:26037   */\n      0x20\n        /* \"#utility.yul\":26027:26033   */\n      dup3\n        /* \"#utility.yul\":26023:26038   */\n      add\n        /* \"#utility.yul\":26016:26053   */\n      mstore\n        /* \"#utility.yul\":25831:26060   */\n      pop\n      jump\t// out\n        /* \"#utility.yul\":26066:26432   */\n    tag_361:\n        /* \"#utility.yul\":26208:26211   */\n      0x00\n        /* \"#utility.yul\":26229:26296   */\n      tag_589\n        /* \"#utility.yul\":26293:26295   */\n      0x2a\n        /* \"#utility.yul\":26288:26291   */\n      dup4\n        /* \"#utility.yul\":26229:26296   */\n      tag_308\n      jump\t// in\n    tag_589:\n        /* \"#utility.yul\":26222:26296   */\n      swap2\n      pop\n        /* \"#utility.yul\":26305:26398   */\n      tag_590\n        /* \"#utility.yul\":26394:26397   */\n      dup3\n        /* \"#utility.yul\":26305:26398   */\n      tag_360\n      jump\t// in\n    tag_590:\n        /* \"#utility.yul\":26423:26425   */\n      0x40\n        /* \"#utility.yul\":26418:26421   */\n      dup3\n        /* \"#utility.yul\":26414:26426   */\n      add\n        /* \"#utility.yul\":26407:26426   */\n      swap1\n      pop\n        /* \"#utility.yul\":26066:26432   */\n      swap2\n      swap1\n      pop\n      jump\t// out\n        /* \"#utility.yul\":26438:26857   */\n    tag_260:\n        /* \"#utility.yul\":26604:26608   */\n      0x00\n        /* \"#utility.yul\":26642:26644   */\n      0x20\n        /* \"#utility.yul\":26631:26640   */\n      dup3\n        /* \"#utility.yul\":26627:26645   */\n      add\n        /* \"#utility.yul\":26619:26645   */\n      swap1\n      pop\n        /* \"#utility.yul\":26691:26700   */\n      dup2\n        /* \"#utility.yul\":26685:26689   */\n      dup2\n        /* \"#utility.yul\":26681:26701   */\n      sub\n        /* \"#utility.yul\":26677:26678   */\n      0x00\n        /* \"#utility.yul\":26666:26675   */\n      dup4\n        /* \"#utility.yul\":26662:26679   */\n      add\n        /* \"#utility.yul\":26655:26702   */\n      mstore\n        /* \"#utility.yul\":26719:26850   */\n      tag_592\n        /* \"#utility.yul\":26845:26849   */\n      dup2\n        /* \"#utility.yul\":26719:26850   */\n      tag_361\n      jump\t// in\n    tag_592:\n        /* \"#utility.yul\":26711:26850   */\n      swap1\n      pop\n        /* \"#utility.yul\":26438:26857   */\n      swap2\n      swap1\n      pop\n      jump\t// out\n\n    auxdata: 0xa26469706673582212207c2d757157a982ec36d948c9684d6c442e4cb6e399a698b03467b897383b1ec364736f6c634300081e0033\n}\n",
				"bytecode": {
					"linkReferences": {},
					"object": "60806040526012600a610012919061026d565b6402540be40061002291906102b7565b600155600154600255348015610036575f5ffd5b50335f5f6101000a81548173ffffffffffffffffffffffffffffffffffffffff021916908373ffffffffffffffffffffffffffffffffffffffff1602179055505f600a6002546100869190610325565b90508060055f5f5f9054906101000a900473ffffffffffffffffffffffffffffffffffffffff1673ffffffffffffffffffffffffffffffffffffffff1673ffffffffffffffffffffffffffffffffffffffff1681526020019081526020015f20819055508060025f8282546100fb9190610355565b9250508190555050610388565b7f4e487b71000000000000000000000000000000000000000000000000000000005f52601160045260245ffd5b5f8160011c9050919050565b5f5f8291508390505b600185111561018a5780860481111561016657610165610108565b5b60018516156101755780820291505b808102905061018385610135565b945061014a565b94509492505050565b5f826101a2576001905061025d565b816101af575f905061025d565b81600181146101c557600281146101cf576101fe565b600191505061025d565b60ff8411156101e1576101e0610108565b5b8360020a9150848211156101f8576101f7610108565b5b5061025d565b5060208310610133831016604e8410600b84101617156102335782820a90508381111561022e5761022d610108565b5b61025d565b6102408484846001610141565b9250905081840481111561025757610256610108565b5b81810290505b9392505050565b5f819050919050565b5f61027782610264565b915061028283610264565b92506102af7fffffffffffffffffffffffffffffffffffffffffffffffffffffffffffffffff8484610193565b905092915050565b5f6102c182610264565b91506102cc83610264565b92508282026102da81610264565b915082820484148315176102f1576102f0610108565b5b5092915050565b7f4e487b71000000000000000000000000000000000000000000000000000000005f52601260045260245ffd5b5f61032f82610264565b915061033a83610264565b92508261034a576103496102f8565b5b828204905092915050565b5f61035f82610264565b915061036a83610264565b925082820390508181111561038257610381610108565b5b92915050565b6130bb806103955f395ff3fe608060405234801561000f575f5ffd5b50600436106100fe575f3560e01c806342505e6b1161009557806395d89b411161006457806395d89b41146102ae578063a457c2d7146102cc578063a9059cbb146102fc578063dd62ed3e1461032c576100fe565b806342505e6b1461022657806344df8e701461024457806370a08231146102625780638d14e12714610292576100fe565b806323b872dd116100d157806323b872dd1461018a578063313ce567146101ba57806339509351146101d85780633f60197214610208576100fe565b806301bf66481461010257806306fdde031461011e578063095ea7b31461013c5780631249c58b1461016c575b5f5ffd5b61011c60048036038101906101179190612357565b61035c565b005b610126610692565b60405161013391906123f2565b60405180910390f35b61015660048036038101906101519190612445565b6106cf565b604051610163919061249d565b60405180910390f35b610174610847565b604051610181919061249d565b60405180910390f35b6101a4600480360381019061019f91906124b6565b610c0e565b6040516101b1919061249d565b60405180910390f35b6101c261127f565b6040516101cf9190612515565b60405180910390f35b6101f260048036038101906101ed9190612445565b611287565b6040516101ff919061249d565b60405180910390f35b610210611488565b60405161021d9190612515565b60405180910390f35b61022e611491565b60405161023b91906125e5565b60405180910390f35b61024c61151c565b604051610259919061249d565b60405180910390f35b61027c60048036038101906102779190612357565b611766565b6040516102899190612515565b60405180910390f35b6102ac60048036038101906102a7919061262f565b6117ac565b005b6102b6611a57565b6040516102c391906123f2565b60405180910390f35b6102e660048036038101906102e19190612445565b611a94565b6040516102f3919061249d565b60405180910390f35b61031660048036038101906103119190612445565b611d50565b604051610323919061249d565b60405180910390f35b6103466004803603810190610341919061266d565b612277565b6040516103539190612515565b60405180910390f35b5f5f9054906101000a900473ffffffffffffffffffffffffffffffffffffffff1673ffffffffffffffffffffffffffffffffffffffff163373ffffffffffffffffffffffffffffffffffffffff16146103ea576040517f08c379a00000000000000000000000000000000000000000000000000000000081526004016103e19061271b565b60405180910390fd5b60065f8273ffffffffffffffffffffffffffffffffffffffff1673ffffffffffffffffffffffffffffffffffffffff1681526020019081526020015f205f9054906101000a900460ff16610473576040517f08c379a000000000000000000000000000000000000000000000000000000000815260040161046a90612783565b60405180910390fd5b5f5b60048054905081101561068e5760048181548110610496576104956127a1565b5b905f5260205f20015f9054906101000a900473ffffffffffffffffffffffffffffffffffffffff1673ffffffffffffffffffffffffffffffffffffffff168273ffffffffffffffffffffffffffffffffffffffff1603610681576004600160048054905061050491906127fb565b81548110610515576105146127a1565b5b905f5260205f20015f9054906101000a900473ffffffffffffffffffffffffffffffffffffffff1660048281548110610551576105506127a1565b5b905f5260205f20015f6101000a81548173ffffffffffffffffffffffffffffffffffffffff021916908373ffffffffffffffffffffffffffffffffffffffff16021790555060048054806105a8576105a761282e565b5b600190038181905f5260205f20015f6101000a81549073ffffffffffffffffffffffffffffffffffffffff021916905590555f60065f8473ffffffffffffffffffffffffffffffffffffffff1673ffffffffffffffffffffffffffffffffffffffff1681526020019081526020015f205f6101000a81548160ff0219169083151502179055508173ffffffffffffffffffffffffffffffffffffffff167f111b0cdde6a17355dbeb5ce9b87078297fec9b61b51550540b0d4e2f1e4913c25f604051610674919061249d565b60405180910390a261068e565b8080600101915050610475565b5050565b60606040518060400160405280600681526020017f4261746d616e0000000000000000000000000000000000000000000000000000815250905090565b5f5f6012600a6106df919061298a565b836106ea91906129d4565b90505f73ffffffffffffffffffffffffffffffffffffffff168473ffffffffffffffffffffffffffffffffffffffff160361075a576040517f08c379a000000000000000000000000000000000000000000000000000000000815260040161075190612a85565b60405180910390fd5b8060075f3373ffffffffffffffffffffffffffffffffffffffff1673ffffffffffffffffffffffffffffffffffffffff1681526020019081526020015f205f8673ffffffffffffffffffffffffffffffffffffffff1673ffffffffffffffffffffffffffffffffffffffff1681526020019081526020015f20819055508373ffffffffffffffffffffffffffffffffffffffff163373ffffffffffffffffffffffffffffffffffffffff167f8c5be1e5ebec7d5bd14f71427d1e84f3dd0314c0f7b2291e5b200ac8c7c3b925836040516108349190612515565b60405180910390a3600191505092915050565b5f5f5f9054906101000a900473ffffffffffffffffffffffffffffffffffffffff1673ffffffffffffffffffffffffffffffffffffffff163373ffffffffffffffffffffffffffffffffffffffff16146108d6576040517f08c379a00000000000000000000000000000000000000000000000000000000081526004016108cd9061271b565b60405180910390fd5b6012600a6108e4919061298a565b6402540be4006108f491906129d4565b6012600a610902919061298a565b600a61090e91906129d4565b60015461091b9190612aa3565b111561095c576040517f08c379a000000000000000000000000000000000000000000000000000000000815260040161095390612b20565b60405180910390fd5b6012600a61096a919061298a565b606461097691906129d4565b6012600a610984919061298a565b600a61099091906129d4565b60085f3373ffffffffffffffffffffffffffffffffffffffff1673ffffffffffffffffffffffffffffffffffffffff1681526020019081526020015f20546109d89190612aa3565b1115610a19576040517f08c379a0000000000000000000000000000000000000000000000000000000008152600401610a1090612b88565b60405180910390fd5b6012600a610a27919061298a565b600a610a3391906129d4565b60055f3373ffffffffffffffffffffffffffffffffffffffff1673ffffffffffffffffffffffffffffffffffffffff1681526020019081526020015f205f828254610a7e9190612aa3565b925050819055506012600a610a93919061298a565b600a610a9f91906129d4565b60035f828254610aaf9190612aa3565b925050819055506012600a610ac4919061298a565b600a610ad091906129d4565b60085f3373ffffffffffffffffffffffffffffffffffffffff1673ffffffffffffffffffffffffffffffffffffffff1681526020019081526020015f205f828254610b1b9190612aa3565b925050819055503373ffffffffffffffffffffffffffffffffffffffff167f0f6798a560793a54c3bcfe86a93cde1e73087d944c0ea20544137d41213968856012600a610b68919061298a565b600a610b7491906129d4565b604051610b819190612515565b60405180910390a23373ffffffffffffffffffffffffffffffffffffffff165f73ffffffffffffffffffffffffffffffffffffffff167fddf252ad1be2c89b69c2b068fc378daa952ba7f163c4a11628f55a4df523b3ef6012600a610be6919061298a565b600a610bf291906129d4565b604051610bff9190612515565b60405180910390a36001905090565b5f5f6012600a610c1e919061298a565b83610c2991906129d4565b90505f73ffffffffffffffffffffffffffffffffffffffff168473ffffffffffffffffffffffffffffffffffffffff1603610c99576040517f08c379a0000000000000000000000000000000000000000000000000000000008152600401610c9090612bf0565b60405180910390fd5b60055f8673ffffffffffffffffffffffffffffffffffffffff1673ffffffffffffffffffffffffffffffffffffffff1681526020019081526020015f2054811115610d19576040517f08c379a0000000000000000000000000000000000000000000000000000000008152600401610d1090612c58565b60405180910390fd5b60075f8673ffffffffffffffffffffffffffffffffffffffff1673ffffffffffffffffffffffffffffffffffffffff1681526020019081526020015f205f3373ffffffffffffffffffffffffffffffffffffffff1673ffffffffffffffffffffffffffffffffffffffff1681526020019081526020015f2054811115610dd4576040517f08c379a0000000000000000000000000000000000000000000000000000000008152600401610dcb90612cc0565b60405180910390fd5b60056004805490501015610e1d576040517f08c379a0000000000000000000000000000000000000000000000000000000008152600401610e1490612d28565b60405180910390fd5b8060055f8773ffffffffffffffffffffffffffffffffffffffff1673ffffffffffffffffffffffffffffffffffffffff1681526020019081526020015f205f828254610e6991906127fb565b925050819055508060075f8773ffffffffffffffffffffffffffffffffffffffff1673ffffffffffffffffffffffffffffffffffffffff1681526020019081526020015f205f3373ffffffffffffffffffffffffffffffffffffffff1673ffffffffffffffffffffffffffffffffffffffff1681526020019081526020015f205f828254610ef791906127fb565b925050819055505f6064600383610f0e91906129d4565b610f189190612d73565b90505f6064600184610f2a91906129d4565b610f349190612d73565b90505f600582610f4491906129d4565b90505f8184610f539190612aa3565b90505f8186610f6291906127fb565b90508060055f8b73ffffffffffffffffffffffffffffffffffffffff1673ffffffffffffffffffffffffffffffffffffffff1681526020019081526020015f205f828254610fb09190612aa3565b925050819055508460015f828254610fc891906127fb565b925050819055505f5f90505b60058110156111a35760065f60048381548110610ff457610ff36127a1565b5b905f5260205f20015f9054906101000a900473ffffffffffffffffffffffffffffffffffffffff1673ffffffffffffffffffffffffffffffffffffffff1673ffffffffffffffffffffffffffffffffffffffff1681526020019081526020015f205f9054906101000a900460ff1615611196578460055f6004848154811061107f5761107e6127a1565b5b905f5260205f20015f9054906101000a900473ffffffffffffffffffffffffffffffffffffffff1673ffffffffffffffffffffffffffffffffffffffff1673ffffffffffffffffffffffffffffffffffffffff1681526020019081526020015f205f8282546110ee9190612aa3565b9250508190555060048181548110611109576111086127a1565b5b905f5260205f20015f9054906101000a900473ffffffffffffffffffffffffffffffffffffffff1673ffffffffffffffffffffffffffffffffffffffff168b73ffffffffffffffffffffffffffffffffffffffff167fddf252ad1be2c89b69c2b068fc378daa952ba7f163c4a11628f55a4df523b3ef8760405161118d9190612515565b60405180910390a35b8080600101915050610fd4565b508873ffffffffffffffffffffffffffffffffffffffff168a73ffffffffffffffffffffffffffffffffffffffff167fddf252ad1be2c89b69c2b068fc378daa952ba7f163c4a11628f55a4df523b3ef836040516112019190612515565b60405180910390a35f73ffffffffffffffffffffffffffffffffffffffff168a73ffffffffffffffffffffffffffffffffffffffff167fddf252ad1be2c89b69c2b068fc378daa952ba7f163c4a11628f55a4df523b3ef876040516112669190612515565b60405180910390a3600196505050505050509392505050565b5f6012905090565b5f5f73ffffffffffffffffffffffffffffffffffffffff168373ffffffffffffffffffffffffffffffffffffffff16036112f6576040517f08c379a00000000000000000000000000000000000000000000000000000000081526004016112ed90612e13565b60405180910390fd5b5f6012600a611305919061298a565b8361131091906129d4565b90508060075f3373ffffffffffffffffffffffffffffffffffffffff1673ffffffffffffffffffffffffffffffffffffffff1681526020019081526020015f205f8673ffffffffffffffffffffffffffffffffffffffff1673ffffffffffffffffffffffffffffffffffffffff1681526020019081526020015f205f8282546113999190612aa3565b925050819055508373ffffffffffffffffffffffffffffffffffffffff163373ffffffffffffffffffffffffffffffffffffffff167f8c5be1e5ebec7d5bd14f71427d1e84f3dd0314c0f7b2291e5b200ac8c7c3b92560075f3373ffffffffffffffffffffffffffffffffffffffff1673ffffffffffffffffffffffffffffffffffffffff1681526020019081526020015f205f8873ffffffffffffffffffffffffffffffffffffffff1673ffffffffffffffffffffffffffffffffffffffff1681526020019081526020015f20546040516114759190612515565b60405180910390a3600191505092915050565b5f600154905090565b6060600480548060200260200160405190810160405280929190818152602001828054801561151257602002820191905f5260205f20905b815f9054906101000a900473ffffffffffffffffffffffffffffffffffffffff1673ffffffffffffffffffffffffffffffffffffffff16815260200190600101908083116114c9575b5050505050905090565b5f5f5f9054906101000a900473ffffffffffffffffffffffffffffffffffffffff1673ffffffffffffffffffffffffffffffffffffffff163373ffffffffffffffffffffffffffffffffffffffff16146115ab576040517f08c379a00000000000000000000000000000000000000000000000000000000081526004016115a29061271b565b60405180910390fd5b6012600a6115b9919061298a565b600a6115c591906129d4565b60055f3373ffffffffffffffffffffffffffffffffffffffff1673ffffffffffffffffffffffffffffffffffffffff1681526020019081526020015f20541015611644576040517f08c379a000000000000000000000000000000000000000000000000000000000815260040161163b90612e7b565b60405180910390fd5b6012600a611652919061298a565b600a61165e91906129d4565b60055f3373ffffffffffffffffffffffffffffffffffffffff1673ffffffffffffffffffffffffffffffffffffffff1681526020019081526020015f205f8282546116a991906127fb565b925050819055506012600a6116be919061298a565b600a6116ca91906129d4565b60015f8282546116da91906127fb565b925050819055505f73ffffffffffffffffffffffffffffffffffffffff163373ffffffffffffffffffffffffffffffffffffffff167fddf252ad1be2c89b69c2b068fc378daa952ba7f163c4a11628f55a4df523b3ef6012600a61173e919061298a565b600a61174a91906129d4565b6040516117579190612515565b60405180910390a36001905090565b5f60055f8373ffffffffffffffffffffffffffffffffffffffff1673ffffffffffffffffffffffffffffffffffffffff1681526020019081526020015f20549050919050565b5f5f9054906101000a900473ffffffffffffffffffffffffffffffffffffffff1673ffffffffffffffffffffffffffffffffffffffff163373ffffffffffffffffffffffffffffffffffffffff161461183a576040517f08c379a00000000000000000000000000000000000000000000000000000000081526004016118319061271b565b60405180910390fd5b5f73ffffffffffffffffffffffffffffffffffffffff168273ffffffffffffffffffffffffffffffffffffffff16036118a8576040517f08c379a000000000000000000000000000000000000000000000000000000000815260040161189f90612ee3565b60405180910390fd5b60011515811515148015611903575060065f8373ffffffffffffffffffffffffffffffffffffffff1673ffffffffffffffffffffffffffffffffffffffff1681526020019081526020015f205f9054906101000a900460ff16155b156119b157600560048054905010611950576040517f08c379a000000000000000000000000000000000000000000000000000000000815260040161194790612f4b565b60405180910390fd5b600482908060018154018082558091505060019003905f5260205f20015f9091909190916101000a81548173ffffffffffffffffffffffffffffffffffffffff021916908373ffffffffffffffffffffffffffffffffffffffff1602179055505b8060065f8473ffffffffffffffffffffffffffffffffffffffff1673ffffffffffffffffffffffffffffffffffffffff1681526020019081526020015f205f6101000a81548160ff0219169083151502179055508173ffffffffffffffffffffffffffffffffffffffff167f111b0cdde6a17355dbeb5ce9b87078297fec9b61b51550540b0d4e2f1e4913c282604051611a4b919061249d565b60405180910390a25050565b60606040518060400160405280600381526020017f42544d0000000000000000000000000000000000000000000000000000000000815250905090565b5f5f73ffffffffffffffffffffffffffffffffffffffff168373ffffffffffffffffffffffffffffffffffffffff1603611b03576040517f08c379a0000000000000000000000000000000000000000000000000000000008152600401611afa90612fd9565b60405180910390fd5b5f6012600a611b12919061298a565b83611b1d91906129d4565b90508060075f3373ffffffffffffffffffffffffffffffffffffffff1673ffffffffffffffffffffffffffffffffffffffff1681526020019081526020015f205f8673ffffffffffffffffffffffffffffffffffffffff1673ffffffffffffffffffffffffffffffffffffffff1681526020019081526020015f20541015611bda576040517f08c379a0000000000000000000000000000000000000000000000000000000008152600401611bd190613067565b60405180910390fd5b8060075f3373ffffffffffffffffffffffffffffffffffffffff1673ffffffffffffffffffffffffffffffffffffffff1681526020019081526020015f205f8673ffffffffffffffffffffffffffffffffffffffff1673ffffffffffffffffffffffffffffffffffffffff1681526020019081526020015f205f828254611c6191906127fb565b925050819055508373ffffffffffffffffffffffffffffffffffffffff163373ffffffffffffffffffffffffffffffffffffffff167f8c5be1e5ebec7d5bd14f71427d1e84f3dd0314c0f7b2291e5b200ac8c7c3b92560075f3373ffffffffffffffffffffffffffffffffffffffff1673ffffffffffffffffffffffffffffffffffffffff1681526020019081526020015f205f8873ffffffffffffffffffffffffffffffffffffffff1673ffffffffffffffffffffffffffffffffffffffff1681526020019081526020015f2054604051611d3d9190612515565b60405180910390a3600191505092915050565b5f5f6012600a611d60919061298a565b83611d6b91906129d4565b90508060055f3373ffffffffffffffffffffffffffffffffffffffff1673ffffffffffffffffffffffffffffffffffffffff1681526020019081526020015f20541015611ded576040517f08c379a0000000000000000000000000000000000000000000000000000000008152600401611de490612c58565b60405180910390fd5b5f73ffffffffffffffffffffffffffffffffffffffff168473ffffffffffffffffffffffffffffffffffffffff1603611e5b576040517f08c379a0000000000000000000000000000000000000000000000000000000008152600401611e5290612bf0565b60405180910390fd5b60056004805490501015611ea4576040517f08c379a0000000000000000000000000000000000000000000000000000000008152600401611e9b90612d28565b60405180910390fd5b8060055f3373ffffffffffffffffffffffffffffffffffffffff1673ffffffffffffffffffffffffffffffffffffffff1681526020019081526020015f205f828254611ef091906127fb565b925050819055505f6064600383611f0791906129d4565b611f119190612d73565b90505f6064600184611f2391906129d4565b611f2d9190612d73565b90505f600582611f3d91906129d4565b90505f8184611f4c9190612aa3565b90505f8186611f5b91906127fb565b90508060055f8b73ffffffffffffffffffffffffffffffffffffffff1673ffffffffffffffffffffffffffffffffffffffff1681526020019081526020015f205f828254611fa99190612aa3565b925050819055508460015f828254611fc191906127fb565b925050819055505f5f90505b600581101561219c5760065f60048381548110611fed57611fec6127a1565b5b905f5260205f20015f9054906101000a900473ffffffffffffffffffffffffffffffffffffffff1673ffffffffffffffffffffffffffffffffffffffff1673ffffffffffffffffffffffffffffffffffffffff1681526020019081526020015f205f9054906101000a900460ff161561218f578460055f60048481548110612078576120776127a1565b5b905f5260205f20015f9054906101000a900473ffffffffffffffffffffffffffffffffffffffff1673ffffffffffffffffffffffffffffffffffffffff1673ffffffffffffffffffffffffffffffffffffffff1681526020019081526020015f205f8282546120e79190612aa3565b9250508190555060048181548110612102576121016127a1565b5b905f5260205f20015f9054906101000a900473ffffffffffffffffffffffffffffffffffffffff1673ffffffffffffffffffffffffffffffffffffffff163373ffffffffffffffffffffffffffffffffffffffff167fddf252ad1be2c89b69c2b068fc378daa952ba7f163c4a11628f55a4df523b3ef876040516121869190612515565b60405180910390a35b8080600101915050611fcd565b508873ffffffffffffffffffffffffffffffffffffffff163373ffffffffffffffffffffffffffffffffffffffff167fddf252ad1be2c89b69c2b068fc378daa952ba7f163c4a11628f55a4df523b3ef836040516121fa9190612515565b60405180910390a35f73ffffffffffffffffffffffffffffffffffffffff163373ffffffffffffffffffffffffffffffffffffffff167fddf252ad1be2c89b69c2b068fc378daa952ba7f163c4a11628f55a4df523b3ef8760405161225f9190612515565b60405180910390a36001965050505050505092915050565b5f60075f8473ffffffffffffffffffffffffffffffffffffffff1673ffffffffffffffffffffffffffffffffffffffff1681526020019081526020015f205f8373ffffffffffffffffffffffffffffffffffffffff1673ffffffffffffffffffffffffffffffffffffffff1681526020019081526020015f2054905092915050565b5f5ffd5b5f73ffffffffffffffffffffffffffffffffffffffff82169050919050565b5f612326826122fd565b9050919050565b6123368161231c565b8114612340575f5ffd5b50565b5f813590506123518161232d565b92915050565b5f6020828403121561236c5761236b6122f9565b5b5f61237984828501612343565b91505092915050565b5f81519050919050565b5f82825260208201905092915050565b8281835e5f83830152505050565b5f601f19601f8301169050919050565b5f6123c482612382565b6123ce818561238c565b93506123de81856020860161239c565b6123e7816123aa565b840191505092915050565b5f6020820190508181035f83015261240a81846123ba565b905092915050565b5f819050919050565b61242481612412565b811461242e575f5ffd5b50565b5f8135905061243f8161241b565b92915050565b5f5f6040838503121561245b5761245a6122f9565b5b5f61246885828601612343565b925050602061247985828601612431565b9150509250929050565b5f8115159050919050565b61249781612483565b82525050565b5f6020820190506124b05f83018461248e565b92915050565b5f5f5f606084860312156124cd576124cc6122f9565b5b5f6124da86828701612343565b93505060206124eb86828701612343565b92505060406124fc86828701612431565b9150509250925092565b61250f81612412565b82525050565b5f6020820190506125285f830184612506565b92915050565b5f81519050919050565b5f82825260208201905092915050565b5f819050602082019050919050565b6125608161231c565b82525050565b5f6125718383612557565b60208301905092915050565b5f602082019050919050565b5f6125938261252e565b61259d8185612538565b93506125a883612548565b805f5b838110156125d85781516125bf8882612566565b97506125ca8361257d565b9250506001810190506125ab565b5085935050505092915050565b5f6020820190508181035f8301526125fd8184612589565b905092915050565b61260e81612483565b8114612618575f5ffd5b50565b5f8135905061262981612605565b92915050565b5f5f60408385031215612645576126446122f9565b5b5f61265285828601612343565b92505060206126638582860161261b565b9150509250929050565b5f5f60408385031215612683576126826122f9565b5b5f61269085828601612343565b92505060206126a185828601612343565b9150509250929050565b7f6f6e6c79206f776e657220686176652061636365737320746f207468697320665f8201527f756e6374696f6e00000000000000000000000000000000000000000000000000602082015250565b5f61270560278361238c565b9150612710826126ab565b604082019050919050565b5f6020820190508181035f830152612732816126f9565b9050919050565b7f55736572206e6f742057686974654c69737465640000000000000000000000005f82015250565b5f61276d60148361238c565b915061277882612739565b602082019050919050565b5f6020820190508181035f83015261279a81612761565b9050919050565b7f4e487b71000000000000000000000000000000000000000000000000000000005f52603260045260245ffd5b7f4e487b71000000000000000000000000000000000000000000000000000000005f52601160045260245ffd5b5f61280582612412565b915061281083612412565b9250828203905081811115612828576128276127ce565b5b92915050565b7f4e487b71000000000000000000000000000000000000000000000000000000005f52603160045260245ffd5b5f8160011c9050919050565b5f5f8291508390505b60018511156128b05780860481111561288c5761288b6127ce565b5b600185161561289b5780820291505b80810290506128a98561285b565b9450612870565b94509492505050565b5f826128c85760019050612983565b816128d5575f9050612983565b81600181146128eb57600281146128f557612924565b6001915050612983565b60ff841115612907576129066127ce565b5b8360020a91508482111561291e5761291d6127ce565b5b50612983565b5060208310610133831016604e8410600b84101617156129595782820a905083811115612954576129536127ce565b5b612983565b6129668484846001612867565b9250905081840481111561297d5761297c6127ce565b5b81810290505b9392505050565b5f61299482612412565b915061299f83612412565b92506129cc7fffffffffffffffffffffffffffffffffffffffffffffffffffffffffffffffff84846128b9565b905092915050565b5f6129de82612412565b91506129e983612412565b92508282026129f781612412565b91508282048414831517612a0e57612a0d6127ce565b5b5092915050565b7f43616e6e6f7420617070726f766520616d6f756e7420746f2061207a65726f205f8201527f6164647265737300000000000000000000000000000000000000000000000000602082015250565b5f612a6f60278361238c565b9150612a7a82612a15565b604082019050919050565b5f6020820190508181035f830152612a9c81612a63565b9050919050565b5f612aad82612412565b9150612ab883612412565b9250828201905080821115612ad057612acf6127ce565b5b92915050565b7f4d617820737570706c79206578636565646564000000000000000000000000005f82015250565b5f612b0a60138361238c565b9150612b1582612ad6565b602082019050919050565b5f6020820190508181035f830152612b3781612afe565b9050919050565b7f4d6178696d756d206c696d6974207265616368656400000000000000000000005f82015250565b5f612b7260158361238c565b9150612b7d82612b3e565b602082019050919050565b5f6020820190508181035f830152612b9f81612b66565b9050919050565b7f43616e6e6f74207472616e7366657220746f207a65726f2061646472657373005f82015250565b5f612bda601f8361238c565b9150612be582612ba6565b602082019050919050565b5f6020820190508181035f830152612c0781612bce565b9050919050565b7f496e73756666696369656e742062616c616e63650000000000000000000000005f82015250565b5f612c4260148361238c565b9150612c4d82612c0e565b602082019050919050565b5f6020820190508181035f830152612c6f81612c36565b9050919050565b7f416c6c6f77616e636520657863656564656400000000000000000000000000005f82015250565b5f612caa60128361238c565b9150612cb582612c76565b602082019050919050565b5f6020820190508181035f830152612cd781612c9e565b9050919050565b7f4e65656420352077686974656c697374656420757365727300000000000000005f82015250565b5f612d1260188361238c565b9150612d1d82612cde565b602082019050919050565b5f6020820190508181035f830152612d3f81612d06565b9050919050565b7f4e487b71000000000000000000000000000000000000000000000000000000005f52601260045260245ffd5b5f612d7d82612412565b9150612d8883612412565b925082612d9857612d97612d46565b5b828204905092915050565b7f43616e6e6f7420696e63726561736520616c6c6f77616e636520746f206164645f8201527f726573732076616c7565205a65726f0000000000000000000000000000000000602082015250565b5f612dfd602f8361238c565b9150612e0882612da3565b604082019050919050565b5f6020820190508181035f830152612e2a81612df1565b9050919050565b7f496e73756666696369656e742062616c616e636520746f206275726e000000005f82015250565b5f612e65601c8361238c565b9150612e7082612e31565b602082019050919050565b5f6020820190508181035f830152612e9281612e59565b9050919050565b7f696e76616c6964206164647265737300000000000000000000000000000000005f82015250565b5f612ecd600f8361238c565b9150612ed882612e99565b602082019050919050565b5f6020820190508181035f830152612efa81612ec1565b9050919050565b7f57686974656c6973742066756c6c0000000000000000000000000000000000005f82015250565b5f612f35600e8361238c565b9150612f4082612f01565b602082019050919050565b5f6020820190508181035f830152612f6281612f29565b9050919050565b7f63616e6e6f7420646563726561736520616c6c6f77616e636520746f206164645f8201527f726573732076616c7565205a65726f0000000000000000000000000000000000602082015250565b5f612fc3602f8361238c565b9150612fce82612f69565b604082019050919050565b5f6020820190508181035f830152612ff081612fb7565b9050919050565b7f496e73756666696369656e7420616c6c6f77616e63652062616c616e636520745f8201527f6f20646563726561736500000000000000000000000000000000000000000000602082015250565b5f613051602a8361238c565b915061305c82612ff7565b604082019050919050565b5f6020820190508181035f83015261307e81613045565b905091905056fea26469706673582212207c2d757157a982ec36d948c9684d6c442e4cb6e399a698b03467b897383b1ec364736f6c634300081e0033",
					"opcodes": "PUSH1 0x80 PUSH1 0x40 MSTORE PUSH1 0x12 PUSH1 0xA PUSH2 0x12 SWAP2 SWAP1 PUSH2 0x26D JUMP JUMPDEST PUSH5 0x2540BE400 PUSH2 0x22 SWAP2 SWAP1 PUSH2 0x2B7 JUMP JUMPDEST PUSH1 0x1 SSTORE PUSH1 0x1 SLOAD PUSH1 0x2 SSTORE CALLVALUE DUP1 ISZERO PUSH2 0x36 JUMPI PUSH0 PUSH0 REVERT JUMPDEST POP CALLER PUSH0 PUSH0 PUSH2 0x100 EXP DUP2 SLOAD DUP2 PUSH20 0xFFFFFFFFFFFFFFFFFFFFFFFFFFFFFFFFFFFFFFFF MUL NOT AND SWAP1 DUP4 PUSH20 0xFFFFFFFFFFFFFFFFFFFFFFFFFFFFFFFFFFFFFFFF AND MUL OR SWAP1 SSTORE POP PUSH0 PUSH1 0xA PUSH1 0x2 SLOAD PUSH2 0x86 SWAP2 SWAP1 PUSH2 0x325 JUMP JUMPDEST SWAP1 POP DUP1 PUSH1 0x5 PUSH0 PUSH0 PUSH0 SWAP1 SLOAD SWAP1 PUSH2 0x100 EXP SWAP1 DIV PUSH20 0xFFFFFFFFFFFFFFFFFFFFFFFFFFFFFFFFFFFFFFFF AND PUSH20 0xFFFFFFFFFFFFFFFFFFFFFFFFFFFFFFFFFFFFFFFF AND PUSH20 0xFFFFFFFFFFFFFFFFFFFFFFFFFFFFFFFFFFFFFFFF AND DUP2 MSTORE PUSH1 0x20 ADD SWAP1 DUP2 MSTORE PUSH1 0x20 ADD PUSH0 KECCAK256 DUP2 SWAP1 SSTORE POP DUP1 PUSH1 0x2 PUSH0 DUP3 DUP3 SLOAD PUSH2 0xFB SWAP2 SWAP1 PUSH2 0x355 JUMP JUMPDEST SWAP3 POP POP DUP2 SWAP1 SSTORE POP POP PUSH2 0x388 JUMP JUMPDEST PUSH32 0x4E487B7100000000000000000000000000000000000000000000000000000000 PUSH0 MSTORE PUSH1 0x11 PUSH1 0x4 MSTORE PUSH1 0x24 PUSH0 REVERT JUMPDEST PUSH0 DUP2 PUSH1 0x1 SHR SWAP1 POP SWAP2 SWAP1 POP JUMP JUMPDEST PUSH0 PUSH0 DUP3 SWAP2 POP DUP4 SWAP1 POP JUMPDEST PUSH1 0x1 DUP6 GT ISZERO PUSH2 0x18A JUMPI DUP1 DUP7 DIV DUP2 GT ISZERO PUSH2 0x166 JUMPI PUSH2 0x165 PUSH2 0x108 JUMP JUMPDEST JUMPDEST PUSH1 0x1 DUP6 AND ISZERO PUSH2 0x175 JUMPI DUP1 DUP3 MUL SWAP2 POP JUMPDEST DUP1 DUP2 MUL SWAP1 POP PUSH2 0x183 DUP6 PUSH2 0x135 JUMP JUMPDEST SWAP5 POP PUSH2 0x14A JUMP JUMPDEST SWAP5 POP SWAP5 SWAP3 POP POP POP JUMP JUMPDEST PUSH0 DUP3 PUSH2 0x1A2 JUMPI PUSH1 0x1 SWAP1 POP PUSH2 0x25D JUMP JUMPDEST DUP2 PUSH2 0x1AF JUMPI PUSH0 SWAP1 POP PUSH2 0x25D JUMP JUMPDEST DUP2 PUSH1 0x1 DUP2 EQ PUSH2 0x1C5 JUMPI PUSH1 0x2 DUP2 EQ PUSH2 0x1CF JUMPI PUSH2 0x1FE JUMP JUMPDEST PUSH1 0x1 SWAP2 POP POP PUSH2 0x25D JUMP JUMPDEST PUSH1 0xFF DUP5 GT ISZERO PUSH2 0x1E1 JUMPI PUSH2 0x1E0 PUSH2 0x108 JUMP JUMPDEST JUMPDEST DUP4 PUSH1 0x2 EXP SWAP2 POP DUP5 DUP3 GT ISZERO PUSH2 0x1F8 JUMPI PUSH2 0x1F7 PUSH2 0x108 JUMP JUMPDEST JUMPDEST POP PUSH2 0x25D JUMP JUMPDEST POP PUSH1 0x20 DUP4 LT PUSH2 0x133 DUP4 LT AND PUSH1 0x4E DUP5 LT PUSH1 0xB DUP5 LT AND OR ISZERO PUSH2 0x233 JUMPI DUP3 DUP3 EXP SWAP1 POP DUP4 DUP2 GT ISZERO PUSH2 0x22E JUMPI PUSH2 0x22D PUSH2 0x108 JUMP JUMPDEST JUMPDEST PUSH2 0x25D JUMP JUMPDEST PUSH2 0x240 DUP5 DUP5 DUP5 PUSH1 0x1 PUSH2 0x141 JUMP JUMPDEST SWAP3 POP SWAP1 POP DUP2 DUP5 DIV DUP2 GT ISZERO PUSH2 0x257 JUMPI PUSH2 0x256 PUSH2 0x108 JUMP JUMPDEST JUMPDEST DUP2 DUP2 MUL SWAP1 POP JUMPDEST SWAP4 SWAP3 POP POP POP JUMP JUMPDEST PUSH0 DUP2 SWAP1 POP SWAP2 SWAP1 POP JUMP JUMPDEST PUSH0 PUSH2 0x277 DUP3 PUSH2 0x264 JUMP JUMPDEST SWAP2 POP PUSH2 0x282 DUP4 PUSH2 0x264 JUMP JUMPDEST SWAP3 POP PUSH2 0x2AF PUSH32 0xFFFFFFFFFFFFFFFFFFFFFFFFFFFFFFFFFFFFFFFFFFFFFFFFFFFFFFFFFFFFFFFF DUP5 DUP5 PUSH2 0x193 JUMP JUMPDEST SWAP1 POP SWAP3 SWAP2 POP POP JUMP JUMPDEST PUSH0 PUSH2 0x2C1 DUP3 PUSH2 0x264 JUMP JUMPDEST SWAP2 POP PUSH2 0x2CC DUP4 PUSH2 0x264 JUMP JUMPDEST SWAP3 POP DUP3 DUP3 MUL PUSH2 0x2DA DUP2 PUSH2 0x264 JUMP JUMPDEST SWAP2 POP DUP3 DUP3 DIV DUP5 EQ DUP4 ISZERO OR PUSH2 0x2F1 JUMPI PUSH2 0x2F0 PUSH2 0x108 JUMP JUMPDEST JUMPDEST POP SWAP3 SWAP2 POP POP JUMP JUMPDEST PUSH32 0x4E487B7100000000000000000000000000000000000000000000000000000000 PUSH0 MSTORE PUSH1 0x12 PUSH1 0x4 MSTORE PUSH1 0x24 PUSH0 REVERT JUMPDEST PUSH0 PUSH2 0x32F DUP3 PUSH2 0x264 JUMP JUMPDEST SWAP2 POP PUSH2 0x33A DUP4 PUSH2 0x264 JUMP JUMPDEST SWAP3 POP DUP3 PUSH2 0x34A JUMPI PUSH2 0x349 PUSH2 0x2F8 JUMP JUMPDEST JUMPDEST DUP3 DUP3 DIV SWAP1 POP SWAP3 SWAP2 POP POP JUMP JUMPDEST PUSH0 PUSH2 0x35F DUP3 PUSH2 0x264 JUMP JUMPDEST SWAP2 POP PUSH2 0x36A DUP4 PUSH2 0x264 JUMP JUMPDEST SWAP3 POP DUP3 DUP3 SUB SWAP1 POP DUP2 DUP2 GT ISZERO PUSH2 0x382 JUMPI PUSH2 0x381 PUSH2 0x108 JUMP JUMPDEST JUMPDEST SWAP3 SWAP2 POP POP JUMP JUMPDEST PUSH2 0x30BB DUP1 PUSH2 0x395 PUSH0 CODECOPY PUSH0 RETURN INVALID PUSH1 0x80 PUSH1 0x40 MSTORE CALLVALUE DUP1 ISZERO PUSH2 0xF JUMPI PUSH0 PUSH0 REVERT JUMPDEST POP PUSH1 0x4 CALLDATASIZE LT PUSH2 0xFE JUMPI PUSH0 CALLDATALOAD PUSH1 0xE0 SHR DUP1 PUSH4 0x42505E6B GT PUSH2 0x95 JUMPI DUP1 PUSH4 0x95D89B41 GT PUSH2 0x64 JUMPI DUP1 PUSH4 0x95D89B41 EQ PUSH2 0x2AE JUMPI DUP1 PUSH4 0xA457C2D7 EQ PUSH2 0x2CC JUMPI DUP1 PUSH4 0xA9059CBB EQ PUSH2 0x2FC JUMPI DUP1 PUSH4 0xDD62ED3E EQ PUSH2 0x32C JUMPI PUSH2 0xFE JUMP JUMPDEST DUP1 PUSH4 0x42505E6B EQ PUSH2 0x226 JUMPI DUP1 PUSH4 0x44DF8E70 EQ PUSH2 0x244 JUMPI DUP1 PUSH4 0x70A08231 EQ PUSH2 0x262 JUMPI DUP1 PUSH4 0x8D14E127 EQ PUSH2 0x292 JUMPI PUSH2 0xFE JUMP JUMPDEST DUP1 PUSH4 0x23B872DD GT PUSH2 0xD1 JUMPI DUP1 PUSH4 0x23B872DD EQ PUSH2 0x18A JUMPI DUP1 PUSH4 0x313CE567 EQ PUSH2 0x1BA JUMPI DUP1 PUSH4 0x39509351 EQ PUSH2 0x1D8 JUMPI DUP1 PUSH4 0x3F601972 EQ PUSH2 0x208 JUMPI PUSH2 0xFE JUMP JUMPDEST DUP1 PUSH4 0x1BF6648 EQ PUSH2 0x102 JUMPI DUP1 PUSH4 0x6FDDE03 EQ PUSH2 0x11E JUMPI DUP1 PUSH4 0x95EA7B3 EQ PUSH2 0x13C JUMPI DUP1 PUSH4 0x1249C58B EQ PUSH2 0x16C JUMPI JUMPDEST PUSH0 PUSH0 REVERT JUMPDEST PUSH2 0x11C PUSH1 0x4 DUP1 CALLDATASIZE SUB DUP2 ADD SWAP1 PUSH2 0x117 SWAP2 SWAP1 PUSH2 0x2357 JUMP JUMPDEST PUSH2 0x35C JUMP JUMPDEST STOP JUMPDEST PUSH2 0x126 PUSH2 0x692 JUMP JUMPDEST PUSH1 0x40 MLOAD PUSH2 0x133 SWAP2 SWAP1 PUSH2 0x23F2 JUMP JUMPDEST PUSH1 0x40 MLOAD DUP1 SWAP2 SUB SWAP1 RETURN JUMPDEST PUSH2 0x156 PUSH1 0x4 DUP1 CALLDATASIZE SUB DUP2 ADD SWAP1 PUSH2 0x151 SWAP2 SWAP1 PUSH2 0x2445 JUMP JUMPDEST PUSH2 0x6CF JUMP JUMPDEST PUSH1 0x40 MLOAD PUSH2 0x163 SWAP2 SWAP1 PUSH2 0x249D JUMP JUMPDEST PUSH1 0x40 MLOAD DUP1 SWAP2 SUB SWAP1 RETURN JUMPDEST PUSH2 0x174 PUSH2 0x847 JUMP JUMPDEST PUSH1 0x40 MLOAD PUSH2 0x181 SWAP2 SWAP1 PUSH2 0x249D JUMP JUMPDEST PUSH1 0x40 MLOAD DUP1 SWAP2 SUB SWAP1 RETURN JUMPDEST PUSH2 0x1A4 PUSH1 0x4 DUP1 CALLDATASIZE SUB DUP2 ADD SWAP1 PUSH2 0x19F SWAP2 SWAP1 PUSH2 0x24B6 JUMP JUMPDEST PUSH2 0xC0E JUMP JUMPDEST PUSH1 0x40 MLOAD PUSH2 0x1B1 SWAP2 SWAP1 PUSH2 0x249D JUMP JUMPDEST PUSH1 0x40 MLOAD DUP1 SWAP2 SUB SWAP1 RETURN JUMPDEST PUSH2 0x1C2 PUSH2 0x127F JUMP JUMPDEST PUSH1 0x40 MLOAD PUSH2 0x1CF SWAP2 SWAP1 PUSH2 0x2515 JUMP JUMPDEST PUSH1 0x40 MLOAD DUP1 SWAP2 SUB SWAP1 RETURN JUMPDEST PUSH2 0x1F2 PUSH1 0x4 DUP1 CALLDATASIZE SUB DUP2 ADD SWAP1 PUSH2 0x1ED SWAP2 SWAP1 PUSH2 0x2445 JUMP JUMPDEST PUSH2 0x1287 JUMP JUMPDEST PUSH1 0x40 MLOAD PUSH2 0x1FF SWAP2 SWAP1 PUSH2 0x249D JUMP JUMPDEST PUSH1 0x40 MLOAD DUP1 SWAP2 SUB SWAP1 RETURN JUMPDEST PUSH2 0x210 PUSH2 0x1488 JUMP JUMPDEST PUSH1 0x40 MLOAD PUSH2 0x21D SWAP2 SWAP1 PUSH2 0x2515 JUMP JUMPDEST PUSH1 0x40 MLOAD DUP1 SWAP2 SUB SWAP1 RETURN JUMPDEST PUSH2 0x22E PUSH2 0x1491 JUMP JUMPDEST PUSH1 0x40 MLOAD PUSH2 0x23B SWAP2 SWAP1 PUSH2 0x25E5 JUMP JUMPDEST PUSH1 0x40 MLOAD DUP1 SWAP2 SUB SWAP1 RETURN JUMPDEST PUSH2 0x24C PUSH2 0x151C JUMP JUMPDEST PUSH1 0x40 MLOAD PUSH2 0x259 SWAP2 SWAP1 PUSH2 0x249D JUMP JUMPDEST PUSH1 0x40 MLOAD DUP1 SWAP2 SUB SWAP1 RETURN JUMPDEST PUSH2 0x27C PUSH1 0x4 DUP1 CALLDATASIZE SUB DUP2 ADD SWAP1 PUSH2 0x277 SWAP2 SWAP1 PUSH2 0x2357 JUMP JUMPDEST PUSH2 0x1766 JUMP JUMPDEST PUSH1 0x40 MLOAD PUSH2 0x289 SWAP2 SWAP1 PUSH2 0x2515 JUMP JUMPDEST PUSH1 0x40 MLOAD DUP1 SWAP2 SUB SWAP1 RETURN JUMPDEST PUSH2 0x2AC PUSH1 0x4 DUP1 CALLDATASIZE SUB DUP2 ADD SWAP1 PUSH2 0x2A7 SWAP2 SWAP1 PUSH2 0x262F JUMP JUMPDEST PUSH2 0x17AC JUMP JUMPDEST STOP JUMPDEST PUSH2 0x2B6 PUSH2 0x1A57 JUMP JUMPDEST PUSH1 0x40 MLOAD PUSH2 0x2C3 SWAP2 SWAP1 PUSH2 0x23F2 JUMP JUMPDEST PUSH1 0x40 MLOAD DUP1 SWAP2 SUB SWAP1 RETURN JUMPDEST PUSH2 0x2E6 PUSH1 0x4 DUP1 CALLDATASIZE SUB DUP2 ADD SWAP1 PUSH2 0x2E1 SWAP2 SWAP1 PUSH2 0x2445 JUMP JUMPDEST PUSH2 0x1A94 JUMP JUMPDEST PUSH1 0x40 MLOAD PUSH2 0x2F3 SWAP2 SWAP1 PUSH2 0x249D JUMP JUMPDEST PUSH1 0x40 MLOAD DUP1 SWAP2 SUB SWAP1 RETURN JUMPDEST PUSH2 0x316 PUSH1 0x4 DUP1 CALLDATASIZE SUB DUP2 ADD SWAP1 PUSH2 0x311 SWAP2 SWAP1 PUSH2 0x2445 JUMP JUMPDEST PUSH2 0x1D50 JUMP JUMPDEST PUSH1 0x40 MLOAD PUSH2 0x323 SWAP2 SWAP1 PUSH2 0x249D JUMP JUMPDEST PUSH1 0x40 MLOAD DUP1 SWAP2 SUB SWAP1 RETURN JUMPDEST PUSH2 0x346 PUSH1 0x4 DUP1 CALLDATASIZE SUB DUP2 ADD SWAP1 PUSH2 0x341 SWAP2 SWAP1 PUSH2 0x266D JUMP JUMPDEST PUSH2 0x2277 JUMP JUMPDEST PUSH1 0x40 MLOAD PUSH2 0x353 SWAP2 SWAP1 PUSH2 0x2515 JUMP JUMPDEST PUSH1 0x40 MLOAD DUP1 SWAP2 SUB SWAP1 RETURN JUMPDEST PUSH0 PUSH0 SWAP1 SLOAD SWAP1 PUSH2 0x100 EXP SWAP1 DIV PUSH20 0xFFFFFFFFFFFFFFFFFFFFFFFFFFFFFFFFFFFFFFFF AND PUSH20 0xFFFFFFFFFFFFFFFFFFFFFFFFFFFFFFFFFFFFFFFF AND CALLER PUSH20 0xFFFFFFFFFFFFFFFFFFFFFFFFFFFFFFFFFFFFFFFF AND EQ PUSH2 0x3EA JUMPI PUSH1 0x40 MLOAD PUSH32 0x8C379A000000000000000000000000000000000000000000000000000000000 DUP2 MSTORE PUSH1 0x4 ADD PUSH2 0x3E1 SWAP1 PUSH2 0x271B JUMP JUMPDEST PUSH1 0x40 MLOAD DUP1 SWAP2 SUB SWAP1 REVERT JUMPDEST PUSH1 0x6 PUSH0 DUP3 PUSH20 0xFFFFFFFFFFFFFFFFFFFFFFFFFFFFFFFFFFFFFFFF AND PUSH20 0xFFFFFFFFFFFFFFFFFFFFFFFFFFFFFFFFFFFFFFFF AND DUP2 MSTORE PUSH1 0x20 ADD SWAP1 DUP2 MSTORE PUSH1 0x20 ADD PUSH0 KECCAK256 PUSH0 SWAP1 SLOAD SWAP1 PUSH2 0x100 EXP SWAP1 DIV PUSH1 0xFF AND PUSH2 0x473 JUMPI PUSH1 0x40 MLOAD PUSH32 0x8C379A000000000000000000000000000000000000000000000000000000000 DUP2 MSTORE PUSH1 0x4 ADD PUSH2 0x46A SWAP1 PUSH2 0x2783 JUMP JUMPDEST PUSH1 0x40 MLOAD DUP1 SWAP2 SUB SWAP1 REVERT JUMPDEST PUSH0 JUMPDEST PUSH1 0x4 DUP1 SLOAD SWAP1 POP DUP2 LT ISZERO PUSH2 0x68E JUMPI PUSH1 0x4 DUP2 DUP2 SLOAD DUP2 LT PUSH2 0x496 JUMPI PUSH2 0x495 PUSH2 0x27A1 JUMP JUMPDEST JUMPDEST SWAP1 PUSH0 MSTORE PUSH1 0x20 PUSH0 KECCAK256 ADD PUSH0 SWAP1 SLOAD SWAP1 PUSH2 0x100 EXP SWAP1 DIV PUSH20 0xFFFFFFFFFFFFFFFFFFFFFFFFFFFFFFFFFFFFFFFF AND PUSH20 0xFFFFFFFFFFFFFFFFFFFFFFFFFFFFFFFFFFFFFFFF AND DUP3 PUSH20 0xFFFFFFFFFFFFFFFFFFFFFFFFFFFFFFFFFFFFFFFF AND SUB PUSH2 0x681 JUMPI PUSH1 0x4 PUSH1 0x1 PUSH1 0x4 DUP1 SLOAD SWAP1 POP PUSH2 0x504 SWAP2 SWAP1 PUSH2 0x27FB JUMP JUMPDEST DUP2 SLOAD DUP2 LT PUSH2 0x515 JUMPI PUSH2 0x514 PUSH2 0x27A1 JUMP JUMPDEST JUMPDEST SWAP1 PUSH0 MSTORE PUSH1 0x20 PUSH0 KECCAK256 ADD PUSH0 SWAP1 SLOAD SWAP1 PUSH2 0x100 EXP SWAP1 DIV PUSH20 0xFFFFFFFFFFFFFFFFFFFFFFFFFFFFFFFFFFFFFFFF AND PUSH1 0x4 DUP3 DUP2 SLOAD DUP2 LT PUSH2 0x551 JUMPI PUSH2 0x550 PUSH2 0x27A1 JUMP JUMPDEST JUMPDEST SWAP1 PUSH0 MSTORE PUSH1 0x20 PUSH0 KECCAK256 ADD PUSH0 PUSH2 0x100 EXP DUP2 SLOAD DUP2 PUSH20 0xFFFFFFFFFFFFFFFFFFFFFFFFFFFFFFFFFFFFFFFF MUL NOT AND SWAP1 DUP4 PUSH20 0xFFFFFFFFFFFFFFFFFFFFFFFFFFFFFFFFFFFFFFFF AND MUL OR SWAP1 SSTORE POP PUSH1 0x4 DUP1 SLOAD DUP1 PUSH2 0x5A8 JUMPI PUSH2 0x5A7 PUSH2 0x282E JUMP JUMPDEST JUMPDEST PUSH1 0x1 SWAP1 SUB DUP2 DUP2 SWAP1 PUSH0 MSTORE PUSH1 0x20 PUSH0 KECCAK256 ADD PUSH0 PUSH2 0x100 EXP DUP2 SLOAD SWAP1 PUSH20 0xFFFFFFFFFFFFFFFFFFFFFFFFFFFFFFFFFFFFFFFF MUL NOT AND SWAP1 SSTORE SWAP1 SSTORE PUSH0 PUSH1 0x6 PUSH0 DUP5 PUSH20 0xFFFFFFFFFFFFFFFFFFFFFFFFFFFFFFFFFFFFFFFF AND PUSH20 0xFFFFFFFFFFFFFFFFFFFFFFFFFFFFFFFFFFFFFFFF AND DUP2 MSTORE PUSH1 0x20 ADD SWAP1 DUP2 MSTORE PUSH1 0x20 ADD PUSH0 KECCAK256 PUSH0 PUSH2 0x100 EXP DUP2 SLOAD DUP2 PUSH1 0xFF MUL NOT AND SWAP1 DUP4 ISZERO ISZERO MUL OR SWAP1 SSTORE POP DUP2 PUSH20 0xFFFFFFFFFFFFFFFFFFFFFFFFFFFFFFFFFFFFFFFF AND PUSH32 0x111B0CDDE6A17355DBEB5CE9B87078297FEC9B61B51550540B0D4E2F1E4913C2 PUSH0 PUSH1 0x40 MLOAD PUSH2 0x674 SWAP2 SWAP1 PUSH2 0x249D JUMP JUMPDEST PUSH1 0x40 MLOAD DUP1 SWAP2 SUB SWAP1 LOG2 PUSH2 0x68E JUMP JUMPDEST DUP1 DUP1 PUSH1 0x1 ADD SWAP2 POP POP PUSH2 0x475 JUMP JUMPDEST POP POP JUMP JUMPDEST PUSH1 0x60 PUSH1 0x40 MLOAD DUP1 PUSH1 0x40 ADD PUSH1 0x40 MSTORE DUP1 PUSH1 0x6 DUP2 MSTORE PUSH1 0x20 ADD PUSH32 0x4261746D616E0000000000000000000000000000000000000000000000000000 DUP2 MSTORE POP SWAP1 POP SWAP1 JUMP JUMPDEST PUSH0 PUSH0 PUSH1 0x12 PUSH1 0xA PUSH2 0x6DF SWAP2 SWAP1 PUSH2 0x298A JUMP JUMPDEST DUP4 PUSH2 0x6EA SWAP2 SWAP1 PUSH2 0x29D4 JUMP JUMPDEST SWAP1 POP PUSH0 PUSH20 0xFFFFFFFFFFFFFFFFFFFFFFFFFFFFFFFFFFFFFFFF AND DUP5 PUSH20 0xFFFFFFFFFFFFFFFFFFFFFFFFFFFFFFFFFFFFFFFF AND SUB PUSH2 0x75A JUMPI PUSH1 0x40 MLOAD PUSH32 0x8C379A000000000000000000000000000000000000000000000000000000000 DUP2 MSTORE PUSH1 0x4 ADD PUSH2 0x751 SWAP1 PUSH2 0x2A85 JUMP JUMPDEST PUSH1 0x40 MLOAD DUP1 SWAP2 SUB SWAP1 REVERT JUMPDEST DUP1 PUSH1 0x7 PUSH0 CALLER PUSH20 0xFFFFFFFFFFFFFFFFFFFFFFFFFFFFFFFFFFFFFFFF AND PUSH20 0xFFFFFFFFFFFFFFFFFFFFFFFFFFFFFFFFFFFFFFFF AND DUP2 MSTORE PUSH1 0x20 ADD SWAP1 DUP2 MSTORE PUSH1 0x20 ADD PUSH0 KECCAK256 PUSH0 DUP7 PUSH20 0xFFFFFFFFFFFFFFFFFFFFFFFFFFFFFFFFFFFFFFFF AND PUSH20 0xFFFFFFFFFFFFFFFFFFFFFFFFFFFFFFFFFFFFFFFF AND DUP2 MSTORE PUSH1 0x20 ADD SWAP1 DUP2 MSTORE PUSH1 0x20 ADD PUSH0 KECCAK256 DUP2 SWAP1 SSTORE POP DUP4 PUSH20 0xFFFFFFFFFFFFFFFFFFFFFFFFFFFFFFFFFFFFFFFF AND CALLER PUSH20 0xFFFFFFFFFFFFFFFFFFFFFFFFFFFFFFFFFFFFFFFF AND PUSH32 0x8C5BE1E5EBEC7D5BD14F71427D1E84F3DD0314C0F7B2291E5B200AC8C7C3B925 DUP4 PUSH1 0x40 MLOAD PUSH2 0x834 SWAP2 SWAP1 PUSH2 0x2515 JUMP JUMPDEST PUSH1 0x40 MLOAD DUP1 SWAP2 SUB SWAP1 LOG3 PUSH1 0x1 SWAP2 POP POP SWAP3 SWAP2 POP POP JUMP JUMPDEST PUSH0 PUSH0 PUSH0 SWAP1 SLOAD SWAP1 PUSH2 0x100 EXP SWAP1 DIV PUSH20 0xFFFFFFFFFFFFFFFFFFFFFFFFFFFFFFFFFFFFFFFF AND PUSH20 0xFFFFFFFFFFFFFFFFFFFFFFFFFFFFFFFFFFFFFFFF AND CALLER PUSH20 0xFFFFFFFFFFFFFFFFFFFFFFFFFFFFFFFFFFFFFFFF AND EQ PUSH2 0x8D6 JUMPI PUSH1 0x40 MLOAD PUSH32 0x8C379A000000000000000000000000000000000000000000000000000000000 DUP2 MSTORE PUSH1 0x4 ADD PUSH2 0x8CD SWAP1 PUSH2 0x271B JUMP JUMPDEST PUSH1 0x40 MLOAD DUP1 SWAP2 SUB SWAP1 REVERT JUMPDEST PUSH1 0x12 PUSH1 0xA PUSH2 0x8E4 SWAP2 SWAP1 PUSH2 0x298A JUMP JUMPDEST PUSH5 0x2540BE400 PUSH2 0x8F4 SWAP2 SWAP1 PUSH2 0x29D4 JUMP JUMPDEST PUSH1 0x12 PUSH1 0xA PUSH2 0x902 SWAP2 SWAP1 PUSH2 0x298A JUMP JUMPDEST PUSH1 0xA PUSH2 0x90E SWAP2 SWAP1 PUSH2 0x29D4 JUMP JUMPDEST PUSH1 0x1 SLOAD PUSH2 0x91B SWAP2 SWAP1 PUSH2 0x2AA3 JUMP JUMPDEST GT ISZERO PUSH2 0x95C JUMPI PUSH1 0x40 MLOAD PUSH32 0x8C379A000000000000000000000000000000000000000000000000000000000 DUP2 MSTORE PUSH1 0x4 ADD PUSH2 0x953 SWAP1 PUSH2 0x2B20 JUMP JUMPDEST PUSH1 0x40 MLOAD DUP1 SWAP2 SUB SWAP1 REVERT JUMPDEST PUSH1 0x12 PUSH1 0xA PUSH2 0x96A SWAP2 SWAP1 PUSH2 0x298A JUMP JUMPDEST PUSH1 0x64 PUSH2 0x976 SWAP2 SWAP1 PUSH2 0x29D4 JUMP JUMPDEST PUSH1 0x12 PUSH1 0xA PUSH2 0x984 SWAP2 SWAP1 PUSH2 0x298A JUMP JUMPDEST PUSH1 0xA PUSH2 0x990 SWAP2 SWAP1 PUSH2 0x29D4 JUMP JUMPDEST PUSH1 0x8 PUSH0 CALLER PUSH20 0xFFFFFFFFFFFFFFFFFFFFFFFFFFFFFFFFFFFFFFFF AND PUSH20 0xFFFFFFFFFFFFFFFFFFFFFFFFFFFFFFFFFFFFFFFF AND DUP2 MSTORE PUSH1 0x20 ADD SWAP1 DUP2 MSTORE PUSH1 0x20 ADD PUSH0 KECCAK256 SLOAD PUSH2 0x9D8 SWAP2 SWAP1 PUSH2 0x2AA3 JUMP JUMPDEST GT ISZERO PUSH2 0xA19 JUMPI PUSH1 0x40 MLOAD PUSH32 0x8C379A000000000000000000000000000000000000000000000000000000000 DUP2 MSTORE PUSH1 0x4 ADD PUSH2 0xA10 SWAP1 PUSH2 0x2B88 JUMP JUMPDEST PUSH1 0x40 MLOAD DUP1 SWAP2 SUB SWAP1 REVERT JUMPDEST PUSH1 0x12 PUSH1 0xA PUSH2 0xA27 SWAP2 SWAP1 PUSH2 0x298A JUMP JUMPDEST PUSH1 0xA PUSH2 0xA33 SWAP2 SWAP1 PUSH2 0x29D4 JUMP JUMPDEST PUSH1 0x5 PUSH0 CALLER PUSH20 0xFFFFFFFFFFFFFFFFFFFFFFFFFFFFFFFFFFFFFFFF AND PUSH20 0xFFFFFFFFFFFFFFFFFFFFFFFFFFFFFFFFFFFFFFFF AND DUP2 MSTORE PUSH1 0x20 ADD SWAP1 DUP2 MSTORE PUSH1 0x20 ADD PUSH0 KECCAK256 PUSH0 DUP3 DUP3 SLOAD PUSH2 0xA7E SWAP2 SWAP1 PUSH2 0x2AA3 JUMP JUMPDEST SWAP3 POP POP DUP2 SWAP1 SSTORE POP PUSH1 0x12 PUSH1 0xA PUSH2 0xA93 SWAP2 SWAP1 PUSH2 0x298A JUMP JUMPDEST PUSH1 0xA PUSH2 0xA9F SWAP2 SWAP1 PUSH2 0x29D4 JUMP JUMPDEST PUSH1 0x3 PUSH0 DUP3 DUP3 SLOAD PUSH2 0xAAF SWAP2 SWAP1 PUSH2 0x2AA3 JUMP JUMPDEST SWAP3 POP POP DUP2 SWAP1 SSTORE POP PUSH1 0x12 PUSH1 0xA PUSH2 0xAC4 SWAP2 SWAP1 PUSH2 0x298A JUMP JUMPDEST PUSH1 0xA PUSH2 0xAD0 SWAP2 SWAP1 PUSH2 0x29D4 JUMP JUMPDEST PUSH1 0x8 PUSH0 CALLER PUSH20 0xFFFFFFFFFFFFFFFFFFFFFFFFFFFFFFFFFFFFFFFF AND PUSH20 0xFFFFFFFFFFFFFFFFFFFFFFFFFFFFFFFFFFFFFFFF AND DUP2 MSTORE PUSH1 0x20 ADD SWAP1 DUP2 MSTORE PUSH1 0x20 ADD PUSH0 KECCAK256 PUSH0 DUP3 DUP3 SLOAD PUSH2 0xB1B SWAP2 SWAP1 PUSH2 0x2AA3 JUMP JUMPDEST SWAP3 POP POP DUP2 SWAP1 SSTORE POP CALLER PUSH20 0xFFFFFFFFFFFFFFFFFFFFFFFFFFFFFFFFFFFFFFFF AND PUSH32 0xF6798A560793A54C3BCFE86A93CDE1E73087D944C0EA20544137D4121396885 PUSH1 0x12 PUSH1 0xA PUSH2 0xB68 SWAP2 SWAP1 PUSH2 0x298A JUMP JUMPDEST PUSH1 0xA PUSH2 0xB74 SWAP2 SWAP1 PUSH2 0x29D4 JUMP JUMPDEST PUSH1 0x40 MLOAD PUSH2 0xB81 SWAP2 SWAP1 PUSH2 0x2515 JUMP JUMPDEST PUSH1 0x40 MLOAD DUP1 SWAP2 SUB SWAP1 LOG2 CALLER PUSH20 0xFFFFFFFFFFFFFFFFFFFFFFFFFFFFFFFFFFFFFFFF AND PUSH0 PUSH20 0xFFFFFFFFFFFFFFFFFFFFFFFFFFFFFFFFFFFFFFFF AND PUSH32 0xDDF252AD1BE2C89B69C2B068FC378DAA952BA7F163C4A11628F55A4DF523B3EF PUSH1 0x12 PUSH1 0xA PUSH2 0xBE6 SWAP2 SWAP1 PUSH2 0x298A JUMP JUMPDEST PUSH1 0xA PUSH2 0xBF2 SWAP2 SWAP1 PUSH2 0x29D4 JUMP JUMPDEST PUSH1 0x40 MLOAD PUSH2 0xBFF SWAP2 SWAP1 PUSH2 0x2515 JUMP JUMPDEST PUSH1 0x40 MLOAD DUP1 SWAP2 SUB SWAP1 LOG3 PUSH1 0x1 SWAP1 POP SWAP1 JUMP JUMPDEST PUSH0 PUSH0 PUSH1 0x12 PUSH1 0xA PUSH2 0xC1E SWAP2 SWAP1 PUSH2 0x298A JUMP JUMPDEST DUP4 PUSH2 0xC29 SWAP2 SWAP1 PUSH2 0x29D4 JUMP JUMPDEST SWAP1 POP PUSH0 PUSH20 0xFFFFFFFFFFFFFFFFFFFFFFFFFFFFFFFFFFFFFFFF AND DUP5 PUSH20 0xFFFFFFFFFFFFFFFFFFFFFFFFFFFFFFFFFFFFFFFF AND SUB PUSH2 0xC99 JUMPI PUSH1 0x40 MLOAD PUSH32 0x8C379A000000000000000000000000000000000000000000000000000000000 DUP2 MSTORE PUSH1 0x4 ADD PUSH2 0xC90 SWAP1 PUSH2 0x2BF0 JUMP JUMPDEST PUSH1 0x40 MLOAD DUP1 SWAP2 SUB SWAP1 REVERT JUMPDEST PUSH1 0x5 PUSH0 DUP7 PUSH20 0xFFFFFFFFFFFFFFFFFFFFFFFFFFFFFFFFFFFFFFFF AND PUSH20 0xFFFFFFFFFFFFFFFFFFFFFFFFFFFFFFFFFFFFFFFF AND DUP2 MSTORE PUSH1 0x20 ADD SWAP1 DUP2 MSTORE PUSH1 0x20 ADD PUSH0 KECCAK256 SLOAD DUP2 GT ISZERO PUSH2 0xD19 JUMPI PUSH1 0x40 MLOAD PUSH32 0x8C379A000000000000000000000000000000000000000000000000000000000 DUP2 MSTORE PUSH1 0x4 ADD PUSH2 0xD10 SWAP1 PUSH2 0x2C58 JUMP JUMPDEST PUSH1 0x40 MLOAD DUP1 SWAP2 SUB SWAP1 REVERT JUMPDEST PUSH1 0x7 PUSH0 DUP7 PUSH20 0xFFFFFFFFFFFFFFFFFFFFFFFFFFFFFFFFFFFFFFFF AND PUSH20 0xFFFFFFFFFFFFFFFFFFFFFFFFFFFFFFFFFFFFFFFF AND DUP2 MSTORE PUSH1 0x20 ADD SWAP1 DUP2 MSTORE PUSH1 0x20 ADD PUSH0 KECCAK256 PUSH0 CALLER PUSH20 0xFFFFFFFFFFFFFFFFFFFFFFFFFFFFFFFFFFFFFFFF AND PUSH20 0xFFFFFFFFFFFFFFFFFFFFFFFFFFFFFFFFFFFFFFFF AND DUP2 MSTORE PUSH1 0x20 ADD SWAP1 DUP2 MSTORE PUSH1 0x20 ADD PUSH0 KECCAK256 SLOAD DUP2 GT ISZERO PUSH2 0xDD4 JUMPI PUSH1 0x40 MLOAD PUSH32 0x8C379A000000000000000000000000000000000000000000000000000000000 DUP2 MSTORE PUSH1 0x4 ADD PUSH2 0xDCB SWAP1 PUSH2 0x2CC0 JUMP JUMPDEST PUSH1 0x40 MLOAD DUP1 SWAP2 SUB SWAP1 REVERT JUMPDEST PUSH1 0x5 PUSH1 0x4 DUP1 SLOAD SWAP1 POP LT ISZERO PUSH2 0xE1D JUMPI PUSH1 0x40 MLOAD PUSH32 0x8C379A000000000000000000000000000000000000000000000000000000000 DUP2 MSTORE PUSH1 0x4 ADD PUSH2 0xE14 SWAP1 PUSH2 0x2D28 JUMP JUMPDEST PUSH1 0x40 MLOAD DUP1 SWAP2 SUB SWAP1 REVERT JUMPDEST DUP1 PUSH1 0x5 PUSH0 DUP8 PUSH20 0xFFFFFFFFFFFFFFFFFFFFFFFFFFFFFFFFFFFFFFFF AND PUSH20 0xFFFFFFFFFFFFFFFFFFFFFFFFFFFFFFFFFFFFFFFF AND DUP2 MSTORE PUSH1 0x20 ADD SWAP1 DUP2 MSTORE PUSH1 0x20 ADD PUSH0 KECCAK256 PUSH0 DUP3 DUP3 SLOAD PUSH2 0xE69 SWAP2 SWAP1 PUSH2 0x27FB JUMP JUMPDEST SWAP3 POP POP DUP2 SWAP1 SSTORE POP DUP1 PUSH1 0x7 PUSH0 DUP8 PUSH20 0xFFFFFFFFFFFFFFFFFFFFFFFFFFFFFFFFFFFFFFFF AND PUSH20 0xFFFFFFFFFFFFFFFFFFFFFFFFFFFFFFFFFFFFFFFF AND DUP2 MSTORE PUSH1 0x20 ADD SWAP1 DUP2 MSTORE PUSH1 0x20 ADD PUSH0 KECCAK256 PUSH0 CALLER PUSH20 0xFFFFFFFFFFFFFFFFFFFFFFFFFFFFFFFFFFFFFFFF AND PUSH20 0xFFFFFFFFFFFFFFFFFFFFFFFFFFFFFFFFFFFFFFFF AND DUP2 MSTORE PUSH1 0x20 ADD SWAP1 DUP2 MSTORE PUSH1 0x20 ADD PUSH0 KECCAK256 PUSH0 DUP3 DUP3 SLOAD PUSH2 0xEF7 SWAP2 SWAP1 PUSH2 0x27FB JUMP JUMPDEST SWAP3 POP POP DUP2 SWAP1 SSTORE POP PUSH0 PUSH1 0x64 PUSH1 0x3 DUP4 PUSH2 0xF0E SWAP2 SWAP1 PUSH2 0x29D4 JUMP JUMPDEST PUSH2 0xF18 SWAP2 SWAP1 PUSH2 0x2D73 JUMP JUMPDEST SWAP1 POP PUSH0 PUSH1 0x64 PUSH1 0x1 DUP5 PUSH2 0xF2A SWAP2 SWAP1 PUSH2 0x29D4 JUMP JUMPDEST PUSH2 0xF34 SWAP2 SWAP1 PUSH2 0x2D73 JUMP JUMPDEST SWAP1 POP PUSH0 PUSH1 0x5 DUP3 PUSH2 0xF44 SWAP2 SWAP1 PUSH2 0x29D4 JUMP JUMPDEST SWAP1 POP PUSH0 DUP2 DUP5 PUSH2 0xF53 SWAP2 SWAP1 PUSH2 0x2AA3 JUMP JUMPDEST SWAP1 POP PUSH0 DUP2 DUP7 PUSH2 0xF62 SWAP2 SWAP1 PUSH2 0x27FB JUMP JUMPDEST SWAP1 POP DUP1 PUSH1 0x5 PUSH0 DUP12 PUSH20 0xFFFFFFFFFFFFFFFFFFFFFFFFFFFFFFFFFFFFFFFF AND PUSH20 0xFFFFFFFFFFFFFFFFFFFFFFFFFFFFFFFFFFFFFFFF AND DUP2 MSTORE PUSH1 0x20 ADD SWAP1 DUP2 MSTORE PUSH1 0x20 ADD PUSH0 KECCAK256 PUSH0 DUP3 DUP3 SLOAD PUSH2 0xFB0 SWAP2 SWAP1 PUSH2 0x2AA3 JUMP JUMPDEST SWAP3 POP POP DUP2 SWAP1 SSTORE POP DUP5 PUSH1 0x1 PUSH0 DUP3 DUP3 SLOAD PUSH2 0xFC8 SWAP2 SWAP1 PUSH2 0x27FB JUMP JUMPDEST SWAP3 POP POP DUP2 SWAP1 SSTORE POP PUSH0 PUSH0 SWAP1 POP JUMPDEST PUSH1 0x5 DUP2 LT ISZERO PUSH2 0x11A3 JUMPI PUSH1 0x6 PUSH0 PUSH1 0x4 DUP4 DUP2 SLOAD DUP2 LT PUSH2 0xFF4 JUMPI PUSH2 0xFF3 PUSH2 0x27A1 JUMP JUMPDEST JUMPDEST SWAP1 PUSH0 MSTORE PUSH1 0x20 PUSH0 KECCAK256 ADD PUSH0 SWAP1 SLOAD SWAP1 PUSH2 0x100 EXP SWAP1 DIV PUSH20 0xFFFFFFFFFFFFFFFFFFFFFFFFFFFFFFFFFFFFFFFF AND PUSH20 0xFFFFFFFFFFFFFFFFFFFFFFFFFFFFFFFFFFFFFFFF AND PUSH20 0xFFFFFFFFFFFFFFFFFFFFFFFFFFFFFFFFFFFFFFFF AND DUP2 MSTORE PUSH1 0x20 ADD SWAP1 DUP2 MSTORE PUSH1 0x20 ADD PUSH0 KECCAK256 PUSH0 SWAP1 SLOAD SWAP1 PUSH2 0x100 EXP SWAP1 DIV PUSH1 0xFF AND ISZERO PUSH2 0x1196 JUMPI DUP5 PUSH1 0x5 PUSH0 PUSH1 0x4 DUP5 DUP2 SLOAD DUP2 LT PUSH2 0x107F JUMPI PUSH2 0x107E PUSH2 0x27A1 JUMP JUMPDEST JUMPDEST SWAP1 PUSH0 MSTORE PUSH1 0x20 PUSH0 KECCAK256 ADD PUSH0 SWAP1 SLOAD SWAP1 PUSH2 0x100 EXP SWAP1 DIV PUSH20 0xFFFFFFFFFFFFFFFFFFFFFFFFFFFFFFFFFFFFFFFF AND PUSH20 0xFFFFFFFFFFFFFFFFFFFFFFFFFFFFFFFFFFFFFFFF AND PUSH20 0xFFFFFFFFFFFFFFFFFFFFFFFFFFFFFFFFFFFFFFFF AND DUP2 MSTORE PUSH1 0x20 ADD SWAP1 DUP2 MSTORE PUSH1 0x20 ADD PUSH0 KECCAK256 PUSH0 DUP3 DUP3 SLOAD PUSH2 0x10EE SWAP2 SWAP1 PUSH2 0x2AA3 JUMP JUMPDEST SWAP3 POP POP DUP2 SWAP1 SSTORE POP PUSH1 0x4 DUP2 DUP2 SLOAD DUP2 LT PUSH2 0x1109 JUMPI PUSH2 0x1108 PUSH2 0x27A1 JUMP JUMPDEST JUMPDEST SWAP1 PUSH0 MSTORE PUSH1 0x20 PUSH0 KECCAK256 ADD PUSH0 SWAP1 SLOAD SWAP1 PUSH2 0x100 EXP SWAP1 DIV PUSH20 0xFFFFFFFFFFFFFFFFFFFFFFFFFFFFFFFFFFFFFFFF AND PUSH20 0xFFFFFFFFFFFFFFFFFFFFFFFFFFFFFFFFFFFFFFFF AND DUP12 PUSH20 0xFFFFFFFFFFFFFFFFFFFFFFFFFFFFFFFFFFFFFFFF AND PUSH32 0xDDF252AD1BE2C89B69C2B068FC378DAA952BA7F163C4A11628F55A4DF523B3EF DUP8 PUSH1 0x40 MLOAD PUSH2 0x118D SWAP2 SWAP1 PUSH2 0x2515 JUMP JUMPDEST PUSH1 0x40 MLOAD DUP1 SWAP2 SUB SWAP1 LOG3 JUMPDEST DUP1 DUP1 PUSH1 0x1 ADD SWAP2 POP POP PUSH2 0xFD4 JUMP JUMPDEST POP DUP9 PUSH20 0xFFFFFFFFFFFFFFFFFFFFFFFFFFFFFFFFFFFFFFFF AND DUP11 PUSH20 0xFFFFFFFFFFFFFFFFFFFFFFFFFFFFFFFFFFFFFFFF AND PUSH32 0xDDF252AD1BE2C89B69C2B068FC378DAA952BA7F163C4A11628F55A4DF523B3EF DUP4 PUSH1 0x40 MLOAD PUSH2 0x1201 SWAP2 SWAP1 PUSH2 0x2515 JUMP JUMPDEST PUSH1 0x40 MLOAD DUP1 SWAP2 SUB SWAP1 LOG3 PUSH0 PUSH20 0xFFFFFFFFFFFFFFFFFFFFFFFFFFFFFFFFFFFFFFFF AND DUP11 PUSH20 0xFFFFFFFFFFFFFFFFFFFFFFFFFFFFFFFFFFFFFFFF AND PUSH32 0xDDF252AD1BE2C89B69C2B068FC378DAA952BA7F163C4A11628F55A4DF523B3EF DUP8 PUSH1 0x40 MLOAD PUSH2 0x1266 SWAP2 SWAP1 PUSH2 0x2515 JUMP JUMPDEST PUSH1 0x40 MLOAD DUP1 SWAP2 SUB SWAP1 LOG3 PUSH1 0x1 SWAP7 POP POP POP POP POP POP POP SWAP4 SWAP3 POP POP POP JUMP JUMPDEST PUSH0 PUSH1 0x12 SWAP1 POP SWAP1 JUMP JUMPDEST PUSH0 PUSH0 PUSH20 0xFFFFFFFFFFFFFFFFFFFFFFFFFFFFFFFFFFFFFFFF AND DUP4 PUSH20 0xFFFFFFFFFFFFFFFFFFFFFFFFFFFFFFFFFFFFFFFF AND SUB PUSH2 0x12F6 JUMPI PUSH1 0x40 MLOAD PUSH32 0x8C379A000000000000000000000000000000000000000000000000000000000 DUP2 MSTORE PUSH1 0x4 ADD PUSH2 0x12ED SWAP1 PUSH2 0x2E13 JUMP JUMPDEST PUSH1 0x40 MLOAD DUP1 SWAP2 SUB SWAP1 REVERT JUMPDEST PUSH0 PUSH1 0x12 PUSH1 0xA PUSH2 0x1305 SWAP2 SWAP1 PUSH2 0x298A JUMP JUMPDEST DUP4 PUSH2 0x1310 SWAP2 SWAP1 PUSH2 0x29D4 JUMP JUMPDEST SWAP1 POP DUP1 PUSH1 0x7 PUSH0 CALLER PUSH20 0xFFFFFFFFFFFFFFFFFFFFFFFFFFFFFFFFFFFFFFFF AND PUSH20 0xFFFFFFFFFFFFFFFFFFFFFFFFFFFFFFFFFFFFFFFF AND DUP2 MSTORE PUSH1 0x20 ADD SWAP1 DUP2 MSTORE PUSH1 0x20 ADD PUSH0 KECCAK256 PUSH0 DUP7 PUSH20 0xFFFFFFFFFFFFFFFFFFFFFFFFFFFFFFFFFFFFFFFF AND PUSH20 0xFFFFFFFFFFFFFFFFFFFFFFFFFFFFFFFFFFFFFFFF AND DUP2 MSTORE PUSH1 0x20 ADD SWAP1 DUP2 MSTORE PUSH1 0x20 ADD PUSH0 KECCAK256 PUSH0 DUP3 DUP3 SLOAD PUSH2 0x1399 SWAP2 SWAP1 PUSH2 0x2AA3 JUMP JUMPDEST SWAP3 POP POP DUP2 SWAP1 SSTORE POP DUP4 PUSH20 0xFFFFFFFFFFFFFFFFFFFFFFFFFFFFFFFFFFFFFFFF AND CALLER PUSH20 0xFFFFFFFFFFFFFFFFFFFFFFFFFFFFFFFFFFFFFFFF AND PUSH32 0x8C5BE1E5EBEC7D5BD14F71427D1E84F3DD0314C0F7B2291E5B200AC8C7C3B925 PUSH1 0x7 PUSH0 CALLER PUSH20 0xFFFFFFFFFFFFFFFFFFFFFFFFFFFFFFFFFFFFFFFF AND PUSH20 0xFFFFFFFFFFFFFFFFFFFFFFFFFFFFFFFFFFFFFFFF AND DUP2 MSTORE PUSH1 0x20 ADD SWAP1 DUP2 MSTORE PUSH1 0x20 ADD PUSH0 KECCAK256 PUSH0 DUP9 PUSH20 0xFFFFFFFFFFFFFFFFFFFFFFFFFFFFFFFFFFFFFFFF AND PUSH20 0xFFFFFFFFFFFFFFFFFFFFFFFFFFFFFFFFFFFFFFFF AND DUP2 MSTORE PUSH1 0x20 ADD SWAP1 DUP2 MSTORE PUSH1 0x20 ADD PUSH0 KECCAK256 SLOAD PUSH1 0x40 MLOAD PUSH2 0x1475 SWAP2 SWAP1 PUSH2 0x2515 JUMP JUMPDEST PUSH1 0x40 MLOAD DUP1 SWAP2 SUB SWAP1 LOG3 PUSH1 0x1 SWAP2 POP POP SWAP3 SWAP2 POP POP JUMP JUMPDEST PUSH0 PUSH1 0x1 SLOAD SWAP1 POP SWAP1 JUMP JUMPDEST PUSH1 0x60 PUSH1 0x4 DUP1 SLOAD DUP1 PUSH1 0x20 MUL PUSH1 0x20 ADD PUSH1 0x40 MLOAD SWAP1 DUP2 ADD PUSH1 0x40 MSTORE DUP1 SWAP3 SWAP2 SWAP1 DUP2 DUP2 MSTORE PUSH1 0x20 ADD DUP3 DUP1 SLOAD DUP1 ISZERO PUSH2 0x1512 JUMPI PUSH1 0x20 MUL DUP3 ADD SWAP2 SWAP1 PUSH0 MSTORE PUSH1 0x20 PUSH0 KECCAK256 SWAP1 JUMPDEST DUP2 PUSH0 SWAP1 SLOAD SWAP1 PUSH2 0x100 EXP SWAP1 DIV PUSH20 0xFFFFFFFFFFFFFFFFFFFFFFFFFFFFFFFFFFFFFFFF AND PUSH20 0xFFFFFFFFFFFFFFFFFFFFFFFFFFFFFFFFFFFFFFFF AND DUP2 MSTORE PUSH1 0x20 ADD SWAP1 PUSH1 0x1 ADD SWAP1 DUP1 DUP4 GT PUSH2 0x14C9 JUMPI JUMPDEST POP POP POP POP POP SWAP1 POP SWAP1 JUMP JUMPDEST PUSH0 PUSH0 PUSH0 SWAP1 SLOAD SWAP1 PUSH2 0x100 EXP SWAP1 DIV PUSH20 0xFFFFFFFFFFFFFFFFFFFFFFFFFFFFFFFFFFFFFFFF AND PUSH20 0xFFFFFFFFFFFFFFFFFFFFFFFFFFFFFFFFFFFFFFFF AND CALLER PUSH20 0xFFFFFFFFFFFFFFFFFFFFFFFFFFFFFFFFFFFFFFFF AND EQ PUSH2 0x15AB JUMPI PUSH1 0x40 MLOAD PUSH32 0x8C379A000000000000000000000000000000000000000000000000000000000 DUP2 MSTORE PUSH1 0x4 ADD PUSH2 0x15A2 SWAP1 PUSH2 0x271B JUMP JUMPDEST PUSH1 0x40 MLOAD DUP1 SWAP2 SUB SWAP1 REVERT JUMPDEST PUSH1 0x12 PUSH1 0xA PUSH2 0x15B9 SWAP2 SWAP1 PUSH2 0x298A JUMP JUMPDEST PUSH1 0xA PUSH2 0x15C5 SWAP2 SWAP1 PUSH2 0x29D4 JUMP JUMPDEST PUSH1 0x5 PUSH0 CALLER PUSH20 0xFFFFFFFFFFFFFFFFFFFFFFFFFFFFFFFFFFFFFFFF AND PUSH20 0xFFFFFFFFFFFFFFFFFFFFFFFFFFFFFFFFFFFFFFFF AND DUP2 MSTORE PUSH1 0x20 ADD SWAP1 DUP2 MSTORE PUSH1 0x20 ADD PUSH0 KECCAK256 SLOAD LT ISZERO PUSH2 0x1644 JUMPI PUSH1 0x40 MLOAD PUSH32 0x8C379A000000000000000000000000000000000000000000000000000000000 DUP2 MSTORE PUSH1 0x4 ADD PUSH2 0x163B SWAP1 PUSH2 0x2E7B JUMP JUMPDEST PUSH1 0x40 MLOAD DUP1 SWAP2 SUB SWAP1 REVERT JUMPDEST PUSH1 0x12 PUSH1 0xA PUSH2 0x1652 SWAP2 SWAP1 PUSH2 0x298A JUMP JUMPDEST PUSH1 0xA PUSH2 0x165E SWAP2 SWAP1 PUSH2 0x29D4 JUMP JUMPDEST PUSH1 0x5 PUSH0 CALLER PUSH20 0xFFFFFFFFFFFFFFFFFFFFFFFFFFFFFFFFFFFFFFFF AND PUSH20 0xFFFFFFFFFFFFFFFFFFFFFFFFFFFFFFFFFFFFFFFF AND DUP2 MSTORE PUSH1 0x20 ADD SWAP1 DUP2 MSTORE PUSH1 0x20 ADD PUSH0 KECCAK256 PUSH0 DUP3 DUP3 SLOAD PUSH2 0x16A9 SWAP2 SWAP1 PUSH2 0x27FB JUMP JUMPDEST SWAP3 POP POP DUP2 SWAP1 SSTORE POP PUSH1 0x12 PUSH1 0xA PUSH2 0x16BE SWAP2 SWAP1 PUSH2 0x298A JUMP JUMPDEST PUSH1 0xA PUSH2 0x16CA SWAP2 SWAP1 PUSH2 0x29D4 JUMP JUMPDEST PUSH1 0x1 PUSH0 DUP3 DUP3 SLOAD PUSH2 0x16DA SWAP2 SWAP1 PUSH2 0x27FB JUMP JUMPDEST SWAP3 POP POP DUP2 SWAP1 SSTORE POP PUSH0 PUSH20 0xFFFFFFFFFFFFFFFFFFFFFFFFFFFFFFFFFFFFFFFF AND CALLER PUSH20 0xFFFFFFFFFFFFFFFFFFFFFFFFFFFFFFFFFFFFFFFF AND PUSH32 0xDDF252AD1BE2C89B69C2B068FC378DAA952BA7F163C4A11628F55A4DF523B3EF PUSH1 0x12 PUSH1 0xA PUSH2 0x173E SWAP2 SWAP1 PUSH2 0x298A JUMP JUMPDEST PUSH1 0xA PUSH2 0x174A SWAP2 SWAP1 PUSH2 0x29D4 JUMP JUMPDEST PUSH1 0x40 MLOAD PUSH2 0x1757 SWAP2 SWAP1 PUSH2 0x2515 JUMP JUMPDEST PUSH1 0x40 MLOAD DUP1 SWAP2 SUB SWAP1 LOG3 PUSH1 0x1 SWAP1 POP SWAP1 JUMP JUMPDEST PUSH0 PUSH1 0x5 PUSH0 DUP4 PUSH20 0xFFFFFFFFFFFFFFFFFFFFFFFFFFFFFFFFFFFFFFFF AND PUSH20 0xFFFFFFFFFFFFFFFFFFFFFFFFFFFFFFFFFFFFFFFF AND DUP2 MSTORE PUSH1 0x20 ADD SWAP1 DUP2 MSTORE PUSH1 0x20 ADD PUSH0 KECCAK256 SLOAD SWAP1 POP SWAP2 SWAP1 POP JUMP JUMPDEST PUSH0 PUSH0 SWAP1 SLOAD SWAP1 PUSH2 0x100 EXP SWAP1 DIV PUSH20 0xFFFFFFFFFFFFFFFFFFFFFFFFFFFFFFFFFFFFFFFF AND PUSH20 0xFFFFFFFFFFFFFFFFFFFFFFFFFFFFFFFFFFFFFFFF AND CALLER PUSH20 0xFFFFFFFFFFFFFFFFFFFFFFFFFFFFFFFFFFFFFFFF AND EQ PUSH2 0x183A JUMPI PUSH1 0x40 MLOAD PUSH32 0x8C379A000000000000000000000000000000000000000000000000000000000 DUP2 MSTORE PUSH1 0x4 ADD PUSH2 0x1831 SWAP1 PUSH2 0x271B JUMP JUMPDEST PUSH1 0x40 MLOAD DUP1 SWAP2 SUB SWAP1 REVERT JUMPDEST PUSH0 PUSH20 0xFFFFFFFFFFFFFFFFFFFFFFFFFFFFFFFFFFFFFFFF AND DUP3 PUSH20 0xFFFFFFFFFFFFFFFFFFFFFFFFFFFFFFFFFFFFFFFF AND SUB PUSH2 0x18A8 JUMPI PUSH1 0x40 MLOAD PUSH32 0x8C379A000000000000000000000000000000000000000000000000000000000 DUP2 MSTORE PUSH1 0x4 ADD PUSH2 0x189F SWAP1 PUSH2 0x2EE3 JUMP JUMPDEST PUSH1 0x40 MLOAD DUP1 SWAP2 SUB SWAP1 REVERT JUMPDEST PUSH1 0x1 ISZERO ISZERO DUP2 ISZERO ISZERO EQ DUP1 ISZERO PUSH2 0x1903 JUMPI POP PUSH1 0x6 PUSH0 DUP4 PUSH20 0xFFFFFFFFFFFFFFFFFFFFFFFFFFFFFFFFFFFFFFFF AND PUSH20 0xFFFFFFFFFFFFFFFFFFFFFFFFFFFFFFFFFFFFFFFF AND DUP2 MSTORE PUSH1 0x20 ADD SWAP1 DUP2 MSTORE PUSH1 0x20 ADD PUSH0 KECCAK256 PUSH0 SWAP1 SLOAD SWAP1 PUSH2 0x100 EXP SWAP1 DIV PUSH1 0xFF AND ISZERO JUMPDEST ISZERO PUSH2 0x19B1 JUMPI PUSH1 0x5 PUSH1 0x4 DUP1 SLOAD SWAP1 POP LT PUSH2 0x1950 JUMPI PUSH1 0x40 MLOAD PUSH32 0x8C379A000000000000000000000000000000000000000000000000000000000 DUP2 MSTORE PUSH1 0x4 ADD PUSH2 0x1947 SWAP1 PUSH2 0x2F4B JUMP JUMPDEST PUSH1 0x40 MLOAD DUP1 SWAP2 SUB SWAP1 REVERT JUMPDEST PUSH1 0x4 DUP3 SWAP1 DUP1 PUSH1 0x1 DUP2 SLOAD ADD DUP1 DUP3 SSTORE DUP1 SWAP2 POP POP PUSH1 0x1 SWAP1 SUB SWAP1 PUSH0 MSTORE PUSH1 0x20 PUSH0 KECCAK256 ADD PUSH0 SWAP1 SWAP2 SWAP1 SWAP2 SWAP1 SWAP2 PUSH2 0x100 EXP DUP2 SLOAD DUP2 PUSH20 0xFFFFFFFFFFFFFFFFFFFFFFFFFFFFFFFFFFFFFFFF MUL NOT AND SWAP1 DUP4 PUSH20 0xFFFFFFFFFFFFFFFFFFFFFFFFFFFFFFFFFFFFFFFF AND MUL OR SWAP1 SSTORE POP JUMPDEST DUP1 PUSH1 0x6 PUSH0 DUP5 PUSH20 0xFFFFFFFFFFFFFFFFFFFFFFFFFFFFFFFFFFFFFFFF AND PUSH20 0xFFFFFFFFFFFFFFFFFFFFFFFFFFFFFFFFFFFFFFFF AND DUP2 MSTORE PUSH1 0x20 ADD SWAP1 DUP2 MSTORE PUSH1 0x20 ADD PUSH0 KECCAK256 PUSH0 PUSH2 0x100 EXP DUP2 SLOAD DUP2 PUSH1 0xFF MUL NOT AND SWAP1 DUP4 ISZERO ISZERO MUL OR SWAP1 SSTORE POP DUP2 PUSH20 0xFFFFFFFFFFFFFFFFFFFFFFFFFFFFFFFFFFFFFFFF AND PUSH32 0x111B0CDDE6A17355DBEB5CE9B87078297FEC9B61B51550540B0D4E2F1E4913C2 DUP3 PUSH1 0x40 MLOAD PUSH2 0x1A4B SWAP2 SWAP1 PUSH2 0x249D JUMP JUMPDEST PUSH1 0x40 MLOAD DUP1 SWAP2 SUB SWAP1 LOG2 POP POP JUMP JUMPDEST PUSH1 0x60 PUSH1 0x40 MLOAD DUP1 PUSH1 0x40 ADD PUSH1 0x40 MSTORE DUP1 PUSH1 0x3 DUP2 MSTORE PUSH1 0x20 ADD PUSH32 0x42544D0000000000000000000000000000000000000000000000000000000000 DUP2 MSTORE POP SWAP1 POP SWAP1 JUMP JUMPDEST PUSH0 PUSH0 PUSH20 0xFFFFFFFFFFFFFFFFFFFFFFFFFFFFFFFFFFFFFFFF AND DUP4 PUSH20 0xFFFFFFFFFFFFFFFFFFFFFFFFFFFFFFFFFFFFFFFF AND SUB PUSH2 0x1B03 JUMPI PUSH1 0x40 MLOAD PUSH32 0x8C379A000000000000000000000000000000000000000000000000000000000 DUP2 MSTORE PUSH1 0x4 ADD PUSH2 0x1AFA SWAP1 PUSH2 0x2FD9 JUMP JUMPDEST PUSH1 0x40 MLOAD DUP1 SWAP2 SUB SWAP1 REVERT JUMPDEST PUSH0 PUSH1 0x12 PUSH1 0xA PUSH2 0x1B12 SWAP2 SWAP1 PUSH2 0x298A JUMP JUMPDEST DUP4 PUSH2 0x1B1D SWAP2 SWAP1 PUSH2 0x29D4 JUMP JUMPDEST SWAP1 POP DUP1 PUSH1 0x7 PUSH0 CALLER PUSH20 0xFFFFFFFFFFFFFFFFFFFFFFFFFFFFFFFFFFFFFFFF AND PUSH20 0xFFFFFFFFFFFFFFFFFFFFFFFFFFFFFFFFFFFFFFFF AND DUP2 MSTORE PUSH1 0x20 ADD SWAP1 DUP2 MSTORE PUSH1 0x20 ADD PUSH0 KECCAK256 PUSH0 DUP7 PUSH20 0xFFFFFFFFFFFFFFFFFFFFFFFFFFFFFFFFFFFFFFFF AND PUSH20 0xFFFFFFFFFFFFFFFFFFFFFFFFFFFFFFFFFFFFFFFF AND DUP2 MSTORE PUSH1 0x20 ADD SWAP1 DUP2 MSTORE PUSH1 0x20 ADD PUSH0 KECCAK256 SLOAD LT ISZERO PUSH2 0x1BDA JUMPI PUSH1 0x40 MLOAD PUSH32 0x8C379A000000000000000000000000000000000000000000000000000000000 DUP2 MSTORE PUSH1 0x4 ADD PUSH2 0x1BD1 SWAP1 PUSH2 0x3067 JUMP JUMPDEST PUSH1 0x40 MLOAD DUP1 SWAP2 SUB SWAP1 REVERT JUMPDEST DUP1 PUSH1 0x7 PUSH0 CALLER PUSH20 0xFFFFFFFFFFFFFFFFFFFFFFFFFFFFFFFFFFFFFFFF AND PUSH20 0xFFFFFFFFFFFFFFFFFFFFFFFFFFFFFFFFFFFFFFFF AND DUP2 MSTORE PUSH1 0x20 ADD SWAP1 DUP2 MSTORE PUSH1 0x20 ADD PUSH0 KECCAK256 PUSH0 DUP7 PUSH20 0xFFFFFFFFFFFFFFFFFFFFFFFFFFFFFFFFFFFFFFFF AND PUSH20 0xFFFFFFFFFFFFFFFFFFFFFFFFFFFFFFFFFFFFFFFF AND DUP2 MSTORE PUSH1 0x20 ADD SWAP1 DUP2 MSTORE PUSH1 0x20 ADD PUSH0 KECCAK256 PUSH0 DUP3 DUP3 SLOAD PUSH2 0x1C61 SWAP2 SWAP1 PUSH2 0x27FB JUMP JUMPDEST SWAP3 POP POP DUP2 SWAP1 SSTORE POP DUP4 PUSH20 0xFFFFFFFFFFFFFFFFFFFFFFFFFFFFFFFFFFFFFFFF AND CALLER PUSH20 0xFFFFFFFFFFFFFFFFFFFFFFFFFFFFFFFFFFFFFFFF AND PUSH32 0x8C5BE1E5EBEC7D5BD14F71427D1E84F3DD0314C0F7B2291E5B200AC8C7C3B925 PUSH1 0x7 PUSH0 CALLER PUSH20 0xFFFFFFFFFFFFFFFFFFFFFFFFFFFFFFFFFFFFFFFF AND PUSH20 0xFFFFFFFFFFFFFFFFFFFFFFFFFFFFFFFFFFFFFFFF AND DUP2 MSTORE PUSH1 0x20 ADD SWAP1 DUP2 MSTORE PUSH1 0x20 ADD PUSH0 KECCAK256 PUSH0 DUP9 PUSH20 0xFFFFFFFFFFFFFFFFFFFFFFFFFFFFFFFFFFFFFFFF AND PUSH20 0xFFFFFFFFFFFFFFFFFFFFFFFFFFFFFFFFFFFFFFFF AND DUP2 MSTORE PUSH1 0x20 ADD SWAP1 DUP2 MSTORE PUSH1 0x20 ADD PUSH0 KECCAK256 SLOAD PUSH1 0x40 MLOAD PUSH2 0x1D3D SWAP2 SWAP1 PUSH2 0x2515 JUMP JUMPDEST PUSH1 0x40 MLOAD DUP1 SWAP2 SUB SWAP1 LOG3 PUSH1 0x1 SWAP2 POP POP SWAP3 SWAP2 POP POP JUMP JUMPDEST PUSH0 PUSH0 PUSH1 0x12 PUSH1 0xA PUSH2 0x1D60 SWAP2 SWAP1 PUSH2 0x298A JUMP JUMPDEST DUP4 PUSH2 0x1D6B SWAP2 SWAP1 PUSH2 0x29D4 JUMP JUMPDEST SWAP1 POP DUP1 PUSH1 0x5 PUSH0 CALLER PUSH20 0xFFFFFFFFFFFFFFFFFFFFFFFFFFFFFFFFFFFFFFFF AND PUSH20 0xFFFFFFFFFFFFFFFFFFFFFFFFFFFFFFFFFFFFFFFF AND DUP2 MSTORE PUSH1 0x20 ADD SWAP1 DUP2 MSTORE PUSH1 0x20 ADD PUSH0 KECCAK256 SLOAD LT ISZERO PUSH2 0x1DED JUMPI PUSH1 0x40 MLOAD PUSH32 0x8C379A000000000000000000000000000000000000000000000000000000000 DUP2 MSTORE PUSH1 0x4 ADD PUSH2 0x1DE4 SWAP1 PUSH2 0x2C58 JUMP JUMPDEST PUSH1 0x40 MLOAD DUP1 SWAP2 SUB SWAP1 REVERT JUMPDEST PUSH0 PUSH20 0xFFFFFFFFFFFFFFFFFFFFFFFFFFFFFFFFFFFFFFFF AND DUP5 PUSH20 0xFFFFFFFFFFFFFFFFFFFFFFFFFFFFFFFFFFFFFFFF AND SUB PUSH2 0x1E5B JUMPI PUSH1 0x40 MLOAD PUSH32 0x8C379A000000000000000000000000000000000000000000000000000000000 DUP2 MSTORE PUSH1 0x4 ADD PUSH2 0x1E52 SWAP1 PUSH2 0x2BF0 JUMP JUMPDEST PUSH1 0x40 MLOAD DUP1 SWAP2 SUB SWAP1 REVERT JUMPDEST PUSH1 0x5 PUSH1 0x4 DUP1 SLOAD SWAP1 POP LT ISZERO PUSH2 0x1EA4 JUMPI PUSH1 0x40 MLOAD PUSH32 0x8C379A000000000000000000000000000000000000000000000000000000000 DUP2 MSTORE PUSH1 0x4 ADD PUSH2 0x1E9B SWAP1 PUSH2 0x2D28 JUMP JUMPDEST PUSH1 0x40 MLOAD DUP1 SWAP2 SUB SWAP1 REVERT JUMPDEST DUP1 PUSH1 0x5 PUSH0 CALLER PUSH20 0xFFFFFFFFFFFFFFFFFFFFFFFFFFFFFFFFFFFFFFFF AND PUSH20 0xFFFFFFFFFFFFFFFFFFFFFFFFFFFFFFFFFFFFFFFF AND DUP2 MSTORE PUSH1 0x20 ADD SWAP1 DUP2 MSTORE PUSH1 0x20 ADD PUSH0 KECCAK256 PUSH0 DUP3 DUP3 SLOAD PUSH2 0x1EF0 SWAP2 SWAP1 PUSH2 0x27FB JUMP JUMPDEST SWAP3 POP POP DUP2 SWAP1 SSTORE POP PUSH0 PUSH1 0x64 PUSH1 0x3 DUP4 PUSH2 0x1F07 SWAP2 SWAP1 PUSH2 0x29D4 JUMP JUMPDEST PUSH2 0x1F11 SWAP2 SWAP1 PUSH2 0x2D73 JUMP JUMPDEST SWAP1 POP PUSH0 PUSH1 0x64 PUSH1 0x1 DUP5 PUSH2 0x1F23 SWAP2 SWAP1 PUSH2 0x29D4 JUMP JUMPDEST PUSH2 0x1F2D SWAP2 SWAP1 PUSH2 0x2D73 JUMP JUMPDEST SWAP1 POP PUSH0 PUSH1 0x5 DUP3 PUSH2 0x1F3D SWAP2 SWAP1 PUSH2 0x29D4 JUMP JUMPDEST SWAP1 POP PUSH0 DUP2 DUP5 PUSH2 0x1F4C SWAP2 SWAP1 PUSH2 0x2AA3 JUMP JUMPDEST SWAP1 POP PUSH0 DUP2 DUP7 PUSH2 0x1F5B SWAP2 SWAP1 PUSH2 0x27FB JUMP JUMPDEST SWAP1 POP DUP1 PUSH1 0x5 PUSH0 DUP12 PUSH20 0xFFFFFFFFFFFFFFFFFFFFFFFFFFFFFFFFFFFFFFFF AND PUSH20 0xFFFFFFFFFFFFFFFFFFFFFFFFFFFFFFFFFFFFFFFF AND DUP2 MSTORE PUSH1 0x20 ADD SWAP1 DUP2 MSTORE PUSH1 0x20 ADD PUSH0 KECCAK256 PUSH0 DUP3 DUP3 SLOAD PUSH2 0x1FA9 SWAP2 SWAP1 PUSH2 0x2AA3 JUMP JUMPDEST SWAP3 POP POP DUP2 SWAP1 SSTORE POP DUP5 PUSH1 0x1 PUSH0 DUP3 DUP3 SLOAD PUSH2 0x1FC1 SWAP2 SWAP1 PUSH2 0x27FB JUMP JUMPDEST SWAP3 POP POP DUP2 SWAP1 SSTORE POP PUSH0 PUSH0 SWAP1 POP JUMPDEST PUSH1 0x5 DUP2 LT ISZERO PUSH2 0x219C JUMPI PUSH1 0x6 PUSH0 PUSH1 0x4 DUP4 DUP2 SLOAD DUP2 LT PUSH2 0x1FED JUMPI PUSH2 0x1FEC PUSH2 0x27A1 JUMP JUMPDEST JUMPDEST SWAP1 PUSH0 MSTORE PUSH1 0x20 PUSH0 KECCAK256 ADD PUSH0 SWAP1 SLOAD SWAP1 PUSH2 0x100 EXP SWAP1 DIV PUSH20 0xFFFFFFFFFFFFFFFFFFFFFFFFFFFFFFFFFFFFFFFF AND PUSH20 0xFFFFFFFFFFFFFFFFFFFFFFFFFFFFFFFFFFFFFFFF AND PUSH20 0xFFFFFFFFFFFFFFFFFFFFFFFFFFFFFFFFFFFFFFFF AND DUP2 MSTORE PUSH1 0x20 ADD SWAP1 DUP2 MSTORE PUSH1 0x20 ADD PUSH0 KECCAK256 PUSH0 SWAP1 SLOAD SWAP1 PUSH2 0x100 EXP SWAP1 DIV PUSH1 0xFF AND ISZERO PUSH2 0x218F JUMPI DUP5 PUSH1 0x5 PUSH0 PUSH1 0x4 DUP5 DUP2 SLOAD DUP2 LT PUSH2 0x2078 JUMPI PUSH2 0x2077 PUSH2 0x27A1 JUMP JUMPDEST JUMPDEST SWAP1 PUSH0 MSTORE PUSH1 0x20 PUSH0 KECCAK256 ADD PUSH0 SWAP1 SLOAD SWAP1 PUSH2 0x100 EXP SWAP1 DIV PUSH20 0xFFFFFFFFFFFFFFFFFFFFFFFFFFFFFFFFFFFFFFFF AND PUSH20 0xFFFFFFFFFFFFFFFFFFFFFFFFFFFFFFFFFFFFFFFF AND PUSH20 0xFFFFFFFFFFFFFFFFFFFFFFFFFFFFFFFFFFFFFFFF AND DUP2 MSTORE PUSH1 0x20 ADD SWAP1 DUP2 MSTORE PUSH1 0x20 ADD PUSH0 KECCAK256 PUSH0 DUP3 DUP3 SLOAD PUSH2 0x20E7 SWAP2 SWAP1 PUSH2 0x2AA3 JUMP JUMPDEST SWAP3 POP POP DUP2 SWAP1 SSTORE POP PUSH1 0x4 DUP2 DUP2 SLOAD DUP2 LT PUSH2 0x2102 JUMPI PUSH2 0x2101 PUSH2 0x27A1 JUMP JUMPDEST JUMPDEST SWAP1 PUSH0 MSTORE PUSH1 0x20 PUSH0 KECCAK256 ADD PUSH0 SWAP1 SLOAD SWAP1 PUSH2 0x100 EXP SWAP1 DIV PUSH20 0xFFFFFFFFFFFFFFFFFFFFFFFFFFFFFFFFFFFFFFFF AND PUSH20 0xFFFFFFFFFFFFFFFFFFFFFFFFFFFFFFFFFFFFFFFF AND CALLER PUSH20 0xFFFFFFFFFFFFFFFFFFFFFFFFFFFFFFFFFFFFFFFF AND PUSH32 0xDDF252AD1BE2C89B69C2B068FC378DAA952BA7F163C4A11628F55A4DF523B3EF DUP8 PUSH1 0x40 MLOAD PUSH2 0x2186 SWAP2 SWAP1 PUSH2 0x2515 JUMP JUMPDEST PUSH1 0x40 MLOAD DUP1 SWAP2 SUB SWAP1 LOG3 JUMPDEST DUP1 DUP1 PUSH1 0x1 ADD SWAP2 POP POP PUSH2 0x1FCD JUMP JUMPDEST POP DUP9 PUSH20 0xFFFFFFFFFFFFFFFFFFFFFFFFFFFFFFFFFFFFFFFF AND CALLER PUSH20 0xFFFFFFFFFFFFFFFFFFFFFFFFFFFFFFFFFFFFFFFF AND PUSH32 0xDDF252AD1BE2C89B69C2B068FC378DAA952BA7F163C4A11628F55A4DF523B3EF DUP4 PUSH1 0x40 MLOAD PUSH2 0x21FA SWAP2 SWAP1 PUSH2 0x2515 JUMP JUMPDEST PUSH1 0x40 MLOAD DUP1 SWAP2 SUB SWAP1 LOG3 PUSH0 PUSH20 0xFFFFFFFFFFFFFFFFFFFFFFFFFFFFFFFFFFFFFFFF AND CALLER PUSH20 0xFFFFFFFFFFFFFFFFFFFFFFFFFFFFFFFFFFFFFFFF AND PUSH32 0xDDF252AD1BE2C89B69C2B068FC378DAA952BA7F163C4A11628F55A4DF523B3EF DUP8 PUSH1 0x40 MLOAD PUSH2 0x225F SWAP2 SWAP1 PUSH2 0x2515 JUMP JUMPDEST PUSH1 0x40 MLOAD DUP1 SWAP2 SUB SWAP1 LOG3 PUSH1 0x1 SWAP7 POP POP POP POP POP POP POP SWAP3 SWAP2 POP POP JUMP JUMPDEST PUSH0 PUSH1 0x7 PUSH0 DUP5 PUSH20 0xFFFFFFFFFFFFFFFFFFFFFFFFFFFFFFFFFFFFFFFF AND PUSH20 0xFFFFFFFFFFFFFFFFFFFFFFFFFFFFFFFFFFFFFFFF AND DUP2 MSTORE PUSH1 0x20 ADD SWAP1 DUP2 MSTORE PUSH1 0x20 ADD PUSH0 KECCAK256 PUSH0 DUP4 PUSH20 0xFFFFFFFFFFFFFFFFFFFFFFFFFFFFFFFFFFFFFFFF AND PUSH20 0xFFFFFFFFFFFFFFFFFFFFFFFFFFFFFFFFFFFFFFFF AND DUP2 MSTORE PUSH1 0x20 ADD SWAP1 DUP2 MSTORE PUSH1 0x20 ADD PUSH0 KECCAK256 SLOAD SWAP1 POP SWAP3 SWAP2 POP POP JUMP JUMPDEST PUSH0 PUSH0 REVERT JUMPDEST PUSH0 PUSH20 0xFFFFFFFFFFFFFFFFFFFFFFFFFFFFFFFFFFFFFFFF DUP3 AND SWAP1 POP SWAP2 SWAP1 POP JUMP JUMPDEST PUSH0 PUSH2 0x2326 DUP3 PUSH2 0x22FD JUMP JUMPDEST SWAP1 POP SWAP2 SWAP1 POP JUMP JUMPDEST PUSH2 0x2336 DUP2 PUSH2 0x231C JUMP JUMPDEST DUP2 EQ PUSH2 0x2340 JUMPI PUSH0 PUSH0 REVERT JUMPDEST POP JUMP JUMPDEST PUSH0 DUP2 CALLDATALOAD SWAP1 POP PUSH2 0x2351 DUP2 PUSH2 0x232D JUMP JUMPDEST SWAP3 SWAP2 POP POP JUMP JUMPDEST PUSH0 PUSH1 0x20 DUP3 DUP5 SUB SLT ISZERO PUSH2 0x236C JUMPI PUSH2 0x236B PUSH2 0x22F9 JUMP JUMPDEST JUMPDEST PUSH0 PUSH2 0x2379 DUP5 DUP3 DUP6 ADD PUSH2 0x2343 JUMP JUMPDEST SWAP2 POP POP SWAP3 SWAP2 POP POP JUMP JUMPDEST PUSH0 DUP2 MLOAD SWAP1 POP SWAP2 SWAP1 POP JUMP JUMPDEST PUSH0 DUP3 DUP3 MSTORE PUSH1 0x20 DUP3 ADD SWAP1 POP SWAP3 SWAP2 POP POP JUMP JUMPDEST DUP3 DUP2 DUP4 MCOPY PUSH0 DUP4 DUP4 ADD MSTORE POP POP POP JUMP JUMPDEST PUSH0 PUSH1 0x1F NOT PUSH1 0x1F DUP4 ADD AND SWAP1 POP SWAP2 SWAP1 POP JUMP JUMPDEST PUSH0 PUSH2 0x23C4 DUP3 PUSH2 0x2382 JUMP JUMPDEST PUSH2 0x23CE DUP2 DUP6 PUSH2 0x238C JUMP JUMPDEST SWAP4 POP PUSH2 0x23DE DUP2 DUP6 PUSH1 0x20 DUP7 ADD PUSH2 0x239C JUMP JUMPDEST PUSH2 0x23E7 DUP2 PUSH2 0x23AA JUMP JUMPDEST DUP5 ADD SWAP2 POP POP SWAP3 SWAP2 POP POP JUMP JUMPDEST PUSH0 PUSH1 0x20 DUP3 ADD SWAP1 POP DUP2 DUP2 SUB PUSH0 DUP4 ADD MSTORE PUSH2 0x240A DUP2 DUP5 PUSH2 0x23BA JUMP JUMPDEST SWAP1 POP SWAP3 SWAP2 POP POP JUMP JUMPDEST PUSH0 DUP2 SWAP1 POP SWAP2 SWAP1 POP JUMP JUMPDEST PUSH2 0x2424 DUP2 PUSH2 0x2412 JUMP JUMPDEST DUP2 EQ PUSH2 0x242E JUMPI PUSH0 PUSH0 REVERT JUMPDEST POP JUMP JUMPDEST PUSH0 DUP2 CALLDATALOAD SWAP1 POP PUSH2 0x243F DUP2 PUSH2 0x241B JUMP JUMPDEST SWAP3 SWAP2 POP POP JUMP JUMPDEST PUSH0 PUSH0 PUSH1 0x40 DUP4 DUP6 SUB SLT ISZERO PUSH2 0x245B JUMPI PUSH2 0x245A PUSH2 0x22F9 JUMP JUMPDEST JUMPDEST PUSH0 PUSH2 0x2468 DUP6 DUP3 DUP7 ADD PUSH2 0x2343 JUMP JUMPDEST SWAP3 POP POP PUSH1 0x20 PUSH2 0x2479 DUP6 DUP3 DUP7 ADD PUSH2 0x2431 JUMP JUMPDEST SWAP2 POP POP SWAP3 POP SWAP3 SWAP1 POP JUMP JUMPDEST PUSH0 DUP2 ISZERO ISZERO SWAP1 POP SWAP2 SWAP1 POP JUMP JUMPDEST PUSH2 0x2497 DUP2 PUSH2 0x2483 JUMP JUMPDEST DUP3 MSTORE POP POP JUMP JUMPDEST PUSH0 PUSH1 0x20 DUP3 ADD SWAP1 POP PUSH2 0x24B0 PUSH0 DUP4 ADD DUP5 PUSH2 0x248E JUMP JUMPDEST SWAP3 SWAP2 POP POP JUMP JUMPDEST PUSH0 PUSH0 PUSH0 PUSH1 0x60 DUP5 DUP7 SUB SLT ISZERO PUSH2 0x24CD JUMPI PUSH2 0x24CC PUSH2 0x22F9 JUMP JUMPDEST JUMPDEST PUSH0 PUSH2 0x24DA DUP7 DUP3 DUP8 ADD PUSH2 0x2343 JUMP JUMPDEST SWAP4 POP POP PUSH1 0x20 PUSH2 0x24EB DUP7 DUP3 DUP8 ADD PUSH2 0x2343 JUMP JUMPDEST SWAP3 POP POP PUSH1 0x40 PUSH2 0x24FC DUP7 DUP3 DUP8 ADD PUSH2 0x2431 JUMP JUMPDEST SWAP2 POP POP SWAP3 POP SWAP3 POP SWAP3 JUMP JUMPDEST PUSH2 0x250F DUP2 PUSH2 0x2412 JUMP JUMPDEST DUP3 MSTORE POP POP JUMP JUMPDEST PUSH0 PUSH1 0x20 DUP3 ADD SWAP1 POP PUSH2 0x2528 PUSH0 DUP4 ADD DUP5 PUSH2 0x2506 JUMP JUMPDEST SWAP3 SWAP2 POP POP JUMP JUMPDEST PUSH0 DUP2 MLOAD SWAP1 POP SWAP2 SWAP1 POP JUMP JUMPDEST PUSH0 DUP3 DUP3 MSTORE PUSH1 0x20 DUP3 ADD SWAP1 POP SWAP3 SWAP2 POP POP JUMP JUMPDEST PUSH0 DUP2 SWAP1 POP PUSH1 0x20 DUP3 ADD SWAP1 POP SWAP2 SWAP1 POP JUMP JUMPDEST PUSH2 0x2560 DUP2 PUSH2 0x231C JUMP JUMPDEST DUP3 MSTORE POP POP JUMP JUMPDEST PUSH0 PUSH2 0x2571 DUP4 DUP4 PUSH2 0x2557 JUMP JUMPDEST PUSH1 0x20 DUP4 ADD SWAP1 POP SWAP3 SWAP2 POP POP JUMP JUMPDEST PUSH0 PUSH1 0x20 DUP3 ADD SWAP1 POP SWAP2 SWAP1 POP JUMP JUMPDEST PUSH0 PUSH2 0x2593 DUP3 PUSH2 0x252E JUMP JUMPDEST PUSH2 0x259D DUP2 DUP6 PUSH2 0x2538 JUMP JUMPDEST SWAP4 POP PUSH2 0x25A8 DUP4 PUSH2 0x2548 JUMP JUMPDEST DUP1 PUSH0 JUMPDEST DUP4 DUP2 LT ISZERO PUSH2 0x25D8 JUMPI DUP2 MLOAD PUSH2 0x25BF DUP9 DUP3 PUSH2 0x2566 JUMP JUMPDEST SWAP8 POP PUSH2 0x25CA DUP4 PUSH2 0x257D JUMP JUMPDEST SWAP3 POP POP PUSH1 0x1 DUP2 ADD SWAP1 POP PUSH2 0x25AB JUMP JUMPDEST POP DUP6 SWAP4 POP POP POP POP SWAP3 SWAP2 POP POP JUMP JUMPDEST PUSH0 PUSH1 0x20 DUP3 ADD SWAP1 POP DUP2 DUP2 SUB PUSH0 DUP4 ADD MSTORE PUSH2 0x25FD DUP2 DUP5 PUSH2 0x2589 JUMP JUMPDEST SWAP1 POP SWAP3 SWAP2 POP POP JUMP JUMPDEST PUSH2 0x260E DUP2 PUSH2 0x2483 JUMP JUMPDEST DUP2 EQ PUSH2 0x2618 JUMPI PUSH0 PUSH0 REVERT JUMPDEST POP JUMP JUMPDEST PUSH0 DUP2 CALLDATALOAD SWAP1 POP PUSH2 0x2629 DUP2 PUSH2 0x2605 JUMP JUMPDEST SWAP3 SWAP2 POP POP JUMP JUMPDEST PUSH0 PUSH0 PUSH1 0x40 DUP4 DUP6 SUB SLT ISZERO PUSH2 0x2645 JUMPI PUSH2 0x2644 PUSH2 0x22F9 JUMP JUMPDEST JUMPDEST PUSH0 PUSH2 0x2652 DUP6 DUP3 DUP7 ADD PUSH2 0x2343 JUMP JUMPDEST SWAP3 POP POP PUSH1 0x20 PUSH2 0x2663 DUP6 DUP3 DUP7 ADD PUSH2 0x261B JUMP JUMPDEST SWAP2 POP POP SWAP3 POP SWAP3 SWAP1 POP JUMP JUMPDEST PUSH0 PUSH0 PUSH1 0x40 DUP4 DUP6 SUB SLT ISZERO PUSH2 0x2683 JUMPI PUSH2 0x2682 PUSH2 0x22F9 JUMP JUMPDEST JUMPDEST PUSH0 PUSH2 0x2690 DUP6 DUP3 DUP7 ADD PUSH2 0x2343 JUMP JUMPDEST SWAP3 POP POP PUSH1 0x20 PUSH2 0x26A1 DUP6 DUP3 DUP7 ADD PUSH2 0x2343 JUMP JUMPDEST SWAP2 POP POP SWAP3 POP SWAP3 SWAP1 POP JUMP JUMPDEST PUSH32 0x6F6E6C79206F776E657220686176652061636365737320746F20746869732066 PUSH0 DUP3 ADD MSTORE PUSH32 0x756E6374696F6E00000000000000000000000000000000000000000000000000 PUSH1 0x20 DUP3 ADD MSTORE POP JUMP JUMPDEST PUSH0 PUSH2 0x2705 PUSH1 0x27 DUP4 PUSH2 0x238C JUMP JUMPDEST SWAP2 POP PUSH2 0x2710 DUP3 PUSH2 0x26AB JUMP JUMPDEST PUSH1 0x40 DUP3 ADD SWAP1 POP SWAP2 SWAP1 POP JUMP JUMPDEST PUSH0 PUSH1 0x20 DUP3 ADD SWAP1 POP DUP2 DUP2 SUB PUSH0 DUP4 ADD MSTORE PUSH2 0x2732 DUP2 PUSH2 0x26F9 JUMP JUMPDEST SWAP1 POP SWAP2 SWAP1 POP JUMP JUMPDEST PUSH32 0x55736572206E6F742057686974654C6973746564000000000000000000000000 PUSH0 DUP3 ADD MSTORE POP JUMP JUMPDEST PUSH0 PUSH2 0x276D PUSH1 0x14 DUP4 PUSH2 0x238C JUMP JUMPDEST SWAP2 POP PUSH2 0x2778 DUP3 PUSH2 0x2739 JUMP JUMPDEST PUSH1 0x20 DUP3 ADD SWAP1 POP SWAP2 SWAP1 POP JUMP JUMPDEST PUSH0 PUSH1 0x20 DUP3 ADD SWAP1 POP DUP2 DUP2 SUB PUSH0 DUP4 ADD MSTORE PUSH2 0x279A DUP2 PUSH2 0x2761 JUMP JUMPDEST SWAP1 POP SWAP2 SWAP1 POP JUMP JUMPDEST PUSH32 0x4E487B7100000000000000000000000000000000000000000000000000000000 PUSH0 MSTORE PUSH1 0x32 PUSH1 0x4 MSTORE PUSH1 0x24 PUSH0 REVERT JUMPDEST PUSH32 0x4E487B7100000000000000000000000000000000000000000000000000000000 PUSH0 MSTORE PUSH1 0x11 PUSH1 0x4 MSTORE PUSH1 0x24 PUSH0 REVERT JUMPDEST PUSH0 PUSH2 0x2805 DUP3 PUSH2 0x2412 JUMP JUMPDEST SWAP2 POP PUSH2 0x2810 DUP4 PUSH2 0x2412 JUMP JUMPDEST SWAP3 POP DUP3 DUP3 SUB SWAP1 POP DUP2 DUP2 GT ISZERO PUSH2 0x2828 JUMPI PUSH2 0x2827 PUSH2 0x27CE JUMP JUMPDEST JUMPDEST SWAP3 SWAP2 POP POP JUMP JUMPDEST PUSH32 0x4E487B7100000000000000000000000000000000000000000000000000000000 PUSH0 MSTORE PUSH1 0x31 PUSH1 0x4 MSTORE PUSH1 0x24 PUSH0 REVERT JUMPDEST PUSH0 DUP2 PUSH1 0x1 SHR SWAP1 POP SWAP2 SWAP1 POP JUMP JUMPDEST PUSH0 PUSH0 DUP3 SWAP2 POP DUP4 SWAP1 POP JUMPDEST PUSH1 0x1 DUP6 GT ISZERO PUSH2 0x28B0 JUMPI DUP1 DUP7 DIV DUP2 GT ISZERO PUSH2 0x288C JUMPI PUSH2 0x288B PUSH2 0x27CE JUMP JUMPDEST JUMPDEST PUSH1 0x1 DUP6 AND ISZERO PUSH2 0x289B JUMPI DUP1 DUP3 MUL SWAP2 POP JUMPDEST DUP1 DUP2 MUL SWAP1 POP PUSH2 0x28A9 DUP6 PUSH2 0x285B JUMP JUMPDEST SWAP5 POP PUSH2 0x2870 JUMP JUMPDEST SWAP5 POP SWAP5 SWAP3 POP POP POP JUMP JUMPDEST PUSH0 DUP3 PUSH2 0x28C8 JUMPI PUSH1 0x1 SWAP1 POP PUSH2 0x2983 JUMP JUMPDEST DUP2 PUSH2 0x28D5 JUMPI PUSH0 SWAP1 POP PUSH2 0x2983 JUMP JUMPDEST DUP2 PUSH1 0x1 DUP2 EQ PUSH2 0x28EB JUMPI PUSH1 0x2 DUP2 EQ PUSH2 0x28F5 JUMPI PUSH2 0x2924 JUMP JUMPDEST PUSH1 0x1 SWAP2 POP POP PUSH2 0x2983 JUMP JUMPDEST PUSH1 0xFF DUP5 GT ISZERO PUSH2 0x2907 JUMPI PUSH2 0x2906 PUSH2 0x27CE JUMP JUMPDEST JUMPDEST DUP4 PUSH1 0x2 EXP SWAP2 POP DUP5 DUP3 GT ISZERO PUSH2 0x291E JUMPI PUSH2 0x291D PUSH2 0x27CE JUMP JUMPDEST JUMPDEST POP PUSH2 0x2983 JUMP JUMPDEST POP PUSH1 0x20 DUP4 LT PUSH2 0x133 DUP4 LT AND PUSH1 0x4E DUP5 LT PUSH1 0xB DUP5 LT AND OR ISZERO PUSH2 0x2959 JUMPI DUP3 DUP3 EXP SWAP1 POP DUP4 DUP2 GT ISZERO PUSH2 0x2954 JUMPI PUSH2 0x2953 PUSH2 0x27CE JUMP JUMPDEST JUMPDEST PUSH2 0x2983 JUMP JUMPDEST PUSH2 0x2966 DUP5 DUP5 DUP5 PUSH1 0x1 PUSH2 0x2867 JUMP JUMPDEST SWAP3 POP SWAP1 POP DUP2 DUP5 DIV DUP2 GT ISZERO PUSH2 0x297D JUMPI PUSH2 0x297C PUSH2 0x27CE JUMP JUMPDEST JUMPDEST DUP2 DUP2 MUL SWAP1 POP JUMPDEST SWAP4 SWAP3 POP POP POP JUMP JUMPDEST PUSH0 PUSH2 0x2994 DUP3 PUSH2 0x2412 JUMP JUMPDEST SWAP2 POP PUSH2 0x299F DUP4 PUSH2 0x2412 JUMP JUMPDEST SWAP3 POP PUSH2 0x29CC PUSH32 0xFFFFFFFFFFFFFFFFFFFFFFFFFFFFFFFFFFFFFFFFFFFFFFFFFFFFFFFFFFFFFFFF DUP5 DUP5 PUSH2 0x28B9 JUMP JUMPDEST SWAP1 POP SWAP3 SWAP2 POP POP JUMP JUMPDEST PUSH0 PUSH2 0x29DE DUP3 PUSH2 0x2412 JUMP JUMPDEST SWAP2 POP PUSH2 0x29E9 DUP4 PUSH2 0x2412 JUMP JUMPDEST SWAP3 POP DUP3 DUP3 MUL PUSH2 0x29F7 DUP2 PUSH2 0x2412 JUMP JUMPDEST SWAP2 POP DUP3 DUP3 DIV DUP5 EQ DUP4 ISZERO OR PUSH2 0x2A0E JUMPI PUSH2 0x2A0D PUSH2 0x27CE JUMP JUMPDEST JUMPDEST POP SWAP3 SWAP2 POP POP JUMP JUMPDEST PUSH32 0x43616E6E6F7420617070726F766520616D6F756E7420746F2061207A65726F20 PUSH0 DUP3 ADD MSTORE PUSH32 0x6164647265737300000000000000000000000000000000000000000000000000 PUSH1 0x20 DUP3 ADD MSTORE POP JUMP JUMPDEST PUSH0 PUSH2 0x2A6F PUSH1 0x27 DUP4 PUSH2 0x238C JUMP JUMPDEST SWAP2 POP PUSH2 0x2A7A DUP3 PUSH2 0x2A15 JUMP JUMPDEST PUSH1 0x40 DUP3 ADD SWAP1 POP SWAP2 SWAP1 POP JUMP JUMPDEST PUSH0 PUSH1 0x20 DUP3 ADD SWAP1 POP DUP2 DUP2 SUB PUSH0 DUP4 ADD MSTORE PUSH2 0x2A9C DUP2 PUSH2 0x2A63 JUMP JUMPDEST SWAP1 POP SWAP2 SWAP1 POP JUMP JUMPDEST PUSH0 PUSH2 0x2AAD DUP3 PUSH2 0x2412 JUMP JUMPDEST SWAP2 POP PUSH2 0x2AB8 DUP4 PUSH2 0x2412 JUMP JUMPDEST SWAP3 POP DUP3 DUP3 ADD SWAP1 POP DUP1 DUP3 GT ISZERO PUSH2 0x2AD0 JUMPI PUSH2 0x2ACF PUSH2 0x27CE JUMP JUMPDEST JUMPDEST SWAP3 SWAP2 POP POP JUMP JUMPDEST PUSH32 0x4D617820737570706C7920657863656564656400000000000000000000000000 PUSH0 DUP3 ADD MSTORE POP JUMP JUMPDEST PUSH0 PUSH2 0x2B0A PUSH1 0x13 DUP4 PUSH2 0x238C JUMP JUMPDEST SWAP2 POP PUSH2 0x2B15 DUP3 PUSH2 0x2AD6 JUMP JUMPDEST PUSH1 0x20 DUP3 ADD SWAP1 POP SWAP2 SWAP1 POP JUMP JUMPDEST PUSH0 PUSH1 0x20 DUP3 ADD SWAP1 POP DUP2 DUP2 SUB PUSH0 DUP4 ADD MSTORE PUSH2 0x2B37 DUP2 PUSH2 0x2AFE JUMP JUMPDEST SWAP1 POP SWAP2 SWAP1 POP JUMP JUMPDEST PUSH32 0x4D6178696D756D206C696D697420726561636865640000000000000000000000 PUSH0 DUP3 ADD MSTORE POP JUMP JUMPDEST PUSH0 PUSH2 0x2B72 PUSH1 0x15 DUP4 PUSH2 0x238C JUMP JUMPDEST SWAP2 POP PUSH2 0x2B7D DUP3 PUSH2 0x2B3E JUMP JUMPDEST PUSH1 0x20 DUP3 ADD SWAP1 POP SWAP2 SWAP1 POP JUMP JUMPDEST PUSH0 PUSH1 0x20 DUP3 ADD SWAP1 POP DUP2 DUP2 SUB PUSH0 DUP4 ADD MSTORE PUSH2 0x2B9F DUP2 PUSH2 0x2B66 JUMP JUMPDEST SWAP1 POP SWAP2 SWAP1 POP JUMP JUMPDEST PUSH32 0x43616E6E6F74207472616E7366657220746F207A65726F206164647265737300 PUSH0 DUP3 ADD MSTORE POP JUMP JUMPDEST PUSH0 PUSH2 0x2BDA PUSH1 0x1F DUP4 PUSH2 0x238C JUMP JUMPDEST SWAP2 POP PUSH2 0x2BE5 DUP3 PUSH2 0x2BA6 JUMP JUMPDEST PUSH1 0x20 DUP3 ADD SWAP1 POP SWAP2 SWAP1 POP JUMP JUMPDEST PUSH0 PUSH1 0x20 DUP3 ADD SWAP1 POP DUP2 DUP2 SUB PUSH0 DUP4 ADD MSTORE PUSH2 0x2C07 DUP2 PUSH2 0x2BCE JUMP JUMPDEST SWAP1 POP SWAP2 SWAP1 POP JUMP JUMPDEST PUSH32 0x496E73756666696369656E742062616C616E6365000000000000000000000000 PUSH0 DUP3 ADD MSTORE POP JUMP JUMPDEST PUSH0 PUSH2 0x2C42 PUSH1 0x14 DUP4 PUSH2 0x238C JUMP JUMPDEST SWAP2 POP PUSH2 0x2C4D DUP3 PUSH2 0x2C0E JUMP JUMPDEST PUSH1 0x20 DUP3 ADD SWAP1 POP SWAP2 SWAP1 POP JUMP JUMPDEST PUSH0 PUSH1 0x20 DUP3 ADD SWAP1 POP DUP2 DUP2 SUB PUSH0 DUP4 ADD MSTORE PUSH2 0x2C6F DUP2 PUSH2 0x2C36 JUMP JUMPDEST SWAP1 POP SWAP2 SWAP1 POP JUMP JUMPDEST PUSH32 0x416C6C6F77616E63652065786365656465640000000000000000000000000000 PUSH0 DUP3 ADD MSTORE POP JUMP JUMPDEST PUSH0 PUSH2 0x2CAA PUSH1 0x12 DUP4 PUSH2 0x238C JUMP JUMPDEST SWAP2 POP PUSH2 0x2CB5 DUP3 PUSH2 0x2C76 JUMP JUMPDEST PUSH1 0x20 DUP3 ADD SWAP1 POP SWAP2 SWAP1 POP JUMP JUMPDEST PUSH0 PUSH1 0x20 DUP3 ADD SWAP1 POP DUP2 DUP2 SUB PUSH0 DUP4 ADD MSTORE PUSH2 0x2CD7 DUP2 PUSH2 0x2C9E JUMP JUMPDEST SWAP1 POP SWAP2 SWAP1 POP JUMP JUMPDEST PUSH32 0x4E65656420352077686974656C69737465642075736572730000000000000000 PUSH0 DUP3 ADD MSTORE POP JUMP JUMPDEST PUSH0 PUSH2 0x2D12 PUSH1 0x18 DUP4 PUSH2 0x238C JUMP JUMPDEST SWAP2 POP PUSH2 0x2D1D DUP3 PUSH2 0x2CDE JUMP JUMPDEST PUSH1 0x20 DUP3 ADD SWAP1 POP SWAP2 SWAP1 POP JUMP JUMPDEST PUSH0 PUSH1 0x20 DUP3 ADD SWAP1 POP DUP2 DUP2 SUB PUSH0 DUP4 ADD MSTORE PUSH2 0x2D3F DUP2 PUSH2 0x2D06 JUMP JUMPDEST SWAP1 POP SWAP2 SWAP1 POP JUMP JUMPDEST PUSH32 0x4E487B7100000000000000000000000000000000000000000000000000000000 PUSH0 MSTORE PUSH1 0x12 PUSH1 0x4 MSTORE PUSH1 0x24 PUSH0 REVERT JUMPDEST PUSH0 PUSH2 0x2D7D DUP3 PUSH2 0x2412 JUMP JUMPDEST SWAP2 POP PUSH2 0x2D88 DUP4 PUSH2 0x2412 JUMP JUMPDEST SWAP3 POP DUP3 PUSH2 0x2D98 JUMPI PUSH2 0x2D97 PUSH2 0x2D46 JUMP JUMPDEST JUMPDEST DUP3 DUP3 DIV SWAP1 POP SWAP3 SWAP2 POP POP JUMP JUMPDEST PUSH32 0x43616E6E6F7420696E63726561736520616C6C6F77616E636520746F20616464 PUSH0 DUP3 ADD MSTORE PUSH32 0x726573732076616C7565205A65726F0000000000000000000000000000000000 PUSH1 0x20 DUP3 ADD MSTORE POP JUMP JUMPDEST PUSH0 PUSH2 0x2DFD PUSH1 0x2F DUP4 PUSH2 0x238C JUMP JUMPDEST SWAP2 POP PUSH2 0x2E08 DUP3 PUSH2 0x2DA3 JUMP JUMPDEST PUSH1 0x40 DUP3 ADD SWAP1 POP SWAP2 SWAP1 POP JUMP JUMPDEST PUSH0 PUSH1 0x20 DUP3 ADD SWAP1 POP DUP2 DUP2 SUB PUSH0 DUP4 ADD MSTORE PUSH2 0x2E2A DUP2 PUSH2 0x2DF1 JUMP JUMPDEST SWAP1 POP SWAP2 SWAP1 POP JUMP JUMPDEST PUSH32 0x496E73756666696369656E742062616C616E636520746F206275726E00000000 PUSH0 DUP3 ADD MSTORE POP JUMP JUMPDEST PUSH0 PUSH2 0x2E65 PUSH1 0x1C DUP4 PUSH2 0x238C JUMP JUMPDEST SWAP2 POP PUSH2 0x2E70 DUP3 PUSH2 0x2E31 JUMP JUMPDEST PUSH1 0x20 DUP3 ADD SWAP1 POP SWAP2 SWAP1 POP JUMP JUMPDEST PUSH0 PUSH1 0x20 DUP3 ADD SWAP1 POP DUP2 DUP2 SUB PUSH0 DUP4 ADD MSTORE PUSH2 0x2E92 DUP2 PUSH2 0x2E59 JUMP JUMPDEST SWAP1 POP SWAP2 SWAP1 POP JUMP JUMPDEST PUSH32 0x696E76616C696420616464726573730000000000000000000000000000000000 PUSH0 DUP3 ADD MSTORE POP JUMP JUMPDEST PUSH0 PUSH2 0x2ECD PUSH1 0xF DUP4 PUSH2 0x238C JUMP JUMPDEST SWAP2 POP PUSH2 0x2ED8 DUP3 PUSH2 0x2E99 JUMP JUMPDEST PUSH1 0x20 DUP3 ADD SWAP1 POP SWAP2 SWAP1 POP JUMP JUMPDEST PUSH0 PUSH1 0x20 DUP3 ADD SWAP1 POP DUP2 DUP2 SUB PUSH0 DUP4 ADD MSTORE PUSH2 0x2EFA DUP2 PUSH2 0x2EC1 JUMP JUMPDEST SWAP1 POP SWAP2 SWAP1 POP JUMP JUMPDEST PUSH32 0x57686974656C6973742066756C6C000000000000000000000000000000000000 PUSH0 DUP3 ADD MSTORE POP JUMP JUMPDEST PUSH0 PUSH2 0x2F35 PUSH1 0xE DUP4 PUSH2 0x238C JUMP JUMPDEST SWAP2 POP PUSH2 0x2F40 DUP3 PUSH2 0x2F01 JUMP JUMPDEST PUSH1 0x20 DUP3 ADD SWAP1 POP SWAP2 SWAP1 POP JUMP JUMPDEST PUSH0 PUSH1 0x20 DUP3 ADD SWAP1 POP DUP2 DUP2 SUB PUSH0 DUP4 ADD MSTORE PUSH2 0x2F62 DUP2 PUSH2 0x2F29 JUMP JUMPDEST SWAP1 POP SWAP2 SWAP1 POP JUMP JUMPDEST PUSH32 0x63616E6E6F7420646563726561736520616C6C6F77616E636520746F20616464 PUSH0 DUP3 ADD MSTORE PUSH32 0x726573732076616C7565205A65726F0000000000000000000000000000000000 PUSH1 0x20 DUP3 ADD MSTORE POP JUMP JUMPDEST PUSH0 PUSH2 0x2FC3 PUSH1 0x2F DUP4 PUSH2 0x238C JUMP JUMPDEST SWAP2 POP PUSH2 0x2FCE DUP3 PUSH2 0x2F69 JUMP JUMPDEST PUSH1 0x40 DUP3 ADD SWAP1 POP SWAP2 SWAP1 POP JUMP JUMPDEST PUSH0 PUSH1 0x20 DUP3 ADD SWAP1 POP DUP2 DUP2 SUB PUSH0 DUP4 ADD MSTORE PUSH2 0x2FF0 DUP2 PUSH2 0x2FB7 JUMP JUMPDEST SWAP1 POP SWAP2 SWAP1 POP JUMP JUMPDEST PUSH32 0x496E73756666696369656E7420616C6C6F77616E63652062616C616E63652074 PUSH0 DUP3 ADD MSTORE PUSH32 0x6F20646563726561736500000000000000000000000000000000000000000000 PUSH1 0x20 DUP3 ADD MSTORE POP JUMP JUMPDEST PUSH0 PUSH2 0x3051 PUSH1 0x2A DUP4 PUSH2 0x238C JUMP JUMPDEST SWAP2 POP PUSH2 0x305C DUP3 PUSH2 0x2FF7 JUMP JUMPDEST PUSH1 0x40 DUP3 ADD SWAP1 POP SWAP2 SWAP1 POP JUMP JUMPDEST PUSH0 PUSH1 0x20 DUP3 ADD SWAP1 POP DUP2 DUP2 SUB PUSH0 DUP4 ADD MSTORE PUSH2 0x307E DUP2 PUSH2 0x3045 JUMP JUMPDEST SWAP1 POP SWAP2 SWAP1 POP JUMP INVALID LOG2 PUSH5 0x6970667358 0x22 SLT KECCAK256 PUSH29 0x2D757157A982EC36D948C9684D6C442E4CB6E399A698B03467B897383B 0x1E 0xC3 PUSH5 0x736F6C6343 STOP ADDMOD 0x1E STOP CALLER "
				},
				"gasEstimates": {
					"creation": {
						"codeDepositCost": "2495000",
						"executionCost": "infinite",
						"totalCost": "infinite"
					},
					"external": {
						"TotalToken()": "2521",
						"allowance(address,address)": "infinite",
						"approve(address,uint256)": "infinite",
						"balanceOf(address)": "2896",
						"burn()": "infinite",
						"decimals()": "377",
						"decreaseAllowance(address,uint256)": "infinite",
						"getwhitelistedaddress()": "infinite",
						"increaseAllowance(address,uint256)": "infinite",
						"mint()": "infinite",
						"name()": "infinite",
						"removeFromWhiteList(address)": "infinite",
						"setWhiteList(address,bool)": "infinite",
						"symbol()": "infinite",
						"transfer(address,uint256)": "infinite",
						"transferFrom(address,address,uint256)": "infinite"
					}
				},
				"methodIdentifiers": {
					"TotalToken()": "3f601972",
					"allowance(address,address)": "dd62ed3e",
					"approve(address,uint256)": "095ea7b3",
					"balanceOf(address)": "70a08231",
					"burn()": "44df8e70",
					"decimals()": "313ce567",
					"decreaseAllowance(address,uint256)": "a457c2d7",
					"getwhitelistedaddress()": "42505e6b",
					"increaseAllowance(address,uint256)": "39509351",
					"mint()": "1249c58b",
					"name()": "06fdde03",
					"removeFromWhiteList(address)": "01bf6648",
					"setWhiteList(address,bool)": "8d14e127",
					"symbol()": "95d89b41",
					"transfer(address,uint256)": "a9059cbb",
					"transferFrom(address,address,uint256)": "23b872dd"
				}
			},
			"storageLayout": {
				"storage": [
					{
						"astId": 12,
						"contract": "dharan-token/contracts/customERC20/erc20cust.sol:Batman",
						"label": "owner",
						"offset": 0,
						"slot": "0",
						"type": "t_address"
					},
					{
						"astId": 20,
						"contract": "dharan-token/contracts/customERC20/erc20cust.sol:Batman",
						"label": "totalSupply",
						"offset": 0,
						"slot": "1",
						"type": "t_uint256"
					},
					{
						"astId": 23,
						"contract": "dharan-token/contracts/customERC20/erc20cust.sol:Batman",
						"label": "initialSupply",
						"offset": 0,
						"slot": "2",
						"type": "t_uint256"
					},
					{
						"astId": 25,
						"contract": "dharan-token/contracts/customERC20/erc20cust.sol:Batman",
						"label": "mintedSupply",
						"offset": 0,
						"slot": "3",
						"type": "t_uint256"
					},
					{
						"astId": 52,
						"contract": "dharan-token/contracts/customERC20/erc20cust.sol:Batman",
						"label": "whiteListedUsers",
						"offset": 0,
						"slot": "4",
						"type": "t_array(t_address)dyn_storage"
					},
					{
						"astId": 56,
						"contract": "dharan-token/contracts/customERC20/erc20cust.sol:Batman",
						"label": "balances",
						"offset": 0,
						"slot": "5",
						"type": "t_mapping(t_address,t_uint256)"
					},
					{
						"astId": 60,
						"contract": "dharan-token/contracts/customERC20/erc20cust.sol:Batman",
						"label": "isWhitelisted",
						"offset": 0,
						"slot": "6",
						"type": "t_mapping(t_address,t_bool)"
					},
					{
						"astId": 66,
						"contract": "dharan-token/contracts/customERC20/erc20cust.sol:Batman",
						"label": "_allowance",
						"offset": 0,
						"slot": "7",
						"type": "t_mapping(t_address,t_mapping(t_address,t_uint256))"
					},
					{
						"astId": 70,
						"contract": "dharan-token/contracts/customERC20/erc20cust.sol:Batman",
						"label": "mintedByUser",
						"offset": 0,
						"slot": "8",
						"type": "t_mapping(t_address,t_uint256)"
					}
				],
				"types": {
					"t_address": {
						"encoding": "inplace",
						"label": "address",
						"numberOfBytes": "20"
					},
					"t_array(t_address)dyn_storage": {
						"base": "t_address",
						"encoding": "dynamic_array",
						"label": "address[]",
						"numberOfBytes": "32"
					},
					"t_bool": {
						"encoding": "inplace",
						"label": "bool",
						"numberOfBytes": "1"
					},
					"t_mapping(t_address,t_bool)": {
						"encoding": "mapping",
						"key": "t_address",
						"label": "mapping(address => bool)",
						"numberOfBytes": "32",
						"value": "t_bool"
					},
					"t_mapping(t_address,t_mapping(t_address,t_uint256))": {
						"encoding": "mapping",
						"key": "t_address",
						"label": "mapping(address => mapping(address => uint256))",
						"numberOfBytes": "32",
						"value": "t_mapping(t_address,t_uint256)"
					},
					"t_mapping(t_address,t_uint256)": {
						"encoding": "mapping",
						"key": "t_address",
						"label": "mapping(address => uint256)",
						"numberOfBytes": "32",
						"value": "t_uint256"
					},
					"t_uint256": {
						"encoding": "inplace",
						"label": "uint256",
						"numberOfBytes": "32"
					}
				}
			},
			"userdoc": {
				"kind": "user",
				"methods": {},
				"version": 1
			}
		}
	}
}