{
	"MyNFT_1.sol": {
		"MyNFT": {
			"abi": [
				{
					"inputs": [
						{
							"internalType": "string",
							"name": "_name",
							"type": "string"
						},
						{
							"internalType": "string",
							"name": "_symbol",
							"type": "string"
						}
					],
					"stateMutability": "nonpayable",
					"type": "constructor"
				},
				{
					"anonymous": false,
					"inputs": [
						{
							"indexed": true,
							"internalType": "address",
							"name": "owner",
							"type": "address"
						},
						{
							"indexed": true,
							"internalType": "address",
							"name": "approved",
							"type": "address"
						},
						{
							"indexed": true,
							"internalType": "uint256",
							"name": "tokenId",
							"type": "uint256"
						}
					],
					"name": "Approval",
					"type": "event"
				},
				{
					"anonymous": false,
					"inputs": [
						{
							"indexed": true,
							"internalType": "address",
							"name": "owner",
							"type": "address"
						},
						{
							"indexed": true,
							"internalType": "address",
							"name": "operator",
							"type": "address"
						},
						{
							"indexed": false,
							"internalType": "bool",
							"name": "approved",
							"type": "bool"
						}
					],
					"name": "ApprovalForAll",
					"type": "event"
				},
				{
					"anonymous": false,
					"inputs": [
						{
							"indexed": true,
							"internalType": "address",
							"name": "from",
							"type": "address"
						},
						{
							"indexed": true,
							"internalType": "address",
							"name": "to",
							"type": "address"
						},
						{
							"indexed": true,
							"internalType": "uint256",
							"name": "tokenId",
							"type": "uint256"
						}
					],
					"name": "Transfer",
					"type": "event"
				},
				{
					"inputs": [
						{
							"internalType": "address",
							"name": "to",
							"type": "address"
						},
						{
							"internalType": "uint256",
							"name": "tokenId",
							"type": "uint256"
						}
					],
					"name": "approve",
					"outputs": [],
					"stateMutability": "nonpayable",
					"type": "function"
				},
				{
					"inputs": [
						{
							"internalType": "address",
							"name": "_owner",
							"type": "address"
						}
					],
					"name": "balanceOf",
					"outputs": [
						{
							"internalType": "uint256",
							"name": "",
							"type": "uint256"
						}
					],
					"stateMutability": "view",
					"type": "function"
				},
				{
					"inputs": [
						{
							"internalType": "uint256",
							"name": "tokenId",
							"type": "uint256"
						}
					],
					"name": "getApproved",
					"outputs": [
						{
							"internalType": "address",
							"name": "",
							"type": "address"
						}
					],
					"stateMutability": "view",
					"type": "function"
				},
				{
					"inputs": [
						{
							"internalType": "address",
							"name": "_owner",
							"type": "address"
						},
						{
							"internalType": "address",
							"name": "operator",
							"type": "address"
						}
					],
					"name": "isApprovedForAll",
					"outputs": [
						{
							"internalType": "bool",
							"name": "",
							"type": "bool"
						}
					],
					"stateMutability": "view",
					"type": "function"
				},
				{
					"inputs": [],
					"name": "maxSupply",
					"outputs": [
						{
							"internalType": "uint256",
							"name": "",
							"type": "uint256"
						}
					],
					"stateMutability": "view",
					"type": "function"
				},
				{
					"inputs": [
						{
							"internalType": "address",
							"name": "to",
							"type": "address"
						},
						{
							"internalType": "string",
							"name": "uri",
							"type": "string"
						}
					],
					"name": "mint",
					"outputs": [],
					"stateMutability": "payable",
					"type": "function"
				},
				{
					"inputs": [],
					"name": "mintPrice",
					"outputs": [
						{
							"internalType": "uint256",
							"name": "",
							"type": "uint256"
						}
					],
					"stateMutability": "view",
					"type": "function"
				},
				{
					"inputs": [],
					"name": "name",
					"outputs": [
						{
							"internalType": "string",
							"name": "",
							"type": "string"
						}
					],
					"stateMutability": "view",
					"type": "function"
				},
				{
					"inputs": [],
					"name": "owner",
					"outputs": [
						{
							"internalType": "address",
							"name": "",
							"type": "address"
						}
					],
					"stateMutability": "view",
					"type": "function"
				},
				{
					"inputs": [
						{
							"internalType": "address",
							"name": "to",
							"type": "address"
						},
						{
							"internalType": "string",
							"name": "uri",
							"type": "string"
						}
					],
					"name": "ownerMint",
					"outputs": [],
					"stateMutability": "nonpayable",
					"type": "function"
				},
				{
					"inputs": [
						{
							"internalType": "uint256",
							"name": "tokenId",
							"type": "uint256"
						}
					],
					"name": "ownerOf",
					"outputs": [
						{
							"internalType": "address",
							"name": "",
							"type": "address"
						}
					],
					"stateMutability": "view",
					"type": "function"
				},
				{
					"inputs": [
						{
							"internalType": "address",
							"name": "from",
							"type": "address"
						},
						{
							"internalType": "address",
							"name": "to",
							"type": "address"
						},
						{
							"internalType": "uint256",
							"name": "tokenId",
							"type": "uint256"
						}
					],
					"name": "safeTransferFrom",
					"outputs": [],
					"stateMutability": "nonpayable",
					"type": "function"
				},
				{
					"inputs": [
						{
							"internalType": "address",
							"name": "from",
							"type": "address"
						},
						{
							"internalType": "address",
							"name": "to",
							"type": "address"
						},
						{
							"internalType": "uint256",
							"name": "tokenId",
							"type": "uint256"
						},
						{
							"internalType": "bytes",
							"name": "data",
							"type": "bytes"
						}
					],
					"name": "safeTransferFrom",
					"outputs": [],
					"stateMutability": "nonpayable",
					"type": "function"
				},
				{
					"inputs": [
						{
							"internalType": "address",
							"name": "operator",
							"type": "address"
						},
						{
							"internalType": "bool",
							"name": "approved",
							"type": "bool"
						}
					],
					"name": "setApprovalForAll",
					"outputs": [],
					"stateMutability": "nonpayable",
					"type": "function"
				},
				{
					"inputs": [
						{
							"internalType": "uint256",
							"name": "newPrice",
							"type": "uint256"
						}
					],
					"name": "setMintPrice",
					"outputs": [],
					"stateMutability": "nonpayable",
					"type": "function"
				},
				{
					"inputs": [
						{
							"internalType": "bytes4",
							"name": "interfaceId",
							"type": "bytes4"
						}
					],
					"name": "supportsInterface",
					"outputs": [
						{
							"internalType": "bool",
							"name": "",
							"type": "bool"
						}
					],
					"stateMutability": "pure",
					"type": "function"
				},
				{
					"inputs": [],
					"name": "symbol",
					"outputs": [
						{
							"internalType": "string",
							"name": "",
							"type": "string"
						}
					],
					"stateMutability": "view",
					"type": "function"
				},
				{
					"inputs": [
						{
							"internalType": "uint256",
							"name": "tokenId",
							"type": "uint256"
						}
					],
					"name": "tokenURI",
					"outputs": [
						{
							"internalType": "string",
							"name": "",
							"type": "string"
						}
					],
					"stateMutability": "view",
					"type": "function"
				},
				{
					"inputs": [],
					"name": "totalSupply",
					"outputs": [
						{
							"internalType": "uint256",
							"name": "",
							"type": "uint256"
						}
					],
					"stateMutability": "view",
					"type": "function"
				},
				{
					"inputs": [
						{
							"internalType": "address",
							"name": "from",
							"type": "address"
						},
						{
							"internalType": "address",
							"name": "to",
							"type": "address"
						},
						{
							"internalType": "uint256",
							"name": "tokenId",
							"type": "uint256"
						}
					],
					"name": "transferFrom",
					"outputs": [],
					"stateMutability": "nonpayable",
					"type": "function"
				},
				{
					"inputs": [
						{
							"internalType": "address",
							"name": "newOwner",
							"type": "address"
						}
					],
					"name": "transferOwnership",
					"outputs": [],
					"stateMutability": "nonpayable",
					"type": "function"
				},
				{
					"inputs": [],
					"name": "withdraw",
					"outputs": [],
					"stateMutability": "nonpayable",
					"type": "function"
				}
			],
			"devdoc": {
				"kind": "dev",
				"methods": {},
				"version": 1
			},
			"evm": {
				"assembly": "    /* \"MyNFT_1.sol\":254:8064  contract MyNFT {... */\n  mstore(0x40, 0x80)\n    /* \"MyNFT_1.sol\":627:637  0.01 ether */\n  0x2386f26fc10000\n    /* \"MyNFT_1.sol\":600:637  uint256 public mintPrice = 0.01 ether */\n  0x04\n  sstore\n    /* \"MyNFT_1.sol\":670:675  10000 */\n  0x2710\n    /* \"MyNFT_1.sol\":643:675  uint256 public maxSupply = 10000 */\n  0x05\n  sstore\n    /* \"MyNFT_1.sol\":2245:2384  constructor(string memory _name, string memory _symbol) {... */\n  callvalue\n  dup1\n  iszero\n  tag_1\n  jumpi\n  revert(0x00, 0x00)\ntag_1:\n  pop\n  mload(0x40)\n  sub(codesize, bytecodeSize)\n  dup1\n  bytecodeSize\n  dup4\n  codecopy\n  dup2\n  dup2\n  add\n  0x40\n  mstore\n  dup2\n  add\n  swap1\n  tag_2\n  swap2\n  swap1\n  tag_3\n  jump\t// in\ntag_2:\n    /* \"MyNFT_1.sol\":2318:2323  _name */\n  dup2\n    /* \"MyNFT_1.sol\":2311:2315  name */\n  0x00\n    /* \"MyNFT_1.sol\":2311:2323  name = _name */\n  swap1\n  dup2\n  tag_6\n  swap2\n  swap1\n  tag_7\n  jump\t// in\ntag_6:\n  pop\n    /* \"MyNFT_1.sol\":2342:2349  _symbol */\n  dup1\n    /* \"MyNFT_1.sol\":2333:2339  symbol */\n  0x01\n    /* \"MyNFT_1.sol\":2333:2349  symbol = _symbol */\n  swap1\n  dup2\n  tag_8\n  swap2\n  swap1\n  tag_7\n  jump\t// in\ntag_8:\n  pop\n    /* \"MyNFT_1.sol\":2367:2377  msg.sender */\n  caller\n    /* \"MyNFT_1.sol\":2359:2364  owner */\n  0x02\n  0x00\n    /* \"MyNFT_1.sol\":2359:2377  owner = msg.sender */\n  0x0100\n  exp\n  dup2\n  sload\n  dup2\n  0xffffffffffffffffffffffffffffffffffffffff\n  mul\n  not\n  and\n  swap1\n  dup4\n  0xffffffffffffffffffffffffffffffffffffffff\n  and\n  mul\n  or\n  swap1\n  sstore\n  pop\n    /* \"MyNFT_1.sol\":2245:2384  constructor(string memory _name, string memory _symbol) {... */\n  pop\n  pop\n    /* \"MyNFT_1.sol\":254:8064  contract MyNFT {... */\n  jump(tag_9)\n    /* \"#utility.yul\":7:82   */\ntag_10:\n    /* \"#utility.yul\":40:46   */\n  0x00\n    /* \"#utility.yul\":73:75   */\n  0x40\n    /* \"#utility.yul\":67:76   */\n  mload\n    /* \"#utility.yul\":57:76   */\n  swap1\n  pop\n    /* \"#utility.yul\":7:82   */\n  swap1\n  jump\t// out\n    /* \"#utility.yul\":88:205   */\ntag_11:\n    /* \"#utility.yul\":197:198   */\n  0x00\n    /* \"#utility.yul\":194:195   */\n  0x00\n    /* \"#utility.yul\":187:199   */\n  revert\n    /* \"#utility.yul\":211:328   */\ntag_12:\n    /* \"#utility.yul\":320:321   */\n  0x00\n    /* \"#utility.yul\":317:318   */\n  0x00\n    /* \"#utility.yul\":310:322   */\n  revert\n    /* \"#utility.yul\":334:451   */\ntag_13:\n    /* \"#utility.yul\":443:444   */\n  0x00\n    /* \"#utility.yul\":440:441   */\n  0x00\n    /* \"#utility.yul\":433:445   */\n  revert\n    /* \"#utility.yul\":457:574   */\ntag_14:\n    /* \"#utility.yul\":566:567   */\n  0x00\n    /* \"#utility.yul\":563:564   */\n  0x00\n    /* \"#utility.yul\":556:568   */\n  revert\n    /* \"#utility.yul\":580:682   */\ntag_15:\n    /* \"#utility.yul\":621:627   */\n  0x00\n    /* \"#utility.yul\":672:674   */\n  0x1f\n    /* \"#utility.yul\":668:675   */\n  not\n    /* \"#utility.yul\":663:665   */\n  0x1f\n    /* \"#utility.yul\":656:661   */\n  dup4\n    /* \"#utility.yul\":652:666   */\n  add\n    /* \"#utility.yul\":648:676   */\n  and\n    /* \"#utility.yul\":638:676   */\n  swap1\n  pop\n    /* \"#utility.yul\":580:682   */\n  swap2\n  swap1\n  pop\n  jump\t// out\n    /* \"#utility.yul\":688:868   */\ntag_16:\n    /* \"#utility.yul\":736:813   */\n  0x4e487b7100000000000000000000000000000000000000000000000000000000\n    /* \"#utility.yul\":733:734   */\n  0x00\n    /* \"#utility.yul\":726:814   */\n  mstore\n    /* \"#utility.yul\":833:837   */\n  0x41\n    /* \"#utility.yul\":830:831   */\n  0x04\n    /* \"#utility.yul\":823:838   */\n  mstore\n    /* \"#utility.yul\":857:861   */\n  0x24\n    /* \"#utility.yul\":854:855   */\n  0x00\n    /* \"#utility.yul\":847:862   */\n  revert\n    /* \"#utility.yul\":874:1155   */\ntag_17:\n    /* \"#utility.yul\":957:984   */\n  tag_51\n    /* \"#utility.yul\":979:983   */\n  dup3\n    /* \"#utility.yul\":957:984   */\n  tag_15\n  jump\t// in\ntag_51:\n    /* \"#utility.yul\":949:955   */\n  dup2\n    /* \"#utility.yul\":945:985   */\n  add\n    /* \"#utility.yul\":1087:1093   */\n  dup2\n    /* \"#utility.yul\":1075:1085   */\n  dup2\n    /* \"#utility.yul\":1072:1094   */\n  lt\n    /* \"#utility.yul\":1051:1069   */\n  0xffffffffffffffff\n    /* \"#utility.yul\":1039:1049   */\n  dup3\n    /* \"#utility.yul\":1036:1070   */\n  gt\n    /* \"#utility.yul\":1033:1095   */\n  or\n    /* \"#utility.yul\":1030:1118   */\n  iszero\n  tag_52\n  jumpi\n    /* \"#utility.yul\":1098:1116   */\n  tag_53\n  tag_16\n  jump\t// in\ntag_53:\n    /* \"#utility.yul\":1030:1118   */\ntag_52:\n    /* \"#utility.yul\":1138:1148   */\n  dup1\n    /* \"#utility.yul\":1134:1136   */\n  0x40\n    /* \"#utility.yul\":1127:1149   */\n  mstore\n    /* \"#utility.yul\":917:1155   */\n  pop\n    /* \"#utility.yul\":874:1155   */\n  pop\n  pop\n  jump\t// out\n    /* \"#utility.yul\":1161:1290   */\ntag_18:\n    /* \"#utility.yul\":1195:1201   */\n  0x00\n    /* \"#utility.yul\":1222:1242   */\n  tag_55\n  tag_10\n  jump\t// in\ntag_55:\n    /* \"#utility.yul\":1212:1242   */\n  swap1\n  pop\n    /* \"#utility.yul\":1251:1284   */\n  tag_56\n    /* \"#utility.yul\":1279:1283   */\n  dup3\n    /* \"#utility.yul\":1271:1277   */\n  dup3\n    /* \"#utility.yul\":1251:1284   */\n  tag_17\n  jump\t// in\ntag_56:\n    /* \"#utility.yul\":1161:1290   */\n  swap2\n  swap1\n  pop\n  jump\t// out\n    /* \"#utility.yul\":1296:1604   */\ntag_19:\n    /* \"#utility.yul\":1358:1362   */\n  0x00\n    /* \"#utility.yul\":1448:1466   */\n  0xffffffffffffffff\n    /* \"#utility.yul\":1440:1446   */\n  dup3\n    /* \"#utility.yul\":1437:1467   */\n  gt\n    /* \"#utility.yul\":1434:1490   */\n  iszero\n  tag_58\n  jumpi\n    /* \"#utility.yul\":1470:1488   */\n  tag_59\n  tag_16\n  jump\t// in\ntag_59:\n    /* \"#utility.yul\":1434:1490   */\ntag_58:\n    /* \"#utility.yul\":1508:1537   */\n  tag_60\n    /* \"#utility.yul\":1530:1536   */\n  dup3\n    /* \"#utility.yul\":1508:1537   */\n  tag_15\n  jump\t// in\ntag_60:\n    /* \"#utility.yul\":1500:1537   */\n  swap1\n  pop\n    /* \"#utility.yul\":1592:1596   */\n  0x20\n    /* \"#utility.yul\":1586:1590   */\n  dup2\n    /* \"#utility.yul\":1582:1597   */\n  add\n    /* \"#utility.yul\":1574:1597   */\n  swap1\n  pop\n    /* \"#utility.yul\":1296:1604   */\n  swap2\n  swap1\n  pop\n  jump\t// out\n    /* \"#utility.yul\":1610:1749   */\ntag_20:\n    /* \"#utility.yul\":1699:1705   */\n  dup3\n    /* \"#utility.yul\":1694:1697   */\n  dup2\n    /* \"#utility.yul\":1689:1692   */\n  dup4\n    /* \"#utility.yul\":1683:1706   */\n  mcopy\n    /* \"#utility.yul\":1740:1741   */\n  0x00\n    /* \"#utility.yul\":1731:1737   */\n  dup4\n    /* \"#utility.yul\":1726:1729   */\n  dup4\n    /* \"#utility.yul\":1722:1738   */\n  add\n    /* \"#utility.yul\":1715:1742   */\n  mstore\n    /* \"#utility.yul\":1610:1749   */\n  pop\n  pop\n  pop\n  jump\t// out\n    /* \"#utility.yul\":1755:2189   */\ntag_21:\n    /* \"#utility.yul\":1844:1849   */\n  0x00\n    /* \"#utility.yul\":1869:1935   */\n  tag_63\n    /* \"#utility.yul\":1885:1934   */\n  tag_64\n    /* \"#utility.yul\":1927:1933   */\n  dup5\n    /* \"#utility.yul\":1885:1934   */\n  tag_19\n  jump\t// in\ntag_64:\n    /* \"#utility.yul\":1869:1935   */\n  tag_18\n  jump\t// in\ntag_63:\n    /* \"#utility.yul\":1860:1935   */\n  swap1\n  pop\n    /* \"#utility.yul\":1958:1964   */\n  dup3\n    /* \"#utility.yul\":1951:1956   */\n  dup2\n    /* \"#utility.yul\":1944:1965   */\n  mstore\n    /* \"#utility.yul\":1996:2000   */\n  0x20\n    /* \"#utility.yul\":1989:1994   */\n  dup2\n    /* \"#utility.yul\":1985:2001   */\n  add\n    /* \"#utility.yul\":2034:2037   */\n  dup5\n    /* \"#utility.yul\":2025:2031   */\n  dup5\n    /* \"#utility.yul\":2020:2023   */\n  dup5\n    /* \"#utility.yul\":2016:2032   */\n  add\n    /* \"#utility.yul\":2013:2038   */\n  gt\n    /* \"#utility.yul\":2010:2122   */\n  iszero\n  tag_65\n  jumpi\n    /* \"#utility.yul\":2041:2120   */\n  tag_66\n  tag_14\n  jump\t// in\ntag_66:\n    /* \"#utility.yul\":2010:2122   */\ntag_65:\n    /* \"#utility.yul\":2131:2183   */\n  tag_67\n    /* \"#utility.yul\":2176:2182   */\n  dup5\n    /* \"#utility.yul\":2171:2174   */\n  dup3\n    /* \"#utility.yul\":2166:2169   */\n  dup6\n    /* \"#utility.yul\":2131:2183   */\n  tag_20\n  jump\t// in\ntag_67:\n    /* \"#utility.yul\":1850:2189   */\n  pop\n    /* \"#utility.yul\":1755:2189   */\n  swap4\n  swap3\n  pop\n  pop\n  pop\n  jump\t// out\n    /* \"#utility.yul\":2209:2564   */\ntag_22:\n    /* \"#utility.yul\":2276:2281   */\n  0x00\n    /* \"#utility.yul\":2325:2328   */\n  dup3\n    /* \"#utility.yul\":2318:2322   */\n  0x1f\n    /* \"#utility.yul\":2310:2316   */\n  dup4\n    /* \"#utility.yul\":2306:2323   */\n  add\n    /* \"#utility.yul\":2302:2329   */\n  slt\n    /* \"#utility.yul\":2292:2414   */\n  tag_69\n  jumpi\n    /* \"#utility.yul\":2333:2412   */\n  tag_70\n  tag_13\n  jump\t// in\ntag_70:\n    /* \"#utility.yul\":2292:2414   */\ntag_69:\n    /* \"#utility.yul\":2443:2449   */\n  dup2\n    /* \"#utility.yul\":2437:2450   */\n  mload\n    /* \"#utility.yul\":2468:2558   */\n  tag_71\n    /* \"#utility.yul\":2554:2557   */\n  dup5\n    /* \"#utility.yul\":2546:2552   */\n  dup3\n    /* \"#utility.yul\":2539:2543   */\n  0x20\n    /* \"#utility.yul\":2531:2537   */\n  dup7\n    /* \"#utility.yul\":2527:2544   */\n  add\n    /* \"#utility.yul\":2468:2558   */\n  tag_21\n  jump\t// in\ntag_71:\n    /* \"#utility.yul\":2459:2558   */\n  swap2\n  pop\n    /* \"#utility.yul\":2282:2564   */\n  pop\n    /* \"#utility.yul\":2209:2564   */\n  swap3\n  swap2\n  pop\n  pop\n  jump\t// out\n    /* \"#utility.yul\":2570:3423   */\ntag_3:\n    /* \"#utility.yul\":2669:2675   */\n  0x00\n    /* \"#utility.yul\":2677:2683   */\n  0x00\n    /* \"#utility.yul\":2726:2728   */\n  0x40\n    /* \"#utility.yul\":2714:2723   */\n  dup4\n    /* \"#utility.yul\":2705:2712   */\n  dup6\n    /* \"#utility.yul\":2701:2724   */\n  sub\n    /* \"#utility.yul\":2697:2729   */\n  slt\n    /* \"#utility.yul\":2694:2813   */\n  iszero\n  tag_73\n  jumpi\n    /* \"#utility.yul\":2732:2811   */\n  tag_74\n  tag_11\n  jump\t// in\ntag_74:\n    /* \"#utility.yul\":2694:2813   */\ntag_73:\n    /* \"#utility.yul\":2873:2874   */\n  0x00\n    /* \"#utility.yul\":2862:2871   */\n  dup4\n    /* \"#utility.yul\":2858:2875   */\n  add\n    /* \"#utility.yul\":2852:2876   */\n  mload\n    /* \"#utility.yul\":2903:2921   */\n  0xffffffffffffffff\n    /* \"#utility.yul\":2895:2901   */\n  dup2\n    /* \"#utility.yul\":2892:2922   */\n  gt\n    /* \"#utility.yul\":2889:3006   */\n  iszero\n  tag_75\n  jumpi\n    /* \"#utility.yul\":2925:3004   */\n  tag_76\n  tag_12\n  jump\t// in\ntag_76:\n    /* \"#utility.yul\":2889:3006   */\ntag_75:\n    /* \"#utility.yul\":3030:3104   */\n  tag_77\n    /* \"#utility.yul\":3096:3103   */\n  dup6\n    /* \"#utility.yul\":3087:3093   */\n  dup3\n    /* \"#utility.yul\":3076:3085   */\n  dup7\n    /* \"#utility.yul\":3072:3094   */\n  add\n    /* \"#utility.yul\":3030:3104   */\n  tag_22\n  jump\t// in\ntag_77:\n    /* \"#utility.yul\":3020:3104   */\n  swap3\n  pop\n    /* \"#utility.yul\":2823:3114   */\n  pop\n    /* \"#utility.yul\":3174:3176   */\n  0x20\n    /* \"#utility.yul\":3163:3172   */\n  dup4\n    /* \"#utility.yul\":3159:3177   */\n  add\n    /* \"#utility.yul\":3153:3178   */\n  mload\n    /* \"#utility.yul\":3205:3223   */\n  0xffffffffffffffff\n    /* \"#utility.yul\":3197:3203   */\n  dup2\n    /* \"#utility.yul\":3194:3224   */\n  gt\n    /* \"#utility.yul\":3191:3308   */\n  iszero\n  tag_78\n  jumpi\n    /* \"#utility.yul\":3227:3306   */\n  tag_79\n  tag_12\n  jump\t// in\ntag_79:\n    /* \"#utility.yul\":3191:3308   */\ntag_78:\n    /* \"#utility.yul\":3332:3406   */\n  tag_80\n    /* \"#utility.yul\":3398:3405   */\n  dup6\n    /* \"#utility.yul\":3389:3395   */\n  dup3\n    /* \"#utility.yul\":3378:3387   */\n  dup7\n    /* \"#utility.yul\":3374:3396   */\n  add\n    /* \"#utility.yul\":3332:3406   */\n  tag_22\n  jump\t// in\ntag_80:\n    /* \"#utility.yul\":3322:3406   */\n  swap2\n  pop\n    /* \"#utility.yul\":3124:3416   */\n  pop\n    /* \"#utility.yul\":2570:3423   */\n  swap3\n  pop\n  swap3\n  swap1\n  pop\n  jump\t// out\n    /* \"#utility.yul\":3429:3528   */\ntag_23:\n    /* \"#utility.yul\":3481:3487   */\n  0x00\n    /* \"#utility.yul\":3515:3520   */\n  dup2\n    /* \"#utility.yul\":3509:3521   */\n  mload\n    /* \"#utility.yul\":3499:3521   */\n  swap1\n  pop\n    /* \"#utility.yul\":3429:3528   */\n  swap2\n  swap1\n  pop\n  jump\t// out\n    /* \"#utility.yul\":3534:3714   */\ntag_24:\n    /* \"#utility.yul\":3582:3659   */\n  0x4e487b7100000000000000000000000000000000000000000000000000000000\n    /* \"#utility.yul\":3579:3580   */\n  0x00\n    /* \"#utility.yul\":3572:3660   */\n  mstore\n    /* \"#utility.yul\":3679:3683   */\n  0x22\n    /* \"#utility.yul\":3676:3677   */\n  0x04\n    /* \"#utility.yul\":3669:3684   */\n  mstore\n    /* \"#utility.yul\":3703:3707   */\n  0x24\n    /* \"#utility.yul\":3700:3701   */\n  0x00\n    /* \"#utility.yul\":3693:3708   */\n  revert\n    /* \"#utility.yul\":3720:4040   */\ntag_25:\n    /* \"#utility.yul\":3764:3770   */\n  0x00\n    /* \"#utility.yul\":3801:3802   */\n  0x02\n    /* \"#utility.yul\":3795:3799   */\n  dup3\n    /* \"#utility.yul\":3791:3803   */\n  div\n    /* \"#utility.yul\":3781:3803   */\n  swap1\n  pop\n    /* \"#utility.yul\":3848:3849   */\n  0x01\n    /* \"#utility.yul\":3842:3846   */\n  dup3\n    /* \"#utility.yul\":3838:3850   */\n  and\n    /* \"#utility.yul\":3869:3887   */\n  dup1\n    /* \"#utility.yul\":3859:3940   */\n  tag_84\n  jumpi\n    /* \"#utility.yul\":3925:3929   */\n  0x7f\n    /* \"#utility.yul\":3917:3923   */\n  dup3\n    /* \"#utility.yul\":3913:3930   */\n  and\n    /* \"#utility.yul\":3903:3930   */\n  swap2\n  pop\n    /* \"#utility.yul\":3859:3940   */\ntag_84:\n    /* \"#utility.yul\":3987:3989   */\n  0x20\n    /* \"#utility.yul\":3979:3985   */\n  dup3\n    /* \"#utility.yul\":3976:3990   */\n  lt\n    /* \"#utility.yul\":3956:3974   */\n  dup2\n    /* \"#utility.yul\":3953:3991   */\n  sub\n    /* \"#utility.yul\":3950:4034   */\n  tag_85\n  jumpi\n    /* \"#utility.yul\":4006:4024   */\n  tag_86\n  tag_24\n  jump\t// in\ntag_86:\n    /* \"#utility.yul\":3950:4034   */\ntag_85:\n    /* \"#utility.yul\":3771:4040   */\n  pop\n    /* \"#utility.yul\":3720:4040   */\n  swap2\n  swap1\n  pop\n  jump\t// out\n    /* \"#utility.yul\":4046:4187   */\ntag_26:\n    /* \"#utility.yul\":4095:4099   */\n  0x00\n    /* \"#utility.yul\":4118:4121   */\n  dup2\n    /* \"#utility.yul\":4110:4121   */\n  swap1\n  pop\n    /* \"#utility.yul\":4141:4144   */\n  dup2\n    /* \"#utility.yul\":4138:4139   */\n  0x00\n    /* \"#utility.yul\":4131:4145   */\n  mstore\n    /* \"#utility.yul\":4175:4179   */\n  0x20\n    /* \"#utility.yul\":4172:4173   */\n  0x00\n    /* \"#utility.yul\":4162:4180   */\n  keccak256\n    /* \"#utility.yul\":4154:4180   */\n  swap1\n  pop\n    /* \"#utility.yul\":4046:4187   */\n  swap2\n  swap1\n  pop\n  jump\t// out\n    /* \"#utility.yul\":4193:4286   */\ntag_27:\n    /* \"#utility.yul\":4230:4236   */\n  0x00\n    /* \"#utility.yul\":4277:4279   */\n  0x20\n    /* \"#utility.yul\":4272:4274   */\n  0x1f\n    /* \"#utility.yul\":4265:4270   */\n  dup4\n    /* \"#utility.yul\":4261:4275   */\n  add\n    /* \"#utility.yul\":4257:4280   */\n  div\n    /* \"#utility.yul\":4247:4280   */\n  swap1\n  pop\n    /* \"#utility.yul\":4193:4286   */\n  swap2\n  swap1\n  pop\n  jump\t// out\n    /* \"#utility.yul\":4292:4399   */\ntag_28:\n    /* \"#utility.yul\":4336:4344   */\n  0x00\n    /* \"#utility.yul\":4386:4391   */\n  dup3\n    /* \"#utility.yul\":4380:4384   */\n  dup3\n    /* \"#utility.yul\":4376:4392   */\n  shl\n    /* \"#utility.yul\":4355:4392   */\n  swap1\n  pop\n    /* \"#utility.yul\":4292:4399   */\n  swap3\n  swap2\n  pop\n  pop\n  jump\t// out\n    /* \"#utility.yul\":4405:4798   */\ntag_29:\n    /* \"#utility.yul\":4474:4480   */\n  0x00\n    /* \"#utility.yul\":4524:4525   */\n  0x08\n    /* \"#utility.yul\":4512:4522   */\n  dup4\n    /* \"#utility.yul\":4508:4526   */\n  mul\n    /* \"#utility.yul\":4547:4644   */\n  tag_91\n    /* \"#utility.yul\":4577:4643   */\n  0xffffffffffffffffffffffffffffffffffffffffffffffffffffffffffffffff\n    /* \"#utility.yul\":4566:4575   */\n  dup3\n    /* \"#utility.yul\":4547:4644   */\n  tag_28\n  jump\t// in\ntag_91:\n    /* \"#utility.yul\":4665:4704   */\n  tag_92\n    /* \"#utility.yul\":4695:4703   */\n  dup7\n    /* \"#utility.yul\":4684:4693   */\n  dup4\n    /* \"#utility.yul\":4665:4704   */\n  tag_28\n  jump\t// in\ntag_92:\n    /* \"#utility.yul\":4653:4704   */\n  swap6\n  pop\n    /* \"#utility.yul\":4737:4741   */\n  dup1\n    /* \"#utility.yul\":4733:4742   */\n  not\n    /* \"#utility.yul\":4726:4731   */\n  dup5\n    /* \"#utility.yul\":4722:4743   */\n  and\n    /* \"#utility.yul\":4713:4743   */\n  swap4\n  pop\n    /* \"#utility.yul\":4786:4790   */\n  dup1\n    /* \"#utility.yul\":4776:4784   */\n  dup7\n    /* \"#utility.yul\":4772:4791   */\n  and\n    /* \"#utility.yul\":4765:4770   */\n  dup5\n    /* \"#utility.yul\":4762:4792   */\n  or\n    /* \"#utility.yul\":4752:4792   */\n  swap3\n  pop\n    /* \"#utility.yul\":4481:4798   */\n  pop\n  pop\n    /* \"#utility.yul\":4405:4798   */\n  swap4\n  swap3\n  pop\n  pop\n  pop\n  jump\t// out\n    /* \"#utility.yul\":4804:4881   */\ntag_30:\n    /* \"#utility.yul\":4841:4848   */\n  0x00\n    /* \"#utility.yul\":4870:4875   */\n  dup2\n    /* \"#utility.yul\":4859:4875   */\n  swap1\n  pop\n    /* \"#utility.yul\":4804:4881   */\n  swap2\n  swap1\n  pop\n  jump\t// out\n    /* \"#utility.yul\":4887:4947   */\ntag_31:\n    /* \"#utility.yul\":4915:4918   */\n  0x00\n    /* \"#utility.yul\":4936:4941   */\n  dup2\n    /* \"#utility.yul\":4929:4941   */\n  swap1\n  pop\n    /* \"#utility.yul\":4887:4947   */\n  swap2\n  swap1\n  pop\n  jump\t// out\n    /* \"#utility.yul\":4953:5095   */\ntag_32:\n    /* \"#utility.yul\":5003:5012   */\n  0x00\n    /* \"#utility.yul\":5036:5089   */\n  tag_96\n    /* \"#utility.yul\":5054:5088   */\n  tag_97\n    /* \"#utility.yul\":5063:5087   */\n  tag_98\n    /* \"#utility.yul\":5081:5086   */\n  dup5\n    /* \"#utility.yul\":5063:5087   */\n  tag_30\n  jump\t// in\ntag_98:\n    /* \"#utility.yul\":5054:5088   */\n  tag_31\n  jump\t// in\ntag_97:\n    /* \"#utility.yul\":5036:5089   */\n  tag_30\n  jump\t// in\ntag_96:\n    /* \"#utility.yul\":5023:5089   */\n  swap1\n  pop\n    /* \"#utility.yul\":4953:5095   */\n  swap2\n  swap1\n  pop\n  jump\t// out\n    /* \"#utility.yul\":5101:5176   */\ntag_33:\n    /* \"#utility.yul\":5144:5147   */\n  0x00\n    /* \"#utility.yul\":5165:5170   */\n  dup2\n    /* \"#utility.yul\":5158:5170   */\n  swap1\n  pop\n    /* \"#utility.yul\":5101:5176   */\n  swap2\n  swap1\n  pop\n  jump\t// out\n    /* \"#utility.yul\":5182:5451   */\ntag_34:\n    /* \"#utility.yul\":5292:5331   */\n  tag_101\n    /* \"#utility.yul\":5323:5330   */\n  dup4\n    /* \"#utility.yul\":5292:5331   */\n  tag_32\n  jump\t// in\ntag_101:\n    /* \"#utility.yul\":5353:5444   */\n  tag_102\n    /* \"#utility.yul\":5402:5443   */\n  tag_103\n    /* \"#utility.yul\":5426:5442   */\n  dup3\n    /* \"#utility.yul\":5402:5443   */\n  tag_33\n  jump\t// in\ntag_103:\n    /* \"#utility.yul\":5394:5400   */\n  dup5\n    /* \"#utility.yul\":5387:5391   */\n  dup5\n    /* \"#utility.yul\":5381:5392   */\n  sload\n    /* \"#utility.yul\":5353:5444   */\n  tag_29\n  jump\t// in\ntag_102:\n    /* \"#utility.yul\":5347:5351   */\n  dup3\n    /* \"#utility.yul\":5340:5445   */\n  sstore\n    /* \"#utility.yul\":5258:5451   */\n  pop\n    /* \"#utility.yul\":5182:5451   */\n  pop\n  pop\n  pop\n  jump\t// out\n    /* \"#utility.yul\":5457:5530   */\ntag_35:\n    /* \"#utility.yul\":5502:5505   */\n  0x00\n    /* \"#utility.yul\":5523:5524   */\n  0x00\n    /* \"#utility.yul\":5516:5524   */\n  swap1\n  pop\n    /* \"#utility.yul\":5457:5530   */\n  swap1\n  jump\t// out\n    /* \"#utility.yul\":5536:5725   */\ntag_36:\n    /* \"#utility.yul\":5613:5645   */\n  tag_106\n  tag_35\n  jump\t// in\ntag_106:\n    /* \"#utility.yul\":5654:5719   */\n  tag_107\n    /* \"#utility.yul\":5712:5718   */\n  dup2\n    /* \"#utility.yul\":5704:5710   */\n  dup5\n    /* \"#utility.yul\":5698:5702   */\n  dup5\n    /* \"#utility.yul\":5654:5719   */\n  tag_34\n  jump\t// in\ntag_107:\n    /* \"#utility.yul\":5589:5725   */\n  pop\n    /* \"#utility.yul\":5536:5725   */\n  pop\n  pop\n  jump\t// out\n    /* \"#utility.yul\":5731:5917   */\ntag_37:\n    /* \"#utility.yul\":5791:5911   */\ntag_109:\n    /* \"#utility.yul\":5808:5811   */\n  dup2\n    /* \"#utility.yul\":5801:5806   */\n  dup2\n    /* \"#utility.yul\":5798:5812   */\n  lt\n    /* \"#utility.yul\":5791:5911   */\n  iszero\n  tag_111\n  jumpi\n    /* \"#utility.yul\":5862:5901   */\n  tag_112\n    /* \"#utility.yul\":5899:5900   */\n  0x00\n    /* \"#utility.yul\":5892:5897   */\n  dup3\n    /* \"#utility.yul\":5862:5901   */\n  tag_36\n  jump\t// in\ntag_112:\n    /* \"#utility.yul\":5835:5836   */\n  0x01\n    /* \"#utility.yul\":5828:5833   */\n  dup2\n    /* \"#utility.yul\":5824:5837   */\n  add\n    /* \"#utility.yul\":5815:5837   */\n  swap1\n  pop\n    /* \"#utility.yul\":5791:5911   */\n  jump(tag_109)\ntag_111:\n    /* \"#utility.yul\":5731:5917   */\n  pop\n  pop\n  jump\t// out\n    /* \"#utility.yul\":5923:6466   */\ntag_38:\n    /* \"#utility.yul\":6024:6026   */\n  0x1f\n    /* \"#utility.yul\":6019:6022   */\n  dup3\n    /* \"#utility.yul\":6016:6027   */\n  gt\n    /* \"#utility.yul\":6013:6459   */\n  iszero\n  tag_114\n  jumpi\n    /* \"#utility.yul\":6058:6096   */\n  tag_115\n    /* \"#utility.yul\":6090:6095   */\n  dup2\n    /* \"#utility.yul\":6058:6096   */\n  tag_26\n  jump\t// in\ntag_115:\n    /* \"#utility.yul\":6142:6171   */\n  tag_116\n    /* \"#utility.yul\":6160:6170   */\n  dup5\n    /* \"#utility.yul\":6142:6171   */\n  tag_27\n  jump\t// in\ntag_116:\n    /* \"#utility.yul\":6132:6140   */\n  dup2\n    /* \"#utility.yul\":6128:6172   */\n  add\n    /* \"#utility.yul\":6325:6327   */\n  0x20\n    /* \"#utility.yul\":6313:6323   */\n  dup6\n    /* \"#utility.yul\":6310:6328   */\n  lt\n    /* \"#utility.yul\":6307:6356   */\n  iszero\n  tag_117\n  jumpi\n    /* \"#utility.yul\":6346:6354   */\n  dup2\n    /* \"#utility.yul\":6331:6354   */\n  swap1\n  pop\n    /* \"#utility.yul\":6307:6356   */\ntag_117:\n    /* \"#utility.yul\":6369:6449   */\n  tag_118\n    /* \"#utility.yul\":6425:6447   */\n  tag_119\n    /* \"#utility.yul\":6443:6446   */\n  dup6\n    /* \"#utility.yul\":6425:6447   */\n  tag_27\n  jump\t// in\ntag_119:\n    /* \"#utility.yul\":6415:6423   */\n  dup4\n    /* \"#utility.yul\":6411:6448   */\n  add\n    /* \"#utility.yul\":6398:6409   */\n  dup3\n    /* \"#utility.yul\":6369:6449   */\n  tag_37\n  jump\t// in\ntag_118:\n    /* \"#utility.yul\":6028:6459   */\n  pop\n  pop\n    /* \"#utility.yul\":6013:6459   */\ntag_114:\n    /* \"#utility.yul\":5923:6466   */\n  pop\n  pop\n  pop\n  jump\t// out\n    /* \"#utility.yul\":6472:6589   */\ntag_39:\n    /* \"#utility.yul\":6526:6534   */\n  0x00\n    /* \"#utility.yul\":6576:6581   */\n  dup3\n    /* \"#utility.yul\":6570:6574   */\n  dup3\n    /* \"#utility.yul\":6566:6582   */\n  shr\n    /* \"#utility.yul\":6545:6582   */\n  swap1\n  pop\n    /* \"#utility.yul\":6472:6589   */\n  swap3\n  swap2\n  pop\n  pop\n  jump\t// out\n    /* \"#utility.yul\":6595:6764   */\ntag_40:\n    /* \"#utility.yul\":6639:6645   */\n  0x00\n    /* \"#utility.yul\":6672:6723   */\n  tag_122\n    /* \"#utility.yul\":6720:6721   */\n  0x00\n    /* \"#utility.yul\":6716:6722   */\n  not\n    /* \"#utility.yul\":6708:6713   */\n  dup5\n    /* \"#utility.yul\":6705:6706   */\n  0x08\n    /* \"#utility.yul\":6701:6714   */\n  mul\n    /* \"#utility.yul\":6672:6723   */\n  tag_39\n  jump\t// in\ntag_122:\n    /* \"#utility.yul\":6668:6724   */\n  not\n    /* \"#utility.yul\":6753:6757   */\n  dup1\n    /* \"#utility.yul\":6747:6751   */\n  dup4\n    /* \"#utility.yul\":6743:6758   */\n  and\n    /* \"#utility.yul\":6733:6758   */\n  swap2\n  pop\n    /* \"#utility.yul\":6646:6764   */\n  pop\n    /* \"#utility.yul\":6595:6764   */\n  swap3\n  swap2\n  pop\n  pop\n  jump\t// out\n    /* \"#utility.yul\":6769:7064   */\ntag_41:\n    /* \"#utility.yul\":6845:6849   */\n  0x00\n    /* \"#utility.yul\":6991:7020   */\n  tag_124\n    /* \"#utility.yul\":7016:7019   */\n  dup4\n    /* \"#utility.yul\":7010:7014   */\n  dup4\n    /* \"#utility.yul\":6991:7020   */\n  tag_40\n  jump\t// in\ntag_124:\n    /* \"#utility.yul\":6983:7020   */\n  swap2\n  pop\n    /* \"#utility.yul\":7053:7056   */\n  dup3\n    /* \"#utility.yul\":7050:7051   */\n  0x02\n    /* \"#utility.yul\":7046:7057   */\n  mul\n    /* \"#utility.yul\":7040:7044   */\n  dup3\n    /* \"#utility.yul\":7037:7058   */\n  or\n    /* \"#utility.yul\":7029:7058   */\n  swap1\n  pop\n    /* \"#utility.yul\":6769:7064   */\n  swap3\n  swap2\n  pop\n  pop\n  jump\t// out\n    /* \"#utility.yul\":7069:8464   */\ntag_7:\n    /* \"#utility.yul\":7186:7223   */\n  tag_126\n    /* \"#utility.yul\":7219:7222   */\n  dup3\n    /* \"#utility.yul\":7186:7223   */\n  tag_23\n  jump\t// in\ntag_126:\n    /* \"#utility.yul\":7288:7306   */\n  0xffffffffffffffff\n    /* \"#utility.yul\":7280:7286   */\n  dup2\n    /* \"#utility.yul\":7277:7307   */\n  gt\n    /* \"#utility.yul\":7274:7330   */\n  iszero\n  tag_127\n  jumpi\n    /* \"#utility.yul\":7310:7328   */\n  tag_128\n  tag_16\n  jump\t// in\ntag_128:\n    /* \"#utility.yul\":7274:7330   */\ntag_127:\n    /* \"#utility.yul\":7354:7392   */\n  tag_129\n    /* \"#utility.yul\":7386:7390   */\n  dup3\n    /* \"#utility.yul\":7380:7391   */\n  sload\n    /* \"#utility.yul\":7354:7392   */\n  tag_25\n  jump\t// in\ntag_129:\n    /* \"#utility.yul\":7439:7506   */\n  tag_130\n    /* \"#utility.yul\":7499:7505   */\n  dup3\n    /* \"#utility.yul\":7491:7497   */\n  dup3\n    /* \"#utility.yul\":7485:7489   */\n  dup6\n    /* \"#utility.yul\":7439:7506   */\n  tag_38\n  jump\t// in\ntag_130:\n    /* \"#utility.yul\":7533:7534   */\n  0x00\n    /* \"#utility.yul\":7557:7561   */\n  0x20\n    /* \"#utility.yul\":7544:7561   */\n  swap1\n  pop\n    /* \"#utility.yul\":7589:7591   */\n  0x1f\n    /* \"#utility.yul\":7581:7587   */\n  dup4\n    /* \"#utility.yul\":7578:7592   */\n  gt\n    /* \"#utility.yul\":7606:7607   */\n  0x01\n    /* \"#utility.yul\":7601:8219   */\n  dup2\n  eq\n  tag_132\n  jumpi\n    /* \"#utility.yul\":8263:8264   */\n  0x00\n    /* \"#utility.yul\":8280:8286   */\n  dup5\n    /* \"#utility.yul\":8277:8354   */\n  iszero\n  tag_133\n  jumpi\n    /* \"#utility.yul\":8329:8338   */\n  dup3\n    /* \"#utility.yul\":8324:8327   */\n  dup8\n    /* \"#utility.yul\":8320:8339   */\n  add\n    /* \"#utility.yul\":8314:8340   */\n  mload\n    /* \"#utility.yul\":8305:8340   */\n  swap1\n  pop\n    /* \"#utility.yul\":8277:8354   */\ntag_133:\n    /* \"#utility.yul\":8380:8447   */\n  tag_134\n    /* \"#utility.yul\":8440:8446   */\n  dup6\n    /* \"#utility.yul\":8433:8438   */\n  dup3\n    /* \"#utility.yul\":8380:8447   */\n  tag_41\n  jump\t// in\ntag_134:\n    /* \"#utility.yul\":8374:8378   */\n  dup7\n    /* \"#utility.yul\":8367:8448   */\n  sstore\n    /* \"#utility.yul\":8236:8458   */\n  pop\n    /* \"#utility.yul\":7571:8458   */\n  jump(tag_131)\n    /* \"#utility.yul\":7601:8219   */\ntag_132:\n    /* \"#utility.yul\":7653:7657   */\n  0x1f\n    /* \"#utility.yul\":7649:7658   */\n  not\n    /* \"#utility.yul\":7641:7647   */\n  dup5\n    /* \"#utility.yul\":7637:7659   */\n  and\n    /* \"#utility.yul\":7687:7724   */\n  tag_135\n    /* \"#utility.yul\":7719:7723   */\n  dup7\n    /* \"#utility.yul\":7687:7724   */\n  tag_26\n  jump\t// in\ntag_135:\n    /* \"#utility.yul\":7746:7747   */\n  0x00\n    /* \"#utility.yul\":7760:7968   */\ntag_136:\n    /* \"#utility.yul\":7774:7781   */\n  dup3\n    /* \"#utility.yul\":7771:7772   */\n  dup2\n    /* \"#utility.yul\":7768:7782   */\n  lt\n    /* \"#utility.yul\":7760:7968   */\n  iszero\n  tag_138\n  jumpi\n    /* \"#utility.yul\":7853:7862   */\n  dup5\n    /* \"#utility.yul\":7848:7851   */\n  dup10\n    /* \"#utility.yul\":7844:7863   */\n  add\n    /* \"#utility.yul\":7838:7864   */\n  mload\n    /* \"#utility.yul\":7830:7836   */\n  dup3\n    /* \"#utility.yul\":7823:7865   */\n  sstore\n    /* \"#utility.yul\":7904:7905   */\n  0x01\n    /* \"#utility.yul\":7896:7902   */\n  dup3\n    /* \"#utility.yul\":7892:7906   */\n  add\n    /* \"#utility.yul\":7882:7906   */\n  swap2\n  pop\n    /* \"#utility.yul\":7951:7953   */\n  0x20\n    /* \"#utility.yul\":7940:7949   */\n  dup6\n    /* \"#utility.yul\":7936:7954   */\n  add\n    /* \"#utility.yul\":7923:7954   */\n  swap5\n  pop\n    /* \"#utility.yul\":7797:7801   */\n  0x20\n    /* \"#utility.yul\":7794:7795   */\n  dup2\n    /* \"#utility.yul\":7790:7802   */\n  add\n    /* \"#utility.yul\":7785:7802   */\n  swap1\n  pop\n    /* \"#utility.yul\":7760:7968   */\n  jump(tag_136)\ntag_138:\n    /* \"#utility.yul\":7996:8002   */\n  dup7\n    /* \"#utility.yul\":7987:7994   */\n  dup4\n    /* \"#utility.yul\":7984:8003   */\n  lt\n    /* \"#utility.yul\":7981:8160   */\n  iszero\n  tag_139\n  jumpi\n    /* \"#utility.yul\":8054:8063   */\n  dup5\n    /* \"#utility.yul\":8049:8052   */\n  dup10\n    /* \"#utility.yul\":8045:8064   */\n  add\n    /* \"#utility.yul\":8039:8065   */\n  mload\n    /* \"#utility.yul\":8097:8145   */\n  tag_140\n    /* \"#utility.yul\":8139:8143   */\n  0x1f\n    /* \"#utility.yul\":8131:8137   */\n  dup10\n    /* \"#utility.yul\":8127:8144   */\n  and\n    /* \"#utility.yul\":8116:8125   */\n  dup3\n    /* \"#utility.yul\":8097:8145   */\n  tag_40\n  jump\t// in\ntag_140:\n    /* \"#utility.yul\":8089:8095   */\n  dup4\n    /* \"#utility.yul\":8082:8146   */\n  sstore\n    /* \"#utility.yul\":8004:8160   */\n  pop\n    /* \"#utility.yul\":7981:8160   */\ntag_139:\n    /* \"#utility.yul\":8206:8207   */\n  0x01\n    /* \"#utility.yul\":8202:8203   */\n  0x02\n    /* \"#utility.yul\":8194:8200   */\n  dup9\n    /* \"#utility.yul\":8190:8204   */\n  mul\n    /* \"#utility.yul\":8186:8208   */\n  add\n    /* \"#utility.yul\":8180:8184   */\n  dup9\n    /* \"#utility.yul\":8173:8209   */\n  sstore\n    /* \"#utility.yul\":7608:8219   */\n  pop\n  pop\n  pop\n    /* \"#utility.yul\":7571:8458   */\ntag_131:\n  pop\n    /* \"#utility.yul\":7161:8464   */\n  pop\n  pop\n  pop\n    /* \"#utility.yul\":7069:8464   */\n  pop\n  pop\n  jump\t// out\n    /* \"MyNFT_1.sol\":254:8064  contract MyNFT {... */\ntag_9:\n  dataSize(sub_0)\n  dup1\n  dataOffset(sub_0)\n  0x00\n  codecopy\n  0x00\n  return\nstop\n\nsub_0: assembly {\n        /* \"MyNFT_1.sol\":254:8064  contract MyNFT {... */\n      mstore(0x40, 0x80)\n      jumpi(tag_1, lt(calldatasize, 0x04))\n      shr(0xe0, calldataload(0x00))\n      dup1\n      0x70a08231\n      gt\n      tag_24\n      jumpi\n      dup1\n      0xc87b56dd\n      gt\n      tag_25\n      jumpi\n      dup1\n      0xc87b56dd\n      eq\n      tag_18\n      jumpi\n      dup1\n      0xd0def521\n      eq\n      tag_19\n      jumpi\n      dup1\n      0xd5abeb01\n      eq\n      tag_20\n      jumpi\n      dup1\n      0xe985e9c5\n      eq\n      tag_21\n      jumpi\n      dup1\n      0xf2fde38b\n      eq\n      tag_22\n      jumpi\n      dup1\n      0xf4a0a528\n      eq\n      tag_23\n      jumpi\n      jump(tag_1)\n    tag_25:\n      dup1\n      0x70a08231\n      eq\n      tag_13\n      jumpi\n      dup1\n      0x8da5cb5b\n      eq\n      tag_14\n      jumpi\n      dup1\n      0x95d89b41\n      eq\n      tag_15\n      jumpi\n      dup1\n      0xa22cb465\n      eq\n      tag_16\n      jumpi\n      dup1\n      0xb88d4fde\n      eq\n      tag_17\n      jumpi\n      jump(tag_1)\n    tag_24:\n      dup1\n      0x23b872dd\n      gt\n      tag_26\n      jumpi\n      dup1\n      0x23b872dd\n      eq\n      tag_7\n      jumpi\n      dup1\n      0x3ccfd60b\n      eq\n      tag_8\n      jumpi\n      dup1\n      0x41d5b803\n      eq\n      tag_9\n      jumpi\n      dup1\n      0x42842e0e\n      eq\n      tag_10\n      jumpi\n      dup1\n      0x6352211e\n      eq\n      tag_11\n      jumpi\n      dup1\n      0x6817c76c\n      eq\n      tag_12\n      jumpi\n      jump(tag_1)\n    tag_26:\n      dup1\n      0x01ffc9a7\n      eq\n      tag_2\n      jumpi\n      dup1\n      0x06fdde03\n      eq\n      tag_3\n      jumpi\n      dup1\n      0x081812fc\n      eq\n      tag_4\n      jumpi\n      dup1\n      0x095ea7b3\n      eq\n      tag_5\n      jumpi\n      dup1\n      0x18160ddd\n      eq\n      tag_6\n      jumpi\n    tag_1:\n      revert(0x00, 0x00)\n        /* \"MyNFT_1.sol\":3617:3874  function supportsInterface(bytes4 interfaceId) public pure returns (bool) {... */\n    tag_2:\n      callvalue\n      dup1\n      iszero\n      tag_27\n      jumpi\n      revert(0x00, 0x00)\n    tag_27:\n      pop\n      tag_28\n      0x04\n      dup1\n      calldatasize\n      sub\n      dup2\n      add\n      swap1\n      tag_29\n      swap2\n      swap1\n      tag_30\n      jump\t// in\n    tag_29:\n      tag_31\n      jump\t// in\n    tag_28:\n      mload(0x40)\n      tag_32\n      swap2\n      swap1\n      tag_33\n      jump\t// in\n    tag_32:\n      mload(0x40)\n      dup1\n      swap2\n      sub\n      swap1\n      return\n        /* \"MyNFT_1.sol\":489:507  string public name */\n    tag_3:\n      callvalue\n      dup1\n      iszero\n      tag_34\n      jumpi\n      revert(0x00, 0x00)\n    tag_34:\n      pop\n      tag_35\n      tag_36\n      jump\t// in\n    tag_35:\n      mload(0x40)\n      tag_37\n      swap2\n      swap1\n      tag_38\n      jump\t// in\n    tag_37:\n      mload(0x40)\n      dup1\n      swap2\n      sub\n      swap1\n      return\n        /* \"MyNFT_1.sol\":3016:3148  function getApproved(uint256 tokenId) public view tokenExists(tokenId) returns (address) {... */\n    tag_4:\n      callvalue\n      dup1\n      iszero\n      tag_39\n      jumpi\n      revert(0x00, 0x00)\n    tag_39:\n      pop\n      tag_40\n      0x04\n      dup1\n      calldatasize\n      sub\n      dup2\n      add\n      swap1\n      tag_41\n      swap2\n      swap1\n      tag_42\n      jump\t// in\n    tag_41:\n      tag_43\n      jump\t// in\n    tag_40:\n      mload(0x40)\n      tag_44\n      swap2\n      swap1\n      tag_45\n      jump\t// in\n    tag_44:\n      mload(0x40)\n      dup1\n      swap2\n      sub\n      swap1\n      return\n        /* \"MyNFT_1.sol\":4071:4423  function approve(address to, uint256 tokenId) public tokenExists(tokenId) {... */\n    tag_5:\n      callvalue\n      dup1\n      iszero\n      tag_46\n      jumpi\n      revert(0x00, 0x00)\n    tag_46:\n      pop\n      tag_47\n      0x04\n      dup1\n      calldatasize\n      sub\n      dup2\n      add\n      swap1\n      tag_48\n      swap2\n      swap1\n      tag_49\n      jump\t// in\n    tag_48:\n      tag_50\n      jump\t// in\n    tag_47:\n      stop\n        /* \"MyNFT_1.sol\":3307:3396  function totalSupply() public view returns (uint256) {... */\n    tag_6:\n      callvalue\n      dup1\n      iszero\n      tag_51\n      jumpi\n      revert(0x00, 0x00)\n    tag_51:\n      pop\n      tag_52\n      tag_53\n      jump\t// in\n    tag_52:\n      mload(0x40)\n      tag_54\n      swap2\n      swap1\n      tag_55\n      jump\t// in\n    tag_54:\n      mload(0x40)\n      dup1\n      swap2\n      sub\n      swap1\n      return\n        /* \"MyNFT_1.sol\":4886:5452  function transferFrom(address from, address to, uint256 tokenId) public tokenExists(tokenId) {... */\n    tag_7:\n      callvalue\n      dup1\n      iszero\n      tag_56\n      jumpi\n      revert(0x00, 0x00)\n    tag_56:\n      pop\n      tag_57\n      0x04\n      dup1\n      calldatasize\n      sub\n      dup2\n      add\n      swap1\n      tag_58\n      swap2\n      swap1\n      tag_59\n      jump\t// in\n    tag_58:\n      tag_60\n      jump\t// in\n    tag_57:\n      stop\n        /* \"MyNFT_1.sol\":7049:7237  function withdraw() public onlyOwner {... */\n    tag_8:\n      callvalue\n      dup1\n      iszero\n      tag_61\n      jumpi\n      revert(0x00, 0x00)\n    tag_61:\n      pop\n      tag_62\n      tag_63\n      jump\t// in\n    tag_62:\n      stop\n        /* \"MyNFT_1.sol\":6259:6422  function ownerMint(address to, string memory uri) public onlyOwner {... */\n    tag_9:\n      callvalue\n      dup1\n      iszero\n      tag_64\n      jumpi\n      revert(0x00, 0x00)\n    tag_64:\n      pop\n      tag_65\n      0x04\n      dup1\n      calldatasize\n      sub\n      dup2\n      add\n      swap1\n      tag_66\n      swap2\n      swap1\n      tag_67\n      jump\t// in\n    tag_66:\n      tag_68\n      jump\t// in\n    tag_65:\n      stop\n        /* \"MyNFT_1.sol\":5458:5590  function safeTransferFrom(address from, address to, uint256 tokenId) public {... */\n    tag_10:\n      callvalue\n      dup1\n      iszero\n      tag_69\n      jumpi\n      revert(0x00, 0x00)\n    tag_69:\n      pop\n      tag_70\n      0x04\n      dup1\n      calldatasize\n      sub\n      dup2\n      add\n      swap1\n      tag_71\n      swap2\n      swap1\n      tag_59\n      jump\t// in\n    tag_71:\n      tag_72\n      jump\t// in\n    tag_70:\n      stop\n        /* \"MyNFT_1.sol\":2743:2869  function ownerOf(uint256 tokenId) public view tokenExists(tokenId) returns (address) {... */\n    tag_11:\n      callvalue\n      dup1\n      iszero\n      tag_73\n      jumpi\n      revert(0x00, 0x00)\n    tag_73:\n      pop\n      tag_74\n      0x04\n      dup1\n      calldatasize\n      sub\n      dup2\n      add\n      swap1\n      tag_75\n      swap2\n      swap1\n      tag_42\n      jump\t// in\n    tag_75:\n      tag_76\n      jump\t// in\n    tag_74:\n      mload(0x40)\n      tag_77\n      swap2\n      swap1\n      tag_45\n      jump\t// in\n    tag_77:\n      mload(0x40)\n      dup1\n      swap2\n      sub\n      swap1\n      return\n        /* \"MyNFT_1.sol\":600:637  uint256 public mintPrice = 0.01 ether */\n    tag_12:\n      callvalue\n      dup1\n      iszero\n      tag_78\n      jumpi\n      revert(0x00, 0x00)\n    tag_78:\n      pop\n      tag_79\n      tag_80\n      jump\t// in\n    tag_79:\n      mload(0x40)\n      tag_81\n      swap2\n      swap1\n      tag_55\n      jump\t// in\n    tag_81:\n      mload(0x40)\n      dup1\n      swap2\n      sub\n      swap1\n      return\n        /* \"MyNFT_1.sol\":2575:2737  function balanceOf(address _owner) public view returns (uint256) {... */\n    tag_13:\n      callvalue\n      dup1\n      iszero\n      tag_82\n      jumpi\n      revert(0x00, 0x00)\n    tag_82:\n      pop\n      tag_83\n      0x04\n      dup1\n      calldatasize\n      sub\n      dup2\n      add\n      swap1\n      tag_84\n      swap2\n      swap1\n      tag_85\n      jump\t// in\n    tag_84:\n      tag_86\n      jump\t// in\n    tag_83:\n      mload(0x40)\n      tag_87\n      swap2\n      swap1\n      tag_55\n      jump\t// in\n    tag_87:\n      mload(0x40)\n      dup1\n      swap2\n      sub\n      swap1\n      return\n        /* \"MyNFT_1.sol\":539:559  address public owner */\n    tag_14:\n      callvalue\n      dup1\n      iszero\n      tag_88\n      jumpi\n      revert(0x00, 0x00)\n    tag_88:\n      pop\n      tag_89\n      tag_90\n      jump\t// in\n    tag_89:\n      mload(0x40)\n      tag_91\n      swap2\n      swap1\n      tag_45\n      jump\t// in\n    tag_91:\n      mload(0x40)\n      dup1\n      swap2\n      sub\n      swap1\n      return\n        /* \"MyNFT_1.sol\":513:533  string public symbol */\n    tag_15:\n      callvalue\n      dup1\n      iszero\n      tag_92\n      jumpi\n      revert(0x00, 0x00)\n    tag_92:\n      pop\n      tag_93\n      tag_94\n      jump\t// in\n    tag_93:\n      mload(0x40)\n      tag_95\n      swap2\n      swap1\n      tag_38\n      jump\t// in\n    tag_95:\n      mload(0x40)\n      dup1\n      swap2\n      sub\n      swap1\n      return\n        /* \"MyNFT_1.sol\":4429:4689  function setApprovalForAll(address operator, bool approved) public {... */\n    tag_16:\n      callvalue\n      dup1\n      iszero\n      tag_96\n      jumpi\n      revert(0x00, 0x00)\n    tag_96:\n      pop\n      tag_97\n      0x04\n      dup1\n      calldatasize\n      sub\n      dup2\n      add\n      swap1\n      tag_98\n      swap2\n      swap1\n      tag_99\n      jump\t// in\n    tag_98:\n      tag_100\n      jump\t// in\n    tag_97:\n      stop\n        /* \"MyNFT_1.sol\":5596:5827  function safeTransferFrom(address from, address to, uint256 tokenId, bytes memory data) public {... */\n    tag_17:\n      callvalue\n      dup1\n      iszero\n      tag_101\n      jumpi\n      revert(0x00, 0x00)\n    tag_101:\n      pop\n      tag_102\n      0x04\n      dup1\n      calldatasize\n      sub\n      dup2\n      add\n      swap1\n      tag_103\n      swap2\n      swap1\n      tag_104\n      jump\t// in\n    tag_103:\n      tag_105\n      jump\t// in\n    tag_102:\n      stop\n        /* \"MyNFT_1.sol\":2875:3010  function tokenURI(uint256 tokenId) public view tokenExists(tokenId) returns (string memory) {... */\n    tag_18:\n      callvalue\n      dup1\n      iszero\n      tag_106\n      jumpi\n      revert(0x00, 0x00)\n    tag_106:\n      pop\n      tag_107\n      0x04\n      dup1\n      calldatasize\n      sub\n      dup2\n      add\n      swap1\n      tag_108\n      swap2\n      swap1\n      tag_42\n      jump\t// in\n    tag_108:\n      tag_109\n      jump\t// in\n    tag_107:\n      mload(0x40)\n      tag_110\n      swap2\n      swap1\n      tag_38\n      jump\t// in\n    tag_110:\n      mload(0x40)\n      dup1\n      swap2\n      sub\n      swap1\n      return\n        /* \"MyNFT_1.sol\":6032:6253  function mint(address to, string memory uri) public payable {... */\n    tag_19:\n      tag_111\n      0x04\n      dup1\n      calldatasize\n      sub\n      dup2\n      add\n      swap1\n      tag_112\n      swap2\n      swap1\n      tag_67\n      jump\t// in\n    tag_112:\n      tag_113\n      jump\t// in\n    tag_111:\n      stop\n        /* \"MyNFT_1.sol\":643:675  uint256 public maxSupply = 10000 */\n    tag_20:\n      callvalue\n      dup1\n      iszero\n      tag_114\n      jumpi\n      revert(0x00, 0x00)\n    tag_114:\n      pop\n      tag_115\n      tag_116\n      jump\t// in\n    tag_115:\n      mload(0x40)\n      tag_117\n      swap2\n      swap1\n      tag_55\n      jump\t// in\n    tag_117:\n      mload(0x40)\n      dup1\n      swap2\n      sub\n      swap1\n      return\n        /* \"MyNFT_1.sol\":3154:3301  function isApprovedForAll(address _owner, address operator) public view returns (bool) {... */\n    tag_21:\n      callvalue\n      dup1\n      iszero\n      tag_118\n      jumpi\n      revert(0x00, 0x00)\n    tag_118:\n      pop\n      tag_119\n      0x04\n      dup1\n      calldatasize\n      sub\n      dup2\n      add\n      swap1\n      tag_120\n      swap2\n      swap1\n      tag_121\n      jump\t// in\n    tag_120:\n      tag_122\n      jump\t// in\n    tag_119:\n      mload(0x40)\n      tag_123\n      swap2\n      swap1\n      tag_33\n      jump\t// in\n    tag_123:\n      mload(0x40)\n      dup1\n      swap2\n      sub\n      swap1\n      return\n        /* \"MyNFT_1.sol\":7243:7395  function transferOwnership(address newOwner) public onlyOwner {... */\n    tag_22:\n      callvalue\n      dup1\n      iszero\n      tag_124\n      jumpi\n      revert(0x00, 0x00)\n    tag_124:\n      pop\n      tag_125\n      0x04\n      dup1\n      calldatasize\n      sub\n      dup2\n      add\n      swap1\n      tag_126\n      swap2\n      swap1\n      tag_85\n      jump\t// in\n    tag_126:\n      tag_127\n      jump\t// in\n    tag_125:\n      stop\n        /* \"MyNFT_1.sol\":6949:7043  function setMintPrice(uint256 newPrice) public onlyOwner {... */\n    tag_23:\n      callvalue\n      dup1\n      iszero\n      tag_128\n      jumpi\n      revert(0x00, 0x00)\n    tag_128:\n      pop\n      tag_129\n      0x04\n      dup1\n      calldatasize\n      sub\n      dup2\n      add\n      swap1\n      tag_130\n      swap2\n      swap1\n      tag_42\n      jump\t// in\n    tag_130:\n      tag_131\n      jump\t// in\n    tag_129:\n      stop\n        /* \"MyNFT_1.sol\":3617:3874  function supportsInterface(bytes4 interfaceId) public pure returns (bool) {... */\n    tag_31:\n        /* \"MyNFT_1.sol\":3685:3689  bool */\n      0x00\n        /* \"MyNFT_1.sol\":3735:3745  0x80ac58cd */\n      0x80ac58cd\n        /* \"MyNFT_1.sol\":3720:3745  interfaceId == 0x80ac58cd */\n      0xe0\n      shl\n        /* \"MyNFT_1.sol\":3720:3731  interfaceId */\n      dup3\n        /* \"MyNFT_1.sol\":3720:3745  interfaceId == 0x80ac58cd */\n      not(0xffffffffffffffffffffffffffffffffffffffffffffffffffffffff)\n      and\n      eq\n        /* \"MyNFT_1.sol\":3720:3796  interfaceId == 0x80ac58cd || // ERC721... */\n      dup1\n      tag_133\n      jumpi\n      pop\n        /* \"MyNFT_1.sol\":3786:3796  0x5b5e139f */\n      0x5b5e139f\n        /* \"MyNFT_1.sol\":3771:3796  interfaceId == 0x5b5e139f */\n      0xe0\n      shl\n        /* \"MyNFT_1.sol\":3771:3782  interfaceId */\n      dup3\n        /* \"MyNFT_1.sol\":3771:3796  interfaceId == 0x5b5e139f */\n      not(0xffffffffffffffffffffffffffffffffffffffffffffffffffffffff)\n      and\n      eq\n        /* \"MyNFT_1.sol\":3720:3796  interfaceId == 0x80ac58cd || // ERC721... */\n    tag_133:\n        /* \"MyNFT_1.sol\":3720:3855  interfaceId == 0x80ac58cd || // ERC721... */\n      dup1\n      tag_134\n      jumpi\n      pop\n        /* \"MyNFT_1.sol\":3845:3855  0x01ffc9a7 */\n      0x01ffc9a7\n        /* \"MyNFT_1.sol\":3830:3855  interfaceId == 0x01ffc9a7 */\n      0xe0\n      shl\n        /* \"MyNFT_1.sol\":3830:3841  interfaceId */\n      dup3\n        /* \"MyNFT_1.sol\":3830:3855  interfaceId == 0x01ffc9a7 */\n      not(0xffffffffffffffffffffffffffffffffffffffffffffffffffffffff)\n      and\n      eq\n        /* \"MyNFT_1.sol\":3720:3855  interfaceId == 0x80ac58cd || // ERC721... */\n    tag_134:\n        /* \"MyNFT_1.sol\":3701:3855  return... */\n      swap1\n      pop\n        /* \"MyNFT_1.sol\":3617:3874  function supportsInterface(bytes4 interfaceId) public pure returns (bool) {... */\n      swap2\n      swap1\n      pop\n      jump\t// out\n        /* \"MyNFT_1.sol\":489:507  string public name */\n    tag_36:\n      0x00\n      dup1\n      sload\n      tag_135\n      swap1\n      tag_136\n      jump\t// in\n    tag_135:\n      dup1\n      0x1f\n      add\n      0x20\n      dup1\n      swap2\n      div\n      mul\n      0x20\n      add\n      mload(0x40)\n      swap1\n      dup2\n      add\n      0x40\n      mstore\n      dup1\n      swap3\n      swap2\n      swap1\n      dup2\n      dup2\n      mstore\n      0x20\n      add\n      dup3\n      dup1\n      sload\n      tag_137\n      swap1\n      tag_136\n      jump\t// in\n    tag_137:\n      dup1\n      iszero\n      tag_138\n      jumpi\n      dup1\n      0x1f\n      lt\n      tag_139\n      jumpi\n      0x0100\n      dup1\n      dup4\n      sload\n      div\n      mul\n      dup4\n      mstore\n      swap2\n      0x20\n      add\n      swap2\n      jump(tag_138)\n    tag_139:\n      dup3\n      add\n      swap2\n      swap1\n      0x00\n      mstore\n      keccak256(0x00, 0x20)\n      swap1\n    tag_140:\n      dup2\n      sload\n      dup2\n      mstore\n      swap1\n      0x01\n      add\n      swap1\n      0x20\n      add\n      dup1\n      dup4\n      gt\n      tag_140\n      jumpi\n      dup3\n      swap1\n      sub\n      0x1f\n      and\n      dup3\n      add\n      swap2\n    tag_138:\n      pop\n      pop\n      pop\n      pop\n      pop\n      dup2\n      jump\t// out\n        /* \"MyNFT_1.sol\":3016:3148  function getApproved(uint256 tokenId) public view tokenExists(tokenId) returns (address) {... */\n    tag_43:\n        /* \"MyNFT_1.sol\":3096:3103  address */\n      0x00\n        /* \"MyNFT_1.sol\":3078:3085  tokenId */\n      dup2\n        /* \"MyNFT_1.sol\":1992:1993  0 */\n      0x00\n        /* \"MyNFT_1.sol\":1963:1994  _ownerOf[tokenId] != address(0) */\n      0xffffffffffffffffffffffffffffffffffffffff\n      and\n        /* \"MyNFT_1.sol\":1963:1971  _ownerOf */\n      0x06\n        /* \"MyNFT_1.sol\":1963:1980  _ownerOf[tokenId] */\n      0x00\n        /* \"MyNFT_1.sol\":1972:1979  tokenId */\n      dup4\n        /* \"MyNFT_1.sol\":1963:1980  _ownerOf[tokenId] */\n      dup2\n      mstore\n      0x20\n      add\n      swap1\n      dup2\n      mstore\n      0x20\n      add\n      0x00\n      keccak256\n      0x00\n      swap1\n      sload\n      swap1\n      0x0100\n      exp\n      swap1\n      div\n      0xffffffffffffffffffffffffffffffffffffffff\n      and\n        /* \"MyNFT_1.sol\":1963:1994  _ownerOf[tokenId] != address(0) */\n      0xffffffffffffffffffffffffffffffffffffffff\n      and\n      sub\n        /* \"MyNFT_1.sol\":1955:2019  require(_ownerOf[tokenId] != address(0), \"Token does not exist\") */\n      tag_142\n      jumpi\n      mload(0x40)\n      0x08c379a000000000000000000000000000000000000000000000000000000000\n      dup2\n      mstore\n      0x04\n      add\n      tag_143\n      swap1\n      tag_144\n      jump\t// in\n    tag_143:\n      mload(0x40)\n      dup1\n      swap2\n      sub\n      swap1\n      revert\n    tag_142:\n        /* \"MyNFT_1.sol\":3122:3132  _approvals */\n      0x08\n        /* \"MyNFT_1.sol\":3122:3141  _approvals[tokenId] */\n      0x00\n        /* \"MyNFT_1.sol\":3133:3140  tokenId */\n      dup5\n        /* \"MyNFT_1.sol\":3122:3141  _approvals[tokenId] */\n      dup2\n      mstore\n      0x20\n      add\n      swap1\n      dup2\n      mstore\n      0x20\n      add\n      0x00\n      keccak256\n      0x00\n      swap1\n      sload\n      swap1\n      0x0100\n      exp\n      swap1\n      div\n      0xffffffffffffffffffffffffffffffffffffffff\n      and\n        /* \"MyNFT_1.sol\":3115:3141  return _approvals[tokenId] */\n      swap2\n      pop\n        /* \"MyNFT_1.sol\":3016:3148  function getApproved(uint256 tokenId) public view tokenExists(tokenId) returns (address) {... */\n      pop\n      swap2\n      swap1\n      pop\n      jump\t// out\n        /* \"MyNFT_1.sol\":4071:4423  function approve(address to, uint256 tokenId) public tokenExists(tokenId) {... */\n    tag_50:\n        /* \"MyNFT_1.sol\":4136:4143  tokenId */\n      dup1\n        /* \"MyNFT_1.sol\":1992:1993  0 */\n      0x00\n        /* \"MyNFT_1.sol\":1963:1994  _ownerOf[tokenId] != address(0) */\n      0xffffffffffffffffffffffffffffffffffffffff\n      and\n        /* \"MyNFT_1.sol\":1963:1971  _ownerOf */\n      0x06\n        /* \"MyNFT_1.sol\":1963:1980  _ownerOf[tokenId] */\n      0x00\n        /* \"MyNFT_1.sol\":1972:1979  tokenId */\n      dup4\n        /* \"MyNFT_1.sol\":1963:1980  _ownerOf[tokenId] */\n      dup2\n      mstore\n      0x20\n      add\n      swap1\n      dup2\n      mstore\n      0x20\n      add\n      0x00\n      keccak256\n      0x00\n      swap1\n      sload\n      swap1\n      0x0100\n      exp\n      swap1\n      div\n      0xffffffffffffffffffffffffffffffffffffffff\n      and\n        /* \"MyNFT_1.sol\":1963:1994  _ownerOf[tokenId] != address(0) */\n      0xffffffffffffffffffffffffffffffffffffffff\n      and\n      sub\n        /* \"MyNFT_1.sol\":1955:2019  require(_ownerOf[tokenId] != address(0), \"Token does not exist\") */\n      tag_147\n      jumpi\n      mload(0x40)\n      0x08c379a000000000000000000000000000000000000000000000000000000000\n      dup2\n      mstore\n      0x04\n      add\n      tag_148\n      swap1\n      tag_144\n      jump\t// in\n    tag_148:\n      mload(0x40)\n      dup1\n      swap2\n      sub\n      swap1\n      revert\n    tag_147:\n        /* \"MyNFT_1.sol\":4155:4173  address tokenOwner */\n      0x00\n        /* \"MyNFT_1.sol\":4176:4184  _ownerOf */\n      0x06\n        /* \"MyNFT_1.sol\":4176:4193  _ownerOf[tokenId] */\n      0x00\n        /* \"MyNFT_1.sol\":4185:4192  tokenId */\n      dup5\n        /* \"MyNFT_1.sol\":4176:4193  _ownerOf[tokenId] */\n      dup2\n      mstore\n      0x20\n      add\n      swap1\n      dup2\n      mstore\n      0x20\n      add\n      0x00\n      keccak256\n      0x00\n      swap1\n      sload\n      swap1\n      0x0100\n      exp\n      swap1\n      div\n      0xffffffffffffffffffffffffffffffffffffffff\n      and\n        /* \"MyNFT_1.sol\":4155:4193  address tokenOwner = _ownerOf[tokenId] */\n      swap1\n      pop\n        /* \"MyNFT_1.sol\":4238:4248  tokenOwner */\n      dup1\n        /* \"MyNFT_1.sol\":4224:4248  msg.sender == tokenOwner */\n      0xffffffffffffffffffffffffffffffffffffffff\n      and\n        /* \"MyNFT_1.sol\":4224:4234  msg.sender */\n      caller\n        /* \"MyNFT_1.sol\":4224:4248  msg.sender == tokenOwner */\n      0xffffffffffffffffffffffffffffffffffffffff\n      and\n      eq\n        /* \"MyNFT_1.sol\":4224:4294  msg.sender == tokenOwner || _operatorApprovals[tokenOwner][msg.sender] */\n      dup1\n      tag_150\n      jumpi\n      pop\n        /* \"MyNFT_1.sol\":4252:4270  _operatorApprovals */\n      0x09\n        /* \"MyNFT_1.sol\":4252:4282  _operatorApprovals[tokenOwner] */\n      0x00\n        /* \"MyNFT_1.sol\":4271:4281  tokenOwner */\n      dup3\n        /* \"MyNFT_1.sol\":4252:4282  _operatorApprovals[tokenOwner] */\n      0xffffffffffffffffffffffffffffffffffffffff\n      and\n      0xffffffffffffffffffffffffffffffffffffffff\n      and\n      dup2\n      mstore\n      0x20\n      add\n      swap1\n      dup2\n      mstore\n      0x20\n      add\n      0x00\n      keccak256\n        /* \"MyNFT_1.sol\":4252:4294  _operatorApprovals[tokenOwner][msg.sender] */\n      0x00\n        /* \"MyNFT_1.sol\":4283:4293  msg.sender */\n      caller\n        /* \"MyNFT_1.sol\":4252:4294  _operatorApprovals[tokenOwner][msg.sender] */\n      0xffffffffffffffffffffffffffffffffffffffff\n      and\n      0xffffffffffffffffffffffffffffffffffffffff\n      and\n      dup2\n      mstore\n      0x20\n      add\n      swap1\n      dup2\n      mstore\n      0x20\n      add\n      0x00\n      keccak256\n      0x00\n      swap1\n      sload\n      swap1\n      0x0100\n      exp\n      swap1\n      div\n      0xff\n      and\n        /* \"MyNFT_1.sol\":4224:4294  msg.sender == tokenOwner || _operatorApprovals[tokenOwner][msg.sender] */\n    tag_150:\n        /* \"MyNFT_1.sol\":4203:4334  require(... */\n      tag_151\n      jumpi\n      mload(0x40)\n      0x08c379a000000000000000000000000000000000000000000000000000000000\n      dup2\n      mstore\n      0x04\n      add\n      tag_152\n      swap1\n      tag_153\n      jump\t// in\n    tag_152:\n      mload(0x40)\n      dup1\n      swap2\n      sub\n      swap1\n      revert\n    tag_151:\n        /* \"MyNFT_1.sol\":4366:4368  to */\n      dup4\n        /* \"MyNFT_1.sol\":4344:4354  _approvals */\n      0x08\n        /* \"MyNFT_1.sol\":4344:4363  _approvals[tokenId] */\n      0x00\n        /* \"MyNFT_1.sol\":4355:4362  tokenId */\n      dup6\n        /* \"MyNFT_1.sol\":4344:4363  _approvals[tokenId] */\n      dup2\n      mstore\n      0x20\n      add\n      swap1\n      dup2\n      mstore\n      0x20\n      add\n      0x00\n      keccak256\n      0x00\n        /* \"MyNFT_1.sol\":4344:4368  _approvals[tokenId] = to */\n      0x0100\n      exp\n      dup2\n      sload\n      dup2\n      0xffffffffffffffffffffffffffffffffffffffff\n      mul\n      not\n      and\n      swap1\n      dup4\n      0xffffffffffffffffffffffffffffffffffffffff\n      and\n      mul\n      or\n      swap1\n      sstore\n      pop\n        /* \"MyNFT_1.sol\":4408:4415  tokenId */\n      dup3\n        /* \"MyNFT_1.sol\":4404:4406  to */\n      dup5\n        /* \"MyNFT_1.sol\":4383:4416  Approval(tokenOwner, to, tokenId) */\n      0xffffffffffffffffffffffffffffffffffffffff\n      and\n        /* \"MyNFT_1.sol\":4392:4402  tokenOwner */\n      dup3\n        /* \"MyNFT_1.sol\":4383:4416  Approval(tokenOwner, to, tokenId) */\n      0xffffffffffffffffffffffffffffffffffffffff\n      and\n      0x8c5be1e5ebec7d5bd14f71427d1e84f3dd0314c0f7b2291e5b200ac8c7c3b925\n      mload(0x40)\n      mload(0x40)\n      dup1\n      swap2\n      sub\n      swap1\n      log4\n        /* \"MyNFT_1.sol\":4145:4423  {... */\n      pop\n        /* \"MyNFT_1.sol\":4071:4423  function approve(address to, uint256 tokenId) public tokenExists(tokenId) {... */\n      pop\n      pop\n      pop\n      jump\t// out\n        /* \"MyNFT_1.sol\":3307:3396  function totalSupply() public view returns (uint256) {... */\n    tag_53:\n        /* \"MyNFT_1.sol\":3351:3358  uint256 */\n      0x00\n        /* \"MyNFT_1.sol\":3377:3389  _nextTokenId */\n      sload(0x03)\n        /* \"MyNFT_1.sol\":3370:3389  return _nextTokenId */\n      swap1\n      pop\n        /* \"MyNFT_1.sol\":3307:3396  function totalSupply() public view returns (uint256) {... */\n      swap1\n      jump\t// out\n        /* \"MyNFT_1.sol\":4886:5452  function transferFrom(address from, address to, uint256 tokenId) public tokenExists(tokenId) {... */\n    tag_60:\n        /* \"MyNFT_1.sol\":4970:4977  tokenId */\n      dup1\n        /* \"MyNFT_1.sol\":1992:1993  0 */\n      0x00\n        /* \"MyNFT_1.sol\":1963:1994  _ownerOf[tokenId] != address(0) */\n      0xffffffffffffffffffffffffffffffffffffffff\n      and\n        /* \"MyNFT_1.sol\":1963:1971  _ownerOf */\n      0x06\n        /* \"MyNFT_1.sol\":1963:1980  _ownerOf[tokenId] */\n      0x00\n        /* \"MyNFT_1.sol\":1972:1979  tokenId */\n      dup4\n        /* \"MyNFT_1.sol\":1963:1980  _ownerOf[tokenId] */\n      dup2\n      mstore\n      0x20\n      add\n      swap1\n      dup2\n      mstore\n      0x20\n      add\n      0x00\n      keccak256\n      0x00\n      swap1\n      sload\n      swap1\n      0x0100\n      exp\n      swap1\n      div\n      0xffffffffffffffffffffffffffffffffffffffff\n      and\n        /* \"MyNFT_1.sol\":1963:1994  _ownerOf[tokenId] != address(0) */\n      0xffffffffffffffffffffffffffffffffffffffff\n      and\n      sub\n        /* \"MyNFT_1.sol\":1955:2019  require(_ownerOf[tokenId] != address(0), \"Token does not exist\") */\n      tag_156\n      jumpi\n      mload(0x40)\n      0x08c379a000000000000000000000000000000000000000000000000000000000\n      dup2\n      mstore\n      0x04\n      add\n      tag_157\n      swap1\n      tag_144\n      jump\t// in\n    tag_157:\n      mload(0x40)\n      dup1\n      swap2\n      sub\n      swap1\n      revert\n    tag_156:\n        /* \"MyNFT_1.sol\":5005:5013  _ownerOf */\n      0x06\n        /* \"MyNFT_1.sol\":5005:5022  _ownerOf[tokenId] */\n      0x00\n        /* \"MyNFT_1.sol\":5014:5021  tokenId */\n      dup4\n        /* \"MyNFT_1.sol\":5005:5022  _ownerOf[tokenId] */\n      dup2\n      mstore\n      0x20\n      add\n      swap1\n      dup2\n      mstore\n      0x20\n      add\n      0x00\n      keccak256\n      0x00\n      swap1\n      sload\n      swap1\n      0x0100\n      exp\n      swap1\n      div\n      0xffffffffffffffffffffffffffffffffffffffff\n      and\n        /* \"MyNFT_1.sol\":4997:5022  from == _ownerOf[tokenId] */\n      0xffffffffffffffffffffffffffffffffffffffff\n      and\n        /* \"MyNFT_1.sol\":4997:5001  from */\n      dup5\n        /* \"MyNFT_1.sol\":4997:5022  from == _ownerOf[tokenId] */\n      0xffffffffffffffffffffffffffffffffffffffff\n      and\n      eq\n        /* \"MyNFT_1.sol\":4989:5038  require(from == _ownerOf[tokenId], \"Wrong owner\") */\n      tag_159\n      jumpi\n      mload(0x40)\n      0x08c379a000000000000000000000000000000000000000000000000000000000\n      dup2\n      mstore\n      0x04\n      add\n      tag_160\n      swap1\n      tag_161\n      jump\t// in\n    tag_160:\n      mload(0x40)\n      dup1\n      swap2\n      sub\n      swap1\n      revert\n    tag_159:\n        /* \"MyNFT_1.sol\":5070:5071  0 */\n      0x00\n        /* \"MyNFT_1.sol\":5056:5072  to != address(0) */\n      0xffffffffffffffffffffffffffffffffffffffff\n      and\n        /* \"MyNFT_1.sol\":5056:5058  to */\n      dup4\n        /* \"MyNFT_1.sol\":5056:5072  to != address(0) */\n      0xffffffffffffffffffffffffffffffffffffffff\n      and\n      sub\n        /* \"MyNFT_1.sol\":5048:5089  require(to != address(0), \"Zero address\") */\n      tag_162\n      jumpi\n      mload(0x40)\n      0x08c379a000000000000000000000000000000000000000000000000000000000\n      dup2\n      mstore\n      0x04\n      add\n      tag_163\n      swap1\n      tag_164\n      jump\t// in\n    tag_163:\n      mload(0x40)\n      dup1\n      swap2\n      sub\n      swap1\n      revert\n    tag_162:\n        /* \"MyNFT_1.sol\":5134:5138  from */\n      dup4\n        /* \"MyNFT_1.sol\":5120:5138  msg.sender == from */\n      0xffffffffffffffffffffffffffffffffffffffff\n      and\n        /* \"MyNFT_1.sol\":5120:5130  msg.sender */\n      caller\n        /* \"MyNFT_1.sol\":5120:5138  msg.sender == from */\n      0xffffffffffffffffffffffffffffffffffffffff\n      and\n      eq\n        /* \"MyNFT_1.sol\":5120:5187  msg.sender == from ||... */\n      dup1\n      tag_165\n      jumpi\n      pop\n        /* \"MyNFT_1.sol\":5168:5178  _approvals */\n      0x08\n        /* \"MyNFT_1.sol\":5168:5187  _approvals[tokenId] */\n      0x00\n        /* \"MyNFT_1.sol\":5179:5186  tokenId */\n      dup4\n        /* \"MyNFT_1.sol\":5168:5187  _approvals[tokenId] */\n      dup2\n      mstore\n      0x20\n      add\n      swap1\n      dup2\n      mstore\n      0x20\n      add\n      0x00\n      keccak256\n      0x00\n      swap1\n      sload\n      swap1\n      0x0100\n      exp\n      swap1\n      div\n      0xffffffffffffffffffffffffffffffffffffffff\n      and\n        /* \"MyNFT_1.sol\":5154:5187  msg.sender == _approvals[tokenId] */\n      0xffffffffffffffffffffffffffffffffffffffff\n      and\n        /* \"MyNFT_1.sol\":5154:5164  msg.sender */\n      caller\n        /* \"MyNFT_1.sol\":5154:5187  msg.sender == _approvals[tokenId] */\n      0xffffffffffffffffffffffffffffffffffffffff\n      and\n      eq\n        /* \"MyNFT_1.sol\":5120:5187  msg.sender == from ||... */\n    tag_165:\n        /* \"MyNFT_1.sol\":5120:5239  msg.sender == from ||... */\n      dup1\n      tag_166\n      jumpi\n      pop\n        /* \"MyNFT_1.sol\":5203:5221  _operatorApprovals */\n      0x09\n        /* \"MyNFT_1.sol\":5203:5227  _operatorApprovals[from] */\n      0x00\n        /* \"MyNFT_1.sol\":5222:5226  from */\n      dup6\n        /* \"MyNFT_1.sol\":5203:5227  _operatorApprovals[from] */\n      0xffffffffffffffffffffffffffffffffffffffff\n      and\n      0xffffffffffffffffffffffffffffffffffffffff\n      and\n      dup2\n      mstore\n      0x20\n      add\n      swap1\n      dup2\n      mstore\n      0x20\n      add\n      0x00\n      keccak256\n        /* \"MyNFT_1.sol\":5203:5239  _operatorApprovals[from][msg.sender] */\n      0x00\n        /* \"MyNFT_1.sol\":5228:5238  msg.sender */\n      caller\n        /* \"MyNFT_1.sol\":5203:5239  _operatorApprovals[from][msg.sender] */\n      0xffffffffffffffffffffffffffffffffffffffff\n      and\n      0xffffffffffffffffffffffffffffffffffffffff\n      and\n      dup2\n      mstore\n      0x20\n      add\n      swap1\n      dup2\n      mstore\n      0x20\n      add\n      0x00\n      keccak256\n      0x00\n      swap1\n      sload\n      swap1\n      0x0100\n      exp\n      swap1\n      div\n      0xff\n      and\n        /* \"MyNFT_1.sol\":5120:5239  msg.sender == from ||... */\n    tag_166:\n        /* \"MyNFT_1.sol\":5099:5279  require(... */\n      tag_167\n      jumpi\n      mload(0x40)\n      0x08c379a000000000000000000000000000000000000000000000000000000000\n      dup2\n      mstore\n      0x04\n      add\n      tag_168\n      swap1\n      tag_153\n      jump\t// in\n    tag_168:\n      mload(0x40)\n      dup1\n      swap2\n      sub\n      swap1\n      revert\n    tag_167:\n        /* \"MyNFT_1.sol\":5290:5300  _balanceOf */\n      0x07\n        /* \"MyNFT_1.sol\":5290:5306  _balanceOf[from] */\n      0x00\n        /* \"MyNFT_1.sol\":5301:5305  from */\n      dup6\n        /* \"MyNFT_1.sol\":5290:5306  _balanceOf[from] */\n      0xffffffffffffffffffffffffffffffffffffffff\n      and\n      0xffffffffffffffffffffffffffffffffffffffff\n      and\n      dup2\n      mstore\n      0x20\n      add\n      swap1\n      dup2\n      mstore\n      0x20\n      add\n      0x00\n      keccak256\n      0x00\n        /* \"MyNFT_1.sol\":5290:5308  _balanceOf[from]-- */\n      dup2\n      sload\n      dup1\n      swap3\n      swap2\n      swap1\n      tag_169\n      swap1\n      tag_170\n      jump\t// in\n    tag_169:\n      swap2\n      swap1\n      pop\n      sstore\n      pop\n        /* \"MyNFT_1.sol\":5318:5328  _balanceOf */\n      0x07\n        /* \"MyNFT_1.sol\":5318:5332  _balanceOf[to] */\n      0x00\n        /* \"MyNFT_1.sol\":5329:5331  to */\n      dup5\n        /* \"MyNFT_1.sol\":5318:5332  _balanceOf[to] */\n      0xffffffffffffffffffffffffffffffffffffffff\n      and\n      0xffffffffffffffffffffffffffffffffffffffff\n      and\n      dup2\n      mstore\n      0x20\n      add\n      swap1\n      dup2\n      mstore\n      0x20\n      add\n      0x00\n      keccak256\n      0x00\n        /* \"MyNFT_1.sol\":5318:5334  _balanceOf[to]++ */\n      dup2\n      sload\n      dup1\n      swap3\n      swap2\n      swap1\n      tag_171\n      swap1\n      tag_172\n      jump\t// in\n    tag_171:\n      swap2\n      swap1\n      pop\n      sstore\n      pop\n        /* \"MyNFT_1.sol\":5364:5366  to */\n      dup3\n        /* \"MyNFT_1.sol\":5344:5352  _ownerOf */\n      0x06\n        /* \"MyNFT_1.sol\":5344:5361  _ownerOf[tokenId] */\n      0x00\n        /* \"MyNFT_1.sol\":5353:5360  tokenId */\n      dup5\n        /* \"MyNFT_1.sol\":5344:5361  _ownerOf[tokenId] */\n      dup2\n      mstore\n      0x20\n      add\n      swap1\n      dup2\n      mstore\n      0x20\n      add\n      0x00\n      keccak256\n      0x00\n        /* \"MyNFT_1.sol\":5344:5366  _ownerOf[tokenId] = to */\n      0x0100\n      exp\n      dup2\n      sload\n      dup2\n      0xffffffffffffffffffffffffffffffffffffffff\n      mul\n      not\n      and\n      swap1\n      dup4\n      0xffffffffffffffffffffffffffffffffffffffff\n      and\n      mul\n      or\n      swap1\n      sstore\n      pop\n        /* \"MyNFT_1.sol\":5383:5393  _approvals */\n      0x08\n        /* \"MyNFT_1.sol\":5383:5402  _approvals[tokenId] */\n      0x00\n        /* \"MyNFT_1.sol\":5394:5401  tokenId */\n      dup4\n        /* \"MyNFT_1.sol\":5383:5402  _approvals[tokenId] */\n      dup2\n      mstore\n      0x20\n      add\n      swap1\n      dup2\n      mstore\n      0x20\n      add\n      0x00\n      keccak256\n      0x00\n        /* \"MyNFT_1.sol\":5376:5402  delete _approvals[tokenId] */\n      0x0100\n      exp\n      dup2\n      sload\n      swap1\n      0xffffffffffffffffffffffffffffffffffffffff\n      mul\n      not\n      and\n      swap1\n      sstore\n        /* \"MyNFT_1.sol\":5437:5444  tokenId */\n      dup2\n        /* \"MyNFT_1.sol\":5433:5435  to */\n      dup4\n        /* \"MyNFT_1.sol\":5418:5445  Transfer(from, to, tokenId) */\n      0xffffffffffffffffffffffffffffffffffffffff\n      and\n        /* \"MyNFT_1.sol\":5427:5431  from */\n      dup6\n        /* \"MyNFT_1.sol\":5418:5445  Transfer(from, to, tokenId) */\n      0xffffffffffffffffffffffffffffffffffffffff\n      and\n      0xddf252ad1be2c89b69c2b068fc378daa952ba7f163c4a11628f55a4df523b3ef\n      mload(0x40)\n      mload(0x40)\n      dup1\n      swap2\n      sub\n      swap1\n      log4\n        /* \"MyNFT_1.sol\":4886:5452  function transferFrom(address from, address to, uint256 tokenId) public tokenExists(tokenId) {... */\n      pop\n      pop\n      pop\n      pop\n      jump\t// out\n        /* \"MyNFT_1.sol\":7049:7237  function withdraw() public onlyOwner {... */\n    tag_63:\n        /* \"MyNFT_1.sol\":1864:1869  owner */\n      0x02\n      0x00\n      swap1\n      sload\n      swap1\n      0x0100\n      exp\n      swap1\n      div\n      0xffffffffffffffffffffffffffffffffffffffff\n      and\n        /* \"MyNFT_1.sol\":1850:1869  msg.sender == owner */\n      0xffffffffffffffffffffffffffffffffffffffff\n      and\n        /* \"MyNFT_1.sol\":1850:1860  msg.sender */\n      caller\n        /* \"MyNFT_1.sol\":1850:1869  msg.sender == owner */\n      0xffffffffffffffffffffffffffffffffffffffff\n      and\n      eq\n        /* \"MyNFT_1.sol\":1842:1883  require(msg.sender == owner, \"Not owner\") */\n      tag_174\n      jumpi\n      mload(0x40)\n      0x08c379a000000000000000000000000000000000000000000000000000000000\n      dup2\n      mstore\n      0x04\n      add\n      tag_175\n      swap1\n      tag_176\n      jump\t// in\n    tag_175:\n      mload(0x40)\n      dup1\n      swap2\n      sub\n      swap1\n      revert\n    tag_174:\n        /* \"MyNFT_1.sol\":7096:7111  uint256 balance */\n      0x00\n        /* \"MyNFT_1.sol\":7114:7135  address(this).balance */\n      selfbalance\n        /* \"MyNFT_1.sol\":7096:7135  uint256 balance = address(this).balance */\n      swap1\n      pop\n        /* \"MyNFT_1.sol\":7163:7164  0 */\n      0x00\n        /* \"MyNFT_1.sol\":7153:7160  balance */\n      dup2\n        /* \"MyNFT_1.sol\":7153:7164  balance > 0 */\n      gt\n        /* \"MyNFT_1.sol\":7145:7188  require(balance > 0, \"Nothing to withdraw\") */\n      tag_178\n      jumpi\n      mload(0x40)\n      0x08c379a000000000000000000000000000000000000000000000000000000000\n      dup2\n      mstore\n      0x04\n      add\n      tag_179\n      swap1\n      tag_180\n      jump\t// in\n    tag_179:\n      mload(0x40)\n      dup1\n      swap2\n      sub\n      swap1\n      revert\n    tag_178:\n        /* \"MyNFT_1.sol\":7206:7211  owner */\n      0x02\n      0x00\n      swap1\n      sload\n      swap1\n      0x0100\n      exp\n      swap1\n      div\n      0xffffffffffffffffffffffffffffffffffffffff\n      and\n        /* \"MyNFT_1.sol\":7198:7221  payable(owner).transfer */\n      0xffffffffffffffffffffffffffffffffffffffff\n      and\n        /* \"MyNFT_1.sol\":7198:7230  payable(owner).transfer(balance) */\n      0x08fc\n        /* \"MyNFT_1.sol\":7222:7229  balance */\n      dup3\n        /* \"MyNFT_1.sol\":7198:7230  payable(owner).transfer(balance) */\n      swap1\n      dup2\n      iszero\n      mul\n      swap1\n      mload(0x40)\n      0x00\n      mload(0x40)\n      dup1\n      dup4\n      sub\n      dup2\n      dup6\n      dup9\n      dup9\n      call\n      swap4\n      pop\n      pop\n      pop\n      pop\n      iszero\n      dup1\n      iszero\n      tag_182\n      jumpi\n      returndatacopy(0x00, 0x00, returndatasize)\n      revert(0x00, returndatasize)\n    tag_182:\n      pop\n        /* \"MyNFT_1.sol\":7086:7237  {... */\n      pop\n        /* \"MyNFT_1.sol\":7049:7237  function withdraw() public onlyOwner {... */\n      jump\t// out\n        /* \"MyNFT_1.sol\":6259:6422  function ownerMint(address to, string memory uri) public onlyOwner {... */\n    tag_68:\n        /* \"MyNFT_1.sol\":1864:1869  owner */\n      0x02\n      0x00\n      swap1\n      sload\n      swap1\n      0x0100\n      exp\n      swap1\n      div\n      0xffffffffffffffffffffffffffffffffffffffff\n      and\n        /* \"MyNFT_1.sol\":1850:1869  msg.sender == owner */\n      0xffffffffffffffffffffffffffffffffffffffff\n      and\n        /* \"MyNFT_1.sol\":1850:1860  msg.sender */\n      caller\n        /* \"MyNFT_1.sol\":1850:1869  msg.sender == owner */\n      0xffffffffffffffffffffffffffffffffffffffff\n      and\n      eq\n        /* \"MyNFT_1.sol\":1842:1883  require(msg.sender == owner, \"Not owner\") */\n      tag_184\n      jumpi\n      mload(0x40)\n      0x08c379a000000000000000000000000000000000000000000000000000000000\n      dup2\n      mstore\n      0x04\n      add\n      tag_185\n      swap1\n      tag_176\n      jump\t// in\n    tag_185:\n      mload(0x40)\n      dup1\n      swap2\n      sub\n      swap1\n      revert\n    tag_184:\n        /* \"MyNFT_1.sol\":6359:6368  maxSupply */\n      sload(0x05)\n        /* \"MyNFT_1.sol\":6344:6356  _nextTokenId */\n      sload(0x03)\n        /* \"MyNFT_1.sol\":6344:6368  _nextTokenId < maxSupply */\n      lt\n        /* \"MyNFT_1.sol\":6336:6391  require(_nextTokenId < maxSupply, \"Max supply reached\") */\n      tag_187\n      jumpi\n      mload(0x40)\n      0x08c379a000000000000000000000000000000000000000000000000000000000\n      dup2\n      mstore\n      0x04\n      add\n      tag_188\n      swap1\n      tag_189\n      jump\t// in\n    tag_188:\n      mload(0x40)\n      dup1\n      swap2\n      sub\n      swap1\n      revert\n    tag_187:\n        /* \"MyNFT_1.sol\":6401:6415  _mint(to, uri) */\n      tag_190\n        /* \"MyNFT_1.sol\":6407:6409  to */\n      dup3\n        /* \"MyNFT_1.sol\":6411:6414  uri */\n      dup3\n        /* \"MyNFT_1.sol\":6401:6406  _mint */\n      tag_191\n        /* \"MyNFT_1.sol\":6401:6415  _mint(to, uri) */\n      jump\t// in\n    tag_190:\n        /* \"MyNFT_1.sol\":6259:6422  function ownerMint(address to, string memory uri) public onlyOwner {... */\n      pop\n      pop\n      jump\t// out\n        /* \"MyNFT_1.sol\":5458:5590  function safeTransferFrom(address from, address to, uint256 tokenId) public {... */\n    tag_72:\n        /* \"MyNFT_1.sol\":5544:5583  safeTransferFrom(from, to, tokenId, \"\") */\n      tag_193\n        /* \"MyNFT_1.sol\":5561:5565  from */\n      dup4\n        /* \"MyNFT_1.sol\":5567:5569  to */\n      dup4\n        /* \"MyNFT_1.sol\":5571:5578  tokenId */\n      dup4\n        /* \"MyNFT_1.sol\":5544:5583  safeTransferFrom(from, to, tokenId, \"\") */\n      mload(0x40)\n      dup1\n      0x20\n      add\n      0x40\n      mstore\n      dup1\n      0x00\n      dup2\n      mstore\n      pop\n        /* \"MyNFT_1.sol\":5544:5560  safeTransferFrom */\n      tag_105\n        /* \"MyNFT_1.sol\":5544:5583  safeTransferFrom(from, to, tokenId, \"\") */\n      jump\t// in\n    tag_193:\n        /* \"MyNFT_1.sol\":5458:5590  function safeTransferFrom(address from, address to, uint256 tokenId) public {... */\n      pop\n      pop\n      pop\n      jump\t// out\n        /* \"MyNFT_1.sol\":2743:2869  function ownerOf(uint256 tokenId) public view tokenExists(tokenId) returns (address) {... */\n    tag_76:\n        /* \"MyNFT_1.sol\":2819:2826  address */\n      0x00\n        /* \"MyNFT_1.sol\":2801:2808  tokenId */\n      dup2\n        /* \"MyNFT_1.sol\":1992:1993  0 */\n      0x00\n        /* \"MyNFT_1.sol\":1963:1994  _ownerOf[tokenId] != address(0) */\n      0xffffffffffffffffffffffffffffffffffffffff\n      and\n        /* \"MyNFT_1.sol\":1963:1971  _ownerOf */\n      0x06\n        /* \"MyNFT_1.sol\":1963:1980  _ownerOf[tokenId] */\n      0x00\n        /* \"MyNFT_1.sol\":1972:1979  tokenId */\n      dup4\n        /* \"MyNFT_1.sol\":1963:1980  _ownerOf[tokenId] */\n      dup2\n      mstore\n      0x20\n      add\n      swap1\n      dup2\n      mstore\n      0x20\n      add\n      0x00\n      keccak256\n      0x00\n      swap1\n      sload\n      swap1\n      0x0100\n      exp\n      swap1\n      div\n      0xffffffffffffffffffffffffffffffffffffffff\n      and\n        /* \"MyNFT_1.sol\":1963:1994  _ownerOf[tokenId] != address(0) */\n      0xffffffffffffffffffffffffffffffffffffffff\n      and\n      sub\n        /* \"MyNFT_1.sol\":1955:2019  require(_ownerOf[tokenId] != address(0), \"Token does not exist\") */\n      tag_195\n      jumpi\n      mload(0x40)\n      0x08c379a000000000000000000000000000000000000000000000000000000000\n      dup2\n      mstore\n      0x04\n      add\n      tag_196\n      swap1\n      tag_144\n      jump\t// in\n    tag_196:\n      mload(0x40)\n      dup1\n      swap2\n      sub\n      swap1\n      revert\n    tag_195:\n        /* \"MyNFT_1.sol\":2845:2853  _ownerOf */\n      0x06\n        /* \"MyNFT_1.sol\":2845:2862  _ownerOf[tokenId] */\n      0x00\n        /* \"MyNFT_1.sol\":2854:2861  tokenId */\n      dup5\n        /* \"MyNFT_1.sol\":2845:2862  _ownerOf[tokenId] */\n      dup2\n      mstore\n      0x20\n      add\n      swap1\n      dup2\n      mstore\n      0x20\n      add\n      0x00\n      keccak256\n      0x00\n      swap1\n      sload\n      swap1\n      0x0100\n      exp\n      swap1\n      div\n      0xffffffffffffffffffffffffffffffffffffffff\n      and\n        /* \"MyNFT_1.sol\":2838:2862  return _ownerOf[tokenId] */\n      swap2\n      pop\n        /* \"MyNFT_1.sol\":2743:2869  function ownerOf(uint256 tokenId) public view tokenExists(tokenId) returns (address) {... */\n      pop\n      swap2\n      swap1\n      pop\n      jump\t// out\n        /* \"MyNFT_1.sol\":600:637  uint256 public mintPrice = 0.01 ether */\n    tag_80:\n      sload(0x04)\n      dup2\n      jump\t// out\n        /* \"MyNFT_1.sol\":2575:2737  function balanceOf(address _owner) public view returns (uint256) {... */\n    tag_86:\n        /* \"MyNFT_1.sol\":2631:2638  uint256 */\n      0x00\n        /* \"MyNFT_1.sol\":2676:2677  0 */\n      0x00\n        /* \"MyNFT_1.sol\":2658:2678  _owner != address(0) */\n      0xffffffffffffffffffffffffffffffffffffffff\n      and\n        /* \"MyNFT_1.sol\":2658:2664  _owner */\n      dup3\n        /* \"MyNFT_1.sol\":2658:2678  _owner != address(0) */\n      0xffffffffffffffffffffffffffffffffffffffff\n      and\n      sub\n        /* \"MyNFT_1.sol\":2650:2695  require(_owner != address(0), \"Zero address\") */\n      tag_199\n      jumpi\n      mload(0x40)\n      0x08c379a000000000000000000000000000000000000000000000000000000000\n      dup2\n      mstore\n      0x04\n      add\n      tag_200\n      swap1\n      tag_164\n      jump\t// in\n    tag_200:\n      mload(0x40)\n      dup1\n      swap2\n      sub\n      swap1\n      revert\n    tag_199:\n        /* \"MyNFT_1.sol\":2712:2722  _balanceOf */\n      0x07\n        /* \"MyNFT_1.sol\":2712:2730  _balanceOf[_owner] */\n      0x00\n        /* \"MyNFT_1.sol\":2723:2729  _owner */\n      dup4\n        /* \"MyNFT_1.sol\":2712:2730  _balanceOf[_owner] */\n      0xffffffffffffffffffffffffffffffffffffffff\n      and\n      0xffffffffffffffffffffffffffffffffffffffff\n      and\n      dup2\n      mstore\n      0x20\n      add\n      swap1\n      dup2\n      mstore\n      0x20\n      add\n      0x00\n      keccak256\n      sload\n        /* \"MyNFT_1.sol\":2705:2730  return _balanceOf[_owner] */\n      swap1\n      pop\n        /* \"MyNFT_1.sol\":2575:2737  function balanceOf(address _owner) public view returns (uint256) {... */\n      swap2\n      swap1\n      pop\n      jump\t// out\n        /* \"MyNFT_1.sol\":539:559  address public owner */\n    tag_90:\n      0x02\n      0x00\n      swap1\n      sload\n      swap1\n      0x0100\n      exp\n      swap1\n      div\n      0xffffffffffffffffffffffffffffffffffffffff\n      and\n      dup2\n      jump\t// out\n        /* \"MyNFT_1.sol\":513:533  string public symbol */\n    tag_94:\n      0x01\n      dup1\n      sload\n      tag_201\n      swap1\n      tag_136\n      jump\t// in\n    tag_201:\n      dup1\n      0x1f\n      add\n      0x20\n      dup1\n      swap2\n      div\n      mul\n      0x20\n      add\n      mload(0x40)\n      swap1\n      dup2\n      add\n      0x40\n      mstore\n      dup1\n      swap3\n      swap2\n      swap1\n      dup2\n      dup2\n      mstore\n      0x20\n      add\n      dup3\n      dup1\n      sload\n      tag_202\n      swap1\n      tag_136\n      jump\t// in\n    tag_202:\n      dup1\n      iszero\n      tag_203\n      jumpi\n      dup1\n      0x1f\n      lt\n      tag_204\n      jumpi\n      0x0100\n      dup1\n      dup4\n      sload\n      div\n      mul\n      dup4\n      mstore\n      swap2\n      0x20\n      add\n      swap2\n      jump(tag_203)\n    tag_204:\n      dup3\n      add\n      swap2\n      swap1\n      0x00\n      mstore\n      keccak256(0x00, 0x20)\n      swap1\n    tag_205:\n      dup2\n      sload\n      dup2\n      mstore\n      swap1\n      0x01\n      add\n      swap1\n      0x20\n      add\n      dup1\n      dup4\n      gt\n      tag_205\n      jumpi\n      dup3\n      swap1\n      sub\n      0x1f\n      and\n      dup3\n      add\n      swap2\n    tag_203:\n      pop\n      pop\n      pop\n      pop\n      pop\n      dup2\n      jump\t// out\n        /* \"MyNFT_1.sol\":4429:4689  function setApprovalForAll(address operator, bool approved) public {... */\n    tag_100:\n        /* \"MyNFT_1.sol\":4526:4536  msg.sender */\n      caller\n        /* \"MyNFT_1.sol\":4514:4536  operator != msg.sender */\n      0xffffffffffffffffffffffffffffffffffffffff\n      and\n        /* \"MyNFT_1.sol\":4514:4522  operator */\n      dup3\n        /* \"MyNFT_1.sol\":4514:4536  operator != msg.sender */\n      0xffffffffffffffffffffffffffffffffffffffff\n      and\n      sub\n        /* \"MyNFT_1.sol\":4506:4560  require(operator != msg.sender, \"Cannot approve self\") */\n      tag_207\n      jumpi\n      mload(0x40)\n      0x08c379a000000000000000000000000000000000000000000000000000000000\n      dup2\n      mstore\n      0x04\n      add\n      tag_208\n      swap1\n      tag_209\n      jump\t// in\n    tag_208:\n      mload(0x40)\n      dup1\n      swap2\n      sub\n      swap1\n      revert\n    tag_207:\n        /* \"MyNFT_1.sol\":4613:4621  approved */\n      dup1\n        /* \"MyNFT_1.sol\":4570:4588  _operatorApprovals */\n      0x09\n        /* \"MyNFT_1.sol\":4570:4600  _operatorApprovals[msg.sender] */\n      0x00\n        /* \"MyNFT_1.sol\":4589:4599  msg.sender */\n      caller\n        /* \"MyNFT_1.sol\":4570:4600  _operatorApprovals[msg.sender] */\n      0xffffffffffffffffffffffffffffffffffffffff\n      and\n      0xffffffffffffffffffffffffffffffffffffffff\n      and\n      dup2\n      mstore\n      0x20\n      add\n      swap1\n      dup2\n      mstore\n      0x20\n      add\n      0x00\n      keccak256\n        /* \"MyNFT_1.sol\":4570:4610  _operatorApprovals[msg.sender][operator] */\n      0x00\n        /* \"MyNFT_1.sol\":4601:4609  operator */\n      dup5\n        /* \"MyNFT_1.sol\":4570:4610  _operatorApprovals[msg.sender][operator] */\n      0xffffffffffffffffffffffffffffffffffffffff\n      and\n      0xffffffffffffffffffffffffffffffffffffffff\n      and\n      dup2\n      mstore\n      0x20\n      add\n      swap1\n      dup2\n      mstore\n      0x20\n      add\n      0x00\n      keccak256\n      0x00\n        /* \"MyNFT_1.sol\":4570:4621  _operatorApprovals[msg.sender][operator] = approved */\n      0x0100\n      exp\n      dup2\n      sload\n      dup2\n      0xff\n      mul\n      not\n      and\n      swap1\n      dup4\n      iszero\n      iszero\n      mul\n      or\n      swap1\n      sstore\n      pop\n        /* \"MyNFT_1.sol\":4663:4671  operator */\n      dup2\n        /* \"MyNFT_1.sol\":4636:4682  ApprovalForAll(msg.sender, operator, approved) */\n      0xffffffffffffffffffffffffffffffffffffffff\n      and\n        /* \"MyNFT_1.sol\":4651:4661  msg.sender */\n      caller\n        /* \"MyNFT_1.sol\":4636:4682  ApprovalForAll(msg.sender, operator, approved) */\n      0xffffffffffffffffffffffffffffffffffffffff\n      and\n      0x17307eab39ab6107e8899845ad3d59bd9653f200f220920489ca2b5937696c31\n        /* \"MyNFT_1.sol\":4673:4681  approved */\n      dup4\n        /* \"MyNFT_1.sol\":4636:4682  ApprovalForAll(msg.sender, operator, approved) */\n      mload(0x40)\n      tag_210\n      swap2\n      swap1\n      tag_33\n      jump\t// in\n    tag_210:\n      mload(0x40)\n      dup1\n      swap2\n      sub\n      swap1\n      log3\n        /* \"MyNFT_1.sol\":4429:4689  function setApprovalForAll(address operator, bool approved) public {... */\n      pop\n      pop\n      jump\t// out\n        /* \"MyNFT_1.sol\":5596:5827  function safeTransferFrom(address from, address to, uint256 tokenId, bytes memory data) public {... */\n    tag_105:\n        /* \"MyNFT_1.sol\":5701:5732  transferFrom(from, to, tokenId) */\n      tag_212\n        /* \"MyNFT_1.sol\":5714:5718  from */\n      dup5\n        /* \"MyNFT_1.sol\":5720:5722  to */\n      dup5\n        /* \"MyNFT_1.sol\":5724:5731  tokenId */\n      dup5\n        /* \"MyNFT_1.sol\":5701:5713  transferFrom */\n      tag_60\n        /* \"MyNFT_1.sol\":5701:5732  transferFrom(from, to, tokenId) */\n      jump\t// in\n    tag_212:\n        /* \"MyNFT_1.sol\":5750:5797  _checkOnERC721Received(from, to, tokenId, data) */\n      tag_213\n        /* \"MyNFT_1.sol\":5773:5777  from */\n      dup5\n        /* \"MyNFT_1.sol\":5779:5781  to */\n      dup5\n        /* \"MyNFT_1.sol\":5783:5790  tokenId */\n      dup5\n        /* \"MyNFT_1.sol\":5792:5796  data */\n      dup5\n        /* \"MyNFT_1.sol\":5750:5772  _checkOnERC721Received */\n      tag_214\n        /* \"MyNFT_1.sol\":5750:5797  _checkOnERC721Received(from, to, tokenId, data) */\n      jump\t// in\n    tag_213:\n        /* \"MyNFT_1.sol\":5742:5820  require(_checkOnERC721Received(from, to, tokenId, data), \"Non-ERC721Receiver\") */\n      tag_215\n      jumpi\n      mload(0x40)\n      0x08c379a000000000000000000000000000000000000000000000000000000000\n      dup2\n      mstore\n      0x04\n      add\n      tag_216\n      swap1\n      tag_217\n      jump\t// in\n    tag_216:\n      mload(0x40)\n      dup1\n      swap2\n      sub\n      swap1\n      revert\n    tag_215:\n        /* \"MyNFT_1.sol\":5596:5827  function safeTransferFrom(address from, address to, uint256 tokenId, bytes memory data) public {... */\n      pop\n      pop\n      pop\n      pop\n      jump\t// out\n        /* \"MyNFT_1.sol\":2875:3010  function tokenURI(uint256 tokenId) public view tokenExists(tokenId) returns (string memory) {... */\n    tag_109:\n        /* \"MyNFT_1.sol\":2952:2965  string memory */\n      0x60\n        /* \"MyNFT_1.sol\":2934:2941  tokenId */\n      dup2\n        /* \"MyNFT_1.sol\":1992:1993  0 */\n      0x00\n        /* \"MyNFT_1.sol\":1963:1994  _ownerOf[tokenId] != address(0) */\n      0xffffffffffffffffffffffffffffffffffffffff\n      and\n        /* \"MyNFT_1.sol\":1963:1971  _ownerOf */\n      0x06\n        /* \"MyNFT_1.sol\":1963:1980  _ownerOf[tokenId] */\n      0x00\n        /* \"MyNFT_1.sol\":1972:1979  tokenId */\n      dup4\n        /* \"MyNFT_1.sol\":1963:1980  _ownerOf[tokenId] */\n      dup2\n      mstore\n      0x20\n      add\n      swap1\n      dup2\n      mstore\n      0x20\n      add\n      0x00\n      keccak256\n      0x00\n      swap1\n      sload\n      swap1\n      0x0100\n      exp\n      swap1\n      div\n      0xffffffffffffffffffffffffffffffffffffffff\n      and\n        /* \"MyNFT_1.sol\":1963:1994  _ownerOf[tokenId] != address(0) */\n      0xffffffffffffffffffffffffffffffffffffffff\n      and\n      sub\n        /* \"MyNFT_1.sol\":1955:2019  require(_ownerOf[tokenId] != address(0), \"Token does not exist\") */\n      tag_219\n      jumpi\n      mload(0x40)\n      0x08c379a000000000000000000000000000000000000000000000000000000000\n      dup2\n      mstore\n      0x04\n      add\n      tag_220\n      swap1\n      tag_144\n      jump\t// in\n    tag_220:\n      mload(0x40)\n      dup1\n      swap2\n      sub\n      swap1\n      revert\n    tag_219:\n        /* \"MyNFT_1.sol\":2984:2994  _tokenURIs */\n      0x0a\n        /* \"MyNFT_1.sol\":2984:3003  _tokenURIs[tokenId] */\n      0x00\n        /* \"MyNFT_1.sol\":2995:3002  tokenId */\n      dup5\n        /* \"MyNFT_1.sol\":2984:3003  _tokenURIs[tokenId] */\n      dup2\n      mstore\n      0x20\n      add\n      swap1\n      dup2\n      mstore\n      0x20\n      add\n      0x00\n      keccak256\n        /* \"MyNFT_1.sol\":2977:3003  return _tokenURIs[tokenId] */\n      dup1\n      sload\n      tag_222\n      swap1\n      tag_136\n      jump\t// in\n    tag_222:\n      dup1\n      0x1f\n      add\n      0x20\n      dup1\n      swap2\n      div\n      mul\n      0x20\n      add\n      mload(0x40)\n      swap1\n      dup2\n      add\n      0x40\n      mstore\n      dup1\n      swap3\n      swap2\n      swap1\n      dup2\n      dup2\n      mstore\n      0x20\n      add\n      dup3\n      dup1\n      sload\n      tag_223\n      swap1\n      tag_136\n      jump\t// in\n    tag_223:\n      dup1\n      iszero\n      tag_224\n      jumpi\n      dup1\n      0x1f\n      lt\n      tag_225\n      jumpi\n      0x0100\n      dup1\n      dup4\n      sload\n      div\n      mul\n      dup4\n      mstore\n      swap2\n      0x20\n      add\n      swap2\n      jump(tag_224)\n    tag_225:\n      dup3\n      add\n      swap2\n      swap1\n      0x00\n      mstore\n      keccak256(0x00, 0x20)\n      swap1\n    tag_226:\n      dup2\n      sload\n      dup2\n      mstore\n      swap1\n      0x01\n      add\n      swap1\n      0x20\n      add\n      dup1\n      dup4\n      gt\n      tag_226\n      jumpi\n      dup3\n      swap1\n      sub\n      0x1f\n      and\n      dup3\n      add\n      swap2\n    tag_224:\n      pop\n      pop\n      pop\n      pop\n      pop\n      swap2\n      pop\n        /* \"MyNFT_1.sol\":2875:3010  function tokenURI(uint256 tokenId) public view tokenExists(tokenId) returns (string memory) {... */\n      pop\n      swap2\n      swap1\n      pop\n      jump\t// out\n        /* \"MyNFT_1.sol\":6032:6253  function mint(address to, string memory uri) public payable {... */\n    tag_113:\n        /* \"MyNFT_1.sol\":6123:6132  mintPrice */\n      sload(0x04)\n        /* \"MyNFT_1.sol\":6110:6119  msg.value */\n      callvalue\n        /* \"MyNFT_1.sol\":6110:6132  msg.value >= mintPrice */\n      lt\n      iszero\n        /* \"MyNFT_1.sol\":6102:6157  require(msg.value >= mintPrice, \"Insufficient payment\") */\n      tag_228\n      jumpi\n      mload(0x40)\n      0x08c379a000000000000000000000000000000000000000000000000000000000\n      dup2\n      mstore\n      0x04\n      add\n      tag_229\n      swap1\n      tag_230\n      jump\t// in\n    tag_229:\n      mload(0x40)\n      dup1\n      swap2\n      sub\n      swap1\n      revert\n    tag_228:\n        /* \"MyNFT_1.sol\":6190:6199  maxSupply */\n      sload(0x05)\n        /* \"MyNFT_1.sol\":6175:6187  _nextTokenId */\n      sload(0x03)\n        /* \"MyNFT_1.sol\":6175:6199  _nextTokenId < maxSupply */\n      lt\n        /* \"MyNFT_1.sol\":6167:6222  require(_nextTokenId < maxSupply, \"Max supply reached\") */\n      tag_231\n      jumpi\n      mload(0x40)\n      0x08c379a000000000000000000000000000000000000000000000000000000000\n      dup2\n      mstore\n      0x04\n      add\n      tag_232\n      swap1\n      tag_189\n      jump\t// in\n    tag_232:\n      mload(0x40)\n      dup1\n      swap2\n      sub\n      swap1\n      revert\n    tag_231:\n        /* \"MyNFT_1.sol\":6232:6246  _mint(to, uri) */\n      tag_233\n        /* \"MyNFT_1.sol\":6238:6240  to */\n      dup3\n        /* \"MyNFT_1.sol\":6242:6245  uri */\n      dup3\n        /* \"MyNFT_1.sol\":6232:6237  _mint */\n      tag_191\n        /* \"MyNFT_1.sol\":6232:6246  _mint(to, uri) */\n      jump\t// in\n    tag_233:\n        /* \"MyNFT_1.sol\":6032:6253  function mint(address to, string memory uri) public payable {... */\n      pop\n      pop\n      jump\t// out\n        /* \"MyNFT_1.sol\":643:675  uint256 public maxSupply = 10000 */\n    tag_116:\n      sload(0x05)\n      dup2\n      jump\t// out\n        /* \"MyNFT_1.sol\":3154:3301  function isApprovedForAll(address _owner, address operator) public view returns (bool) {... */\n    tag_122:\n        /* \"MyNFT_1.sol\":3235:3239  bool */\n      0x00\n        /* \"MyNFT_1.sol\":3258:3276  _operatorApprovals */\n      0x09\n        /* \"MyNFT_1.sol\":3258:3284  _operatorApprovals[_owner] */\n      0x00\n        /* \"MyNFT_1.sol\":3277:3283  _owner */\n      dup5\n        /* \"MyNFT_1.sol\":3258:3284  _operatorApprovals[_owner] */\n      0xffffffffffffffffffffffffffffffffffffffff\n      and\n      0xffffffffffffffffffffffffffffffffffffffff\n      and\n      dup2\n      mstore\n      0x20\n      add\n      swap1\n      dup2\n      mstore\n      0x20\n      add\n      0x00\n      keccak256\n        /* \"MyNFT_1.sol\":3258:3294  _operatorApprovals[_owner][operator] */\n      0x00\n        /* \"MyNFT_1.sol\":3285:3293  operator */\n      dup4\n        /* \"MyNFT_1.sol\":3258:3294  _operatorApprovals[_owner][operator] */\n      0xffffffffffffffffffffffffffffffffffffffff\n      and\n      0xffffffffffffffffffffffffffffffffffffffff\n      and\n      dup2\n      mstore\n      0x20\n      add\n      swap1\n      dup2\n      mstore\n      0x20\n      add\n      0x00\n      keccak256\n      0x00\n      swap1\n      sload\n      swap1\n      0x0100\n      exp\n      swap1\n      div\n      0xff\n      and\n        /* \"MyNFT_1.sol\":3251:3294  return _operatorApprovals[_owner][operator] */\n      swap1\n      pop\n        /* \"MyNFT_1.sol\":3154:3301  function isApprovedForAll(address _owner, address operator) public view returns (bool) {... */\n      swap3\n      swap2\n      pop\n      pop\n      jump\t// out\n        /* \"MyNFT_1.sol\":7243:7395  function transferOwnership(address newOwner) public onlyOwner {... */\n    tag_127:\n        /* \"MyNFT_1.sol\":1864:1869  owner */\n      0x02\n      0x00\n      swap1\n      sload\n      swap1\n      0x0100\n      exp\n      swap1\n      div\n      0xffffffffffffffffffffffffffffffffffffffff\n      and\n        /* \"MyNFT_1.sol\":1850:1869  msg.sender == owner */\n      0xffffffffffffffffffffffffffffffffffffffff\n      and\n        /* \"MyNFT_1.sol\":1850:1860  msg.sender */\n      caller\n        /* \"MyNFT_1.sol\":1850:1869  msg.sender == owner */\n      0xffffffffffffffffffffffffffffffffffffffff\n      and\n      eq\n        /* \"MyNFT_1.sol\":1842:1883  require(msg.sender == owner, \"Not owner\") */\n      tag_236\n      jumpi\n      mload(0x40)\n      0x08c379a000000000000000000000000000000000000000000000000000000000\n      dup2\n      mstore\n      0x04\n      add\n      tag_237\n      swap1\n      tag_176\n      jump\t// in\n    tag_237:\n      mload(0x40)\n      dup1\n      swap2\n      sub\n      swap1\n      revert\n    tag_236:\n        /* \"MyNFT_1.sol\":7343:7344  0 */\n      0x00\n        /* \"MyNFT_1.sol\":7323:7345  newOwner != address(0) */\n      0xffffffffffffffffffffffffffffffffffffffff\n      and\n        /* \"MyNFT_1.sol\":7323:7331  newOwner */\n      dup2\n        /* \"MyNFT_1.sol\":7323:7345  newOwner != address(0) */\n      0xffffffffffffffffffffffffffffffffffffffff\n      and\n      sub\n        /* \"MyNFT_1.sol\":7315:7362  require(newOwner != address(0), \"Zero address\") */\n      tag_239\n      jumpi\n      mload(0x40)\n      0x08c379a000000000000000000000000000000000000000000000000000000000\n      dup2\n      mstore\n      0x04\n      add\n      tag_240\n      swap1\n      tag_164\n      jump\t// in\n    tag_240:\n      mload(0x40)\n      dup1\n      swap2\n      sub\n      swap1\n      revert\n    tag_239:\n        /* \"MyNFT_1.sol\":7380:7388  newOwner */\n      dup1\n        /* \"MyNFT_1.sol\":7372:7377  owner */\n      0x02\n      0x00\n        /* \"MyNFT_1.sol\":7372:7388  owner = newOwner */\n      0x0100\n      exp\n      dup2\n      sload\n      dup2\n      0xffffffffffffffffffffffffffffffffffffffff\n      mul\n      not\n      and\n      swap1\n      dup4\n      0xffffffffffffffffffffffffffffffffffffffff\n      and\n      mul\n      or\n      swap1\n      sstore\n      pop\n        /* \"MyNFT_1.sol\":7243:7395  function transferOwnership(address newOwner) public onlyOwner {... */\n      pop\n      jump\t// out\n        /* \"MyNFT_1.sol\":6949:7043  function setMintPrice(uint256 newPrice) public onlyOwner {... */\n    tag_131:\n        /* \"MyNFT_1.sol\":1864:1869  owner */\n      0x02\n      0x00\n      swap1\n      sload\n      swap1\n      0x0100\n      exp\n      swap1\n      div\n      0xffffffffffffffffffffffffffffffffffffffff\n      and\n        /* \"MyNFT_1.sol\":1850:1869  msg.sender == owner */\n      0xffffffffffffffffffffffffffffffffffffffff\n      and\n        /* \"MyNFT_1.sol\":1850:1860  msg.sender */\n      caller\n        /* \"MyNFT_1.sol\":1850:1869  msg.sender == owner */\n      0xffffffffffffffffffffffffffffffffffffffff\n      and\n      eq\n        /* \"MyNFT_1.sol\":1842:1883  require(msg.sender == owner, \"Not owner\") */\n      tag_242\n      jumpi\n      mload(0x40)\n      0x08c379a000000000000000000000000000000000000000000000000000000000\n      dup2\n      mstore\n      0x04\n      add\n      tag_243\n      swap1\n      tag_176\n      jump\t// in\n    tag_243:\n      mload(0x40)\n      dup1\n      swap2\n      sub\n      swap1\n      revert\n    tag_242:\n        /* \"MyNFT_1.sol\":7028:7036  newPrice */\n      dup1\n        /* \"MyNFT_1.sol\":7016:7025  mintPrice */\n      0x04\n        /* \"MyNFT_1.sol\":7016:7036  mintPrice = newPrice */\n      dup2\n      swap1\n      sstore\n      pop\n        /* \"MyNFT_1.sol\":6949:7043  function setMintPrice(uint256 newPrice) public onlyOwner {... */\n      pop\n      jump\t// out\n        /* \"MyNFT_1.sol\":6428:6726  function _mint(address to, string memory uri) internal {... */\n    tag_191:\n        /* \"MyNFT_1.sol\":6515:6516  0 */\n      0x00\n        /* \"MyNFT_1.sol\":6501:6517  to != address(0) */\n      0xffffffffffffffffffffffffffffffffffffffff\n      and\n        /* \"MyNFT_1.sol\":6501:6503  to */\n      dup3\n        /* \"MyNFT_1.sol\":6501:6517  to != address(0) */\n      0xffffffffffffffffffffffffffffffffffffffff\n      and\n      sub\n        /* \"MyNFT_1.sol\":6493:6534  require(to != address(0), \"Zero address\") */\n      tag_246\n      jumpi\n      mload(0x40)\n      0x08c379a000000000000000000000000000000000000000000000000000000000\n      dup2\n      mstore\n      0x04\n      add\n      tag_247\n      swap1\n      tag_164\n      jump\t// in\n    tag_247:\n      mload(0x40)\n      dup1\n      swap2\n      sub\n      swap1\n      revert\n    tag_246:\n        /* \"MyNFT_1.sol\":6545:6560  uint256 tokenId */\n      0x00\n        /* \"MyNFT_1.sol\":6563:6575  _nextTokenId */\n      0x03\n      0x00\n        /* \"MyNFT_1.sol\":6563:6577  _nextTokenId++ */\n      dup2\n      sload\n      dup1\n      swap3\n      swap2\n      swap1\n      tag_248\n      swap1\n      tag_172\n      jump\t// in\n    tag_248:\n      swap2\n      swap1\n      pop\n      sstore\n        /* \"MyNFT_1.sol\":6545:6577  uint256 tokenId = _nextTokenId++ */\n      swap1\n      pop\n        /* \"MyNFT_1.sol\":6607:6609  to */\n      dup3\n        /* \"MyNFT_1.sol\":6587:6595  _ownerOf */\n      0x06\n        /* \"MyNFT_1.sol\":6587:6604  _ownerOf[tokenId] */\n      0x00\n        /* \"MyNFT_1.sol\":6596:6603  tokenId */\n      dup4\n        /* \"MyNFT_1.sol\":6587:6604  _ownerOf[tokenId] */\n      dup2\n      mstore\n      0x20\n      add\n      swap1\n      dup2\n      mstore\n      0x20\n      add\n      0x00\n      keccak256\n      0x00\n        /* \"MyNFT_1.sol\":6587:6609  _ownerOf[tokenId] = to */\n      0x0100\n      exp\n      dup2\n      sload\n      dup2\n      0xffffffffffffffffffffffffffffffffffffffff\n      mul\n      not\n      and\n      swap1\n      dup4\n      0xffffffffffffffffffffffffffffffffffffffff\n      and\n      mul\n      or\n      swap1\n      sstore\n      pop\n        /* \"MyNFT_1.sol\":6619:6629  _balanceOf */\n      0x07\n        /* \"MyNFT_1.sol\":6619:6633  _balanceOf[to] */\n      0x00\n        /* \"MyNFT_1.sol\":6630:6632  to */\n      dup5\n        /* \"MyNFT_1.sol\":6619:6633  _balanceOf[to] */\n      0xffffffffffffffffffffffffffffffffffffffff\n      and\n      0xffffffffffffffffffffffffffffffffffffffff\n      and\n      dup2\n      mstore\n      0x20\n      add\n      swap1\n      dup2\n      mstore\n      0x20\n      add\n      0x00\n      keccak256\n      0x00\n        /* \"MyNFT_1.sol\":6619:6635  _balanceOf[to]++ */\n      dup2\n      sload\n      dup1\n      swap3\n      swap2\n      swap1\n      tag_249\n      swap1\n      tag_172\n      jump\t// in\n    tag_249:\n      swap2\n      swap1\n      pop\n      sstore\n      pop\n        /* \"MyNFT_1.sol\":6667:6670  uri */\n      dup2\n        /* \"MyNFT_1.sol\":6645:6655  _tokenURIs */\n      0x0a\n        /* \"MyNFT_1.sol\":6645:6664  _tokenURIs[tokenId] */\n      0x00\n        /* \"MyNFT_1.sol\":6656:6663  tokenId */\n      dup4\n        /* \"MyNFT_1.sol\":6645:6664  _tokenURIs[tokenId] */\n      dup2\n      mstore\n      0x20\n      add\n      swap1\n      dup2\n      mstore\n      0x20\n      add\n      0x00\n      keccak256\n        /* \"MyNFT_1.sol\":6645:6670  _tokenURIs[tokenId] = uri */\n      swap1\n      dup2\n      tag_250\n      swap2\n      swap1\n      tag_251\n      jump\t// in\n    tag_250:\n      pop\n        /* \"MyNFT_1.sol\":6711:6718  tokenId */\n      dup1\n        /* \"MyNFT_1.sol\":6707:6709  to */\n      dup4\n        /* \"MyNFT_1.sol\":6686:6719  Transfer(address(0), to, tokenId) */\n      0xffffffffffffffffffffffffffffffffffffffff\n      and\n        /* \"MyNFT_1.sol\":6703:6704  0 */\n      0x00\n        /* \"MyNFT_1.sol\":6686:6719  Transfer(address(0), to, tokenId) */\n      0xffffffffffffffffffffffffffffffffffffffff\n      and\n      0xddf252ad1be2c89b69c2b068fc378daa952ba7f163c4a11628f55a4df523b3ef\n      mload(0x40)\n      mload(0x40)\n      dup1\n      swap2\n      sub\n      swap1\n      log4\n        /* \"MyNFT_1.sol\":6483:6726  {... */\n      pop\n        /* \"MyNFT_1.sol\":6428:6726  function _mint(address to, string memory uri) internal {... */\n      pop\n      pop\n      jump\t// out\n        /* \"MyNFT_1.sol\":7596:8062  function _checkOnERC721Received(... */\n    tag_214:\n        /* \"MyNFT_1.sol\":7745:7749  bool */\n      0x00\n        /* \"MyNFT_1.sol\":7783:7784  0 */\n      0x00\n        /* \"MyNFT_1.sol\":7765:7767  to */\n      dup5\n        /* \"MyNFT_1.sol\":7765:7779  to.code.length */\n      0xffffffffffffffffffffffffffffffffffffffff\n      and\n      extcodesize\n        /* \"MyNFT_1.sol\":7765:7784  to.code.length == 0 */\n      sub\n        /* \"MyNFT_1.sol\":7761:7797  if (to.code.length == 0) return true */\n      tag_253\n      jumpi\n        /* \"MyNFT_1.sol\":7793:7797  true */\n      0x01\n        /* \"MyNFT_1.sol\":7786:7797  return true */\n      swap1\n      pop\n      jump(tag_252)\n        /* \"MyNFT_1.sol\":7761:7797  if (to.code.length == 0) return true */\n    tag_253:\n        /* \"MyNFT_1.sol\":7851:7853  to */\n      dup4\n        /* \"MyNFT_1.sol\":7835:7871  IERC721Receiver(to).onERC721Received */\n      0xffffffffffffffffffffffffffffffffffffffff\n      and\n      0x150b7a02\n        /* \"MyNFT_1.sol\":7872:7882  msg.sender */\n      caller\n        /* \"MyNFT_1.sol\":7884:7888  from */\n      dup8\n        /* \"MyNFT_1.sol\":7890:7897  tokenId */\n      dup7\n        /* \"MyNFT_1.sol\":7899:7903  data */\n      dup7\n        /* \"MyNFT_1.sol\":7835:7904  IERC721Receiver(to).onERC721Received(msg.sender, from, tokenId, data) */\n      mload(0x40)\n      dup6\n      0xffffffff\n      and\n      0xe0\n      shl\n      dup2\n      mstore\n      0x04\n      add\n      tag_254\n      swap5\n      swap4\n      swap3\n      swap2\n      swap1\n      tag_255\n      jump\t// in\n    tag_254:\n      0x20\n      mload(0x40)\n      dup1\n      dup4\n      sub\n      dup2\n      0x00\n      dup8\n      gas\n      call\n      swap3\n      pop\n      pop\n      pop\n      dup1\n      iszero\n      tag_256\n      jumpi\n      pop\n      mload(0x40)\n      returndatasize\n      not(0x1f)\n      0x1f\n      dup3\n      add\n      and\n      dup3\n      add\n      dup1\n      0x40\n      mstore\n      pop\n      dup2\n      add\n      swap1\n      tag_257\n      swap2\n      swap1\n      tag_258\n      jump\t// in\n    tag_257:\n      0x01\n    tag_256:\n        /* \"MyNFT_1.sol\":7831:8056  try IERC721Receiver(to).onERC721Received(msg.sender, from, tokenId, data) returns (bytes4 retval) {... */\n      tag_259\n      jumpi\n        /* \"MyNFT_1.sol\":8040:8045  false */\n      0x00\n        /* \"MyNFT_1.sol\":8033:8045  return false */\n      swap1\n      pop\n      jump(tag_252)\n        /* \"MyNFT_1.sol\":7831:8056  try IERC721Receiver(to).onERC721Received(msg.sender, from, tokenId, data) returns (bytes4 retval) {... */\n    tag_259:\n        /* \"MyNFT_1.sol\":7960:8001  IERC721Receiver.onERC721Received.selector */\n      shl(0xe0, 0x150b7a02)\n        /* \"MyNFT_1.sol\":7950:8001  retval == IERC721Receiver.onERC721Received.selector */\n      not(0xffffffffffffffffffffffffffffffffffffffffffffffffffffffff)\n      and\n        /* \"MyNFT_1.sol\":7950:7956  retval */\n      dup2\n        /* \"MyNFT_1.sol\":7950:8001  retval == IERC721Receiver.onERC721Received.selector */\n      not(0xffffffffffffffffffffffffffffffffffffffffffffffffffffffff)\n      and\n      eq\n        /* \"MyNFT_1.sol\":7943:8001  return retval == IERC721Receiver.onERC721Received.selector */\n      swap2\n      pop\n      pop\n        /* \"MyNFT_1.sol\":7596:8062  function _checkOnERC721Received(... */\n    tag_252:\n      swap5\n      swap4\n      pop\n      pop\n      pop\n      pop\n      jump\t// out\n        /* \"#utility.yul\":7:82   */\n    tag_264:\n        /* \"#utility.yul\":40:46   */\n      0x00\n        /* \"#utility.yul\":73:75   */\n      0x40\n        /* \"#utility.yul\":67:76   */\n      mload\n        /* \"#utility.yul\":57:76   */\n      swap1\n      pop\n        /* \"#utility.yul\":7:82   */\n      swap1\n      jump\t// out\n        /* \"#utility.yul\":88:205   */\n    tag_265:\n        /* \"#utility.yul\":197:198   */\n      0x00\n        /* \"#utility.yul\":194:195   */\n      0x00\n        /* \"#utility.yul\":187:199   */\n      revert\n        /* \"#utility.yul\":211:328   */\n    tag_266:\n        /* \"#utility.yul\":320:321   */\n      0x00\n        /* \"#utility.yul\":317:318   */\n      0x00\n        /* \"#utility.yul\":310:322   */\n      revert\n        /* \"#utility.yul\":334:483   */\n    tag_267:\n        /* \"#utility.yul\":370:377   */\n      0x00\n        /* \"#utility.yul\":410:476   */\n      0xffffffff00000000000000000000000000000000000000000000000000000000\n        /* \"#utility.yul\":403:408   */\n      dup3\n        /* \"#utility.yul\":399:477   */\n      and\n        /* \"#utility.yul\":388:477   */\n      swap1\n      pop\n        /* \"#utility.yul\":334:483   */\n      swap2\n      swap1\n      pop\n      jump\t// out\n        /* \"#utility.yul\":489:609   */\n    tag_268:\n        /* \"#utility.yul\":561:584   */\n      tag_347\n        /* \"#utility.yul\":578:583   */\n      dup2\n        /* \"#utility.yul\":561:584   */\n      tag_267\n      jump\t// in\n    tag_347:\n        /* \"#utility.yul\":554:559   */\n      dup2\n        /* \"#utility.yul\":551:585   */\n      eq\n        /* \"#utility.yul\":541:603   */\n      tag_348\n      jumpi\n        /* \"#utility.yul\":599:600   */\n      0x00\n        /* \"#utility.yul\":596:597   */\n      0x00\n        /* \"#utility.yul\":589:601   */\n      revert\n        /* \"#utility.yul\":541:603   */\n    tag_348:\n        /* \"#utility.yul\":489:609   */\n      pop\n      jump\t// out\n        /* \"#utility.yul\":615:752   */\n    tag_269:\n        /* \"#utility.yul\":660:665   */\n      0x00\n        /* \"#utility.yul\":698:704   */\n      dup2\n        /* \"#utility.yul\":685:705   */\n      calldataload\n        /* \"#utility.yul\":676:705   */\n      swap1\n      pop\n        /* \"#utility.yul\":714:746   */\n      tag_350\n        /* \"#utility.yul\":740:745   */\n      dup2\n        /* \"#utility.yul\":714:746   */\n      tag_268\n      jump\t// in\n    tag_350:\n        /* \"#utility.yul\":615:752   */\n      swap3\n      swap2\n      pop\n      pop\n      jump\t// out\n        /* \"#utility.yul\":758:1085   */\n    tag_30:\n        /* \"#utility.yul\":816:822   */\n      0x00\n        /* \"#utility.yul\":865:867   */\n      0x20\n        /* \"#utility.yul\":853:862   */\n      dup3\n        /* \"#utility.yul\":844:851   */\n      dup5\n        /* \"#utility.yul\":840:863   */\n      sub\n        /* \"#utility.yul\":836:868   */\n      slt\n        /* \"#utility.yul\":833:952   */\n      iszero\n      tag_352\n      jumpi\n        /* \"#utility.yul\":871:950   */\n      tag_353\n      tag_265\n      jump\t// in\n    tag_353:\n        /* \"#utility.yul\":833:952   */\n    tag_352:\n        /* \"#utility.yul\":991:992   */\n      0x00\n        /* \"#utility.yul\":1016:1068   */\n      tag_354\n        /* \"#utility.yul\":1060:1067   */\n      dup5\n        /* \"#utility.yul\":1051:1057   */\n      dup3\n        /* \"#utility.yul\":1040:1049   */\n      dup6\n        /* \"#utility.yul\":1036:1058   */\n      add\n        /* \"#utility.yul\":1016:1068   */\n      tag_269\n      jump\t// in\n    tag_354:\n        /* \"#utility.yul\":1006:1068   */\n      swap2\n      pop\n        /* \"#utility.yul\":962:1078   */\n      pop\n        /* \"#utility.yul\":758:1085   */\n      swap3\n      swap2\n      pop\n      pop\n      jump\t// out\n        /* \"#utility.yul\":1091:1181   */\n    tag_270:\n        /* \"#utility.yul\":1125:1132   */\n      0x00\n        /* \"#utility.yul\":1168:1173   */\n      dup2\n        /* \"#utility.yul\":1161:1174   */\n      iszero\n        /* \"#utility.yul\":1154:1175   */\n      iszero\n        /* \"#utility.yul\":1143:1175   */\n      swap1\n      pop\n        /* \"#utility.yul\":1091:1181   */\n      swap2\n      swap1\n      pop\n      jump\t// out\n        /* \"#utility.yul\":1187:1296   */\n    tag_271:\n        /* \"#utility.yul\":1268:1289   */\n      tag_357\n        /* \"#utility.yul\":1283:1288   */\n      dup2\n        /* \"#utility.yul\":1268:1289   */\n      tag_270\n      jump\t// in\n    tag_357:\n        /* \"#utility.yul\":1263:1266   */\n      dup3\n        /* \"#utility.yul\":1256:1290   */\n      mstore\n        /* \"#utility.yul\":1187:1296   */\n      pop\n      pop\n      jump\t// out\n        /* \"#utility.yul\":1302:1512   */\n    tag_33:\n        /* \"#utility.yul\":1389:1393   */\n      0x00\n        /* \"#utility.yul\":1427:1429   */\n      0x20\n        /* \"#utility.yul\":1416:1425   */\n      dup3\n        /* \"#utility.yul\":1412:1430   */\n      add\n        /* \"#utility.yul\":1404:1430   */\n      swap1\n      pop\n        /* \"#utility.yul\":1440:1505   */\n      tag_359\n        /* \"#utility.yul\":1502:1503   */\n      0x00\n        /* \"#utility.yul\":1491:1500   */\n      dup4\n        /* \"#utility.yul\":1487:1504   */\n      add\n        /* \"#utility.yul\":1478:1484   */\n      dup5\n        /* \"#utility.yul\":1440:1505   */\n      tag_271\n      jump\t// in\n    tag_359:\n        /* \"#utility.yul\":1302:1512   */\n      swap3\n      swap2\n      pop\n      pop\n      jump\t// out\n        /* \"#utility.yul\":1518:1617   */\n    tag_272:\n        /* \"#utility.yul\":1570:1576   */\n      0x00\n        /* \"#utility.yul\":1604:1609   */\n      dup2\n        /* \"#utility.yul\":1598:1610   */\n      mload\n        /* \"#utility.yul\":1588:1610   */\n      swap1\n      pop\n        /* \"#utility.yul\":1518:1617   */\n      swap2\n      swap1\n      pop\n      jump\t// out\n        /* \"#utility.yul\":1623:1792   */\n    tag_273:\n        /* \"#utility.yul\":1707:1718   */\n      0x00\n        /* \"#utility.yul\":1741:1747   */\n      dup3\n        /* \"#utility.yul\":1736:1739   */\n      dup3\n        /* \"#utility.yul\":1729:1748   */\n      mstore\n        /* \"#utility.yul\":1781:1785   */\n      0x20\n        /* \"#utility.yul\":1776:1779   */\n      dup3\n        /* \"#utility.yul\":1772:1786   */\n      add\n        /* \"#utility.yul\":1757:1786   */\n      swap1\n      pop\n        /* \"#utility.yul\":1623:1792   */\n      swap3\n      swap2\n      pop\n      pop\n      jump\t// out\n        /* \"#utility.yul\":1798:1937   */\n    tag_274:\n        /* \"#utility.yul\":1887:1893   */\n      dup3\n        /* \"#utility.yul\":1882:1885   */\n      dup2\n        /* \"#utility.yul\":1877:1880   */\n      dup4\n        /* \"#utility.yul\":1871:1894   */\n      mcopy\n        /* \"#utility.yul\":1928:1929   */\n      0x00\n        /* \"#utility.yul\":1919:1925   */\n      dup4\n        /* \"#utility.yul\":1914:1917   */\n      dup4\n        /* \"#utility.yul\":1910:1926   */\n      add\n        /* \"#utility.yul\":1903:1930   */\n      mstore\n        /* \"#utility.yul\":1798:1937   */\n      pop\n      pop\n      pop\n      jump\t// out\n        /* \"#utility.yul\":1943:2045   */\n    tag_275:\n        /* \"#utility.yul\":1984:1990   */\n      0x00\n        /* \"#utility.yul\":2035:2037   */\n      0x1f\n        /* \"#utility.yul\":2031:2038   */\n      not\n        /* \"#utility.yul\":2026:2028   */\n      0x1f\n        /* \"#utility.yul\":2019:2024   */\n      dup4\n        /* \"#utility.yul\":2015:2029   */\n      add\n        /* \"#utility.yul\":2011:2039   */\n      and\n        /* \"#utility.yul\":2001:2039   */\n      swap1\n      pop\n        /* \"#utility.yul\":1943:2045   */\n      swap2\n      swap1\n      pop\n      jump\t// out\n        /* \"#utility.yul\":2051:2428   */\n    tag_276:\n        /* \"#utility.yul\":2139:2142   */\n      0x00\n        /* \"#utility.yul\":2167:2206   */\n      tag_365\n        /* \"#utility.yul\":2200:2205   */\n      dup3\n        /* \"#utility.yul\":2167:2206   */\n      tag_272\n      jump\t// in\n    tag_365:\n        /* \"#utility.yul\":2222:2293   */\n      tag_366\n        /* \"#utility.yul\":2286:2292   */\n      dup2\n        /* \"#utility.yul\":2281:2284   */\n      dup6\n        /* \"#utility.yul\":2222:2293   */\n      tag_273\n      jump\t// in\n    tag_366:\n        /* \"#utility.yul\":2215:2293   */\n      swap4\n      pop\n        /* \"#utility.yul\":2302:2367   */\n      tag_367\n        /* \"#utility.yul\":2360:2366   */\n      dup2\n        /* \"#utility.yul\":2355:2358   */\n      dup6\n        /* \"#utility.yul\":2348:2352   */\n      0x20\n        /* \"#utility.yul\":2341:2346   */\n      dup7\n        /* \"#utility.yul\":2337:2353   */\n      add\n        /* \"#utility.yul\":2302:2367   */\n      tag_274\n      jump\t// in\n    tag_367:\n        /* \"#utility.yul\":2392:2421   */\n      tag_368\n        /* \"#utility.yul\":2414:2420   */\n      dup2\n        /* \"#utility.yul\":2392:2421   */\n      tag_275\n      jump\t// in\n    tag_368:\n        /* \"#utility.yul\":2387:2390   */\n      dup5\n        /* \"#utility.yul\":2383:2422   */\n      add\n        /* \"#utility.yul\":2376:2422   */\n      swap2\n      pop\n        /* \"#utility.yul\":2143:2428   */\n      pop\n        /* \"#utility.yul\":2051:2428   */\n      swap3\n      swap2\n      pop\n      pop\n      jump\t// out\n        /* \"#utility.yul\":2434:2747   */\n    tag_38:\n        /* \"#utility.yul\":2547:2551   */\n      0x00\n        /* \"#utility.yul\":2585:2587   */\n      0x20\n        /* \"#utility.yul\":2574:2583   */\n      dup3\n        /* \"#utility.yul\":2570:2588   */\n      add\n        /* \"#utility.yul\":2562:2588   */\n      swap1\n      pop\n        /* \"#utility.yul\":2634:2643   */\n      dup2\n        /* \"#utility.yul\":2628:2632   */\n      dup2\n        /* \"#utility.yul\":2624:2644   */\n      sub\n        /* \"#utility.yul\":2620:2621   */\n      0x00\n        /* \"#utility.yul\":2609:2618   */\n      dup4\n        /* \"#utility.yul\":2605:2622   */\n      add\n        /* \"#utility.yul\":2598:2645   */\n      mstore\n        /* \"#utility.yul\":2662:2740   */\n      tag_370\n        /* \"#utility.yul\":2735:2739   */\n      dup2\n        /* \"#utility.yul\":2726:2732   */\n      dup5\n        /* \"#utility.yul\":2662:2740   */\n      tag_276\n      jump\t// in\n    tag_370:\n        /* \"#utility.yul\":2654:2740   */\n      swap1\n      pop\n        /* \"#utility.yul\":2434:2747   */\n      swap3\n      swap2\n      pop\n      pop\n      jump\t// out\n        /* \"#utility.yul\":2753:2830   */\n    tag_277:\n        /* \"#utility.yul\":2790:2797   */\n      0x00\n        /* \"#utility.yul\":2819:2824   */\n      dup2\n        /* \"#utility.yul\":2808:2824   */\n      swap1\n      pop\n        /* \"#utility.yul\":2753:2830   */\n      swap2\n      swap1\n      pop\n      jump\t// out\n        /* \"#utility.yul\":2836:2958   */\n    tag_278:\n        /* \"#utility.yul\":2909:2933   */\n      tag_373\n        /* \"#utility.yul\":2927:2932   */\n      dup2\n        /* \"#utility.yul\":2909:2933   */\n      tag_277\n      jump\t// in\n    tag_373:\n        /* \"#utility.yul\":2902:2907   */\n      dup2\n        /* \"#utility.yul\":2899:2934   */\n      eq\n        /* \"#utility.yul\":2889:2952   */\n      tag_374\n      jumpi\n        /* \"#utility.yul\":2948:2949   */\n      0x00\n        /* \"#utility.yul\":2945:2946   */\n      0x00\n        /* \"#utility.yul\":2938:2950   */\n      revert\n        /* \"#utility.yul\":2889:2952   */\n    tag_374:\n        /* \"#utility.yul\":2836:2958   */\n      pop\n      jump\t// out\n        /* \"#utility.yul\":2964:3103   */\n    tag_279:\n        /* \"#utility.yul\":3010:3015   */\n      0x00\n        /* \"#utility.yul\":3048:3054   */\n      dup2\n        /* \"#utility.yul\":3035:3055   */\n      calldataload\n        /* \"#utility.yul\":3026:3055   */\n      swap1\n      pop\n        /* \"#utility.yul\":3064:3097   */\n      tag_376\n        /* \"#utility.yul\":3091:3096   */\n      dup2\n        /* \"#utility.yul\":3064:3097   */\n      tag_278\n      jump\t// in\n    tag_376:\n        /* \"#utility.yul\":2964:3103   */\n      swap3\n      swap2\n      pop\n      pop\n      jump\t// out\n        /* \"#utility.yul\":3109:3438   */\n    tag_42:\n        /* \"#utility.yul\":3168:3174   */\n      0x00\n        /* \"#utility.yul\":3217:3219   */\n      0x20\n        /* \"#utility.yul\":3205:3214   */\n      dup3\n        /* \"#utility.yul\":3196:3203   */\n      dup5\n        /* \"#utility.yul\":3192:3215   */\n      sub\n        /* \"#utility.yul\":3188:3220   */\n      slt\n        /* \"#utility.yul\":3185:3304   */\n      iszero\n      tag_378\n      jumpi\n        /* \"#utility.yul\":3223:3302   */\n      tag_379\n      tag_265\n      jump\t// in\n    tag_379:\n        /* \"#utility.yul\":3185:3304   */\n    tag_378:\n        /* \"#utility.yul\":3343:3344   */\n      0x00\n        /* \"#utility.yul\":3368:3421   */\n      tag_380\n        /* \"#utility.yul\":3413:3420   */\n      dup5\n        /* \"#utility.yul\":3404:3410   */\n      dup3\n        /* \"#utility.yul\":3393:3402   */\n      dup6\n        /* \"#utility.yul\":3389:3411   */\n      add\n        /* \"#utility.yul\":3368:3421   */\n      tag_279\n      jump\t// in\n    tag_380:\n        /* \"#utility.yul\":3358:3421   */\n      swap2\n      pop\n        /* \"#utility.yul\":3314:3431   */\n      pop\n        /* \"#utility.yul\":3109:3438   */\n      swap3\n      swap2\n      pop\n      pop\n      jump\t// out\n        /* \"#utility.yul\":3444:3570   */\n    tag_280:\n        /* \"#utility.yul\":3481:3488   */\n      0x00\n        /* \"#utility.yul\":3521:3563   */\n      0xffffffffffffffffffffffffffffffffffffffff\n        /* \"#utility.yul\":3514:3519   */\n      dup3\n        /* \"#utility.yul\":3510:3564   */\n      and\n        /* \"#utility.yul\":3499:3564   */\n      swap1\n      pop\n        /* \"#utility.yul\":3444:3570   */\n      swap2\n      swap1\n      pop\n      jump\t// out\n        /* \"#utility.yul\":3576:3672   */\n    tag_281:\n        /* \"#utility.yul\":3613:3620   */\n      0x00\n        /* \"#utility.yul\":3642:3666   */\n      tag_383\n        /* \"#utility.yul\":3660:3665   */\n      dup3\n        /* \"#utility.yul\":3642:3666   */\n      tag_280\n      jump\t// in\n    tag_383:\n        /* \"#utility.yul\":3631:3666   */\n      swap1\n      pop\n        /* \"#utility.yul\":3576:3672   */\n      swap2\n      swap1\n      pop\n      jump\t// out\n        /* \"#utility.yul\":3678:3796   */\n    tag_282:\n        /* \"#utility.yul\":3765:3789   */\n      tag_385\n        /* \"#utility.yul\":3783:3788   */\n      dup2\n        /* \"#utility.yul\":3765:3789   */\n      tag_281\n      jump\t// in\n    tag_385:\n        /* \"#utility.yul\":3760:3763   */\n      dup3\n        /* \"#utility.yul\":3753:3790   */\n      mstore\n        /* \"#utility.yul\":3678:3796   */\n      pop\n      pop\n      jump\t// out\n        /* \"#utility.yul\":3802:4024   */\n    tag_45:\n        /* \"#utility.yul\":3895:3899   */\n      0x00\n        /* \"#utility.yul\":3933:3935   */\n      0x20\n        /* \"#utility.yul\":3922:3931   */\n      dup3\n        /* \"#utility.yul\":3918:3936   */\n      add\n        /* \"#utility.yul\":3910:3936   */\n      swap1\n      pop\n        /* \"#utility.yul\":3946:4017   */\n      tag_387\n        /* \"#utility.yul\":4014:4015   */\n      0x00\n        /* \"#utility.yul\":4003:4012   */\n      dup4\n        /* \"#utility.yul\":3999:4016   */\n      add\n        /* \"#utility.yul\":3990:3996   */\n      dup5\n        /* \"#utility.yul\":3946:4017   */\n      tag_282\n      jump\t// in\n    tag_387:\n        /* \"#utility.yul\":3802:4024   */\n      swap3\n      swap2\n      pop\n      pop\n      jump\t// out\n        /* \"#utility.yul\":4030:4152   */\n    tag_283:\n        /* \"#utility.yul\":4103:4127   */\n      tag_389\n        /* \"#utility.yul\":4121:4126   */\n      dup2\n        /* \"#utility.yul\":4103:4127   */\n      tag_281\n      jump\t// in\n    tag_389:\n        /* \"#utility.yul\":4096:4101   */\n      dup2\n        /* \"#utility.yul\":4093:4128   */\n      eq\n        /* \"#utility.yul\":4083:4146   */\n      tag_390\n      jumpi\n        /* \"#utility.yul\":4142:4143   */\n      0x00\n        /* \"#utility.yul\":4139:4140   */\n      0x00\n        /* \"#utility.yul\":4132:4144   */\n      revert\n        /* \"#utility.yul\":4083:4146   */\n    tag_390:\n        /* \"#utility.yul\":4030:4152   */\n      pop\n      jump\t// out\n        /* \"#utility.yul\":4158:4297   */\n    tag_284:\n        /* \"#utility.yul\":4204:4209   */\n      0x00\n        /* \"#utility.yul\":4242:4248   */\n      dup2\n        /* \"#utility.yul\":4229:4249   */\n      calldataload\n        /* \"#utility.yul\":4220:4249   */\n      swap1\n      pop\n        /* \"#utility.yul\":4258:4291   */\n      tag_392\n        /* \"#utility.yul\":4285:4290   */\n      dup2\n        /* \"#utility.yul\":4258:4291   */\n      tag_283\n      jump\t// in\n    tag_392:\n        /* \"#utility.yul\":4158:4297   */\n      swap3\n      swap2\n      pop\n      pop\n      jump\t// out\n        /* \"#utility.yul\":4303:4777   */\n    tag_49:\n        /* \"#utility.yul\":4371:4377   */\n      0x00\n        /* \"#utility.yul\":4379:4385   */\n      0x00\n        /* \"#utility.yul\":4428:4430   */\n      0x40\n        /* \"#utility.yul\":4416:4425   */\n      dup4\n        /* \"#utility.yul\":4407:4414   */\n      dup6\n        /* \"#utility.yul\":4403:4426   */\n      sub\n        /* \"#utility.yul\":4399:4431   */\n      slt\n        /* \"#utility.yul\":4396:4515   */\n      iszero\n      tag_394\n      jumpi\n        /* \"#utility.yul\":4434:4513   */\n      tag_395\n      tag_265\n      jump\t// in\n    tag_395:\n        /* \"#utility.yul\":4396:4515   */\n    tag_394:\n        /* \"#utility.yul\":4554:4555   */\n      0x00\n        /* \"#utility.yul\":4579:4632   */\n      tag_396\n        /* \"#utility.yul\":4624:4631   */\n      dup6\n        /* \"#utility.yul\":4615:4621   */\n      dup3\n        /* \"#utility.yul\":4604:4613   */\n      dup7\n        /* \"#utility.yul\":4600:4622   */\n      add\n        /* \"#utility.yul\":4579:4632   */\n      tag_284\n      jump\t// in\n    tag_396:\n        /* \"#utility.yul\":4569:4632   */\n      swap3\n      pop\n        /* \"#utility.yul\":4525:4642   */\n      pop\n        /* \"#utility.yul\":4681:4683   */\n      0x20\n        /* \"#utility.yul\":4707:4760   */\n      tag_397\n        /* \"#utility.yul\":4752:4759   */\n      dup6\n        /* \"#utility.yul\":4743:4749   */\n      dup3\n        /* \"#utility.yul\":4732:4741   */\n      dup7\n        /* \"#utility.yul\":4728:4750   */\n      add\n        /* \"#utility.yul\":4707:4760   */\n      tag_279\n      jump\t// in\n    tag_397:\n        /* \"#utility.yul\":4697:4760   */\n      swap2\n      pop\n        /* \"#utility.yul\":4652:4770   */\n      pop\n        /* \"#utility.yul\":4303:4777   */\n      swap3\n      pop\n      swap3\n      swap1\n      pop\n      jump\t// out\n        /* \"#utility.yul\":4783:4901   */\n    tag_285:\n        /* \"#utility.yul\":4870:4894   */\n      tag_399\n        /* \"#utility.yul\":4888:4893   */\n      dup2\n        /* \"#utility.yul\":4870:4894   */\n      tag_277\n      jump\t// in\n    tag_399:\n        /* \"#utility.yul\":4865:4868   */\n      dup3\n        /* \"#utility.yul\":4858:4895   */\n      mstore\n        /* \"#utility.yul\":4783:4901   */\n      pop\n      pop\n      jump\t// out\n        /* \"#utility.yul\":4907:5129   */\n    tag_55:\n        /* \"#utility.yul\":5000:5004   */\n      0x00\n        /* \"#utility.yul\":5038:5040   */\n      0x20\n        /* \"#utility.yul\":5027:5036   */\n      dup3\n        /* \"#utility.yul\":5023:5041   */\n      add\n        /* \"#utility.yul\":5015:5041   */\n      swap1\n      pop\n        /* \"#utility.yul\":5051:5122   */\n      tag_401\n        /* \"#utility.yul\":5119:5120   */\n      0x00\n        /* \"#utility.yul\":5108:5117   */\n      dup4\n        /* \"#utility.yul\":5104:5121   */\n      add\n        /* \"#utility.yul\":5095:5101   */\n      dup5\n        /* \"#utility.yul\":5051:5122   */\n      tag_285\n      jump\t// in\n    tag_401:\n        /* \"#utility.yul\":4907:5129   */\n      swap3\n      swap2\n      pop\n      pop\n      jump\t// out\n        /* \"#utility.yul\":5135:5754   */\n    tag_59:\n        /* \"#utility.yul\":5212:5218   */\n      0x00\n        /* \"#utility.yul\":5220:5226   */\n      0x00\n        /* \"#utility.yul\":5228:5234   */\n      0x00\n        /* \"#utility.yul\":5277:5279   */\n      0x60\n        /* \"#utility.yul\":5265:5274   */\n      dup5\n        /* \"#utility.yul\":5256:5263   */\n      dup7\n        /* \"#utility.yul\":5252:5275   */\n      sub\n        /* \"#utility.yul\":5248:5280   */\n      slt\n        /* \"#utility.yul\":5245:5364   */\n      iszero\n      tag_403\n      jumpi\n        /* \"#utility.yul\":5283:5362   */\n      tag_404\n      tag_265\n      jump\t// in\n    tag_404:\n        /* \"#utility.yul\":5245:5364   */\n    tag_403:\n        /* \"#utility.yul\":5403:5404   */\n      0x00\n        /* \"#utility.yul\":5428:5481   */\n      tag_405\n        /* \"#utility.yul\":5473:5480   */\n      dup7\n        /* \"#utility.yul\":5464:5470   */\n      dup3\n        /* \"#utility.yul\":5453:5462   */\n      dup8\n        /* \"#utility.yul\":5449:5471   */\n      add\n        /* \"#utility.yul\":5428:5481   */\n      tag_284\n      jump\t// in\n    tag_405:\n        /* \"#utility.yul\":5418:5481   */\n      swap4\n      pop\n        /* \"#utility.yul\":5374:5491   */\n      pop\n        /* \"#utility.yul\":5530:5532   */\n      0x20\n        /* \"#utility.yul\":5556:5609   */\n      tag_406\n        /* \"#utility.yul\":5601:5608   */\n      dup7\n        /* \"#utility.yul\":5592:5598   */\n      dup3\n        /* \"#utility.yul\":5581:5590   */\n      dup8\n        /* \"#utility.yul\":5577:5599   */\n      add\n        /* \"#utility.yul\":5556:5609   */\n      tag_284\n      jump\t// in\n    tag_406:\n        /* \"#utility.yul\":5546:5609   */\n      swap3\n      pop\n        /* \"#utility.yul\":5501:5619   */\n      pop\n        /* \"#utility.yul\":5658:5660   */\n      0x40\n        /* \"#utility.yul\":5684:5737   */\n      tag_407\n        /* \"#utility.yul\":5729:5736   */\n      dup7\n        /* \"#utility.yul\":5720:5726   */\n      dup3\n        /* \"#utility.yul\":5709:5718   */\n      dup8\n        /* \"#utility.yul\":5705:5727   */\n      add\n        /* \"#utility.yul\":5684:5737   */\n      tag_279\n      jump\t// in\n    tag_407:\n        /* \"#utility.yul\":5674:5737   */\n      swap2\n      pop\n        /* \"#utility.yul\":5629:5747   */\n      pop\n        /* \"#utility.yul\":5135:5754   */\n      swap3\n      pop\n      swap3\n      pop\n      swap3\n      jump\t// out\n        /* \"#utility.yul\":5760:5877   */\n    tag_286:\n        /* \"#utility.yul\":5869:5870   */\n      0x00\n        /* \"#utility.yul\":5866:5867   */\n      0x00\n        /* \"#utility.yul\":5859:5871   */\n      revert\n        /* \"#utility.yul\":5883:6000   */\n    tag_287:\n        /* \"#utility.yul\":5992:5993   */\n      0x00\n        /* \"#utility.yul\":5989:5990   */\n      0x00\n        /* \"#utility.yul\":5982:5994   */\n      revert\n        /* \"#utility.yul\":6006:6186   */\n    tag_288:\n        /* \"#utility.yul\":6054:6131   */\n      0x4e487b7100000000000000000000000000000000000000000000000000000000\n        /* \"#utility.yul\":6051:6052   */\n      0x00\n        /* \"#utility.yul\":6044:6132   */\n      mstore\n        /* \"#utility.yul\":6151:6155   */\n      0x41\n        /* \"#utility.yul\":6148:6149   */\n      0x04\n        /* \"#utility.yul\":6141:6156   */\n      mstore\n        /* \"#utility.yul\":6175:6179   */\n      0x24\n        /* \"#utility.yul\":6172:6173   */\n      0x00\n        /* \"#utility.yul\":6165:6180   */\n      revert\n        /* \"#utility.yul\":6192:6473   */\n    tag_289:\n        /* \"#utility.yul\":6275:6302   */\n      tag_412\n        /* \"#utility.yul\":6297:6301   */\n      dup3\n        /* \"#utility.yul\":6275:6302   */\n      tag_275\n      jump\t// in\n    tag_412:\n        /* \"#utility.yul\":6267:6273   */\n      dup2\n        /* \"#utility.yul\":6263:6303   */\n      add\n        /* \"#utility.yul\":6405:6411   */\n      dup2\n        /* \"#utility.yul\":6393:6403   */\n      dup2\n        /* \"#utility.yul\":6390:6412   */\n      lt\n        /* \"#utility.yul\":6369:6387   */\n      0xffffffffffffffff\n        /* \"#utility.yul\":6357:6367   */\n      dup3\n        /* \"#utility.yul\":6354:6388   */\n      gt\n        /* \"#utility.yul\":6351:6413   */\n      or\n        /* \"#utility.yul\":6348:6436   */\n      iszero\n      tag_413\n      jumpi\n        /* \"#utility.yul\":6416:6434   */\n      tag_414\n      tag_288\n      jump\t// in\n    tag_414:\n        /* \"#utility.yul\":6348:6436   */\n    tag_413:\n        /* \"#utility.yul\":6456:6466   */\n      dup1\n        /* \"#utility.yul\":6452:6454   */\n      0x40\n        /* \"#utility.yul\":6445:6467   */\n      mstore\n        /* \"#utility.yul\":6235:6473   */\n      pop\n        /* \"#utility.yul\":6192:6473   */\n      pop\n      pop\n      jump\t// out\n        /* \"#utility.yul\":6479:6608   */\n    tag_290:\n        /* \"#utility.yul\":6513:6519   */\n      0x00\n        /* \"#utility.yul\":6540:6560   */\n      tag_416\n      tag_264\n      jump\t// in\n    tag_416:\n        /* \"#utility.yul\":6530:6560   */\n      swap1\n      pop\n        /* \"#utility.yul\":6569:6602   */\n      tag_417\n        /* \"#utility.yul\":6597:6601   */\n      dup3\n        /* \"#utility.yul\":6589:6595   */\n      dup3\n        /* \"#utility.yul\":6569:6602   */\n      tag_289\n      jump\t// in\n    tag_417:\n        /* \"#utility.yul\":6479:6608   */\n      swap2\n      swap1\n      pop\n      jump\t// out\n        /* \"#utility.yul\":6614:6922   */\n    tag_291:\n        /* \"#utility.yul\":6676:6680   */\n      0x00\n        /* \"#utility.yul\":6766:6784   */\n      0xffffffffffffffff\n        /* \"#utility.yul\":6758:6764   */\n      dup3\n        /* \"#utility.yul\":6755:6785   */\n      gt\n        /* \"#utility.yul\":6752:6808   */\n      iszero\n      tag_419\n      jumpi\n        /* \"#utility.yul\":6788:6806   */\n      tag_420\n      tag_288\n      jump\t// in\n    tag_420:\n        /* \"#utility.yul\":6752:6808   */\n    tag_419:\n        /* \"#utility.yul\":6826:6855   */\n      tag_421\n        /* \"#utility.yul\":6848:6854   */\n      dup3\n        /* \"#utility.yul\":6826:6855   */\n      tag_275\n      jump\t// in\n    tag_421:\n        /* \"#utility.yul\":6818:6855   */\n      swap1\n      pop\n        /* \"#utility.yul\":6910:6914   */\n      0x20\n        /* \"#utility.yul\":6904:6908   */\n      dup2\n        /* \"#utility.yul\":6900:6915   */\n      add\n        /* \"#utility.yul\":6892:6915   */\n      swap1\n      pop\n        /* \"#utility.yul\":6614:6922   */\n      swap2\n      swap1\n      pop\n      jump\t// out\n        /* \"#utility.yul\":6928:7076   */\n    tag_292:\n        /* \"#utility.yul\":7026:7032   */\n      dup3\n        /* \"#utility.yul\":7021:7024   */\n      dup2\n        /* \"#utility.yul\":7016:7019   */\n      dup4\n        /* \"#utility.yul\":7003:7033   */\n      calldatacopy\n        /* \"#utility.yul\":7067:7068   */\n      0x00\n        /* \"#utility.yul\":7058:7064   */\n      dup4\n        /* \"#utility.yul\":7053:7056   */\n      dup4\n        /* \"#utility.yul\":7049:7065   */\n      add\n        /* \"#utility.yul\":7042:7069   */\n      mstore\n        /* \"#utility.yul\":6928:7076   */\n      pop\n      pop\n      pop\n      jump\t// out\n        /* \"#utility.yul\":7082:7507   */\n    tag_293:\n        /* \"#utility.yul\":7160:7165   */\n      0x00\n        /* \"#utility.yul\":7185:7251   */\n      tag_424\n        /* \"#utility.yul\":7201:7250   */\n      tag_425\n        /* \"#utility.yul\":7243:7249   */\n      dup5\n        /* \"#utility.yul\":7201:7250   */\n      tag_291\n      jump\t// in\n    tag_425:\n        /* \"#utility.yul\":7185:7251   */\n      tag_290\n      jump\t// in\n    tag_424:\n        /* \"#utility.yul\":7176:7251   */\n      swap1\n      pop\n        /* \"#utility.yul\":7274:7280   */\n      dup3\n        /* \"#utility.yul\":7267:7272   */\n      dup2\n        /* \"#utility.yul\":7260:7281   */\n      mstore\n        /* \"#utility.yul\":7312:7316   */\n      0x20\n        /* \"#utility.yul\":7305:7310   */\n      dup2\n        /* \"#utility.yul\":7301:7317   */\n      add\n        /* \"#utility.yul\":7350:7353   */\n      dup5\n        /* \"#utility.yul\":7341:7347   */\n      dup5\n        /* \"#utility.yul\":7336:7339   */\n      dup5\n        /* \"#utility.yul\":7332:7348   */\n      add\n        /* \"#utility.yul\":7329:7354   */\n      gt\n        /* \"#utility.yul\":7326:7438   */\n      iszero\n      tag_426\n      jumpi\n        /* \"#utility.yul\":7357:7436   */\n      tag_427\n      tag_287\n      jump\t// in\n    tag_427:\n        /* \"#utility.yul\":7326:7438   */\n    tag_426:\n        /* \"#utility.yul\":7447:7501   */\n      tag_428\n        /* \"#utility.yul\":7494:7500   */\n      dup5\n        /* \"#utility.yul\":7489:7492   */\n      dup3\n        /* \"#utility.yul\":7484:7487   */\n      dup6\n        /* \"#utility.yul\":7447:7501   */\n      tag_292\n      jump\t// in\n    tag_428:\n        /* \"#utility.yul\":7166:7507   */\n      pop\n        /* \"#utility.yul\":7082:7507   */\n      swap4\n      swap3\n      pop\n      pop\n      pop\n      jump\t// out\n        /* \"#utility.yul\":7527:7867   */\n    tag_294:\n        /* \"#utility.yul\":7583:7588   */\n      0x00\n        /* \"#utility.yul\":7632:7635   */\n      dup3\n        /* \"#utility.yul\":7625:7629   */\n      0x1f\n        /* \"#utility.yul\":7617:7623   */\n      dup4\n        /* \"#utility.yul\":7613:7630   */\n      add\n        /* \"#utility.yul\":7609:7636   */\n      slt\n        /* \"#utility.yul\":7599:7721   */\n      tag_430\n      jumpi\n        /* \"#utility.yul\":7640:7719   */\n      tag_431\n      tag_286\n      jump\t// in\n    tag_431:\n        /* \"#utility.yul\":7599:7721   */\n    tag_430:\n        /* \"#utility.yul\":7757:7763   */\n      dup2\n        /* \"#utility.yul\":7744:7764   */\n      calldataload\n        /* \"#utility.yul\":7782:7861   */\n      tag_432\n        /* \"#utility.yul\":7857:7860   */\n      dup5\n        /* \"#utility.yul\":7849:7855   */\n      dup3\n        /* \"#utility.yul\":7842:7846   */\n      0x20\n        /* \"#utility.yul\":7834:7840   */\n      dup7\n        /* \"#utility.yul\":7830:7847   */\n      add\n        /* \"#utility.yul\":7782:7861   */\n      tag_293\n      jump\t// in\n    tag_432:\n        /* \"#utility.yul\":7773:7861   */\n      swap2\n      pop\n        /* \"#utility.yul\":7589:7867   */\n      pop\n        /* \"#utility.yul\":7527:7867   */\n      swap3\n      swap2\n      pop\n      pop\n      jump\t// out\n        /* \"#utility.yul\":7873:8527   */\n    tag_67:\n        /* \"#utility.yul\":7951:7957   */\n      0x00\n        /* \"#utility.yul\":7959:7965   */\n      0x00\n        /* \"#utility.yul\":8008:8010   */\n      0x40\n        /* \"#utility.yul\":7996:8005   */\n      dup4\n        /* \"#utility.yul\":7987:7994   */\n      dup6\n        /* \"#utility.yul\":7983:8006   */\n      sub\n        /* \"#utility.yul\":7979:8011   */\n      slt\n        /* \"#utility.yul\":7976:8095   */\n      iszero\n      tag_434\n      jumpi\n        /* \"#utility.yul\":8014:8093   */\n      tag_435\n      tag_265\n      jump\t// in\n    tag_435:\n        /* \"#utility.yul\":7976:8095   */\n    tag_434:\n        /* \"#utility.yul\":8134:8135   */\n      0x00\n        /* \"#utility.yul\":8159:8212   */\n      tag_436\n        /* \"#utility.yul\":8204:8211   */\n      dup6\n        /* \"#utility.yul\":8195:8201   */\n      dup3\n        /* \"#utility.yul\":8184:8193   */\n      dup7\n        /* \"#utility.yul\":8180:8202   */\n      add\n        /* \"#utility.yul\":8159:8212   */\n      tag_284\n      jump\t// in\n    tag_436:\n        /* \"#utility.yul\":8149:8212   */\n      swap3\n      pop\n        /* \"#utility.yul\":8105:8222   */\n      pop\n        /* \"#utility.yul\":8289:8291   */\n      0x20\n        /* \"#utility.yul\":8278:8287   */\n      dup4\n        /* \"#utility.yul\":8274:8292   */\n      add\n        /* \"#utility.yul\":8261:8293   */\n      calldataload\n        /* \"#utility.yul\":8320:8338   */\n      0xffffffffffffffff\n        /* \"#utility.yul\":8312:8318   */\n      dup2\n        /* \"#utility.yul\":8309:8339   */\n      gt\n        /* \"#utility.yul\":8306:8423   */\n      iszero\n      tag_437\n      jumpi\n        /* \"#utility.yul\":8342:8421   */\n      tag_438\n      tag_266\n      jump\t// in\n    tag_438:\n        /* \"#utility.yul\":8306:8423   */\n    tag_437:\n        /* \"#utility.yul\":8447:8510   */\n      tag_439\n        /* \"#utility.yul\":8502:8509   */\n      dup6\n        /* \"#utility.yul\":8493:8499   */\n      dup3\n        /* \"#utility.yul\":8482:8491   */\n      dup7\n        /* \"#utility.yul\":8478:8500   */\n      add\n        /* \"#utility.yul\":8447:8510   */\n      tag_294\n      jump\t// in\n    tag_439:\n        /* \"#utility.yul\":8437:8510   */\n      swap2\n      pop\n        /* \"#utility.yul\":8232:8520   */\n      pop\n        /* \"#utility.yul\":7873:8527   */\n      swap3\n      pop\n      swap3\n      swap1\n      pop\n      jump\t// out\n        /* \"#utility.yul\":8533:8862   */\n    tag_85:\n        /* \"#utility.yul\":8592:8598   */\n      0x00\n        /* \"#utility.yul\":8641:8643   */\n      0x20\n        /* \"#utility.yul\":8629:8638   */\n      dup3\n        /* \"#utility.yul\":8620:8627   */\n      dup5\n        /* \"#utility.yul\":8616:8639   */\n      sub\n        /* \"#utility.yul\":8612:8644   */\n      slt\n        /* \"#utility.yul\":8609:8728   */\n      iszero\n      tag_441\n      jumpi\n        /* \"#utility.yul\":8647:8726   */\n      tag_442\n      tag_265\n      jump\t// in\n    tag_442:\n        /* \"#utility.yul\":8609:8728   */\n    tag_441:\n        /* \"#utility.yul\":8767:8768   */\n      0x00\n        /* \"#utility.yul\":8792:8845   */\n      tag_443\n        /* \"#utility.yul\":8837:8844   */\n      dup5\n        /* \"#utility.yul\":8828:8834   */\n      dup3\n        /* \"#utility.yul\":8817:8826   */\n      dup6\n        /* \"#utility.yul\":8813:8835   */\n      add\n        /* \"#utility.yul\":8792:8845   */\n      tag_284\n      jump\t// in\n    tag_443:\n        /* \"#utility.yul\":8782:8845   */\n      swap2\n      pop\n        /* \"#utility.yul\":8738:8855   */\n      pop\n        /* \"#utility.yul\":8533:8862   */\n      swap3\n      swap2\n      pop\n      pop\n      jump\t// out\n        /* \"#utility.yul\":8868:8984   */\n    tag_295:\n        /* \"#utility.yul\":8938:8959   */\n      tag_445\n        /* \"#utility.yul\":8953:8958   */\n      dup2\n        /* \"#utility.yul\":8938:8959   */\n      tag_270\n      jump\t// in\n    tag_445:\n        /* \"#utility.yul\":8931:8936   */\n      dup2\n        /* \"#utility.yul\":8928:8960   */\n      eq\n        /* \"#utility.yul\":8918:8978   */\n      tag_446\n      jumpi\n        /* \"#utility.yul\":8974:8975   */\n      0x00\n        /* \"#utility.yul\":8971:8972   */\n      0x00\n        /* \"#utility.yul\":8964:8976   */\n      revert\n        /* \"#utility.yul\":8918:8978   */\n    tag_446:\n        /* \"#utility.yul\":8868:8984   */\n      pop\n      jump\t// out\n        /* \"#utility.yul\":8990:9123   */\n    tag_296:\n        /* \"#utility.yul\":9033:9038   */\n      0x00\n        /* \"#utility.yul\":9071:9077   */\n      dup2\n        /* \"#utility.yul\":9058:9078   */\n      calldataload\n        /* \"#utility.yul\":9049:9078   */\n      swap1\n      pop\n        /* \"#utility.yul\":9087:9117   */\n      tag_448\n        /* \"#utility.yul\":9111:9116   */\n      dup2\n        /* \"#utility.yul\":9087:9117   */\n      tag_295\n      jump\t// in\n    tag_448:\n        /* \"#utility.yul\":8990:9123   */\n      swap3\n      swap2\n      pop\n      pop\n      jump\t// out\n        /* \"#utility.yul\":9129:9597   */\n    tag_99:\n        /* \"#utility.yul\":9194:9200   */\n      0x00\n        /* \"#utility.yul\":9202:9208   */\n      0x00\n        /* \"#utility.yul\":9251:9253   */\n      0x40\n        /* \"#utility.yul\":9239:9248   */\n      dup4\n        /* \"#utility.yul\":9230:9237   */\n      dup6\n        /* \"#utility.yul\":9226:9249   */\n      sub\n        /* \"#utility.yul\":9222:9254   */\n      slt\n        /* \"#utility.yul\":9219:9338   */\n      iszero\n      tag_450\n      jumpi\n        /* \"#utility.yul\":9257:9336   */\n      tag_451\n      tag_265\n      jump\t// in\n    tag_451:\n        /* \"#utility.yul\":9219:9338   */\n    tag_450:\n        /* \"#utility.yul\":9377:9378   */\n      0x00\n        /* \"#utility.yul\":9402:9455   */\n      tag_452\n        /* \"#utility.yul\":9447:9454   */\n      dup6\n        /* \"#utility.yul\":9438:9444   */\n      dup3\n        /* \"#utility.yul\":9427:9436   */\n      dup7\n        /* \"#utility.yul\":9423:9445   */\n      add\n        /* \"#utility.yul\":9402:9455   */\n      tag_284\n      jump\t// in\n    tag_452:\n        /* \"#utility.yul\":9392:9455   */\n      swap3\n      pop\n        /* \"#utility.yul\":9348:9465   */\n      pop\n        /* \"#utility.yul\":9504:9506   */\n      0x20\n        /* \"#utility.yul\":9530:9580   */\n      tag_453\n        /* \"#utility.yul\":9572:9579   */\n      dup6\n        /* \"#utility.yul\":9563:9569   */\n      dup3\n        /* \"#utility.yul\":9552:9561   */\n      dup7\n        /* \"#utility.yul\":9548:9570   */\n      add\n        /* \"#utility.yul\":9530:9580   */\n      tag_296\n      jump\t// in\n    tag_453:\n        /* \"#utility.yul\":9520:9580   */\n      swap2\n      pop\n        /* \"#utility.yul\":9475:9590   */\n      pop\n        /* \"#utility.yul\":9129:9597   */\n      swap3\n      pop\n      swap3\n      swap1\n      pop\n      jump\t// out\n        /* \"#utility.yul\":9603:9910   */\n    tag_297:\n        /* \"#utility.yul\":9664:9668   */\n      0x00\n        /* \"#utility.yul\":9754:9772   */\n      0xffffffffffffffff\n        /* \"#utility.yul\":9746:9752   */\n      dup3\n        /* \"#utility.yul\":9743:9773   */\n      gt\n        /* \"#utility.yul\":9740:9796   */\n      iszero\n      tag_455\n      jumpi\n        /* \"#utility.yul\":9776:9794   */\n      tag_456\n      tag_288\n      jump\t// in\n    tag_456:\n        /* \"#utility.yul\":9740:9796   */\n    tag_455:\n        /* \"#utility.yul\":9814:9843   */\n      tag_457\n        /* \"#utility.yul\":9836:9842   */\n      dup3\n        /* \"#utility.yul\":9814:9843   */\n      tag_275\n      jump\t// in\n    tag_457:\n        /* \"#utility.yul\":9806:9843   */\n      swap1\n      pop\n        /* \"#utility.yul\":9898:9902   */\n      0x20\n        /* \"#utility.yul\":9892:9896   */\n      dup2\n        /* \"#utility.yul\":9888:9903   */\n      add\n        /* \"#utility.yul\":9880:9903   */\n      swap1\n      pop\n        /* \"#utility.yul\":9603:9910   */\n      swap2\n      swap1\n      pop\n      jump\t// out\n        /* \"#utility.yul\":9916:10339   */\n    tag_298:\n        /* \"#utility.yul\":9993:9998   */\n      0x00\n        /* \"#utility.yul\":10018:10083   */\n      tag_459\n        /* \"#utility.yul\":10034:10082   */\n      tag_460\n        /* \"#utility.yul\":10075:10081   */\n      dup5\n        /* \"#utility.yul\":10034:10082   */\n      tag_297\n      jump\t// in\n    tag_460:\n        /* \"#utility.yul\":10018:10083   */\n      tag_290\n      jump\t// in\n    tag_459:\n        /* \"#utility.yul\":10009:10083   */\n      swap1\n      pop\n        /* \"#utility.yul\":10106:10112   */\n      dup3\n        /* \"#utility.yul\":10099:10104   */\n      dup2\n        /* \"#utility.yul\":10092:10113   */\n      mstore\n        /* \"#utility.yul\":10144:10148   */\n      0x20\n        /* \"#utility.yul\":10137:10142   */\n      dup2\n        /* \"#utility.yul\":10133:10149   */\n      add\n        /* \"#utility.yul\":10182:10185   */\n      dup5\n        /* \"#utility.yul\":10173:10179   */\n      dup5\n        /* \"#utility.yul\":10168:10171   */\n      dup5\n        /* \"#utility.yul\":10164:10180   */\n      add\n        /* \"#utility.yul\":10161:10186   */\n      gt\n        /* \"#utility.yul\":10158:10270   */\n      iszero\n      tag_461\n      jumpi\n        /* \"#utility.yul\":10189:10268   */\n      tag_462\n      tag_287\n      jump\t// in\n    tag_462:\n        /* \"#utility.yul\":10158:10270   */\n    tag_461:\n        /* \"#utility.yul\":10279:10333   */\n      tag_463\n        /* \"#utility.yul\":10326:10332   */\n      dup5\n        /* \"#utility.yul\":10321:10324   */\n      dup3\n        /* \"#utility.yul\":10316:10319   */\n      dup6\n        /* \"#utility.yul\":10279:10333   */\n      tag_292\n      jump\t// in\n    tag_463:\n        /* \"#utility.yul\":9999:10339   */\n      pop\n        /* \"#utility.yul\":9916:10339   */\n      swap4\n      swap3\n      pop\n      pop\n      pop\n      jump\t// out\n        /* \"#utility.yul\":10358:10696   */\n    tag_299:\n        /* \"#utility.yul\":10413:10418   */\n      0x00\n        /* \"#utility.yul\":10462:10465   */\n      dup3\n        /* \"#utility.yul\":10455:10459   */\n      0x1f\n        /* \"#utility.yul\":10447:10453   */\n      dup4\n        /* \"#utility.yul\":10443:10460   */\n      add\n        /* \"#utility.yul\":10439:10466   */\n      slt\n        /* \"#utility.yul\":10429:10551   */\n      tag_465\n      jumpi\n        /* \"#utility.yul\":10470:10549   */\n      tag_466\n      tag_286\n      jump\t// in\n    tag_466:\n        /* \"#utility.yul\":10429:10551   */\n    tag_465:\n        /* \"#utility.yul\":10587:10593   */\n      dup2\n        /* \"#utility.yul\":10574:10594   */\n      calldataload\n        /* \"#utility.yul\":10612:10690   */\n      tag_467\n        /* \"#utility.yul\":10686:10689   */\n      dup5\n        /* \"#utility.yul\":10678:10684   */\n      dup3\n        /* \"#utility.yul\":10671:10675   */\n      0x20\n        /* \"#utility.yul\":10663:10669   */\n      dup7\n        /* \"#utility.yul\":10659:10676   */\n      add\n        /* \"#utility.yul\":10612:10690   */\n      tag_298\n      jump\t// in\n    tag_467:\n        /* \"#utility.yul\":10603:10690   */\n      swap2\n      pop\n        /* \"#utility.yul\":10419:10696   */\n      pop\n        /* \"#utility.yul\":10358:10696   */\n      swap3\n      swap2\n      pop\n      pop\n      jump\t// out\n        /* \"#utility.yul\":10702:11645   */\n    tag_104:\n        /* \"#utility.yul\":10797:10803   */\n      0x00\n        /* \"#utility.yul\":10805:10811   */\n      0x00\n        /* \"#utility.yul\":10813:10819   */\n      0x00\n        /* \"#utility.yul\":10821:10827   */\n      0x00\n        /* \"#utility.yul\":10870:10873   */\n      0x80\n        /* \"#utility.yul\":10858:10867   */\n      dup6\n        /* \"#utility.yul\":10849:10856   */\n      dup8\n        /* \"#utility.yul\":10845:10868   */\n      sub\n        /* \"#utility.yul\":10841:10874   */\n      slt\n        /* \"#utility.yul\":10838:10958   */\n      iszero\n      tag_469\n      jumpi\n        /* \"#utility.yul\":10877:10956   */\n      tag_470\n      tag_265\n      jump\t// in\n    tag_470:\n        /* \"#utility.yul\":10838:10958   */\n    tag_469:\n        /* \"#utility.yul\":10997:10998   */\n      0x00\n        /* \"#utility.yul\":11022:11075   */\n      tag_471\n        /* \"#utility.yul\":11067:11074   */\n      dup8\n        /* \"#utility.yul\":11058:11064   */\n      dup3\n        /* \"#utility.yul\":11047:11056   */\n      dup9\n        /* \"#utility.yul\":11043:11065   */\n      add\n        /* \"#utility.yul\":11022:11075   */\n      tag_284\n      jump\t// in\n    tag_471:\n        /* \"#utility.yul\":11012:11075   */\n      swap5\n      pop\n        /* \"#utility.yul\":10968:11085   */\n      pop\n        /* \"#utility.yul\":11124:11126   */\n      0x20\n        /* \"#utility.yul\":11150:11203   */\n      tag_472\n        /* \"#utility.yul\":11195:11202   */\n      dup8\n        /* \"#utility.yul\":11186:11192   */\n      dup3\n        /* \"#utility.yul\":11175:11184   */\n      dup9\n        /* \"#utility.yul\":11171:11193   */\n      add\n        /* \"#utility.yul\":11150:11203   */\n      tag_284\n      jump\t// in\n    tag_472:\n        /* \"#utility.yul\":11140:11203   */\n      swap4\n      pop\n        /* \"#utility.yul\":11095:11213   */\n      pop\n        /* \"#utility.yul\":11252:11254   */\n      0x40\n        /* \"#utility.yul\":11278:11331   */\n      tag_473\n        /* \"#utility.yul\":11323:11330   */\n      dup8\n        /* \"#utility.yul\":11314:11320   */\n      dup3\n        /* \"#utility.yul\":11303:11312   */\n      dup9\n        /* \"#utility.yul\":11299:11321   */\n      add\n        /* \"#utility.yul\":11278:11331   */\n      tag_279\n      jump\t// in\n    tag_473:\n        /* \"#utility.yul\":11268:11331   */\n      swap3\n      pop\n        /* \"#utility.yul\":11223:11341   */\n      pop\n        /* \"#utility.yul\":11408:11410   */\n      0x60\n        /* \"#utility.yul\":11397:11406   */\n      dup6\n        /* \"#utility.yul\":11393:11411   */\n      add\n        /* \"#utility.yul\":11380:11412   */\n      calldataload\n        /* \"#utility.yul\":11439:11457   */\n      0xffffffffffffffff\n        /* \"#utility.yul\":11431:11437   */\n      dup2\n        /* \"#utility.yul\":11428:11458   */\n      gt\n        /* \"#utility.yul\":11425:11542   */\n      iszero\n      tag_474\n      jumpi\n        /* \"#utility.yul\":11461:11540   */\n      tag_475\n      tag_266\n      jump\t// in\n    tag_475:\n        /* \"#utility.yul\":11425:11542   */\n    tag_474:\n        /* \"#utility.yul\":11566:11628   */\n      tag_476\n        /* \"#utility.yul\":11620:11627   */\n      dup8\n        /* \"#utility.yul\":11611:11617   */\n      dup3\n        /* \"#utility.yul\":11600:11609   */\n      dup9\n        /* \"#utility.yul\":11596:11618   */\n      add\n        /* \"#utility.yul\":11566:11628   */\n      tag_299\n      jump\t// in\n    tag_476:\n        /* \"#utility.yul\":11556:11628   */\n      swap2\n      pop\n        /* \"#utility.yul\":11351:11638   */\n      pop\n        /* \"#utility.yul\":10702:11645   */\n      swap3\n      swap6\n      swap2\n      swap5\n      pop\n      swap3\n      pop\n      jump\t// out\n        /* \"#utility.yul\":11651:12125   */\n    tag_121:\n        /* \"#utility.yul\":11719:11725   */\n      0x00\n        /* \"#utility.yul\":11727:11733   */\n      0x00\n        /* \"#utility.yul\":11776:11778   */\n      0x40\n        /* \"#utility.yul\":11764:11773   */\n      dup4\n        /* \"#utility.yul\":11755:11762   */\n      dup6\n        /* \"#utility.yul\":11751:11774   */\n      sub\n        /* \"#utility.yul\":11747:11779   */\n      slt\n        /* \"#utility.yul\":11744:11863   */\n      iszero\n      tag_478\n      jumpi\n        /* \"#utility.yul\":11782:11861   */\n      tag_479\n      tag_265\n      jump\t// in\n    tag_479:\n        /* \"#utility.yul\":11744:11863   */\n    tag_478:\n        /* \"#utility.yul\":11902:11903   */\n      0x00\n        /* \"#utility.yul\":11927:11980   */\n      tag_480\n        /* \"#utility.yul\":11972:11979   */\n      dup6\n        /* \"#utility.yul\":11963:11969   */\n      dup3\n        /* \"#utility.yul\":11952:11961   */\n      dup7\n        /* \"#utility.yul\":11948:11970   */\n      add\n        /* \"#utility.yul\":11927:11980   */\n      tag_284\n      jump\t// in\n    tag_480:\n        /* \"#utility.yul\":11917:11980   */\n      swap3\n      pop\n        /* \"#utility.yul\":11873:11990   */\n      pop\n        /* \"#utility.yul\":12029:12031   */\n      0x20\n        /* \"#utility.yul\":12055:12108   */\n      tag_481\n        /* \"#utility.yul\":12100:12107   */\n      dup6\n        /* \"#utility.yul\":12091:12097   */\n      dup3\n        /* \"#utility.yul\":12080:12089   */\n      dup7\n        /* \"#utility.yul\":12076:12098   */\n      add\n        /* \"#utility.yul\":12055:12108   */\n      tag_284\n      jump\t// in\n    tag_481:\n        /* \"#utility.yul\":12045:12108   */\n      swap2\n      pop\n        /* \"#utility.yul\":12000:12118   */\n      pop\n        /* \"#utility.yul\":11651:12125   */\n      swap3\n      pop\n      swap3\n      swap1\n      pop\n      jump\t// out\n        /* \"#utility.yul\":12131:12311   */\n    tag_300:\n        /* \"#utility.yul\":12179:12256   */\n      0x4e487b7100000000000000000000000000000000000000000000000000000000\n        /* \"#utility.yul\":12176:12177   */\n      0x00\n        /* \"#utility.yul\":12169:12257   */\n      mstore\n        /* \"#utility.yul\":12276:12280   */\n      0x22\n        /* \"#utility.yul\":12273:12274   */\n      0x04\n        /* \"#utility.yul\":12266:12281   */\n      mstore\n        /* \"#utility.yul\":12300:12304   */\n      0x24\n        /* \"#utility.yul\":12297:12298   */\n      0x00\n        /* \"#utility.yul\":12290:12305   */\n      revert\n        /* \"#utility.yul\":12317:12637   */\n    tag_136:\n        /* \"#utility.yul\":12361:12367   */\n      0x00\n        /* \"#utility.yul\":12398:12399   */\n      0x02\n        /* \"#utility.yul\":12392:12396   */\n      dup3\n        /* \"#utility.yul\":12388:12400   */\n      div\n        /* \"#utility.yul\":12378:12400   */\n      swap1\n      pop\n        /* \"#utility.yul\":12445:12446   */\n      0x01\n        /* \"#utility.yul\":12439:12443   */\n      dup3\n        /* \"#utility.yul\":12435:12447   */\n      and\n        /* \"#utility.yul\":12466:12484   */\n      dup1\n        /* \"#utility.yul\":12456:12537   */\n      tag_484\n      jumpi\n        /* \"#utility.yul\":12522:12526   */\n      0x7f\n        /* \"#utility.yul\":12514:12520   */\n      dup3\n        /* \"#utility.yul\":12510:12527   */\n      and\n        /* \"#utility.yul\":12500:12527   */\n      swap2\n      pop\n        /* \"#utility.yul\":12456:12537   */\n    tag_484:\n        /* \"#utility.yul\":12584:12586   */\n      0x20\n        /* \"#utility.yul\":12576:12582   */\n      dup3\n        /* \"#utility.yul\":12573:12587   */\n      lt\n        /* \"#utility.yul\":12553:12571   */\n      dup2\n        /* \"#utility.yul\":12550:12588   */\n      sub\n        /* \"#utility.yul\":12547:12631   */\n      tag_485\n      jumpi\n        /* \"#utility.yul\":12603:12621   */\n      tag_486\n      tag_300\n      jump\t// in\n    tag_486:\n        /* \"#utility.yul\":12547:12631   */\n    tag_485:\n        /* \"#utility.yul\":12368:12637   */\n      pop\n        /* \"#utility.yul\":12317:12637   */\n      swap2\n      swap1\n      pop\n      jump\t// out\n        /* \"#utility.yul\":12643:12813   */\n    tag_301:\n        /* \"#utility.yul\":12783:12805   */\n      0x546f6b656e20646f6573206e6f74206578697374000000000000000000000000\n        /* \"#utility.yul\":12779:12780   */\n      0x00\n        /* \"#utility.yul\":12771:12777   */\n      dup3\n        /* \"#utility.yul\":12767:12781   */\n      add\n        /* \"#utility.yul\":12760:12806   */\n      mstore\n        /* \"#utility.yul\":12643:12813   */\n      pop\n      jump\t// out\n        /* \"#utility.yul\":12819:13185   */\n    tag_302:\n        /* \"#utility.yul\":12961:12964   */\n      0x00\n        /* \"#utility.yul\":12982:13049   */\n      tag_489\n        /* \"#utility.yul\":13046:13048   */\n      0x14\n        /* \"#utility.yul\":13041:13044   */\n      dup4\n        /* \"#utility.yul\":12982:13049   */\n      tag_273\n      jump\t// in\n    tag_489:\n        /* \"#utility.yul\":12975:13049   */\n      swap2\n      pop\n        /* \"#utility.yul\":13058:13151   */\n      tag_490\n        /* \"#utility.yul\":13147:13150   */\n      dup3\n        /* \"#utility.yul\":13058:13151   */\n      tag_301\n      jump\t// in\n    tag_490:\n        /* \"#utility.yul\":13176:13178   */\n      0x20\n        /* \"#utility.yul\":13171:13174   */\n      dup3\n        /* \"#utility.yul\":13167:13179   */\n      add\n        /* \"#utility.yul\":13160:13179   */\n      swap1\n      pop\n        /* \"#utility.yul\":12819:13185   */\n      swap2\n      swap1\n      pop\n      jump\t// out\n        /* \"#utility.yul\":13191:13610   */\n    tag_144:\n        /* \"#utility.yul\":13357:13361   */\n      0x00\n        /* \"#utility.yul\":13395:13397   */\n      0x20\n        /* \"#utility.yul\":13384:13393   */\n      dup3\n        /* \"#utility.yul\":13380:13398   */\n      add\n        /* \"#utility.yul\":13372:13398   */\n      swap1\n      pop\n        /* \"#utility.yul\":13444:13453   */\n      dup2\n        /* \"#utility.yul\":13438:13442   */\n      dup2\n        /* \"#utility.yul\":13434:13454   */\n      sub\n        /* \"#utility.yul\":13430:13431   */\n      0x00\n        /* \"#utility.yul\":13419:13428   */\n      dup4\n        /* \"#utility.yul\":13415:13432   */\n      add\n        /* \"#utility.yul\":13408:13455   */\n      mstore\n        /* \"#utility.yul\":13472:13603   */\n      tag_492\n        /* \"#utility.yul\":13598:13602   */\n      dup2\n        /* \"#utility.yul\":13472:13603   */\n      tag_302\n      jump\t// in\n    tag_492:\n        /* \"#utility.yul\":13464:13603   */\n      swap1\n      pop\n        /* \"#utility.yul\":13191:13610   */\n      swap2\n      swap1\n      pop\n      jump\t// out\n        /* \"#utility.yul\":13616:13780   */\n    tag_303:\n        /* \"#utility.yul\":13756:13772   */\n      0x4e6f7420617574686f72697a6564000000000000000000000000000000000000\n        /* \"#utility.yul\":13752:13753   */\n      0x00\n        /* \"#utility.yul\":13744:13750   */\n      dup3\n        /* \"#utility.yul\":13740:13754   */\n      add\n        /* \"#utility.yul\":13733:13773   */\n      mstore\n        /* \"#utility.yul\":13616:13780   */\n      pop\n      jump\t// out\n        /* \"#utility.yul\":13786:14152   */\n    tag_304:\n        /* \"#utility.yul\":13928:13931   */\n      0x00\n        /* \"#utility.yul\":13949:14016   */\n      tag_495\n        /* \"#utility.yul\":14013:14015   */\n      0x0e\n        /* \"#utility.yul\":14008:14011   */\n      dup4\n        /* \"#utility.yul\":13949:14016   */\n      tag_273\n      jump\t// in\n    tag_495:\n        /* \"#utility.yul\":13942:14016   */\n      swap2\n      pop\n        /* \"#utility.yul\":14025:14118   */\n      tag_496\n        /* \"#utility.yul\":14114:14117   */\n      dup3\n        /* \"#utility.yul\":14025:14118   */\n      tag_303\n      jump\t// in\n    tag_496:\n        /* \"#utility.yul\":14143:14145   */\n      0x20\n        /* \"#utility.yul\":14138:14141   */\n      dup3\n        /* \"#utility.yul\":14134:14146   */\n      add\n        /* \"#utility.yul\":14127:14146   */\n      swap1\n      pop\n        /* \"#utility.yul\":13786:14152   */\n      swap2\n      swap1\n      pop\n      jump\t// out\n        /* \"#utility.yul\":14158:14577   */\n    tag_153:\n        /* \"#utility.yul\":14324:14328   */\n      0x00\n        /* \"#utility.yul\":14362:14364   */\n      0x20\n        /* \"#utility.yul\":14351:14360   */\n      dup3\n        /* \"#utility.yul\":14347:14365   */\n      add\n        /* \"#utility.yul\":14339:14365   */\n      swap1\n      pop\n        /* \"#utility.yul\":14411:14420   */\n      dup2\n        /* \"#utility.yul\":14405:14409   */\n      dup2\n        /* \"#utility.yul\":14401:14421   */\n      sub\n        /* \"#utility.yul\":14397:14398   */\n      0x00\n        /* \"#utility.yul\":14386:14395   */\n      dup4\n        /* \"#utility.yul\":14382:14399   */\n      add\n        /* \"#utility.yul\":14375:14422   */\n      mstore\n        /* \"#utility.yul\":14439:14570   */\n      tag_498\n        /* \"#utility.yul\":14565:14569   */\n      dup2\n        /* \"#utility.yul\":14439:14570   */\n      tag_304\n      jump\t// in\n    tag_498:\n        /* \"#utility.yul\":14431:14570   */\n      swap1\n      pop\n        /* \"#utility.yul\":14158:14577   */\n      swap2\n      swap1\n      pop\n      jump\t// out\n        /* \"#utility.yul\":14583:14744   */\n    tag_305:\n        /* \"#utility.yul\":14723:14736   */\n      0x57726f6e67206f776e6572000000000000000000000000000000000000000000\n        /* \"#utility.yul\":14719:14720   */\n      0x00\n        /* \"#utility.yul\":14711:14717   */\n      dup3\n        /* \"#utility.yul\":14707:14721   */\n      add\n        /* \"#utility.yul\":14700:14737   */\n      mstore\n        /* \"#utility.yul\":14583:14744   */\n      pop\n      jump\t// out\n        /* \"#utility.yul\":14750:15116   */\n    tag_306:\n        /* \"#utility.yul\":14892:14895   */\n      0x00\n        /* \"#utility.yul\":14913:14980   */\n      tag_501\n        /* \"#utility.yul\":14977:14979   */\n      0x0b\n        /* \"#utility.yul\":14972:14975   */\n      dup4\n        /* \"#utility.yul\":14913:14980   */\n      tag_273\n      jump\t// in\n    tag_501:\n        /* \"#utility.yul\":14906:14980   */\n      swap2\n      pop\n        /* \"#utility.yul\":14989:15082   */\n      tag_502\n        /* \"#utility.yul\":15078:15081   */\n      dup3\n        /* \"#utility.yul\":14989:15082   */\n      tag_305\n      jump\t// in\n    tag_502:\n        /* \"#utility.yul\":15107:15109   */\n      0x20\n        /* \"#utility.yul\":15102:15105   */\n      dup3\n        /* \"#utility.yul\":15098:15110   */\n      add\n        /* \"#utility.yul\":15091:15110   */\n      swap1\n      pop\n        /* \"#utility.yul\":14750:15116   */\n      swap2\n      swap1\n      pop\n      jump\t// out\n        /* \"#utility.yul\":15122:15541   */\n    tag_161:\n        /* \"#utility.yul\":15288:15292   */\n      0x00\n        /* \"#utility.yul\":15326:15328   */\n      0x20\n        /* \"#utility.yul\":15315:15324   */\n      dup3\n        /* \"#utility.yul\":15311:15329   */\n      add\n        /* \"#utility.yul\":15303:15329   */\n      swap1\n      pop\n        /* \"#utility.yul\":15375:15384   */\n      dup2\n        /* \"#utility.yul\":15369:15373   */\n      dup2\n        /* \"#utility.yul\":15365:15385   */\n      sub\n        /* \"#utility.yul\":15361:15362   */\n      0x00\n        /* \"#utility.yul\":15350:15359   */\n      dup4\n        /* \"#utility.yul\":15346:15363   */\n      add\n        /* \"#utility.yul\":15339:15386   */\n      mstore\n        /* \"#utility.yul\":15403:15534   */\n      tag_504\n        /* \"#utility.yul\":15529:15533   */\n      dup2\n        /* \"#utility.yul\":15403:15534   */\n      tag_306\n      jump\t// in\n    tag_504:\n        /* \"#utility.yul\":15395:15534   */\n      swap1\n      pop\n        /* \"#utility.yul\":15122:15541   */\n      swap2\n      swap1\n      pop\n      jump\t// out\n        /* \"#utility.yul\":15547:15709   */\n    tag_307:\n        /* \"#utility.yul\":15687:15701   */\n      0x5a65726f20616464726573730000000000000000000000000000000000000000\n        /* \"#utility.yul\":15683:15684   */\n      0x00\n        /* \"#utility.yul\":15675:15681   */\n      dup3\n        /* \"#utility.yul\":15671:15685   */\n      add\n        /* \"#utility.yul\":15664:15702   */\n      mstore\n        /* \"#utility.yul\":15547:15709   */\n      pop\n      jump\t// out\n        /* \"#utility.yul\":15715:16081   */\n    tag_308:\n        /* \"#utility.yul\":15857:15860   */\n      0x00\n        /* \"#utility.yul\":15878:15945   */\n      tag_507\n        /* \"#utility.yul\":15942:15944   */\n      0x0c\n        /* \"#utility.yul\":15937:15940   */\n      dup4\n        /* \"#utility.yul\":15878:15945   */\n      tag_273\n      jump\t// in\n    tag_507:\n        /* \"#utility.yul\":15871:15945   */\n      swap2\n      pop\n        /* \"#utility.yul\":15954:16047   */\n      tag_508\n        /* \"#utility.yul\":16043:16046   */\n      dup3\n        /* \"#utility.yul\":15954:16047   */\n      tag_307\n      jump\t// in\n    tag_508:\n        /* \"#utility.yul\":16072:16074   */\n      0x20\n        /* \"#utility.yul\":16067:16070   */\n      dup3\n        /* \"#utility.yul\":16063:16075   */\n      add\n        /* \"#utility.yul\":16056:16075   */\n      swap1\n      pop\n        /* \"#utility.yul\":15715:16081   */\n      swap2\n      swap1\n      pop\n      jump\t// out\n        /* \"#utility.yul\":16087:16506   */\n    tag_164:\n        /* \"#utility.yul\":16253:16257   */\n      0x00\n        /* \"#utility.yul\":16291:16293   */\n      0x20\n        /* \"#utility.yul\":16280:16289   */\n      dup3\n        /* \"#utility.yul\":16276:16294   */\n      add\n        /* \"#utility.yul\":16268:16294   */\n      swap1\n      pop\n        /* \"#utility.yul\":16340:16349   */\n      dup2\n        /* \"#utility.yul\":16334:16338   */\n      dup2\n        /* \"#utility.yul\":16330:16350   */\n      sub\n        /* \"#utility.yul\":16326:16327   */\n      0x00\n        /* \"#utility.yul\":16315:16324   */\n      dup4\n        /* \"#utility.yul\":16311:16328   */\n      add\n        /* \"#utility.yul\":16304:16351   */\n      mstore\n        /* \"#utility.yul\":16368:16499   */\n      tag_510\n        /* \"#utility.yul\":16494:16498   */\n      dup2\n        /* \"#utility.yul\":16368:16499   */\n      tag_308\n      jump\t// in\n    tag_510:\n        /* \"#utility.yul\":16360:16499   */\n      swap1\n      pop\n        /* \"#utility.yul\":16087:16506   */\n      swap2\n      swap1\n      pop\n      jump\t// out\n        /* \"#utility.yul\":16512:16692   */\n    tag_309:\n        /* \"#utility.yul\":16560:16637   */\n      0x4e487b7100000000000000000000000000000000000000000000000000000000\n        /* \"#utility.yul\":16557:16558   */\n      0x00\n        /* \"#utility.yul\":16550:16638   */\n      mstore\n        /* \"#utility.yul\":16657:16661   */\n      0x11\n        /* \"#utility.yul\":16654:16655   */\n      0x04\n        /* \"#utility.yul\":16647:16662   */\n      mstore\n        /* \"#utility.yul\":16681:16685   */\n      0x24\n        /* \"#utility.yul\":16678:16679   */\n      0x00\n        /* \"#utility.yul\":16671:16686   */\n      revert\n        /* \"#utility.yul\":16698:16869   */\n    tag_170:\n        /* \"#utility.yul\":16737:16740   */\n      0x00\n        /* \"#utility.yul\":16760:16784   */\n      tag_513\n        /* \"#utility.yul\":16778:16783   */\n      dup3\n        /* \"#utility.yul\":16760:16784   */\n      tag_277\n      jump\t// in\n    tag_513:\n        /* \"#utility.yul\":16751:16784   */\n      swap2\n      pop\n        /* \"#utility.yul\":16806:16810   */\n      0x00\n        /* \"#utility.yul\":16799:16804   */\n      dup3\n        /* \"#utility.yul\":16796:16811   */\n      sub\n        /* \"#utility.yul\":16793:16834   */\n      tag_514\n      jumpi\n        /* \"#utility.yul\":16814:16832   */\n      tag_515\n      tag_309\n      jump\t// in\n    tag_515:\n        /* \"#utility.yul\":16793:16834   */\n    tag_514:\n        /* \"#utility.yul\":16861:16862   */\n      0x01\n        /* \"#utility.yul\":16854:16859   */\n      dup3\n        /* \"#utility.yul\":16850:16863   */\n      sub\n        /* \"#utility.yul\":16843:16863   */\n      swap1\n      pop\n        /* \"#utility.yul\":16698:16869   */\n      swap2\n      swap1\n      pop\n      jump\t// out\n        /* \"#utility.yul\":16875:17108   */\n    tag_172:\n        /* \"#utility.yul\":16914:16917   */\n      0x00\n        /* \"#utility.yul\":16937:16961   */\n      tag_517\n        /* \"#utility.yul\":16955:16960   */\n      dup3\n        /* \"#utility.yul\":16937:16961   */\n      tag_277\n      jump\t// in\n    tag_517:\n        /* \"#utility.yul\":16928:16961   */\n      swap2\n      pop\n        /* \"#utility.yul\":16983:17049   */\n      0xffffffffffffffffffffffffffffffffffffffffffffffffffffffffffffffff\n        /* \"#utility.yul\":16976:16981   */\n      dup3\n        /* \"#utility.yul\":16973:17050   */\n      sub\n        /* \"#utility.yul\":16970:17073   */\n      tag_518\n      jumpi\n        /* \"#utility.yul\":17053:17071   */\n      tag_519\n      tag_309\n      jump\t// in\n    tag_519:\n        /* \"#utility.yul\":16970:17073   */\n    tag_518:\n        /* \"#utility.yul\":17100:17101   */\n      0x01\n        /* \"#utility.yul\":17093:17098   */\n      dup3\n        /* \"#utility.yul\":17089:17102   */\n      add\n        /* \"#utility.yul\":17082:17102   */\n      swap1\n      pop\n        /* \"#utility.yul\":16875:17108   */\n      swap2\n      swap1\n      pop\n      jump\t// out\n        /* \"#utility.yul\":17114:17273   */\n    tag_310:\n        /* \"#utility.yul\":17254:17265   */\n      0x4e6f74206f776e65720000000000000000000000000000000000000000000000\n        /* \"#utility.yul\":17250:17251   */\n      0x00\n        /* \"#utility.yul\":17242:17248   */\n      dup3\n        /* \"#utility.yul\":17238:17252   */\n      add\n        /* \"#utility.yul\":17231:17266   */\n      mstore\n        /* \"#utility.yul\":17114:17273   */\n      pop\n      jump\t// out\n        /* \"#utility.yul\":17279:17644   */\n    tag_311:\n        /* \"#utility.yul\":17421:17424   */\n      0x00\n        /* \"#utility.yul\":17442:17508   */\n      tag_522\n        /* \"#utility.yul\":17506:17507   */\n      0x09\n        /* \"#utility.yul\":17501:17504   */\n      dup4\n        /* \"#utility.yul\":17442:17508   */\n      tag_273\n      jump\t// in\n    tag_522:\n        /* \"#utility.yul\":17435:17508   */\n      swap2\n      pop\n        /* \"#utility.yul\":17517:17610   */\n      tag_523\n        /* \"#utility.yul\":17606:17609   */\n      dup3\n        /* \"#utility.yul\":17517:17610   */\n      tag_310\n      jump\t// in\n    tag_523:\n        /* \"#utility.yul\":17635:17637   */\n      0x20\n        /* \"#utility.yul\":17630:17633   */\n      dup3\n        /* \"#utility.yul\":17626:17638   */\n      add\n        /* \"#utility.yul\":17619:17638   */\n      swap1\n      pop\n        /* \"#utility.yul\":17279:17644   */\n      swap2\n      swap1\n      pop\n      jump\t// out\n        /* \"#utility.yul\":17650:18069   */\n    tag_176:\n        /* \"#utility.yul\":17816:17820   */\n      0x00\n        /* \"#utility.yul\":17854:17856   */\n      0x20\n        /* \"#utility.yul\":17843:17852   */\n      dup3\n        /* \"#utility.yul\":17839:17857   */\n      add\n        /* \"#utility.yul\":17831:17857   */\n      swap1\n      pop\n        /* \"#utility.yul\":17903:17912   */\n      dup2\n        /* \"#utility.yul\":17897:17901   */\n      dup2\n        /* \"#utility.yul\":17893:17913   */\n      sub\n        /* \"#utility.yul\":17889:17890   */\n      0x00\n        /* \"#utility.yul\":17878:17887   */\n      dup4\n        /* \"#utility.yul\":17874:17891   */\n      add\n        /* \"#utility.yul\":17867:17914   */\n      mstore\n        /* \"#utility.yul\":17931:18062   */\n      tag_525\n        /* \"#utility.yul\":18057:18061   */\n      dup2\n        /* \"#utility.yul\":17931:18062   */\n      tag_311\n      jump\t// in\n    tag_525:\n        /* \"#utility.yul\":17923:18062   */\n      swap1\n      pop\n        /* \"#utility.yul\":17650:18069   */\n      swap2\n      swap1\n      pop\n      jump\t// out\n        /* \"#utility.yul\":18075:18244   */\n    tag_312:\n        /* \"#utility.yul\":18215:18236   */\n      0x4e6f7468696e6720746f20776974686472617700000000000000000000000000\n        /* \"#utility.yul\":18211:18212   */\n      0x00\n        /* \"#utility.yul\":18203:18209   */\n      dup3\n        /* \"#utility.yul\":18199:18213   */\n      add\n        /* \"#utility.yul\":18192:18237   */\n      mstore\n        /* \"#utility.yul\":18075:18244   */\n      pop\n      jump\t// out\n        /* \"#utility.yul\":18250:18616   */\n    tag_313:\n        /* \"#utility.yul\":18392:18395   */\n      0x00\n        /* \"#utility.yul\":18413:18480   */\n      tag_528\n        /* \"#utility.yul\":18477:18479   */\n      0x13\n        /* \"#utility.yul\":18472:18475   */\n      dup4\n        /* \"#utility.yul\":18413:18480   */\n      tag_273\n      jump\t// in\n    tag_528:\n        /* \"#utility.yul\":18406:18480   */\n      swap2\n      pop\n        /* \"#utility.yul\":18489:18582   */\n      tag_529\n        /* \"#utility.yul\":18578:18581   */\n      dup3\n        /* \"#utility.yul\":18489:18582   */\n      tag_312\n      jump\t// in\n    tag_529:\n        /* \"#utility.yul\":18607:18609   */\n      0x20\n        /* \"#utility.yul\":18602:18605   */\n      dup3\n        /* \"#utility.yul\":18598:18610   */\n      add\n        /* \"#utility.yul\":18591:18610   */\n      swap1\n      pop\n        /* \"#utility.yul\":18250:18616   */\n      swap2\n      swap1\n      pop\n      jump\t// out\n        /* \"#utility.yul\":18622:19041   */\n    tag_180:\n        /* \"#utility.yul\":18788:18792   */\n      0x00\n        /* \"#utility.yul\":18826:18828   */\n      0x20\n        /* \"#utility.yul\":18815:18824   */\n      dup3\n        /* \"#utility.yul\":18811:18829   */\n      add\n        /* \"#utility.yul\":18803:18829   */\n      swap1\n      pop\n        /* \"#utility.yul\":18875:18884   */\n      dup2\n        /* \"#utility.yul\":18869:18873   */\n      dup2\n        /* \"#utility.yul\":18865:18885   */\n      sub\n        /* \"#utility.yul\":18861:18862   */\n      0x00\n        /* \"#utility.yul\":18850:18859   */\n      dup4\n        /* \"#utility.yul\":18846:18863   */\n      add\n        /* \"#utility.yul\":18839:18886   */\n      mstore\n        /* \"#utility.yul\":18903:19034   */\n      tag_531\n        /* \"#utility.yul\":19029:19033   */\n      dup2\n        /* \"#utility.yul\":18903:19034   */\n      tag_313\n      jump\t// in\n    tag_531:\n        /* \"#utility.yul\":18895:19034   */\n      swap1\n      pop\n        /* \"#utility.yul\":18622:19041   */\n      swap2\n      swap1\n      pop\n      jump\t// out\n        /* \"#utility.yul\":19047:19215   */\n    tag_314:\n        /* \"#utility.yul\":19187:19207   */\n      0x4d617820737570706c7920726561636865640000000000000000000000000000\n        /* \"#utility.yul\":19183:19184   */\n      0x00\n        /* \"#utility.yul\":19175:19181   */\n      dup3\n        /* \"#utility.yul\":19171:19185   */\n      add\n        /* \"#utility.yul\":19164:19208   */\n      mstore\n        /* \"#utility.yul\":19047:19215   */\n      pop\n      jump\t// out\n        /* \"#utility.yul\":19221:19587   */\n    tag_315:\n        /* \"#utility.yul\":19363:19366   */\n      0x00\n        /* \"#utility.yul\":19384:19451   */\n      tag_534\n        /* \"#utility.yul\":19448:19450   */\n      0x12\n        /* \"#utility.yul\":19443:19446   */\n      dup4\n        /* \"#utility.yul\":19384:19451   */\n      tag_273\n      jump\t// in\n    tag_534:\n        /* \"#utility.yul\":19377:19451   */\n      swap2\n      pop\n        /* \"#utility.yul\":19460:19553   */\n      tag_535\n        /* \"#utility.yul\":19549:19552   */\n      dup3\n        /* \"#utility.yul\":19460:19553   */\n      tag_314\n      jump\t// in\n    tag_535:\n        /* \"#utility.yul\":19578:19580   */\n      0x20\n        /* \"#utility.yul\":19573:19576   */\n      dup3\n        /* \"#utility.yul\":19569:19581   */\n      add\n        /* \"#utility.yul\":19562:19581   */\n      swap1\n      pop\n        /* \"#utility.yul\":19221:19587   */\n      swap2\n      swap1\n      pop\n      jump\t// out\n        /* \"#utility.yul\":19593:20012   */\n    tag_189:\n        /* \"#utility.yul\":19759:19763   */\n      0x00\n        /* \"#utility.yul\":19797:19799   */\n      0x20\n        /* \"#utility.yul\":19786:19795   */\n      dup3\n        /* \"#utility.yul\":19782:19800   */\n      add\n        /* \"#utility.yul\":19774:19800   */\n      swap1\n      pop\n        /* \"#utility.yul\":19846:19855   */\n      dup2\n        /* \"#utility.yul\":19840:19844   */\n      dup2\n        /* \"#utility.yul\":19836:19856   */\n      sub\n        /* \"#utility.yul\":19832:19833   */\n      0x00\n        /* \"#utility.yul\":19821:19830   */\n      dup4\n        /* \"#utility.yul\":19817:19834   */\n      add\n        /* \"#utility.yul\":19810:19857   */\n      mstore\n        /* \"#utility.yul\":19874:20005   */\n      tag_537\n        /* \"#utility.yul\":20000:20004   */\n      dup2\n        /* \"#utility.yul\":19874:20005   */\n      tag_315\n      jump\t// in\n    tag_537:\n        /* \"#utility.yul\":19866:20005   */\n      swap1\n      pop\n        /* \"#utility.yul\":19593:20012   */\n      swap2\n      swap1\n      pop\n      jump\t// out\n        /* \"#utility.yul\":20018:20187   */\n    tag_316:\n        /* \"#utility.yul\":20158:20179   */\n      0x43616e6e6f7420617070726f76652073656c6600000000000000000000000000\n        /* \"#utility.yul\":20154:20155   */\n      0x00\n        /* \"#utility.yul\":20146:20152   */\n      dup3\n        /* \"#utility.yul\":20142:20156   */\n      add\n        /* \"#utility.yul\":20135:20180   */\n      mstore\n        /* \"#utility.yul\":20018:20187   */\n      pop\n      jump\t// out\n        /* \"#utility.yul\":20193:20559   */\n    tag_317:\n        /* \"#utility.yul\":20335:20338   */\n      0x00\n        /* \"#utility.yul\":20356:20423   */\n      tag_540\n        /* \"#utility.yul\":20420:20422   */\n      0x13\n        /* \"#utility.yul\":20415:20418   */\n      dup4\n        /* \"#utility.yul\":20356:20423   */\n      tag_273\n      jump\t// in\n    tag_540:\n        /* \"#utility.yul\":20349:20423   */\n      swap2\n      pop\n        /* \"#utility.yul\":20432:20525   */\n      tag_541\n        /* \"#utility.yul\":20521:20524   */\n      dup3\n        /* \"#utility.yul\":20432:20525   */\n      tag_316\n      jump\t// in\n    tag_541:\n        /* \"#utility.yul\":20550:20552   */\n      0x20\n        /* \"#utility.yul\":20545:20548   */\n      dup3\n        /* \"#utility.yul\":20541:20553   */\n      add\n        /* \"#utility.yul\":20534:20553   */\n      swap1\n      pop\n        /* \"#utility.yul\":20193:20559   */\n      swap2\n      swap1\n      pop\n      jump\t// out\n        /* \"#utility.yul\":20565:20984   */\n    tag_209:\n        /* \"#utility.yul\":20731:20735   */\n      0x00\n        /* \"#utility.yul\":20769:20771   */\n      0x20\n        /* \"#utility.yul\":20758:20767   */\n      dup3\n        /* \"#utility.yul\":20754:20772   */\n      add\n        /* \"#utility.yul\":20746:20772   */\n      swap1\n      pop\n        /* \"#utility.yul\":20818:20827   */\n      dup2\n        /* \"#utility.yul\":20812:20816   */\n      dup2\n        /* \"#utility.yul\":20808:20828   */\n      sub\n        /* \"#utility.yul\":20804:20805   */\n      0x00\n        /* \"#utility.yul\":20793:20802   */\n      dup4\n        /* \"#utility.yul\":20789:20806   */\n      add\n        /* \"#utility.yul\":20782:20829   */\n      mstore\n        /* \"#utility.yul\":20846:20977   */\n      tag_543\n        /* \"#utility.yul\":20972:20976   */\n      dup2\n        /* \"#utility.yul\":20846:20977   */\n      tag_317\n      jump\t// in\n    tag_543:\n        /* \"#utility.yul\":20838:20977   */\n      swap1\n      pop\n        /* \"#utility.yul\":20565:20984   */\n      swap2\n      swap1\n      pop\n      jump\t// out\n        /* \"#utility.yul\":20990:21158   */\n    tag_318:\n        /* \"#utility.yul\":21130:21150   */\n      0x4e6f6e2d45524337323152656365697665720000000000000000000000000000\n        /* \"#utility.yul\":21126:21127   */\n      0x00\n        /* \"#utility.yul\":21118:21124   */\n      dup3\n        /* \"#utility.yul\":21114:21128   */\n      add\n        /* \"#utility.yul\":21107:21151   */\n      mstore\n        /* \"#utility.yul\":20990:21158   */\n      pop\n      jump\t// out\n        /* \"#utility.yul\":21164:21530   */\n    tag_319:\n        /* \"#utility.yul\":21306:21309   */\n      0x00\n        /* \"#utility.yul\":21327:21394   */\n      tag_546\n        /* \"#utility.yul\":21391:21393   */\n      0x12\n        /* \"#utility.yul\":21386:21389   */\n      dup4\n        /* \"#utility.yul\":21327:21394   */\n      tag_273\n      jump\t// in\n    tag_546:\n        /* \"#utility.yul\":21320:21394   */\n      swap2\n      pop\n        /* \"#utility.yul\":21403:21496   */\n      tag_547\n        /* \"#utility.yul\":21492:21495   */\n      dup3\n        /* \"#utility.yul\":21403:21496   */\n      tag_318\n      jump\t// in\n    tag_547:\n        /* \"#utility.yul\":21521:21523   */\n      0x20\n        /* \"#utility.yul\":21516:21519   */\n      dup3\n        /* \"#utility.yul\":21512:21524   */\n      add\n        /* \"#utility.yul\":21505:21524   */\n      swap1\n      pop\n        /* \"#utility.yul\":21164:21530   */\n      swap2\n      swap1\n      pop\n      jump\t// out\n        /* \"#utility.yul\":21536:21955   */\n    tag_217:\n        /* \"#utility.yul\":21702:21706   */\n      0x00\n        /* \"#utility.yul\":21740:21742   */\n      0x20\n        /* \"#utility.yul\":21729:21738   */\n      dup3\n        /* \"#utility.yul\":21725:21743   */\n      add\n        /* \"#utility.yul\":21717:21743   */\n      swap1\n      pop\n        /* \"#utility.yul\":21789:21798   */\n      dup2\n        /* \"#utility.yul\":21783:21787   */\n      dup2\n        /* \"#utility.yul\":21779:21799   */\n      sub\n        /* \"#utility.yul\":21775:21776   */\n      0x00\n        /* \"#utility.yul\":21764:21773   */\n      dup4\n        /* \"#utility.yul\":21760:21777   */\n      add\n        /* \"#utility.yul\":21753:21800   */\n      mstore\n        /* \"#utility.yul\":21817:21948   */\n      tag_549\n        /* \"#utility.yul\":21943:21947   */\n      dup2\n        /* \"#utility.yul\":21817:21948   */\n      tag_319\n      jump\t// in\n    tag_549:\n        /* \"#utility.yul\":21809:21948   */\n      swap1\n      pop\n        /* \"#utility.yul\":21536:21955   */\n      swap2\n      swap1\n      pop\n      jump\t// out\n        /* \"#utility.yul\":21961:22131   */\n    tag_320:\n        /* \"#utility.yul\":22101:22123   */\n      0x496e73756666696369656e74207061796d656e74000000000000000000000000\n        /* \"#utility.yul\":22097:22098   */\n      0x00\n        /* \"#utility.yul\":22089:22095   */\n      dup3\n        /* \"#utility.yul\":22085:22099   */\n      add\n        /* \"#utility.yul\":22078:22124   */\n      mstore\n        /* \"#utility.yul\":21961:22131   */\n      pop\n      jump\t// out\n        /* \"#utility.yul\":22137:22503   */\n    tag_321:\n        /* \"#utility.yul\":22279:22282   */\n      0x00\n        /* \"#utility.yul\":22300:22367   */\n      tag_552\n        /* \"#utility.yul\":22364:22366   */\n      0x14\n        /* \"#utility.yul\":22359:22362   */\n      dup4\n        /* \"#utility.yul\":22300:22367   */\n      tag_273\n      jump\t// in\n    tag_552:\n        /* \"#utility.yul\":22293:22367   */\n      swap2\n      pop\n        /* \"#utility.yul\":22376:22469   */\n      tag_553\n        /* \"#utility.yul\":22465:22468   */\n      dup3\n        /* \"#utility.yul\":22376:22469   */\n      tag_320\n      jump\t// in\n    tag_553:\n        /* \"#utility.yul\":22494:22496   */\n      0x20\n        /* \"#utility.yul\":22489:22492   */\n      dup3\n        /* \"#utility.yul\":22485:22497   */\n      add\n        /* \"#utility.yul\":22478:22497   */\n      swap1\n      pop\n        /* \"#utility.yul\":22137:22503   */\n      swap2\n      swap1\n      pop\n      jump\t// out\n        /* \"#utility.yul\":22509:22928   */\n    tag_230:\n        /* \"#utility.yul\":22675:22679   */\n      0x00\n        /* \"#utility.yul\":22713:22715   */\n      0x20\n        /* \"#utility.yul\":22702:22711   */\n      dup3\n        /* \"#utility.yul\":22698:22716   */\n      add\n        /* \"#utility.yul\":22690:22716   */\n      swap1\n      pop\n        /* \"#utility.yul\":22762:22771   */\n      dup2\n        /* \"#utility.yul\":22756:22760   */\n      dup2\n        /* \"#utility.yul\":22752:22772   */\n      sub\n        /* \"#utility.yul\":22748:22749   */\n      0x00\n        /* \"#utility.yul\":22737:22746   */\n      dup4\n        /* \"#utility.yul\":22733:22750   */\n      add\n        /* \"#utility.yul\":22726:22773   */\n      mstore\n        /* \"#utility.yul\":22790:22921   */\n      tag_555\n        /* \"#utility.yul\":22916:22920   */\n      dup2\n        /* \"#utility.yul\":22790:22921   */\n      tag_321\n      jump\t// in\n    tag_555:\n        /* \"#utility.yul\":22782:22921   */\n      swap1\n      pop\n        /* \"#utility.yul\":22509:22928   */\n      swap2\n      swap1\n      pop\n      jump\t// out\n        /* \"#utility.yul\":22934:23075   */\n    tag_322:\n        /* \"#utility.yul\":22983:22987   */\n      0x00\n        /* \"#utility.yul\":23006:23009   */\n      dup2\n        /* \"#utility.yul\":22998:23009   */\n      swap1\n      pop\n        /* \"#utility.yul\":23029:23032   */\n      dup2\n        /* \"#utility.yul\":23026:23027   */\n      0x00\n        /* \"#utility.yul\":23019:23033   */\n      mstore\n        /* \"#utility.yul\":23063:23067   */\n      0x20\n        /* \"#utility.yul\":23060:23061   */\n      0x00\n        /* \"#utility.yul\":23050:23068   */\n      keccak256\n        /* \"#utility.yul\":23042:23068   */\n      swap1\n      pop\n        /* \"#utility.yul\":22934:23075   */\n      swap2\n      swap1\n      pop\n      jump\t// out\n        /* \"#utility.yul\":23081:23174   */\n    tag_323:\n        /* \"#utility.yul\":23118:23124   */\n      0x00\n        /* \"#utility.yul\":23165:23167   */\n      0x20\n        /* \"#utility.yul\":23160:23162   */\n      0x1f\n        /* \"#utility.yul\":23153:23158   */\n      dup4\n        /* \"#utility.yul\":23149:23163   */\n      add\n        /* \"#utility.yul\":23145:23168   */\n      div\n        /* \"#utility.yul\":23135:23168   */\n      swap1\n      pop\n        /* \"#utility.yul\":23081:23174   */\n      swap2\n      swap1\n      pop\n      jump\t// out\n        /* \"#utility.yul\":23180:23287   */\n    tag_324:\n        /* \"#utility.yul\":23224:23232   */\n      0x00\n        /* \"#utility.yul\":23274:23279   */\n      dup3\n        /* \"#utility.yul\":23268:23272   */\n      dup3\n        /* \"#utility.yul\":23264:23280   */\n      shl\n        /* \"#utility.yul\":23243:23280   */\n      swap1\n      pop\n        /* \"#utility.yul\":23180:23287   */\n      swap3\n      swap2\n      pop\n      pop\n      jump\t// out\n        /* \"#utility.yul\":23293:23686   */\n    tag_325:\n        /* \"#utility.yul\":23362:23368   */\n      0x00\n        /* \"#utility.yul\":23412:23413   */\n      0x08\n        /* \"#utility.yul\":23400:23410   */\n      dup4\n        /* \"#utility.yul\":23396:23414   */\n      mul\n        /* \"#utility.yul\":23435:23532   */\n      tag_560\n        /* \"#utility.yul\":23465:23531   */\n      0xffffffffffffffffffffffffffffffffffffffffffffffffffffffffffffffff\n        /* \"#utility.yul\":23454:23463   */\n      dup3\n        /* \"#utility.yul\":23435:23532   */\n      tag_324\n      jump\t// in\n    tag_560:\n        /* \"#utility.yul\":23553:23592   */\n      tag_561\n        /* \"#utility.yul\":23583:23591   */\n      dup7\n        /* \"#utility.yul\":23572:23581   */\n      dup4\n        /* \"#utility.yul\":23553:23592   */\n      tag_324\n      jump\t// in\n    tag_561:\n        /* \"#utility.yul\":23541:23592   */\n      swap6\n      pop\n        /* \"#utility.yul\":23625:23629   */\n      dup1\n        /* \"#utility.yul\":23621:23630   */\n      not\n        /* \"#utility.yul\":23614:23619   */\n      dup5\n        /* \"#utility.yul\":23610:23631   */\n      and\n        /* \"#utility.yul\":23601:23631   */\n      swap4\n      pop\n        /* \"#utility.yul\":23674:23678   */\n      dup1\n        /* \"#utility.yul\":23664:23672   */\n      dup7\n        /* \"#utility.yul\":23660:23679   */\n      and\n        /* \"#utility.yul\":23653:23658   */\n      dup5\n        /* \"#utility.yul\":23650:23680   */\n      or\n        /* \"#utility.yul\":23640:23680   */\n      swap3\n      pop\n        /* \"#utility.yul\":23369:23686   */\n      pop\n      pop\n        /* \"#utility.yul\":23293:23686   */\n      swap4\n      swap3\n      pop\n      pop\n      pop\n      jump\t// out\n        /* \"#utility.yul\":23692:23752   */\n    tag_326:\n        /* \"#utility.yul\":23720:23723   */\n      0x00\n        /* \"#utility.yul\":23741:23746   */\n      dup2\n        /* \"#utility.yul\":23734:23746   */\n      swap1\n      pop\n        /* \"#utility.yul\":23692:23752   */\n      swap2\n      swap1\n      pop\n      jump\t// out\n        /* \"#utility.yul\":23758:23900   */\n    tag_327:\n        /* \"#utility.yul\":23808:23817   */\n      0x00\n        /* \"#utility.yul\":23841:23894   */\n      tag_564\n        /* \"#utility.yul\":23859:23893   */\n      tag_565\n        /* \"#utility.yul\":23868:23892   */\n      tag_566\n        /* \"#utility.yul\":23886:23891   */\n      dup5\n        /* \"#utility.yul\":23868:23892   */\n      tag_277\n      jump\t// in\n    tag_566:\n        /* \"#utility.yul\":23859:23893   */\n      tag_326\n      jump\t// in\n    tag_565:\n        /* \"#utility.yul\":23841:23894   */\n      tag_277\n      jump\t// in\n    tag_564:\n        /* \"#utility.yul\":23828:23894   */\n      swap1\n      pop\n        /* \"#utility.yul\":23758:23900   */\n      swap2\n      swap1\n      pop\n      jump\t// out\n        /* \"#utility.yul\":23906:23981   */\n    tag_328:\n        /* \"#utility.yul\":23949:23952   */\n      0x00\n        /* \"#utility.yul\":23970:23975   */\n      dup2\n        /* \"#utility.yul\":23963:23975   */\n      swap1\n      pop\n        /* \"#utility.yul\":23906:23981   */\n      swap2\n      swap1\n      pop\n      jump\t// out\n        /* \"#utility.yul\":23987:24256   */\n    tag_329:\n        /* \"#utility.yul\":24097:24136   */\n      tag_569\n        /* \"#utility.yul\":24128:24135   */\n      dup4\n        /* \"#utility.yul\":24097:24136   */\n      tag_327\n      jump\t// in\n    tag_569:\n        /* \"#utility.yul\":24158:24249   */\n      tag_570\n        /* \"#utility.yul\":24207:24248   */\n      tag_571\n        /* \"#utility.yul\":24231:24247   */\n      dup3\n        /* \"#utility.yul\":24207:24248   */\n      tag_328\n      jump\t// in\n    tag_571:\n        /* \"#utility.yul\":24199:24205   */\n      dup5\n        /* \"#utility.yul\":24192:24196   */\n      dup5\n        /* \"#utility.yul\":24186:24197   */\n      sload\n        /* \"#utility.yul\":24158:24249   */\n      tag_325\n      jump\t// in\n    tag_570:\n        /* \"#utility.yul\":24152:24156   */\n      dup3\n        /* \"#utility.yul\":24145:24250   */\n      sstore\n        /* \"#utility.yul\":24063:24256   */\n      pop\n        /* \"#utility.yul\":23987:24256   */\n      pop\n      pop\n      pop\n      jump\t// out\n        /* \"#utility.yul\":24262:24335   */\n    tag_330:\n        /* \"#utility.yul\":24307:24310   */\n      0x00\n        /* \"#utility.yul\":24328:24329   */\n      0x00\n        /* \"#utility.yul\":24321:24329   */\n      swap1\n      pop\n        /* \"#utility.yul\":24262:24335   */\n      swap1\n      jump\t// out\n        /* \"#utility.yul\":24341:24530   */\n    tag_331:\n        /* \"#utility.yul\":24418:24450   */\n      tag_574\n      tag_330\n      jump\t// in\n    tag_574:\n        /* \"#utility.yul\":24459:24524   */\n      tag_575\n        /* \"#utility.yul\":24517:24523   */\n      dup2\n        /* \"#utility.yul\":24509:24515   */\n      dup5\n        /* \"#utility.yul\":24503:24507   */\n      dup5\n        /* \"#utility.yul\":24459:24524   */\n      tag_329\n      jump\t// in\n    tag_575:\n        /* \"#utility.yul\":24394:24530   */\n      pop\n        /* \"#utility.yul\":24341:24530   */\n      pop\n      pop\n      jump\t// out\n        /* \"#utility.yul\":24536:24722   */\n    tag_332:\n        /* \"#utility.yul\":24596:24716   */\n    tag_577:\n        /* \"#utility.yul\":24613:24616   */\n      dup2\n        /* \"#utility.yul\":24606:24611   */\n      dup2\n        /* \"#utility.yul\":24603:24617   */\n      lt\n        /* \"#utility.yul\":24596:24716   */\n      iszero\n      tag_579\n      jumpi\n        /* \"#utility.yul\":24667:24706   */\n      tag_580\n        /* \"#utility.yul\":24704:24705   */\n      0x00\n        /* \"#utility.yul\":24697:24702   */\n      dup3\n        /* \"#utility.yul\":24667:24706   */\n      tag_331\n      jump\t// in\n    tag_580:\n        /* \"#utility.yul\":24640:24641   */\n      0x01\n        /* \"#utility.yul\":24633:24638   */\n      dup2\n        /* \"#utility.yul\":24629:24642   */\n      add\n        /* \"#utility.yul\":24620:24642   */\n      swap1\n      pop\n        /* \"#utility.yul\":24596:24716   */\n      jump(tag_577)\n    tag_579:\n        /* \"#utility.yul\":24536:24722   */\n      pop\n      pop\n      jump\t// out\n        /* \"#utility.yul\":24728:25271   */\n    tag_333:\n        /* \"#utility.yul\":24829:24831   */\n      0x1f\n        /* \"#utility.yul\":24824:24827   */\n      dup3\n        /* \"#utility.yul\":24821:24832   */\n      gt\n        /* \"#utility.yul\":24818:25264   */\n      iszero\n      tag_582\n      jumpi\n        /* \"#utility.yul\":24863:24901   */\n      tag_583\n        /* \"#utility.yul\":24895:24900   */\n      dup2\n        /* \"#utility.yul\":24863:24901   */\n      tag_322\n      jump\t// in\n    tag_583:\n        /* \"#utility.yul\":24947:24976   */\n      tag_584\n        /* \"#utility.yul\":24965:24975   */\n      dup5\n        /* \"#utility.yul\":24947:24976   */\n      tag_323\n      jump\t// in\n    tag_584:\n        /* \"#utility.yul\":24937:24945   */\n      dup2\n        /* \"#utility.yul\":24933:24977   */\n      add\n        /* \"#utility.yul\":25130:25132   */\n      0x20\n        /* \"#utility.yul\":25118:25128   */\n      dup6\n        /* \"#utility.yul\":25115:25133   */\n      lt\n        /* \"#utility.yul\":25112:25161   */\n      iszero\n      tag_585\n      jumpi\n        /* \"#utility.yul\":25151:25159   */\n      dup2\n        /* \"#utility.yul\":25136:25159   */\n      swap1\n      pop\n        /* \"#utility.yul\":25112:25161   */\n    tag_585:\n        /* \"#utility.yul\":25174:25254   */\n      tag_586\n        /* \"#utility.yul\":25230:25252   */\n      tag_587\n        /* \"#utility.yul\":25248:25251   */\n      dup6\n        /* \"#utility.yul\":25230:25252   */\n      tag_323\n      jump\t// in\n    tag_587:\n        /* \"#utility.yul\":25220:25228   */\n      dup4\n        /* \"#utility.yul\":25216:25253   */\n      add\n        /* \"#utility.yul\":25203:25214   */\n      dup3\n        /* \"#utility.yul\":25174:25254   */\n      tag_332\n      jump\t// in\n    tag_586:\n        /* \"#utility.yul\":24833:25264   */\n      pop\n      pop\n        /* \"#utility.yul\":24818:25264   */\n    tag_582:\n        /* \"#utility.yul\":24728:25271   */\n      pop\n      pop\n      pop\n      jump\t// out\n        /* \"#utility.yul\":25277:25394   */\n    tag_334:\n        /* \"#utility.yul\":25331:25339   */\n      0x00\n        /* \"#utility.yul\":25381:25386   */\n      dup3\n        /* \"#utility.yul\":25375:25379   */\n      dup3\n        /* \"#utility.yul\":25371:25387   */\n      shr\n        /* \"#utility.yul\":25350:25387   */\n      swap1\n      pop\n        /* \"#utility.yul\":25277:25394   */\n      swap3\n      swap2\n      pop\n      pop\n      jump\t// out\n        /* \"#utility.yul\":25400:25569   */\n    tag_335:\n        /* \"#utility.yul\":25444:25450   */\n      0x00\n        /* \"#utility.yul\":25477:25528   */\n      tag_590\n        /* \"#utility.yul\":25525:25526   */\n      0x00\n        /* \"#utility.yul\":25521:25527   */\n      not\n        /* \"#utility.yul\":25513:25518   */\n      dup5\n        /* \"#utility.yul\":25510:25511   */\n      0x08\n        /* \"#utility.yul\":25506:25519   */\n      mul\n        /* \"#utility.yul\":25477:25528   */\n      tag_334\n      jump\t// in\n    tag_590:\n        /* \"#utility.yul\":25473:25529   */\n      not\n        /* \"#utility.yul\":25558:25562   */\n      dup1\n        /* \"#utility.yul\":25552:25556   */\n      dup4\n        /* \"#utility.yul\":25548:25563   */\n      and\n        /* \"#utility.yul\":25538:25563   */\n      swap2\n      pop\n        /* \"#utility.yul\":25451:25569   */\n      pop\n        /* \"#utility.yul\":25400:25569   */\n      swap3\n      swap2\n      pop\n      pop\n      jump\t// out\n        /* \"#utility.yul\":25574:25869   */\n    tag_336:\n        /* \"#utility.yul\":25650:25654   */\n      0x00\n        /* \"#utility.yul\":25796:25825   */\n      tag_592\n        /* \"#utility.yul\":25821:25824   */\n      dup4\n        /* \"#utility.yul\":25815:25819   */\n      dup4\n        /* \"#utility.yul\":25796:25825   */\n      tag_335\n      jump\t// in\n    tag_592:\n        /* \"#utility.yul\":25788:25825   */\n      swap2\n      pop\n        /* \"#utility.yul\":25858:25861   */\n      dup3\n        /* \"#utility.yul\":25855:25856   */\n      0x02\n        /* \"#utility.yul\":25851:25862   */\n      mul\n        /* \"#utility.yul\":25845:25849   */\n      dup3\n        /* \"#utility.yul\":25842:25863   */\n      or\n        /* \"#utility.yul\":25834:25863   */\n      swap1\n      pop\n        /* \"#utility.yul\":25574:25869   */\n      swap3\n      swap2\n      pop\n      pop\n      jump\t// out\n        /* \"#utility.yul\":25874:27269   */\n    tag_251:\n        /* \"#utility.yul\":25991:26028   */\n      tag_594\n        /* \"#utility.yul\":26024:26027   */\n      dup3\n        /* \"#utility.yul\":25991:26028   */\n      tag_272\n      jump\t// in\n    tag_594:\n        /* \"#utility.yul\":26093:26111   */\n      0xffffffffffffffff\n        /* \"#utility.yul\":26085:26091   */\n      dup2\n        /* \"#utility.yul\":26082:26112   */\n      gt\n        /* \"#utility.yul\":26079:26135   */\n      iszero\n      tag_595\n      jumpi\n        /* \"#utility.yul\":26115:26133   */\n      tag_596\n      tag_288\n      jump\t// in\n    tag_596:\n        /* \"#utility.yul\":26079:26135   */\n    tag_595:\n        /* \"#utility.yul\":26159:26197   */\n      tag_597\n        /* \"#utility.yul\":26191:26195   */\n      dup3\n        /* \"#utility.yul\":26185:26196   */\n      sload\n        /* \"#utility.yul\":26159:26197   */\n      tag_136\n      jump\t// in\n    tag_597:\n        /* \"#utility.yul\":26244:26311   */\n      tag_598\n        /* \"#utility.yul\":26304:26310   */\n      dup3\n        /* \"#utility.yul\":26296:26302   */\n      dup3\n        /* \"#utility.yul\":26290:26294   */\n      dup6\n        /* \"#utility.yul\":26244:26311   */\n      tag_333\n      jump\t// in\n    tag_598:\n        /* \"#utility.yul\":26338:26339   */\n      0x00\n        /* \"#utility.yul\":26362:26366   */\n      0x20\n        /* \"#utility.yul\":26349:26366   */\n      swap1\n      pop\n        /* \"#utility.yul\":26394:26396   */\n      0x1f\n        /* \"#utility.yul\":26386:26392   */\n      dup4\n        /* \"#utility.yul\":26383:26397   */\n      gt\n        /* \"#utility.yul\":26411:26412   */\n      0x01\n        /* \"#utility.yul\":26406:27024   */\n      dup2\n      eq\n      tag_600\n      jumpi\n        /* \"#utility.yul\":27068:27069   */\n      0x00\n        /* \"#utility.yul\":27085:27091   */\n      dup5\n        /* \"#utility.yul\":27082:27159   */\n      iszero\n      tag_601\n      jumpi\n        /* \"#utility.yul\":27134:27143   */\n      dup3\n        /* \"#utility.yul\":27129:27132   */\n      dup8\n        /* \"#utility.yul\":27125:27144   */\n      add\n        /* \"#utility.yul\":27119:27145   */\n      mload\n        /* \"#utility.yul\":27110:27145   */\n      swap1\n      pop\n        /* \"#utility.yul\":27082:27159   */\n    tag_601:\n        /* \"#utility.yul\":27185:27252   */\n      tag_602\n        /* \"#utility.yul\":27245:27251   */\n      dup6\n        /* \"#utility.yul\":27238:27243   */\n      dup3\n        /* \"#utility.yul\":27185:27252   */\n      tag_336\n      jump\t// in\n    tag_602:\n        /* \"#utility.yul\":27179:27183   */\n      dup7\n        /* \"#utility.yul\":27172:27253   */\n      sstore\n        /* \"#utility.yul\":27041:27263   */\n      pop\n        /* \"#utility.yul\":26376:27263   */\n      jump(tag_599)\n        /* \"#utility.yul\":26406:27024   */\n    tag_600:\n        /* \"#utility.yul\":26458:26462   */\n      0x1f\n        /* \"#utility.yul\":26454:26463   */\n      not\n        /* \"#utility.yul\":26446:26452   */\n      dup5\n        /* \"#utility.yul\":26442:26464   */\n      and\n        /* \"#utility.yul\":26492:26529   */\n      tag_603\n        /* \"#utility.yul\":26524:26528   */\n      dup7\n        /* \"#utility.yul\":26492:26529   */\n      tag_322\n      jump\t// in\n    tag_603:\n        /* \"#utility.yul\":26551:26552   */\n      0x00\n        /* \"#utility.yul\":26565:26773   */\n    tag_604:\n        /* \"#utility.yul\":26579:26586   */\n      dup3\n        /* \"#utility.yul\":26576:26577   */\n      dup2\n        /* \"#utility.yul\":26573:26587   */\n      lt\n        /* \"#utility.yul\":26565:26773   */\n      iszero\n      tag_606\n      jumpi\n        /* \"#utility.yul\":26658:26667   */\n      dup5\n        /* \"#utility.yul\":26653:26656   */\n      dup10\n        /* \"#utility.yul\":26649:26668   */\n      add\n        /* \"#utility.yul\":26643:26669   */\n      mload\n        /* \"#utility.yul\":26635:26641   */\n      dup3\n        /* \"#utility.yul\":26628:26670   */\n      sstore\n        /* \"#utility.yul\":26709:26710   */\n      0x01\n        /* \"#utility.yul\":26701:26707   */\n      dup3\n        /* \"#utility.yul\":26697:26711   */\n      add\n        /* \"#utility.yul\":26687:26711   */\n      swap2\n      pop\n        /* \"#utility.yul\":26756:26758   */\n      0x20\n        /* \"#utility.yul\":26745:26754   */\n      dup6\n        /* \"#utility.yul\":26741:26759   */\n      add\n        /* \"#utility.yul\":26728:26759   */\n      swap5\n      pop\n        /* \"#utility.yul\":26602:26606   */\n      0x20\n        /* \"#utility.yul\":26599:26600   */\n      dup2\n        /* \"#utility.yul\":26595:26607   */\n      add\n        /* \"#utility.yul\":26590:26607   */\n      swap1\n      pop\n        /* \"#utility.yul\":26565:26773   */\n      jump(tag_604)\n    tag_606:\n        /* \"#utility.yul\":26801:26807   */\n      dup7\n        /* \"#utility.yul\":26792:26799   */\n      dup4\n        /* \"#utility.yul\":26789:26808   */\n      lt\n        /* \"#utility.yul\":26786:26965   */\n      iszero\n      tag_607\n      jumpi\n        /* \"#utility.yul\":26859:26868   */\n      dup5\n        /* \"#utility.yul\":26854:26857   */\n      dup10\n        /* \"#utility.yul\":26850:26869   */\n      add\n        /* \"#utility.yul\":26844:26870   */\n      mload\n        /* \"#utility.yul\":26902:26950   */\n      tag_608\n        /* \"#utility.yul\":26944:26948   */\n      0x1f\n        /* \"#utility.yul\":26936:26942   */\n      dup10\n        /* \"#utility.yul\":26932:26949   */\n      and\n        /* \"#utility.yul\":26921:26930   */\n      dup3\n        /* \"#utility.yul\":26902:26950   */\n      tag_335\n      jump\t// in\n    tag_608:\n        /* \"#utility.yul\":26894:26900   */\n      dup4\n        /* \"#utility.yul\":26887:26951   */\n      sstore\n        /* \"#utility.yul\":26809:26965   */\n      pop\n        /* \"#utility.yul\":26786:26965   */\n    tag_607:\n        /* \"#utility.yul\":27011:27012   */\n      0x01\n        /* \"#utility.yul\":27007:27008   */\n      0x02\n        /* \"#utility.yul\":26999:27005   */\n      dup9\n        /* \"#utility.yul\":26995:27009   */\n      mul\n        /* \"#utility.yul\":26991:27013   */\n      add\n        /* \"#utility.yul\":26985:26989   */\n      dup9\n        /* \"#utility.yul\":26978:27014   */\n      sstore\n        /* \"#utility.yul\":26413:27024   */\n      pop\n      pop\n      pop\n        /* \"#utility.yul\":26376:27263   */\n    tag_599:\n      pop\n        /* \"#utility.yul\":25966:27269   */\n      pop\n      pop\n      pop\n        /* \"#utility.yul\":25874:27269   */\n      pop\n      pop\n      jump\t// out\n        /* \"#utility.yul\":27275:27373   */\n    tag_337:\n        /* \"#utility.yul\":27326:27332   */\n      0x00\n        /* \"#utility.yul\":27360:27365   */\n      dup2\n        /* \"#utility.yul\":27354:27366   */\n      mload\n        /* \"#utility.yul\":27344:27366   */\n      swap1\n      pop\n        /* \"#utility.yul\":27275:27373   */\n      swap2\n      swap1\n      pop\n      jump\t// out\n        /* \"#utility.yul\":27379:27547   */\n    tag_338:\n        /* \"#utility.yul\":27462:27473   */\n      0x00\n        /* \"#utility.yul\":27496:27502   */\n      dup3\n        /* \"#utility.yul\":27491:27494   */\n      dup3\n        /* \"#utility.yul\":27484:27503   */\n      mstore\n        /* \"#utility.yul\":27536:27540   */\n      0x20\n        /* \"#utility.yul\":27531:27534   */\n      dup3\n        /* \"#utility.yul\":27527:27541   */\n      add\n        /* \"#utility.yul\":27512:27541   */\n      swap1\n      pop\n        /* \"#utility.yul\":27379:27547   */\n      swap3\n      swap2\n      pop\n      pop\n      jump\t// out\n        /* \"#utility.yul\":27553:27926   */\n    tag_339:\n        /* \"#utility.yul\":27639:27642   */\n      0x00\n        /* \"#utility.yul\":27667:27705   */\n      tag_612\n        /* \"#utility.yul\":27699:27704   */\n      dup3\n        /* \"#utility.yul\":27667:27705   */\n      tag_337\n      jump\t// in\n    tag_612:\n        /* \"#utility.yul\":27721:27791   */\n      tag_613\n        /* \"#utility.yul\":27784:27790   */\n      dup2\n        /* \"#utility.yul\":27779:27782   */\n      dup6\n        /* \"#utility.yul\":27721:27791   */\n      tag_338\n      jump\t// in\n    tag_613:\n        /* \"#utility.yul\":27714:27791   */\n      swap4\n      pop\n        /* \"#utility.yul\":27800:27865   */\n      tag_614\n        /* \"#utility.yul\":27858:27864   */\n      dup2\n        /* \"#utility.yul\":27853:27856   */\n      dup6\n        /* \"#utility.yul\":27846:27850   */\n      0x20\n        /* \"#utility.yul\":27839:27844   */\n      dup7\n        /* \"#utility.yul\":27835:27851   */\n      add\n        /* \"#utility.yul\":27800:27865   */\n      tag_274\n      jump\t// in\n    tag_614:\n        /* \"#utility.yul\":27890:27919   */\n      tag_615\n        /* \"#utility.yul\":27912:27918   */\n      dup2\n        /* \"#utility.yul\":27890:27919   */\n      tag_275\n      jump\t// in\n    tag_615:\n        /* \"#utility.yul\":27885:27888   */\n      dup5\n        /* \"#utility.yul\":27881:27920   */\n      add\n        /* \"#utility.yul\":27874:27920   */\n      swap2\n      pop\n        /* \"#utility.yul\":27643:27926   */\n      pop\n        /* \"#utility.yul\":27553:27926   */\n      swap3\n      swap2\n      pop\n      pop\n      jump\t// out\n        /* \"#utility.yul\":27932:28572   */\n    tag_255:\n        /* \"#utility.yul\":28127:28131   */\n      0x00\n        /* \"#utility.yul\":28165:28168   */\n      0x80\n        /* \"#utility.yul\":28154:28163   */\n      dup3\n        /* \"#utility.yul\":28150:28169   */\n      add\n        /* \"#utility.yul\":28142:28169   */\n      swap1\n      pop\n        /* \"#utility.yul\":28179:28250   */\n      tag_617\n        /* \"#utility.yul\":28247:28248   */\n      0x00\n        /* \"#utility.yul\":28236:28245   */\n      dup4\n        /* \"#utility.yul\":28232:28249   */\n      add\n        /* \"#utility.yul\":28223:28229   */\n      dup8\n        /* \"#utility.yul\":28179:28250   */\n      tag_282\n      jump\t// in\n    tag_617:\n        /* \"#utility.yul\":28260:28332   */\n      tag_618\n        /* \"#utility.yul\":28328:28330   */\n      0x20\n        /* \"#utility.yul\":28317:28326   */\n      dup4\n        /* \"#utility.yul\":28313:28331   */\n      add\n        /* \"#utility.yul\":28304:28310   */\n      dup7\n        /* \"#utility.yul\":28260:28332   */\n      tag_282\n      jump\t// in\n    tag_618:\n        /* \"#utility.yul\":28342:28414   */\n      tag_619\n        /* \"#utility.yul\":28410:28412   */\n      0x40\n        /* \"#utility.yul\":28399:28408   */\n      dup4\n        /* \"#utility.yul\":28395:28413   */\n      add\n        /* \"#utility.yul\":28386:28392   */\n      dup6\n        /* \"#utility.yul\":28342:28414   */\n      tag_285\n      jump\t// in\n    tag_619:\n        /* \"#utility.yul\":28461:28470   */\n      dup2\n        /* \"#utility.yul\":28455:28459   */\n      dup2\n        /* \"#utility.yul\":28451:28471   */\n      sub\n        /* \"#utility.yul\":28446:28448   */\n      0x60\n        /* \"#utility.yul\":28435:28444   */\n      dup4\n        /* \"#utility.yul\":28431:28449   */\n      add\n        /* \"#utility.yul\":28424:28472   */\n      mstore\n        /* \"#utility.yul\":28489:28565   */\n      tag_620\n        /* \"#utility.yul\":28560:28564   */\n      dup2\n        /* \"#utility.yul\":28551:28557   */\n      dup5\n        /* \"#utility.yul\":28489:28565   */\n      tag_339\n      jump\t// in\n    tag_620:\n        /* \"#utility.yul\":28481:28565   */\n      swap1\n      pop\n        /* \"#utility.yul\":27932:28572   */\n      swap6\n      swap5\n      pop\n      pop\n      pop\n      pop\n      pop\n      jump\t// out\n        /* \"#utility.yul\":28578:28719   */\n    tag_340:\n        /* \"#utility.yul\":28634:28639   */\n      0x00\n        /* \"#utility.yul\":28665:28671   */\n      dup2\n        /* \"#utility.yul\":28659:28672   */\n      mload\n        /* \"#utility.yul\":28650:28672   */\n      swap1\n      pop\n        /* \"#utility.yul\":28681:28713   */\n      tag_622\n        /* \"#utility.yul\":28707:28712   */\n      dup2\n        /* \"#utility.yul\":28681:28713   */\n      tag_268\n      jump\t// in\n    tag_622:\n        /* \"#utility.yul\":28578:28719   */\n      swap3\n      swap2\n      pop\n      pop\n      jump\t// out\n        /* \"#utility.yul\":28725:29074   */\n    tag_258:\n        /* \"#utility.yul\":28794:28800   */\n      0x00\n        /* \"#utility.yul\":28843:28845   */\n      0x20\n        /* \"#utility.yul\":28831:28840   */\n      dup3\n        /* \"#utility.yul\":28822:28829   */\n      dup5\n        /* \"#utility.yul\":28818:28841   */\n      sub\n        /* \"#utility.yul\":28814:28846   */\n      slt\n        /* \"#utility.yul\":28811:28930   */\n      iszero\n      tag_624\n      jumpi\n        /* \"#utility.yul\":28849:28928   */\n      tag_625\n      tag_265\n      jump\t// in\n    tag_625:\n        /* \"#utility.yul\":28811:28930   */\n    tag_624:\n        /* \"#utility.yul\":28969:28970   */\n      0x00\n        /* \"#utility.yul\":28994:29057   */\n      tag_626\n        /* \"#utility.yul\":29049:29056   */\n      dup5\n        /* \"#utility.yul\":29040:29046   */\n      dup3\n        /* \"#utility.yul\":29029:29038   */\n      dup6\n        /* \"#utility.yul\":29025:29047   */\n      add\n        /* \"#utility.yul\":28994:29057   */\n      tag_340\n      jump\t// in\n    tag_626:\n        /* \"#utility.yul\":28984:29057   */\n      swap2\n      pop\n        /* \"#utility.yul\":28940:29067   */\n      pop\n        /* \"#utility.yul\":28725:29074   */\n      swap3\n      swap2\n      pop\n      pop\n      jump\t// out\n\n    auxdata: 0xa2646970667358221220af20a74a3e7aeb553ab7007e08fe345ed4cfbd4fe5e07f24a60aeb675a6b485064736f6c634300081e0033\n}\n",
				"bytecode": {
					"linkReferences": {},
					"object": "6080604052662386f26fc10000600455612710600555348015610020575f5ffd5b50604051612f8e380380612f8e833981810160405281019061004291906101f5565b815f9081610050919061047b565b508060019081610060919061047b565b503360025f6101000a81548173ffffffffffffffffffffffffffffffffffffffff021916908373ffffffffffffffffffffffffffffffffffffffff160217905550505061054a565b5f604051905090565b5f5ffd5b5f5ffd5b5f5ffd5b5f5ffd5b5f601f19601f8301169050919050565b7f4e487b71000000000000000000000000000000000000000000000000000000005f52604160045260245ffd5b610107826100c1565b810181811067ffffffffffffffff82111715610126576101256100d1565b5b80604052505050565b5f6101386100a8565b905061014482826100fe565b919050565b5f67ffffffffffffffff821115610163576101626100d1565b5b61016c826100c1565b9050602081019050919050565b8281835e5f83830152505050565b5f61019961019484610149565b61012f565b9050828152602081018484840111156101b5576101b46100bd565b5b6101c0848285610179565b509392505050565b5f82601f8301126101dc576101db6100b9565b5b81516101ec848260208601610187565b91505092915050565b5f5f6040838503121561020b5761020a6100b1565b5b5f83015167ffffffffffffffff811115610228576102276100b5565b5b610234858286016101c8565b925050602083015167ffffffffffffffff811115610255576102546100b5565b5b610261858286016101c8565b9150509250929050565b5f81519050919050565b7f4e487b71000000000000000000000000000000000000000000000000000000005f52602260045260245ffd5b5f60028204905060018216806102b957607f821691505b6020821081036102cc576102cb610275565b5b50919050565b5f819050815f5260205f209050919050565b5f6020601f8301049050919050565b5f82821b905092915050565b5f6008830261032e7fffffffffffffffffffffffffffffffffffffffffffffffffffffffffffffffff826102f3565b61033886836102f3565b95508019841693508086168417925050509392505050565b5f819050919050565b5f819050919050565b5f61037c61037761037284610350565b610359565b610350565b9050919050565b5f819050919050565b61039583610362565b6103a96103a182610383565b8484546102ff565b825550505050565b5f5f905090565b6103c06103b1565b6103cb81848461038c565b505050565b5b818110156103ee576103e35f826103b8565b6001810190506103d1565b5050565b601f82111561043357610404816102d2565b61040d846102e4565b8101602085101561041c578190505b610430610428856102e4565b8301826103d0565b50505b505050565b5f82821c905092915050565b5f6104535f1984600802610438565b1980831691505092915050565b5f61046b8383610444565b9150826002028217905092915050565b6104848261026b565b67ffffffffffffffff81111561049d5761049c6100d1565b5b6104a782546102a2565b6104b28282856103f2565b5f60209050601f8311600181146104e3575f84156104d1578287015190505b6104db8582610460565b865550610542565b601f1984166104f1866102d2565b5f5b82811015610518578489015182556001820191506020850194506020810190506104f3565b868310156105355784890151610531601f891682610444565b8355505b6001600288020188555050505b505050505050565b612a37806105575f395ff3fe608060405260043610610134575f3560e01c806370a08231116100aa578063c87b56dd1161006e578063c87b56dd14610400578063d0def5211461043c578063d5abeb0114610458578063e985e9c514610482578063f2fde38b146104be578063f4a0a528146104e657610134565b806370a08231146103205780638da5cb5b1461035c57806395d89b4114610386578063a22cb465146103b0578063b88d4fde146103d857610134565b806323b872dd116100fc57806323b872dd1461022c5780633ccfd60b1461025457806341d5b8031461026a57806342842e0e146102925780636352211e146102ba5780636817c76c146102f657610134565b806301ffc9a71461013857806306fdde0314610174578063081812fc1461019e578063095ea7b3146101da57806318160ddd14610202575b5f5ffd5b348015610143575f5ffd5b5061015e60048036038101906101599190611bb6565b61050e565b60405161016b9190611bfb565b60405180910390f35b34801561017f575f5ffd5b5061018861059f565b6040516101959190611c84565b60405180910390f35b3480156101a9575f5ffd5b506101c460048036038101906101bf9190611cd7565b61062a565b6040516101d19190611d41565b60405180910390f35b3480156101e5575f5ffd5b5061020060048036038101906101fb9190611d84565b610703565b005b34801561020d575f5ffd5b50610216610980565b6040516102239190611dd1565b60405180910390f35b348015610237575f5ffd5b50610252600480360381019061024d9190611dea565b610989565b005b34801561025f575f5ffd5b50610268610e1b565b005b348015610275575f5ffd5b50610290600480360381019061028b9190611f66565b610f58565b005b34801561029d575f5ffd5b506102b860048036038101906102b39190611dea565b61103b565b005b3480156102c5575f5ffd5b506102e060048036038101906102db9190611cd7565b61105a565b6040516102ed9190611d41565b60405180910390f35b348015610301575f5ffd5b5061030a611133565b6040516103179190611dd1565b60405180910390f35b34801561032b575f5ffd5b5061034660048036038101906103419190611fc0565b611139565b6040516103539190611dd1565b60405180910390f35b348015610367575f5ffd5b506103706111ed565b60405161037d9190611d41565b60405180910390f35b348015610391575f5ffd5b5061039a611212565b6040516103a79190611c84565b60405180910390f35b3480156103bb575f5ffd5b506103d660048036038101906103d19190612015565b61129e565b005b3480156103e3575f5ffd5b506103fe60048036038101906103f991906120f1565b611404565b005b34801561040b575f5ffd5b5061042660048036038101906104219190611cd7565b611460565b6040516104339190611c84565b60405180910390f35b61045660048036038101906104519190611f66565b6115a1565b005b348015610463575f5ffd5b5061046c61163a565b6040516104799190611dd1565b60405180910390f35b34801561048d575f5ffd5b506104a860048036038101906104a39190612171565b611640565b6040516104b59190611bfb565b60405180910390f35b3480156104c9575f5ffd5b506104e460048036038101906104df9190611fc0565b6116ce565b005b3480156104f1575f5ffd5b5061050c60048036038101906105079190611cd7565b61180e565b005b5f6380ac58cd60e01b827bffffffffffffffffffffffffffffffffffffffffffffffffffffffff191614806105685750635b5e139f60e01b827bffffffffffffffffffffffffffffffffffffffffffffffffffffffff1916145b8061059857506301ffc9a760e01b827bffffffffffffffffffffffffffffffffffffffffffffffffffffffff1916145b9050919050565b5f80546105ab906121dc565b80601f01602080910402602001604051908101604052809291908181526020018280546105d7906121dc565b80156106225780601f106105f957610100808354040283529160200191610622565b820191905f5260205f20905b81548152906001019060200180831161060557829003601f168201915b505050505081565b5f815f73ffffffffffffffffffffffffffffffffffffffff1660065f8381526020019081526020015f205f9054906101000a900473ffffffffffffffffffffffffffffffffffffffff1673ffffffffffffffffffffffffffffffffffffffff16036106ca576040517f08c379a00000000000000000000000000000000000000000000000000000000081526004016106c190612256565b60405180910390fd5b60085f8481526020019081526020015f205f9054906101000a900473ffffffffffffffffffffffffffffffffffffffff16915050919050565b805f73ffffffffffffffffffffffffffffffffffffffff1660065f8381526020019081526020015f205f9054906101000a900473ffffffffffffffffffffffffffffffffffffffff1673ffffffffffffffffffffffffffffffffffffffff16036107a2576040517f08c379a000000000000000000000000000000000000000000000000000000000815260040161079990612256565b60405180910390fd5b5f60065f8481526020019081526020015f205f9054906101000a900473ffffffffffffffffffffffffffffffffffffffff1690508073ffffffffffffffffffffffffffffffffffffffff163373ffffffffffffffffffffffffffffffffffffffff161480610891575060095f8273ffffffffffffffffffffffffffffffffffffffff1673ffffffffffffffffffffffffffffffffffffffff1681526020019081526020015f205f3373ffffffffffffffffffffffffffffffffffffffff1673ffffffffffffffffffffffffffffffffffffffff1681526020019081526020015f205f9054906101000a900460ff165b6108d0576040517f08c379a00000000000000000000000000000000000000000000000000000000081526004016108c7906122be565b60405180910390fd5b8360085f8581526020019081526020015f205f6101000a81548173ffffffffffffffffffffffffffffffffffffffff021916908373ffffffffffffffffffffffffffffffffffffffff160217905550828473ffffffffffffffffffffffffffffffffffffffff168273ffffffffffffffffffffffffffffffffffffffff167f8c5be1e5ebec7d5bd14f71427d1e84f3dd0314c0f7b2291e5b200ac8c7c3b92560405160405180910390a450505050565b5f600354905090565b805f73ffffffffffffffffffffffffffffffffffffffff1660065f8381526020019081526020015f205f9054906101000a900473ffffffffffffffffffffffffffffffffffffffff1673ffffffffffffffffffffffffffffffffffffffff1603610a28576040517f08c379a0000000000000000000000000000000000000000000000000000000008152600401610a1f90612256565b60405180910390fd5b60065f8381526020019081526020015f205f9054906101000a900473ffffffffffffffffffffffffffffffffffffffff1673ffffffffffffffffffffffffffffffffffffffff168473ffffffffffffffffffffffffffffffffffffffff1614610ac6576040517f08c379a0000000000000000000000000000000000000000000000000000000008152600401610abd90612326565b60405180910390fd5b5f73ffffffffffffffffffffffffffffffffffffffff168373ffffffffffffffffffffffffffffffffffffffff1603610b34576040517f08c379a0000000000000000000000000000000000000000000000000000000008152600401610b2b9061238e565b60405180910390fd5b8373ffffffffffffffffffffffffffffffffffffffff163373ffffffffffffffffffffffffffffffffffffffff161480610bc9575060085f8381526020019081526020015f205f9054906101000a900473ffffffffffffffffffffffffffffffffffffffff1673ffffffffffffffffffffffffffffffffffffffff163373ffffffffffffffffffffffffffffffffffffffff16145b80610c55575060095f8573ffffffffffffffffffffffffffffffffffffffff1673ffffffffffffffffffffffffffffffffffffffff1681526020019081526020015f205f3373ffffffffffffffffffffffffffffffffffffffff1673ffffffffffffffffffffffffffffffffffffffff1681526020019081526020015f205f9054906101000a900460ff165b610c94576040517f08c379a0000000000000000000000000000000000000000000000000000000008152600401610c8b906122be565b60405180910390fd5b60075f8573ffffffffffffffffffffffffffffffffffffffff1673ffffffffffffffffffffffffffffffffffffffff1681526020019081526020015f205f815480929190610ce1906123d9565b919050555060075f8473ffffffffffffffffffffffffffffffffffffffff1673ffffffffffffffffffffffffffffffffffffffff1681526020019081526020015f205f815480929190610d3390612400565b91905055508260065f8481526020019081526020015f205f6101000a81548173ffffffffffffffffffffffffffffffffffffffff021916908373ffffffffffffffffffffffffffffffffffffffff16021790555060085f8381526020019081526020015f205f6101000a81549073ffffffffffffffffffffffffffffffffffffffff0219169055818373ffffffffffffffffffffffffffffffffffffffff168573ffffffffffffffffffffffffffffffffffffffff167fddf252ad1be2c89b69c2b068fc378daa952ba7f163c4a11628f55a4df523b3ef60405160405180910390a450505050565b60025f9054906101000a900473ffffffffffffffffffffffffffffffffffffffff1673ffffffffffffffffffffffffffffffffffffffff163373ffffffffffffffffffffffffffffffffffffffff1614610eaa576040517f08c379a0000000000000000000000000000000000000000000000000000000008152600401610ea190612491565b60405180910390fd5b5f4790505f8111610ef0576040517f08c379a0000000000000000000000000000000000000000000000000000000008152600401610ee7906124f9565b60405180910390fd5b60025f9054906101000a900473ffffffffffffffffffffffffffffffffffffffff1673ffffffffffffffffffffffffffffffffffffffff166108fc8290811502906040515f60405180830381858888f19350505050158015610f54573d5f5f3e3d5ffd5b5050565b60025f9054906101000a900473ffffffffffffffffffffffffffffffffffffffff1673ffffffffffffffffffffffffffffffffffffffff163373ffffffffffffffffffffffffffffffffffffffff1614610fe7576040517f08c379a0000000000000000000000000000000000000000000000000000000008152600401610fde90612491565b60405180910390fd5b6005546003541061102d576040517f08c379a000000000000000000000000000000000000000000000000000000000815260040161102490612561565b60405180910390fd5b61103782826118a7565b5050565b61105583838360405180602001604052805f815250611404565b505050565b5f815f73ffffffffffffffffffffffffffffffffffffffff1660065f8381526020019081526020015f205f9054906101000a900473ffffffffffffffffffffffffffffffffffffffff1673ffffffffffffffffffffffffffffffffffffffff16036110fa576040517f08c379a00000000000000000000000000000000000000000000000000000000081526004016110f190612256565b60405180910390fd5b60065f8481526020019081526020015f205f9054906101000a900473ffffffffffffffffffffffffffffffffffffffff16915050919050565b60045481565b5f5f73ffffffffffffffffffffffffffffffffffffffff168273ffffffffffffffffffffffffffffffffffffffff16036111a8576040517f08c379a000000000000000000000000000000000000000000000000000000000815260040161119f9061238e565b60405180910390fd5b60075f8373ffffffffffffffffffffffffffffffffffffffff1673ffffffffffffffffffffffffffffffffffffffff1681526020019081526020015f20549050919050565b60025f9054906101000a900473ffffffffffffffffffffffffffffffffffffffff1681565b6001805461121f906121dc565b80601f016020809104026020016040519081016040528092919081815260200182805461124b906121dc565b80156112965780601f1061126d57610100808354040283529160200191611296565b820191905f5260205f20905b81548152906001019060200180831161127957829003601f168201915b505050505081565b3373ffffffffffffffffffffffffffffffffffffffff168273ffffffffffffffffffffffffffffffffffffffff160361130c576040517f08c379a0000000000000000000000000000000000000000000000000000000008152600401611303906125c9565b60405180910390fd5b8060095f3373ffffffffffffffffffffffffffffffffffffffff1673ffffffffffffffffffffffffffffffffffffffff1681526020019081526020015f205f8473ffffffffffffffffffffffffffffffffffffffff1673ffffffffffffffffffffffffffffffffffffffff1681526020019081526020015f205f6101000a81548160ff0219169083151502179055508173ffffffffffffffffffffffffffffffffffffffff163373ffffffffffffffffffffffffffffffffffffffff167f17307eab39ab6107e8899845ad3d59bd9653f200f220920489ca2b5937696c31836040516113f89190611bfb565b60405180910390a35050565b61140f848484610989565b61141b84848484611a4e565b61145a576040517f08c379a000000000000000000000000000000000000000000000000000000000815260040161145190612631565b60405180910390fd5b50505050565b6060815f73ffffffffffffffffffffffffffffffffffffffff1660065f8381526020019081526020015f205f9054906101000a900473ffffffffffffffffffffffffffffffffffffffff1673ffffffffffffffffffffffffffffffffffffffff1603611501576040517f08c379a00000000000000000000000000000000000000000000000000000000081526004016114f890612256565b60405180910390fd5b600a5f8481526020019081526020015f20805461151d906121dc565b80601f0160208091040260200160405190810160405280929190818152602001828054611549906121dc565b80156115945780601f1061156b57610100808354040283529160200191611594565b820191905f5260205f20905b81548152906001019060200180831161157757829003601f168201915b5050505050915050919050565b6004543410156115e6576040517f08c379a00000000000000000000000000000000000000000000000000000000081526004016115dd90612699565b60405180910390fd5b6005546003541061162c576040517f08c379a000000000000000000000000000000000000000000000000000000000815260040161162390612561565b60405180910390fd5b61163682826118a7565b5050565b60055481565b5f60095f8473ffffffffffffffffffffffffffffffffffffffff1673ffffffffffffffffffffffffffffffffffffffff1681526020019081526020015f205f8373ffffffffffffffffffffffffffffffffffffffff1673ffffffffffffffffffffffffffffffffffffffff1681526020019081526020015f205f9054906101000a900460ff16905092915050565b60025f9054906101000a900473ffffffffffffffffffffffffffffffffffffffff1673ffffffffffffffffffffffffffffffffffffffff163373ffffffffffffffffffffffffffffffffffffffff161461175d576040517f08c379a000000000000000000000000000000000000000000000000000000000815260040161175490612491565b60405180910390fd5b5f73ffffffffffffffffffffffffffffffffffffffff168173ffffffffffffffffffffffffffffffffffffffff16036117cb576040517f08c379a00000000000000000000000000000000000000000000000000000000081526004016117c29061238e565b60405180910390fd5b8060025f6101000a81548173ffffffffffffffffffffffffffffffffffffffff021916908373ffffffffffffffffffffffffffffffffffffffff16021790555050565b60025f9054906101000a900473ffffffffffffffffffffffffffffffffffffffff1673ffffffffffffffffffffffffffffffffffffffff163373ffffffffffffffffffffffffffffffffffffffff161461189d576040517f08c379a000000000000000000000000000000000000000000000000000000000815260040161189490612491565b60405180910390fd5b8060048190555050565b5f73ffffffffffffffffffffffffffffffffffffffff168273ffffffffffffffffffffffffffffffffffffffff1603611915576040517f08c379a000000000000000000000000000000000000000000000000000000000815260040161190c9061238e565b60405180910390fd5b5f60035f81548092919061192890612400565b9190505590508260065f8381526020019081526020015f205f6101000a81548173ffffffffffffffffffffffffffffffffffffffff021916908373ffffffffffffffffffffffffffffffffffffffff16021790555060075f8473ffffffffffffffffffffffffffffffffffffffff1673ffffffffffffffffffffffffffffffffffffffff1681526020019081526020015f205f8154809291906119ca90612400565b919050555081600a5f8381526020019081526020015f2090816119ed9190612857565b50808373ffffffffffffffffffffffffffffffffffffffff165f73ffffffffffffffffffffffffffffffffffffffff167fddf252ad1be2c89b69c2b068fc378daa952ba7f163c4a11628f55a4df523b3ef60405160405180910390a4505050565b5f5f8473ffffffffffffffffffffffffffffffffffffffff163b03611a765760019050611b48565b8373ffffffffffffffffffffffffffffffffffffffff1663150b7a02338786866040518563ffffffff1660e01b8152600401611ab59493929190612978565b6020604051808303815f875af1925050508015611af057506040513d601f19601f82011682018060405250810190611aed91906129d6565b60015b611afc575f9050611b48565b63150b7a0260e01b7bffffffffffffffffffffffffffffffffffffffffffffffffffffffff1916817bffffffffffffffffffffffffffffffffffffffffffffffffffffffff1916149150505b949350505050565b5f604051905090565b5f5ffd5b5f5ffd5b5f7fffffffff0000000000000000000000000000000000000000000000000000000082169050919050565b611b9581611b61565b8114611b9f575f5ffd5b50565b5f81359050611bb081611b8c565b92915050565b5f60208284031215611bcb57611bca611b59565b5b5f611bd884828501611ba2565b91505092915050565b5f8115159050919050565b611bf581611be1565b82525050565b5f602082019050611c0e5f830184611bec565b92915050565b5f81519050919050565b5f82825260208201905092915050565b8281835e5f83830152505050565b5f601f19601f8301169050919050565b5f611c5682611c14565b611c608185611c1e565b9350611c70818560208601611c2e565b611c7981611c3c565b840191505092915050565b5f6020820190508181035f830152611c9c8184611c4c565b905092915050565b5f819050919050565b611cb681611ca4565b8114611cc0575f5ffd5b50565b5f81359050611cd181611cad565b92915050565b5f60208284031215611cec57611ceb611b59565b5b5f611cf984828501611cc3565b91505092915050565b5f73ffffffffffffffffffffffffffffffffffffffff82169050919050565b5f611d2b82611d02565b9050919050565b611d3b81611d21565b82525050565b5f602082019050611d545f830184611d32565b92915050565b611d6381611d21565b8114611d6d575f5ffd5b50565b5f81359050611d7e81611d5a565b92915050565b5f5f60408385031215611d9a57611d99611b59565b5b5f611da785828601611d70565b9250506020611db885828601611cc3565b9150509250929050565b611dcb81611ca4565b82525050565b5f602082019050611de45f830184611dc2565b92915050565b5f5f5f60608486031215611e0157611e00611b59565b5b5f611e0e86828701611d70565b9350506020611e1f86828701611d70565b9250506040611e3086828701611cc3565b9150509250925092565b5f5ffd5b5f5ffd5b7f4e487b71000000000000000000000000000000000000000000000000000000005f52604160045260245ffd5b611e7882611c3c565b810181811067ffffffffffffffff82111715611e9757611e96611e42565b5b80604052505050565b5f611ea9611b50565b9050611eb58282611e6f565b919050565b5f67ffffffffffffffff821115611ed457611ed3611e42565b5b611edd82611c3c565b9050602081019050919050565b828183375f83830152505050565b5f611f0a611f0584611eba565b611ea0565b905082815260208101848484011115611f2657611f25611e3e565b5b611f31848285611eea565b509392505050565b5f82601f830112611f4d57611f4c611e3a565b5b8135611f5d848260208601611ef8565b91505092915050565b5f5f60408385031215611f7c57611f7b611b59565b5b5f611f8985828601611d70565b925050602083013567ffffffffffffffff811115611faa57611fa9611b5d565b5b611fb685828601611f39565b9150509250929050565b5f60208284031215611fd557611fd4611b59565b5b5f611fe284828501611d70565b91505092915050565b611ff481611be1565b8114611ffe575f5ffd5b50565b5f8135905061200f81611feb565b92915050565b5f5f6040838503121561202b5761202a611b59565b5b5f61203885828601611d70565b925050602061204985828601612001565b9150509250929050565b5f67ffffffffffffffff82111561206d5761206c611e42565b5b61207682611c3c565b9050602081019050919050565b5f61209561209084612053565b611ea0565b9050828152602081018484840111156120b1576120b0611e3e565b5b6120bc848285611eea565b509392505050565b5f82601f8301126120d8576120d7611e3a565b5b81356120e8848260208601612083565b91505092915050565b5f5f5f5f6080858703121561210957612108611b59565b5b5f61211687828801611d70565b945050602061212787828801611d70565b935050604061213887828801611cc3565b925050606085013567ffffffffffffffff81111561215957612158611b5d565b5b612165878288016120c4565b91505092959194509250565b5f5f6040838503121561218757612186611b59565b5b5f61219485828601611d70565b92505060206121a585828601611d70565b9150509250929050565b7f4e487b71000000000000000000000000000000000000000000000000000000005f52602260045260245ffd5b5f60028204905060018216806121f357607f821691505b602082108103612206576122056121af565b5b50919050565b7f546f6b656e20646f6573206e6f742065786973740000000000000000000000005f82015250565b5f612240601483611c1e565b915061224b8261220c565b602082019050919050565b5f6020820190508181035f83015261226d81612234565b9050919050565b7f4e6f7420617574686f72697a65640000000000000000000000000000000000005f82015250565b5f6122a8600e83611c1e565b91506122b382612274565b602082019050919050565b5f6020820190508181035f8301526122d58161229c565b9050919050565b7f57726f6e67206f776e65720000000000000000000000000000000000000000005f82015250565b5f612310600b83611c1e565b915061231b826122dc565b602082019050919050565b5f6020820190508181035f83015261233d81612304565b9050919050565b7f5a65726f206164647265737300000000000000000000000000000000000000005f82015250565b5f612378600c83611c1e565b915061238382612344565b602082019050919050565b5f6020820190508181035f8301526123a58161236c565b9050919050565b7f4e487b71000000000000000000000000000000000000000000000000000000005f52601160045260245ffd5b5f6123e382611ca4565b91505f82036123f5576123f46123ac565b5b600182039050919050565b5f61240a82611ca4565b91507fffffffffffffffffffffffffffffffffffffffffffffffffffffffffffffffff820361243c5761243b6123ac565b5b600182019050919050565b7f4e6f74206f776e657200000000000000000000000000000000000000000000005f82015250565b5f61247b600983611c1e565b915061248682612447565b602082019050919050565b5f6020820190508181035f8301526124a88161246f565b9050919050565b7f4e6f7468696e6720746f207769746864726177000000000000000000000000005f82015250565b5f6124e3601383611c1e565b91506124ee826124af565b602082019050919050565b5f6020820190508181035f830152612510816124d7565b9050919050565b7f4d617820737570706c79207265616368656400000000000000000000000000005f82015250565b5f61254b601283611c1e565b915061255682612517565b602082019050919050565b5f6020820190508181035f8301526125788161253f565b9050919050565b7f43616e6e6f7420617070726f76652073656c66000000000000000000000000005f82015250565b5f6125b3601383611c1e565b91506125be8261257f565b602082019050919050565b5f6020820190508181035f8301526125e0816125a7565b9050919050565b7f4e6f6e2d455243373231526563656976657200000000000000000000000000005f82015250565b5f61261b601283611c1e565b9150612626826125e7565b602082019050919050565b5f6020820190508181035f8301526126488161260f565b9050919050565b7f496e73756666696369656e74207061796d656e740000000000000000000000005f82015250565b5f612683601483611c1e565b915061268e8261264f565b602082019050919050565b5f6020820190508181035f8301526126b081612677565b9050919050565b5f819050815f5260205f209050919050565b5f6020601f8301049050919050565b5f82821b905092915050565b5f600883026127137fffffffffffffffffffffffffffffffffffffffffffffffffffffffffffffffff826126d8565b61271d86836126d8565b95508019841693508086168417925050509392505050565b5f819050919050565b5f61275861275361274e84611ca4565b612735565b611ca4565b9050919050565b5f819050919050565b6127718361273e565b61278561277d8261275f565b8484546126e4565b825550505050565b5f5f905090565b61279c61278d565b6127a7818484612768565b505050565b5b818110156127ca576127bf5f82612794565b6001810190506127ad565b5050565b601f82111561280f576127e0816126b7565b6127e9846126c9565b810160208510156127f8578190505b61280c612804856126c9565b8301826127ac565b50505b505050565b5f82821c905092915050565b5f61282f5f1984600802612814565b1980831691505092915050565b5f6128478383612820565b9150826002028217905092915050565b61286082611c14565b67ffffffffffffffff81111561287957612878611e42565b5b61288382546121dc565b61288e8282856127ce565b5f60209050601f8311600181146128bf575f84156128ad578287015190505b6128b7858261283c565b86555061291e565b601f1984166128cd866126b7565b5f5b828110156128f4578489015182556001820191506020850194506020810190506128cf565b86831015612911578489015161290d601f891682612820565b8355505b6001600288020188555050505b505050505050565b5f81519050919050565b5f82825260208201905092915050565b5f61294a82612926565b6129548185612930565b9350612964818560208601611c2e565b61296d81611c3c565b840191505092915050565b5f60808201905061298b5f830187611d32565b6129986020830186611d32565b6129a56040830185611dc2565b81810360608301526129b78184612940565b905095945050505050565b5f815190506129d081611b8c565b92915050565b5f602082840312156129eb576129ea611b59565b5b5f6129f8848285016129c2565b9150509291505056fea2646970667358221220af20a74a3e7aeb553ab7007e08fe345ed4cfbd4fe5e07f24a60aeb675a6b485064736f6c634300081e0033",
					"opcodes": "PUSH1 0x80 PUSH1 0x40 MSTORE PUSH7 0x2386F26FC10000 PUSH1 0x4 SSTORE PUSH2 0x2710 PUSH1 0x5 SSTORE CALLVALUE DUP1 ISZERO PUSH2 0x20 JUMPI PUSH0 PUSH0 REVERT JUMPDEST POP PUSH1 0x40 MLOAD PUSH2 0x2F8E CODESIZE SUB DUP1 PUSH2 0x2F8E DUP4 CODECOPY DUP2 DUP2 ADD PUSH1 0x40 MSTORE DUP2 ADD SWAP1 PUSH2 0x42 SWAP2 SWAP1 PUSH2 0x1F5 JUMP JUMPDEST DUP2 PUSH0 SWAP1 DUP2 PUSH2 0x50 SWAP2 SWAP1 PUSH2 0x47B JUMP JUMPDEST POP DUP1 PUSH1 0x1 SWAP1 DUP2 PUSH2 0x60 SWAP2 SWAP1 PUSH2 0x47B JUMP JUMPDEST POP CALLER PUSH1 0x2 PUSH0 PUSH2 0x100 EXP DUP2 SLOAD DUP2 PUSH20 0xFFFFFFFFFFFFFFFFFFFFFFFFFFFFFFFFFFFFFFFF MUL NOT AND SWAP1 DUP4 PUSH20 0xFFFFFFFFFFFFFFFFFFFFFFFFFFFFFFFFFFFFFFFF AND MUL OR SWAP1 SSTORE POP POP POP PUSH2 0x54A JUMP JUMPDEST PUSH0 PUSH1 0x40 MLOAD SWAP1 POP SWAP1 JUMP JUMPDEST PUSH0 PUSH0 REVERT JUMPDEST PUSH0 PUSH0 REVERT JUMPDEST PUSH0 PUSH0 REVERT JUMPDEST PUSH0 PUSH0 REVERT JUMPDEST PUSH0 PUSH1 0x1F NOT PUSH1 0x1F DUP4 ADD AND SWAP1 POP SWAP2 SWAP1 POP JUMP JUMPDEST PUSH32 0x4E487B7100000000000000000000000000000000000000000000000000000000 PUSH0 MSTORE PUSH1 0x41 PUSH1 0x4 MSTORE PUSH1 0x24 PUSH0 REVERT JUMPDEST PUSH2 0x107 DUP3 PUSH2 0xC1 JUMP JUMPDEST DUP2 ADD DUP2 DUP2 LT PUSH8 0xFFFFFFFFFFFFFFFF DUP3 GT OR ISZERO PUSH2 0x126 JUMPI PUSH2 0x125 PUSH2 0xD1 JUMP JUMPDEST JUMPDEST DUP1 PUSH1 0x40 MSTORE POP POP POP JUMP JUMPDEST PUSH0 PUSH2 0x138 PUSH2 0xA8 JUMP JUMPDEST SWAP1 POP PUSH2 0x144 DUP3 DUP3 PUSH2 0xFE JUMP JUMPDEST SWAP2 SWAP1 POP JUMP JUMPDEST PUSH0 PUSH8 0xFFFFFFFFFFFFFFFF DUP3 GT ISZERO PUSH2 0x163 JUMPI PUSH2 0x162 PUSH2 0xD1 JUMP JUMPDEST JUMPDEST PUSH2 0x16C DUP3 PUSH2 0xC1 JUMP JUMPDEST SWAP1 POP PUSH1 0x20 DUP2 ADD SWAP1 POP SWAP2 SWAP1 POP JUMP JUMPDEST DUP3 DUP2 DUP4 MCOPY PUSH0 DUP4 DUP4 ADD MSTORE POP POP POP JUMP JUMPDEST PUSH0 PUSH2 0x199 PUSH2 0x194 DUP5 PUSH2 0x149 JUMP JUMPDEST PUSH2 0x12F JUMP JUMPDEST SWAP1 POP DUP3 DUP2 MSTORE PUSH1 0x20 DUP2 ADD DUP5 DUP5 DUP5 ADD GT ISZERO PUSH2 0x1B5 JUMPI PUSH2 0x1B4 PUSH2 0xBD JUMP JUMPDEST JUMPDEST PUSH2 0x1C0 DUP5 DUP3 DUP6 PUSH2 0x179 JUMP JUMPDEST POP SWAP4 SWAP3 POP POP POP JUMP JUMPDEST PUSH0 DUP3 PUSH1 0x1F DUP4 ADD SLT PUSH2 0x1DC JUMPI PUSH2 0x1DB PUSH2 0xB9 JUMP JUMPDEST JUMPDEST DUP2 MLOAD PUSH2 0x1EC DUP5 DUP3 PUSH1 0x20 DUP7 ADD PUSH2 0x187 JUMP JUMPDEST SWAP2 POP POP SWAP3 SWAP2 POP POP JUMP JUMPDEST PUSH0 PUSH0 PUSH1 0x40 DUP4 DUP6 SUB SLT ISZERO PUSH2 0x20B JUMPI PUSH2 0x20A PUSH2 0xB1 JUMP JUMPDEST JUMPDEST PUSH0 DUP4 ADD MLOAD PUSH8 0xFFFFFFFFFFFFFFFF DUP2 GT ISZERO PUSH2 0x228 JUMPI PUSH2 0x227 PUSH2 0xB5 JUMP JUMPDEST JUMPDEST PUSH2 0x234 DUP6 DUP3 DUP7 ADD PUSH2 0x1C8 JUMP JUMPDEST SWAP3 POP POP PUSH1 0x20 DUP4 ADD MLOAD PUSH8 0xFFFFFFFFFFFFFFFF DUP2 GT ISZERO PUSH2 0x255 JUMPI PUSH2 0x254 PUSH2 0xB5 JUMP JUMPDEST JUMPDEST PUSH2 0x261 DUP6 DUP3 DUP7 ADD PUSH2 0x1C8 JUMP JUMPDEST SWAP2 POP POP SWAP3 POP SWAP3 SWAP1 POP JUMP JUMPDEST PUSH0 DUP2 MLOAD SWAP1 POP SWAP2 SWAP1 POP JUMP JUMPDEST PUSH32 0x4E487B7100000000000000000000000000000000000000000000000000000000 PUSH0 MSTORE PUSH1 0x22 PUSH1 0x4 MSTORE PUSH1 0x24 PUSH0 REVERT JUMPDEST PUSH0 PUSH1 0x2 DUP3 DIV SWAP1 POP PUSH1 0x1 DUP3 AND DUP1 PUSH2 0x2B9 JUMPI PUSH1 0x7F DUP3 AND SWAP2 POP JUMPDEST PUSH1 0x20 DUP3 LT DUP2 SUB PUSH2 0x2CC JUMPI PUSH2 0x2CB PUSH2 0x275 JUMP JUMPDEST JUMPDEST POP SWAP2 SWAP1 POP JUMP JUMPDEST PUSH0 DUP2 SWAP1 POP DUP2 PUSH0 MSTORE PUSH1 0x20 PUSH0 KECCAK256 SWAP1 POP SWAP2 SWAP1 POP JUMP JUMPDEST PUSH0 PUSH1 0x20 PUSH1 0x1F DUP4 ADD DIV SWAP1 POP SWAP2 SWAP1 POP JUMP JUMPDEST PUSH0 DUP3 DUP3 SHL SWAP1 POP SWAP3 SWAP2 POP POP JUMP JUMPDEST PUSH0 PUSH1 0x8 DUP4 MUL PUSH2 0x32E PUSH32 0xFFFFFFFFFFFFFFFFFFFFFFFFFFFFFFFFFFFFFFFFFFFFFFFFFFFFFFFFFFFFFFFF DUP3 PUSH2 0x2F3 JUMP JUMPDEST PUSH2 0x338 DUP7 DUP4 PUSH2 0x2F3 JUMP JUMPDEST SWAP6 POP DUP1 NOT DUP5 AND SWAP4 POP DUP1 DUP7 AND DUP5 OR SWAP3 POP POP POP SWAP4 SWAP3 POP POP POP JUMP JUMPDEST PUSH0 DUP2 SWAP1 POP SWAP2 SWAP1 POP JUMP JUMPDEST PUSH0 DUP2 SWAP1 POP SWAP2 SWAP1 POP JUMP JUMPDEST PUSH0 PUSH2 0x37C PUSH2 0x377 PUSH2 0x372 DUP5 PUSH2 0x350 JUMP JUMPDEST PUSH2 0x359 JUMP JUMPDEST PUSH2 0x350 JUMP JUMPDEST SWAP1 POP SWAP2 SWAP1 POP JUMP JUMPDEST PUSH0 DUP2 SWAP1 POP SWAP2 SWAP1 POP JUMP JUMPDEST PUSH2 0x395 DUP4 PUSH2 0x362 JUMP JUMPDEST PUSH2 0x3A9 PUSH2 0x3A1 DUP3 PUSH2 0x383 JUMP JUMPDEST DUP5 DUP5 SLOAD PUSH2 0x2FF JUMP JUMPDEST DUP3 SSTORE POP POP POP POP JUMP JUMPDEST PUSH0 PUSH0 SWAP1 POP SWAP1 JUMP JUMPDEST PUSH2 0x3C0 PUSH2 0x3B1 JUMP JUMPDEST PUSH2 0x3CB DUP2 DUP5 DUP5 PUSH2 0x38C JUMP JUMPDEST POP POP POP JUMP JUMPDEST JUMPDEST DUP2 DUP2 LT ISZERO PUSH2 0x3EE JUMPI PUSH2 0x3E3 PUSH0 DUP3 PUSH2 0x3B8 JUMP JUMPDEST PUSH1 0x1 DUP2 ADD SWAP1 POP PUSH2 0x3D1 JUMP JUMPDEST POP POP JUMP JUMPDEST PUSH1 0x1F DUP3 GT ISZERO PUSH2 0x433 JUMPI PUSH2 0x404 DUP2 PUSH2 0x2D2 JUMP JUMPDEST PUSH2 0x40D DUP5 PUSH2 0x2E4 JUMP JUMPDEST DUP2 ADD PUSH1 0x20 DUP6 LT ISZERO PUSH2 0x41C JUMPI DUP2 SWAP1 POP JUMPDEST PUSH2 0x430 PUSH2 0x428 DUP6 PUSH2 0x2E4 JUMP JUMPDEST DUP4 ADD DUP3 PUSH2 0x3D0 JUMP JUMPDEST POP POP JUMPDEST POP POP POP JUMP JUMPDEST PUSH0 DUP3 DUP3 SHR SWAP1 POP SWAP3 SWAP2 POP POP JUMP JUMPDEST PUSH0 PUSH2 0x453 PUSH0 NOT DUP5 PUSH1 0x8 MUL PUSH2 0x438 JUMP JUMPDEST NOT DUP1 DUP4 AND SWAP2 POP POP SWAP3 SWAP2 POP POP JUMP JUMPDEST PUSH0 PUSH2 0x46B DUP4 DUP4 PUSH2 0x444 JUMP JUMPDEST SWAP2 POP DUP3 PUSH1 0x2 MUL DUP3 OR SWAP1 POP SWAP3 SWAP2 POP POP JUMP JUMPDEST PUSH2 0x484 DUP3 PUSH2 0x26B JUMP JUMPDEST PUSH8 0xFFFFFFFFFFFFFFFF DUP2 GT ISZERO PUSH2 0x49D JUMPI PUSH2 0x49C PUSH2 0xD1 JUMP JUMPDEST JUMPDEST PUSH2 0x4A7 DUP3 SLOAD PUSH2 0x2A2 JUMP JUMPDEST PUSH2 0x4B2 DUP3 DUP3 DUP6 PUSH2 0x3F2 JUMP JUMPDEST PUSH0 PUSH1 0x20 SWAP1 POP PUSH1 0x1F DUP4 GT PUSH1 0x1 DUP2 EQ PUSH2 0x4E3 JUMPI PUSH0 DUP5 ISZERO PUSH2 0x4D1 JUMPI DUP3 DUP8 ADD MLOAD SWAP1 POP JUMPDEST PUSH2 0x4DB DUP6 DUP3 PUSH2 0x460 JUMP JUMPDEST DUP7 SSTORE POP PUSH2 0x542 JUMP JUMPDEST PUSH1 0x1F NOT DUP5 AND PUSH2 0x4F1 DUP7 PUSH2 0x2D2 JUMP JUMPDEST PUSH0 JUMPDEST DUP3 DUP2 LT ISZERO PUSH2 0x518 JUMPI DUP5 DUP10 ADD MLOAD DUP3 SSTORE PUSH1 0x1 DUP3 ADD SWAP2 POP PUSH1 0x20 DUP6 ADD SWAP5 POP PUSH1 0x20 DUP2 ADD SWAP1 POP PUSH2 0x4F3 JUMP JUMPDEST DUP7 DUP4 LT ISZERO PUSH2 0x535 JUMPI DUP5 DUP10 ADD MLOAD PUSH2 0x531 PUSH1 0x1F DUP10 AND DUP3 PUSH2 0x444 JUMP JUMPDEST DUP4 SSTORE POP JUMPDEST PUSH1 0x1 PUSH1 0x2 DUP9 MUL ADD DUP9 SSTORE POP POP POP JUMPDEST POP POP POP POP POP POP JUMP JUMPDEST PUSH2 0x2A37 DUP1 PUSH2 0x557 PUSH0 CODECOPY PUSH0 RETURN INVALID PUSH1 0x80 PUSH1 0x40 MSTORE PUSH1 0x4 CALLDATASIZE LT PUSH2 0x134 JUMPI PUSH0 CALLDATALOAD PUSH1 0xE0 SHR DUP1 PUSH4 0x70A08231 GT PUSH2 0xAA JUMPI DUP1 PUSH4 0xC87B56DD GT PUSH2 0x6E JUMPI DUP1 PUSH4 0xC87B56DD EQ PUSH2 0x400 JUMPI DUP1 PUSH4 0xD0DEF521 EQ PUSH2 0x43C JUMPI DUP1 PUSH4 0xD5ABEB01 EQ PUSH2 0x458 JUMPI DUP1 PUSH4 0xE985E9C5 EQ PUSH2 0x482 JUMPI DUP1 PUSH4 0xF2FDE38B EQ PUSH2 0x4BE JUMPI DUP1 PUSH4 0xF4A0A528 EQ PUSH2 0x4E6 JUMPI PUSH2 0x134 JUMP JUMPDEST DUP1 PUSH4 0x70A08231 EQ PUSH2 0x320 JUMPI DUP1 PUSH4 0x8DA5CB5B EQ PUSH2 0x35C JUMPI DUP1 PUSH4 0x95D89B41 EQ PUSH2 0x386 JUMPI DUP1 PUSH4 0xA22CB465 EQ PUSH2 0x3B0 JUMPI DUP1 PUSH4 0xB88D4FDE EQ PUSH2 0x3D8 JUMPI PUSH2 0x134 JUMP JUMPDEST DUP1 PUSH4 0x23B872DD GT PUSH2 0xFC JUMPI DUP1 PUSH4 0x23B872DD EQ PUSH2 0x22C JUMPI DUP1 PUSH4 0x3CCFD60B EQ PUSH2 0x254 JUMPI DUP1 PUSH4 0x41D5B803 EQ PUSH2 0x26A JUMPI DUP1 PUSH4 0x42842E0E EQ PUSH2 0x292 JUMPI DUP1 PUSH4 0x6352211E EQ PUSH2 0x2BA JUMPI DUP1 PUSH4 0x6817C76C EQ PUSH2 0x2F6 JUMPI PUSH2 0x134 JUMP JUMPDEST DUP1 PUSH4 0x1FFC9A7 EQ PUSH2 0x138 JUMPI DUP1 PUSH4 0x6FDDE03 EQ PUSH2 0x174 JUMPI DUP1 PUSH4 0x81812FC EQ PUSH2 0x19E JUMPI DUP1 PUSH4 0x95EA7B3 EQ PUSH2 0x1DA JUMPI DUP1 PUSH4 0x18160DDD EQ PUSH2 0x202 JUMPI JUMPDEST PUSH0 PUSH0 REVERT JUMPDEST CALLVALUE DUP1 ISZERO PUSH2 0x143 JUMPI PUSH0 PUSH0 REVERT JUMPDEST POP PUSH2 0x15E PUSH1 0x4 DUP1 CALLDATASIZE SUB DUP2 ADD SWAP1 PUSH2 0x159 SWAP2 SWAP1 PUSH2 0x1BB6 JUMP JUMPDEST PUSH2 0x50E JUMP JUMPDEST PUSH1 0x40 MLOAD PUSH2 0x16B SWAP2 SWAP1 PUSH2 0x1BFB JUMP JUMPDEST PUSH1 0x40 MLOAD DUP1 SWAP2 SUB SWAP1 RETURN JUMPDEST CALLVALUE DUP1 ISZERO PUSH2 0x17F JUMPI PUSH0 PUSH0 REVERT JUMPDEST POP PUSH2 0x188 PUSH2 0x59F JUMP JUMPDEST PUSH1 0x40 MLOAD PUSH2 0x195 SWAP2 SWAP1 PUSH2 0x1C84 JUMP JUMPDEST PUSH1 0x40 MLOAD DUP1 SWAP2 SUB SWAP1 RETURN JUMPDEST CALLVALUE DUP1 ISZERO PUSH2 0x1A9 JUMPI PUSH0 PUSH0 REVERT JUMPDEST POP PUSH2 0x1C4 PUSH1 0x4 DUP1 CALLDATASIZE SUB DUP2 ADD SWAP1 PUSH2 0x1BF SWAP2 SWAP1 PUSH2 0x1CD7 JUMP JUMPDEST PUSH2 0x62A JUMP JUMPDEST PUSH1 0x40 MLOAD PUSH2 0x1D1 SWAP2 SWAP1 PUSH2 0x1D41 JUMP JUMPDEST PUSH1 0x40 MLOAD DUP1 SWAP2 SUB SWAP1 RETURN JUMPDEST CALLVALUE DUP1 ISZERO PUSH2 0x1E5 JUMPI PUSH0 PUSH0 REVERT JUMPDEST POP PUSH2 0x200 PUSH1 0x4 DUP1 CALLDATASIZE SUB DUP2 ADD SWAP1 PUSH2 0x1FB SWAP2 SWAP1 PUSH2 0x1D84 JUMP JUMPDEST PUSH2 0x703 JUMP JUMPDEST STOP JUMPDEST CALLVALUE DUP1 ISZERO PUSH2 0x20D JUMPI PUSH0 PUSH0 REVERT JUMPDEST POP PUSH2 0x216 PUSH2 0x980 JUMP JUMPDEST PUSH1 0x40 MLOAD PUSH2 0x223 SWAP2 SWAP1 PUSH2 0x1DD1 JUMP JUMPDEST PUSH1 0x40 MLOAD DUP1 SWAP2 SUB SWAP1 RETURN JUMPDEST CALLVALUE DUP1 ISZERO PUSH2 0x237 JUMPI PUSH0 PUSH0 REVERT JUMPDEST POP PUSH2 0x252 PUSH1 0x4 DUP1 CALLDATASIZE SUB DUP2 ADD SWAP1 PUSH2 0x24D SWAP2 SWAP1 PUSH2 0x1DEA JUMP JUMPDEST PUSH2 0x989 JUMP JUMPDEST STOP JUMPDEST CALLVALUE DUP1 ISZERO PUSH2 0x25F JUMPI PUSH0 PUSH0 REVERT JUMPDEST POP PUSH2 0x268 PUSH2 0xE1B JUMP JUMPDEST STOP JUMPDEST CALLVALUE DUP1 ISZERO PUSH2 0x275 JUMPI PUSH0 PUSH0 REVERT JUMPDEST POP PUSH2 0x290 PUSH1 0x4 DUP1 CALLDATASIZE SUB DUP2 ADD SWAP1 PUSH2 0x28B SWAP2 SWAP1 PUSH2 0x1F66 JUMP JUMPDEST PUSH2 0xF58 JUMP JUMPDEST STOP JUMPDEST CALLVALUE DUP1 ISZERO PUSH2 0x29D JUMPI PUSH0 PUSH0 REVERT JUMPDEST POP PUSH2 0x2B8 PUSH1 0x4 DUP1 CALLDATASIZE SUB DUP2 ADD SWAP1 PUSH2 0x2B3 SWAP2 SWAP1 PUSH2 0x1DEA JUMP JUMPDEST PUSH2 0x103B JUMP JUMPDEST STOP JUMPDEST CALLVALUE DUP1 ISZERO PUSH2 0x2C5 JUMPI PUSH0 PUSH0 REVERT JUMPDEST POP PUSH2 0x2E0 PUSH1 0x4 DUP1 CALLDATASIZE SUB DUP2 ADD SWAP1 PUSH2 0x2DB SWAP2 SWAP1 PUSH2 0x1CD7 JUMP JUMPDEST PUSH2 0x105A JUMP JUMPDEST PUSH1 0x40 MLOAD PUSH2 0x2ED SWAP2 SWAP1 PUSH2 0x1D41 JUMP JUMPDEST PUSH1 0x40 MLOAD DUP1 SWAP2 SUB SWAP1 RETURN JUMPDEST CALLVALUE DUP1 ISZERO PUSH2 0x301 JUMPI PUSH0 PUSH0 REVERT JUMPDEST POP PUSH2 0x30A PUSH2 0x1133 JUMP JUMPDEST PUSH1 0x40 MLOAD PUSH2 0x317 SWAP2 SWAP1 PUSH2 0x1DD1 JUMP JUMPDEST PUSH1 0x40 MLOAD DUP1 SWAP2 SUB SWAP1 RETURN JUMPDEST CALLVALUE DUP1 ISZERO PUSH2 0x32B JUMPI PUSH0 PUSH0 REVERT JUMPDEST POP PUSH2 0x346 PUSH1 0x4 DUP1 CALLDATASIZE SUB DUP2 ADD SWAP1 PUSH2 0x341 SWAP2 SWAP1 PUSH2 0x1FC0 JUMP JUMPDEST PUSH2 0x1139 JUMP JUMPDEST PUSH1 0x40 MLOAD PUSH2 0x353 SWAP2 SWAP1 PUSH2 0x1DD1 JUMP JUMPDEST PUSH1 0x40 MLOAD DUP1 SWAP2 SUB SWAP1 RETURN JUMPDEST CALLVALUE DUP1 ISZERO PUSH2 0x367 JUMPI PUSH0 PUSH0 REVERT JUMPDEST POP PUSH2 0x370 PUSH2 0x11ED JUMP JUMPDEST PUSH1 0x40 MLOAD PUSH2 0x37D SWAP2 SWAP1 PUSH2 0x1D41 JUMP JUMPDEST PUSH1 0x40 MLOAD DUP1 SWAP2 SUB SWAP1 RETURN JUMPDEST CALLVALUE DUP1 ISZERO PUSH2 0x391 JUMPI PUSH0 PUSH0 REVERT JUMPDEST POP PUSH2 0x39A PUSH2 0x1212 JUMP JUMPDEST PUSH1 0x40 MLOAD PUSH2 0x3A7 SWAP2 SWAP1 PUSH2 0x1C84 JUMP JUMPDEST PUSH1 0x40 MLOAD DUP1 SWAP2 SUB SWAP1 RETURN JUMPDEST CALLVALUE DUP1 ISZERO PUSH2 0x3BB JUMPI PUSH0 PUSH0 REVERT JUMPDEST POP PUSH2 0x3D6 PUSH1 0x4 DUP1 CALLDATASIZE SUB DUP2 ADD SWAP1 PUSH2 0x3D1 SWAP2 SWAP1 PUSH2 0x2015 JUMP JUMPDEST PUSH2 0x129E JUMP JUMPDEST STOP JUMPDEST CALLVALUE DUP1 ISZERO PUSH2 0x3E3 JUMPI PUSH0 PUSH0 REVERT JUMPDEST POP PUSH2 0x3FE PUSH1 0x4 DUP1 CALLDATASIZE SUB DUP2 ADD SWAP1 PUSH2 0x3F9 SWAP2 SWAP1 PUSH2 0x20F1 JUMP JUMPDEST PUSH2 0x1404 JUMP JUMPDEST STOP JUMPDEST CALLVALUE DUP1 ISZERO PUSH2 0x40B JUMPI PUSH0 PUSH0 REVERT JUMPDEST POP PUSH2 0x426 PUSH1 0x4 DUP1 CALLDATASIZE SUB DUP2 ADD SWAP1 PUSH2 0x421 SWAP2 SWAP1 PUSH2 0x1CD7 JUMP JUMPDEST PUSH2 0x1460 JUMP JUMPDEST PUSH1 0x40 MLOAD PUSH2 0x433 SWAP2 SWAP1 PUSH2 0x1C84 JUMP JUMPDEST PUSH1 0x40 MLOAD DUP1 SWAP2 SUB SWAP1 RETURN JUMPDEST PUSH2 0x456 PUSH1 0x4 DUP1 CALLDATASIZE SUB DUP2 ADD SWAP1 PUSH2 0x451 SWAP2 SWAP1 PUSH2 0x1F66 JUMP JUMPDEST PUSH2 0x15A1 JUMP JUMPDEST STOP JUMPDEST CALLVALUE DUP1 ISZERO PUSH2 0x463 JUMPI PUSH0 PUSH0 REVERT JUMPDEST POP PUSH2 0x46C PUSH2 0x163A JUMP JUMPDEST PUSH1 0x40 MLOAD PUSH2 0x479 SWAP2 SWAP1 PUSH2 0x1DD1 JUMP JUMPDEST PUSH1 0x40 MLOAD DUP1 SWAP2 SUB SWAP1 RETURN JUMPDEST CALLVALUE DUP1 ISZERO PUSH2 0x48D JUMPI PUSH0 PUSH0 REVERT JUMPDEST POP PUSH2 0x4A8 PUSH1 0x4 DUP1 CALLDATASIZE SUB DUP2 ADD SWAP1 PUSH2 0x4A3 SWAP2 SWAP1 PUSH2 0x2171 JUMP JUMPDEST PUSH2 0x1640 JUMP JUMPDEST PUSH1 0x40 MLOAD PUSH2 0x4B5 SWAP2 SWAP1 PUSH2 0x1BFB JUMP JUMPDEST PUSH1 0x40 MLOAD DUP1 SWAP2 SUB SWAP1 RETURN JUMPDEST CALLVALUE DUP1 ISZERO PUSH2 0x4C9 JUMPI PUSH0 PUSH0 REVERT JUMPDEST POP PUSH2 0x4E4 PUSH1 0x4 DUP1 CALLDATASIZE SUB DUP2 ADD SWAP1 PUSH2 0x4DF SWAP2 SWAP1 PUSH2 0x1FC0 JUMP JUMPDEST PUSH2 0x16CE JUMP JUMPDEST STOP JUMPDEST CALLVALUE DUP1 ISZERO PUSH2 0x4F1 JUMPI PUSH0 PUSH0 REVERT JUMPDEST POP PUSH2 0x50C PUSH1 0x4 DUP1 CALLDATASIZE SUB DUP2 ADD SWAP1 PUSH2 0x507 SWAP2 SWAP1 PUSH2 0x1CD7 JUMP JUMPDEST PUSH2 0x180E JUMP JUMPDEST STOP JUMPDEST PUSH0 PUSH4 0x80AC58CD PUSH1 0xE0 SHL DUP3 PUSH28 0xFFFFFFFFFFFFFFFFFFFFFFFFFFFFFFFFFFFFFFFFFFFFFFFFFFFFFFFF NOT AND EQ DUP1 PUSH2 0x568 JUMPI POP PUSH4 0x5B5E139F PUSH1 0xE0 SHL DUP3 PUSH28 0xFFFFFFFFFFFFFFFFFFFFFFFFFFFFFFFFFFFFFFFFFFFFFFFFFFFFFFFF NOT AND EQ JUMPDEST DUP1 PUSH2 0x598 JUMPI POP PUSH4 0x1FFC9A7 PUSH1 0xE0 SHL DUP3 PUSH28 0xFFFFFFFFFFFFFFFFFFFFFFFFFFFFFFFFFFFFFFFFFFFFFFFFFFFFFFFF NOT AND EQ JUMPDEST SWAP1 POP SWAP2 SWAP1 POP JUMP JUMPDEST PUSH0 DUP1 SLOAD PUSH2 0x5AB SWAP1 PUSH2 0x21DC JUMP JUMPDEST DUP1 PUSH1 0x1F ADD PUSH1 0x20 DUP1 SWAP2 DIV MUL PUSH1 0x20 ADD PUSH1 0x40 MLOAD SWAP1 DUP2 ADD PUSH1 0x40 MSTORE DUP1 SWAP3 SWAP2 SWAP1 DUP2 DUP2 MSTORE PUSH1 0x20 ADD DUP3 DUP1 SLOAD PUSH2 0x5D7 SWAP1 PUSH2 0x21DC JUMP JUMPDEST DUP1 ISZERO PUSH2 0x622 JUMPI DUP1 PUSH1 0x1F LT PUSH2 0x5F9 JUMPI PUSH2 0x100 DUP1 DUP4 SLOAD DIV MUL DUP4 MSTORE SWAP2 PUSH1 0x20 ADD SWAP2 PUSH2 0x622 JUMP JUMPDEST DUP3 ADD SWAP2 SWAP1 PUSH0 MSTORE PUSH1 0x20 PUSH0 KECCAK256 SWAP1 JUMPDEST DUP2 SLOAD DUP2 MSTORE SWAP1 PUSH1 0x1 ADD SWAP1 PUSH1 0x20 ADD DUP1 DUP4 GT PUSH2 0x605 JUMPI DUP3 SWAP1 SUB PUSH1 0x1F AND DUP3 ADD SWAP2 JUMPDEST POP POP POP POP POP DUP2 JUMP JUMPDEST PUSH0 DUP2 PUSH0 PUSH20 0xFFFFFFFFFFFFFFFFFFFFFFFFFFFFFFFFFFFFFFFF AND PUSH1 0x6 PUSH0 DUP4 DUP2 MSTORE PUSH1 0x20 ADD SWAP1 DUP2 MSTORE PUSH1 0x20 ADD PUSH0 KECCAK256 PUSH0 SWAP1 SLOAD SWAP1 PUSH2 0x100 EXP SWAP1 DIV PUSH20 0xFFFFFFFFFFFFFFFFFFFFFFFFFFFFFFFFFFFFFFFF AND PUSH20 0xFFFFFFFFFFFFFFFFFFFFFFFFFFFFFFFFFFFFFFFF AND SUB PUSH2 0x6CA JUMPI PUSH1 0x40 MLOAD PUSH32 0x8C379A000000000000000000000000000000000000000000000000000000000 DUP2 MSTORE PUSH1 0x4 ADD PUSH2 0x6C1 SWAP1 PUSH2 0x2256 JUMP JUMPDEST PUSH1 0x40 MLOAD DUP1 SWAP2 SUB SWAP1 REVERT JUMPDEST PUSH1 0x8 PUSH0 DUP5 DUP2 MSTORE PUSH1 0x20 ADD SWAP1 DUP2 MSTORE PUSH1 0x20 ADD PUSH0 KECCAK256 PUSH0 SWAP1 SLOAD SWAP1 PUSH2 0x100 EXP SWAP1 DIV PUSH20 0xFFFFFFFFFFFFFFFFFFFFFFFFFFFFFFFFFFFFFFFF AND SWAP2 POP POP SWAP2 SWAP1 POP JUMP JUMPDEST DUP1 PUSH0 PUSH20 0xFFFFFFFFFFFFFFFFFFFFFFFFFFFFFFFFFFFFFFFF AND PUSH1 0x6 PUSH0 DUP4 DUP2 MSTORE PUSH1 0x20 ADD SWAP1 DUP2 MSTORE PUSH1 0x20 ADD PUSH0 KECCAK256 PUSH0 SWAP1 SLOAD SWAP1 PUSH2 0x100 EXP SWAP1 DIV PUSH20 0xFFFFFFFFFFFFFFFFFFFFFFFFFFFFFFFFFFFFFFFF AND PUSH20 0xFFFFFFFFFFFFFFFFFFFFFFFFFFFFFFFFFFFFFFFF AND SUB PUSH2 0x7A2 JUMPI PUSH1 0x40 MLOAD PUSH32 0x8C379A000000000000000000000000000000000000000000000000000000000 DUP2 MSTORE PUSH1 0x4 ADD PUSH2 0x799 SWAP1 PUSH2 0x2256 JUMP JUMPDEST PUSH1 0x40 MLOAD DUP1 SWAP2 SUB SWAP1 REVERT JUMPDEST PUSH0 PUSH1 0x6 PUSH0 DUP5 DUP2 MSTORE PUSH1 0x20 ADD SWAP1 DUP2 MSTORE PUSH1 0x20 ADD PUSH0 KECCAK256 PUSH0 SWAP1 SLOAD SWAP1 PUSH2 0x100 EXP SWAP1 DIV PUSH20 0xFFFFFFFFFFFFFFFFFFFFFFFFFFFFFFFFFFFFFFFF AND SWAP1 POP DUP1 PUSH20 0xFFFFFFFFFFFFFFFFFFFFFFFFFFFFFFFFFFFFFFFF AND CALLER PUSH20 0xFFFFFFFFFFFFFFFFFFFFFFFFFFFFFFFFFFFFFFFF AND EQ DUP1 PUSH2 0x891 JUMPI POP PUSH1 0x9 PUSH0 DUP3 PUSH20 0xFFFFFFFFFFFFFFFFFFFFFFFFFFFFFFFFFFFFFFFF AND PUSH20 0xFFFFFFFFFFFFFFFFFFFFFFFFFFFFFFFFFFFFFFFF AND DUP2 MSTORE PUSH1 0x20 ADD SWAP1 DUP2 MSTORE PUSH1 0x20 ADD PUSH0 KECCAK256 PUSH0 CALLER PUSH20 0xFFFFFFFFFFFFFFFFFFFFFFFFFFFFFFFFFFFFFFFF AND PUSH20 0xFFFFFFFFFFFFFFFFFFFFFFFFFFFFFFFFFFFFFFFF AND DUP2 MSTORE PUSH1 0x20 ADD SWAP1 DUP2 MSTORE PUSH1 0x20 ADD PUSH0 KECCAK256 PUSH0 SWAP1 SLOAD SWAP1 PUSH2 0x100 EXP SWAP1 DIV PUSH1 0xFF AND JUMPDEST PUSH2 0x8D0 JUMPI PUSH1 0x40 MLOAD PUSH32 0x8C379A000000000000000000000000000000000000000000000000000000000 DUP2 MSTORE PUSH1 0x4 ADD PUSH2 0x8C7 SWAP1 PUSH2 0x22BE JUMP JUMPDEST PUSH1 0x40 MLOAD DUP1 SWAP2 SUB SWAP1 REVERT JUMPDEST DUP4 PUSH1 0x8 PUSH0 DUP6 DUP2 MSTORE PUSH1 0x20 ADD SWAP1 DUP2 MSTORE PUSH1 0x20 ADD PUSH0 KECCAK256 PUSH0 PUSH2 0x100 EXP DUP2 SLOAD DUP2 PUSH20 0xFFFFFFFFFFFFFFFFFFFFFFFFFFFFFFFFFFFFFFFF MUL NOT AND SWAP1 DUP4 PUSH20 0xFFFFFFFFFFFFFFFFFFFFFFFFFFFFFFFFFFFFFFFF AND MUL OR SWAP1 SSTORE POP DUP3 DUP5 PUSH20 0xFFFFFFFFFFFFFFFFFFFFFFFFFFFFFFFFFFFFFFFF AND DUP3 PUSH20 0xFFFFFFFFFFFFFFFFFFFFFFFFFFFFFFFFFFFFFFFF AND PUSH32 0x8C5BE1E5EBEC7D5BD14F71427D1E84F3DD0314C0F7B2291E5B200AC8C7C3B925 PUSH1 0x40 MLOAD PUSH1 0x40 MLOAD DUP1 SWAP2 SUB SWAP1 LOG4 POP POP POP POP JUMP JUMPDEST PUSH0 PUSH1 0x3 SLOAD SWAP1 POP SWAP1 JUMP JUMPDEST DUP1 PUSH0 PUSH20 0xFFFFFFFFFFFFFFFFFFFFFFFFFFFFFFFFFFFFFFFF AND PUSH1 0x6 PUSH0 DUP4 DUP2 MSTORE PUSH1 0x20 ADD SWAP1 DUP2 MSTORE PUSH1 0x20 ADD PUSH0 KECCAK256 PUSH0 SWAP1 SLOAD SWAP1 PUSH2 0x100 EXP SWAP1 DIV PUSH20 0xFFFFFFFFFFFFFFFFFFFFFFFFFFFFFFFFFFFFFFFF AND PUSH20 0xFFFFFFFFFFFFFFFFFFFFFFFFFFFFFFFFFFFFFFFF AND SUB PUSH2 0xA28 JUMPI PUSH1 0x40 MLOAD PUSH32 0x8C379A000000000000000000000000000000000000000000000000000000000 DUP2 MSTORE PUSH1 0x4 ADD PUSH2 0xA1F SWAP1 PUSH2 0x2256 JUMP JUMPDEST PUSH1 0x40 MLOAD DUP1 SWAP2 SUB SWAP1 REVERT JUMPDEST PUSH1 0x6 PUSH0 DUP4 DUP2 MSTORE PUSH1 0x20 ADD SWAP1 DUP2 MSTORE PUSH1 0x20 ADD PUSH0 KECCAK256 PUSH0 SWAP1 SLOAD SWAP1 PUSH2 0x100 EXP SWAP1 DIV PUSH20 0xFFFFFFFFFFFFFFFFFFFFFFFFFFFFFFFFFFFFFFFF AND PUSH20 0xFFFFFFFFFFFFFFFFFFFFFFFFFFFFFFFFFFFFFFFF AND DUP5 PUSH20 0xFFFFFFFFFFFFFFFFFFFFFFFFFFFFFFFFFFFFFFFF AND EQ PUSH2 0xAC6 JUMPI PUSH1 0x40 MLOAD PUSH32 0x8C379A000000000000000000000000000000000000000000000000000000000 DUP2 MSTORE PUSH1 0x4 ADD PUSH2 0xABD SWAP1 PUSH2 0x2326 JUMP JUMPDEST PUSH1 0x40 MLOAD DUP1 SWAP2 SUB SWAP1 REVERT JUMPDEST PUSH0 PUSH20 0xFFFFFFFFFFFFFFFFFFFFFFFFFFFFFFFFFFFFFFFF AND DUP4 PUSH20 0xFFFFFFFFFFFFFFFFFFFFFFFFFFFFFFFFFFFFFFFF AND SUB PUSH2 0xB34 JUMPI PUSH1 0x40 MLOAD PUSH32 0x8C379A000000000000000000000000000000000000000000000000000000000 DUP2 MSTORE PUSH1 0x4 ADD PUSH2 0xB2B SWAP1 PUSH2 0x238E JUMP JUMPDEST PUSH1 0x40 MLOAD DUP1 SWAP2 SUB SWAP1 REVERT JUMPDEST DUP4 PUSH20 0xFFFFFFFFFFFFFFFFFFFFFFFFFFFFFFFFFFFFFFFF AND CALLER PUSH20 0xFFFFFFFFFFFFFFFFFFFFFFFFFFFFFFFFFFFFFFFF AND EQ DUP1 PUSH2 0xBC9 JUMPI POP PUSH1 0x8 PUSH0 DUP4 DUP2 MSTORE PUSH1 0x20 ADD SWAP1 DUP2 MSTORE PUSH1 0x20 ADD PUSH0 KECCAK256 PUSH0 SWAP1 SLOAD SWAP1 PUSH2 0x100 EXP SWAP1 DIV PUSH20 0xFFFFFFFFFFFFFFFFFFFFFFFFFFFFFFFFFFFFFFFF AND PUSH20 0xFFFFFFFFFFFFFFFFFFFFFFFFFFFFFFFFFFFFFFFF AND CALLER PUSH20 0xFFFFFFFFFFFFFFFFFFFFFFFFFFFFFFFFFFFFFFFF AND EQ JUMPDEST DUP1 PUSH2 0xC55 JUMPI POP PUSH1 0x9 PUSH0 DUP6 PUSH20 0xFFFFFFFFFFFFFFFFFFFFFFFFFFFFFFFFFFFFFFFF AND PUSH20 0xFFFFFFFFFFFFFFFFFFFFFFFFFFFFFFFFFFFFFFFF AND DUP2 MSTORE PUSH1 0x20 ADD SWAP1 DUP2 MSTORE PUSH1 0x20 ADD PUSH0 KECCAK256 PUSH0 CALLER PUSH20 0xFFFFFFFFFFFFFFFFFFFFFFFFFFFFFFFFFFFFFFFF AND PUSH20 0xFFFFFFFFFFFFFFFFFFFFFFFFFFFFFFFFFFFFFFFF AND DUP2 MSTORE PUSH1 0x20 ADD SWAP1 DUP2 MSTORE PUSH1 0x20 ADD PUSH0 KECCAK256 PUSH0 SWAP1 SLOAD SWAP1 PUSH2 0x100 EXP SWAP1 DIV PUSH1 0xFF AND JUMPDEST PUSH2 0xC94 JUMPI PUSH1 0x40 MLOAD PUSH32 0x8C379A000000000000000000000000000000000000000000000000000000000 DUP2 MSTORE PUSH1 0x4 ADD PUSH2 0xC8B SWAP1 PUSH2 0x22BE JUMP JUMPDEST PUSH1 0x40 MLOAD DUP1 SWAP2 SUB SWAP1 REVERT JUMPDEST PUSH1 0x7 PUSH0 DUP6 PUSH20 0xFFFFFFFFFFFFFFFFFFFFFFFFFFFFFFFFFFFFFFFF AND PUSH20 0xFFFFFFFFFFFFFFFFFFFFFFFFFFFFFFFFFFFFFFFF AND DUP2 MSTORE PUSH1 0x20 ADD SWAP1 DUP2 MSTORE PUSH1 0x20 ADD PUSH0 KECCAK256 PUSH0 DUP2 SLOAD DUP1 SWAP3 SWAP2 SWAP1 PUSH2 0xCE1 SWAP1 PUSH2 0x23D9 JUMP JUMPDEST SWAP2 SWAP1 POP SSTORE POP PUSH1 0x7 PUSH0 DUP5 PUSH20 0xFFFFFFFFFFFFFFFFFFFFFFFFFFFFFFFFFFFFFFFF AND PUSH20 0xFFFFFFFFFFFFFFFFFFFFFFFFFFFFFFFFFFFFFFFF AND DUP2 MSTORE PUSH1 0x20 ADD SWAP1 DUP2 MSTORE PUSH1 0x20 ADD PUSH0 KECCAK256 PUSH0 DUP2 SLOAD DUP1 SWAP3 SWAP2 SWAP1 PUSH2 0xD33 SWAP1 PUSH2 0x2400 JUMP JUMPDEST SWAP2 SWAP1 POP SSTORE POP DUP3 PUSH1 0x6 PUSH0 DUP5 DUP2 MSTORE PUSH1 0x20 ADD SWAP1 DUP2 MSTORE PUSH1 0x20 ADD PUSH0 KECCAK256 PUSH0 PUSH2 0x100 EXP DUP2 SLOAD DUP2 PUSH20 0xFFFFFFFFFFFFFFFFFFFFFFFFFFFFFFFFFFFFFFFF MUL NOT AND SWAP1 DUP4 PUSH20 0xFFFFFFFFFFFFFFFFFFFFFFFFFFFFFFFFFFFFFFFF AND MUL OR SWAP1 SSTORE POP PUSH1 0x8 PUSH0 DUP4 DUP2 MSTORE PUSH1 0x20 ADD SWAP1 DUP2 MSTORE PUSH1 0x20 ADD PUSH0 KECCAK256 PUSH0 PUSH2 0x100 EXP DUP2 SLOAD SWAP1 PUSH20 0xFFFFFFFFFFFFFFFFFFFFFFFFFFFFFFFFFFFFFFFF MUL NOT AND SWAP1 SSTORE DUP2 DUP4 PUSH20 0xFFFFFFFFFFFFFFFFFFFFFFFFFFFFFFFFFFFFFFFF AND DUP6 PUSH20 0xFFFFFFFFFFFFFFFFFFFFFFFFFFFFFFFFFFFFFFFF AND PUSH32 0xDDF252AD1BE2C89B69C2B068FC378DAA952BA7F163C4A11628F55A4DF523B3EF PUSH1 0x40 MLOAD PUSH1 0x40 MLOAD DUP1 SWAP2 SUB SWAP1 LOG4 POP POP POP POP JUMP JUMPDEST PUSH1 0x2 PUSH0 SWAP1 SLOAD SWAP1 PUSH2 0x100 EXP SWAP1 DIV PUSH20 0xFFFFFFFFFFFFFFFFFFFFFFFFFFFFFFFFFFFFFFFF AND PUSH20 0xFFFFFFFFFFFFFFFFFFFFFFFFFFFFFFFFFFFFFFFF AND CALLER PUSH20 0xFFFFFFFFFFFFFFFFFFFFFFFFFFFFFFFFFFFFFFFF AND EQ PUSH2 0xEAA JUMPI PUSH1 0x40 MLOAD PUSH32 0x8C379A000000000000000000000000000000000000000000000000000000000 DUP2 MSTORE PUSH1 0x4 ADD PUSH2 0xEA1 SWAP1 PUSH2 0x2491 JUMP JUMPDEST PUSH1 0x40 MLOAD DUP1 SWAP2 SUB SWAP1 REVERT JUMPDEST PUSH0 SELFBALANCE SWAP1 POP PUSH0 DUP2 GT PUSH2 0xEF0 JUMPI PUSH1 0x40 MLOAD PUSH32 0x8C379A000000000000000000000000000000000000000000000000000000000 DUP2 MSTORE PUSH1 0x4 ADD PUSH2 0xEE7 SWAP1 PUSH2 0x24F9 JUMP JUMPDEST PUSH1 0x40 MLOAD DUP1 SWAP2 SUB SWAP1 REVERT JUMPDEST PUSH1 0x2 PUSH0 SWAP1 SLOAD SWAP1 PUSH2 0x100 EXP SWAP1 DIV PUSH20 0xFFFFFFFFFFFFFFFFFFFFFFFFFFFFFFFFFFFFFFFF AND PUSH20 0xFFFFFFFFFFFFFFFFFFFFFFFFFFFFFFFFFFFFFFFF AND PUSH2 0x8FC DUP3 SWAP1 DUP2 ISZERO MUL SWAP1 PUSH1 0x40 MLOAD PUSH0 PUSH1 0x40 MLOAD DUP1 DUP4 SUB DUP2 DUP6 DUP9 DUP9 CALL SWAP4 POP POP POP POP ISZERO DUP1 ISZERO PUSH2 0xF54 JUMPI RETURNDATASIZE PUSH0 PUSH0 RETURNDATACOPY RETURNDATASIZE PUSH0 REVERT JUMPDEST POP POP JUMP JUMPDEST PUSH1 0x2 PUSH0 SWAP1 SLOAD SWAP1 PUSH2 0x100 EXP SWAP1 DIV PUSH20 0xFFFFFFFFFFFFFFFFFFFFFFFFFFFFFFFFFFFFFFFF AND PUSH20 0xFFFFFFFFFFFFFFFFFFFFFFFFFFFFFFFFFFFFFFFF AND CALLER PUSH20 0xFFFFFFFFFFFFFFFFFFFFFFFFFFFFFFFFFFFFFFFF AND EQ PUSH2 0xFE7 JUMPI PUSH1 0x40 MLOAD PUSH32 0x8C379A000000000000000000000000000000000000000000000000000000000 DUP2 MSTORE PUSH1 0x4 ADD PUSH2 0xFDE SWAP1 PUSH2 0x2491 JUMP JUMPDEST PUSH1 0x40 MLOAD DUP1 SWAP2 SUB SWAP1 REVERT JUMPDEST PUSH1 0x5 SLOAD PUSH1 0x3 SLOAD LT PUSH2 0x102D JUMPI PUSH1 0x40 MLOAD PUSH32 0x8C379A000000000000000000000000000000000000000000000000000000000 DUP2 MSTORE PUSH1 0x4 ADD PUSH2 0x1024 SWAP1 PUSH2 0x2561 JUMP JUMPDEST PUSH1 0x40 MLOAD DUP1 SWAP2 SUB SWAP1 REVERT JUMPDEST PUSH2 0x1037 DUP3 DUP3 PUSH2 0x18A7 JUMP JUMPDEST POP POP JUMP JUMPDEST PUSH2 0x1055 DUP4 DUP4 DUP4 PUSH1 0x40 MLOAD DUP1 PUSH1 0x20 ADD PUSH1 0x40 MSTORE DUP1 PUSH0 DUP2 MSTORE POP PUSH2 0x1404 JUMP JUMPDEST POP POP POP JUMP JUMPDEST PUSH0 DUP2 PUSH0 PUSH20 0xFFFFFFFFFFFFFFFFFFFFFFFFFFFFFFFFFFFFFFFF AND PUSH1 0x6 PUSH0 DUP4 DUP2 MSTORE PUSH1 0x20 ADD SWAP1 DUP2 MSTORE PUSH1 0x20 ADD PUSH0 KECCAK256 PUSH0 SWAP1 SLOAD SWAP1 PUSH2 0x100 EXP SWAP1 DIV PUSH20 0xFFFFFFFFFFFFFFFFFFFFFFFFFFFFFFFFFFFFFFFF AND PUSH20 0xFFFFFFFFFFFFFFFFFFFFFFFFFFFFFFFFFFFFFFFF AND SUB PUSH2 0x10FA JUMPI PUSH1 0x40 MLOAD PUSH32 0x8C379A000000000000000000000000000000000000000000000000000000000 DUP2 MSTORE PUSH1 0x4 ADD PUSH2 0x10F1 SWAP1 PUSH2 0x2256 JUMP JUMPDEST PUSH1 0x40 MLOAD DUP1 SWAP2 SUB SWAP1 REVERT JUMPDEST PUSH1 0x6 PUSH0 DUP5 DUP2 MSTORE PUSH1 0x20 ADD SWAP1 DUP2 MSTORE PUSH1 0x20 ADD PUSH0 KECCAK256 PUSH0 SWAP1 SLOAD SWAP1 PUSH2 0x100 EXP SWAP1 DIV PUSH20 0xFFFFFFFFFFFFFFFFFFFFFFFFFFFFFFFFFFFFFFFF AND SWAP2 POP POP SWAP2 SWAP1 POP JUMP JUMPDEST PUSH1 0x4 SLOAD DUP2 JUMP JUMPDEST PUSH0 PUSH0 PUSH20 0xFFFFFFFFFFFFFFFFFFFFFFFFFFFFFFFFFFFFFFFF AND DUP3 PUSH20 0xFFFFFFFFFFFFFFFFFFFFFFFFFFFFFFFFFFFFFFFF AND SUB PUSH2 0x11A8 JUMPI PUSH1 0x40 MLOAD PUSH32 0x8C379A000000000000000000000000000000000000000000000000000000000 DUP2 MSTORE PUSH1 0x4 ADD PUSH2 0x119F SWAP1 PUSH2 0x238E JUMP JUMPDEST PUSH1 0x40 MLOAD DUP1 SWAP2 SUB SWAP1 REVERT JUMPDEST PUSH1 0x7 PUSH0 DUP4 PUSH20 0xFFFFFFFFFFFFFFFFFFFFFFFFFFFFFFFFFFFFFFFF AND PUSH20 0xFFFFFFFFFFFFFFFFFFFFFFFFFFFFFFFFFFFFFFFF AND DUP2 MSTORE PUSH1 0x20 ADD SWAP1 DUP2 MSTORE PUSH1 0x20 ADD PUSH0 KECCAK256 SLOAD SWAP1 POP SWAP2 SWAP1 POP JUMP JUMPDEST PUSH1 0x2 PUSH0 SWAP1 SLOAD SWAP1 PUSH2 0x100 EXP SWAP1 DIV PUSH20 0xFFFFFFFFFFFFFFFFFFFFFFFFFFFFFFFFFFFFFFFF AND DUP2 JUMP JUMPDEST PUSH1 0x1 DUP1 SLOAD PUSH2 0x121F SWAP1 PUSH2 0x21DC JUMP JUMPDEST DUP1 PUSH1 0x1F ADD PUSH1 0x20 DUP1 SWAP2 DIV MUL PUSH1 0x20 ADD PUSH1 0x40 MLOAD SWAP1 DUP2 ADD PUSH1 0x40 MSTORE DUP1 SWAP3 SWAP2 SWAP1 DUP2 DUP2 MSTORE PUSH1 0x20 ADD DUP3 DUP1 SLOAD PUSH2 0x124B SWAP1 PUSH2 0x21DC JUMP JUMPDEST DUP1 ISZERO PUSH2 0x1296 JUMPI DUP1 PUSH1 0x1F LT PUSH2 0x126D JUMPI PUSH2 0x100 DUP1 DUP4 SLOAD DIV MUL DUP4 MSTORE SWAP2 PUSH1 0x20 ADD SWAP2 PUSH2 0x1296 JUMP JUMPDEST DUP3 ADD SWAP2 SWAP1 PUSH0 MSTORE PUSH1 0x20 PUSH0 KECCAK256 SWAP1 JUMPDEST DUP2 SLOAD DUP2 MSTORE SWAP1 PUSH1 0x1 ADD SWAP1 PUSH1 0x20 ADD DUP1 DUP4 GT PUSH2 0x1279 JUMPI DUP3 SWAP1 SUB PUSH1 0x1F AND DUP3 ADD SWAP2 JUMPDEST POP POP POP POP POP DUP2 JUMP JUMPDEST CALLER PUSH20 0xFFFFFFFFFFFFFFFFFFFFFFFFFFFFFFFFFFFFFFFF AND DUP3 PUSH20 0xFFFFFFFFFFFFFFFFFFFFFFFFFFFFFFFFFFFFFFFF AND SUB PUSH2 0x130C JUMPI PUSH1 0x40 MLOAD PUSH32 0x8C379A000000000000000000000000000000000000000000000000000000000 DUP2 MSTORE PUSH1 0x4 ADD PUSH2 0x1303 SWAP1 PUSH2 0x25C9 JUMP JUMPDEST PUSH1 0x40 MLOAD DUP1 SWAP2 SUB SWAP1 REVERT JUMPDEST DUP1 PUSH1 0x9 PUSH0 CALLER PUSH20 0xFFFFFFFFFFFFFFFFFFFFFFFFFFFFFFFFFFFFFFFF AND PUSH20 0xFFFFFFFFFFFFFFFFFFFFFFFFFFFFFFFFFFFFFFFF AND DUP2 MSTORE PUSH1 0x20 ADD SWAP1 DUP2 MSTORE PUSH1 0x20 ADD PUSH0 KECCAK256 PUSH0 DUP5 PUSH20 0xFFFFFFFFFFFFFFFFFFFFFFFFFFFFFFFFFFFFFFFF AND PUSH20 0xFFFFFFFFFFFFFFFFFFFFFFFFFFFFFFFFFFFFFFFF AND DUP2 MSTORE PUSH1 0x20 ADD SWAP1 DUP2 MSTORE PUSH1 0x20 ADD PUSH0 KECCAK256 PUSH0 PUSH2 0x100 EXP DUP2 SLOAD DUP2 PUSH1 0xFF MUL NOT AND SWAP1 DUP4 ISZERO ISZERO MUL OR SWAP1 SSTORE POP DUP2 PUSH20 0xFFFFFFFFFFFFFFFFFFFFFFFFFFFFFFFFFFFFFFFF AND CALLER PUSH20 0xFFFFFFFFFFFFFFFFFFFFFFFFFFFFFFFFFFFFFFFF AND PUSH32 0x17307EAB39AB6107E8899845AD3D59BD9653F200F220920489CA2B5937696C31 DUP4 PUSH1 0x40 MLOAD PUSH2 0x13F8 SWAP2 SWAP1 PUSH2 0x1BFB JUMP JUMPDEST PUSH1 0x40 MLOAD DUP1 SWAP2 SUB SWAP1 LOG3 POP POP JUMP JUMPDEST PUSH2 0x140F DUP5 DUP5 DUP5 PUSH2 0x989 JUMP JUMPDEST PUSH2 0x141B DUP5 DUP5 DUP5 DUP5 PUSH2 0x1A4E JUMP JUMPDEST PUSH2 0x145A JUMPI PUSH1 0x40 MLOAD PUSH32 0x8C379A000000000000000000000000000000000000000000000000000000000 DUP2 MSTORE PUSH1 0x4 ADD PUSH2 0x1451 SWAP1 PUSH2 0x2631 JUMP JUMPDEST PUSH1 0x40 MLOAD DUP1 SWAP2 SUB SWAP1 REVERT JUMPDEST POP POP POP POP JUMP JUMPDEST PUSH1 0x60 DUP2 PUSH0 PUSH20 0xFFFFFFFFFFFFFFFFFFFFFFFFFFFFFFFFFFFFFFFF AND PUSH1 0x6 PUSH0 DUP4 DUP2 MSTORE PUSH1 0x20 ADD SWAP1 DUP2 MSTORE PUSH1 0x20 ADD PUSH0 KECCAK256 PUSH0 SWAP1 SLOAD SWAP1 PUSH2 0x100 EXP SWAP1 DIV PUSH20 0xFFFFFFFFFFFFFFFFFFFFFFFFFFFFFFFFFFFFFFFF AND PUSH20 0xFFFFFFFFFFFFFFFFFFFFFFFFFFFFFFFFFFFFFFFF AND SUB PUSH2 0x1501 JUMPI PUSH1 0x40 MLOAD PUSH32 0x8C379A000000000000000000000000000000000000000000000000000000000 DUP2 MSTORE PUSH1 0x4 ADD PUSH2 0x14F8 SWAP1 PUSH2 0x2256 JUMP JUMPDEST PUSH1 0x40 MLOAD DUP1 SWAP2 SUB SWAP1 REVERT JUMPDEST PUSH1 0xA PUSH0 DUP5 DUP2 MSTORE PUSH1 0x20 ADD SWAP1 DUP2 MSTORE PUSH1 0x20 ADD PUSH0 KECCAK256 DUP1 SLOAD PUSH2 0x151D SWAP1 PUSH2 0x21DC JUMP JUMPDEST DUP1 PUSH1 0x1F ADD PUSH1 0x20 DUP1 SWAP2 DIV MUL PUSH1 0x20 ADD PUSH1 0x40 MLOAD SWAP1 DUP2 ADD PUSH1 0x40 MSTORE DUP1 SWAP3 SWAP2 SWAP1 DUP2 DUP2 MSTORE PUSH1 0x20 ADD DUP3 DUP1 SLOAD PUSH2 0x1549 SWAP1 PUSH2 0x21DC JUMP JUMPDEST DUP1 ISZERO PUSH2 0x1594 JUMPI DUP1 PUSH1 0x1F LT PUSH2 0x156B JUMPI PUSH2 0x100 DUP1 DUP4 SLOAD DIV MUL DUP4 MSTORE SWAP2 PUSH1 0x20 ADD SWAP2 PUSH2 0x1594 JUMP JUMPDEST DUP3 ADD SWAP2 SWAP1 PUSH0 MSTORE PUSH1 0x20 PUSH0 KECCAK256 SWAP1 JUMPDEST DUP2 SLOAD DUP2 MSTORE SWAP1 PUSH1 0x1 ADD SWAP1 PUSH1 0x20 ADD DUP1 DUP4 GT PUSH2 0x1577 JUMPI DUP3 SWAP1 SUB PUSH1 0x1F AND DUP3 ADD SWAP2 JUMPDEST POP POP POP POP POP SWAP2 POP POP SWAP2 SWAP1 POP JUMP JUMPDEST PUSH1 0x4 SLOAD CALLVALUE LT ISZERO PUSH2 0x15E6 JUMPI PUSH1 0x40 MLOAD PUSH32 0x8C379A000000000000000000000000000000000000000000000000000000000 DUP2 MSTORE PUSH1 0x4 ADD PUSH2 0x15DD SWAP1 PUSH2 0x2699 JUMP JUMPDEST PUSH1 0x40 MLOAD DUP1 SWAP2 SUB SWAP1 REVERT JUMPDEST PUSH1 0x5 SLOAD PUSH1 0x3 SLOAD LT PUSH2 0x162C JUMPI PUSH1 0x40 MLOAD PUSH32 0x8C379A000000000000000000000000000000000000000000000000000000000 DUP2 MSTORE PUSH1 0x4 ADD PUSH2 0x1623 SWAP1 PUSH2 0x2561 JUMP JUMPDEST PUSH1 0x40 MLOAD DUP1 SWAP2 SUB SWAP1 REVERT JUMPDEST PUSH2 0x1636 DUP3 DUP3 PUSH2 0x18A7 JUMP JUMPDEST POP POP JUMP JUMPDEST PUSH1 0x5 SLOAD DUP2 JUMP JUMPDEST PUSH0 PUSH1 0x9 PUSH0 DUP5 PUSH20 0xFFFFFFFFFFFFFFFFFFFFFFFFFFFFFFFFFFFFFFFF AND PUSH20 0xFFFFFFFFFFFFFFFFFFFFFFFFFFFFFFFFFFFFFFFF AND DUP2 MSTORE PUSH1 0x20 ADD SWAP1 DUP2 MSTORE PUSH1 0x20 ADD PUSH0 KECCAK256 PUSH0 DUP4 PUSH20 0xFFFFFFFFFFFFFFFFFFFFFFFFFFFFFFFFFFFFFFFF AND PUSH20 0xFFFFFFFFFFFFFFFFFFFFFFFFFFFFFFFFFFFFFFFF AND DUP2 MSTORE PUSH1 0x20 ADD SWAP1 DUP2 MSTORE PUSH1 0x20 ADD PUSH0 KECCAK256 PUSH0 SWAP1 SLOAD SWAP1 PUSH2 0x100 EXP SWAP1 DIV PUSH1 0xFF AND SWAP1 POP SWAP3 SWAP2 POP POP JUMP JUMPDEST PUSH1 0x2 PUSH0 SWAP1 SLOAD SWAP1 PUSH2 0x100 EXP SWAP1 DIV PUSH20 0xFFFFFFFFFFFFFFFFFFFFFFFFFFFFFFFFFFFFFFFF AND PUSH20 0xFFFFFFFFFFFFFFFFFFFFFFFFFFFFFFFFFFFFFFFF AND CALLER PUSH20 0xFFFFFFFFFFFFFFFFFFFFFFFFFFFFFFFFFFFFFFFF AND EQ PUSH2 0x175D JUMPI PUSH1 0x40 MLOAD PUSH32 0x8C379A000000000000000000000000000000000000000000000000000000000 DUP2 MSTORE PUSH1 0x4 ADD PUSH2 0x1754 SWAP1 PUSH2 0x2491 JUMP JUMPDEST PUSH1 0x40 MLOAD DUP1 SWAP2 SUB SWAP1 REVERT JUMPDEST PUSH0 PUSH20 0xFFFFFFFFFFFFFFFFFFFFFFFFFFFFFFFFFFFFFFFF AND DUP2 PUSH20 0xFFFFFFFFFFFFFFFFFFFFFFFFFFFFFFFFFFFFFFFF AND SUB PUSH2 0x17CB JUMPI PUSH1 0x40 MLOAD PUSH32 0x8C379A000000000000000000000000000000000000000000000000000000000 DUP2 MSTORE PUSH1 0x4 ADD PUSH2 0x17C2 SWAP1 PUSH2 0x238E JUMP JUMPDEST PUSH1 0x40 MLOAD DUP1 SWAP2 SUB SWAP1 REVERT JUMPDEST DUP1 PUSH1 0x2 PUSH0 PUSH2 0x100 EXP DUP2 SLOAD DUP2 PUSH20 0xFFFFFFFFFFFFFFFFFFFFFFFFFFFFFFFFFFFFFFFF MUL NOT AND SWAP1 DUP4 PUSH20 0xFFFFFFFFFFFFFFFFFFFFFFFFFFFFFFFFFFFFFFFF AND MUL OR SWAP1 SSTORE POP POP JUMP JUMPDEST PUSH1 0x2 PUSH0 SWAP1 SLOAD SWAP1 PUSH2 0x100 EXP SWAP1 DIV PUSH20 0xFFFFFFFFFFFFFFFFFFFFFFFFFFFFFFFFFFFFFFFF AND PUSH20 0xFFFFFFFFFFFFFFFFFFFFFFFFFFFFFFFFFFFFFFFF AND CALLER PUSH20 0xFFFFFFFFFFFFFFFFFFFFFFFFFFFFFFFFFFFFFFFF AND EQ PUSH2 0x189D JUMPI PUSH1 0x40 MLOAD PUSH32 0x8C379A000000000000000000000000000000000000000000000000000000000 DUP2 MSTORE PUSH1 0x4 ADD PUSH2 0x1894 SWAP1 PUSH2 0x2491 JUMP JUMPDEST PUSH1 0x40 MLOAD DUP1 SWAP2 SUB SWAP1 REVERT JUMPDEST DUP1 PUSH1 0x4 DUP2 SWAP1 SSTORE POP POP JUMP JUMPDEST PUSH0 PUSH20 0xFFFFFFFFFFFFFFFFFFFFFFFFFFFFFFFFFFFFFFFF AND DUP3 PUSH20 0xFFFFFFFFFFFFFFFFFFFFFFFFFFFFFFFFFFFFFFFF AND SUB PUSH2 0x1915 JUMPI PUSH1 0x40 MLOAD PUSH32 0x8C379A000000000000000000000000000000000000000000000000000000000 DUP2 MSTORE PUSH1 0x4 ADD PUSH2 0x190C SWAP1 PUSH2 0x238E JUMP JUMPDEST PUSH1 0x40 MLOAD DUP1 SWAP2 SUB SWAP1 REVERT JUMPDEST PUSH0 PUSH1 0x3 PUSH0 DUP2 SLOAD DUP1 SWAP3 SWAP2 SWAP1 PUSH2 0x1928 SWAP1 PUSH2 0x2400 JUMP JUMPDEST SWAP2 SWAP1 POP SSTORE SWAP1 POP DUP3 PUSH1 0x6 PUSH0 DUP4 DUP2 MSTORE PUSH1 0x20 ADD SWAP1 DUP2 MSTORE PUSH1 0x20 ADD PUSH0 KECCAK256 PUSH0 PUSH2 0x100 EXP DUP2 SLOAD DUP2 PUSH20 0xFFFFFFFFFFFFFFFFFFFFFFFFFFFFFFFFFFFFFFFF MUL NOT AND SWAP1 DUP4 PUSH20 0xFFFFFFFFFFFFFFFFFFFFFFFFFFFFFFFFFFFFFFFF AND MUL OR SWAP1 SSTORE POP PUSH1 0x7 PUSH0 DUP5 PUSH20 0xFFFFFFFFFFFFFFFFFFFFFFFFFFFFFFFFFFFFFFFF AND PUSH20 0xFFFFFFFFFFFFFFFFFFFFFFFFFFFFFFFFFFFFFFFF AND DUP2 MSTORE PUSH1 0x20 ADD SWAP1 DUP2 MSTORE PUSH1 0x20 ADD PUSH0 KECCAK256 PUSH0 DUP2 SLOAD DUP1 SWAP3 SWAP2 SWAP1 PUSH2 0x19CA SWAP1 PUSH2 0x2400 JUMP JUMPDEST SWAP2 SWAP1 POP SSTORE POP DUP2 PUSH1 0xA PUSH0 DUP4 DUP2 MSTORE PUSH1 0x20 ADD SWAP1 DUP2 MSTORE PUSH1 0x20 ADD PUSH0 KECCAK256 SWAP1 DUP2 PUSH2 0x19ED SWAP2 SWAP1 PUSH2 0x2857 JUMP JUMPDEST POP DUP1 DUP4 PUSH20 0xFFFFFFFFFFFFFFFFFFFFFFFFFFFFFFFFFFFFFFFF AND PUSH0 PUSH20 0xFFFFFFFFFFFFFFFFFFFFFFFFFFFFFFFFFFFFFFFF AND PUSH32 0xDDF252AD1BE2C89B69C2B068FC378DAA952BA7F163C4A11628F55A4DF523B3EF PUSH1 0x40 MLOAD PUSH1 0x40 MLOAD DUP1 SWAP2 SUB SWAP1 LOG4 POP POP POP JUMP JUMPDEST PUSH0 PUSH0 DUP5 PUSH20 0xFFFFFFFFFFFFFFFFFFFFFFFFFFFFFFFFFFFFFFFF AND EXTCODESIZE SUB PUSH2 0x1A76 JUMPI PUSH1 0x1 SWAP1 POP PUSH2 0x1B48 JUMP JUMPDEST DUP4 PUSH20 0xFFFFFFFFFFFFFFFFFFFFFFFFFFFFFFFFFFFFFFFF AND PUSH4 0x150B7A02 CALLER DUP8 DUP7 DUP7 PUSH1 0x40 MLOAD DUP6 PUSH4 0xFFFFFFFF AND PUSH1 0xE0 SHL DUP2 MSTORE PUSH1 0x4 ADD PUSH2 0x1AB5 SWAP5 SWAP4 SWAP3 SWAP2 SWAP1 PUSH2 0x2978 JUMP JUMPDEST PUSH1 0x20 PUSH1 0x40 MLOAD DUP1 DUP4 SUB DUP2 PUSH0 DUP8 GAS CALL SWAP3 POP POP POP DUP1 ISZERO PUSH2 0x1AF0 JUMPI POP PUSH1 0x40 MLOAD RETURNDATASIZE PUSH1 0x1F NOT PUSH1 0x1F DUP3 ADD AND DUP3 ADD DUP1 PUSH1 0x40 MSTORE POP DUP2 ADD SWAP1 PUSH2 0x1AED SWAP2 SWAP1 PUSH2 0x29D6 JUMP JUMPDEST PUSH1 0x1 JUMPDEST PUSH2 0x1AFC JUMPI PUSH0 SWAP1 POP PUSH2 0x1B48 JUMP JUMPDEST PUSH4 0x150B7A02 PUSH1 0xE0 SHL PUSH28 0xFFFFFFFFFFFFFFFFFFFFFFFFFFFFFFFFFFFFFFFFFFFFFFFFFFFFFFFF NOT AND DUP2 PUSH28 0xFFFFFFFFFFFFFFFFFFFFFFFFFFFFFFFFFFFFFFFFFFFFFFFFFFFFFFFF NOT AND EQ SWAP2 POP POP JUMPDEST SWAP5 SWAP4 POP POP POP POP JUMP JUMPDEST PUSH0 PUSH1 0x40 MLOAD SWAP1 POP SWAP1 JUMP JUMPDEST PUSH0 PUSH0 REVERT JUMPDEST PUSH0 PUSH0 REVERT JUMPDEST PUSH0 PUSH32 0xFFFFFFFF00000000000000000000000000000000000000000000000000000000 DUP3 AND SWAP1 POP SWAP2 SWAP1 POP JUMP JUMPDEST PUSH2 0x1B95 DUP2 PUSH2 0x1B61 JUMP JUMPDEST DUP2 EQ PUSH2 0x1B9F JUMPI PUSH0 PUSH0 REVERT JUMPDEST POP JUMP JUMPDEST PUSH0 DUP2 CALLDATALOAD SWAP1 POP PUSH2 0x1BB0 DUP2 PUSH2 0x1B8C JUMP JUMPDEST SWAP3 SWAP2 POP POP JUMP JUMPDEST PUSH0 PUSH1 0x20 DUP3 DUP5 SUB SLT ISZERO PUSH2 0x1BCB JUMPI PUSH2 0x1BCA PUSH2 0x1B59 JUMP JUMPDEST JUMPDEST PUSH0 PUSH2 0x1BD8 DUP5 DUP3 DUP6 ADD PUSH2 0x1BA2 JUMP JUMPDEST SWAP2 POP POP SWAP3 SWAP2 POP POP JUMP JUMPDEST PUSH0 DUP2 ISZERO ISZERO SWAP1 POP SWAP2 SWAP1 POP JUMP JUMPDEST PUSH2 0x1BF5 DUP2 PUSH2 0x1BE1 JUMP JUMPDEST DUP3 MSTORE POP POP JUMP JUMPDEST PUSH0 PUSH1 0x20 DUP3 ADD SWAP1 POP PUSH2 0x1C0E PUSH0 DUP4 ADD DUP5 PUSH2 0x1BEC JUMP JUMPDEST SWAP3 SWAP2 POP POP JUMP JUMPDEST PUSH0 DUP2 MLOAD SWAP1 POP SWAP2 SWAP1 POP JUMP JUMPDEST PUSH0 DUP3 DUP3 MSTORE PUSH1 0x20 DUP3 ADD SWAP1 POP SWAP3 SWAP2 POP POP JUMP JUMPDEST DUP3 DUP2 DUP4 MCOPY PUSH0 DUP4 DUP4 ADD MSTORE POP POP POP JUMP JUMPDEST PUSH0 PUSH1 0x1F NOT PUSH1 0x1F DUP4 ADD AND SWAP1 POP SWAP2 SWAP1 POP JUMP JUMPDEST PUSH0 PUSH2 0x1C56 DUP3 PUSH2 0x1C14 JUMP JUMPDEST PUSH2 0x1C60 DUP2 DUP6 PUSH2 0x1C1E JUMP JUMPDEST SWAP4 POP PUSH2 0x1C70 DUP2 DUP6 PUSH1 0x20 DUP7 ADD PUSH2 0x1C2E JUMP JUMPDEST PUSH2 0x1C79 DUP2 PUSH2 0x1C3C JUMP JUMPDEST DUP5 ADD SWAP2 POP POP SWAP3 SWAP2 POP POP JUMP JUMPDEST PUSH0 PUSH1 0x20 DUP3 ADD SWAP1 POP DUP2 DUP2 SUB PUSH0 DUP4 ADD MSTORE PUSH2 0x1C9C DUP2 DUP5 PUSH2 0x1C4C JUMP JUMPDEST SWAP1 POP SWAP3 SWAP2 POP POP JUMP JUMPDEST PUSH0 DUP2 SWAP1 POP SWAP2 SWAP1 POP JUMP JUMPDEST PUSH2 0x1CB6 DUP2 PUSH2 0x1CA4 JUMP JUMPDEST DUP2 EQ PUSH2 0x1CC0 JUMPI PUSH0 PUSH0 REVERT JUMPDEST POP JUMP JUMPDEST PUSH0 DUP2 CALLDATALOAD SWAP1 POP PUSH2 0x1CD1 DUP2 PUSH2 0x1CAD JUMP JUMPDEST SWAP3 SWAP2 POP POP JUMP JUMPDEST PUSH0 PUSH1 0x20 DUP3 DUP5 SUB SLT ISZERO PUSH2 0x1CEC JUMPI PUSH2 0x1CEB PUSH2 0x1B59 JUMP JUMPDEST JUMPDEST PUSH0 PUSH2 0x1CF9 DUP5 DUP3 DUP6 ADD PUSH2 0x1CC3 JUMP JUMPDEST SWAP2 POP POP SWAP3 SWAP2 POP POP JUMP JUMPDEST PUSH0 PUSH20 0xFFFFFFFFFFFFFFFFFFFFFFFFFFFFFFFFFFFFFFFF DUP3 AND SWAP1 POP SWAP2 SWAP1 POP JUMP JUMPDEST PUSH0 PUSH2 0x1D2B DUP3 PUSH2 0x1D02 JUMP JUMPDEST SWAP1 POP SWAP2 SWAP1 POP JUMP JUMPDEST PUSH2 0x1D3B DUP2 PUSH2 0x1D21 JUMP JUMPDEST DUP3 MSTORE POP POP JUMP JUMPDEST PUSH0 PUSH1 0x20 DUP3 ADD SWAP1 POP PUSH2 0x1D54 PUSH0 DUP4 ADD DUP5 PUSH2 0x1D32 JUMP JUMPDEST SWAP3 SWAP2 POP POP JUMP JUMPDEST PUSH2 0x1D63 DUP2 PUSH2 0x1D21 JUMP JUMPDEST DUP2 EQ PUSH2 0x1D6D JUMPI PUSH0 PUSH0 REVERT JUMPDEST POP JUMP JUMPDEST PUSH0 DUP2 CALLDATALOAD SWAP1 POP PUSH2 0x1D7E DUP2 PUSH2 0x1D5A JUMP JUMPDEST SWAP3 SWAP2 POP POP JUMP JUMPDEST PUSH0 PUSH0 PUSH1 0x40 DUP4 DUP6 SUB SLT ISZERO PUSH2 0x1D9A JUMPI PUSH2 0x1D99 PUSH2 0x1B59 JUMP JUMPDEST JUMPDEST PUSH0 PUSH2 0x1DA7 DUP6 DUP3 DUP7 ADD PUSH2 0x1D70 JUMP JUMPDEST SWAP3 POP POP PUSH1 0x20 PUSH2 0x1DB8 DUP6 DUP3 DUP7 ADD PUSH2 0x1CC3 JUMP JUMPDEST SWAP2 POP POP SWAP3 POP SWAP3 SWAP1 POP JUMP JUMPDEST PUSH2 0x1DCB DUP2 PUSH2 0x1CA4 JUMP JUMPDEST DUP3 MSTORE POP POP JUMP JUMPDEST PUSH0 PUSH1 0x20 DUP3 ADD SWAP1 POP PUSH2 0x1DE4 PUSH0 DUP4 ADD DUP5 PUSH2 0x1DC2 JUMP JUMPDEST SWAP3 SWAP2 POP POP JUMP JUMPDEST PUSH0 PUSH0 PUSH0 PUSH1 0x60 DUP5 DUP7 SUB SLT ISZERO PUSH2 0x1E01 JUMPI PUSH2 0x1E00 PUSH2 0x1B59 JUMP JUMPDEST JUMPDEST PUSH0 PUSH2 0x1E0E DUP7 DUP3 DUP8 ADD PUSH2 0x1D70 JUMP JUMPDEST SWAP4 POP POP PUSH1 0x20 PUSH2 0x1E1F DUP7 DUP3 DUP8 ADD PUSH2 0x1D70 JUMP JUMPDEST SWAP3 POP POP PUSH1 0x40 PUSH2 0x1E30 DUP7 DUP3 DUP8 ADD PUSH2 0x1CC3 JUMP JUMPDEST SWAP2 POP POP SWAP3 POP SWAP3 POP SWAP3 JUMP JUMPDEST PUSH0 PUSH0 REVERT JUMPDEST PUSH0 PUSH0 REVERT JUMPDEST PUSH32 0x4E487B7100000000000000000000000000000000000000000000000000000000 PUSH0 MSTORE PUSH1 0x41 PUSH1 0x4 MSTORE PUSH1 0x24 PUSH0 REVERT JUMPDEST PUSH2 0x1E78 DUP3 PUSH2 0x1C3C JUMP JUMPDEST DUP2 ADD DUP2 DUP2 LT PUSH8 0xFFFFFFFFFFFFFFFF DUP3 GT OR ISZERO PUSH2 0x1E97 JUMPI PUSH2 0x1E96 PUSH2 0x1E42 JUMP JUMPDEST JUMPDEST DUP1 PUSH1 0x40 MSTORE POP POP POP JUMP JUMPDEST PUSH0 PUSH2 0x1EA9 PUSH2 0x1B50 JUMP JUMPDEST SWAP1 POP PUSH2 0x1EB5 DUP3 DUP3 PUSH2 0x1E6F JUMP JUMPDEST SWAP2 SWAP1 POP JUMP JUMPDEST PUSH0 PUSH8 0xFFFFFFFFFFFFFFFF DUP3 GT ISZERO PUSH2 0x1ED4 JUMPI PUSH2 0x1ED3 PUSH2 0x1E42 JUMP JUMPDEST JUMPDEST PUSH2 0x1EDD DUP3 PUSH2 0x1C3C JUMP JUMPDEST SWAP1 POP PUSH1 0x20 DUP2 ADD SWAP1 POP SWAP2 SWAP1 POP JUMP JUMPDEST DUP3 DUP2 DUP4 CALLDATACOPY PUSH0 DUP4 DUP4 ADD MSTORE POP POP POP JUMP JUMPDEST PUSH0 PUSH2 0x1F0A PUSH2 0x1F05 DUP5 PUSH2 0x1EBA JUMP JUMPDEST PUSH2 0x1EA0 JUMP JUMPDEST SWAP1 POP DUP3 DUP2 MSTORE PUSH1 0x20 DUP2 ADD DUP5 DUP5 DUP5 ADD GT ISZERO PUSH2 0x1F26 JUMPI PUSH2 0x1F25 PUSH2 0x1E3E JUMP JUMPDEST JUMPDEST PUSH2 0x1F31 DUP5 DUP3 DUP6 PUSH2 0x1EEA JUMP JUMPDEST POP SWAP4 SWAP3 POP POP POP JUMP JUMPDEST PUSH0 DUP3 PUSH1 0x1F DUP4 ADD SLT PUSH2 0x1F4D JUMPI PUSH2 0x1F4C PUSH2 0x1E3A JUMP JUMPDEST JUMPDEST DUP2 CALLDATALOAD PUSH2 0x1F5D DUP5 DUP3 PUSH1 0x20 DUP7 ADD PUSH2 0x1EF8 JUMP JUMPDEST SWAP2 POP POP SWAP3 SWAP2 POP POP JUMP JUMPDEST PUSH0 PUSH0 PUSH1 0x40 DUP4 DUP6 SUB SLT ISZERO PUSH2 0x1F7C JUMPI PUSH2 0x1F7B PUSH2 0x1B59 JUMP JUMPDEST JUMPDEST PUSH0 PUSH2 0x1F89 DUP6 DUP3 DUP7 ADD PUSH2 0x1D70 JUMP JUMPDEST SWAP3 POP POP PUSH1 0x20 DUP4 ADD CALLDATALOAD PUSH8 0xFFFFFFFFFFFFFFFF DUP2 GT ISZERO PUSH2 0x1FAA JUMPI PUSH2 0x1FA9 PUSH2 0x1B5D JUMP JUMPDEST JUMPDEST PUSH2 0x1FB6 DUP6 DUP3 DUP7 ADD PUSH2 0x1F39 JUMP JUMPDEST SWAP2 POP POP SWAP3 POP SWAP3 SWAP1 POP JUMP JUMPDEST PUSH0 PUSH1 0x20 DUP3 DUP5 SUB SLT ISZERO PUSH2 0x1FD5 JUMPI PUSH2 0x1FD4 PUSH2 0x1B59 JUMP JUMPDEST JUMPDEST PUSH0 PUSH2 0x1FE2 DUP5 DUP3 DUP6 ADD PUSH2 0x1D70 JUMP JUMPDEST SWAP2 POP POP SWAP3 SWAP2 POP POP JUMP JUMPDEST PUSH2 0x1FF4 DUP2 PUSH2 0x1BE1 JUMP JUMPDEST DUP2 EQ PUSH2 0x1FFE JUMPI PUSH0 PUSH0 REVERT JUMPDEST POP JUMP JUMPDEST PUSH0 DUP2 CALLDATALOAD SWAP1 POP PUSH2 0x200F DUP2 PUSH2 0x1FEB JUMP JUMPDEST SWAP3 SWAP2 POP POP JUMP JUMPDEST PUSH0 PUSH0 PUSH1 0x40 DUP4 DUP6 SUB SLT ISZERO PUSH2 0x202B JUMPI PUSH2 0x202A PUSH2 0x1B59 JUMP JUMPDEST JUMPDEST PUSH0 PUSH2 0x2038 DUP6 DUP3 DUP7 ADD PUSH2 0x1D70 JUMP JUMPDEST SWAP3 POP POP PUSH1 0x20 PUSH2 0x2049 DUP6 DUP3 DUP7 ADD PUSH2 0x2001 JUMP JUMPDEST SWAP2 POP POP SWAP3 POP SWAP3 SWAP1 POP JUMP JUMPDEST PUSH0 PUSH8 0xFFFFFFFFFFFFFFFF DUP3 GT ISZERO PUSH2 0x206D JUMPI PUSH2 0x206C PUSH2 0x1E42 JUMP JUMPDEST JUMPDEST PUSH2 0x2076 DUP3 PUSH2 0x1C3C JUMP JUMPDEST SWAP1 POP PUSH1 0x20 DUP2 ADD SWAP1 POP SWAP2 SWAP1 POP JUMP JUMPDEST PUSH0 PUSH2 0x2095 PUSH2 0x2090 DUP5 PUSH2 0x2053 JUMP JUMPDEST PUSH2 0x1EA0 JUMP JUMPDEST SWAP1 POP DUP3 DUP2 MSTORE PUSH1 0x20 DUP2 ADD DUP5 DUP5 DUP5 ADD GT ISZERO PUSH2 0x20B1 JUMPI PUSH2 0x20B0 PUSH2 0x1E3E JUMP JUMPDEST JUMPDEST PUSH2 0x20BC DUP5 DUP3 DUP6 PUSH2 0x1EEA JUMP JUMPDEST POP SWAP4 SWAP3 POP POP POP JUMP JUMPDEST PUSH0 DUP3 PUSH1 0x1F DUP4 ADD SLT PUSH2 0x20D8 JUMPI PUSH2 0x20D7 PUSH2 0x1E3A JUMP JUMPDEST JUMPDEST DUP2 CALLDATALOAD PUSH2 0x20E8 DUP5 DUP3 PUSH1 0x20 DUP7 ADD PUSH2 0x2083 JUMP JUMPDEST SWAP2 POP POP SWAP3 SWAP2 POP POP JUMP JUMPDEST PUSH0 PUSH0 PUSH0 PUSH0 PUSH1 0x80 DUP6 DUP8 SUB SLT ISZERO PUSH2 0x2109 JUMPI PUSH2 0x2108 PUSH2 0x1B59 JUMP JUMPDEST JUMPDEST PUSH0 PUSH2 0x2116 DUP8 DUP3 DUP9 ADD PUSH2 0x1D70 JUMP JUMPDEST SWAP5 POP POP PUSH1 0x20 PUSH2 0x2127 DUP8 DUP3 DUP9 ADD PUSH2 0x1D70 JUMP JUMPDEST SWAP4 POP POP PUSH1 0x40 PUSH2 0x2138 DUP8 DUP3 DUP9 ADD PUSH2 0x1CC3 JUMP JUMPDEST SWAP3 POP POP PUSH1 0x60 DUP6 ADD CALLDATALOAD PUSH8 0xFFFFFFFFFFFFFFFF DUP2 GT ISZERO PUSH2 0x2159 JUMPI PUSH2 0x2158 PUSH2 0x1B5D JUMP JUMPDEST JUMPDEST PUSH2 0x2165 DUP8 DUP3 DUP9 ADD PUSH2 0x20C4 JUMP JUMPDEST SWAP2 POP POP SWAP3 SWAP6 SWAP2 SWAP5 POP SWAP3 POP JUMP JUMPDEST PUSH0 PUSH0 PUSH1 0x40 DUP4 DUP6 SUB SLT ISZERO PUSH2 0x2187 JUMPI PUSH2 0x2186 PUSH2 0x1B59 JUMP JUMPDEST JUMPDEST PUSH0 PUSH2 0x2194 DUP6 DUP3 DUP7 ADD PUSH2 0x1D70 JUMP JUMPDEST SWAP3 POP POP PUSH1 0x20 PUSH2 0x21A5 DUP6 DUP3 DUP7 ADD PUSH2 0x1D70 JUMP JUMPDEST SWAP2 POP POP SWAP3 POP SWAP3 SWAP1 POP JUMP JUMPDEST PUSH32 0x4E487B7100000000000000000000000000000000000000000000000000000000 PUSH0 MSTORE PUSH1 0x22 PUSH1 0x4 MSTORE PUSH1 0x24 PUSH0 REVERT JUMPDEST PUSH0 PUSH1 0x2 DUP3 DIV SWAP1 POP PUSH1 0x1 DUP3 AND DUP1 PUSH2 0x21F3 JUMPI PUSH1 0x7F DUP3 AND SWAP2 POP JUMPDEST PUSH1 0x20 DUP3 LT DUP2 SUB PUSH2 0x2206 JUMPI PUSH2 0x2205 PUSH2 0x21AF JUMP JUMPDEST JUMPDEST POP SWAP2 SWAP1 POP JUMP JUMPDEST PUSH32 0x546F6B656E20646F6573206E6F74206578697374000000000000000000000000 PUSH0 DUP3 ADD MSTORE POP JUMP JUMPDEST PUSH0 PUSH2 0x2240 PUSH1 0x14 DUP4 PUSH2 0x1C1E JUMP JUMPDEST SWAP2 POP PUSH2 0x224B DUP3 PUSH2 0x220C JUMP JUMPDEST PUSH1 0x20 DUP3 ADD SWAP1 POP SWAP2 SWAP1 POP JUMP JUMPDEST PUSH0 PUSH1 0x20 DUP3 ADD SWAP1 POP DUP2 DUP2 SUB PUSH0 DUP4 ADD MSTORE PUSH2 0x226D DUP2 PUSH2 0x2234 JUMP JUMPDEST SWAP1 POP SWAP2 SWAP1 POP JUMP JUMPDEST PUSH32 0x4E6F7420617574686F72697A6564000000000000000000000000000000000000 PUSH0 DUP3 ADD MSTORE POP JUMP JUMPDEST PUSH0 PUSH2 0x22A8 PUSH1 0xE DUP4 PUSH2 0x1C1E JUMP JUMPDEST SWAP2 POP PUSH2 0x22B3 DUP3 PUSH2 0x2274 JUMP JUMPDEST PUSH1 0x20 DUP3 ADD SWAP1 POP SWAP2 SWAP1 POP JUMP JUMPDEST PUSH0 PUSH1 0x20 DUP3 ADD SWAP1 POP DUP2 DUP2 SUB PUSH0 DUP4 ADD MSTORE PUSH2 0x22D5 DUP2 PUSH2 0x229C JUMP JUMPDEST SWAP1 POP SWAP2 SWAP1 POP JUMP JUMPDEST PUSH32 0x57726F6E67206F776E6572000000000000000000000000000000000000000000 PUSH0 DUP3 ADD MSTORE POP JUMP JUMPDEST PUSH0 PUSH2 0x2310 PUSH1 0xB DUP4 PUSH2 0x1C1E JUMP JUMPDEST SWAP2 POP PUSH2 0x231B DUP3 PUSH2 0x22DC JUMP JUMPDEST PUSH1 0x20 DUP3 ADD SWAP1 POP SWAP2 SWAP1 POP JUMP JUMPDEST PUSH0 PUSH1 0x20 DUP3 ADD SWAP1 POP DUP2 DUP2 SUB PUSH0 DUP4 ADD MSTORE PUSH2 0x233D DUP2 PUSH2 0x2304 JUMP JUMPDEST SWAP1 POP SWAP2 SWAP1 POP JUMP JUMPDEST PUSH32 0x5A65726F20616464726573730000000000000000000000000000000000000000 PUSH0 DUP3 ADD MSTORE POP JUMP JUMPDEST PUSH0 PUSH2 0x2378 PUSH1 0xC DUP4 PUSH2 0x1C1E JUMP JUMPDEST SWAP2 POP PUSH2 0x2383 DUP3 PUSH2 0x2344 JUMP JUMPDEST PUSH1 0x20 DUP3 ADD SWAP1 POP SWAP2 SWAP1 POP JUMP JUMPDEST PUSH0 PUSH1 0x20 DUP3 ADD SWAP1 POP DUP2 DUP2 SUB PUSH0 DUP4 ADD MSTORE PUSH2 0x23A5 DUP2 PUSH2 0x236C JUMP JUMPDEST SWAP1 POP SWAP2 SWAP1 POP JUMP JUMPDEST PUSH32 0x4E487B7100000000000000000000000000000000000000000000000000000000 PUSH0 MSTORE PUSH1 0x11 PUSH1 0x4 MSTORE PUSH1 0x24 PUSH0 REVERT JUMPDEST PUSH0 PUSH2 0x23E3 DUP3 PUSH2 0x1CA4 JUMP JUMPDEST SWAP2 POP PUSH0 DUP3 SUB PUSH2 0x23F5 JUMPI PUSH2 0x23F4 PUSH2 0x23AC JUMP JUMPDEST JUMPDEST PUSH1 0x1 DUP3 SUB SWAP1 POP SWAP2 SWAP1 POP JUMP JUMPDEST PUSH0 PUSH2 0x240A DUP3 PUSH2 0x1CA4 JUMP JUMPDEST SWAP2 POP PUSH32 0xFFFFFFFFFFFFFFFFFFFFFFFFFFFFFFFFFFFFFFFFFFFFFFFFFFFFFFFFFFFFFFFF DUP3 SUB PUSH2 0x243C JUMPI PUSH2 0x243B PUSH2 0x23AC JUMP JUMPDEST JUMPDEST PUSH1 0x1 DUP3 ADD SWAP1 POP SWAP2 SWAP1 POP JUMP JUMPDEST PUSH32 0x4E6F74206F776E65720000000000000000000000000000000000000000000000 PUSH0 DUP3 ADD MSTORE POP JUMP JUMPDEST PUSH0 PUSH2 0x247B PUSH1 0x9 DUP4 PUSH2 0x1C1E JUMP JUMPDEST SWAP2 POP PUSH2 0x2486 DUP3 PUSH2 0x2447 JUMP JUMPDEST PUSH1 0x20 DUP3 ADD SWAP1 POP SWAP2 SWAP1 POP JUMP JUMPDEST PUSH0 PUSH1 0x20 DUP3 ADD SWAP1 POP DUP2 DUP2 SUB PUSH0 DUP4 ADD MSTORE PUSH2 0x24A8 DUP2 PUSH2 0x246F JUMP JUMPDEST SWAP1 POP SWAP2 SWAP1 POP JUMP JUMPDEST PUSH32 0x4E6F7468696E6720746F20776974686472617700000000000000000000000000 PUSH0 DUP3 ADD MSTORE POP JUMP JUMPDEST PUSH0 PUSH2 0x24E3 PUSH1 0x13 DUP4 PUSH2 0x1C1E JUMP JUMPDEST SWAP2 POP PUSH2 0x24EE DUP3 PUSH2 0x24AF JUMP JUMPDEST PUSH1 0x20 DUP3 ADD SWAP1 POP SWAP2 SWAP1 POP JUMP JUMPDEST PUSH0 PUSH1 0x20 DUP3 ADD SWAP1 POP DUP2 DUP2 SUB PUSH0 DUP4 ADD MSTORE PUSH2 0x2510 DUP2 PUSH2 0x24D7 JUMP JUMPDEST SWAP1 POP SWAP2 SWAP1 POP JUMP JUMPDEST PUSH32 0x4D617820737570706C7920726561636865640000000000000000000000000000 PUSH0 DUP3 ADD MSTORE POP JUMP JUMPDEST PUSH0 PUSH2 0x254B PUSH1 0x12 DUP4 PUSH2 0x1C1E JUMP JUMPDEST SWAP2 POP PUSH2 0x2556 DUP3 PUSH2 0x2517 JUMP JUMPDEST PUSH1 0x20 DUP3 ADD SWAP1 POP SWAP2 SWAP1 POP JUMP JUMPDEST PUSH0 PUSH1 0x20 DUP3 ADD SWAP1 POP DUP2 DUP2 SUB PUSH0 DUP4 ADD MSTORE PUSH2 0x2578 DUP2 PUSH2 0x253F JUMP JUMPDEST SWAP1 POP SWAP2 SWAP1 POP JUMP JUMPDEST PUSH32 0x43616E6E6F7420617070726F76652073656C6600000000000000000000000000 PUSH0 DUP3 ADD MSTORE POP JUMP JUMPDEST PUSH0 PUSH2 0x25B3 PUSH1 0x13 DUP4 PUSH2 0x1C1E JUMP JUMPDEST SWAP2 POP PUSH2 0x25BE DUP3 PUSH2 0x257F JUMP JUMPDEST PUSH1 0x20 DUP3 ADD SWAP1 POP SWAP2 SWAP1 POP JUMP JUMPDEST PUSH0 PUSH1 0x20 DUP3 ADD SWAP1 POP DUP2 DUP2 SUB PUSH0 DUP4 ADD MSTORE PUSH2 0x25E0 DUP2 PUSH2 0x25A7 JUMP JUMPDEST SWAP1 POP SWAP2 SWAP1 POP JUMP JUMPDEST PUSH32 0x4E6F6E2D45524337323152656365697665720000000000000000000000000000 PUSH0 DUP3 ADD MSTORE POP JUMP JUMPDEST PUSH0 PUSH2 0x261B PUSH1 0x12 DUP4 PUSH2 0x1C1E JUMP JUMPDEST SWAP2 POP PUSH2 0x2626 DUP3 PUSH2 0x25E7 JUMP JUMPDEST PUSH1 0x20 DUP3 ADD SWAP1 POP SWAP2 SWAP1 POP JUMP JUMPDEST PUSH0 PUSH1 0x20 DUP3 ADD SWAP1 POP DUP2 DUP2 SUB PUSH0 DUP4 ADD MSTORE PUSH2 0x2648 DUP2 PUSH2 0x260F JUMP JUMPDEST SWAP1 POP SWAP2 SWAP1 POP JUMP JUMPDEST PUSH32 0x496E73756666696369656E74207061796D656E74000000000000000000000000 PUSH0 DUP3 ADD MSTORE POP JUMP JUMPDEST PUSH0 PUSH2 0x2683 PUSH1 0x14 DUP4 PUSH2 0x1C1E JUMP JUMPDEST SWAP2 POP PUSH2 0x268E DUP3 PUSH2 0x264F JUMP JUMPDEST PUSH1 0x20 DUP3 ADD SWAP1 POP SWAP2 SWAP1 POP JUMP JUMPDEST PUSH0 PUSH1 0x20 DUP3 ADD SWAP1 POP DUP2 DUP2 SUB PUSH0 DUP4 ADD MSTORE PUSH2 0x26B0 DUP2 PUSH2 0x2677 JUMP JUMPDEST SWAP1 POP SWAP2 SWAP1 POP JUMP JUMPDEST PUSH0 DUP2 SWAP1 POP DUP2 PUSH0 MSTORE PUSH1 0x20 PUSH0 KECCAK256 SWAP1 POP SWAP2 SWAP1 POP JUMP JUMPDEST PUSH0 PUSH1 0x20 PUSH1 0x1F DUP4 ADD DIV SWAP1 POP SWAP2 SWAP1 POP JUMP JUMPDEST PUSH0 DUP3 DUP3 SHL SWAP1 POP SWAP3 SWAP2 POP POP JUMP JUMPDEST PUSH0 PUSH1 0x8 DUP4 MUL PUSH2 0x2713 PUSH32 0xFFFFFFFFFFFFFFFFFFFFFFFFFFFFFFFFFFFFFFFFFFFFFFFFFFFFFFFFFFFFFFFF DUP3 PUSH2 0x26D8 JUMP JUMPDEST PUSH2 0x271D DUP7 DUP4 PUSH2 0x26D8 JUMP JUMPDEST SWAP6 POP DUP1 NOT DUP5 AND SWAP4 POP DUP1 DUP7 AND DUP5 OR SWAP3 POP POP POP SWAP4 SWAP3 POP POP POP JUMP JUMPDEST PUSH0 DUP2 SWAP1 POP SWAP2 SWAP1 POP JUMP JUMPDEST PUSH0 PUSH2 0x2758 PUSH2 0x2753 PUSH2 0x274E DUP5 PUSH2 0x1CA4 JUMP JUMPDEST PUSH2 0x2735 JUMP JUMPDEST PUSH2 0x1CA4 JUMP JUMPDEST SWAP1 POP SWAP2 SWAP1 POP JUMP JUMPDEST PUSH0 DUP2 SWAP1 POP SWAP2 SWAP1 POP JUMP JUMPDEST PUSH2 0x2771 DUP4 PUSH2 0x273E JUMP JUMPDEST PUSH2 0x2785 PUSH2 0x277D DUP3 PUSH2 0x275F JUMP JUMPDEST DUP5 DUP5 SLOAD PUSH2 0x26E4 JUMP JUMPDEST DUP3 SSTORE POP POP POP POP JUMP JUMPDEST PUSH0 PUSH0 SWAP1 POP SWAP1 JUMP JUMPDEST PUSH2 0x279C PUSH2 0x278D JUMP JUMPDEST PUSH2 0x27A7 DUP2 DUP5 DUP5 PUSH2 0x2768 JUMP JUMPDEST POP POP POP JUMP JUMPDEST JUMPDEST DUP2 DUP2 LT ISZERO PUSH2 0x27CA JUMPI PUSH2 0x27BF PUSH0 DUP3 PUSH2 0x2794 JUMP JUMPDEST PUSH1 0x1 DUP2 ADD SWAP1 POP PUSH2 0x27AD JUMP JUMPDEST POP POP JUMP JUMPDEST PUSH1 0x1F DUP3 GT ISZERO PUSH2 0x280F JUMPI PUSH2 0x27E0 DUP2 PUSH2 0x26B7 JUMP JUMPDEST PUSH2 0x27E9 DUP5 PUSH2 0x26C9 JUMP JUMPDEST DUP2 ADD PUSH1 0x20 DUP6 LT ISZERO PUSH2 0x27F8 JUMPI DUP2 SWAP1 POP JUMPDEST PUSH2 0x280C PUSH2 0x2804 DUP6 PUSH2 0x26C9 JUMP JUMPDEST DUP4 ADD DUP3 PUSH2 0x27AC JUMP JUMPDEST POP POP JUMPDEST POP POP POP JUMP JUMPDEST PUSH0 DUP3 DUP3 SHR SWAP1 POP SWAP3 SWAP2 POP POP JUMP JUMPDEST PUSH0 PUSH2 0x282F PUSH0 NOT DUP5 PUSH1 0x8 MUL PUSH2 0x2814 JUMP JUMPDEST NOT DUP1 DUP4 AND SWAP2 POP POP SWAP3 SWAP2 POP POP JUMP JUMPDEST PUSH0 PUSH2 0x2847 DUP4 DUP4 PUSH2 0x2820 JUMP JUMPDEST SWAP2 POP DUP3 PUSH1 0x2 MUL DUP3 OR SWAP1 POP SWAP3 SWAP2 POP POP JUMP JUMPDEST PUSH2 0x2860 DUP3 PUSH2 0x1C14 JUMP JUMPDEST PUSH8 0xFFFFFFFFFFFFFFFF DUP2 GT ISZERO PUSH2 0x2879 JUMPI PUSH2 0x2878 PUSH2 0x1E42 JUMP JUMPDEST JUMPDEST PUSH2 0x2883 DUP3 SLOAD PUSH2 0x21DC JUMP JUMPDEST PUSH2 0x288E DUP3 DUP3 DUP6 PUSH2 0x27CE JUMP JUMPDEST PUSH0 PUSH1 0x20 SWAP1 POP PUSH1 0x1F DUP4 GT PUSH1 0x1 DUP2 EQ PUSH2 0x28BF JUMPI PUSH0 DUP5 ISZERO PUSH2 0x28AD JUMPI DUP3 DUP8 ADD MLOAD SWAP1 POP JUMPDEST PUSH2 0x28B7 DUP6 DUP3 PUSH2 0x283C JUMP JUMPDEST DUP7 SSTORE POP PUSH2 0x291E JUMP JUMPDEST PUSH1 0x1F NOT DUP5 AND PUSH2 0x28CD DUP7 PUSH2 0x26B7 JUMP JUMPDEST PUSH0 JUMPDEST DUP3 DUP2 LT ISZERO PUSH2 0x28F4 JUMPI DUP5 DUP10 ADD MLOAD DUP3 SSTORE PUSH1 0x1 DUP3 ADD SWAP2 POP PUSH1 0x20 DUP6 ADD SWAP5 POP PUSH1 0x20 DUP2 ADD SWAP1 POP PUSH2 0x28CF JUMP JUMPDEST DUP7 DUP4 LT ISZERO PUSH2 0x2911 JUMPI DUP5 DUP10 ADD MLOAD PUSH2 0x290D PUSH1 0x1F DUP10 AND DUP3 PUSH2 0x2820 JUMP JUMPDEST DUP4 SSTORE POP JUMPDEST PUSH1 0x1 PUSH1 0x2 DUP9 MUL ADD DUP9 SSTORE POP POP POP JUMPDEST POP POP POP POP POP POP JUMP JUMPDEST PUSH0 DUP2 MLOAD SWAP1 POP SWAP2 SWAP1 POP JUMP JUMPDEST PUSH0 DUP3 DUP3 MSTORE PUSH1 0x20 DUP3 ADD SWAP1 POP SWAP3 SWAP2 POP POP JUMP JUMPDEST PUSH0 PUSH2 0x294A DUP3 PUSH2 0x2926 JUMP JUMPDEST PUSH2 0x2954 DUP2 DUP6 PUSH2 0x2930 JUMP JUMPDEST SWAP4 POP PUSH2 0x2964 DUP2 DUP6 PUSH1 0x20 DUP7 ADD PUSH2 0x1C2E JUMP JUMPDEST PUSH2 0x296D DUP2 PUSH2 0x1C3C JUMP JUMPDEST DUP5 ADD SWAP2 POP POP SWAP3 SWAP2 POP POP JUMP JUMPDEST PUSH0 PUSH1 0x80 DUP3 ADD SWAP1 POP PUSH2 0x298B PUSH0 DUP4 ADD DUP8 PUSH2 0x1D32 JUMP JUMPDEST PUSH2 0x2998 PUSH1 0x20 DUP4 ADD DUP7 PUSH2 0x1D32 JUMP JUMPDEST PUSH2 0x29A5 PUSH1 0x40 DUP4 ADD DUP6 PUSH2 0x1DC2 JUMP JUMPDEST DUP2 DUP2 SUB PUSH1 0x60 DUP4 ADD MSTORE PUSH2 0x29B7 DUP2 DUP5 PUSH2 0x2940 JUMP JUMPDEST SWAP1 POP SWAP6 SWAP5 POP POP POP POP POP JUMP JUMPDEST PUSH0 DUP2 MLOAD SWAP1 POP PUSH2 0x29D0 DUP2 PUSH2 0x1B8C JUMP JUMPDEST SWAP3 SWAP2 POP POP JUMP JUMPDEST PUSH0 PUSH1 0x20 DUP3 DUP5 SUB SLT ISZERO PUSH2 0x29EB JUMPI PUSH2 0x29EA PUSH2 0x1B59 JUMP JUMPDEST JUMPDEST PUSH0 PUSH2 0x29F8 DUP5 DUP3 DUP6 ADD PUSH2 0x29C2 JUMP JUMPDEST SWAP2 POP POP SWAP3 SWAP2 POP POP JUMP INVALID LOG2 PUSH5 0x6970667358 0x22 SLT KECCAK256 0xAF KECCAK256 0xA7 BLOBBASEFEE RETURNDATACOPY PUSH27 0xEB553AB7007E08FE345ED4CFBD4FE5E07F24A60AEB675A6B485064 PUSH20 0x6F6C634300081E00330000000000000000000000 "
				},
				"gasEstimates": {
					"creation": {
						"codeDepositCost": "2161400",
						"executionCost": "infinite",
						"totalCost": "infinite"
					},
					"external": {
						"approve(address,uint256)": "33813",
						"balanceOf(address)": "2886",
						"getApproved(uint256)": "5170",
						"isApprovedForAll(address,address)": "infinite",
						"maxSupply()": "2491",
						"mint(address,string)": "infinite",
						"mintPrice()": "2558",
						"name()": "infinite",
						"owner()": "2553",
						"ownerMint(address,string)": "infinite",
						"ownerOf(uint256)": "5213",
						"safeTransferFrom(address,address,uint256)": "infinite",
						"safeTransferFrom(address,address,uint256,bytes)": "infinite",
						"setApprovalForAll(address,bool)": "infinite",
						"setMintPrice(uint256)": "24816",
						"supportsInterface(bytes4)": "736",
						"symbol()": "infinite",
						"tokenURI(uint256)": "infinite",
						"totalSupply()": "2544",
						"transferFrom(address,address,uint256)": "infinite",
						"transferOwnership(address)": "27028",
						"withdraw()": "infinite"
					},
					"internal": {
						"_checkOnERC721Received(address,address,uint256,bytes memory)": "infinite",
						"_mint(address,string memory)": "infinite"
					}
				},
				"methodIdentifiers": {
					"approve(address,uint256)": "095ea7b3",
					"balanceOf(address)": "70a08231",
					"getApproved(uint256)": "081812fc",
					"isApprovedForAll(address,address)": "e985e9c5",
					"maxSupply()": "d5abeb01",
					"mint(address,string)": "d0def521",
					"mintPrice()": "6817c76c",
					"name()": "06fdde03",
					"owner()": "8da5cb5b",
					"ownerMint(address,string)": "41d5b803",
					"ownerOf(uint256)": "6352211e",
					"safeTransferFrom(address,address,uint256)": "42842e0e",
					"safeTransferFrom(address,address,uint256,bytes)": "b88d4fde",
					"setApprovalForAll(address,bool)": "a22cb465",
					"setMintPrice(uint256)": "f4a0a528",
					"supportsInterface(bytes4)": "01ffc9a7",
					"symbol()": "95d89b41",
					"tokenURI(uint256)": "c87b56dd",
					"totalSupply()": "18160ddd",
					"transferFrom(address,address,uint256)": "23b872dd",
					"transferOwnership(address)": "f2fde38b",
					"withdraw()": "3ccfd60b"
				}
			},
			"storageLayout": {
				"storage": [
					{
						"astId": 17,
						"contract": "MyNFT_1.sol:MyNFT",
						"label": "name",
						"offset": 0,
						"slot": "0",
						"type": "t_string_storage"
					},
					{
						"astId": 19,
						"contract": "MyNFT_1.sol:MyNFT",
						"label": "symbol",
						"offset": 0,
						"slot": "1",
						"type": "t_string_storage"
					},
					{
						"astId": 21,
						"contract": "MyNFT_1.sol:MyNFT",
						"label": "owner",
						"offset": 0,
						"slot": "2",
						"type": "t_address"
					},
					{
						"astId": 23,
						"contract": "MyNFT_1.sol:MyNFT",
						"label": "_nextTokenId",
						"offset": 0,
						"slot": "3",
						"type": "t_uint256"
					},
					{
						"astId": 26,
						"contract": "MyNFT_1.sol:MyNFT",
						"label": "mintPrice",
						"offset": 0,
						"slot": "4",
						"type": "t_uint256"
					},
					{
						"astId": 29,
						"contract": "MyNFT_1.sol:MyNFT",
						"label": "maxSupply",
						"offset": 0,
						"slot": "5",
						"type": "t_uint256"
					},
					{
						"astId": 33,
						"contract": "MyNFT_1.sol:MyNFT",
						"label": "_ownerOf",
						"offset": 0,
						"slot": "6",
						"type": "t_mapping(t_uint256,t_address)"
					},
					{
						"astId": 37,
						"contract": "MyNFT_1.sol:MyNFT",
						"label": "_balanceOf",
						"offset": 0,
						"slot": "7",
						"type": "t_mapping(t_address,t_uint256)"
					},
					{
						"astId": 41,
						"contract": "MyNFT_1.sol:MyNFT",
						"label": "_approvals",
						"offset": 0,
						"slot": "8",
						"type": "t_mapping(t_uint256,t_address)"
					},
					{
						"astId": 47,
						"contract": "MyNFT_1.sol:MyNFT",
						"label": "_operatorApprovals",
						"offset": 0,
						"slot": "9",
						"type": "t_mapping(t_address,t_mapping(t_address,t_bool))"
					},
					{
						"astId": 51,
						"contract": "MyNFT_1.sol:MyNFT",
						"label": "_tokenURIs",
						"offset": 0,
						"slot": "10",
						"type": "t_mapping(t_uint256,t_string_storage)"
					}
				],
				"types": {
					"t_address": {
						"encoding": "inplace",
						"label": "address",
						"numberOfBytes": "20"
					},
					"t_bool": {
						"encoding": "inplace",
						"label": "bool",
						"numberOfBytes": "1"
					},
					"t_mapping(t_address,t_bool)": {
						"encoding": "mapping",
						"key": "t_address",
						"label": "mapping(address => bool)",
						"numberOfBytes": "32",
						"value": "t_bool"
					},
					"t_mapping(t_address,t_mapping(t_address,t_bool))": {
						"encoding": "mapping",
						"key": "t_address",
						"label": "mapping(address => mapping(address => bool))",
						"numberOfBytes": "32",
						"value": "t_mapping(t_address,t_bool)"
					},
					"t_mapping(t_address,t_uint256)": {
						"encoding": "mapping",
						"key": "t_address",
						"label": "mapping(address => uint256)",
						"numberOfBytes": "32",
						"value": "t_uint256"
					},
					"t_mapping(t_uint256,t_address)": {
						"encoding": "mapping",
						"key": "t_uint256",
						"label": "mapping(uint256 => address)",
						"numberOfBytes": "32",
						"value": "t_address"
					},
					"t_mapping(t_uint256,t_string_storage)": {
						"encoding": "mapping",
						"key": "t_uint256",
						"label": "mapping(uint256 => string)",
						"numberOfBytes": "32",
						"value": "t_string_storage"
					},
					"t_string_storage": {
						"encoding": "bytes",
						"label": "string",
						"numberOfBytes": "32"
					},
					"t_uint256": {
						"encoding": "inplace",
						"label": "uint256",
						"numberOfBytes": "32"
					}
				}
			},
			"userdoc": {
				"kind": "user",
				"methods": {},
				"version": 1
			}
		}
	}
}