{
  "_format": "hh-sol-artifact-1",
  "contractName": "Batman",
  "sourceName": "contracts/customERC20/Batman.sol",
  "abi": [
    {
      "inputs": [],
      "stateMutability": "nonpayable",
      "type": "constructor"
    },
    {
      "anonymous": false,
      "inputs": [
        {
          "indexed": true,
          "internalType": "address",
          "name": "owner",
          "type": "address"
        },
        {
          "indexed": true,
          "internalType": "address",
          "name": "spender",
          "type": "address"
        },
        {
          "indexed": false,
          "internalType": "uint256",
          "name": "value",
          "type": "uint256"
        }
      ],
      "name": "Approval",
      "type": "event"
    },
    {
      "anonymous": false,
      "inputs": [
        {
          "indexed": true,
          "internalType": "address",
          "name": "to",
          "type": "address"
        },
        {
          "indexed": false,
          "internalType": "uint256",
          "name": "value",
          "type": "uint256"
        }
      ],
      "name": "Mint",
      "type": "event"
    },
    {
      "anonymous": false,
      "inputs": [
        {
          "indexed": true,
          "internalType": "address",
          "name": "from",
          "type": "address"
        },
        {
          "indexed": true,
          "internalType": "address",
          "name": "to",
          "type": "address"
        },
        {
          "indexed": false,
          "internalType": "uint256",
          "name": "value",
          "type": "uint256"
        }
      ],
      "name": "Transfer",
      "type": "event"
    },
    {
      "anonymous": false,
      "inputs": [
        {
          "indexed": true,
          "internalType": "address",
          "name": "user",
          "type": "address"
        },
        {
          "indexed": false,
          "internalType": "bool",
          "name": "status",
          "type": "bool"
        }
      ],
      "name": "WhiteListUpdate",
      "type": "event"
    },
    {
      "inputs": [],
      "name": "TotalToken",
      "outputs": [
        {
          "internalType": "uint256",
          "name": "",
          "type": "uint256"
        }
      ],
      "stateMutability": "view",
      "type": "function"
    },
    {
      "inputs": [
        {
          "internalType": "address",
          "name": "_owner",
          "type": "address"
        },
        {
          "internalType": "address",
          "name": "_spender",
          "type": "address"
        }
      ],
      "name": "allowance",
      "outputs": [
        {
          "internalType": "uint256",
          "name": "",
          "type": "uint256"
        }
      ],
      "stateMutability": "view",
      "type": "function"
    },
    {
      "inputs": [
        {
          "internalType": "address",
          "name": "_spender",
          "type": "address"
        },
        {
          "internalType": "uint256",
          "name": "_value",
          "type": "uint256"
        }
      ],
      "name": "approve",
      "outputs": [
        {
          "internalType": "bool",
          "name": "success",
          "type": "bool"
        }
      ],
      "stateMutability": "nonpayable",
      "type": "function"
    },
    {
      "inputs": [
        {
          "internalType": "address",
          "name": "account",
          "type": "address"
        }
      ],
      "name": "balanceOf",
      "outputs": [
        {
          "internalType": "uint256",
          "name": "",
          "type": "uint256"
        }
      ],
      "stateMutability": "view",
      "type": "function"
    },
    {
      "inputs": [],
      "name": "burn",
      "outputs": [
        {
          "internalType": "bool",
          "name": "",
          "type": "bool"
        }
      ],
      "stateMutability": "nonpayable",
      "type": "function"
    },
    {
      "inputs": [],
      "name": "decimals",
      "outputs": [
        {
          "internalType": "uint256",
          "name": "",
          "type": "uint256"
        }
      ],
      "stateMutability": "pure",
      "type": "function"
    },
    {
      "inputs": [
        {
          "internalType": "address",
          "name": "spender",
          "type": "address"
        },
        {
          "internalType": "uint256",
          "name": "value",
          "type": "uint256"
        }
      ],
      "name": "decreaseAllowance",
      "outputs": [
        {
          "internalType": "bool",
          "name": "success",
          "type": "bool"
        }
      ],
      "stateMutability": "nonpayable",
      "type": "function"
    },
    {
      "inputs": [],
      "name": "getwhitelistedaddress",
      "outputs": [
        {
          "internalType": "address[]",
          "name": "",
          "type": "address[]"
        }
      ],
      "stateMutability": "view",
      "type": "function"
    },
    {
      "inputs": [
        {
          "internalType": "address",
          "name": "spender",
          "type": "address"
        },
        {
          "internalType": "uint256",
          "name": "value",
          "type": "uint256"
        }
      ],
      "name": "increaseAllowance",
      "outputs": [
        {
          "internalType": "bool",
          "name": "success",
          "type": "bool"
        }
      ],
      "stateMutability": "nonpayable",
      "type": "function"
    },
    {
      "inputs": [],
      "name": "mint",
      "outputs": [
        {
          "internalType": "bool",
          "name": "success",
          "type": "bool"
        }
      ],
      "stateMutability": "nonpayable",
      "type": "function"
    },
    {
      "inputs": [],
      "name": "name",
      "outputs": [
        {
          "internalType": "string",
          "name": "",
          "type": "string"
        }
      ],
      "stateMutability": "pure",
      "type": "function"
    },
    {
      "inputs": [
        {
          "internalType": "address",
          "name": "user",
          "type": "address"
        }
      ],
      "name": "removeFromWhiteList",
      "outputs": [],
      "stateMutability": "nonpayable",
      "type": "function"
    },
    {
      "inputs": [
        {
          "internalType": "address",
          "name": "user",
          "type": "address"
        },
        {
          "internalType": "bool",
          "name": "status",
          "type": "bool"
        }
      ],
      "name": "setWhiteList",
      "outputs": [],
      "stateMutability": "nonpayable",
      "type": "function"
    },
    {
      "inputs": [],
      "name": "symbol",
      "outputs": [
        {
          "internalType": "string",
          "name": "",
          "type": "string"
        }
      ],
      "stateMutability": "pure",
      "type": "function"
    },
    {
      "inputs": [
        {
          "internalType": "address",
          "name": "to",
          "type": "address"
        },
        {
          "internalType": "uint256",
          "name": "amount",
          "type": "uint256"
        }
      ],
      "name": "transfer",
      "outputs": [
        {
          "internalType": "bool",
          "name": "success",
          "type": "bool"
        }
      ],
      "stateMutability": "nonpayable",
      "type": "function"
    },
    {
      "inputs": [
        {
          "internalType": "address",
          "name": "_from",
          "type": "address"
        },
        {
          "internalType": "address",
          "name": "_to",
          "type": "address"
        },
        {
          "internalType": "uint256",
          "name": "_value",
          "type": "uint256"
        }
      ],
      "name": "transferFrom",
      "outputs": [
        {
          "internalType": "bool",
          "name": "success",
          "type": "bool"
        }
      ],
      "stateMutability": "nonpayable",
      "type": "function"
    }
  ],
  "bytecode": "0x60806040526012600a61001291906102d2565b6402540be400610022919061031d565b60015560015460025534801561003757600080fd5b50336000806101000a81548173ffffffffffffffffffffffffffffffffffffffff021916908373ffffffffffffffffffffffffffffffffffffffff1602179055506000600a600254610089919061038e565b905060008160015461009b91906103bf565b905080600560003073ffffffffffffffffffffffffffffffffffffffff1673ffffffffffffffffffffffffffffffffffffffff1681526020019081526020016000208190555081600560008060009054906101000a900473ffffffffffffffffffffffffffffffffffffffff1673ffffffffffffffffffffffffffffffffffffffff1673ffffffffffffffffffffffffffffffffffffffff16815260200190815260200160002081905550816002600082825461015891906103bf565b9250508190555050506103f3565b7f4e487b7100000000000000000000000000000000000000000000000000000000600052601160045260246000fd5b60008160011c9050919050565b6000808291508390505b60018511156101ec578086048111156101c8576101c7610166565b5b60018516156101d75780820291505b80810290506101e585610195565b94506101ac565b94509492505050565b60008261020557600190506102c1565b8161021357600090506102c1565b8160018114610229576002811461023357610262565b60019150506102c1565b60ff84111561024557610244610166565b5b8360020a91508482111561025c5761025b610166565b5b506102c1565b5060208310610133831016604e8410600b84101617156102975782820a90508381111561029257610291610166565b5b6102c1565b6102a484848460016101a2565b925090508184048111156102bb576102ba610166565b5b81810290505b9392505050565b6000819050919050565b60006102dd826102c8565b91506102e8836102c8565b92506103157fffffffffffffffffffffffffffffffffffffffffffffffffffffffffffffffff84846101f5565b905092915050565b6000610328826102c8565b9150610333836102c8565b9250828202610341816102c8565b9150828204841483151761035857610357610166565b5b5092915050565b7f4e487b7100000000000000000000000000000000000000000000000000000000600052601260045260246000fd5b6000610399826102c8565b91506103a4836102c8565b9250826103b4576103b361035f565b5b828204905092915050565b60006103ca826102c8565b91506103d5836102c8565b92508282039050818111156103ed576103ec610166565b5b92915050565b613228806104026000396000f3fe608060405234801561001057600080fd5b50600436106101005760003560e01c806342505e6b1161009757806395d89b411161006657806395d89b41146102b1578063a457c2d7146102cf578063a9059cbb146102ff578063dd62ed3e1461032f57610100565b806342505e6b1461022957806344df8e701461024757806370a08231146102655780638d14e1271461029557610100565b806323b872dd116100d357806323b872dd1461018d578063313ce567146101bd57806339509351146101db5780633f6019721461020b57610100565b806301bf66481461010557806306fdde0314610121578063095ea7b31461013f5780631249c58b1461016f575b600080fd5b61011f600480360381019061011a9190612437565b61035f565b005b6101296106aa565b60405161013691906124f4565b60405180910390f35b6101596004803603810190610154919061254c565b6106e7565b60405161016691906125a7565b60405180910390f35b610177610865565b60405161018491906125a7565b60405180910390f35b6101a760048036038101906101a291906125c2565b610c6a565b6040516101b491906125a7565b60405180910390f35b6101c5611302565b6040516101d29190612624565b60405180910390f35b6101f560048036038101906101f0919061254c565b61130b565b60405161020291906125a7565b60405180910390f35b610213611517565b6040516102209190612624565b60405180910390f35b610231611521565b60405161023e91906126fd565b60405180910390f35b61024f6115af565b60405161025c91906125a7565b60405180910390f35b61027f600480360381019061027a9190612437565b611802565b60405161028c9190612624565b60405180910390f35b6102af60048036038101906102aa919061274b565b61184b565b005b6102b9611b00565b6040516102c691906124f4565b60405180910390f35b6102e960048036038101906102e4919061254c565b611b3d565b6040516102f691906125a7565b60405180910390f35b6103196004803603810190610314919061254c565b611e08565b60405161032691906125a7565b60405180910390f35b6103496004803603810190610344919061278b565b61234d565b6040516103569190612624565b60405180910390f35b60008054906101000a900473ffffffffffffffffffffffffffffffffffffffff1673ffffffffffffffffffffffffffffffffffffffff163373ffffffffffffffffffffffffffffffffffffffff16146103ed576040517f08c379a00000000000000000000000000000000000000000000000000000000081526004016103e49061283d565b60405180910390fd5b600660008273ffffffffffffffffffffffffffffffffffffffff1673ffffffffffffffffffffffffffffffffffffffff16815260200190815260200160002060009054906101000a900460ff16610479576040517f08c379a0000000000000000000000000000000000000000000000000000000008152600401610470906128a9565b60405180910390fd5b60005b6004805490508110156106a6576004818154811061049d5761049c6128c9565b5b9060005260206000200160009054906101000a900473ffffffffffffffffffffffffffffffffffffffff1673ffffffffffffffffffffffffffffffffffffffff168273ffffffffffffffffffffffffffffffffffffffff1603610699576004600160048054905061050e9190612927565b8154811061051f5761051e6128c9565b5b9060005260206000200160009054906101000a900473ffffffffffffffffffffffffffffffffffffffff166004828154811061055e5761055d6128c9565b5b9060005260206000200160006101000a81548173ffffffffffffffffffffffffffffffffffffffff021916908373ffffffffffffffffffffffffffffffffffffffff16021790555060048054806105b8576105b761295b565b5b6001900381819060005260206000200160006101000a81549073ffffffffffffffffffffffffffffffffffffffff021916905590556000600660008473ffffffffffffffffffffffffffffffffffffffff1673ffffffffffffffffffffffffffffffffffffffff16815260200190815260200160002060006101000a81548160ff0219169083151502179055508173ffffffffffffffffffffffffffffffffffffffff167f111b0cdde6a17355dbeb5ce9b87078297fec9b61b51550540b0d4e2f1e4913c2600060405161068c91906125a7565b60405180910390a26106a6565b808060010191505061047c565b5050565b60606040518060400160405280600681526020017f4261746d616e0000000000000000000000000000000000000000000000000000815250905090565b6000806012600a6106f89190612abd565b836107039190612b08565b9050600073ffffffffffffffffffffffffffffffffffffffff168473ffffffffffffffffffffffffffffffffffffffff1603610774576040517f08c379a000000000000000000000000000000000000000000000000000000000815260040161076b90612bbc565b60405180910390fd5b80600760003373ffffffffffffffffffffffffffffffffffffffff1673ffffffffffffffffffffffffffffffffffffffff16815260200190815260200160002060008673ffffffffffffffffffffffffffffffffffffffff1673ffffffffffffffffffffffffffffffffffffffff168152602001908152602001600020819055508373ffffffffffffffffffffffffffffffffffffffff163373ffffffffffffffffffffffffffffffffffffffff167f8c5be1e5ebec7d5bd14f71427d1e84f3dd0314c0f7b2291e5b200ac8c7c3b925836040516108529190612624565b60405180910390a3600191505092915050565b60008060009054906101000a900473ffffffffffffffffffffffffffffffffffffffff1673ffffffffffffffffffffffffffffffffffffffff163373ffffffffffffffffffffffffffffffffffffffff16146108f6576040517f08c379a00000000000000000000000000000000000000000000000000000000081526004016108ed9061283d565b60405180910390fd5b6012600a6109049190612abd565b6402540be4006109149190612b08565b6012600a6109229190612abd565b600a61092e9190612b08565b60015461093b9190612bdc565b111561097c576040517f08c379a000000000000000000000000000000000000000000000000000000000815260040161097390612c5c565b60405180910390fd5b6012600a61098a9190612abd565b60646109969190612b08565b6012600a6109a49190612abd565b600a6109b09190612b08565b600860003373ffffffffffffffffffffffffffffffffffffffff1673ffffffffffffffffffffffffffffffffffffffff168152602001908152602001600020546109fa9190612bdc565b1115610a3b576040517f08c379a0000000000000000000000000000000000000000000000000000000008152600401610a3290612cc8565b60405180910390fd5b6012600a610a499190612abd565b600a610a559190612b08565b600560003373ffffffffffffffffffffffffffffffffffffffff1673ffffffffffffffffffffffffffffffffffffffff1681526020019081526020016000206000828254610aa39190612bdc565b925050819055506012600a610ab89190612abd565b600a610ac49190612b08565b60036000828254610ad59190612bdc565b925050819055506012600a610aea9190612abd565b600a610af69190612b08565b600860003373ffffffffffffffffffffffffffffffffffffffff1673ffffffffffffffffffffffffffffffffffffffff1681526020019081526020016000206000828254610b449190612bdc565b925050819055506012600a610b599190612abd565b600a610b659190612b08565b60016000828254610b769190612bdc565b925050819055503373ffffffffffffffffffffffffffffffffffffffff167f0f6798a560793a54c3bcfe86a93cde1e73087d944c0ea20544137d41213968856012600a610bc39190612abd565b600a610bcf9190612b08565b604051610bdc9190612624565b60405180910390a23373ffffffffffffffffffffffffffffffffffffffff16600073ffffffffffffffffffffffffffffffffffffffff167fddf252ad1be2c89b69c2b068fc378daa952ba7f163c4a11628f55a4df523b3ef6012600a610c429190612abd565b600a610c4e9190612b08565b604051610c5b9190612624565b60405180910390a36001905090565b6000806012600a610c7b9190612abd565b83610c869190612b08565b9050600073ffffffffffffffffffffffffffffffffffffffff168473ffffffffffffffffffffffffffffffffffffffff1603610cf7576040517f08c379a0000000000000000000000000000000000000000000000000000000008152600401610cee90612d34565b60405180910390fd5b600560008673ffffffffffffffffffffffffffffffffffffffff1673ffffffffffffffffffffffffffffffffffffffff16815260200190815260200160002054811115610d79576040517f08c379a0000000000000000000000000000000000000000000000000000000008152600401610d7090612da0565b60405180910390fd5b600760008673ffffffffffffffffffffffffffffffffffffffff1673ffffffffffffffffffffffffffffffffffffffff16815260200190815260200160002060003373ffffffffffffffffffffffffffffffffffffffff1673ffffffffffffffffffffffffffffffffffffffff16815260200190815260200160002054811115610e38576040517f08c379a0000000000000000000000000000000000000000000000000000000008152600401610e2f90612e0c565b60405180910390fd5b60056004805490501015610e81576040517f08c379a0000000000000000000000000000000000000000000000000000000008152600401610e7890612e78565b60405180910390fd5b80600560008773ffffffffffffffffffffffffffffffffffffffff1673ffffffffffffffffffffffffffffffffffffffff1681526020019081526020016000206000828254610ed09190612927565b9250508190555080600760008773ffffffffffffffffffffffffffffffffffffffff1673ffffffffffffffffffffffffffffffffffffffff16815260200190815260200160002060003373ffffffffffffffffffffffffffffffffffffffff1673ffffffffffffffffffffffffffffffffffffffff1681526020019081526020016000206000828254610f639190612927565b9250508190555060006064600383610f7b9190612b08565b610f859190612ec7565b905060006064600184610f989190612b08565b610fa29190612ec7565b90506000600582610fb39190612b08565b905060008184610fc39190612bdc565b905060008186610fd39190612927565b905080600560008b73ffffffffffffffffffffffffffffffffffffffff1673ffffffffffffffffffffffffffffffffffffffff16815260200190815260200160002060008282546110249190612bdc565b92505081905550846001600082825461103d9190612927565b9250508190555060005b6005811015611225576006600060048381548110611068576110676128c9565b5b9060005260206000200160009054906101000a900473ffffffffffffffffffffffffffffffffffffffff1673ffffffffffffffffffffffffffffffffffffffff1673ffffffffffffffffffffffffffffffffffffffff16815260200190815260200160002060009054906101000a900460ff1615611218578460056000600484815481106110f9576110f86128c9565b5b9060005260206000200160009054906101000a900473ffffffffffffffffffffffffffffffffffffffff1673ffffffffffffffffffffffffffffffffffffffff1673ffffffffffffffffffffffffffffffffffffffff168152602001908152602001600020600082825461116d9190612bdc565b9250508190555060048181548110611188576111876128c9565b5b9060005260206000200160009054906101000a900473ffffffffffffffffffffffffffffffffffffffff1673ffffffffffffffffffffffffffffffffffffffff168b73ffffffffffffffffffffffffffffffffffffffff167fddf252ad1be2c89b69c2b068fc378daa952ba7f163c4a11628f55a4df523b3ef8760405161120f9190612624565b60405180910390a35b8080600101915050611047565b508873ffffffffffffffffffffffffffffffffffffffff168a73ffffffffffffffffffffffffffffffffffffffff167fddf252ad1be2c89b69c2b068fc378daa952ba7f163c4a11628f55a4df523b3ef836040516112839190612624565b60405180910390a3600073ffffffffffffffffffffffffffffffffffffffff168a73ffffffffffffffffffffffffffffffffffffffff167fddf252ad1be2c89b69c2b068fc378daa952ba7f163c4a11628f55a4df523b3ef876040516112e99190612624565b60405180910390a3600196505050505050509392505050565b60006012905090565b60008073ffffffffffffffffffffffffffffffffffffffff168373ffffffffffffffffffffffffffffffffffffffff160361137b576040517f08c379a000000000000000000000000000000000000000000000000000000000815260040161137290612f6a565b60405180910390fd5b60006012600a61138b9190612abd565b836113969190612b08565b905080600760003373ffffffffffffffffffffffffffffffffffffffff1673ffffffffffffffffffffffffffffffffffffffff16815260200190815260200160002060008673ffffffffffffffffffffffffffffffffffffffff1673ffffffffffffffffffffffffffffffffffffffff16815260200190815260200160002060008282546114249190612bdc565b925050819055508373ffffffffffffffffffffffffffffffffffffffff163373ffffffffffffffffffffffffffffffffffffffff167f8c5be1e5ebec7d5bd14f71427d1e84f3dd0314c0f7b2291e5b200ac8c7c3b925600760003373ffffffffffffffffffffffffffffffffffffffff1673ffffffffffffffffffffffffffffffffffffffff16815260200190815260200160002060008873ffffffffffffffffffffffffffffffffffffffff1673ffffffffffffffffffffffffffffffffffffffff168152602001908152602001600020546040516115049190612624565b60405180910390a3600191505092915050565b6000600154905090565b606060048054806020026020016040519081016040528092919081815260200182805480156115a557602002820191906000526020600020905b8160009054906101000a900473ffffffffffffffffffffffffffffffffffffffff1673ffffffffffffffffffffffffffffffffffffffff168152602001906001019080831161155b575b5050505050905090565b60008060009054906101000a900473ffffffffffffffffffffffffffffffffffffffff1673ffffffffffffffffffffffffffffffffffffffff163373ffffffffffffffffffffffffffffffffffffffff1614611640576040517f08c379a00000000000000000000000000000000000000000000000000000000081526004016116379061283d565b60405180910390fd5b6012600a61164e9190612abd565b600a61165a9190612b08565b600560003373ffffffffffffffffffffffffffffffffffffffff1673ffffffffffffffffffffffffffffffffffffffff1681526020019081526020016000205410156116db576040517f08c379a00000000000000000000000000000000000000000000000000000000081526004016116d290612fd6565b60405180910390fd5b6012600a6116e99190612abd565b600a6116f59190612b08565b600560003373ffffffffffffffffffffffffffffffffffffffff1673ffffffffffffffffffffffffffffffffffffffff16815260200190815260200160002060008282546117439190612927565b925050819055506012600a6117589190612abd565b600a6117649190612b08565b600160008282546117759190612927565b92505081905550600073ffffffffffffffffffffffffffffffffffffffff163373ffffffffffffffffffffffffffffffffffffffff167fddf252ad1be2c89b69c2b068fc378daa952ba7f163c4a11628f55a4df523b3ef6012600a6117da9190612abd565b600a6117e69190612b08565b6040516117f39190612624565b60405180910390a36001905090565b6000600560008373ffffffffffffffffffffffffffffffffffffffff1673ffffffffffffffffffffffffffffffffffffffff168152602001908152602001600020549050919050565b60008054906101000a900473ffffffffffffffffffffffffffffffffffffffff1673ffffffffffffffffffffffffffffffffffffffff163373ffffffffffffffffffffffffffffffffffffffff16146118d9576040517f08c379a00000000000000000000000000000000000000000000000000000000081526004016118d09061283d565b60405180910390fd5b600073ffffffffffffffffffffffffffffffffffffffff168273ffffffffffffffffffffffffffffffffffffffff1603611948576040517f08c379a000000000000000000000000000000000000000000000000000000000815260040161193f90613042565b60405180910390fd5b600115158115151480156119a65750600660008373ffffffffffffffffffffffffffffffffffffffff1673ffffffffffffffffffffffffffffffffffffffff16815260200190815260200160002060009054906101000a900460ff16155b15611a57576005600480549050106119f3576040517f08c379a00000000000000000000000000000000000000000000000000000000081526004016119ea906130ae565b60405180910390fd5b6004829080600181540180825580915050600190039060005260206000200160009091909190916101000a81548173ffffffffffffffffffffffffffffffffffffffff021916908373ffffffffffffffffffffffffffffffffffffffff1602179055505b80600660008473ffffffffffffffffffffffffffffffffffffffff1673ffffffffffffffffffffffffffffffffffffffff16815260200190815260200160002060006101000a81548160ff0219169083151502179055508173ffffffffffffffffffffffffffffffffffffffff167f111b0cdde6a17355dbeb5ce9b87078297fec9b61b51550540b0d4e2f1e4913c282604051611af491906125a7565b60405180910390a25050565b60606040518060400160405280600381526020017f42544d0000000000000000000000000000000000000000000000000000000000815250905090565b60008073ffffffffffffffffffffffffffffffffffffffff168373ffffffffffffffffffffffffffffffffffffffff1603611bad576040517f08c379a0000000000000000000000000000000000000000000000000000000008152600401611ba490613140565b60405180910390fd5b60006012600a611bbd9190612abd565b83611bc89190612b08565b905080600760003373ffffffffffffffffffffffffffffffffffffffff1673ffffffffffffffffffffffffffffffffffffffff16815260200190815260200160002060008673ffffffffffffffffffffffffffffffffffffffff1673ffffffffffffffffffffffffffffffffffffffff168152602001908152602001600020541015611c89576040517f08c379a0000000000000000000000000000000000000000000000000000000008152600401611c80906131d2565b60405180910390fd5b80600760003373ffffffffffffffffffffffffffffffffffffffff1673ffffffffffffffffffffffffffffffffffffffff16815260200190815260200160002060008673ffffffffffffffffffffffffffffffffffffffff1673ffffffffffffffffffffffffffffffffffffffff1681526020019081526020016000206000828254611d159190612927565b925050819055508373ffffffffffffffffffffffffffffffffffffffff163373ffffffffffffffffffffffffffffffffffffffff167f8c5be1e5ebec7d5bd14f71427d1e84f3dd0314c0f7b2291e5b200ac8c7c3b925600760003373ffffffffffffffffffffffffffffffffffffffff1673ffffffffffffffffffffffffffffffffffffffff16815260200190815260200160002060008873ffffffffffffffffffffffffffffffffffffffff1673ffffffffffffffffffffffffffffffffffffffff16815260200190815260200160002054604051611df59190612624565b60405180910390a3600191505092915050565b6000806012600a611e199190612abd565b83611e249190612b08565b905080600560003373ffffffffffffffffffffffffffffffffffffffff1673ffffffffffffffffffffffffffffffffffffffff168152602001908152602001600020541015611ea8576040517f08c379a0000000000000000000000000000000000000000000000000000000008152600401611e9f90612da0565b60405180910390fd5b600073ffffffffffffffffffffffffffffffffffffffff168473ffffffffffffffffffffffffffffffffffffffff1603611f17576040517f08c379a0000000000000000000000000000000000000000000000000000000008152600401611f0e90612d34565b60405180910390fd5b60056004805490501015611f60576040517f08c379a0000000000000000000000000000000000000000000000000000000008152600401611f5790612e78565b60405180910390fd5b80600560003373ffffffffffffffffffffffffffffffffffffffff1673ffffffffffffffffffffffffffffffffffffffff1681526020019081526020016000206000828254611faf9190612927565b9250508190555060006064600383611fc79190612b08565b611fd19190612ec7565b905060006064600184611fe49190612b08565b611fee9190612ec7565b90506000600582611fff9190612b08565b90506000818461200f9190612bdc565b90506000818661201f9190612927565b905080600560008b73ffffffffffffffffffffffffffffffffffffffff1673ffffffffffffffffffffffffffffffffffffffff16815260200190815260200160002060008282546120709190612bdc565b9250508190555084600160008282546120899190612927565b9250508190555060005b60058110156122715760066000600483815481106120b4576120b36128c9565b5b9060005260206000200160009054906101000a900473ffffffffffffffffffffffffffffffffffffffff1673ffffffffffffffffffffffffffffffffffffffff1673ffffffffffffffffffffffffffffffffffffffff16815260200190815260200160002060009054906101000a900460ff161561226457846005600060048481548110612145576121446128c9565b5b9060005260206000200160009054906101000a900473ffffffffffffffffffffffffffffffffffffffff1673ffffffffffffffffffffffffffffffffffffffff1673ffffffffffffffffffffffffffffffffffffffff16815260200190815260200160002060008282546121b99190612bdc565b92505081905550600481815481106121d4576121d36128c9565b5b9060005260206000200160009054906101000a900473ffffffffffffffffffffffffffffffffffffffff1673ffffffffffffffffffffffffffffffffffffffff163373ffffffffffffffffffffffffffffffffffffffff167fddf252ad1be2c89b69c2b068fc378daa952ba7f163c4a11628f55a4df523b3ef8760405161225b9190612624565b60405180910390a35b8080600101915050612093565b508873ffffffffffffffffffffffffffffffffffffffff163373ffffffffffffffffffffffffffffffffffffffff167fddf252ad1be2c89b69c2b068fc378daa952ba7f163c4a11628f55a4df523b3ef836040516122cf9190612624565b60405180910390a3600073ffffffffffffffffffffffffffffffffffffffff163373ffffffffffffffffffffffffffffffffffffffff167fddf252ad1be2c89b69c2b068fc378daa952ba7f163c4a11628f55a4df523b3ef876040516123359190612624565b60405180910390a36001965050505050505092915050565b6000600760008473ffffffffffffffffffffffffffffffffffffffff1673ffffffffffffffffffffffffffffffffffffffff16815260200190815260200160002060008373ffffffffffffffffffffffffffffffffffffffff1673ffffffffffffffffffffffffffffffffffffffff16815260200190815260200160002054905092915050565b600080fd5b600073ffffffffffffffffffffffffffffffffffffffff82169050919050565b6000612404826123d9565b9050919050565b612414816123f9565b811461241f57600080fd5b50565b6000813590506124318161240b565b92915050565b60006020828403121561244d5761244c6123d4565b5b600061245b84828501612422565b91505092915050565b600081519050919050565b600082825260208201905092915050565b60005b8381101561249e578082015181840152602081019050612483565b60008484015250505050565b6000601f19601f8301169050919050565b60006124c682612464565b6124d0818561246f565b93506124e0818560208601612480565b6124e9816124aa565b840191505092915050565b6000602082019050818103600083015261250e81846124bb565b905092915050565b6000819050919050565b61252981612516565b811461253457600080fd5b50565b60008135905061254681612520565b92915050565b60008060408385031215612563576125626123d4565b5b600061257185828601612422565b925050602061258285828601612537565b9150509250929050565b60008115159050919050565b6125a18161258c565b82525050565b60006020820190506125bc6000830184612598565b92915050565b6000806000606084860312156125db576125da6123d4565b5b60006125e986828701612422565b93505060206125fa86828701612422565b925050604061260b86828701612537565b9150509250925092565b61261e81612516565b82525050565b60006020820190506126396000830184612615565b92915050565b600081519050919050565b600082825260208201905092915050565b6000819050602082019050919050565b612674816123f9565b82525050565b6000612686838361266b565b60208301905092915050565b6000602082019050919050565b60006126aa8261263f565b6126b4818561264a565b93506126bf8361265b565b8060005b838110156126f05781516126d7888261267a565b97506126e283612692565b9250506001810190506126c3565b5085935050505092915050565b60006020820190508181036000830152612717818461269f565b905092915050565b6127288161258c565b811461273357600080fd5b50565b6000813590506127458161271f565b92915050565b60008060408385031215612762576127616123d4565b5b600061277085828601612422565b925050602061278185828601612736565b9150509250929050565b600080604083850312156127a2576127a16123d4565b5b60006127b085828601612422565b92505060206127c185828601612422565b9150509250929050565b7f6f6e6c79206f776e657220686176652061636365737320746f2074686973206660008201527f756e6374696f6e00000000000000000000000000000000000000000000000000602082015250565b600061282760278361246f565b9150612832826127cb565b604082019050919050565b600060208201905081810360008301526128568161281a565b9050919050565b7f55736572206e6f742057686974654c6973746564000000000000000000000000600082015250565b600061289360148361246f565b915061289e8261285d565b602082019050919050565b600060208201905081810360008301526128c281612886565b9050919050565b7f4e487b7100000000000000000000000000000000000000000000000000000000600052603260045260246000fd5b7f4e487b7100000000000000000000000000000000000000000000000000000000600052601160045260246000fd5b600061293282612516565b915061293d83612516565b9250828203905081811115612955576129546128f8565b5b92915050565b7f4e487b7100000000000000000000000000000000000000000000000000000000600052603160045260246000fd5b60008160011c9050919050565b6000808291508390505b60018511156129e1578086048111156129bd576129bc6128f8565b5b60018516156129cc5780820291505b80810290506129da8561298a565b94506129a1565b94509492505050565b6000826129fa5760019050612ab6565b81612a085760009050612ab6565b8160018114612a1e5760028114612a2857612a57565b6001915050612ab6565b60ff841115612a3a57612a396128f8565b5b8360020a915084821115612a5157612a506128f8565b5b50612ab6565b5060208310610133831016604e8410600b8410161715612a8c5782820a905083811115612a8757612a866128f8565b5b612ab6565b612a998484846001612997565b92509050818404811115612ab057612aaf6128f8565b5b81810290505b9392505050565b6000612ac882612516565b9150612ad383612516565b9250612b007fffffffffffffffffffffffffffffffffffffffffffffffffffffffffffffffff84846129ea565b905092915050565b6000612b1382612516565b9150612b1e83612516565b9250828202612b2c81612516565b91508282048414831517612b4357612b426128f8565b5b5092915050565b7f43616e6e6f7420617070726f766520616d6f756e7420746f2061207a65726f2060008201527f6164647265737300000000000000000000000000000000000000000000000000602082015250565b6000612ba660278361246f565b9150612bb182612b4a565b604082019050919050565b60006020820190508181036000830152612bd581612b99565b9050919050565b6000612be782612516565b9150612bf283612516565b9250828201905080821115612c0a57612c096128f8565b5b92915050565b7f4d617820737570706c7920657863656564656400000000000000000000000000600082015250565b6000612c4660138361246f565b9150612c5182612c10565b602082019050919050565b60006020820190508181036000830152612c7581612c39565b9050919050565b7f4d6178696d756d206c696d697420726561636865640000000000000000000000600082015250565b6000612cb260158361246f565b9150612cbd82612c7c565b602082019050919050565b60006020820190508181036000830152612ce181612ca5565b9050919050565b7f43616e6e6f74207472616e7366657220746f207a65726f206164647265737300600082015250565b6000612d1e601f8361246f565b9150612d2982612ce8565b602082019050919050565b60006020820190508181036000830152612d4d81612d11565b9050919050565b7f496e73756666696369656e742062616c616e6365000000000000000000000000600082015250565b6000612d8a60148361246f565b9150612d9582612d54565b602082019050919050565b60006020820190508181036000830152612db981612d7d565b9050919050565b7f416c6c6f77616e63652065786365656465640000000000000000000000000000600082015250565b6000612df660128361246f565b9150612e0182612dc0565b602082019050919050565b60006020820190508181036000830152612e2581612de9565b9050919050565b7f4e65656420352077686974656c69737465642075736572730000000000000000600082015250565b6000612e6260188361246f565b9150612e6d82612e2c565b602082019050919050565b60006020820190508181036000830152612e9181612e55565b9050919050565b7f4e487b7100000000000000000000000000000000000000000000000000000000600052601260045260246000fd5b6000612ed282612516565b9150612edd83612516565b925082612eed57612eec612e98565b5b828204905092915050565b7f43616e6e6f7420696e63726561736520616c6c6f77616e636520746f2061646460008201527f726573732076616c7565205a65726f0000000000000000000000000000000000602082015250565b6000612f54602f8361246f565b9150612f5f82612ef8565b604082019050919050565b60006020820190508181036000830152612f8381612f47565b9050919050565b7f496e73756666696369656e742062616c616e636520746f206275726e00000000600082015250565b6000612fc0601c8361246f565b9150612fcb82612f8a565b602082019050919050565b60006020820190508181036000830152612fef81612fb3565b9050919050565b7f696e76616c696420616464726573730000000000000000000000000000000000600082015250565b600061302c600f8361246f565b915061303782612ff6565b602082019050919050565b6000602082019050818103600083015261305b8161301f565b9050919050565b7f57686974656c6973742066756c6c000000000000000000000000000000000000600082015250565b6000613098600e8361246f565b91506130a382613062565b602082019050919050565b600060208201905081810360008301526130c78161308b565b9050919050565b7f63616e6e6f7420646563726561736520616c6c6f77616e636520746f2061646460008201527f726573732076616c7565205a65726f0000000000000000000000000000000000602082015250565b600061312a602f8361246f565b9150613135826130ce565b604082019050919050565b600060208201905081810360008301526131598161311d565b9050919050565b7f496e73756666696369656e7420616c6c6f77616e63652062616c616e6365207460008201527f6f20646563726561736500000000000000000000000000000000000000000000602082015250565b60006131bc602a8361246f565b91506131c782613160565b604082019050919050565b600060208201905081810360008301526131eb816131af565b905091905056fea2646970667358221220b09be5530e97081dfb6285b3093a36d57ef4d8d267fb3c6ebfd85f80a1dc800d64736f6c634300081e0033",
  "linkReferences": {},
  "deployedLinkReferences": {}
}