{
  "_format": "hh-sol-artifact-1",
  "contractName": "stakingToken",
  "sourceName": "contracts/staking/stakingToken.sol",
  "abi": [
    {
      "inputs": [
        {
          "internalType": "address",
          "name": "recipient",
          "type": "address"
        },
        {
          "internalType": "address",
          "name": "initialOwner",
          "type": "address"
        }
      ],
      "stateMutability": "nonpayable",
      "type": "constructor"
    },
    {
      "inputs": [
        {
          "internalType": "address",
          "name": "spender",
          "type": "address"
        },
        {
          "internalType": "uint256",
          "name": "allowance",
          "type": "uint256"
        },
        {
          "internalType": "uint256",
          "name": "needed",
          "type": "uint256"
        }
      ],
      "name": "ERC20InsufficientAllowance",
      "type": "error"
    },
    {
      "inputs": [
        {
          "internalType": "address",
          "name": "sender",
          "type": "address"
        },
        {
          "internalType": "uint256",
          "name": "balance",
          "type": "uint256"
        },
        {
          "internalType": "uint256",
          "name": "needed",
          "type": "uint256"
        }
      ],
      "name": "ERC20InsufficientBalance",
      "type": "error"
    },
    {
      "inputs": [
        {
          "internalType": "address",
          "name": "approver",
          "type": "address"
        }
      ],
      "name": "ERC20InvalidApprover",
      "type": "error"
    },
    {
      "inputs": [
        {
          "internalType": "address",
          "name": "receiver",
          "type": "address"
        }
      ],
      "name": "ERC20InvalidReceiver",
      "type": "error"
    },
    {
      "inputs": [
        {
          "internalType": "address",
          "name": "sender",
          "type": "address"
        }
      ],
      "name": "ERC20InvalidSender",
      "type": "error"
    },
    {
      "inputs": [
        {
          "internalType": "address",
          "name": "spender",
          "type": "address"
        }
      ],
      "name": "ERC20InvalidSpender",
      "type": "error"
    },
    {
      "inputs": [],
      "name": "EnforcedPause",
      "type": "error"
    },
    {
      "inputs": [],
      "name": "ExpectedPause",
      "type": "error"
    },
    {
      "inputs": [
        {
          "internalType": "address",
          "name": "owner",
          "type": "address"
        }
      ],
      "name": "OwnableInvalidOwner",
      "type": "error"
    },
    {
      "inputs": [
        {
          "internalType": "address",
          "name": "account",
          "type": "address"
        }
      ],
      "name": "OwnableUnauthorizedAccount",
      "type": "error"
    },
    {
      "anonymous": false,
      "inputs": [
        {
          "indexed": true,
          "internalType": "address",
          "name": "owner",
          "type": "address"
        },
        {
          "indexed": true,
          "internalType": "address",
          "name": "spender",
          "type": "address"
        },
        {
          "indexed": false,
          "internalType": "uint256",
          "name": "value",
          "type": "uint256"
        }
      ],
      "name": "Approval",
      "type": "event"
    },
    {
      "anonymous": false,
      "inputs": [
        {
          "indexed": true,
          "internalType": "address",
          "name": "previousOwner",
          "type": "address"
        },
        {
          "indexed": true,
          "internalType": "address",
          "name": "newOwner",
          "type": "address"
        }
      ],
      "name": "OwnershipTransferred",
      "type": "event"
    },
    {
      "anonymous": false,
      "inputs": [
        {
          "indexed": false,
          "internalType": "address",
          "name": "account",
          "type": "address"
        }
      ],
      "name": "Paused",
      "type": "event"
    },
    {
      "anonymous": false,
      "inputs": [
        {
          "indexed": true,
          "internalType": "address",
          "name": "from",
          "type": "address"
        },
        {
          "indexed": true,
          "internalType": "address",
          "name": "to",
          "type": "address"
        },
        {
          "indexed": false,
          "internalType": "uint256",
          "name": "value",
          "type": "uint256"
        }
      ],
      "name": "Transfer",
      "type": "event"
    },
    {
      "anonymous": false,
      "inputs": [
        {
          "indexed": false,
          "internalType": "address",
          "name": "account",
          "type": "address"
        }
      ],
      "name": "Unpaused",
      "type": "event"
    },
    {
      "inputs": [
        {
          "internalType": "address",
          "name": "owner",
          "type": "address"
        },
        {
          "internalType": "address",
          "name": "spender",
          "type": "address"
        }
      ],
      "name": "allowance",
      "outputs": [
        {
          "internalType": "uint256",
          "name": "",
          "type": "uint256"
        }
      ],
      "stateMutability": "view",
      "type": "function"
    },
    {
      "inputs": [
        {
          "internalType": "address",
          "name": "spender",
          "type": "address"
        },
        {
          "internalType": "uint256",
          "name": "value",
          "type": "uint256"
        }
      ],
      "name": "approve",
      "outputs": [
        {
          "internalType": "bool",
          "name": "",
          "type": "bool"
        }
      ],
      "stateMutability": "nonpayable",
      "type": "function"
    },
    {
      "inputs": [
        {
          "internalType": "address",
          "name": "account",
          "type": "address"
        }
      ],
      "name": "balanceOf",
      "outputs": [
        {
          "internalType": "uint256",
          "name": "",
          "type": "uint256"
        }
      ],
      "stateMutability": "view",
      "type": "function"
    },
    {
      "inputs": [
        {
          "internalType": "uint256",
          "name": "value",
          "type": "uint256"
        }
      ],
      "name": "burn",
      "outputs": [],
      "stateMutability": "nonpayable",
      "type": "function"
    },
    {
      "inputs": [
        {
          "internalType": "address",
          "name": "account",
          "type": "address"
        },
        {
          "internalType": "uint256",
          "name": "value",
          "type": "uint256"
        }
      ],
      "name": "burnFrom",
      "outputs": [],
      "stateMutability": "nonpayable",
      "type": "function"
    },
    {
      "inputs": [],
      "name": "decimals",
      "outputs": [
        {
          "internalType": "uint8",
          "name": "",
          "type": "uint8"
        }
      ],
      "stateMutability": "view",
      "type": "function"
    },
    {
      "inputs": [
        {
          "internalType": "address",
          "name": "to",
          "type": "address"
        },
        {
          "internalType": "uint256",
          "name": "amount",
          "type": "uint256"
        }
      ],
      "name": "mint",
      "outputs": [],
      "stateMutability": "nonpayable",
      "type": "function"
    },
    {
      "inputs": [],
      "name": "name",
      "outputs": [
        {
          "internalType": "string",
          "name": "",
          "type": "string"
        }
      ],
      "stateMutability": "view",
      "type": "function"
    },
    {
      "inputs": [],
      "name": "owner",
      "outputs": [
        {
          "internalType": "address",
          "name": "",
          "type": "address"
        }
      ],
      "stateMutability": "view",
      "type": "function"
    },
    {
      "inputs": [],
      "name": "pause",
      "outputs": [],
      "stateMutability": "nonpayable",
      "type": "function"
    },
    {
      "inputs": [],
      "name": "paused",
      "outputs": [
        {
          "internalType": "bool",
          "name": "",
          "type": "bool"
        }
      ],
      "stateMutability": "view",
      "type": "function"
    },
    {
      "inputs": [],
      "name": "renounceOwnership",
      "outputs": [],
      "stateMutability": "nonpayable",
      "type": "function"
    },
    {
      "inputs": [],
      "name": "symbol",
      "outputs": [
        {
          "internalType": "string",
          "name": "",
          "type": "string"
        }
      ],
      "stateMutability": "view",
      "type": "function"
    },
    {
      "inputs": [],
      "name": "totalSupply",
      "outputs": [
        {
          "internalType": "uint256",
          "name": "",
          "type": "uint256"
        }
      ],
      "stateMutability": "view",
      "type": "function"
    },
    {
      "inputs": [
        {
          "internalType": "address",
          "name": "to",
          "type": "address"
        },
        {
          "internalType": "uint256",
          "name": "value",
          "type": "uint256"
        }
      ],
      "name": "transfer",
      "outputs": [
        {
          "internalType": "bool",
          "name": "",
          "type": "bool"
        }
      ],
      "stateMutability": "nonpayable",
      "type": "function"
    },
    {
      "inputs": [
        {
          "internalType": "address",
          "name": "from",
          "type": "address"
        },
        {
          "internalType": "address",
          "name": "to",
          "type": "address"
        },
        {
          "internalType": "uint256",
          "name": "value",
          "type": "uint256"
        }
      ],
      "name": "transferFrom",
      "outputs": [
        {
          "internalType": "bool",
          "name": "",
          "type": "bool"
        }
      ],
      "stateMutability": "nonpayable",
      "type": "function"
    },
    {
      "inputs": [
        {
          "internalType": "address",
          "name": "newOwner",
          "type": "address"
        }
      ],
      "name": "transferOwnership",
      "outputs": [],
      "stateMutability": "nonpayable",
      "type": "function"
    },
    {
      "inputs": [],
      "name": "unpause",
      "outputs": [],
      "stateMutability": "nonpayable",
      "type": "function"
    }
  ],
  "bytecode": "0x608060405234801561001057600080fd5b5060405161211638038061211683398181016040528101906100329190610612565b806040518060400160405280600581526020017f53706964790000000000000000000000000000000000000000000000000000008152506040518060400160405280600381526020017f535044000000000000000000000000000000000000000000000000000000000081525081600390816100ae91906108a2565b5080600490816100be91906108a2565b5050506000600560006101000a81548160ff021916908315150217905550600073ffffffffffffffffffffffffffffffffffffffff168173ffffffffffffffffffffffffffffffffffffffff160361014e5760006040517f1e4fbdf70000000000000000000000000000000000000000000000000000000081526004016101459190610983565b60405180910390fd5b61015d8161019b60201b60201c565b506101948261017061026160201b60201c565b600a61017c9190610b0d565b6127106101899190610b58565b61026a60201b60201c565b5050610c2f565b6000600560019054906101000a900473ffffffffffffffffffffffffffffffffffffffff16905081600560016101000a81548173ffffffffffffffffffffffffffffffffffffffff021916908373ffffffffffffffffffffffffffffffffffffffff1602179055508173ffffffffffffffffffffffffffffffffffffffff168173ffffffffffffffffffffffffffffffffffffffff167f8be0079c531659141344cd1fd0a4f28419497f9722a3daafe3b4186f6b6457e060405160405180910390a35050565b60006012905090565b600073ffffffffffffffffffffffffffffffffffffffff168273ffffffffffffffffffffffffffffffffffffffff16036102dc5760006040517fec442f050000000000000000000000000000000000000000000000000000000081526004016102d39190610983565b60405180910390fd5b6102ee600083836102f260201b60201c565b5050565b61030383838361030860201b60201c565b505050565b61031661032c60201b60201c565b61032783838361037360201b60201c565b505050565b61033a61059860201b60201c565b15610371576040517fd93c066500000000000000000000000000000000000000000000000000000000815260040160405180910390fd5b565b600073ffffffffffffffffffffffffffffffffffffffff168373ffffffffffffffffffffffffffffffffffffffff16036103c55780600260008282546103b99190610b9a565b92505081905550610498565b60008060008573ffffffffffffffffffffffffffffffffffffffff1673ffffffffffffffffffffffffffffffffffffffff16815260200190815260200160002054905081811015610451578381836040517fe450d38c00000000000000000000000000000000000000000000000000000000815260040161044893929190610bdd565b60405180910390fd5b8181036000808673ffffffffffffffffffffffffffffffffffffffff1673ffffffffffffffffffffffffffffffffffffffff16815260200190815260200160002081905550505b600073ffffffffffffffffffffffffffffffffffffffff168273ffffffffffffffffffffffffffffffffffffffff16036104e1578060026000828254039250508190555061052e565b806000808473ffffffffffffffffffffffffffffffffffffffff1673ffffffffffffffffffffffffffffffffffffffff168152602001908152602001600020600082825401925050819055505b8173ffffffffffffffffffffffffffffffffffffffff168373ffffffffffffffffffffffffffffffffffffffff167fddf252ad1be2c89b69c2b068fc378daa952ba7f163c4a11628f55a4df523b3ef8360405161058b9190610c14565b60405180910390a3505050565b6000600560009054906101000a900460ff16905090565b600080fd5b600073ffffffffffffffffffffffffffffffffffffffff82169050919050565b60006105df826105b4565b9050919050565b6105ef816105d4565b81146105fa57600080fd5b50565b60008151905061060c816105e6565b92915050565b60008060408385031215610629576106286105af565b5b6000610637858286016105fd565b9250506020610648858286016105fd565b9150509250929050565b600081519050919050565b7f4e487b7100000000000000000000000000000000000000000000000000000000600052604160045260246000fd5b7f4e487b7100000000000000000000000000000000000000000000000000000000600052602260045260246000fd5b600060028204905060018216806106d357607f821691505b6020821081036106e6576106e561068c565b5b50919050565b60008190508160005260206000209050919050565b60006020601f8301049050919050565b600082821b905092915050565b60006008830261074e7fffffffffffffffffffffffffffffffffffffffffffffffffffffffffffffffff82610711565b6107588683610711565b95508019841693508086168417925050509392505050565b6000819050919050565b6000819050919050565b600061079f61079a61079584610770565b61077a565b610770565b9050919050565b6000819050919050565b6107b983610784565b6107cd6107c5826107a6565b84845461071e565b825550505050565b600090565b6107e26107d5565b6107ed8184846107b0565b505050565b5b81811015610811576108066000826107da565b6001810190506107f3565b5050565b601f82111561085657610827816106ec565b61083084610701565b8101602085101561083f578190505b61085361084b85610701565b8301826107f2565b50505b505050565b600082821c905092915050565b60006108796000198460080261085b565b1980831691505092915050565b60006108928383610868565b9150826002028217905092915050565b6108ab82610652565b67ffffffffffffffff8111156108c4576108c361065d565b5b6108ce82546106bb565b6108d9828285610815565b600060209050601f83116001811461090c57600084156108fa578287015190505b6109048582610886565b86555061096c565b601f19841661091a866106ec565b60005b828110156109425784890151825560018201915060208501945060208101905061091d565b8683101561095f578489015161095b601f891682610868565b8355505b6001600288020188555050505b505050505050565b61097d816105d4565b82525050565b60006020820190506109986000830184610974565b92915050565b7f4e487b7100000000000000000000000000000000000000000000000000000000600052601160045260246000fd5b60008160011c9050919050565b6000808291508390505b6001851115610a2457808604811115610a00576109ff61099e565b5b6001851615610a0f5780820291505b8081029050610a1d856109cd565b94506109e4565b94509492505050565b600082610a3d5760019050610af9565b81610a4b5760009050610af9565b8160018114610a615760028114610a6b57610a9a565b6001915050610af9565b60ff841115610a7d57610a7c61099e565b5b8360020a915084821115610a9457610a9361099e565b5b50610af9565b5060208310610133831016604e8410600b8410161715610acf5782820a905083811115610aca57610ac961099e565b5b610af9565b610adc84848460016109da565b92509050818404811115610af357610af261099e565b5b81810290505b9392505050565b600060ff82169050919050565b6000610b1882610770565b9150610b2383610b00565b9250610b507fffffffffffffffffffffffffffffffffffffffffffffffffffffffffffffffff8484610a2d565b905092915050565b6000610b6382610770565b9150610b6e83610770565b9250828202610b7c81610770565b91508282048414831517610b9357610b9261099e565b5b5092915050565b6000610ba582610770565b9150610bb083610770565b9250828201905080821115610bc857610bc761099e565b5b92915050565b610bd781610770565b82525050565b6000606082019050610bf26000830186610974565b610bff6020830185610bce565b610c0c6040830184610bce565b949350505050565b6000602082019050610c296000830184610bce565b92915050565b6114d880610c3e6000396000f3fe608060405234801561001057600080fd5b50600436106101165760003560e01c806370a08231116100a25780638da5cb5b116100715780638da5cb5b1461029557806395d89b41146102b3578063a9059cbb146102d1578063dd62ed3e14610301578063f2fde38b1461033157610116565b806370a0823114610235578063715018a61461026557806379cc67901461026f5780638456cb591461028b57610116565b8063313ce567116100e9578063313ce567146101b75780633f4ba83a146101d557806340c10f19146101df57806342966c68146101fb5780635c975abb1461021757610116565b806306fdde031461011b578063095ea7b31461013957806318160ddd1461016957806323b872dd14610187575b600080fd5b61012361034d565b60405161013091906110ff565b60405180910390f35b610153600480360381019061014e91906111ba565b6103df565b6040516101609190611215565b60405180910390f35b610171610402565b60405161017e919061123f565b60405180910390f35b6101a1600480360381019061019c919061125a565b61040c565b6040516101ae9190611215565b60405180910390f35b6101bf61043b565b6040516101cc91906112c9565b60405180910390f35b6101dd610444565b005b6101f960048036038101906101f491906111ba565b610456565b005b610215600480360381019061021091906112e4565b61046c565b005b61021f610480565b60405161022c9190611215565b60405180910390f35b61024f600480360381019061024a9190611311565b610497565b60405161025c919061123f565b60405180910390f35b61026d6104df565b005b610289600480360381019061028491906111ba565b6104f3565b005b610293610513565b005b61029d610525565b6040516102aa919061134d565b60405180910390f35b6102bb61054f565b6040516102c891906110ff565b60405180910390f35b6102eb60048036038101906102e691906111ba565b6105e1565b6040516102f89190611215565b60405180910390f35b61031b60048036038101906103169190611368565b610604565b604051610328919061123f565b60405180910390f35b61034b60048036038101906103469190611311565b61068b565b005b60606003805461035c906113d7565b80601f0160208091040260200160405190810160405280929190818152602001828054610388906113d7565b80156103d55780601f106103aa576101008083540402835291602001916103d5565b820191906000526020600020905b8154815290600101906020018083116103b857829003601f168201915b5050505050905090565b6000806103ea610711565b90506103f7818585610719565b600191505092915050565b6000600254905090565b600080610417610711565b905061042485828561072b565b61042f8585856107bf565b60019150509392505050565b60006012905090565b61044c6108b3565b61045461093a565b565b61045e6108b3565b610468828261099d565b5050565b61047d610477610711565b82610a1f565b50565b6000600560009054906101000a900460ff16905090565b60008060008373ffffffffffffffffffffffffffffffffffffffff1673ffffffffffffffffffffffffffffffffffffffff168152602001908152602001600020549050919050565b6104e76108b3565b6104f16000610aa1565b565b610505826104ff610711565b8361072b565b61050f8282610a1f565b5050565b61051b6108b3565b610523610b67565b565b6000600560019054906101000a900473ffffffffffffffffffffffffffffffffffffffff16905090565b60606004805461055e906113d7565b80601f016020809104026020016040519081016040528092919081815260200182805461058a906113d7565b80156105d75780601f106105ac576101008083540402835291602001916105d7565b820191906000526020600020905b8154815290600101906020018083116105ba57829003601f168201915b5050505050905090565b6000806105ec610711565b90506105f98185856107bf565b600191505092915050565b6000600160008473ffffffffffffffffffffffffffffffffffffffff1673ffffffffffffffffffffffffffffffffffffffff16815260200190815260200160002060008373ffffffffffffffffffffffffffffffffffffffff1673ffffffffffffffffffffffffffffffffffffffff16815260200190815260200160002054905092915050565b6106936108b3565b600073ffffffffffffffffffffffffffffffffffffffff168173ffffffffffffffffffffffffffffffffffffffff16036107055760006040517f1e4fbdf70000000000000000000000000000000000000000000000000000000081526004016106fc919061134d565b60405180910390fd5b61070e81610aa1565b50565b600033905090565b6107268383836001610bca565b505050565b60006107378484610604565b90507fffffffffffffffffffffffffffffffffffffffffffffffffffffffffffffffff81146107b957818110156107a9578281836040517ffb8f41b20000000000000000000000000000000000000000000000000000000081526004016107a093929190611408565b60405180910390fd5b6107b884848484036000610bca565b5b50505050565b600073ffffffffffffffffffffffffffffffffffffffff168373ffffffffffffffffffffffffffffffffffffffff16036108315760006040517f96c6fd1e000000000000000000000000000000000000000000000000000000008152600401610828919061134d565b60405180910390fd5b600073ffffffffffffffffffffffffffffffffffffffff168273ffffffffffffffffffffffffffffffffffffffff16036108a35760006040517fec442f0500000000000000000000000000000000000000000000000000000000815260040161089a919061134d565b60405180910390fd5b6108ae838383610da1565b505050565b6108bb610711565b73ffffffffffffffffffffffffffffffffffffffff166108d9610525565b73ffffffffffffffffffffffffffffffffffffffff1614610938576108fc610711565b6040517f118cdaa700000000000000000000000000000000000000000000000000000000815260040161092f919061134d565b60405180910390fd5b565b610942610db1565b6000600560006101000a81548160ff0219169083151502179055507f5db9ee0a495bf2e6ff9c91a7834c1ba4fdd244a5e8aa4e537bd38aeae4b073aa610986610711565b604051610993919061134d565b60405180910390a1565b600073ffffffffffffffffffffffffffffffffffffffff168273ffffffffffffffffffffffffffffffffffffffff1603610a0f5760006040517fec442f05000000000000000000000000000000000000000000000000000000008152600401610a06919061134d565b60405180910390fd5b610a1b60008383610da1565b5050565b600073ffffffffffffffffffffffffffffffffffffffff168273ffffffffffffffffffffffffffffffffffffffff1603610a915760006040517f96c6fd1e000000000000000000000000000000000000000000000000000000008152600401610a88919061134d565b60405180910390fd5b610a9d82600083610da1565b5050565b6000600560019054906101000a900473ffffffffffffffffffffffffffffffffffffffff16905081600560016101000a81548173ffffffffffffffffffffffffffffffffffffffff021916908373ffffffffffffffffffffffffffffffffffffffff1602179055508173ffffffffffffffffffffffffffffffffffffffff168173ffffffffffffffffffffffffffffffffffffffff167f8be0079c531659141344cd1fd0a4f28419497f9722a3daafe3b4186f6b6457e060405160405180910390a35050565b610b6f610df1565b6001600560006101000a81548160ff0219169083151502179055507f62e78cea01bee320cd4e420270b5ea74000d11b0c9f74754ebdbfc544b05a258610bb3610711565b604051610bc0919061134d565b60405180910390a1565b600073ffffffffffffffffffffffffffffffffffffffff168473ffffffffffffffffffffffffffffffffffffffff1603610c3c5760006040517fe602df05000000000000000000000000000000000000000000000000000000008152600401610c33919061134d565b60405180910390fd5b600073ffffffffffffffffffffffffffffffffffffffff168373ffffffffffffffffffffffffffffffffffffffff1603610cae5760006040517f94280d62000000000000000000000000000000000000000000000000000000008152600401610ca5919061134d565b60405180910390fd5b81600160008673ffffffffffffffffffffffffffffffffffffffff1673ffffffffffffffffffffffffffffffffffffffff16815260200190815260200160002060008573ffffffffffffffffffffffffffffffffffffffff1673ffffffffffffffffffffffffffffffffffffffff168152602001908152602001600020819055508015610d9b578273ffffffffffffffffffffffffffffffffffffffff168473ffffffffffffffffffffffffffffffffffffffff167f8c5be1e5ebec7d5bd14f71427d1e84f3dd0314c0f7b2291e5b200ac8c7c3b92584604051610d92919061123f565b60405180910390a35b50505050565b610dac838383610e32565b505050565b610db9610480565b610def576040517f8dfc202b00000000000000000000000000000000000000000000000000000000815260040160405180910390fd5b565b610df9610480565b15610e30576040517fd93c066500000000000000000000000000000000000000000000000000000000815260040160405180910390fd5b565b610e3a610df1565b610e45838383610e4a565b505050565b600073ffffffffffffffffffffffffffffffffffffffff168373ffffffffffffffffffffffffffffffffffffffff1603610e9c578060026000828254610e90919061146e565b92505081905550610f6f565b60008060008573ffffffffffffffffffffffffffffffffffffffff1673ffffffffffffffffffffffffffffffffffffffff16815260200190815260200160002054905081811015610f28578381836040517fe450d38c000000000000000000000000000000000000000000000000000000008152600401610f1f93929190611408565b60405180910390fd5b8181036000808673ffffffffffffffffffffffffffffffffffffffff1673ffffffffffffffffffffffffffffffffffffffff16815260200190815260200160002081905550505b600073ffffffffffffffffffffffffffffffffffffffff168273ffffffffffffffffffffffffffffffffffffffff1603610fb85780600260008282540392505081905550611005565b806000808473ffffffffffffffffffffffffffffffffffffffff1673ffffffffffffffffffffffffffffffffffffffff168152602001908152602001600020600082825401925050819055505b8173ffffffffffffffffffffffffffffffffffffffff168373ffffffffffffffffffffffffffffffffffffffff167fddf252ad1be2c89b69c2b068fc378daa952ba7f163c4a11628f55a4df523b3ef83604051611062919061123f565b60405180910390a3505050565b600081519050919050565b600082825260208201905092915050565b60005b838110156110a957808201518184015260208101905061108e565b60008484015250505050565b6000601f19601f8301169050919050565b60006110d18261106f565b6110db818561107a565b93506110eb81856020860161108b565b6110f4816110b5565b840191505092915050565b6000602082019050818103600083015261111981846110c6565b905092915050565b600080fd5b600073ffffffffffffffffffffffffffffffffffffffff82169050919050565b600061115182611126565b9050919050565b61116181611146565b811461116c57600080fd5b50565b60008135905061117e81611158565b92915050565b6000819050919050565b61119781611184565b81146111a257600080fd5b50565b6000813590506111b48161118e565b92915050565b600080604083850312156111d1576111d0611121565b5b60006111df8582860161116f565b92505060206111f0858286016111a5565b9150509250929050565b60008115159050919050565b61120f816111fa565b82525050565b600060208201905061122a6000830184611206565b92915050565b61123981611184565b82525050565b60006020820190506112546000830184611230565b92915050565b60008060006060848603121561127357611272611121565b5b60006112818682870161116f565b93505060206112928682870161116f565b92505060406112a3868287016111a5565b9150509250925092565b600060ff82169050919050565b6112c3816112ad565b82525050565b60006020820190506112de60008301846112ba565b92915050565b6000602082840312156112fa576112f9611121565b5b6000611308848285016111a5565b91505092915050565b60006020828403121561132757611326611121565b5b60006113358482850161116f565b91505092915050565b61134781611146565b82525050565b6000602082019050611362600083018461133e565b92915050565b6000806040838503121561137f5761137e611121565b5b600061138d8582860161116f565b925050602061139e8582860161116f565b9150509250929050565b7f4e487b7100000000000000000000000000000000000000000000000000000000600052602260045260246000fd5b600060028204905060018216806113ef57607f821691505b602082108103611402576114016113a8565b5b50919050565b600060608201905061141d600083018661133e565b61142a6020830185611230565b6114376040830184611230565b949350505050565b7f4e487b7100000000000000000000000000000000000000000000000000000000600052601160045260246000fd5b600061147982611184565b915061148483611184565b925082820190508082111561149c5761149b61143f565b5b9291505056fea264697066735822122081f06663d193b7796b0044ba0744ceceb22555fc36e5273509b793eeed2c6bc864736f6c634300081e0033",
  "linkReferences": {},
  "deployedLinkReferences": {}
}