{
  "_format": "hh3-artifact-1",
  "contractName": "SpidyToken",
  "sourceName": "contracts/SpidyToken.sol",
  "abi": [
    {
      "inputs": [
        {
          "internalType": "uint256",
          "name": "_totalTokenSupply",
          "type": "uint256"
        }
      ],
      "stateMutability": "nonpayable",
      "type": "constructor"
    },
    {
      "anonymous": false,
      "inputs": [
        {
          "indexed": true,
          "internalType": "address",
          "name": "from",
          "type": "address"
        },
        {
          "indexed": true,
          "internalType": "address",
          "name": "to",
          "type": "address"
        },
        {
          "indexed": false,
          "internalType": "uint256",
          "name": "value",
          "type": "uint256"
        }
      ],
      "name": "Transfer",
      "type": "event"
    },
    {
      "inputs": [
        {
          "internalType": "address",
          "name": "_owner",
          "type": "address"
        },
        {
          "internalType": "address",
          "name": "_spender",
          "type": "address"
        }
      ],
      "name": "allowance",
      "outputs": [
        {
          "internalType": "uint256",
          "name": "",
          "type": "uint256"
        }
      ],
      "stateMutability": "view",
      "type": "function"
    },
    {
      "inputs": [
        {
          "internalType": "address",
          "name": "account",
          "type": "address"
        }
      ],
      "name": "balanceOf_view",
      "outputs": [
        {
          "internalType": "uint256",
          "name": "",
          "type": "uint256"
        }
      ],
      "stateMutability": "view",
      "type": "function"
    },
    {
      "inputs": [],
      "name": "decimals",
      "outputs": [
        {
          "internalType": "uint8",
          "name": "",
          "type": "uint8"
        }
      ],
      "stateMutability": "pure",
      "type": "function"
    },
    {
      "inputs": [],
      "name": "name",
      "outputs": [
        {
          "internalType": "string",
          "name": "",
          "type": "string"
        }
      ],
      "stateMutability": "pure",
      "type": "function"
    },
    {
      "inputs": [],
      "name": "symbol",
      "outputs": [
        {
          "internalType": "string",
          "name": "",
          "type": "string"
        }
      ],
      "stateMutability": "pure",
      "type": "function"
    },
    {
      "inputs": [],
      "name": "totalSupply",
      "outputs": [
        {
          "internalType": "uint256",
          "name": "",
          "type": "uint256"
        }
      ],
      "stateMutability": "view",
      "type": "function"
    },
    {
      "inputs": [
        {
          "internalType": "address",
          "name": "_to",
          "type": "address"
        },
        {
          "internalType": "uint256",
          "name": "_value",
          "type": "uint256"
        }
      ],
      "name": "transfer",
      "outputs": [
        {
          "internalType": "bool",
          "name": "success",
          "type": "bool"
        }
      ],
      "stateMutability": "nonpayable",
      "type": "function"
    }
  ],
  "bytecode": "0x60a060405234801562000010575f80fd5b5060405162000eb138038062000eb18339818101604052810190620000369190620001df565b335f806101000a81548173ffffffffffffffffffffffffffffffffffffffff021916908373ffffffffffffffffffffffffffffffffffffffff1602179055506012600a62000085919062000398565b81620000929190620003e8565b60808181525050600a608051620000aa91906200045f565b60018190555060015460025f805f9054906101000a900473ffffffffffffffffffffffffffffffffffffffff1673ffffffffffffffffffffffffffffffffffffffff1673ffffffffffffffffffffffffffffffffffffffff1681526020019081526020015f20819055505f8054906101000a900473ffffffffffffffffffffffffffffffffffffffff1673ffffffffffffffffffffffffffffffffffffffff165f73ffffffffffffffffffffffffffffffffffffffff167fddf252ad1be2c89b69c2b068fc378daa952ba7f163c4a11628f55a4df523b3ef600154604051620001949190620004a7565b60405180910390a350620004c2565b5f80fd5b5f819050919050565b620001bb81620001a7565b8114620001c6575f80fd5b50565b5f81519050620001d981620001b0565b92915050565b5f60208284031215620001f757620001f6620001a3565b5b5f6200020684828501620001c9565b91505092915050565b7f4e487b71000000000000000000000000000000000000000000000000000000005f52601160045260245ffd5b5f8160011c9050919050565b5f808291508390505b600185111562000299578086048111156200027157620002706200020f565b5b6001851615620002815780820291505b808102905062000291856200023c565b945062000251565b94509492505050565b5f82620002b3576001905062000385565b81620002c2575f905062000385565b8160018114620002db5760028114620002e6576200031c565b600191505062000385565b60ff841115620002fb57620002fa6200020f565b5b8360020a9150848211156200031557620003146200020f565b5b5062000385565b5060208310610133831016604e8410600b8410161715620003565782820a90508381111562000350576200034f6200020f565b5b62000385565b62000365848484600162000248565b925090508184048111156200037f576200037e6200020f565b5b81810290505b9392505050565b5f60ff82169050919050565b5f620003a482620001a7565b9150620003b1836200038c565b9250620003e07fffffffffffffffffffffffffffffffffffffffffffffffffffffffffffffffff8484620002a2565b905092915050565b5f620003f482620001a7565b91506200040183620001a7565b92508282026200041181620001a7565b915082820484148315176200042b576200042a6200020f565b5b5092915050565b7f4e487b71000000000000000000000000000000000000000000000000000000005f52601260045260245ffd5b5f6200046b82620001a7565b91506200047883620001a7565b9250826200048b576200048a62000432565b5b828204905092915050565b620004a181620001a7565b82525050565b5f602082019050620004bc5f83018462000496565b92915050565b6080516109d6620004db5f395f6101c701526109d65ff3fe608060405234801561000f575f80fd5b506004361061007b575f3560e01c806394e1d6261161005957806394e1d626146100d957806395d89b4114610109578063a9059cbb14610127578063dd62ed3e146101575761007b565b806306fdde031461007f57806318160ddd1461009d578063313ce567146100bb575b5f80fd5b610087610187565b60405161009491906105c8565b60405180910390f35b6100a56101c4565b6040516100b29190610600565b60405180910390f35b6100c36101eb565b6040516100d09190610634565b60405180910390f35b6100f360048036038101906100ee91906106ab565b6101f3565b6040516101009190610600565b60405180910390f35b610111610239565b60405161011e91906105c8565b60405180910390f35b610141600480360381019061013c9190610700565b610276565b60405161014e9190610758565b60405180910390f35b610171600480360381019061016c9190610771565b6104bc565b60405161017e9190610600565b60405180910390f35b60606040518060400160405280600581526020017f5370696479000000000000000000000000000000000000000000000000000000815250905090565b5f7f0000000000000000000000000000000000000000000000000000000000000000905090565b5f6012905090565b5f60025f8373ffffffffffffffffffffffffffffffffffffffff1673ffffffffffffffffffffffffffffffffffffffff1681526020019081526020015f20549050919050565b60606040518060400160405280600381526020017f5350440000000000000000000000000000000000000000000000000000000000815250905090565b5f8082116102b9576040517f08c379a00000000000000000000000000000000000000000000000000000000081526004016102b0906107f9565b60405180910390fd5b5f73ffffffffffffffffffffffffffffffffffffffff168373ffffffffffffffffffffffffffffffffffffffff1603610327576040517f08c379a000000000000000000000000000000000000000000000000000000000815260040161031e90610887565b60405180910390fd5b8160025f3373ffffffffffffffffffffffffffffffffffffffff1673ffffffffffffffffffffffffffffffffffffffff1681526020019081526020015f205410156103a7576040517f08c379a000000000000000000000000000000000000000000000000000000000815260040161039e906108ef565b60405180910390fd5b8160025f3373ffffffffffffffffffffffffffffffffffffffff1673ffffffffffffffffffffffffffffffffffffffff1681526020019081526020015f205f8282546103f3919061093a565b925050819055508160025f8573ffffffffffffffffffffffffffffffffffffffff1673ffffffffffffffffffffffffffffffffffffffff1681526020019081526020015f205f828254610446919061096d565b925050819055508273ffffffffffffffffffffffffffffffffffffffff163373ffffffffffffffffffffffffffffffffffffffff167fddf252ad1be2c89b69c2b068fc378daa952ba7f163c4a11628f55a4df523b3ef846040516104aa9190610600565b60405180910390a36001905092915050565b5f60035f8473ffffffffffffffffffffffffffffffffffffffff1673ffffffffffffffffffffffffffffffffffffffff1681526020019081526020015f205f8373ffffffffffffffffffffffffffffffffffffffff1673ffffffffffffffffffffffffffffffffffffffff1681526020019081526020015f2054905092915050565b5f81519050919050565b5f82825260208201905092915050565b5f5b8381101561057557808201518184015260208101905061055a565b5f8484015250505050565b5f601f19601f8301169050919050565b5f61059a8261053e565b6105a48185610548565b93506105b4818560208601610558565b6105bd81610580565b840191505092915050565b5f6020820190508181035f8301526105e08184610590565b905092915050565b5f819050919050565b6105fa816105e8565b82525050565b5f6020820190506106135f8301846105f1565b92915050565b5f60ff82169050919050565b61062e81610619565b82525050565b5f6020820190506106475f830184610625565b92915050565b5f80fd5b5f73ffffffffffffffffffffffffffffffffffffffff82169050919050565b5f61067a82610651565b9050919050565b61068a81610670565b8114610694575f80fd5b50565b5f813590506106a581610681565b92915050565b5f602082840312156106c0576106bf61064d565b5b5f6106cd84828501610697565b91505092915050565b6106df816105e8565b81146106e9575f80fd5b50565b5f813590506106fa816106d6565b92915050565b5f80604083850312156107165761071561064d565b5b5f61072385828601610697565b9250506020610734858286016106ec565b9150509250929050565b5f8115159050919050565b6107528161073e565b82525050565b5f60208201905061076b5f830184610749565b92915050565b5f80604083850312156107875761078661064d565b5b5f61079485828601610697565b92505060206107a585828601610697565b9150509250929050565b7f5472616e736665722076616c7565206d757374206265203e20300000000000005f82015250565b5f6107e3601a83610548565b91506107ee826107af565b602082019050919050565b5f6020820190508181035f830152610810816107d7565b9050919050565b7f43616e6e6f74207472616e7366657220746f20616464726573732076616c75655f8201527f205a65726f000000000000000000000000000000000000000000000000000000602082015250565b5f610871602583610548565b915061087c82610817565b604082019050919050565b5f6020820190508181035f83015261089e81610865565b9050919050565b7f496e73756666696369656e742062616c616e63650000000000000000000000005f82015250565b5f6108d9601483610548565b91506108e4826108a5565b602082019050919050565b5f6020820190508181035f830152610906816108cd565b9050919050565b7f4e487b71000000000000000000000000000000000000000000000000000000005f52601160045260245ffd5b5f610944826105e8565b915061094f836105e8565b92508282039050818111156109675761096661090d565b5b92915050565b5f610977826105e8565b9150610982836105e8565b925082820190508082111561099a5761099961090d565b5b9291505056fea26469706673582212202e41fde5e3827ef6d0b39df02684d4685d4f6a821bd943530c5ac311b7da649a64736f6c63430008140033",
  "linkReferences": {},
  "deployedLinkReferences": {},
  "immutableReferences": {
    "14": [
      {
        "length": 32,
        "start": 455
      }
    ]
  },
  "inputSourceName": "project/contracts/SpidyToken.sol",
  "buildInfoId": "solc-0_8_20-44e28a92c2ac7f269d91e31020b3e5733b19b13b"
}