{
  "_format": "hh-sol-artifact-1",
  "contractName": "ItsMe",
  "sourceName": "contracts/own/1155new.sol",
  "abi": [
    {
      "inputs": [
        {
          "internalType": "address",
          "name": "initialOwner",
          "type": "address"
        }
      ],
      "stateMutability": "nonpayable",
      "type": "constructor"
    },
    {
      "inputs": [
        {
          "internalType": "address",
          "name": "sender",
          "type": "address"
        },
        {
          "internalType": "uint256",
          "name": "balance",
          "type": "uint256"
        },
        {
          "internalType": "uint256",
          "name": "needed",
          "type": "uint256"
        },
        {
          "internalType": "uint256",
          "name": "tokenId",
          "type": "uint256"
        }
      ],
      "name": "ERC1155InsufficientBalance",
      "type": "error"
    },
    {
      "inputs": [
        {
          "internalType": "address",
          "name": "approver",
          "type": "address"
        }
      ],
      "name": "ERC1155InvalidApprover",
      "type": "error"
    },
    {
      "inputs": [
        {
          "internalType": "uint256",
          "name": "idsLength",
          "type": "uint256"
        },
        {
          "internalType": "uint256",
          "name": "valuesLength",
          "type": "uint256"
        }
      ],
      "name": "ERC1155InvalidArrayLength",
      "type": "error"
    },
    {
      "inputs": [
        {
          "internalType": "address",
          "name": "operator",
          "type": "address"
        }
      ],
      "name": "ERC1155InvalidOperator",
      "type": "error"
    },
    {
      "inputs": [
        {
          "internalType": "address",
          "name": "receiver",
          "type": "address"
        }
      ],
      "name": "ERC1155InvalidReceiver",
      "type": "error"
    },
    {
      "inputs": [
        {
          "internalType": "address",
          "name": "sender",
          "type": "address"
        }
      ],
      "name": "ERC1155InvalidSender",
      "type": "error"
    },
    {
      "inputs": [
        {
          "internalType": "address",
          "name": "operator",
          "type": "address"
        },
        {
          "internalType": "address",
          "name": "owner",
          "type": "address"
        }
      ],
      "name": "ERC1155MissingApprovalForAll",
      "type": "error"
    },
    {
      "inputs": [
        {
          "internalType": "address",
          "name": "owner",
          "type": "address"
        }
      ],
      "name": "OwnableInvalidOwner",
      "type": "error"
    },
    {
      "inputs": [
        {
          "internalType": "address",
          "name": "account",
          "type": "address"
        }
      ],
      "name": "OwnableUnauthorizedAccount",
      "type": "error"
    },
    {
      "anonymous": false,
      "inputs": [
        {
          "indexed": true,
          "internalType": "address",
          "name": "account",
          "type": "address"
        },
        {
          "indexed": true,
          "internalType": "address",
          "name": "operator",
          "type": "address"
        },
        {
          "indexed": false,
          "internalType": "bool",
          "name": "approved",
          "type": "bool"
        }
      ],
      "name": "ApprovalForAll",
      "type": "event"
    },
    {
      "anonymous": false,
      "inputs": [
        {
          "indexed": true,
          "internalType": "address",
          "name": "previousOwner",
          "type": "address"
        },
        {
          "indexed": true,
          "internalType": "address",
          "name": "newOwner",
          "type": "address"
        }
      ],
      "name": "OwnershipTransferred",
      "type": "event"
    },
    {
      "anonymous": false,
      "inputs": [
        {
          "indexed": true,
          "internalType": "address",
          "name": "operator",
          "type": "address"
        },
        {
          "indexed": true,
          "internalType": "address",
          "name": "from",
          "type": "address"
        },
        {
          "indexed": true,
          "internalType": "address",
          "name": "to",
          "type": "address"
        },
        {
          "indexed": false,
          "internalType": "uint256[]",
          "name": "ids",
          "type": "uint256[]"
        },
        {
          "indexed": false,
          "internalType": "uint256[]",
          "name": "values",
          "type": "uint256[]"
        }
      ],
      "name": "TransferBatch",
      "type": "event"
    },
    {
      "anonymous": false,
      "inputs": [
        {
          "indexed": true,
          "internalType": "address",
          "name": "operator",
          "type": "address"
        },
        {
          "indexed": true,
          "internalType": "address",
          "name": "from",
          "type": "address"
        },
        {
          "indexed": true,
          "internalType": "address",
          "name": "to",
          "type": "address"
        },
        {
          "indexed": false,
          "internalType": "uint256",
          "name": "id",
          "type": "uint256"
        },
        {
          "indexed": false,
          "internalType": "uint256",
          "name": "value",
          "type": "uint256"
        }
      ],
      "name": "TransferSingle",
      "type": "event"
    },
    {
      "anonymous": false,
      "inputs": [
        {
          "indexed": false,
          "internalType": "string",
          "name": "value",
          "type": "string"
        },
        {
          "indexed": true,
          "internalType": "uint256",
          "name": "id",
          "type": "uint256"
        }
      ],
      "name": "URI",
      "type": "event"
    },
    {
      "inputs": [
        {
          "internalType": "address",
          "name": "account",
          "type": "address"
        },
        {
          "internalType": "uint256",
          "name": "id",
          "type": "uint256"
        }
      ],
      "name": "balanceOf",
      "outputs": [
        {
          "internalType": "uint256",
          "name": "",
          "type": "uint256"
        }
      ],
      "stateMutability": "view",
      "type": "function"
    },
    {
      "inputs": [
        {
          "internalType": "address[]",
          "name": "accounts",
          "type": "address[]"
        },
        {
          "internalType": "uint256[]",
          "name": "ids",
          "type": "uint256[]"
        }
      ],
      "name": "balanceOfBatch",
      "outputs": [
        {
          "internalType": "uint256[]",
          "name": "",
          "type": "uint256[]"
        }
      ],
      "stateMutability": "view",
      "type": "function"
    },
    {
      "inputs": [
        {
          "internalType": "address",
          "name": "account",
          "type": "address"
        },
        {
          "internalType": "uint256",
          "name": "id",
          "type": "uint256"
        },
        {
          "internalType": "uint256",
          "name": "value",
          "type": "uint256"
        }
      ],
      "name": "burn",
      "outputs": [],
      "stateMutability": "nonpayable",
      "type": "function"
    },
    {
      "inputs": [
        {
          "internalType": "address",
          "name": "account",
          "type": "address"
        },
        {
          "internalType": "uint256[]",
          "name": "ids",
          "type": "uint256[]"
        },
        {
          "internalType": "uint256[]",
          "name": "values",
          "type": "uint256[]"
        }
      ],
      "name": "burnBatch",
      "outputs": [],
      "stateMutability": "nonpayable",
      "type": "function"
    },
    {
      "inputs": [
        {
          "internalType": "address",
          "name": "account",
          "type": "address"
        },
        {
          "internalType": "address",
          "name": "operator",
          "type": "address"
        }
      ],
      "name": "isApprovedForAll",
      "outputs": [
        {
          "internalType": "bool",
          "name": "",
          "type": "bool"
        }
      ],
      "stateMutability": "view",
      "type": "function"
    },
    {
      "inputs": [
        {
          "internalType": "address",
          "name": "account",
          "type": "address"
        },
        {
          "internalType": "uint256",
          "name": "id",
          "type": "uint256"
        },
        {
          "internalType": "uint256",
          "name": "amount",
          "type": "uint256"
        },
        {
          "internalType": "bytes",
          "name": "data",
          "type": "bytes"
        }
      ],
      "name": "mint",
      "outputs": [],
      "stateMutability": "nonpayable",
      "type": "function"
    },
    {
      "inputs": [
        {
          "internalType": "address",
          "name": "to",
          "type": "address"
        },
        {
          "internalType": "uint256[]",
          "name": "ids",
          "type": "uint256[]"
        },
        {
          "internalType": "uint256[]",
          "name": "amounts",
          "type": "uint256[]"
        },
        {
          "internalType": "bytes",
          "name": "data",
          "type": "bytes"
        }
      ],
      "name": "mintBatch",
      "outputs": [],
      "stateMutability": "nonpayable",
      "type": "function"
    },
    {
      "inputs": [],
      "name": "owner",
      "outputs": [
        {
          "internalType": "address",
          "name": "",
          "type": "address"
        }
      ],
      "stateMutability": "view",
      "type": "function"
    },
    {
      "inputs": [],
      "name": "renounceOwnership",
      "outputs": [],
      "stateMutability": "nonpayable",
      "type": "function"
    },
    {
      "inputs": [
        {
          "internalType": "address",
          "name": "from",
          "type": "address"
        },
        {
          "internalType": "address",
          "name": "to",
          "type": "address"
        },
        {
          "internalType": "uint256[]",
          "name": "ids",
          "type": "uint256[]"
        },
        {
          "internalType": "uint256[]",
          "name": "values",
          "type": "uint256[]"
        },
        {
          "internalType": "bytes",
          "name": "data",
          "type": "bytes"
        }
      ],
      "name": "safeBatchTransferFrom",
      "outputs": [],
      "stateMutability": "nonpayable",
      "type": "function"
    },
    {
      "inputs": [
        {
          "internalType": "address",
          "name": "from",
          "type": "address"
        },
        {
          "internalType": "address",
          "name": "to",
          "type": "address"
        },
        {
          "internalType": "uint256",
          "name": "id",
          "type": "uint256"
        },
        {
          "internalType": "uint256",
          "name": "value",
          "type": "uint256"
        },
        {
          "internalType": "bytes",
          "name": "data",
          "type": "bytes"
        }
      ],
      "name": "safeTransferFrom",
      "outputs": [],
      "stateMutability": "nonpayable",
      "type": "function"
    },
    {
      "inputs": [
        {
          "internalType": "address",
          "name": "operator",
          "type": "address"
        },
        {
          "internalType": "bool",
          "name": "approved",
          "type": "bool"
        }
      ],
      "name": "setApprovalForAll",
      "outputs": [],
      "stateMutability": "nonpayable",
      "type": "function"
    },
    {
      "inputs": [
        {
          "internalType": "bytes4",
          "name": "interfaceId",
          "type": "bytes4"
        }
      ],
      "name": "supportsInterface",
      "outputs": [
        {
          "internalType": "bool",
          "name": "",
          "type": "bool"
        }
      ],
      "stateMutability": "view",
      "type": "function"
    },
    {
      "inputs": [
        {
          "internalType": "address",
          "name": "newOwner",
          "type": "address"
        }
      ],
      "name": "transferOwnership",
      "outputs": [],
      "stateMutability": "nonpayable",
      "type": "function"
    },
    {
      "inputs": [
        {
          "internalType": "uint256",
          "name": "id",
          "type": "uint256"
        }
      ],
      "name": "uri",
      "outputs": [
        {
          "internalType": "string",
          "name": "",
          "type": "string"
        }
      ],
      "stateMutability": "pure",
      "type": "function"
    }
  ],
  "bytecode": "0x608060405234801561001057600080fd5b5060405161315e38038061315e83398181016040528101906100329190610217565b8060405180602001604052806000815250610052816100db60201b60201c565b50600073ffffffffffffffffffffffffffffffffffffffff168173ffffffffffffffffffffffffffffffffffffffff16036100c55760006040517f1e4fbdf70000000000000000000000000000000000000000000000000000000081526004016100bc9190610253565b60405180910390fd5b6100d4816100ee60201b60201c565b5050610590565b80600290816100ea91906104be565b5050565b6000600360009054906101000a900473ffffffffffffffffffffffffffffffffffffffff16905081600360006101000a81548173ffffffffffffffffffffffffffffffffffffffff021916908373ffffffffffffffffffffffffffffffffffffffff1602179055508173ffffffffffffffffffffffffffffffffffffffff168173ffffffffffffffffffffffffffffffffffffffff167f8be0079c531659141344cd1fd0a4f28419497f9722a3daafe3b4186f6b6457e060405160405180910390a35050565b600080fd5b600073ffffffffffffffffffffffffffffffffffffffff82169050919050565b60006101e4826101b9565b9050919050565b6101f4816101d9565b81146101ff57600080fd5b50565b600081519050610211816101eb565b92915050565b60006020828403121561022d5761022c6101b4565b5b600061023b84828501610202565b91505092915050565b61024d816101d9565b82525050565b60006020820190506102686000830184610244565b92915050565b600081519050919050565b7f4e487b7100000000000000000000000000000000000000000000000000000000600052604160045260246000fd5b7f4e487b7100000000000000000000000000000000000000000000000000000000600052602260045260246000fd5b600060028204905060018216806102ef57607f821691505b602082108103610302576103016102a8565b5b50919050565b60008190508160005260206000209050919050565b60006020601f8301049050919050565b600082821b905092915050565b60006008830261036a7fffffffffffffffffffffffffffffffffffffffffffffffffffffffffffffffff8261032d565b610374868361032d565b95508019841693508086168417925050509392505050565b6000819050919050565b6000819050919050565b60006103bb6103b66103b18461038c565b610396565b61038c565b9050919050565b6000819050919050565b6103d5836103a0565b6103e96103e1826103c2565b84845461033a565b825550505050565b600090565b6103fe6103f1565b6104098184846103cc565b505050565b5b8181101561042d576104226000826103f6565b60018101905061040f565b5050565b601f8211156104725761044381610308565b61044c8461031d565b8101602085101561045b578190505b61046f6104678561031d565b83018261040e565b50505b505050565b600082821c905092915050565b600061049560001984600802610477565b1980831691505092915050565b60006104ae8383610484565b9150826002028217905092915050565b6104c78261026e565b67ffffffffffffffff8111156104e0576104df610279565b5b6104ea82546102d7565b6104f5828285610431565b600060209050601f8311600181146105285760008415610516578287015190505b61052085826104a2565b865550610588565b601f19841661053686610308565b60005b8281101561055e57848901518255600182019150602085019450602081019050610539565b8683101561057b5784890151610577601f891682610484565b8355505b6001600288020188555050505b505050505050565b612bbf8061059f6000396000f3fe608060405234801561001057600080fd5b50600436106100f45760003560e01c8063715018a611610097578063e985e9c511610066578063e985e9c51461026d578063f242432a1461029d578063f2fde38b146102b9578063f5298aca146102d5576100f4565b8063715018a61461020d578063731133e9146102175780638da5cb5b14610233578063a22cb46514610251576100f4565b80631f7fdffa116100d35780631f7fdffa146101895780632eb2c2d6146101a55780634e1273f4146101c15780636b20c454146101f1576100f4565b8062fdd58e146100f957806301ffc9a7146101295780630e89341c14610159575b600080fd5b610113600480360381019061010e9190611c3a565b6102f1565b6040516101209190611c89565b60405180910390f35b610143600480360381019061013e9190611cfc565b61034b565b6040516101509190611d44565b60405180910390f35b610173600480360381019061016e9190611d5f565b61042d565b6040516101809190611e1c565b60405180910390f35b6101a3600480360381019061019e919061203b565b610478565b005b6101bf60048036038101906101ba91906120f6565b610492565b005b6101db60048036038101906101d69190612288565b61053a565b6040516101e891906123be565b60405180910390f35b61020b600480360381019061020691906123e0565b610643565b005b6102156106ef565b005b610231600480360381019061022c919061246b565b610703565b005b61023b61071d565b60405161024891906124fd565b60405180910390f35b61026b60048036038101906102669190612544565b610747565b005b61028760048036038101906102829190612584565b61075d565b6040516102949190611d44565b60405180910390f35b6102b760048036038101906102b291906125c4565b6107f1565b005b6102d360048036038101906102ce919061265b565b610899565b005b6102ef60048036038101906102ea9190612688565b61091f565b005b600080600083815260200190815260200160002060008473ffffffffffffffffffffffffffffffffffffffff1673ffffffffffffffffffffffffffffffffffffffff16815260200190815260200160002054905092915050565b60007fd9b67a26000000000000000000000000000000000000000000000000000000007bffffffffffffffffffffffffffffffffffffffffffffffffffffffff1916827bffffffffffffffffffffffffffffffffffffffffffffffffffffffff1916148061041657507f0e89341c000000000000000000000000000000000000000000000000000000007bffffffffffffffffffffffffffffffffffffffffffffffffffffffff1916827bffffffffffffffffffffffffffffffffffffffffffffffffffffffff1916145b806104265750610425826109cb565b5b9050919050565b60606040518060600160405280603b8152602001612b4f603b913961045183610a35565b604051602001610462929190612821565b6040516020818303038152906040529050919050565b610480610b03565b61048c84848484610b8a565b50505050565b600061049c610c10565b90508073ffffffffffffffffffffffffffffffffffffffff168673ffffffffffffffffffffffffffffffffffffffff16141580156104e157506104df868261075d565b155b156105255780866040517fe237d92200000000000000000000000000000000000000000000000000000000815260040161051c929190612866565b60405180910390fd5b6105328686868686610c18565b505050505050565b6060815183511461058657815183516040517f5b05999100000000000000000000000000000000000000000000000000000000815260040161057d92919061288f565b60405180910390fd5b6000835167ffffffffffffffff8111156105a3576105a2611e43565b5b6040519080825280602002602001820160405280156105d15781602001602082028036833780820191505090505b50905060005b84518110156106385761060e6105f68287610d1090919063ffffffff16565b6106098387610d2490919063ffffffff16565b6102f1565b828281518110610621576106206128b8565b5b6020026020010181815250508060010190506105d7565b508091505092915050565b61064b610c10565b73ffffffffffffffffffffffffffffffffffffffff168373ffffffffffffffffffffffffffffffffffffffff161415801561069457506106928361068d610c10565b61075d565b155b156106df576106a1610c10565b836040517fe237d9220000000000000000000000000000000000000000000000000000000081526004016106d6929190612866565b60405180910390fd5b6106ea838383610d38565b505050565b6106f7610b03565b6107016000610dcc565b565b61070b610b03565b61071784848484610e92565b50505050565b6000600360009054906101000a900473ffffffffffffffffffffffffffffffffffffffff16905090565b610759610752610c10565b8383610f2b565b5050565b6000600160008473ffffffffffffffffffffffffffffffffffffffff1673ffffffffffffffffffffffffffffffffffffffff16815260200190815260200160002060008373ffffffffffffffffffffffffffffffffffffffff1673ffffffffffffffffffffffffffffffffffffffff16815260200190815260200160002060009054906101000a900460ff16905092915050565b60006107fb610c10565b90508073ffffffffffffffffffffffffffffffffffffffff168673ffffffffffffffffffffffffffffffffffffffff1614158015610840575061083e868261075d565b155b156108845780866040517fe237d92200000000000000000000000000000000000000000000000000000000815260040161087b929190612866565b60405180910390fd5b610891868686868661109b565b505050505050565b6108a1610b03565b600073ffffffffffffffffffffffffffffffffffffffff168173ffffffffffffffffffffffffffffffffffffffff16036109135760006040517f1e4fbdf700000000000000000000000000000000000000000000000000000000815260040161090a91906124fd565b60405180910390fd5b61091c81610dcc565b50565b610927610c10565b73ffffffffffffffffffffffffffffffffffffffff168373ffffffffffffffffffffffffffffffffffffffff1614158015610970575061096e83610969610c10565b61075d565b155b156109bb5761097d610c10565b836040517fe237d9220000000000000000000000000000000000000000000000000000000081526004016109b2929190612866565b60405180910390fd5b6109c68383836111a6565b505050565b60007f01ffc9a7000000000000000000000000000000000000000000000000000000007bffffffffffffffffffffffffffffffffffffffffffffffffffffffff1916827bffffffffffffffffffffffffffffffffffffffffffffffffffffffff1916149050919050565b606060006001610a448461124d565b01905060008167ffffffffffffffff811115610a6357610a62611e43565b5b6040519080825280601f01601f191660200182016040528015610a955781602001600182028036833780820191505090505b509050600082602001820190505b600115610af8578080600190039150507f3031323334353637383961626364656600000000000000000000000000000000600a86061a8153600a8581610aec57610aeb6128e7565b5b04945060008503610aa3575b819350505050919050565b610b0b610c10565b73ffffffffffffffffffffffffffffffffffffffff16610b2961071d565b73ffffffffffffffffffffffffffffffffffffffff1614610b8857610b4c610c10565b6040517f118cdaa7000000000000000000000000000000000000000000000000000000008152600401610b7f91906124fd565b60405180910390fd5b565b600073ffffffffffffffffffffffffffffffffffffffff168473ffffffffffffffffffffffffffffffffffffffff1603610bfc5760006040517f57f447ce000000000000000000000000000000000000000000000000000000008152600401610bf391906124fd565b60405180910390fd5b610c0a6000858585856113a0565b50505050565b600033905090565b600073ffffffffffffffffffffffffffffffffffffffff168473ffffffffffffffffffffffffffffffffffffffff1603610c8a5760006040517f57f447ce000000000000000000000000000000000000000000000000000000008152600401610c8191906124fd565b60405180910390fd5b600073ffffffffffffffffffffffffffffffffffffffff168573ffffffffffffffffffffffffffffffffffffffff1603610cfc5760006040517f01a83514000000000000000000000000000000000000000000000000000000008152600401610cf391906124fd565b60405180910390fd5b610d0985858585856113a0565b5050505050565b600060208202602084010151905092915050565b600060208202602084010151905092915050565b600073ffffffffffffffffffffffffffffffffffffffff168373ffffffffffffffffffffffffffffffffffffffff1603610daa5760006040517f01a83514000000000000000000000000000000000000000000000000000000008152600401610da191906124fd565b60405180910390fd5b610dc78360008484604051806020016040528060008152506113a0565b505050565b6000600360009054906101000a900473ffffffffffffffffffffffffffffffffffffffff16905081600360006101000a81548173ffffffffffffffffffffffffffffffffffffffff021916908373ffffffffffffffffffffffffffffffffffffffff1602179055508173ffffffffffffffffffffffffffffffffffffffff168173ffffffffffffffffffffffffffffffffffffffff167f8be0079c531659141344cd1fd0a4f28419497f9722a3daafe3b4186f6b6457e060405160405180910390a35050565b600073ffffffffffffffffffffffffffffffffffffffff168473ffffffffffffffffffffffffffffffffffffffff1603610f045760006040517f57f447ce000000000000000000000000000000000000000000000000000000008152600401610efb91906124fd565b60405180910390fd5b600080610f118585611452565b91509150610f236000878484876113a0565b505050505050565b600073ffffffffffffffffffffffffffffffffffffffff168273ffffffffffffffffffffffffffffffffffffffff1603610f9d5760006040517fced3e100000000000000000000000000000000000000000000000000000000008152600401610f9491906124fd565b60405180910390fd5b80600160008573ffffffffffffffffffffffffffffffffffffffff1673ffffffffffffffffffffffffffffffffffffffff16815260200190815260200160002060008473ffffffffffffffffffffffffffffffffffffffff1673ffffffffffffffffffffffffffffffffffffffff16815260200190815260200160002060006101000a81548160ff0219169083151502179055508173ffffffffffffffffffffffffffffffffffffffff168373ffffffffffffffffffffffffffffffffffffffff167f17307eab39ab6107e8899845ad3d59bd9653f200f220920489ca2b5937696c318360405161108e9190611d44565b60405180910390a3505050565b600073ffffffffffffffffffffffffffffffffffffffff168473ffffffffffffffffffffffffffffffffffffffff160361110d5760006040517f57f447ce00000000000000000000000000000000000000000000000000000000815260040161110491906124fd565b60405180910390fd5b600073ffffffffffffffffffffffffffffffffffffffff168573ffffffffffffffffffffffffffffffffffffffff160361117f5760006040517f01a8351400000000000000000000000000000000000000000000000000000000815260040161117691906124fd565b60405180910390fd5b60008061118c8585611452565b9150915061119d87878484876113a0565b50505050505050565b600073ffffffffffffffffffffffffffffffffffffffff168373ffffffffffffffffffffffffffffffffffffffff16036112185760006040517f01a8351400000000000000000000000000000000000000000000000000000000815260040161120f91906124fd565b60405180910390fd5b6000806112258484611452565b915091506112468560008484604051806020016040528060008152506113a0565b5050505050565b600080600090507a184f03e93ff9f4daa797ed6e38ed64bf6a1f01000000000000000083106112ab577a184f03e93ff9f4daa797ed6e38ed64bf6a1f01000000000000000083816112a1576112a06128e7565b5b0492506040810190505b6d04ee2d6d415b85acef810000000083106112e8576d04ee2d6d415b85acef810000000083816112de576112dd6128e7565b5b0492506020810190505b662386f26fc10000831061131757662386f26fc10000838161130d5761130c6128e7565b5b0492506010810190505b6305f5e1008310611340576305f5e1008381611336576113356128e7565b5b0492506008810190505b612710831061136557612710838161135b5761135a6128e7565b5b0492506004810190505b60648310611388576064838161137e5761137d6128e7565b5b0492506002810190505b600a8310611397576001810190505b80915050919050565b6113ac85858585611482565b600073ffffffffffffffffffffffffffffffffffffffff168473ffffffffffffffffffffffffffffffffffffffff161461144b5760006113ea610c10565b9050600184510361143a57600061140b600086610d2490919063ffffffff16565b90506000611423600086610d2490919063ffffffff16565b905061143383898985858961182a565b5050611449565b6114488187878787876119de565b5b505b5050505050565b60608060405191506001825283602083015260408201905060018152826020820152604081016040529250929050565b80518251146114cc57815181516040517f5b0599910000000000000000000000000000000000000000000000000000000081526004016114c392919061288f565b60405180910390fd5b60006114d6610c10565b905060005b83518110156116e55760006114f98286610d2490919063ffffffff16565b905060006115108386610d2490919063ffffffff16565b9050600073ffffffffffffffffffffffffffffffffffffffff168873ffffffffffffffffffffffffffffffffffffffff161461163d57600080600084815260200190815260200160002060008a73ffffffffffffffffffffffffffffffffffffffff1673ffffffffffffffffffffffffffffffffffffffff168152602001908152602001600020549050818110156115e557888183856040517f03dee4c50000000000000000000000000000000000000000000000000000000081526004016115dc9493929190612916565b60405180910390fd5b81810360008085815260200190815260200160002060008b73ffffffffffffffffffffffffffffffffffffffff1673ffffffffffffffffffffffffffffffffffffffff16815260200190815260200160002081905550505b600073ffffffffffffffffffffffffffffffffffffffff168773ffffffffffffffffffffffffffffffffffffffff16146116d8578060008084815260200190815260200160002060008973ffffffffffffffffffffffffffffffffffffffff1673ffffffffffffffffffffffffffffffffffffffff16815260200190815260200160002060008282546116d0919061298a565b925050819055505b50508060010190506114db565b5060018351036117a4576000611705600085610d2490919063ffffffff16565b9050600061171d600085610d2490919063ffffffff16565b90508573ffffffffffffffffffffffffffffffffffffffff168773ffffffffffffffffffffffffffffffffffffffff168473ffffffffffffffffffffffffffffffffffffffff167fc3d58168c5ae7397731d063d5bbf3d657854427343f4c083240f7aacaa2d0f62858560405161179592919061288f565b60405180910390a45050611823565b8373ffffffffffffffffffffffffffffffffffffffff168573ffffffffffffffffffffffffffffffffffffffff168273ffffffffffffffffffffffffffffffffffffffff167f4a39dc06d4c0dbc64b70af90fd698a233a518aa5d07e595d983b8c0526c8f7fb868660405161181a9291906129be565b60405180910390a45b5050505050565b60008473ffffffffffffffffffffffffffffffffffffffff163b11156119d6578373ffffffffffffffffffffffffffffffffffffffff1663f23a6e6187878686866040518663ffffffff1660e01b815260040161188b959493929190612a4a565b6020604051808303816000875af19250505080156118c757506040513d601f19601f820116820180604052508101906118c49190612ab9565b60015b61194b573d80600081146118f7576040519150601f19603f3d011682016040523d82523d6000602084013e6118fc565b606091505b50600081510361194357846040517f57f447ce00000000000000000000000000000000000000000000000000000000815260040161193a91906124fd565b60405180910390fd5b805181602001fd5b63f23a6e6160e01b7bffffffffffffffffffffffffffffffffffffffffffffffffffffffff1916817bffffffffffffffffffffffffffffffffffffffffffffffffffffffff1916146119d457846040517f57f447ce0000000000000000000000000000000000000000000000000000000081526004016119cb91906124fd565b60405180910390fd5b505b505050505050565b60008473ffffffffffffffffffffffffffffffffffffffff163b1115611b8a578373ffffffffffffffffffffffffffffffffffffffff1663bc197c8187878686866040518663ffffffff1660e01b8152600401611a3f959493929190612ae6565b6020604051808303816000875af1925050508015611a7b57506040513d601f19601f82011682018060405250810190611a789190612ab9565b60015b611aff573d8060008114611aab576040519150601f19603f3d011682016040523d82523d6000602084013e611ab0565b606091505b506000815103611af757846040517f57f447ce000000000000000000000000000000000000000000000000000000008152600401611aee91906124fd565b60405180910390fd5b805181602001fd5b63bc197c8160e01b7bffffffffffffffffffffffffffffffffffffffffffffffffffffffff1916817bffffffffffffffffffffffffffffffffffffffffffffffffffffffff191614611b8857846040517f57f447ce000000000000000000000000000000000000000000000000000000008152600401611b7f91906124fd565b60405180910390fd5b505b505050505050565b6000604051905090565b600080fd5b600080fd5b600073ffffffffffffffffffffffffffffffffffffffff82169050919050565b6000611bd182611ba6565b9050919050565b611be181611bc6565b8114611bec57600080fd5b50565b600081359050611bfe81611bd8565b92915050565b6000819050919050565b611c1781611c04565b8114611c2257600080fd5b50565b600081359050611c3481611c0e565b92915050565b60008060408385031215611c5157611c50611b9c565b5b6000611c5f85828601611bef565b9250506020611c7085828601611c25565b9150509250929050565b611c8381611c04565b82525050565b6000602082019050611c9e6000830184611c7a565b92915050565b60007fffffffff0000000000000000000000000000000000000000000000000000000082169050919050565b611cd981611ca4565b8114611ce457600080fd5b50565b600081359050611cf681611cd0565b92915050565b600060208284031215611d1257611d11611b9c565b5b6000611d2084828501611ce7565b91505092915050565b60008115159050919050565b611d3e81611d29565b82525050565b6000602082019050611d596000830184611d35565b92915050565b600060208284031215611d7557611d74611b9c565b5b6000611d8384828501611c25565b91505092915050565b600081519050919050565b600082825260208201905092915050565b60005b83811015611dc6578082015181840152602081019050611dab565b60008484015250505050565b6000601f19601f8301169050919050565b6000611dee82611d8c565b611df88185611d97565b9350611e08818560208601611da8565b611e1181611dd2565b840191505092915050565b60006020820190508181036000830152611e368184611de3565b905092915050565b600080fd5b7f4e487b7100000000000000000000000000000000000000000000000000000000600052604160045260246000fd5b611e7b82611dd2565b810181811067ffffffffffffffff82111715611e9a57611e99611e43565b5b80604052505050565b6000611ead611b92565b9050611eb98282611e72565b919050565b600067ffffffffffffffff821115611ed957611ed8611e43565b5b602082029050602081019050919050565b600080fd5b6000611f02611efd84611ebe565b611ea3565b90508083825260208201905060208402830185811115611f2557611f24611eea565b5b835b81811015611f4e5780611f3a8882611c25565b845260208401935050602081019050611f27565b5050509392505050565b600082601f830112611f6d57611f6c611e3e565b5b8135611f7d848260208601611eef565b91505092915050565b600080fd5b600067ffffffffffffffff821115611fa657611fa5611e43565b5b611faf82611dd2565b9050602081019050919050565b82818337600083830152505050565b6000611fde611fd984611f8b565b611ea3565b905082815260208101848484011115611ffa57611ff9611f86565b5b612005848285611fbc565b509392505050565b600082601f83011261202257612021611e3e565b5b8135612032848260208601611fcb565b91505092915050565b6000806000806080858703121561205557612054611b9c565b5b600061206387828801611bef565b945050602085013567ffffffffffffffff81111561208457612083611ba1565b5b61209087828801611f58565b935050604085013567ffffffffffffffff8111156120b1576120b0611ba1565b5b6120bd87828801611f58565b925050606085013567ffffffffffffffff8111156120de576120dd611ba1565b5b6120ea8782880161200d565b91505092959194509250565b600080600080600060a0868803121561211257612111611b9c565b5b600061212088828901611bef565b955050602061213188828901611bef565b945050604086013567ffffffffffffffff81111561215257612151611ba1565b5b61215e88828901611f58565b935050606086013567ffffffffffffffff81111561217f5761217e611ba1565b5b61218b88828901611f58565b925050608086013567ffffffffffffffff8111156121ac576121ab611ba1565b5b6121b88882890161200d565b9150509295509295909350565b600067ffffffffffffffff8211156121e0576121df611e43565b5b602082029050602081019050919050565b60006122046121ff846121c5565b611ea3565b9050808382526020820190506020840283018581111561222757612226611eea565b5b835b81811015612250578061223c8882611bef565b845260208401935050602081019050612229565b5050509392505050565b600082601f83011261226f5761226e611e3e565b5b813561227f8482602086016121f1565b91505092915050565b6000806040838503121561229f5761229e611b9c565b5b600083013567ffffffffffffffff8111156122bd576122bc611ba1565b5b6122c98582860161225a565b925050602083013567ffffffffffffffff8111156122ea576122e9611ba1565b5b6122f685828601611f58565b9150509250929050565b600081519050919050565b600082825260208201905092915050565b6000819050602082019050919050565b61233581611c04565b82525050565b6000612347838361232c565b60208301905092915050565b6000602082019050919050565b600061236b82612300565b612375818561230b565b93506123808361231c565b8060005b838110156123b1578151612398888261233b565b97506123a383612353565b925050600181019050612384565b5085935050505092915050565b600060208201905081810360008301526123d88184612360565b905092915050565b6000806000606084860312156123f9576123f8611b9c565b5b600061240786828701611bef565b935050602084013567ffffffffffffffff81111561242857612427611ba1565b5b61243486828701611f58565b925050604084013567ffffffffffffffff81111561245557612454611ba1565b5b61246186828701611f58565b9150509250925092565b6000806000806080858703121561248557612484611b9c565b5b600061249387828801611bef565b94505060206124a487828801611c25565b93505060406124b587828801611c25565b925050606085013567ffffffffffffffff8111156124d6576124d5611ba1565b5b6124e28782880161200d565b91505092959194509250565b6124f781611bc6565b82525050565b600060208201905061251260008301846124ee565b92915050565b61252181611d29565b811461252c57600080fd5b50565b60008135905061253e81612518565b92915050565b6000806040838503121561255b5761255a611b9c565b5b600061256985828601611bef565b925050602061257a8582860161252f565b9150509250929050565b6000806040838503121561259b5761259a611b9c565b5b60006125a985828601611bef565b92505060206125ba85828601611bef565b9150509250929050565b600080600080600060a086880312156125e0576125df611b9c565b5b60006125ee88828901611bef565b95505060206125ff88828901611bef565b945050604061261088828901611c25565b935050606061262188828901611c25565b925050608086013567ffffffffffffffff81111561264257612641611ba1565b5b61264e8882890161200d565b9150509295509295909350565b60006020828403121561267157612670611b9c565b5b600061267f84828501611bef565b91505092915050565b6000806000606084860312156126a1576126a0611b9c565b5b60006126af86828701611bef565b93505060206126c086828701611c25565b92505060406126d186828701611c25565b9150509250925092565b600081905092915050565b7f68747470733a2f2f6c6176656e6465722d6e6561722d776f6c662d362e6d797060008201527f696e6174612e636c6f75642f697066732f000000000000000000000000000000602082015250565b60006127426031836126db565b915061274d826126e6565b603182019050919050565b600061276382611d8c565b61276d81856126db565b935061277d818560208601611da8565b80840191505092915050565b7f2f00000000000000000000000000000000000000000000000000000000000000600082015250565b60006127bf6001836126db565b91506127ca82612789565b600182019050919050565b7f2e6a736f6e000000000000000000000000000000000000000000000000000000600082015250565b600061280b6005836126db565b9150612816826127d5565b600582019050919050565b600061282c82612735565b91506128388285612758565b9150612843826127b2565b915061284f8284612758565b915061285a826127fe565b91508190509392505050565b600060408201905061287b60008301856124ee565b61288860208301846124ee565b9392505050565b60006040820190506128a46000830185611c7a565b6128b16020830184611c7a565b9392505050565b7f4e487b7100000000000000000000000000000000000000000000000000000000600052603260045260246000fd5b7f4e487b7100000000000000000000000000000000000000000000000000000000600052601260045260246000fd5b600060808201905061292b60008301876124ee565b6129386020830186611c7a565b6129456040830185611c7a565b6129526060830184611c7a565b95945050505050565b7f4e487b7100000000000000000000000000000000000000000000000000000000600052601160045260246000fd5b600061299582611c04565b91506129a083611c04565b92508282019050808211156129b8576129b761295b565b5b92915050565b600060408201905081810360008301526129d88185612360565b905081810360208301526129ec8184612360565b90509392505050565b600081519050919050565b600082825260208201905092915050565b6000612a1c826129f5565b612a268185612a00565b9350612a36818560208601611da8565b612a3f81611dd2565b840191505092915050565b600060a082019050612a5f60008301886124ee565b612a6c60208301876124ee565b612a796040830186611c7a565b612a866060830185611c7a565b8181036080830152612a988184612a11565b90509695505050505050565b600081519050612ab381611cd0565b92915050565b600060208284031215612acf57612ace611b9c565b5b6000612add84828501612aa4565b91505092915050565b600060a082019050612afb60008301886124ee565b612b0860208301876124ee565b8181036040830152612b1a8186612360565b90508181036060830152612b2e8185612360565b90508181036080830152612b428184612a11565b9050969550505050505056fe626166796265696371646a326978736a7064617163776f78706e73786b6572707068796f326b61746870717a6262666c7173347165696573677a65a26469706673582212207efca9c816b8c992d3f9e91de7558220871db078d1eab3a31cac2e157a3257e064736f6c634300081e0033",
  "linkReferences": {},
  "deployedLinkReferences": {}
}