{
  "_format": "hh-sol-artifact-1",
  "contractName": "custom",
  "sourceName": "contracts/customERC20/custom.sol",
  "abi": [
    {
      "inputs": [],
      "stateMutability": "nonpayable",
      "type": "constructor"
    },
    {
      "anonymous": false,
      "inputs": [
        {
          "indexed": false,
          "internalType": "uint256",
          "name": "amount",
          "type": "uint256"
        },
        {
          "indexed": false,
          "internalType": "uint256",
          "name": "percentage",
          "type": "uint256"
        }
      ],
      "name": "Burn",
      "type": "event"
    },
    {
      "anonymous": false,
      "inputs": [
        {
          "indexed": true,
          "internalType": "address",
          "name": "user",
          "type": "address"
        },
        {
          "indexed": false,
          "internalType": "bool",
          "name": "status",
          "type": "bool"
        }
      ],
      "name": "whitelistupdated",
      "type": "event"
    },
    {
      "inputs": [],
      "name": "Supply_total",
      "outputs": [
        {
          "internalType": "uint256",
          "name": "",
          "type": "uint256"
        }
      ],
      "stateMutability": "pure",
      "type": "function"
    },
    {
      "inputs": [],
      "name": "TokenName",
      "outputs": [
        {
          "internalType": "string",
          "name": "",
          "type": "string"
        }
      ],
      "stateMutability": "pure",
      "type": "function"
    },
    {
      "inputs": [],
      "name": "TokenSymbol",
      "outputs": [
        {
          "internalType": "string",
          "name": "",
          "type": "string"
        }
      ],
      "stateMutability": "pure",
      "type": "function"
    },
    {
      "inputs": [],
      "name": "burn",
      "outputs": [],
      "stateMutability": "nonpayable",
      "type": "function"
    },
    {
      "inputs": [],
      "name": "burntaxtotalvalue",
      "outputs": [
        {
          "internalType": "uint256",
          "name": "",
          "type": "uint256"
        }
      ],
      "stateMutability": "view",
      "type": "function"
    },
    {
      "inputs": [],
      "name": "getWhitelistedAddress",
      "outputs": [
        {
          "internalType": "address[]",
          "name": "",
          "type": "address[]"
        }
      ],
      "stateMutability": "view",
      "type": "function"
    },
    {
      "inputs": [],
      "name": "pertaxvalue",
      "outputs": [
        {
          "internalType": "uint256",
          "name": "",
          "type": "uint256"
        }
      ],
      "stateMutability": "view",
      "type": "function"
    },
    {
      "inputs": [
        {
          "internalType": "address",
          "name": "user",
          "type": "address"
        },
        {
          "internalType": "bool",
          "name": "status",
          "type": "bool"
        }
      ],
      "name": "setWhitelist",
      "outputs": [],
      "stateMutability": "nonpayable",
      "type": "function"
    },
    {
      "inputs": [
        {
          "internalType": "uint256",
          "name": "_burnTax",
          "type": "uint256"
        }
      ],
      "name": "setburntax",
      "outputs": [],
      "stateMutability": "nonpayable",
      "type": "function"
    },
    {
      "inputs": [],
      "name": "total_Supply_remain",
      "outputs": [
        {
          "internalType": "uint256",
          "name": "",
          "type": "uint256"
        }
      ],
      "stateMutability": "view",
      "type": "function"
    }
  ],
  "bytecode": "0x60806040526b204fce5e3e25026110000000600355348015601f57600080fd5b50336000806101000a81548173ffffffffffffffffffffffffffffffffffffffff021916908373ffffffffffffffffffffffffffffffffffffffff1602179055506110ca8061006f6000396000f3fe608060405234801561001057600080fd5b506004361061009d5760003560e01c80637e92369d116100665780637e92369d14610120578063a888dda01461013e578063b6d7855a1461015c578063c72639741461017a578063d5935838146101985761009d565b8062c8fbd4146100a2578063411fb3fb146100c057806344df8e70146100de57806353d6fd59146100e85780637ceeb32114610104575b600080fd5b6100aa6101b6565b6040516100b79190610984565b60405180910390f35b6100c86101f3565b6040516100d591906109bf565b60405180910390f35b6100e66101fd565b005b61010260048036038101906100fd9190610a75565b610374565b005b61011e60048036038101906101199190610ae1565b6106b6565b005b610128610801565b60405161013591906109bf565b60405180910390f35b61014661080b565b6040516101539190610bcc565b60405180910390f35b610164610899565b6040516101719190610984565b60405180910390f35b6101826108d6565b60405161018f91906109bf565b60405180910390f35b6101a06108ea565b6040516101ad91906109bf565b60405180910390f35b60606040518060400160405280600381526020017f4c41480000000000000000000000000000000000000000000000000000000000815250905090565b6000600354905090565b60008054906101000a900473ffffffffffffffffffffffffffffffffffffffff1673ffffffffffffffffffffffffffffffffffffffff163373ffffffffffffffffffffffffffffffffffffffff161461028b576040517f08c379a000000000000000000000000000000000000000000000000000000000815260040161028290610c3a565b60405180910390fd5b6000600254116102d0576040517f08c379a00000000000000000000000000000000000000000000000000000000081526004016102c790610ccc565b60405180910390fd5b600060646002546b204fce5e3e250261100000006102ee9190610d1b565b6102f89190610d8c565b9050806003600082825461030c9190610dbd565b92505081905550600254600160008282546103279190610df1565b925050819055507f410c5c259085cde81fedf70c1aa308ec839373c26e9b7ada6560a2aca0254eb681600254604051610361929190610e25565b60405180910390a1600060028190555050565b60008054906101000a900473ffffffffffffffffffffffffffffffffffffffff1673ffffffffffffffffffffffffffffffffffffffff163373ffffffffffffffffffffffffffffffffffffffff1614610402576040517f08c379a00000000000000000000000000000000000000000000000000000000081526004016103f990610c3a565b60405180910390fd5b600073ffffffffffffffffffffffffffffffffffffffff168273ffffffffffffffffffffffffffffffffffffffff1603610471576040517f08c379a000000000000000000000000000000000000000000000000000000000815260040161046890610e9a565b60405180910390fd5b600560008373ffffffffffffffffffffffffffffffffffffffff1673ffffffffffffffffffffffffffffffffffffffff16815260200190815260200160002060009054906101000a900460ff16156104fe576040517f08c379a00000000000000000000000000000000000000000000000000000000081526004016104f590610f06565b60405180910390fd5b6001151581151514801561055c5750600560008373ffffffffffffffffffffffffffffffffffffffff1673ffffffffffffffffffffffffffffffffffffffff16815260200190815260200160002060009054906101000a900460ff16155b1561060d576005600480549050106105a9576040517f08c379a00000000000000000000000000000000000000000000000000000000081526004016105a090610f72565b60405180910390fd5b6004829080600181540180825580915050600190039060005260206000200160009091909190916101000a81548173ffffffffffffffffffffffffffffffffffffffff021916908373ffffffffffffffffffffffffffffffffffffffff1602179055505b80600560008473ffffffffffffffffffffffffffffffffffffffff1673ffffffffffffffffffffffffffffffffffffffff16815260200190815260200160002060006101000a81548160ff0219169083151502179055508173ffffffffffffffffffffffffffffffffffffffff167fb4b40f6bd3afabe9ae4d6bc340c65971f6b772a3f307c68bb0a4ab80d297608a826040516106aa9190610fa1565b60405180910390a25050565b60008054906101000a900473ffffffffffffffffffffffffffffffffffffffff1673ffffffffffffffffffffffffffffffffffffffff163373ffffffffffffffffffffffffffffffffffffffff1614610744576040517f08c379a000000000000000000000000000000000000000000000000000000000815260040161073b90610c3a565b60405180910390fd5b600081118015610755575060038111155b610794576040517f08c379a000000000000000000000000000000000000000000000000000000000815260040161078b90611008565b60405180910390fd5b6003816001546107a49190610df1565b11156107e5576040517f08c379a00000000000000000000000000000000000000000000000000000000081526004016107dc90611074565b60405180910390fd5b80600260008282546107f79190610df1565b9250508190555050565b6000600254905090565b6060600480548060200260200160405190810160405280929190818152602001828054801561088f57602002820191906000526020600020905b8160009054906101000a900473ffffffffffffffffffffffffffffffffffffffff1673ffffffffffffffffffffffffffffffffffffffff1681526020019060010190808311610845575b5050505050905090565b60606040518060400160405280600981526020017f4c61686c61686c61680000000000000000000000000000000000000000000000815250905090565b60006b204fce5e3e25026110000000905090565b6000600154905090565b600081519050919050565b600082825260208201905092915050565b60005b8381101561092e578082015181840152602081019050610913565b60008484015250505050565b6000601f19601f8301169050919050565b6000610956826108f4565b61096081856108ff565b9350610970818560208601610910565b6109798161093a565b840191505092915050565b6000602082019050818103600083015261099e818461094b565b905092915050565b6000819050919050565b6109b9816109a6565b82525050565b60006020820190506109d460008301846109b0565b92915050565b600080fd5b600073ffffffffffffffffffffffffffffffffffffffff82169050919050565b6000610a0a826109df565b9050919050565b610a1a816109ff565b8114610a2557600080fd5b50565b600081359050610a3781610a11565b92915050565b60008115159050919050565b610a5281610a3d565b8114610a5d57600080fd5b50565b600081359050610a6f81610a49565b92915050565b60008060408385031215610a8c57610a8b6109da565b5b6000610a9a85828601610a28565b9250506020610aab85828601610a60565b9150509250929050565b610abe816109a6565b8114610ac957600080fd5b50565b600081359050610adb81610ab5565b92915050565b600060208284031215610af757610af66109da565b5b6000610b0584828501610acc565b91505092915050565b600081519050919050565b600082825260208201905092915050565b6000819050602082019050919050565b610b43816109ff565b82525050565b6000610b558383610b3a565b60208301905092915050565b6000602082019050919050565b6000610b7982610b0e565b610b838185610b19565b9350610b8e83610b2a565b8060005b83811015610bbf578151610ba68882610b49565b9750610bb183610b61565b925050600181019050610b92565b5085935050505092915050565b60006020820190508181036000830152610be68184610b6e565b905092915050565b7f6f6e6c79206f776e65722063616e2063616c6c00000000000000000000000000600082015250565b6000610c246013836108ff565b9150610c2f82610bee565b602082019050919050565b60006020820190508181036000830152610c5381610c17565b9050919050565b7f4275726e20746178206d75737420626520736574206265666f7265206275726e60008201527f696e670000000000000000000000000000000000000000000000000000000000602082015250565b6000610cb66023836108ff565b9150610cc182610c5a565b604082019050919050565b60006020820190508181036000830152610ce581610ca9565b9050919050565b7f4e487b7100000000000000000000000000000000000000000000000000000000600052601160045260246000fd5b6000610d26826109a6565b9150610d31836109a6565b9250828202610d3f816109a6565b91508282048414831517610d5657610d55610cec565b5b5092915050565b7f4e487b7100000000000000000000000000000000000000000000000000000000600052601260045260246000fd5b6000610d97826109a6565b9150610da2836109a6565b925082610db257610db1610d5d565b5b828204905092915050565b6000610dc8826109a6565b9150610dd3836109a6565b9250828203905081811115610deb57610dea610cec565b5b92915050565b6000610dfc826109a6565b9150610e07836109a6565b9250828201905080821115610e1f57610e1e610cec565b5b92915050565b6000604082019050610e3a60008301856109b0565b610e4760208301846109b0565b9392505050565b7f496e76616c696420616464726573730000000000000000000000000000000000600082015250565b6000610e84600f836108ff565b9150610e8f82610e4e565b602082019050919050565b60006020820190508181036000830152610eb381610e77565b9050919050565b7f4164647265737320697320616c72656164792077686974656c69737465640000600082015250565b6000610ef0601e836108ff565b9150610efb82610eba565b602082019050919050565b60006020820190508181036000830152610f1f81610ee3565b9050919050565b7f4c696d697420666f72207468652077686974656c697374656420697320350000600082015250565b6000610f5c601e836108ff565b9150610f6782610f26565b602082019050919050565b60006020820190508181036000830152610f8b81610f4f565b9050919050565b610f9b81610a3d565b82525050565b6000602082019050610fb66000830184610f92565b92915050565b7f496e76616c6964207461782076616c7565000000000000000000000000000000600082015250565b6000610ff26011836108ff565b9150610ffd82610fbc565b602082019050919050565b6000602082019050818103600083015261102181610fe5565b9050919050565b7f546f74616c207461782063616e6e6f7420657863656564203325000000000000600082015250565b600061105e601a836108ff565b915061106982611028565b602082019050919050565b6000602082019050818103600083015261108d81611051565b905091905056fea2646970667358221220496156a76d21bd8739b10b384f3df0a86a2439a43159d09812c8d2b38193e79564736f6c634300081e0033",
  "linkReferences": {},
  "deployedLinkReferences": {}
}